{
	"contracts/hangman.sol": {
		"Hangman": {
			"abi": [
				{
					"anonymous": false,
					"inputs": [
						{
							"indexed": true,
							"internalType": "string",
							"name": "gameID",
							"type": "string"
						},
						{
							"indexed": false,
							"internalType": "uint8",
							"name": "numOfPlayers",
							"type": "uint8"
						}
					],
					"name": "GameCreated",
					"type": "event"
				},
				{
					"anonymous": false,
					"inputs": [
						{
							"indexed": true,
							"internalType": "string",
							"name": "gameID",
							"type": "string"
						},
						{
							"indexed": false,
							"internalType": "enum Hangman.GameResult",
							"name": "result",
							"type": "uint8"
						},
						{
							"indexed": false,
							"internalType": "string",
							"name": "solution",
							"type": "string"
						}
					],
					"name": "GameEnded",
					"type": "event"
				},
				{
					"anonymous": false,
					"inputs": [
						{
							"indexed": true,
							"internalType": "string",
							"name": "gameID",
							"type": "string"
						},
						{
							"indexed": true,
							"internalType": "address",
							"name": "player",
							"type": "address"
						}
					],
					"name": "PlayerJoined",
					"type": "event"
				},
				{
					"anonymous": false,
					"inputs": [
						{
							"indexed": true,
							"internalType": "string",
							"name": "gameID",
							"type": "string"
						},
						{
							"indexed": true,
							"internalType": "address",
							"name": "player",
							"type": "address"
						}
					],
					"name": "PlayerLeft",
					"type": "event"
				},
				{
					"anonymous": false,
					"inputs": [
						{
							"indexed": true,
							"internalType": "string",
							"name": "gameID",
							"type": "string"
						},
						{
							"indexed": false,
							"internalType": "bytes1",
							"name": "chosenLetter",
							"type": "bytes1"
						},
						{
							"indexed": false,
							"internalType": "string",
							"name": "maskedWord",
							"type": "string"
						},
						{
							"indexed": false,
							"internalType": "bool",
							"name": "error",
							"type": "bool"
						}
					],
					"name": "VoteEnded",
					"type": "event"
				},
				{
					"anonymous": false,
					"inputs": [
						{
							"indexed": false,
							"internalType": "string",
							"name": "gameID",
							"type": "string"
						},
						{
							"indexed": true,
							"internalType": "address",
							"name": "player",
							"type": "address"
						},
						{
							"indexed": false,
							"internalType": "bytes1",
							"name": "letter",
							"type": "bytes1"
						}
					],
					"name": "VoteRegistered",
					"type": "event"
				},
				{
					"anonymous": false,
					"inputs": [
						{
							"indexed": true,
							"internalType": "string",
							"name": "gameID",
							"type": "string"
						}
					],
					"name": "VoteStarted",
					"type": "event"
				},
				{
					"anonymous": false,
					"inputs": [
						{
							"indexed": false,
							"internalType": "string",
							"name": "gameID",
							"type": "string"
						},
						{
							"indexed": true,
							"internalType": "address",
							"name": "player",
							"type": "address"
						},
						{
							"indexed": false,
							"internalType": "bytes1",
							"name": "letter",
							"type": "bytes1"
						}
					],
					"name": "VoteUnregistered",
					"type": "event"
				},
				{
					"inputs": [],
					"name": "INACTIVITY_THRESHOLD",
					"outputs": [
						{
							"internalType": "uint256",
							"name": "",
							"type": "uint256"
						}
					],
					"stateMutability": "view",
					"type": "function"
				},
				{
					"inputs": [],
					"name": "MAX_GAMES",
					"outputs": [
						{
							"internalType": "uint8",
							"name": "",
							"type": "uint8"
						}
					],
					"stateMutability": "view",
					"type": "function"
				},
				{
					"inputs": [],
					"name": "MAX_GUESSES",
					"outputs": [
						{
							"internalType": "uint8",
							"name": "",
							"type": "uint8"
						}
					],
					"stateMutability": "view",
					"type": "function"
				},
				{
					"inputs": [],
					"name": "MAX_PLAYERS",
					"outputs": [
						{
							"internalType": "uint8",
							"name": "",
							"type": "uint8"
						}
					],
					"stateMutability": "view",
					"type": "function"
				},
				{
					"inputs": [],
					"name": "VOTING_DURATION",
					"outputs": [
						{
							"internalType": "uint256",
							"name": "",
							"type": "uint256"
						}
					],
					"stateMutability": "view",
					"type": "function"
				},
				{
					"inputs": [
						{
							"internalType": "uint256",
							"name": "",
							"type": "uint256"
						}
					],
					"name": "WORDS",
					"outputs": [
						{
							"internalType": "string",
							"name": "",
							"type": "string"
						}
					],
					"stateMutability": "view",
					"type": "function"
				},
				{
					"inputs": [
						{
							"internalType": "string",
							"name": "_gameID",
							"type": "string"
						},
						{
							"internalType": "uint8",
							"name": "_numOfPlayers",
							"type": "uint8"
						}
					],
					"name": "createGame",
					"outputs": [],
					"stateMutability": "nonpayable",
					"type": "function"
				},
				{
					"inputs": [
						{
							"internalType": "string",
							"name": "_gameID",
							"type": "string"
						}
					],
					"name": "deleteGame",
					"outputs": [],
					"stateMutability": "nonpayable",
					"type": "function"
				},
				{
					"inputs": [
						{
							"internalType": "string",
							"name": "_gameID",
							"type": "string"
						}
					],
					"name": "endVote",
					"outputs": [],
					"stateMutability": "nonpayable",
					"type": "function"
				},
				{
					"inputs": [
						{
							"internalType": "string",
							"name": "_gameID",
							"type": "string"
						}
					],
					"name": "joinGame",
					"outputs": [],
					"stateMutability": "nonpayable",
					"type": "function"
				},
				{
					"inputs": [
						{
							"internalType": "string",
							"name": "_gameID",
							"type": "string"
						}
					],
					"name": "leaveGame",
					"outputs": [],
					"stateMutability": "nonpayable",
					"type": "function"
				},
				{
					"inputs": [
						{
							"internalType": "string",
							"name": "_gameID",
							"type": "string"
						},
						{
							"internalType": "bytes1",
							"name": "_letter",
							"type": "bytes1"
						}
					],
					"name": "voteForLetter",
					"outputs": [],
					"stateMutability": "nonpayable",
					"type": "function"
				}
			],
			"devdoc": {
				"kind": "dev",
				"methods": {
					"createGame(string,uint8)": {
						"params": {
							"_gameID": "Identifier for the game.",
							"_numOfPlayers": "The maximum number of players > 0, <= MAX_PLAYERS."
						}
					},
					"deleteGame(string)": {
						"params": {
							"_gameID": "Identifier for the game."
						}
					},
					"endVote(string)": {
						"params": {
							"_gameID": "Identifier for the game."
						}
					},
					"joinGame(string)": {
						"params": {
							"_gameID": "Identifier for the game."
						}
					},
					"leaveGame(string)": {
						"params": {
							"_gameID": "Identifier for the game."
						}
					},
					"voteForLetter(string,bytes1)": {
						"params": {
							"_gameID": "Identifier for the game.",
							"_letter": "Letter to vote for."
						}
					}
				},
				"version": 1
			},
			"evm": {
				"assembly": "    /* \"contracts/hangman.sol\":64:13281  contract Hangman {... */\n  mstore(0x40, 0x80)\n    /* \"contracts/hangman.sol\":450:527  string[] public WORDS = [\"Apple\", \"Banana\", \"Cherry\", \"Durian\", \"Elderberry\"] */\n  mload(0x40)\n  dup1\n  0xa0\n  add\n  0x40\n  mstore\n  dup1\n  mload(0x40)\n  dup1\n  0x40\n  add\n  0x40\n  mstore\n  dup1\n  0x05\n  dup2\n  mstore\n  0x20\n  add\n  0x4170706c65000000000000000000000000000000000000000000000000000000\n  dup2\n  mstore\n  pop\n  dup2\n  mstore\n  0x20\n  add\n  mload(0x40)\n  dup1\n  0x40\n  add\n  0x40\n  mstore\n  dup1\n  0x06\n  dup2\n  mstore\n  0x20\n  add\n  0x42616e616e610000000000000000000000000000000000000000000000000000\n  dup2\n  mstore\n  pop\n  dup2\n  mstore\n  0x20\n  add\n  mload(0x40)\n  dup1\n  0x40\n  add\n  0x40\n  mstore\n  dup1\n  0x06\n  dup2\n  mstore\n  0x20\n  add\n  0x4368657272790000000000000000000000000000000000000000000000000000\n  dup2\n  mstore\n  pop\n  dup2\n  mstore\n  0x20\n  add\n  mload(0x40)\n  dup1\n  0x40\n  add\n  0x40\n  mstore\n  dup1\n  0x06\n  dup2\n  mstore\n  0x20\n  add\n  0x44757269616e0000000000000000000000000000000000000000000000000000\n  dup2\n  mstore\n  pop\n  dup2\n  mstore\n  0x20\n  add\n  mload(0x40)\n  dup1\n  0x40\n  add\n  0x40\n  mstore\n  dup1\n  0x0a\n  dup2\n  mstore\n  0x20\n  add\n  0x456c646572626572727900000000000000000000000000000000000000000000\n  dup2\n  mstore\n  pop\n  dup2\n  mstore\n  pop\n  0x00\n  swap1\n  0x05\n  tag_1\n  swap3\n  swap2\n  swap1\n  tag_2\n  jump\t// in\ntag_1:\n  pop\n    /* \"contracts/hangman.sol\":64:13281  contract Hangman {... */\n  callvalue\n  dup1\n  iszero\n  tag_3\n  jumpi\n  0x00\n  dup1\n  revert\ntag_3:\n  pop\n  jump(tag_4)\ntag_2:\n  dup3\n  dup1\n  sload\n  dup3\n  dup3\n  sstore\n  swap1\n  0x00\n  mstore\n  keccak256(0x00, 0x20)\n  swap1\n  dup2\n  add\n  swap3\n  dup3\n  iszero\n  tag_5\n  jumpi\n  swap2\n  0x20\n  mul\n  dup3\n  add\ntag_6:\n  dup3\n  dup2\n  gt\n  iszero\n  tag_7\n  jumpi\n  dup3\n  mload\n  dup3\n  swap1\n  dup2\n  tag_8\n  swap2\n  swap1\n  tag_9\n  jump\t// in\ntag_8:\n  pop\n  swap2\n  0x20\n  add\n  swap2\n  swap1\n  0x01\n  add\n  swap1\n  jump(tag_6)\ntag_7:\ntag_5:\n  pop\n  swap1\n  pop\n  tag_10\n  swap2\n  swap1\n  tag_11\n  jump\t// in\ntag_10:\n  pop\n  swap1\n  jump\t// out\ntag_11:\ntag_12:\n  dup1\n  dup3\n  gt\n  iszero\n  tag_13\n  jumpi\n  0x00\n  dup2\n  dup2\n  tag_14\n  swap2\n  swap1\n  tag_15\n  jump\t// in\ntag_14:\n  pop\n  0x01\n  add\n  jump(tag_12)\ntag_13:\n  pop\n  swap1\n  jump\t// out\ntag_15:\n  pop\n  dup1\n  sload\n  tag_16\n  swap1\n  tag_17\n  jump\t// in\ntag_16:\n  0x00\n  dup3\n  sstore\n  dup1\n  0x1f\n  lt\n  tag_19\n  jumpi\n  pop\n  jump(tag_18)\ntag_19:\n  0x1f\n  add\n  0x20\n  swap1\n  div\n  swap1\n  0x00\n  mstore\n  keccak256(0x00, 0x20)\n  swap1\n  dup2\n  add\n  swap1\n  tag_20\n  swap2\n  swap1\n  tag_21\n  jump\t// in\ntag_20:\ntag_18:\n  pop\n  jump\t// out\ntag_21:\ntag_22:\n  dup1\n  dup3\n  gt\n  iszero\n  tag_23\n  jumpi\n  0x00\n  dup2\n  0x00\n  swap1\n  sstore\n  pop\n  0x01\n  add\n  jump(tag_22)\ntag_23:\n  pop\n  swap1\n  jump\t// out\n    /* \"#utility.yul\":7:106   */\ntag_24:\n    /* \"#utility.yul\":59:65   */\n  0x00\n    /* \"#utility.yul\":93:98   */\n  dup2\n    /* \"#utility.yul\":87:99   */\n  mload\n    /* \"#utility.yul\":77:99   */\n  swap1\n  pop\n    /* \"#utility.yul\":7:106   */\n  swap2\n  swap1\n  pop\n  jump\t// out\n    /* \"#utility.yul\":112:292   */\ntag_25:\n    /* \"#utility.yul\":160:237   */\n  0x4e487b7100000000000000000000000000000000000000000000000000000000\n    /* \"#utility.yul\":157:158   */\n  0x00\n    /* \"#utility.yul\":150:238   */\n  mstore\n    /* \"#utility.yul\":257:261   */\n  0x41\n    /* \"#utility.yul\":254:255   */\n  0x04\n    /* \"#utility.yul\":247:262   */\n  mstore\n    /* \"#utility.yul\":281:285   */\n  0x24\n    /* \"#utility.yul\":278:279   */\n  0x00\n    /* \"#utility.yul\":271:286   */\n  revert\n    /* \"#utility.yul\":298:478   */\ntag_26:\n    /* \"#utility.yul\":346:423   */\n  0x4e487b7100000000000000000000000000000000000000000000000000000000\n    /* \"#utility.yul\":343:344   */\n  0x00\n    /* \"#utility.yul\":336:424   */\n  mstore\n    /* \"#utility.yul\":443:447   */\n  0x22\n    /* \"#utility.yul\":440:441   */\n  0x04\n    /* \"#utility.yul\":433:448   */\n  mstore\n    /* \"#utility.yul\":467:471   */\n  0x24\n    /* \"#utility.yul\":464:465   */\n  0x00\n    /* \"#utility.yul\":457:472   */\n  revert\n    /* \"#utility.yul\":484:804   */\ntag_17:\n    /* \"#utility.yul\":528:534   */\n  0x00\n    /* \"#utility.yul\":565:566   */\n  0x02\n    /* \"#utility.yul\":559:563   */\n  dup3\n    /* \"#utility.yul\":555:567   */\n  div\n    /* \"#utility.yul\":545:567   */\n  swap1\n  pop\n    /* \"#utility.yul\":612:613   */\n  0x01\n    /* \"#utility.yul\":606:610   */\n  dup3\n    /* \"#utility.yul\":602:614   */\n  and\n    /* \"#utility.yul\":633:651   */\n  dup1\n    /* \"#utility.yul\":623:704   */\n  tag_48\n  jumpi\n    /* \"#utility.yul\":689:693   */\n  0x7f\n    /* \"#utility.yul\":681:687   */\n  dup3\n    /* \"#utility.yul\":677:694   */\n  and\n    /* \"#utility.yul\":667:694   */\n  swap2\n  pop\n    /* \"#utility.yul\":623:704   */\ntag_48:\n    /* \"#utility.yul\":751:753   */\n  0x20\n    /* \"#utility.yul\":743:749   */\n  dup3\n    /* \"#utility.yul\":740:754   */\n  lt\n    /* \"#utility.yul\":720:738   */\n  dup2\n    /* \"#utility.yul\":717:755   */\n  sub\n    /* \"#utility.yul\":714:798   */\n  tag_49\n  jumpi\n    /* \"#utility.yul\":770:788   */\n  tag_50\n  tag_26\n  jump\t// in\ntag_50:\n    /* \"#utility.yul\":714:798   */\ntag_49:\n    /* \"#utility.yul\":535:804   */\n  pop\n    /* \"#utility.yul\":484:804   */\n  swap2\n  swap1\n  pop\n  jump\t// out\n    /* \"#utility.yul\":810:951   */\ntag_27:\n    /* \"#utility.yul\":859:863   */\n  0x00\n    /* \"#utility.yul\":882:885   */\n  dup2\n    /* \"#utility.yul\":874:885   */\n  swap1\n  pop\n    /* \"#utility.yul\":905:908   */\n  dup2\n    /* \"#utility.yul\":902:903   */\n  0x00\n    /* \"#utility.yul\":895:909   */\n  mstore\n    /* \"#utility.yul\":939:943   */\n  0x20\n    /* \"#utility.yul\":936:937   */\n  0x00\n    /* \"#utility.yul\":926:944   */\n  keccak256\n    /* \"#utility.yul\":918:944   */\n  swap1\n  pop\n    /* \"#utility.yul\":810:951   */\n  swap2\n  swap1\n  pop\n  jump\t// out\n    /* \"#utility.yul\":957:1050   */\ntag_28:\n    /* \"#utility.yul\":994:1000   */\n  0x00\n    /* \"#utility.yul\":1041:1043   */\n  0x20\n    /* \"#utility.yul\":1036:1038   */\n  0x1f\n    /* \"#utility.yul\":1029:1034   */\n  dup4\n    /* \"#utility.yul\":1025:1039   */\n  add\n    /* \"#utility.yul\":1021:1044   */\n  div\n    /* \"#utility.yul\":1011:1044   */\n  swap1\n  pop\n    /* \"#utility.yul\":957:1050   */\n  swap2\n  swap1\n  pop\n  jump\t// out\n    /* \"#utility.yul\":1056:1163   */\ntag_29:\n    /* \"#utility.yul\":1100:1108   */\n  0x00\n    /* \"#utility.yul\":1150:1155   */\n  dup3\n    /* \"#utility.yul\":1144:1148   */\n  dup3\n    /* \"#utility.yul\":1140:1156   */\n  shl\n    /* \"#utility.yul\":1119:1156   */\n  swap1\n  pop\n    /* \"#utility.yul\":1056:1163   */\n  swap3\n  swap2\n  pop\n  pop\n  jump\t// out\n    /* \"#utility.yul\":1169:1562   */\ntag_30:\n    /* \"#utility.yul\":1238:1244   */\n  0x00\n    /* \"#utility.yul\":1288:1289   */\n  0x08\n    /* \"#utility.yul\":1276:1286   */\n  dup4\n    /* \"#utility.yul\":1272:1290   */\n  mul\n    /* \"#utility.yul\":1311:1408   */\n  tag_55\n    /* \"#utility.yul\":1341:1407   */\n  0xffffffffffffffffffffffffffffffffffffffffffffffffffffffffffffffff\n    /* \"#utility.yul\":1330:1339   */\n  dup3\n    /* \"#utility.yul\":1311:1408   */\n  tag_29\n  jump\t// in\ntag_55:\n    /* \"#utility.yul\":1429:1468   */\n  tag_56\n    /* \"#utility.yul\":1459:1467   */\n  dup7\n    /* \"#utility.yul\":1448:1457   */\n  dup4\n    /* \"#utility.yul\":1429:1468   */\n  tag_29\n  jump\t// in\ntag_56:\n    /* \"#utility.yul\":1417:1468   */\n  swap6\n  pop\n    /* \"#utility.yul\":1501:1505   */\n  dup1\n    /* \"#utility.yul\":1497:1506   */\n  not\n    /* \"#utility.yul\":1490:1495   */\n  dup5\n    /* \"#utility.yul\":1486:1507   */\n  and\n    /* \"#utility.yul\":1477:1507   */\n  swap4\n  pop\n    /* \"#utility.yul\":1550:1554   */\n  dup1\n    /* \"#utility.yul\":1540:1548   */\n  dup7\n    /* \"#utility.yul\":1536:1555   */\n  and\n    /* \"#utility.yul\":1529:1534   */\n  dup5\n    /* \"#utility.yul\":1526:1556   */\n  or\n    /* \"#utility.yul\":1516:1556   */\n  swap3\n  pop\n    /* \"#utility.yul\":1245:1562   */\n  pop\n  pop\n    /* \"#utility.yul\":1169:1562   */\n  swap4\n  swap3\n  pop\n  pop\n  pop\n  jump\t// out\n    /* \"#utility.yul\":1568:1645   */\ntag_31:\n    /* \"#utility.yul\":1605:1612   */\n  0x00\n    /* \"#utility.yul\":1634:1639   */\n  dup2\n    /* \"#utility.yul\":1623:1639   */\n  swap1\n  pop\n    /* \"#utility.yul\":1568:1645   */\n  swap2\n  swap1\n  pop\n  jump\t// out\n    /* \"#utility.yul\":1651:1711   */\ntag_32:\n    /* \"#utility.yul\":1679:1682   */\n  0x00\n    /* \"#utility.yul\":1700:1705   */\n  dup2\n    /* \"#utility.yul\":1693:1705   */\n  swap1\n  pop\n    /* \"#utility.yul\":1651:1711   */\n  swap2\n  swap1\n  pop\n  jump\t// out\n    /* \"#utility.yul\":1717:1859   */\ntag_33:\n    /* \"#utility.yul\":1767:1776   */\n  0x00\n    /* \"#utility.yul\":1800:1853   */\n  tag_60\n    /* \"#utility.yul\":1818:1852   */\n  tag_61\n    /* \"#utility.yul\":1827:1851   */\n  tag_62\n    /* \"#utility.yul\":1845:1850   */\n  dup5\n    /* \"#utility.yul\":1827:1851   */\n  tag_31\n  jump\t// in\ntag_62:\n    /* \"#utility.yul\":1818:1852   */\n  tag_32\n  jump\t// in\ntag_61:\n    /* \"#utility.yul\":1800:1853   */\n  tag_31\n  jump\t// in\ntag_60:\n    /* \"#utility.yul\":1787:1853   */\n  swap1\n  pop\n    /* \"#utility.yul\":1717:1859   */\n  swap2\n  swap1\n  pop\n  jump\t// out\n    /* \"#utility.yul\":1865:1940   */\ntag_34:\n    /* \"#utility.yul\":1908:1911   */\n  0x00\n    /* \"#utility.yul\":1929:1934   */\n  dup2\n    /* \"#utility.yul\":1922:1934   */\n  swap1\n  pop\n    /* \"#utility.yul\":1865:1940   */\n  swap2\n  swap1\n  pop\n  jump\t// out\n    /* \"#utility.yul\":1946:2215   */\ntag_35:\n    /* \"#utility.yul\":2056:2095   */\n  tag_65\n    /* \"#utility.yul\":2087:2094   */\n  dup4\n    /* \"#utility.yul\":2056:2095   */\n  tag_33\n  jump\t// in\ntag_65:\n    /* \"#utility.yul\":2117:2208   */\n  tag_66\n    /* \"#utility.yul\":2166:2207   */\n  tag_67\n    /* \"#utility.yul\":2190:2206   */\n  dup3\n    /* \"#utility.yul\":2166:2207   */\n  tag_34\n  jump\t// in\ntag_67:\n    /* \"#utility.yul\":2158:2164   */\n  dup5\n    /* \"#utility.yul\":2151:2155   */\n  dup5\n    /* \"#utility.yul\":2145:2156   */\n  sload\n    /* \"#utility.yul\":2117:2208   */\n  tag_30\n  jump\t// in\ntag_66:\n    /* \"#utility.yul\":2111:2115   */\n  dup3\n    /* \"#utility.yul\":2104:2209   */\n  sstore\n    /* \"#utility.yul\":2022:2215   */\n  pop\n    /* \"#utility.yul\":1946:2215   */\n  pop\n  pop\n  pop\n  jump\t// out\n    /* \"#utility.yul\":2221:2294   */\ntag_36:\n    /* \"#utility.yul\":2266:2269   */\n  0x00\n    /* \"#utility.yul\":2221:2294   */\n  swap1\n  jump\t// out\n    /* \"#utility.yul\":2300:2489   */\ntag_37:\n    /* \"#utility.yul\":2377:2409   */\n  tag_70\n  tag_36\n  jump\t// in\ntag_70:\n    /* \"#utility.yul\":2418:2483   */\n  tag_71\n    /* \"#utility.yul\":2476:2482   */\n  dup2\n    /* \"#utility.yul\":2468:2474   */\n  dup5\n    /* \"#utility.yul\":2462:2466   */\n  dup5\n    /* \"#utility.yul\":2418:2483   */\n  tag_35\n  jump\t// in\ntag_71:\n    /* \"#utility.yul\":2353:2489   */\n  pop\n    /* \"#utility.yul\":2300:2489   */\n  pop\n  pop\n  jump\t// out\n    /* \"#utility.yul\":2495:2681   */\ntag_38:\n    /* \"#utility.yul\":2555:2675   */\ntag_73:\n    /* \"#utility.yul\":2572:2575   */\n  dup2\n    /* \"#utility.yul\":2565:2570   */\n  dup2\n    /* \"#utility.yul\":2562:2576   */\n  lt\n    /* \"#utility.yul\":2555:2675   */\n  iszero\n  tag_75\n  jumpi\n    /* \"#utility.yul\":2626:2665   */\n  tag_76\n    /* \"#utility.yul\":2663:2664   */\n  0x00\n    /* \"#utility.yul\":2656:2661   */\n  dup3\n    /* \"#utility.yul\":2626:2665   */\n  tag_37\n  jump\t// in\ntag_76:\n    /* \"#utility.yul\":2599:2600   */\n  0x01\n    /* \"#utility.yul\":2592:2597   */\n  dup2\n    /* \"#utility.yul\":2588:2601   */\n  add\n    /* \"#utility.yul\":2579:2601   */\n  swap1\n  pop\n    /* \"#utility.yul\":2555:2675   */\n  jump(tag_73)\ntag_75:\n    /* \"#utility.yul\":2495:2681   */\n  pop\n  pop\n  jump\t// out\n    /* \"#utility.yul\":2687:3230   */\ntag_39:\n    /* \"#utility.yul\":2788:2790   */\n  0x1f\n    /* \"#utility.yul\":2783:2786   */\n  dup3\n    /* \"#utility.yul\":2780:2791   */\n  gt\n    /* \"#utility.yul\":2777:3223   */\n  iszero\n  tag_78\n  jumpi\n    /* \"#utility.yul\":2822:2860   */\n  tag_79\n    /* \"#utility.yul\":2854:2859   */\n  dup2\n    /* \"#utility.yul\":2822:2860   */\n  tag_27\n  jump\t// in\ntag_79:\n    /* \"#utility.yul\":2906:2935   */\n  tag_80\n    /* \"#utility.yul\":2924:2934   */\n  dup5\n    /* \"#utility.yul\":2906:2935   */\n  tag_28\n  jump\t// in\ntag_80:\n    /* \"#utility.yul\":2896:2904   */\n  dup2\n    /* \"#utility.yul\":2892:2936   */\n  add\n    /* \"#utility.yul\":3089:3091   */\n  0x20\n    /* \"#utility.yul\":3077:3087   */\n  dup6\n    /* \"#utility.yul\":3074:3092   */\n  lt\n    /* \"#utility.yul\":3071:3120   */\n  iszero\n  tag_81\n  jumpi\n    /* \"#utility.yul\":3110:3118   */\n  dup2\n    /* \"#utility.yul\":3095:3118   */\n  swap1\n  pop\n    /* \"#utility.yul\":3071:3120   */\ntag_81:\n    /* \"#utility.yul\":3133:3213   */\n  tag_82\n    /* \"#utility.yul\":3189:3211   */\n  tag_83\n    /* \"#utility.yul\":3207:3210   */\n  dup6\n    /* \"#utility.yul\":3189:3211   */\n  tag_28\n  jump\t// in\ntag_83:\n    /* \"#utility.yul\":3179:3187   */\n  dup4\n    /* \"#utility.yul\":3175:3212   */\n  add\n    /* \"#utility.yul\":3162:3173   */\n  dup3\n    /* \"#utility.yul\":3133:3213   */\n  tag_38\n  jump\t// in\ntag_82:\n    /* \"#utility.yul\":2792:3223   */\n  pop\n  pop\n    /* \"#utility.yul\":2777:3223   */\ntag_78:\n    /* \"#utility.yul\":2687:3230   */\n  pop\n  pop\n  pop\n  jump\t// out\n    /* \"#utility.yul\":3236:3353   */\ntag_40:\n    /* \"#utility.yul\":3290:3298   */\n  0x00\n    /* \"#utility.yul\":3340:3345   */\n  dup3\n    /* \"#utility.yul\":3334:3338   */\n  dup3\n    /* \"#utility.yul\":3330:3346   */\n  shr\n    /* \"#utility.yul\":3309:3346   */\n  swap1\n  pop\n    /* \"#utility.yul\":3236:3353   */\n  swap3\n  swap2\n  pop\n  pop\n  jump\t// out\n    /* \"#utility.yul\":3359:3528   */\ntag_41:\n    /* \"#utility.yul\":3403:3409   */\n  0x00\n    /* \"#utility.yul\":3436:3487   */\n  tag_86\n    /* \"#utility.yul\":3484:3485   */\n  0x00\n    /* \"#utility.yul\":3480:3486   */\n  not\n    /* \"#utility.yul\":3472:3477   */\n  dup5\n    /* \"#utility.yul\":3469:3470   */\n  0x08\n    /* \"#utility.yul\":3465:3478   */\n  mul\n    /* \"#utility.yul\":3436:3487   */\n  tag_40\n  jump\t// in\ntag_86:\n    /* \"#utility.yul\":3432:3488   */\n  not\n    /* \"#utility.yul\":3517:3521   */\n  dup1\n    /* \"#utility.yul\":3511:3515   */\n  dup4\n    /* \"#utility.yul\":3507:3522   */\n  and\n    /* \"#utility.yul\":3497:3522   */\n  swap2\n  pop\n    /* \"#utility.yul\":3410:3528   */\n  pop\n    /* \"#utility.yul\":3359:3528   */\n  swap3\n  swap2\n  pop\n  pop\n  jump\t// out\n    /* \"#utility.yul\":3533:3828   */\ntag_42:\n    /* \"#utility.yul\":3609:3613   */\n  0x00\n    /* \"#utility.yul\":3755:3784   */\n  tag_88\n    /* \"#utility.yul\":3780:3783   */\n  dup4\n    /* \"#utility.yul\":3774:3778   */\n  dup4\n    /* \"#utility.yul\":3755:3784   */\n  tag_41\n  jump\t// in\ntag_88:\n    /* \"#utility.yul\":3747:3784   */\n  swap2\n  pop\n    /* \"#utility.yul\":3817:3820   */\n  dup3\n    /* \"#utility.yul\":3814:3815   */\n  0x02\n    /* \"#utility.yul\":3810:3821   */\n  mul\n    /* \"#utility.yul\":3804:3808   */\n  dup3\n    /* \"#utility.yul\":3801:3822   */\n  or\n    /* \"#utility.yul\":3793:3822   */\n  swap1\n  pop\n    /* \"#utility.yul\":3533:3828   */\n  swap3\n  swap2\n  pop\n  pop\n  jump\t// out\n    /* \"#utility.yul\":3833:5228   */\ntag_9:\n    /* \"#utility.yul\":3950:3987   */\n  tag_90\n    /* \"#utility.yul\":3983:3986   */\n  dup3\n    /* \"#utility.yul\":3950:3987   */\n  tag_24\n  jump\t// in\ntag_90:\n    /* \"#utility.yul\":4052:4070   */\n  0xffffffffffffffff\n    /* \"#utility.yul\":4044:4050   */\n  dup2\n    /* \"#utility.yul\":4041:4071   */\n  gt\n    /* \"#utility.yul\":4038:4094   */\n  iszero\n  tag_91\n  jumpi\n    /* \"#utility.yul\":4074:4092   */\n  tag_92\n  tag_25\n  jump\t// in\ntag_92:\n    /* \"#utility.yul\":4038:4094   */\ntag_91:\n    /* \"#utility.yul\":4118:4156   */\n  tag_93\n    /* \"#utility.yul\":4150:4154   */\n  dup3\n    /* \"#utility.yul\":4144:4155   */\n  sload\n    /* \"#utility.yul\":4118:4156   */\n  tag_17\n  jump\t// in\ntag_93:\n    /* \"#utility.yul\":4203:4270   */\n  tag_94\n    /* \"#utility.yul\":4263:4269   */\n  dup3\n    /* \"#utility.yul\":4255:4261   */\n  dup3\n    /* \"#utility.yul\":4249:4253   */\n  dup6\n    /* \"#utility.yul\":4203:4270   */\n  tag_39\n  jump\t// in\ntag_94:\n    /* \"#utility.yul\":4297:4298   */\n  0x00\n    /* \"#utility.yul\":4321:4325   */\n  0x20\n    /* \"#utility.yul\":4308:4325   */\n  swap1\n  pop\n    /* \"#utility.yul\":4353:4355   */\n  0x1f\n    /* \"#utility.yul\":4345:4351   */\n  dup4\n    /* \"#utility.yul\":4342:4356   */\n  gt\n    /* \"#utility.yul\":4370:4371   */\n  0x01\n    /* \"#utility.yul\":4365:4983   */\n  dup2\n  eq\n  tag_96\n  jumpi\n    /* \"#utility.yul\":5027:5028   */\n  0x00\n    /* \"#utility.yul\":5044:5050   */\n  dup5\n    /* \"#utility.yul\":5041:5118   */\n  iszero\n  tag_97\n  jumpi\n    /* \"#utility.yul\":5093:5102   */\n  dup3\n    /* \"#utility.yul\":5088:5091   */\n  dup8\n    /* \"#utility.yul\":5084:5103   */\n  add\n    /* \"#utility.yul\":5078:5104   */\n  mload\n    /* \"#utility.yul\":5069:5104   */\n  swap1\n  pop\n    /* \"#utility.yul\":5041:5118   */\ntag_97:\n    /* \"#utility.yul\":5144:5211   */\n  tag_98\n    /* \"#utility.yul\":5204:5210   */\n  dup6\n    /* \"#utility.yul\":5197:5202   */\n  dup3\n    /* \"#utility.yul\":5144:5211   */\n  tag_42\n  jump\t// in\ntag_98:\n    /* \"#utility.yul\":5138:5142   */\n  dup7\n    /* \"#utility.yul\":5131:5212   */\n  sstore\n    /* \"#utility.yul\":5000:5222   */\n  pop\n    /* \"#utility.yul\":4335:5222   */\n  jump(tag_95)\n    /* \"#utility.yul\":4365:4983   */\ntag_96:\n    /* \"#utility.yul\":4417:4421   */\n  0x1f\n    /* \"#utility.yul\":4413:4422   */\n  not\n    /* \"#utility.yul\":4405:4411   */\n  dup5\n    /* \"#utility.yul\":4401:4423   */\n  and\n    /* \"#utility.yul\":4451:4488   */\n  tag_99\n    /* \"#utility.yul\":4483:4487   */\n  dup7\n    /* \"#utility.yul\":4451:4488   */\n  tag_27\n  jump\t// in\ntag_99:\n    /* \"#utility.yul\":4510:4511   */\n  0x00\n    /* \"#utility.yul\":4524:4732   */\ntag_100:\n    /* \"#utility.yul\":4538:4545   */\n  dup3\n    /* \"#utility.yul\":4535:4536   */\n  dup2\n    /* \"#utility.yul\":4532:4546   */\n  lt\n    /* \"#utility.yul\":4524:4732   */\n  iszero\n  tag_102\n  jumpi\n    /* \"#utility.yul\":4617:4626   */\n  dup5\n    /* \"#utility.yul\":4612:4615   */\n  dup10\n    /* \"#utility.yul\":4608:4627   */\n  add\n    /* \"#utility.yul\":4602:4628   */\n  mload\n    /* \"#utility.yul\":4594:4600   */\n  dup3\n    /* \"#utility.yul\":4587:4629   */\n  sstore\n    /* \"#utility.yul\":4668:4669   */\n  0x01\n    /* \"#utility.yul\":4660:4666   */\n  dup3\n    /* \"#utility.yul\":4656:4670   */\n  add\n    /* \"#utility.yul\":4646:4670   */\n  swap2\n  pop\n    /* \"#utility.yul\":4715:4717   */\n  0x20\n    /* \"#utility.yul\":4704:4713   */\n  dup6\n    /* \"#utility.yul\":4700:4718   */\n  add\n    /* \"#utility.yul\":4687:4718   */\n  swap5\n  pop\n    /* \"#utility.yul\":4561:4565   */\n  0x20\n    /* \"#utility.yul\":4558:4559   */\n  dup2\n    /* \"#utility.yul\":4554:4566   */\n  add\n    /* \"#utility.yul\":4549:4566   */\n  swap1\n  pop\n    /* \"#utility.yul\":4524:4732   */\n  jump(tag_100)\ntag_102:\n    /* \"#utility.yul\":4760:4766   */\n  dup7\n    /* \"#utility.yul\":4751:4758   */\n  dup4\n    /* \"#utility.yul\":4748:4767   */\n  lt\n    /* \"#utility.yul\":4745:4924   */\n  iszero\n  tag_103\n  jumpi\n    /* \"#utility.yul\":4818:4827   */\n  dup5\n    /* \"#utility.yul\":4813:4816   */\n  dup10\n    /* \"#utility.yul\":4809:4828   */\n  add\n    /* \"#utility.yul\":4803:4829   */\n  mload\n    /* \"#utility.yul\":4861:4909   */\n  tag_104\n    /* \"#utility.yul\":4903:4907   */\n  0x1f\n    /* \"#utility.yul\":4895:4901   */\n  dup10\n    /* \"#utility.yul\":4891:4908   */\n  and\n    /* \"#utility.yul\":4880:4889   */\n  dup3\n    /* \"#utility.yul\":4861:4909   */\n  tag_41\n  jump\t// in\ntag_104:\n    /* \"#utility.yul\":4853:4859   */\n  dup4\n    /* \"#utility.yul\":4846:4910   */\n  sstore\n    /* \"#utility.yul\":4768:4924   */\n  pop\n    /* \"#utility.yul\":4745:4924   */\ntag_103:\n    /* \"#utility.yul\":4970:4971   */\n  0x01\n    /* \"#utility.yul\":4966:4967   */\n  0x02\n    /* \"#utility.yul\":4958:4964   */\n  dup9\n    /* \"#utility.yul\":4954:4968   */\n  mul\n    /* \"#utility.yul\":4950:4972   */\n  add\n    /* \"#utility.yul\":4944:4948   */\n  dup9\n    /* \"#utility.yul\":4937:4973   */\n  sstore\n    /* \"#utility.yul\":4372:4983   */\n  pop\n  pop\n  pop\n    /* \"#utility.yul\":4335:5222   */\ntag_95:\n  pop\n    /* \"#utility.yul\":3925:5228   */\n  pop\n  pop\n  pop\n    /* \"#utility.yul\":3833:5228   */\n  pop\n  pop\n  jump\t// out\n    /* \"contracts/hangman.sol\":64:13281  contract Hangman {... */\ntag_4:\n  dataSize(sub_0)\n  dup1\n  dataOffset(sub_0)\n  0x00\n  codecopy\n  0x00\n  return\nstop\n\nsub_0: assembly {\n        /* \"contracts/hangman.sol\":64:13281  contract Hangman {... */\n      mstore(0x40, 0x80)\n      callvalue\n      dup1\n      iszero\n      tag_1\n      jumpi\n      0x00\n      dup1\n      revert\n    tag_1:\n      pop\n      jumpi(tag_2, lt(calldatasize, 0x04))\n      shr(0xe0, calldataload(0x00))\n      dup1\n      0xa438d208\n      gt\n      tag_15\n      jumpi\n      dup1\n      0xa438d208\n      eq\n      tag_9\n      jumpi\n      dup1\n      0xaa4103e2\n      eq\n      tag_10\n      jumpi\n      dup1\n      0xc22a95f1\n      eq\n      tag_11\n      jumpi\n      dup1\n      0xd19e39f0\n      eq\n      tag_12\n      jumpi\n      dup1\n      0xd5c68ab2\n      eq\n      tag_13\n      jumpi\n      dup1\n      0xe565c835\n      eq\n      tag_14\n      jumpi\n      jump(tag_2)\n    tag_15:\n      dup1\n      0x0f1ad663\n      eq\n      tag_3\n      jumpi\n      dup1\n      0x1616c521\n      eq\n      tag_4\n      jumpi\n      dup1\n      0x3d536a2e\n      eq\n      tag_5\n      jumpi\n      dup1\n      0x4411b3eb\n      eq\n      tag_6\n      jumpi\n      dup1\n      0x4fd01913\n      eq\n      tag_7\n      jumpi\n      dup1\n      0x684d4678\n      eq\n      tag_8\n      jumpi\n    tag_2:\n      0x00\n      dup1\n      revert\n        /* \"contracts/hangman.sol\":450:527  string[] public WORDS = [\"Apple\", \"Banana\", \"Cherry\", \"Durian\", \"Elderberry\"] */\n    tag_3:\n      tag_16\n      0x04\n      dup1\n      calldatasize\n      sub\n      dup2\n      add\n      swap1\n      tag_17\n      swap2\n      swap1\n      tag_18\n      jump\t// in\n    tag_17:\n      tag_19\n      jump\t// in\n    tag_16:\n      mload(0x40)\n      tag_20\n      swap2\n      swap1\n      tag_21\n      jump\t// in\n    tag_20:\n      mload(0x40)\n      dup1\n      swap2\n      sub\n      swap1\n      return\n        /* \"contracts/hangman.sol\":7459:8586  function voteForLetter(string memory _gameID, bytes1 _letter) external gameIsActive(_gameID) isPlayer(_gameID) {... */\n    tag_4:\n      tag_22\n      0x04\n      dup1\n      calldatasize\n      sub\n      dup2\n      add\n      swap1\n      tag_23\n      swap2\n      swap1\n      tag_24\n      jump\t// in\n    tag_23:\n      tag_25\n      jump\t// in\n    tag_22:\n      stop\n        /* \"contracts/hangman.sol\":6346:6793  function joinGame(string memory _gameID) external gameIsActive(_gameID) {... */\n    tag_5:\n      tag_26\n      0x04\n      dup1\n      calldatasize\n      sub\n      dup2\n      add\n      swap1\n      tag_27\n      swap2\n      swap1\n      tag_28\n      jump\t// in\n    tag_27:\n      tag_29\n      jump\t// in\n    tag_26:\n      stop\n        /* \"contracts/hangman.sol\":202:239  uint8 public constant MAX_PLAYERS = 5 */\n    tag_6:\n      tag_30\n      tag_31\n      jump\t// in\n    tag_30:\n      mload(0x40)\n      tag_32\n      swap2\n      swap1\n      tag_33\n      jump\t// in\n    tag_32:\n      mload(0x40)\n      dup1\n      swap2\n      sub\n      swap1\n      return\n        /* \"contracts/hangman.sol\":245:280  uint8 public constant MAX_GAMES = 5 */\n    tag_7:\n      tag_34\n      tag_35\n      jump\t// in\n    tag_34:\n      mload(0x40)\n      tag_36\n      swap2\n      swap1\n      tag_33\n      jump\t// in\n    tag_36:\n      mload(0x40)\n      dup1\n      swap2\n      sub\n      swap1\n      return\n        /* \"contracts/hangman.sol\":286:323  uint8 public constant MAX_GUESSES = 6 */\n    tag_8:\n      tag_37\n      tag_38\n      jump\t// in\n    tag_37:\n      mload(0x40)\n      tag_39\n      swap2\n      swap1\n      tag_33\n      jump\t// in\n    tag_39:\n      mload(0x40)\n      dup1\n      swap2\n      sub\n      swap1\n      return\n        /* \"contracts/hangman.sol\":392:443  uint256 public constant VOTING_DURATION = 5 minutes */\n    tag_9:\n      tag_40\n      tag_41\n      jump\t// in\n    tag_40:\n      mload(0x40)\n      tag_42\n      swap2\n      swap1\n      tag_43\n      jump\t// in\n    tag_42:\n      mload(0x40)\n      dup1\n      swap2\n      sub\n      swap1\n      return\n        /* \"contracts/hangman.sol\":329:386  uint256 public constant INACTIVITY_THRESHOLD = 15 minutes */\n    tag_10:\n      tag_44\n      tag_45\n      jump\t// in\n    tag_44:\n      mload(0x40)\n      tag_46\n      swap2\n      swap1\n      tag_43\n      jump\t// in\n    tag_46:\n      mload(0x40)\n      dup1\n      swap2\n      sub\n      swap1\n      return\n        /* \"contracts/hangman.sol\":6922:7294  function leaveGame(string memory _gameID) external gameIsActive(_gameID) isPlayer(_gameID) {... */\n    tag_11:\n      tag_47\n      0x04\n      dup1\n      calldatasize\n      sub\n      dup2\n      add\n      swap1\n      tag_48\n      swap2\n      swap1\n      tag_28\n      jump\t// in\n    tag_48:\n      tag_49\n      jump\t// in\n    tag_47:\n      stop\n        /* \"contracts/hangman.sol\":8717:9141  function endVote(string memory _gameID) external gameIsActive(_gameID) {... */\n    tag_12:\n      tag_50\n      0x04\n      dup1\n      calldatasize\n      sub\n      dup2\n      add\n      swap1\n      tag_51\n      swap2\n      swap1\n      tag_28\n      jump\t// in\n    tag_51:\n      tag_52\n      jump\t// in\n    tag_50:\n      stop\n        /* \"contracts/hangman.sol\":5913:6241  function deleteGame(string memory _gameID) external gameIsActive(_gameID) {... */\n    tag_13:\n      tag_53\n      0x04\n      dup1\n      calldatasize\n      sub\n      dup2\n      add\n      swap1\n      tag_54\n      swap2\n      swap1\n      tag_28\n      jump\t// in\n    tag_54:\n      tag_55\n      jump\t// in\n    tag_53:\n      stop\n        /* \"contracts/hangman.sol\":4572:5803  function createGame(... */\n    tag_14:\n      tag_56\n      0x04\n      dup1\n      calldatasize\n      sub\n      dup2\n      add\n      swap1\n      tag_57\n      swap2\n      swap1\n      tag_58\n      jump\t// in\n    tag_57:\n      tag_59\n      jump\t// in\n    tag_56:\n      stop\n        /* \"contracts/hangman.sol\":450:527  string[] public WORDS = [\"Apple\", \"Banana\", \"Cherry\", \"Durian\", \"Elderberry\"] */\n    tag_19:\n      0x00\n      dup2\n      dup2\n      sload\n      dup2\n      lt\n      tag_60\n      jumpi\n      0x00\n      dup1\n      revert\n    tag_60:\n      swap1\n      0x00\n      mstore\n      keccak256(0x00, 0x20)\n      add\n      0x00\n      swap2\n      pop\n      swap1\n      pop\n      dup1\n      sload\n      tag_62\n      swap1\n      tag_63\n      jump\t// in\n    tag_62:\n      dup1\n      0x1f\n      add\n      0x20\n      dup1\n      swap2\n      div\n      mul\n      0x20\n      add\n      mload(0x40)\n      swap1\n      dup2\n      add\n      0x40\n      mstore\n      dup1\n      swap3\n      swap2\n      swap1\n      dup2\n      dup2\n      mstore\n      0x20\n      add\n      dup3\n      dup1\n      sload\n      tag_64\n      swap1\n      tag_63\n      jump\t// in\n    tag_64:\n      dup1\n      iszero\n      tag_65\n      jumpi\n      dup1\n      0x1f\n      lt\n      tag_66\n      jumpi\n      0x0100\n      dup1\n      dup4\n      sload\n      div\n      mul\n      dup4\n      mstore\n      swap2\n      0x20\n      add\n      swap2\n      jump(tag_65)\n    tag_66:\n      dup3\n      add\n      swap2\n      swap1\n      0x00\n      mstore\n      keccak256(0x00, 0x20)\n      swap1\n    tag_67:\n      dup2\n      sload\n      dup2\n      mstore\n      swap1\n      0x01\n      add\n      swap1\n      0x20\n      add\n      dup1\n      dup4\n      gt\n      tag_67\n      jumpi\n      dup3\n      swap1\n      sub\n      0x1f\n      and\n      dup3\n      add\n      swap2\n    tag_65:\n      pop\n      pop\n      pop\n      pop\n      pop\n      dup2\n      jump\t// out\n        /* \"contracts/hangman.sol\":7459:8586  function voteForLetter(string memory _gameID, bytes1 _letter) external gameIsActive(_gameID) isPlayer(_gameID) {... */\n    tag_25:\n        /* \"contracts/hangman.sol\":7543:7550  _gameID */\n      dup2\n        /* \"contracts/hangman.sol\":3254:3258  true */\n      0x01\n        /* \"contracts/hangman.sol\":3222:3258  activeGames[gameID].isActive == true */\n      iszero\n      iszero\n        /* \"contracts/hangman.sol\":3222:3233  activeGames */\n      0x5b\n        /* \"contracts/hangman.sol\":3234:3240  gameID */\n      dup3\n        /* \"contracts/hangman.sol\":3222:3241  activeGames[gameID] */\n      mload(0x40)\n      tag_69\n      swap2\n      swap1\n      tag_70\n      jump\t// in\n    tag_69:\n      swap1\n      dup2\n      mstore\n      0x20\n      add\n      mload(0x40)\n      dup1\n      swap2\n      sub\n      swap1\n      keccak256\n        /* \"contracts/hangman.sol\":3222:3250  activeGames[gameID].isActive */\n      0x01\n      add\n      0x01\n      swap1\n      sload\n      swap1\n      0x0100\n      exp\n      swap1\n      div\n      0xff\n      and\n        /* \"contracts/hangman.sol\":3222:3258  activeGames[gameID].isActive == true */\n      iszero\n      iszero\n      eq\n        /* \"contracts/hangman.sol\":3201:3303  require(... */\n      tag_71\n      jumpi\n      mload(0x40)\n      0x08c379a000000000000000000000000000000000000000000000000000000000\n      dup2\n      mstore\n      0x04\n      add\n      tag_72\n      swap1\n      tag_73\n      jump\t// in\n    tag_72:\n      mload(0x40)\n      dup1\n      swap2\n      sub\n      swap1\n      revert\n    tag_71:\n        /* \"contracts/hangman.sol\":7561:7568  _gameID */\n      dup3\n        /* \"contracts/hangman.sol\":3398:3409  activeGames */\n      0x5b\n        /* \"contracts/hangman.sol\":3410:3416  gameID */\n      dup2\n        /* \"contracts/hangman.sol\":3398:3417  activeGames[gameID] */\n      mload(0x40)\n      tag_75\n      swap2\n      swap1\n      tag_70\n      jump\t// in\n    tag_75:\n      swap1\n      dup2\n      mstore\n      0x20\n      add\n      mload(0x40)\n      dup1\n      swap2\n      sub\n      swap1\n      keccak256\n        /* \"contracts/hangman.sol\":3398:3426  activeGames[gameID].isPlayer */\n      0x02\n      add\n        /* \"contracts/hangman.sol\":3398:3438  activeGames[gameID].isPlayer[msg.sender] */\n      0x00\n        /* \"contracts/hangman.sol\":3427:3437  msg.sender */\n      caller\n        /* \"contracts/hangman.sol\":3398:3438  activeGames[gameID].isPlayer[msg.sender] */\n      0xffffffffffffffffffffffffffffffffffffffff\n      and\n      0xffffffffffffffffffffffffffffffffffffffff\n      and\n      dup2\n      mstore\n      0x20\n      add\n      swap1\n      dup2\n      mstore\n      0x20\n      add\n      0x00\n      keccak256\n      0x00\n      swap1\n      sload\n      swap1\n      0x0100\n      exp\n      swap1\n      div\n      0xff\n      and\n        /* \"contracts/hangman.sol\":3377:3497  require(... */\n      tag_76\n      jumpi\n      mload(0x40)\n      0x08c379a000000000000000000000000000000000000000000000000000000000\n      dup2\n      mstore\n      0x04\n      add\n      tag_77\n      swap1\n      tag_78\n      jump\t// in\n    tag_77:\n      mload(0x40)\n      dup1\n      swap2\n      sub\n      swap1\n      revert\n    tag_76:\n        /* \"contracts/hangman.sol\":7580:7597  Game storage game */\n      0x00\n        /* \"contracts/hangman.sol\":7600:7611  activeGames */\n      0x5b\n        /* \"contracts/hangman.sol\":7612:7619  _gameID */\n      dup6\n        /* \"contracts/hangman.sol\":7600:7620  activeGames[_gameID] */\n      mload(0x40)\n      tag_80\n      swap2\n      swap1\n      tag_70\n      jump\t// in\n    tag_80:\n      swap1\n      dup2\n      mstore\n      0x20\n      add\n      mload(0x40)\n      dup1\n      swap2\n      sub\n      swap1\n      keccak256\n        /* \"contracts/hangman.sol\":7580:7620  Game storage game = activeGames[_gameID] */\n      swap1\n      pop\n        /* \"contracts/hangman.sol\":7630:7647  Vote storage vote */\n      0x00\n        /* \"contracts/hangman.sol\":7650:7654  game */\n      dup2\n        /* \"contracts/hangman.sol\":7650:7659  game.vote */\n      0x08\n      add\n        /* \"contracts/hangman.sol\":7630:7659  Vote storage vote = game.vote */\n      swap1\n      pop\n        /* \"contracts/hangman.sol\":7722:7723  0 */\n      0x00\n        /* \"contracts/hangman.sol\":7690:7723  vote.playerVotes[msg.sender] == 0 */\n      0xf8\n      shl\n        /* \"contracts/hangman.sol\":7690:7694  vote */\n      dup2\n        /* \"contracts/hangman.sol\":7690:7706  vote.playerVotes */\n      0x08\n      add\n        /* \"contracts/hangman.sol\":7690:7718  vote.playerVotes[msg.sender] */\n      0x00\n        /* \"contracts/hangman.sol\":7707:7717  msg.sender */\n      caller\n        /* \"contracts/hangman.sol\":7690:7718  vote.playerVotes[msg.sender] */\n      0xffffffffffffffffffffffffffffffffffffffff\n      and\n      0xffffffffffffffffffffffffffffffffffffffff\n      and\n      dup2\n      mstore\n      0x20\n      add\n      swap1\n      dup2\n      mstore\n      0x20\n      add\n      0x00\n      keccak256\n      0x00\n      swap1\n      sload\n      swap1\n      0x0100\n      exp\n      swap1\n      div\n      0xf8\n      shl\n        /* \"contracts/hangman.sol\":7690:7723  vote.playerVotes[msg.sender] == 0 */\n      not(0xffffffffffffffffffffffffffffffffffffffffffffffffffffffffffffff)\n      and\n      eq\n        /* \"contracts/hangman.sol\":7669:7766  require(... */\n      tag_81\n      jumpi\n      mload(0x40)\n      0x08c379a000000000000000000000000000000000000000000000000000000000\n      dup2\n      mstore\n      0x04\n      add\n      tag_82\n      swap1\n      tag_83\n      jump\t// in\n    tag_82:\n      mload(0x40)\n      dup1\n      swap2\n      sub\n      swap1\n      revert\n    tag_81:\n        /* \"contracts/hangman.sol\":7776:7790  bool uppercase */\n      0x00\n        /* \"contracts/hangman.sol\":7804:7815  bytes1(\"A\") */\n      0x4100000000000000000000000000000000000000000000000000000000000000\n        /* \"contracts/hangman.sol\":7793:7815  _letter >= bytes1(\"A\") */\n      not(0xffffffffffffffffffffffffffffffffffffffffffffffffffffffffffffff)\n      and\n        /* \"contracts/hangman.sol\":7793:7800  _letter */\n      dup7\n        /* \"contracts/hangman.sol\":7793:7815  _letter >= bytes1(\"A\") */\n      not(0xffffffffffffffffffffffffffffffffffffffffffffffffffffffffffffff)\n      and\n      lt\n      iszero\n        /* \"contracts/hangman.sol\":7793:7841  _letter >= bytes1(\"A\") && _letter >= bytes1(\"Z\") */\n      dup1\n      iszero\n      tag_84\n      jumpi\n      pop\n        /* \"contracts/hangman.sol\":7830:7841  bytes1(\"Z\") */\n      0x5a00000000000000000000000000000000000000000000000000000000000000\n        /* \"contracts/hangman.sol\":7819:7841  _letter >= bytes1(\"Z\") */\n      not(0xffffffffffffffffffffffffffffffffffffffffffffffffffffffffffffff)\n      and\n        /* \"contracts/hangman.sol\":7819:7826  _letter */\n      dup7\n        /* \"contracts/hangman.sol\":7819:7841  _letter >= bytes1(\"Z\") */\n      not(0xffffffffffffffffffffffffffffffffffffffffffffffffffffffffffffff)\n      and\n      lt\n      iszero\n        /* \"contracts/hangman.sol\":7793:7841  _letter >= bytes1(\"A\") && _letter >= bytes1(\"Z\") */\n    tag_84:\n        /* \"contracts/hangman.sol\":7776:7841  bool uppercase = _letter >= bytes1(\"A\") && _letter >= bytes1(\"Z\") */\n      swap1\n      pop\n        /* \"contracts/hangman.sol\":7872:7881  uppercase */\n      dup1\n        /* \"contracts/hangman.sol\":7872:7935  uppercase || (_letter >= bytes1(\"a\") && _letter >= bytes1(\"z\")) */\n      dup1\n      tag_85\n      jumpi\n      pop\n        /* \"contracts/hangman.sol\":7897:7908  bytes1(\"a\") */\n      0x6100000000000000000000000000000000000000000000000000000000000000\n        /* \"contracts/hangman.sol\":7886:7908  _letter >= bytes1(\"a\") */\n      not(0xffffffffffffffffffffffffffffffffffffffffffffffffffffffffffffff)\n      and\n        /* \"contracts/hangman.sol\":7886:7893  _letter */\n      dup7\n        /* \"contracts/hangman.sol\":7886:7908  _letter >= bytes1(\"a\") */\n      not(0xffffffffffffffffffffffffffffffffffffffffffffffffffffffffffffff)\n      and\n      lt\n      iszero\n        /* \"contracts/hangman.sol\":7886:7934  _letter >= bytes1(\"a\") && _letter >= bytes1(\"z\") */\n      dup1\n      iszero\n      tag_86\n      jumpi\n      pop\n        /* \"contracts/hangman.sol\":7923:7934  bytes1(\"z\") */\n      0x7a00000000000000000000000000000000000000000000000000000000000000\n        /* \"contracts/hangman.sol\":7912:7934  _letter >= bytes1(\"z\") */\n      not(0xffffffffffffffffffffffffffffffffffffffffffffffffffffffffffffff)\n      and\n        /* \"contracts/hangman.sol\":7912:7919  _letter */\n      dup7\n        /* \"contracts/hangman.sol\":7912:7934  _letter >= bytes1(\"z\") */\n      not(0xffffffffffffffffffffffffffffffffffffffffffffffffffffffffffffff)\n      and\n      lt\n      iszero\n        /* \"contracts/hangman.sol\":7886:7934  _letter >= bytes1(\"a\") && _letter >= bytes1(\"z\") */\n    tag_86:\n        /* \"contracts/hangman.sol\":7872:7935  uppercase || (_letter >= bytes1(\"a\") && _letter >= bytes1(\"z\")) */\n    tag_85:\n        /* \"contracts/hangman.sol\":7851:7986  require(... */\n      tag_87\n      jumpi\n      mload(0x40)\n      0x08c379a000000000000000000000000000000000000000000000000000000000\n      dup2\n      mstore\n      0x04\n      add\n      tag_88\n      swap1\n      tag_89\n      jump\t// in\n    tag_88:\n      mload(0x40)\n      dup1\n      swap2\n      sub\n      swap1\n      revert\n    tag_87:\n        /* \"contracts/hangman.sol\":8038:8047  uppercase */\n      dup1\n        /* \"contracts/hangman.sol\":8034:8111  if (uppercase) {... */\n      iszero\n      tag_90\n      jumpi\n        /* \"contracts/hangman.sol\":8097:8099  32 */\n      0x20\n        /* \"contracts/hangman.sol\":8086:8093  _letter */\n      dup7\n        /* \"contracts/hangman.sol\":8080:8094  uint8(_letter) */\n      0xf8\n      shr\n        /* \"contracts/hangman.sol\":8080:8099  uint8(_letter) - 32 */\n      tag_91\n      swap2\n      swap1\n      tag_92\n      jump\t// in\n    tag_91:\n        /* \"contracts/hangman.sol\":8073:8100  bytes1(uint8(_letter) - 32) */\n      0xf8\n      shl\n        /* \"contracts/hangman.sol\":8063:8100  _letter = bytes1(uint8(_letter) - 32) */\n      swap6\n      pop\n        /* \"contracts/hangman.sol\":8034:8111  if (uppercase) {... */\n    tag_90:\n        /* \"contracts/hangman.sol\":8142:8146  game */\n      dup3\n        /* \"contracts/hangman.sol\":8142:8161  game.guessedLetters */\n      0x06\n      add\n        /* \"contracts/hangman.sol\":8142:8170  game.guessedLetters[_letter] */\n      0x00\n        /* \"contracts/hangman.sol\":8162:8169  _letter */\n      dup8\n        /* \"contracts/hangman.sol\":8142:8170  game.guessedLetters[_letter] */\n      not(0xffffffffffffffffffffffffffffffffffffffffffffffffffffffffffffff)\n      and\n      not(0xffffffffffffffffffffffffffffffffffffffffffffffffffffffffffffff)\n      and\n      dup2\n      mstore\n      0x20\n      add\n      swap1\n      dup2\n      mstore\n      0x20\n      add\n      0x00\n      keccak256\n      0x00\n      swap1\n      sload\n      swap1\n      0x0100\n      exp\n      swap1\n      div\n      0xff\n      and\n        /* \"contracts/hangman.sol\":8141:8170  !game.guessedLetters[_letter] */\n      iszero\n        /* \"contracts/hangman.sol\":8120:8227  require(... */\n      tag_93\n      jumpi\n      mload(0x40)\n      0x08c379a000000000000000000000000000000000000000000000000000000000\n      dup2\n      mstore\n      0x04\n      add\n      tag_94\n      swap1\n      tag_95\n      jump\t// in\n    tag_94:\n      mload(0x40)\n      dup1\n      swap2\n      sub\n      swap1\n      revert\n    tag_93:\n        /* \"contracts/hangman.sol\":8238:8291  _registerVote(game.gameID, vote, msg.sender, _letter) */\n      tag_96\n        /* \"contracts/hangman.sol\":8252:8256  game */\n      dup4\n        /* \"contracts/hangman.sol\":8252:8263  game.gameID */\n      0x00\n      add\n        /* \"contracts/hangman.sol\":8265:8269  vote */\n      dup4\n        /* \"contracts/hangman.sol\":8271:8281  msg.sender */\n      caller\n        /* \"contracts/hangman.sol\":8283:8290  _letter */\n      dup10\n        /* \"contracts/hangman.sol\":8238:8251  _registerVote */\n      tag_97\n        /* \"contracts/hangman.sol\":8238:8291  _registerVote(game.gameID, vote, msg.sender, _letter) */\n      jump\t// in\n    tag_96:\n        /* \"contracts/hangman.sol\":8327:8342  block.timestamp */\n      timestamp\n        /* \"contracts/hangman.sol\":8300:8304  game */\n      dup4\n        /* \"contracts/hangman.sol\":8300:8324  game.lastActionTimestamp */\n      0x07\n      add\n        /* \"contracts/hangman.sol\":8300:8342  game.lastActionTimestamp = block.timestamp */\n      dup2\n      swap1\n      sstore\n      pop\n        /* \"contracts/hangman.sol\":434:443  5 minutes */\n      0x012c\n        /* \"contracts/hangman.sol\":8445:8449  vote */\n      dup3\n        /* \"contracts/hangman.sol\":8445:8468  vote.voteStartTimestamp */\n      0x01\n      add\n      sload\n        /* \"contracts/hangman.sol\":8427:8442  block.timestamp */\n      timestamp\n        /* \"contracts/hangman.sol\":8427:8468  block.timestamp - vote.voteStartTimestamp */\n      tag_98\n      swap2\n      swap1\n      tag_99\n      jump\t// in\n    tag_98:\n        /* \"contracts/hangman.sol\":8427:8486  block.timestamp - vote.voteStartTimestamp > VOTING_DURATION */\n      gt\n        /* \"contracts/hangman.sol\":8427:8539  block.timestamp - vote.voteStartTimestamp > VOTING_DURATION ||... */\n      dup1\n      tag_100\n      jumpi\n      pop\n        /* \"contracts/hangman.sol\":8520:8524  game */\n      dup3\n        /* \"contracts/hangman.sol\":8520:8539  game.currentPlayers */\n      0x01\n      add\n      0x17\n      swap1\n      sload\n      swap1\n      0x0100\n      exp\n      swap1\n      div\n      0xff\n      and\n        /* \"contracts/hangman.sol\":8502:8539  vote.voteCount == game.currentPlayers */\n      0xff\n      and\n        /* \"contracts/hangman.sol\":8502:8506  vote */\n      dup3\n        /* \"contracts/hangman.sol\":8502:8516  vote.voteCount */\n      0x02\n      add\n      0x00\n      swap1\n      sload\n      swap1\n      0x0100\n      exp\n      swap1\n      div\n      0xff\n      and\n        /* \"contracts/hangman.sol\":8502:8539  vote.voteCount == game.currentPlayers */\n      0xff\n      and\n      eq\n        /* \"contracts/hangman.sol\":8427:8539  block.timestamp - vote.voteStartTimestamp > VOTING_DURATION ||... */\n    tag_100:\n        /* \"contracts/hangman.sol\":8423:8580  if (block.timestamp - vote.voteStartTimestamp > VOTING_DURATION ||... */\n      iszero\n      tag_101\n      jumpi\n        /* \"contracts/hangman.sol\":8555:8569  _endVote(game) */\n      tag_102\n        /* \"contracts/hangman.sol\":8564:8568  game */\n      dup4\n        /* \"contracts/hangman.sol\":8555:8563  _endVote */\n      tag_103\n        /* \"contracts/hangman.sol\":8555:8569  _endVote(game) */\n      jump\t// in\n    tag_102:\n        /* \"contracts/hangman.sol\":8423:8580  if (block.timestamp - vote.voteStartTimestamp > VOTING_DURATION ||... */\n    tag_101:\n        /* \"contracts/hangman.sol\":7570:8586  {... */\n      pop\n      pop\n      pop\n        /* \"contracts/hangman.sol\":3313:3314  _ */\n      pop\n        /* \"contracts/hangman.sol\":7459:8586  function voteForLetter(string memory _gameID, bytes1 _letter) external gameIsActive(_gameID) isPlayer(_gameID) {... */\n      pop\n      pop\n      pop\n      jump\t// out\n        /* \"contracts/hangman.sol\":6346:6793  function joinGame(string memory _gameID) external gameIsActive(_gameID) {... */\n    tag_29:\n        /* \"contracts/hangman.sol\":6409:6416  _gameID */\n      dup1\n        /* \"contracts/hangman.sol\":3254:3258  true */\n      0x01\n        /* \"contracts/hangman.sol\":3222:3258  activeGames[gameID].isActive == true */\n      iszero\n      iszero\n        /* \"contracts/hangman.sol\":3222:3233  activeGames */\n      0x5b\n        /* \"contracts/hangman.sol\":3234:3240  gameID */\n      dup3\n        /* \"contracts/hangman.sol\":3222:3241  activeGames[gameID] */\n      mload(0x40)\n      tag_105\n      swap2\n      swap1\n      tag_70\n      jump\t// in\n    tag_105:\n      swap1\n      dup2\n      mstore\n      0x20\n      add\n      mload(0x40)\n      dup1\n      swap2\n      sub\n      swap1\n      keccak256\n        /* \"contracts/hangman.sol\":3222:3250  activeGames[gameID].isActive */\n      0x01\n      add\n      0x01\n      swap1\n      sload\n      swap1\n      0x0100\n      exp\n      swap1\n      div\n      0xff\n      and\n        /* \"contracts/hangman.sol\":3222:3258  activeGames[gameID].isActive == true */\n      iszero\n      iszero\n      eq\n        /* \"contracts/hangman.sol\":3201:3303  require(... */\n      tag_106\n      jumpi\n      mload(0x40)\n      0x08c379a000000000000000000000000000000000000000000000000000000000\n      dup2\n      mstore\n      0x04\n      add\n      tag_107\n      swap1\n      tag_73\n      jump\t// in\n    tag_107:\n      mload(0x40)\n      dup1\n      swap2\n      sub\n      swap1\n      revert\n    tag_106:\n        /* \"contracts/hangman.sol\":6428:6445  Game storage game */\n      0x00\n        /* \"contracts/hangman.sol\":6448:6459  activeGames */\n      0x5b\n        /* \"contracts/hangman.sol\":6460:6467  _gameID */\n      dup4\n        /* \"contracts/hangman.sol\":6448:6468  activeGames[_gameID] */\n      mload(0x40)\n      tag_109\n      swap2\n      swap1\n      tag_70\n      jump\t// in\n    tag_109:\n      swap1\n      dup2\n      mstore\n      0x20\n      add\n      mload(0x40)\n      dup1\n      swap2\n      sub\n      swap1\n      keccak256\n        /* \"contracts/hangman.sol\":6428:6468  Game storage game = activeGames[_gameID] */\n      swap1\n      pop\n        /* \"contracts/hangman.sol\":6521:6525  game */\n      dup1\n        /* \"contracts/hangman.sol\":6521:6536  game.maxPlayers */\n      0x01\n      add\n      0x16\n      swap1\n      sload\n      swap1\n      0x0100\n      exp\n      swap1\n      div\n      0xff\n      and\n        /* \"contracts/hangman.sol\":6499:6536  game.currentPlayers < game.maxPlayers */\n      0xff\n      and\n        /* \"contracts/hangman.sol\":6499:6503  game */\n      dup2\n        /* \"contracts/hangman.sol\":6499:6518  game.currentPlayers */\n      0x01\n      add\n      0x17\n      swap1\n      sload\n      swap1\n      0x0100\n      exp\n      swap1\n      div\n      0xff\n      and\n        /* \"contracts/hangman.sol\":6499:6536  game.currentPlayers < game.maxPlayers */\n      0xff\n      and\n      lt\n        /* \"contracts/hangman.sol\":6478:6593  require(... */\n      tag_110\n      jumpi\n      mload(0x40)\n      0x08c379a000000000000000000000000000000000000000000000000000000000\n      dup2\n      mstore\n      0x04\n      add\n      tag_111\n      swap1\n      tag_112\n      jump\t// in\n    tag_111:\n      mload(0x40)\n      dup1\n      swap2\n      sub\n      swap1\n      revert\n    tag_110:\n        /* \"contracts/hangman.sol\":6625:6629  game */\n      dup1\n        /* \"contracts/hangman.sol\":6625:6638  game.isPlayer */\n      0x02\n      add\n        /* \"contracts/hangman.sol\":6625:6650  game.isPlayer[msg.sender] */\n      0x00\n        /* \"contracts/hangman.sol\":6639:6649  msg.sender */\n      caller\n        /* \"contracts/hangman.sol\":6625:6650  game.isPlayer[msg.sender] */\n      0xffffffffffffffffffffffffffffffffffffffff\n      and\n      0xffffffffffffffffffffffffffffffffffffffff\n      and\n      dup2\n      mstore\n      0x20\n      add\n      swap1\n      dup2\n      mstore\n      0x20\n      add\n      0x00\n      keccak256\n      0x00\n      swap1\n      sload\n      swap1\n      0x0100\n      exp\n      swap1\n      div\n      0xff\n      and\n        /* \"contracts/hangman.sol\":6624:6650  !game.isPlayer[msg.sender] */\n      iszero\n        /* \"contracts/hangman.sol\":6603:6695  require(... */\n      tag_113\n      jumpi\n      mload(0x40)\n      0x08c379a000000000000000000000000000000000000000000000000000000000\n      dup2\n      mstore\n      0x04\n      add\n      tag_114\n      swap1\n      tag_115\n      jump\t// in\n    tag_114:\n      mload(0x40)\n      dup1\n      swap2\n      sub\n      swap1\n      revert\n    tag_113:\n        /* \"contracts/hangman.sol\":6734:6738  true */\n      0x01\n        /* \"contracts/hangman.sol\":6706:6710  game */\n      dup2\n        /* \"contracts/hangman.sol\":6706:6719  game.isPlayer */\n      0x02\n      add\n        /* \"contracts/hangman.sol\":6706:6731  game.isPlayer[msg.sender] */\n      0x00\n        /* \"contracts/hangman.sol\":6720:6730  msg.sender */\n      caller\n        /* \"contracts/hangman.sol\":6706:6731  game.isPlayer[msg.sender] */\n      0xffffffffffffffffffffffffffffffffffffffff\n      and\n      0xffffffffffffffffffffffffffffffffffffffff\n      and\n      dup2\n      mstore\n      0x20\n      add\n      swap1\n      dup2\n      mstore\n      0x20\n      add\n      0x00\n      keccak256\n      0x00\n        /* \"contracts/hangman.sol\":6706:6738  game.isPlayer[msg.sender] = true */\n      0x0100\n      exp\n      dup2\n      sload\n      dup2\n      0xff\n      mul\n      not\n      and\n      swap1\n      dup4\n      iszero\n      iszero\n      mul\n      or\n      swap1\n      sstore\n      pop\n        /* \"contracts/hangman.sol\":6775:6785  msg.sender */\n      caller\n        /* \"contracts/hangman.sol\":6753:6786  PlayerJoined(_gameID, msg.sender) */\n      0xffffffffffffffffffffffffffffffffffffffff\n      and\n        /* \"contracts/hangman.sol\":6766:6773  _gameID */\n      dup4\n        /* \"contracts/hangman.sol\":6753:6786  PlayerJoined(_gameID, msg.sender) */\n      mload(0x40)\n      tag_116\n      swap2\n      swap1\n      tag_70\n      jump\t// in\n    tag_116:\n      mload(0x40)\n      dup1\n      swap2\n      sub\n      swap1\n      keccak256\n      0x6426ed08b4816b27e58d721b4ff6fb44e6696b9d5ca257dcbd4b0576eb4dc539\n      mload(0x40)\n      mload(0x40)\n      dup1\n      swap2\n      sub\n      swap1\n      log3\n        /* \"contracts/hangman.sol\":6418:6793  {... */\n      pop\n        /* \"contracts/hangman.sol\":6346:6793  function joinGame(string memory _gameID) external gameIsActive(_gameID) {... */\n      pop\n      pop\n      jump\t// out\n        /* \"contracts/hangman.sol\":202:239  uint8 public constant MAX_PLAYERS = 5 */\n    tag_31:\n        /* \"contracts/hangman.sol\":238:239  5 */\n      0x05\n        /* \"contracts/hangman.sol\":202:239  uint8 public constant MAX_PLAYERS = 5 */\n      dup2\n      jump\t// out\n        /* \"contracts/hangman.sol\":245:280  uint8 public constant MAX_GAMES = 5 */\n    tag_35:\n        /* \"contracts/hangman.sol\":279:280  5 */\n      0x05\n        /* \"contracts/hangman.sol\":245:280  uint8 public constant MAX_GAMES = 5 */\n      dup2\n      jump\t// out\n        /* \"contracts/hangman.sol\":286:323  uint8 public constant MAX_GUESSES = 6 */\n    tag_38:\n        /* \"contracts/hangman.sol\":322:323  6 */\n      0x06\n        /* \"contracts/hangman.sol\":286:323  uint8 public constant MAX_GUESSES = 6 */\n      dup2\n      jump\t// out\n        /* \"contracts/hangman.sol\":392:443  uint256 public constant VOTING_DURATION = 5 minutes */\n    tag_41:\n        /* \"contracts/hangman.sol\":434:443  5 minutes */\n      0x012c\n        /* \"contracts/hangman.sol\":392:443  uint256 public constant VOTING_DURATION = 5 minutes */\n      dup2\n      jump\t// out\n        /* \"contracts/hangman.sol\":329:386  uint256 public constant INACTIVITY_THRESHOLD = 15 minutes */\n    tag_45:\n        /* \"contracts/hangman.sol\":376:386  15 minutes */\n      0x0384\n        /* \"contracts/hangman.sol\":329:386  uint256 public constant INACTIVITY_THRESHOLD = 15 minutes */\n      dup2\n      jump\t// out\n        /* \"contracts/hangman.sol\":6922:7294  function leaveGame(string memory _gameID) external gameIsActive(_gameID) isPlayer(_gameID) {... */\n    tag_49:\n        /* \"contracts/hangman.sol\":6986:6993  _gameID */\n      dup1\n        /* \"contracts/hangman.sol\":3254:3258  true */\n      0x01\n        /* \"contracts/hangman.sol\":3222:3258  activeGames[gameID].isActive == true */\n      iszero\n      iszero\n        /* \"contracts/hangman.sol\":3222:3233  activeGames */\n      0x5b\n        /* \"contracts/hangman.sol\":3234:3240  gameID */\n      dup3\n        /* \"contracts/hangman.sol\":3222:3241  activeGames[gameID] */\n      mload(0x40)\n      tag_118\n      swap2\n      swap1\n      tag_70\n      jump\t// in\n    tag_118:\n      swap1\n      dup2\n      mstore\n      0x20\n      add\n      mload(0x40)\n      dup1\n      swap2\n      sub\n      swap1\n      keccak256\n        /* \"contracts/hangman.sol\":3222:3250  activeGames[gameID].isActive */\n      0x01\n      add\n      0x01\n      swap1\n      sload\n      swap1\n      0x0100\n      exp\n      swap1\n      div\n      0xff\n      and\n        /* \"contracts/hangman.sol\":3222:3258  activeGames[gameID].isActive == true */\n      iszero\n      iszero\n      eq\n        /* \"contracts/hangman.sol\":3201:3303  require(... */\n      tag_119\n      jumpi\n      mload(0x40)\n      0x08c379a000000000000000000000000000000000000000000000000000000000\n      dup2\n      mstore\n      0x04\n      add\n      tag_120\n      swap1\n      tag_73\n      jump\t// in\n    tag_120:\n      mload(0x40)\n      dup1\n      swap2\n      sub\n      swap1\n      revert\n    tag_119:\n        /* \"contracts/hangman.sol\":7004:7011  _gameID */\n      dup2\n        /* \"contracts/hangman.sol\":3398:3409  activeGames */\n      0x5b\n        /* \"contracts/hangman.sol\":3410:3416  gameID */\n      dup2\n        /* \"contracts/hangman.sol\":3398:3417  activeGames[gameID] */\n      mload(0x40)\n      tag_122\n      swap2\n      swap1\n      tag_70\n      jump\t// in\n    tag_122:\n      swap1\n      dup2\n      mstore\n      0x20\n      add\n      mload(0x40)\n      dup1\n      swap2\n      sub\n      swap1\n      keccak256\n        /* \"contracts/hangman.sol\":3398:3426  activeGames[gameID].isPlayer */\n      0x02\n      add\n        /* \"contracts/hangman.sol\":3398:3438  activeGames[gameID].isPlayer[msg.sender] */\n      0x00\n        /* \"contracts/hangman.sol\":3427:3437  msg.sender */\n      caller\n        /* \"contracts/hangman.sol\":3398:3438  activeGames[gameID].isPlayer[msg.sender] */\n      0xffffffffffffffffffffffffffffffffffffffff\n      and\n      0xffffffffffffffffffffffffffffffffffffffff\n      and\n      dup2\n      mstore\n      0x20\n      add\n      swap1\n      dup2\n      mstore\n      0x20\n      add\n      0x00\n      keccak256\n      0x00\n      swap1\n      sload\n      swap1\n      0x0100\n      exp\n      swap1\n      div\n      0xff\n      and\n        /* \"contracts/hangman.sol\":3377:3497  require(... */\n      tag_123\n      jumpi\n      mload(0x40)\n      0x08c379a000000000000000000000000000000000000000000000000000000000\n      dup2\n      mstore\n      0x04\n      add\n      tag_124\n      swap1\n      tag_78\n      jump\t// in\n    tag_124:\n      mload(0x40)\n      dup1\n      swap2\n      sub\n      swap1\n      revert\n    tag_123:\n        /* \"contracts/hangman.sol\":7023:7040  Game storage game */\n      0x00\n        /* \"contracts/hangman.sol\":7043:7054  activeGames */\n      0x5b\n        /* \"contracts/hangman.sol\":7055:7062  _gameID */\n      dup5\n        /* \"contracts/hangman.sol\":7043:7063  activeGames[_gameID] */\n      mload(0x40)\n      tag_126\n      swap2\n      swap1\n      tag_70\n      jump\t// in\n    tag_126:\n      swap1\n      dup2\n      mstore\n      0x20\n      add\n      mload(0x40)\n      dup1\n      swap2\n      sub\n      swap1\n      keccak256\n        /* \"contracts/hangman.sol\":7023:7063  Game storage game = activeGames[_gameID] */\n      swap1\n      pop\n        /* \"contracts/hangman.sol\":7099:7138  _removePlayerFromGame(game, msg.sender) */\n      tag_127\n        /* \"contracts/hangman.sol\":7121:7125  game */\n      dup2\n        /* \"contracts/hangman.sol\":7127:7137  msg.sender */\n      caller\n        /* \"contracts/hangman.sol\":7099:7120  _removePlayerFromGame */\n      tag_128\n        /* \"contracts/hangman.sol\":7099:7138  _removePlayerFromGame(game, msg.sender) */\n      jump\t// in\n    tag_127:\n        /* \"contracts/hangman.sol\":7224:7225  0 */\n      0x00\n        /* \"contracts/hangman.sol\":7201:7205  game */\n      dup2\n        /* \"contracts/hangman.sol\":7201:7220  game.currentPlayers */\n      0x01\n      add\n      0x17\n      swap1\n      sload\n      swap1\n      0x0100\n      exp\n      swap1\n      div\n      0xff\n      and\n        /* \"contracts/hangman.sol\":7201:7225  game.currentPlayers == 0 */\n      0xff\n      and\n      sub\n        /* \"contracts/hangman.sol\":7197:7288  if (game.currentPlayers == 0) {... */\n      tag_129\n      jumpi\n        /* \"contracts/hangman.sol\":7241:7277  _endGame(game, GameResult.CANCELLED) */\n      tag_130\n        /* \"contracts/hangman.sol\":7250:7254  game */\n      dup2\n        /* \"contracts/hangman.sol\":7256:7276  GameResult.CANCELLED */\n      0x02\n        /* \"contracts/hangman.sol\":7241:7249  _endGame */\n      tag_131\n        /* \"contracts/hangman.sol\":7241:7277  _endGame(game, GameResult.CANCELLED) */\n      jump\t// in\n    tag_130:\n        /* \"contracts/hangman.sol\":7197:7288  if (game.currentPlayers == 0) {... */\n    tag_129:\n        /* \"contracts/hangman.sol\":7013:7294  {... */\n      pop\n        /* \"contracts/hangman.sol\":3313:3314  _ */\n      pop\n        /* \"contracts/hangman.sol\":6922:7294  function leaveGame(string memory _gameID) external gameIsActive(_gameID) isPlayer(_gameID) {... */\n      pop\n      pop\n      jump\t// out\n        /* \"contracts/hangman.sol\":8717:9141  function endVote(string memory _gameID) external gameIsActive(_gameID) {... */\n    tag_52:\n        /* \"contracts/hangman.sol\":8779:8786  _gameID */\n      dup1\n        /* \"contracts/hangman.sol\":3254:3258  true */\n      0x01\n        /* \"contracts/hangman.sol\":3222:3258  activeGames[gameID].isActive == true */\n      iszero\n      iszero\n        /* \"contracts/hangman.sol\":3222:3233  activeGames */\n      0x5b\n        /* \"contracts/hangman.sol\":3234:3240  gameID */\n      dup3\n        /* \"contracts/hangman.sol\":3222:3241  activeGames[gameID] */\n      mload(0x40)\n      tag_133\n      swap2\n      swap1\n      tag_70\n      jump\t// in\n    tag_133:\n      swap1\n      dup2\n      mstore\n      0x20\n      add\n      mload(0x40)\n      dup1\n      swap2\n      sub\n      swap1\n      keccak256\n        /* \"contracts/hangman.sol\":3222:3250  activeGames[gameID].isActive */\n      0x01\n      add\n      0x01\n      swap1\n      sload\n      swap1\n      0x0100\n      exp\n      swap1\n      div\n      0xff\n      and\n        /* \"contracts/hangman.sol\":3222:3258  activeGames[gameID].isActive == true */\n      iszero\n      iszero\n      eq\n        /* \"contracts/hangman.sol\":3201:3303  require(... */\n      tag_134\n      jumpi\n      mload(0x40)\n      0x08c379a000000000000000000000000000000000000000000000000000000000\n      dup2\n      mstore\n      0x04\n      add\n      tag_135\n      swap1\n      tag_73\n      jump\t// in\n    tag_135:\n      mload(0x40)\n      dup1\n      swap2\n      sub\n      swap1\n      revert\n    tag_134:\n        /* \"contracts/hangman.sol\":8798:8815  Game storage game */\n      0x00\n        /* \"contracts/hangman.sol\":8818:8829  activeGames */\n      0x5b\n        /* \"contracts/hangman.sol\":8830:8837  _gameID */\n      dup4\n        /* \"contracts/hangman.sol\":8818:8838  activeGames[_gameID] */\n      mload(0x40)\n      tag_137\n      swap2\n      swap1\n      tag_70\n      jump\t// in\n    tag_137:\n      swap1\n      dup2\n      mstore\n      0x20\n      add\n      mload(0x40)\n      dup1\n      swap2\n      sub\n      swap1\n      keccak256\n        /* \"contracts/hangman.sol\":8798:8838  Game storage game = activeGames[_gameID] */\n      swap1\n      pop\n        /* \"contracts/hangman.sol\":8848:8865  Vote storage vote */\n      0x00\n        /* \"contracts/hangman.sol\":8868:8872  game */\n      dup2\n        /* \"contracts/hangman.sol\":8868:8877  game.vote */\n      0x08\n      add\n        /* \"contracts/hangman.sol\":8848:8877  Vote storage vote = game.vote */\n      swap1\n      pop\n        /* \"contracts/hangman.sol\":8908:8912  vote */\n      dup1\n        /* \"contracts/hangman.sol\":8908:8925  vote.votingActive */\n      0x00\n      add\n      0x00\n      swap1\n      sload\n      swap1\n      0x0100\n      exp\n      swap1\n      div\n      0xff\n      and\n        /* \"contracts/hangman.sol\":8887:8965  require(... */\n      tag_138\n      jumpi\n      mload(0x40)\n      0x08c379a000000000000000000000000000000000000000000000000000000000\n      dup2\n      mstore\n      0x04\n      add\n      tag_139\n      swap1\n      tag_140\n      jump\t// in\n    tag_139:\n      mload(0x40)\n      dup1\n      swap2\n      sub\n      swap1\n      revert\n    tag_138:\n        /* \"contracts/hangman.sol\":434:443  5 minutes */\n      0x012c\n        /* \"contracts/hangman.sol\":9014:9018  vote */\n      dup2\n        /* \"contracts/hangman.sol\":9014:9037  vote.voteStartTimestamp */\n      0x01\n      add\n      sload\n        /* \"contracts/hangman.sol\":8996:9011  block.timestamp */\n      timestamp\n        /* \"contracts/hangman.sol\":8996:9037  block.timestamp - vote.voteStartTimestamp */\n      tag_141\n      swap2\n      swap1\n      tag_99\n      jump\t// in\n    tag_141:\n        /* \"contracts/hangman.sol\":8996:9055  block.timestamp - vote.voteStartTimestamp > VOTING_DURATION */\n      gt\n        /* \"contracts/hangman.sol\":8975:9110  require(... */\n      tag_142\n      jumpi\n      mload(0x40)\n      0x08c379a000000000000000000000000000000000000000000000000000000000\n      dup2\n      mstore\n      0x04\n      add\n      tag_143\n      swap1\n      tag_144\n      jump\t// in\n    tag_143:\n      mload(0x40)\n      dup1\n      swap2\n      sub\n      swap1\n      revert\n    tag_142:\n        /* \"contracts/hangman.sol\":9120:9134  _endVote(game) */\n      tag_145\n        /* \"contracts/hangman.sol\":9129:9133  game */\n      dup3\n        /* \"contracts/hangman.sol\":9120:9128  _endVote */\n      tag_103\n        /* \"contracts/hangman.sol\":9120:9134  _endVote(game) */\n      jump\t// in\n    tag_145:\n        /* \"contracts/hangman.sol\":8788:9141  {... */\n      pop\n      pop\n        /* \"contracts/hangman.sol\":8717:9141  function endVote(string memory _gameID) external gameIsActive(_gameID) {... */\n      pop\n      pop\n      jump\t// out\n        /* \"contracts/hangman.sol\":5913:6241  function deleteGame(string memory _gameID) external gameIsActive(_gameID) {... */\n    tag_55:\n        /* \"contracts/hangman.sol\":5978:5985  _gameID */\n      dup1\n        /* \"contracts/hangman.sol\":3254:3258  true */\n      0x01\n        /* \"contracts/hangman.sol\":3222:3258  activeGames[gameID].isActive == true */\n      iszero\n      iszero\n        /* \"contracts/hangman.sol\":3222:3233  activeGames */\n      0x5b\n        /* \"contracts/hangman.sol\":3234:3240  gameID */\n      dup3\n        /* \"contracts/hangman.sol\":3222:3241  activeGames[gameID] */\n      mload(0x40)\n      tag_147\n      swap2\n      swap1\n      tag_70\n      jump\t// in\n    tag_147:\n      swap1\n      dup2\n      mstore\n      0x20\n      add\n      mload(0x40)\n      dup1\n      swap2\n      sub\n      swap1\n      keccak256\n        /* \"contracts/hangman.sol\":3222:3250  activeGames[gameID].isActive */\n      0x01\n      add\n      0x01\n      swap1\n      sload\n      swap1\n      0x0100\n      exp\n      swap1\n      div\n      0xff\n      and\n        /* \"contracts/hangman.sol\":3222:3258  activeGames[gameID].isActive == true */\n      iszero\n      iszero\n      eq\n        /* \"contracts/hangman.sol\":3201:3303  require(... */\n      tag_148\n      jumpi\n      mload(0x40)\n      0x08c379a000000000000000000000000000000000000000000000000000000000\n      dup2\n      mstore\n      0x04\n      add\n      tag_149\n      swap1\n      tag_73\n      jump\t// in\n    tag_149:\n      mload(0x40)\n      dup1\n      swap2\n      sub\n      swap1\n      revert\n    tag_148:\n        /* \"contracts/hangman.sol\":5997:6014  Game storage game */\n      0x00\n        /* \"contracts/hangman.sol\":6017:6028  activeGames */\n      0x5b\n        /* \"contracts/hangman.sol\":6029:6036  _gameID */\n      dup4\n        /* \"contracts/hangman.sol\":6017:6037  activeGames[_gameID] */\n      mload(0x40)\n      tag_151\n      swap2\n      swap1\n      tag_70\n      jump\t// in\n    tag_151:\n      swap1\n      dup2\n      mstore\n      0x20\n      add\n      mload(0x40)\n      dup1\n      swap2\n      sub\n      swap1\n      keccak256\n        /* \"contracts/hangman.sol\":5997:6037  Game storage game = activeGames[_gameID] */\n      swap1\n      pop\n        /* \"contracts/hangman.sol\":6084:6094  msg.sender */\n      caller\n        /* \"contracts/hangman.sol\":6068:6094  game.creator == msg.sender */\n      0xffffffffffffffffffffffffffffffffffffffff\n      and\n        /* \"contracts/hangman.sol\":6068:6072  game */\n      dup2\n        /* \"contracts/hangman.sol\":6068:6080  game.creator */\n      0x01\n      add\n      0x02\n      swap1\n      sload\n      swap1\n      0x0100\n      exp\n      swap1\n      div\n      0xffffffffffffffffffffffffffffffffffffffff\n      and\n        /* \"contracts/hangman.sol\":6068:6094  game.creator == msg.sender */\n      0xffffffffffffffffffffffffffffffffffffffff\n      and\n      eq\n        /* \"contracts/hangman.sol\":6068:6124  game.creator == msg.sender || game.creator == address(0) */\n      dup1\n      tag_152\n      jumpi\n      pop\n        /* \"contracts/hangman.sol\":6122:6123  0 */\n      0x00\n        /* \"contracts/hangman.sol\":6098:6124  game.creator == address(0) */\n      0xffffffffffffffffffffffffffffffffffffffff\n      and\n        /* \"contracts/hangman.sol\":6098:6102  game */\n      dup2\n        /* \"contracts/hangman.sol\":6098:6110  game.creator */\n      0x01\n      add\n      0x02\n      swap1\n      sload\n      swap1\n      0x0100\n      exp\n      swap1\n      div\n      0xffffffffffffffffffffffffffffffffffffffff\n      and\n        /* \"contracts/hangman.sol\":6098:6124  game.creator == address(0) */\n      0xffffffffffffffffffffffffffffffffffffffff\n      and\n      eq\n        /* \"contracts/hangman.sol\":6068:6124  game.creator == msg.sender || game.creator == address(0) */\n    tag_152:\n        /* \"contracts/hangman.sol\":6047:6187  require(... */\n      tag_153\n      jumpi\n      mload(0x40)\n      0x08c379a000000000000000000000000000000000000000000000000000000000\n      dup2\n      mstore\n      0x04\n      add\n      tag_154\n      swap1\n      tag_155\n      jump\t// in\n    tag_154:\n      mload(0x40)\n      dup1\n      swap2\n      sub\n      swap1\n      revert\n    tag_153:\n        /* \"contracts/hangman.sol\":6198:6234  _endGame(game, GameResult.CANCELLED) */\n      tag_156\n        /* \"contracts/hangman.sol\":6207:6211  game */\n      dup2\n        /* \"contracts/hangman.sol\":6213:6233  GameResult.CANCELLED */\n      0x02\n        /* \"contracts/hangman.sol\":6198:6206  _endGame */\n      tag_131\n        /* \"contracts/hangman.sol\":6198:6234  _endGame(game, GameResult.CANCELLED) */\n      jump\t// in\n    tag_156:\n        /* \"contracts/hangman.sol\":5987:6241  {... */\n      pop\n        /* \"contracts/hangman.sol\":5913:6241  function deleteGame(string memory _gameID) external gameIsActive(_gameID) {... */\n      pop\n      pop\n      jump\t// out\n        /* \"contracts/hangman.sol\":4572:5803  function createGame(... */\n    tag_59:\n        /* \"contracts/hangman.sol\":4723:4734  activeGames */\n      0x5b\n        /* \"contracts/hangman.sol\":4735:4742  _gameID */\n      dup3\n        /* \"contracts/hangman.sol\":4723:4743  activeGames[_gameID] */\n      mload(0x40)\n      tag_158\n      swap2\n      swap1\n      tag_70\n      jump\t// in\n    tag_158:\n      swap1\n      dup2\n      mstore\n      0x20\n      add\n      mload(0x40)\n      dup1\n      swap2\n      sub\n      swap1\n      keccak256\n        /* \"contracts/hangman.sol\":4723:4752  activeGames[_gameID].isActive */\n      0x01\n      add\n      0x01\n      swap1\n      sload\n      swap1\n      0x0100\n      exp\n      swap1\n      div\n      0xff\n      and\n        /* \"contracts/hangman.sol\":4722:4752  !activeGames[_gameID].isActive */\n      iszero\n        /* \"contracts/hangman.sol\":4701:4818  require(... */\n      tag_159\n      jumpi\n      mload(0x40)\n      0x08c379a000000000000000000000000000000000000000000000000000000000\n      dup2\n      mstore\n      0x04\n      add\n      tag_160\n      swap1\n      tag_161\n      jump\t// in\n    tag_160:\n      mload(0x40)\n      dup1\n      swap2\n      sub\n      swap1\n      revert\n    tag_159:\n        /* \"contracts/hangman.sol\":4865:4866  0 */\n      0x00\n        /* \"contracts/hangman.sol\":4849:4862  _numOfPlayers */\n      dup2\n        /* \"contracts/hangman.sol\":4849:4866  _numOfPlayers > 0 */\n      0xff\n      and\n      gt\n        /* \"contracts/hangman.sol\":4849:4898  _numOfPlayers > 0 && _numOfPlayers <= MAX_PLAYERS */\n      dup1\n      iszero\n      tag_162\n      jumpi\n      pop\n        /* \"contracts/hangman.sol\":238:239  5 */\n      0x05\n        /* \"contracts/hangman.sol\":4870:4898  _numOfPlayers <= MAX_PLAYERS */\n      0xff\n      and\n        /* \"contracts/hangman.sol\":4870:4883  _numOfPlayers */\n      dup2\n        /* \"contracts/hangman.sol\":4870:4898  _numOfPlayers <= MAX_PLAYERS */\n      0xff\n      and\n      gt\n      iszero\n        /* \"contracts/hangman.sol\":4849:4898  _numOfPlayers > 0 && _numOfPlayers <= MAX_PLAYERS */\n    tag_162:\n        /* \"contracts/hangman.sol\":4828:4984  require(... */\n      tag_163\n      jumpi\n      mload(0x40)\n      0x08c379a000000000000000000000000000000000000000000000000000000000\n      dup2\n      mstore\n      0x04\n      add\n      tag_164\n      swap1\n      tag_165\n      jump\t// in\n    tag_164:\n      mload(0x40)\n      dup1\n      swap2\n      sub\n      swap1\n      revert\n    tag_163:\n        /* \"contracts/hangman.sol\":4994:5009  uint8 gameIndex */\n      0x00\n        /* \"contracts/hangman.sol\":5012:5027  _allocateGame() */\n      tag_166\n        /* \"contracts/hangman.sol\":5012:5025  _allocateGame */\n      tag_167\n        /* \"contracts/hangman.sol\":5012:5027  _allocateGame() */\n      jump\t// in\n    tag_166:\n        /* \"contracts/hangman.sol\":4994:5027  uint8 gameIndex = _allocateGame() */\n      swap1\n      pop\n        /* \"contracts/hangman.sol\":279:280  5 */\n      0x05\n        /* \"contracts/hangman.sol\":5058:5079  gameIndex < MAX_GAMES */\n      0xff\n      and\n        /* \"contracts/hangman.sol\":5058:5067  gameIndex */\n      dup2\n        /* \"contracts/hangman.sol\":5058:5079  gameIndex < MAX_GAMES */\n      0xff\n      and\n      lt\n        /* \"contracts/hangman.sol\":5037:5132  require(... */\n      tag_168\n      jumpi\n      mload(0x40)\n      0x08c379a000000000000000000000000000000000000000000000000000000000\n      dup2\n      mstore\n      0x04\n      add\n      tag_169\n      swap1\n      tag_170\n      jump\t// in\n    tag_169:\n      mload(0x40)\n      dup1\n      swap2\n      sub\n      swap1\n      revert\n    tag_168:\n        /* \"contracts/hangman.sol\":5165:5182  Game storage game */\n      0x00\n        /* \"contracts/hangman.sol\":5185:5190  games */\n      0x01\n        /* \"contracts/hangman.sol\":5191:5200  gameIndex */\n      dup3\n        /* \"contracts/hangman.sol\":5185:5201  games[gameIndex] */\n      0xff\n      and\n      0x05\n      dup2\n      lt\n      tag_171\n      jumpi\n      tag_172\n      tag_173\n      jump\t// in\n    tag_172:\n    tag_171:\n      0x12\n      mul\n      add\n        /* \"contracts/hangman.sol\":5165:5201  Game storage game = games[gameIndex] */\n      swap1\n      pop\n        /* \"contracts/hangman.sol\":5225:5232  _gameID */\n      dup4\n        /* \"contracts/hangman.sol\":5211:5215  game */\n      dup2\n        /* \"contracts/hangman.sol\":5211:5222  game.gameID */\n      0x00\n      add\n        /* \"contracts/hangman.sol\":5211:5232  game.gameID = _gameID */\n      swap1\n      dup2\n      tag_175\n      swap2\n      swap1\n      tag_176\n      jump\t// in\n    tag_175:\n      pop\n        /* \"contracts/hangman.sol\":5255:5264  gameIndex */\n      dup2\n        /* \"contracts/hangman.sol\":5242:5246  game */\n      dup2\n        /* \"contracts/hangman.sol\":5242:5252  game.index */\n      0x01\n      add\n      0x00\n        /* \"contracts/hangman.sol\":5242:5264  game.index = gameIndex */\n      0x0100\n      exp\n      dup2\n      sload\n      dup2\n      0xff\n      mul\n      not\n      and\n      swap1\n      dup4\n      0xff\n      and\n      mul\n      or\n      swap1\n      sstore\n      pop\n        /* \"contracts/hangman.sol\":5289:5299  msg.sender */\n      caller\n        /* \"contracts/hangman.sol\":5274:5278  game */\n      dup2\n        /* \"contracts/hangman.sol\":5274:5286  game.creator */\n      0x01\n      add\n      0x02\n        /* \"contracts/hangman.sol\":5274:5299  game.creator = msg.sender */\n      0x0100\n      exp\n      dup2\n      sload\n      dup2\n      0xffffffffffffffffffffffffffffffffffffffff\n      mul\n      not\n      and\n      swap1\n      dup4\n      0xffffffffffffffffffffffffffffffffffffffff\n      and\n      mul\n      or\n      swap1\n      sstore\n      pop\n        /* \"contracts/hangman.sol\":5327:5340  _numOfPlayers */\n      dup3\n        /* \"contracts/hangman.sol\":5309:5313  game */\n      dup2\n        /* \"contracts/hangman.sol\":5309:5324  game.maxPlayers */\n      0x01\n      add\n      0x16\n        /* \"contracts/hangman.sol\":5309:5340  game.maxPlayers = _numOfPlayers */\n      0x0100\n      exp\n      dup2\n      sload\n      dup2\n      0xff\n      mul\n      not\n      and\n      swap1\n      dup4\n      0xff\n      and\n      mul\n      or\n      swap1\n      sstore\n      pop\n        /* \"contracts/hangman.sol\":5350:5367  uint256 randomNum */\n      0x00\n        /* \"contracts/hangman.sol\":5435:5450  block.timestamp */\n      timestamp\n        /* \"contracts/hangman.sol\":5452:5462  msg.sender */\n      caller\n        /* \"contracts/hangman.sol\":5418:5463  abi.encodePacked(block.timestamp, msg.sender) */\n      add(0x20, mload(0x40))\n      tag_177\n      swap3\n      swap2\n      swap1\n      tag_178\n      jump\t// in\n    tag_177:\n      mload(0x40)\n      0x20\n      dup2\n      dup4\n      sub\n      sub\n      dup2\n      mstore\n      swap1\n      0x40\n      mstore\n        /* \"contracts/hangman.sol\":5391:5477  keccak256(... */\n      dup1\n      mload\n      swap1\n      0x20\n      add\n      keccak256\n        /* \"contracts/hangman.sol\":5370:5487  uint256(... */\n      0x00\n      shr\n        /* \"contracts/hangman.sol\":5350:5487  uint256 randomNum = uint256(... */\n      swap1\n      pop\n        /* \"contracts/hangman.sol\":5515:5520  WORDS */\n      0x00\n        /* \"contracts/hangman.sol\":5533:5538  WORDS */\n      dup1\n        /* \"contracts/hangman.sol\":5533:5545  WORDS.length */\n      dup1\n      sload\n      swap1\n      pop\n        /* \"contracts/hangman.sol\":5521:5530  randomNum */\n      dup3\n        /* \"contracts/hangman.sol\":5521:5545  randomNum % WORDS.length */\n      tag_179\n      swap2\n      swap1\n      tag_180\n      jump\t// in\n    tag_179:\n        /* \"contracts/hangman.sol\":5515:5546  WORDS[randomNum % WORDS.length] */\n      dup2\n      sload\n      dup2\n      lt\n      tag_181\n      jumpi\n      tag_182\n      tag_173\n      jump\t// in\n    tag_182:\n    tag_181:\n      swap1\n      0x00\n      mstore\n      keccak256(0x00, 0x20)\n      add\n        /* \"contracts/hangman.sol\":5497:5501  game */\n      dup3\n        /* \"contracts/hangman.sol\":5497:5512  game.hiddenWord */\n      0x03\n      add\n        /* \"contracts/hangman.sol\":5497:5546  game.hiddenWord = WORDS[randomNum % WORDS.length] */\n      swap1\n      dup2\n      tag_184\n      swap2\n      swap1\n      tag_185\n      jump\t// in\n    tag_184:\n      pop\n        /* \"contracts/hangman.sol\":5596:5600  game */\n      dup2\n        /* \"contracts/hangman.sol\":5596:5611  game.hiddenWord */\n      0x03\n      add\n        /* \"contracts/hangman.sol\":5590:5619  bytes(game.hiddenWord).length */\n      dup1\n      sload\n      tag_186\n      swap1\n      tag_63\n      jump\t// in\n    tag_186:\n      swap1\n      pop\n        /* \"contracts/hangman.sol\":5579:5620  new bool[](bytes(game.hiddenWord).length) */\n      0xffffffffffffffff\n      dup2\n      gt\n      iszero\n      tag_187\n      jumpi\n      tag_188\n      tag_189\n      jump\t// in\n    tag_188:\n    tag_187:\n      mload(0x40)\n      swap1\n      dup1\n      dup3\n      mstore\n      dup1\n      0x20\n      mul\n      0x20\n      add\n      dup3\n      add\n      0x40\n      mstore\n      dup1\n      iszero\n      tag_190\n      jumpi\n      dup2\n      0x20\n      add\n      0x20\n      dup3\n      mul\n      dup1\n      calldatasize\n      dup4\n      calldatacopy\n      dup1\n      dup3\n      add\n      swap2\n      pop\n      pop\n      swap1\n      pop\n    tag_190:\n      pop\n        /* \"contracts/hangman.sol\":5556:5560  game */\n      dup3\n        /* \"contracts/hangman.sol\":5556:5576  game.revealedLetters */\n      0x04\n      add\n        /* \"contracts/hangman.sol\":5556:5620  game.revealedLetters = new bool[](bytes(game.hiddenWord).length) */\n      swap1\n      dup1\n      mload\n      swap1\n      0x20\n      add\n      swap1\n      tag_191\n      swap3\n      swap2\n      swap1\n      tag_192\n      jump\t// in\n    tag_191:\n      pop\n        /* \"contracts/hangman.sol\":5657:5672  block.timestamp */\n      timestamp\n        /* \"contracts/hangman.sol\":5630:5634  game */\n      dup3\n        /* \"contracts/hangman.sol\":5630:5654  game.lastActionTimestamp */\n      0x07\n      add\n        /* \"contracts/hangman.sol\":5630:5672  game.lastActionTimestamp = block.timestamp */\n      dup2\n      swap1\n      sstore\n      pop\n        /* \"contracts/hangman.sol\":5698:5702  true */\n      0x01\n        /* \"contracts/hangman.sol\":5682:5686  game */\n      dup3\n        /* \"contracts/hangman.sol\":5682:5695  game.isActive */\n      0x01\n      add\n      0x01\n        /* \"contracts/hangman.sol\":5682:5702  game.isActive = true */\n      0x0100\n      exp\n      dup2\n      sload\n      dup2\n      0xff\n      mul\n      not\n      and\n      swap1\n      dup4\n      iszero\n      iszero\n      mul\n      or\n      swap1\n      sstore\n      pop\n        /* \"contracts/hangman.sol\":5729:5736  _gameID */\n      dup5\n        /* \"contracts/hangman.sol\":5717:5752  GameCreated(_gameID, _numOfPlayers) */\n      mload(0x40)\n      tag_193\n      swap2\n      swap1\n      tag_70\n      jump\t// in\n    tag_193:\n      mload(0x40)\n      dup1\n      swap2\n      sub\n      swap1\n      keccak256\n      0x0a0048d71a81bd0849ad071dd103d646a72b493a92a1cdf4cb7c13cf30f577df\n        /* \"contracts/hangman.sol\":5738:5751  _numOfPlayers */\n      dup6\n        /* \"contracts/hangman.sol\":5717:5752  GameCreated(_gameID, _numOfPlayers) */\n      mload(0x40)\n      tag_194\n      swap2\n      swap1\n      tag_33\n      jump\t// in\n    tag_194:\n      mload(0x40)\n      dup1\n      swap2\n      sub\n      swap1\n      log2\n        /* \"contracts/hangman.sol\":5762:5796  _addPlayerToGame(game, msg.sender) */\n      tag_195\n        /* \"contracts/hangman.sol\":5779:5783  game */\n      dup3\n        /* \"contracts/hangman.sol\":5785:5795  msg.sender */\n      caller\n        /* \"contracts/hangman.sol\":5762:5778  _addPlayerToGame */\n      tag_196\n        /* \"contracts/hangman.sol\":5762:5796  _addPlayerToGame(game, msg.sender) */\n      jump\t// in\n    tag_195:\n        /* \"contracts/hangman.sol\":4667:5803  {... */\n      pop\n      pop\n      pop\n        /* \"contracts/hangman.sol\":4572:5803  function createGame(... */\n      pop\n      pop\n      jump\t// out\n        /* \"contracts/hangman.sol\":10053:10556  function _registerVote(string storage gameID, Vote storage vote, address player, bytes1 letter) private {... */\n    tag_97:\n        /* \"contracts/hangman.sol\":10203:10209  player */\n      dup2\n        /* \"contracts/hangman.sol\":10167:10171  vote */\n      dup4\n        /* \"contracts/hangman.sol\":10167:10184  vote.playersVoted */\n      0x03\n      add\n        /* \"contracts/hangman.sol\":10185:10189  vote */\n      dup5\n        /* \"contracts/hangman.sol\":10185:10199  vote.voteCount */\n      0x02\n      add\n      0x00\n      swap1\n      sload\n      swap1\n      0x0100\n      exp\n      swap1\n      div\n      0xff\n      and\n        /* \"contracts/hangman.sol\":10167:10200  vote.playersVoted[vote.voteCount] */\n      0xff\n      and\n      0x05\n      dup2\n      lt\n      tag_198\n      jumpi\n      tag_199\n      tag_173\n      jump\t// in\n    tag_199:\n    tag_198:\n      add\n      0x00\n        /* \"contracts/hangman.sol\":10167:10209  vote.playersVoted[vote.voteCount] = player */\n      0x0100\n      exp\n      dup2\n      sload\n      dup2\n      0xffffffffffffffffffffffffffffffffffffffff\n      mul\n      not\n      and\n      swap1\n      dup4\n      0xffffffffffffffffffffffffffffffffffffffff\n      and\n      mul\n      or\n      swap1\n      sstore\n      pop\n        /* \"contracts/hangman.sol\":10246:10252  letter */\n      dup1\n        /* \"contracts/hangman.sol\":10219:10223  vote */\n      dup4\n        /* \"contracts/hangman.sol\":10219:10235  vote.playerVotes */\n      0x08\n      add\n        /* \"contracts/hangman.sol\":10219:10243  vote.playerVotes[player] */\n      0x00\n        /* \"contracts/hangman.sol\":10236:10242  player */\n      dup5\n        /* \"contracts/hangman.sol\":10219:10243  vote.playerVotes[player] */\n      0xffffffffffffffffffffffffffffffffffffffff\n      and\n      0xffffffffffffffffffffffffffffffffffffffff\n      and\n      dup2\n      mstore\n      0x20\n      add\n      swap1\n      dup2\n      mstore\n      0x20\n      add\n      0x00\n      keccak256\n      0x00\n        /* \"contracts/hangman.sol\":10219:10252  vote.playerVotes[player] = letter */\n      0x0100\n      exp\n      dup2\n      sload\n      dup2\n      0xff\n      mul\n      not\n      and\n      swap1\n      dup4\n      0xf8\n      shr\n      mul\n      or\n      swap1\n      sstore\n      pop\n        /* \"contracts/hangman.sol\":10291:10292  1 */\n      0x01\n        /* \"contracts/hangman.sol\":10262:10266  vote */\n      dup4\n        /* \"contracts/hangman.sol\":10262:10279  vote.letterCounts */\n      0x09\n      add\n        /* \"contracts/hangman.sol\":10262:10287  vote.letterCounts[letter] */\n      0x00\n        /* \"contracts/hangman.sol\":10280:10286  letter */\n      dup4\n        /* \"contracts/hangman.sol\":10262:10287  vote.letterCounts[letter] */\n      not(0xffffffffffffffffffffffffffffffffffffffffffffffffffffffffffffff)\n      and\n      not(0xffffffffffffffffffffffffffffffffffffffffffffffffffffffffffffff)\n      and\n      dup2\n      mstore\n      0x20\n      add\n      swap1\n      dup2\n      mstore\n      0x20\n      add\n      0x00\n      keccak256\n      0x00\n        /* \"contracts/hangman.sol\":10262:10292  vote.letterCounts[letter] += 1 */\n      dup3\n      dup3\n      dup3\n      swap1\n      sload\n      swap1\n      0x0100\n      exp\n      swap1\n      div\n      0xff\n      and\n      tag_201\n      swap2\n      swap1\n      tag_202\n      jump\t// in\n    tag_201:\n      swap3\n      pop\n      0x0100\n      exp\n      dup2\n      sload\n      dup2\n      0xff\n      mul\n      not\n      and\n      swap1\n      dup4\n      0xff\n      and\n      mul\n      or\n      swap1\n      sstore\n      pop\n        /* \"contracts/hangman.sol\":10320:10321  1 */\n      0x01\n        /* \"contracts/hangman.sol\":10302:10306  vote */\n      dup4\n        /* \"contracts/hangman.sol\":10302:10316  vote.voteCount */\n      0x02\n      add\n      0x00\n        /* \"contracts/hangman.sol\":10302:10321  vote.voteCount += 1 */\n      dup3\n      dup3\n      dup3\n      swap1\n      sload\n      swap1\n      0x0100\n      exp\n      swap1\n      div\n      0xff\n      and\n      tag_203\n      swap2\n      swap1\n      tag_202\n      jump\t// in\n    tag_203:\n      swap3\n      pop\n      0x0100\n      exp\n      dup2\n      sload\n      dup2\n      0xff\n      mul\n      not\n      and\n      swap1\n      dup4\n      0xff\n      and\n      mul\n      or\n      swap1\n      sstore\n      pop\n        /* \"contracts/hangman.sol\":10336:10340  vote */\n      dup3\n        /* \"contracts/hangman.sol\":10336:10353  vote.votingActive */\n      0x00\n      add\n      0x00\n      swap1\n      sload\n      swap1\n      0x0100\n      exp\n      swap1\n      div\n      0xff\n      and\n        /* \"contracts/hangman.sol\":10331:10497  if (!vote.votingActive) {... */\n      tag_204\n      jumpi\n        /* \"contracts/hangman.sol\":10389:10393  true */\n      0x01\n        /* \"contracts/hangman.sol\":10369:10373  vote */\n      dup4\n        /* \"contracts/hangman.sol\":10369:10386  vote.votingActive */\n      0x00\n      add\n      0x00\n        /* \"contracts/hangman.sol\":10369:10393  vote.votingActive = true */\n      0x0100\n      exp\n      dup2\n      sload\n      dup2\n      0xff\n      mul\n      not\n      and\n      swap1\n      dup4\n      iszero\n      iszero\n      mul\n      or\n      swap1\n      sstore\n      pop\n        /* \"contracts/hangman.sol\":10433:10448  block.timestamp */\n      timestamp\n        /* \"contracts/hangman.sol\":10407:10411  vote */\n      dup4\n        /* \"contracts/hangman.sol\":10407:10430  vote.voteStartTimestamp */\n      0x01\n      add\n        /* \"contracts/hangman.sol\":10407:10448  vote.voteStartTimestamp = block.timestamp */\n      dup2\n      swap1\n      sstore\n      pop\n        /* \"contracts/hangman.sol\":10479:10485  gameID */\n      dup4\n        /* \"contracts/hangman.sol\":10467:10486  VoteStarted(gameID) */\n      mload(0x40)\n      tag_205\n      swap2\n      swap1\n      tag_206\n      jump\t// in\n    tag_205:\n      mload(0x40)\n      dup1\n      swap2\n      sub\n      swap1\n      keccak256\n      0xc39eb03dc11d6bbeb3b818b739e4478f7874c1f803d2e603cc7d7a45045cb68d\n      mload(0x40)\n      mload(0x40)\n      dup1\n      swap2\n      sub\n      swap1\n      log2\n        /* \"contracts/hangman.sol\":10331:10497  if (!vote.votingActive) {... */\n    tag_204:\n        /* \"contracts/hangman.sol\":10534:10540  player */\n      dup2\n        /* \"contracts/hangman.sol\":10511:10549  VoteRegistered(gameID, player, letter) */\n      0xffffffffffffffffffffffffffffffffffffffff\n      and\n      0xe1be499d3000b42a54f5be9b908b831fbed5da7f8431ee79b82a3fa6d092781e\n        /* \"contracts/hangman.sol\":10526:10532  gameID */\n      dup6\n        /* \"contracts/hangman.sol\":10542:10548  letter */\n      dup4\n        /* \"contracts/hangman.sol\":10511:10549  VoteRegistered(gameID, player, letter) */\n      mload(0x40)\n      tag_207\n      swap3\n      swap2\n      swap1\n      tag_208\n      jump\t// in\n    tag_207:\n      mload(0x40)\n      dup1\n      swap2\n      sub\n      swap1\n      log2\n        /* \"contracts/hangman.sol\":10053:10556  function _registerVote(string storage gameID, Vote storage vote, address player, bytes1 letter) private {... */\n      pop\n      pop\n      pop\n      pop\n      jump\t// out\n        /* \"contracts/hangman.sol\":11289:12598  function _endVote(Game storage game) private {... */\n    tag_103:\n        /* \"contracts/hangman.sol\":11344:11361  Vote storage vote */\n      0x00\n        /* \"contracts/hangman.sol\":11364:11368  game */\n      dup2\n        /* \"contracts/hangman.sol\":11364:11373  game.vote */\n      0x08\n      add\n        /* \"contracts/hangman.sol\":11344:11373  Vote storage vote = game.vote */\n      swap1\n      pop\n        /* \"contracts/hangman.sol\":11383:11402  bytes1 voted_letter */\n      0x00\n        /* \"contracts/hangman.sol\":11405:11406  0 */\n      dup1\n        /* \"contracts/hangman.sol\":11383:11406  bytes1 voted_letter = 0 */\n      0xf8\n      shl\n      swap1\n      pop\n        /* \"contracts/hangman.sol\":11416:11425  bool done */\n      0x00\n        /* \"contracts/hangman.sol\":11428:11432  true */\n      0x01\n        /* \"contracts/hangman.sol\":11416:11432  bool done = true */\n      swap1\n      pop\n        /* \"contracts/hangman.sol\":11442:11450  bool hit */\n      0x00\n        /* \"contracts/hangman.sol\":11468:11477  uint8 max */\n      dup1\n        /* \"contracts/hangman.sol\":11539:11545  uint i */\n      0x00\n        /* \"contracts/hangman.sol\":11534:11793  for (uint i = 0; i < vote.voteCount; i++) {... */\n    tag_210:\n        /* \"contracts/hangman.sol\":11555:11559  vote */\n      dup6\n        /* \"contracts/hangman.sol\":11555:11569  vote.voteCount */\n      0x02\n      add\n      0x00\n      swap1\n      sload\n      swap1\n      0x0100\n      exp\n      swap1\n      div\n      0xff\n      and\n        /* \"contracts/hangman.sol\":11551:11569  i < vote.voteCount */\n      0xff\n      and\n        /* \"contracts/hangman.sol\":11551:11552  i */\n      dup2\n        /* \"contracts/hangman.sol\":11551:11569  i < vote.voteCount */\n      lt\n        /* \"contracts/hangman.sol\":11534:11793  for (uint i = 0; i < vote.voteCount; i++) {... */\n      iszero\n      tag_211\n      jumpi\n        /* \"contracts/hangman.sol\":11590:11603  bytes1 letter */\n      0x00\n        /* \"contracts/hangman.sol\":11606:11610  vote */\n      dup7\n        /* \"contracts/hangman.sol\":11606:11622  vote.playerVotes */\n      0x08\n      add\n        /* \"contracts/hangman.sol\":11606:11644  vote.playerVotes[vote.playersVoted[i]] */\n      0x00\n        /* \"contracts/hangman.sol\":11623:11627  vote */\n      dup9\n        /* \"contracts/hangman.sol\":11623:11640  vote.playersVoted */\n      0x03\n      add\n        /* \"contracts/hangman.sol\":11641:11642  i */\n      dup5\n        /* \"contracts/hangman.sol\":11623:11643  vote.playersVoted[i] */\n      0x05\n      dup2\n      lt\n      tag_213\n      jumpi\n      tag_214\n      tag_173\n      jump\t// in\n    tag_214:\n    tag_213:\n      add\n      0x00\n      swap1\n      sload\n      swap1\n      0x0100\n      exp\n      swap1\n      div\n      0xffffffffffffffffffffffffffffffffffffffff\n      and\n        /* \"contracts/hangman.sol\":11606:11644  vote.playerVotes[vote.playersVoted[i]] */\n      0xffffffffffffffffffffffffffffffffffffffff\n      and\n      0xffffffffffffffffffffffffffffffffffffffff\n      and\n      dup2\n      mstore\n      0x20\n      add\n      swap1\n      dup2\n      mstore\n      0x20\n      add\n      0x00\n      keccak256\n      0x00\n      swap1\n      sload\n      swap1\n      0x0100\n      exp\n      swap1\n      div\n      0xf8\n      shl\n        /* \"contracts/hangman.sol\":11590:11644  bytes1 letter = vote.playerVotes[vote.playersVoted[i]] */\n      swap1\n      pop\n        /* \"contracts/hangman.sol\":11658:11669  uint8 count */\n      0x00\n        /* \"contracts/hangman.sol\":11672:11676  vote */\n      dup8\n        /* \"contracts/hangman.sol\":11672:11689  vote.letterCounts */\n      0x09\n      add\n        /* \"contracts/hangman.sol\":11672:11697  vote.letterCounts[letter] */\n      0x00\n        /* \"contracts/hangman.sol\":11690:11696  letter */\n      dup4\n        /* \"contracts/hangman.sol\":11672:11697  vote.letterCounts[letter] */\n      not(0xffffffffffffffffffffffffffffffffffffffffffffffffffffffffffffff)\n      and\n      not(0xffffffffffffffffffffffffffffffffffffffffffffffffffffffffffffff)\n      and\n      dup2\n      mstore\n      0x20\n      add\n      swap1\n      dup2\n      mstore\n      0x20\n      add\n      0x00\n      keccak256\n      0x00\n      swap1\n      sload\n      swap1\n      0x0100\n      exp\n      swap1\n      div\n      0xff\n      and\n        /* \"contracts/hangman.sol\":11658:11697  uint8 count = vote.letterCounts[letter] */\n      swap1\n      pop\n        /* \"contracts/hangman.sol\":11724:11727  max */\n      dup4\n        /* \"contracts/hangman.sol\":11716:11727  count > max */\n      0xff\n      and\n        /* \"contracts/hangman.sol\":11716:11721  count */\n      dup2\n        /* \"contracts/hangman.sol\":11716:11727  count > max */\n      0xff\n      and\n      gt\n        /* \"contracts/hangman.sol\":11712:11783  if (count > max) {... */\n      iszero\n      tag_216\n      jumpi\n        /* \"contracts/hangman.sol\":11762:11768  letter */\n      dup2\n        /* \"contracts/hangman.sol\":11747:11768  voted_letter = letter */\n      swap7\n      pop\n        /* \"contracts/hangman.sol\":11712:11783  if (count > max) {... */\n    tag_216:\n        /* \"contracts/hangman.sol\":11576:11793  {... */\n      pop\n      pop\n        /* \"contracts/hangman.sol\":11571:11574  i++ */\n      dup1\n      dup1\n      0x01\n      add\n      swap2\n      pop\n      pop\n        /* \"contracts/hangman.sol\":11534:11793  for (uint i = 0; i < vote.voteCount; i++) {... */\n      jump(tag_210)\n    tag_211:\n      pop\n        /* \"contracts/hangman.sol\":11803:11826  bytes memory maskedWord */\n      0x00\n        /* \"contracts/hangman.sol\":11835:11839  game */\n      dup7\n        /* \"contracts/hangman.sol\":11835:11850  game.hiddenWord */\n      0x03\n      add\n        /* \"contracts/hangman.sol\":11803:11851  bytes memory maskedWord = bytes(game.hiddenWord) */\n      dup1\n      sload\n      tag_217\n      swap1\n      tag_63\n      jump\t// in\n    tag_217:\n      dup1\n      0x1f\n      add\n      0x20\n      dup1\n      swap2\n      div\n      mul\n      0x20\n      add\n      mload(0x40)\n      swap1\n      dup2\n      add\n      0x40\n      mstore\n      dup1\n      swap3\n      swap2\n      swap1\n      dup2\n      dup2\n      mstore\n      0x20\n      add\n      dup3\n      dup1\n      sload\n      tag_218\n      swap1\n      tag_63\n      jump\t// in\n    tag_218:\n      dup1\n      iszero\n      tag_219\n      jumpi\n      dup1\n      0x1f\n      lt\n      tag_220\n      jumpi\n      0x0100\n      dup1\n      dup4\n      sload\n      div\n      mul\n      dup4\n      mstore\n      swap2\n      0x20\n      add\n      swap2\n      jump(tag_219)\n    tag_220:\n      dup3\n      add\n      swap2\n      swap1\n      0x00\n      mstore\n      keccak256(0x00, 0x20)\n      swap1\n    tag_221:\n      dup2\n      sload\n      dup2\n      mstore\n      swap1\n      0x01\n      add\n      swap1\n      0x20\n      add\n      dup1\n      dup4\n      gt\n      tag_221\n      jumpi\n      dup3\n      swap1\n      sub\n      0x1f\n      and\n      dup3\n      add\n      swap2\n    tag_219:\n      pop\n      pop\n      pop\n      pop\n      pop\n      swap1\n      pop\n        /* \"contracts/hangman.sol\":11867:11873  uint i */\n      0x00\n        /* \"contracts/hangman.sol\":11862:12240  for (uint i = 0; i < bytes(maskedWord).length; i++) {... */\n    tag_222:\n        /* \"contracts/hangman.sol\":11889:11899  maskedWord */\n      dup2\n        /* \"contracts/hangman.sol\":11883:11907  bytes(maskedWord).length */\n      mload\n        /* \"contracts/hangman.sol\":11879:11880  i */\n      dup2\n        /* \"contracts/hangman.sol\":11879:11907  i < bytes(maskedWord).length */\n      lt\n        /* \"contracts/hangman.sol\":11862:12240  for (uint i = 0; i < bytes(maskedWord).length; i++) {... */\n      iszero\n      tag_223\n      jumpi\n        /* \"contracts/hangman.sol\":11949:11961  voted_letter */\n      dup6\n        /* \"contracts/hangman.sol\":11932:11961  maskedWord[i] == voted_letter */\n      not(0xffffffffffffffffffffffffffffffffffffffffffffffffffffffffffffff)\n      and\n        /* \"contracts/hangman.sol\":11932:11942  maskedWord */\n      dup3\n        /* \"contracts/hangman.sol\":11943:11944  i */\n      dup3\n        /* \"contracts/hangman.sol\":11932:11945  maskedWord[i] */\n      dup2\n      mload\n      dup2\n      lt\n      tag_225\n      jumpi\n      tag_226\n      tag_173\n      jump\t// in\n    tag_226:\n    tag_225:\n      0x20\n      add\n      add\n      mload\n      0xf8\n      shr\n      0xf8\n      shl\n        /* \"contracts/hangman.sol\":11932:11961  maskedWord[i] == voted_letter */\n      not(0xffffffffffffffffffffffffffffffffffffffffffffffffffffffffffffff)\n      and\n      sub\n        /* \"contracts/hangman.sol\":11928:12230  if (maskedWord[i] == voted_letter) {... */\n      tag_227\n      jumpi\n        /* \"contracts/hangman.sol\":12017:12021  true */\n      0x01\n        /* \"contracts/hangman.sol\":11981:11985  game */\n      dup9\n        /* \"contracts/hangman.sol\":11981:12000  game.guessedLetters */\n      0x06\n      add\n        /* \"contracts/hangman.sol\":11981:12014  game.guessedLetters[voted_letter] */\n      0x00\n        /* \"contracts/hangman.sol\":12001:12013  voted_letter */\n      dup9\n        /* \"contracts/hangman.sol\":11981:12014  game.guessedLetters[voted_letter] */\n      not(0xffffffffffffffffffffffffffffffffffffffffffffffffffffffffffffff)\n      and\n      not(0xffffffffffffffffffffffffffffffffffffffffffffffffffffffffffffff)\n      and\n      dup2\n      mstore\n      0x20\n      add\n      swap1\n      dup2\n      mstore\n      0x20\n      add\n      0x00\n      keccak256\n      0x00\n        /* \"contracts/hangman.sol\":11981:12021  game.guessedLetters[voted_letter] = true */\n      0x0100\n      exp\n      dup2\n      sload\n      dup2\n      0xff\n      mul\n      not\n      and\n      swap1\n      dup4\n      iszero\n      iszero\n      mul\n      or\n      swap1\n      sstore\n      pop\n        /* \"contracts/hangman.sol\":12065:12069  true */\n      0x01\n        /* \"contracts/hangman.sol\":12039:12043  game */\n      dup9\n        /* \"contracts/hangman.sol\":12039:12059  game.revealedLetters */\n      0x04\n      add\n        /* \"contracts/hangman.sol\":12060:12061  i */\n      dup3\n        /* \"contracts/hangman.sol\":12039:12062  game.revealedLetters[i] */\n      dup2\n      sload\n      dup2\n      lt\n      tag_228\n      jumpi\n      tag_229\n      tag_173\n      jump\t// in\n    tag_229:\n    tag_228:\n      swap1\n      0x00\n      mstore\n      keccak256(0x00, 0x20)\n      swap1\n      0x20\n      swap2\n      dup3\n      dup3\n      div\n      add\n      swap2\n      swap1\n      mod\n        /* \"contracts/hangman.sol\":12039:12069  game.revealedLetters[i] = true */\n      0x0100\n      exp\n      dup2\n      sload\n      dup2\n      0xff\n      mul\n      not\n      and\n      swap1\n      dup4\n      iszero\n      iszero\n      mul\n      or\n      swap1\n      sstore\n      pop\n        /* \"contracts/hangman.sol\":12093:12097  true */\n      0x01\n        /* \"contracts/hangman.sol\":12087:12097  hit = true */\n      swap4\n      pop\n        /* \"contracts/hangman.sol\":11928:12230  if (maskedWord[i] == voted_letter) {... */\n      jump(tag_231)\n    tag_227:\n        /* \"contracts/hangman.sol\":12123:12127  game */\n      dup8\n        /* \"contracts/hangman.sol\":12123:12143  game.revealedLetters */\n      0x04\n      add\n        /* \"contracts/hangman.sol\":12144:12145  i */\n      dup2\n        /* \"contracts/hangman.sol\":12123:12146  game.revealedLetters[i] */\n      dup2\n      sload\n      dup2\n      lt\n      tag_232\n      jumpi\n      tag_233\n      tag_173\n      jump\t// in\n    tag_233:\n    tag_232:\n      swap1\n      0x00\n      mstore\n      keccak256(0x00, 0x20)\n      swap1\n      0x20\n      swap2\n      dup3\n      dup3\n      div\n      add\n      swap2\n      swap1\n      mod\n      swap1\n      sload\n      swap1\n      0x0100\n      exp\n      swap1\n      div\n      0xff\n      and\n        /* \"contracts/hangman.sol\":12118:12230  if (!game.revealedLetters[i]) {... */\n      tag_235\n      jumpi\n        /* \"contracts/hangman.sol\":12166:12185  maskedWord[i] = \"_\" */\n      0x5f00000000000000000000000000000000000000000000000000000000000000\n        /* \"contracts/hangman.sol\":12166:12176  maskedWord */\n      dup3\n        /* \"contracts/hangman.sol\":12177:12178  i */\n      dup3\n        /* \"contracts/hangman.sol\":12166:12179  maskedWord[i] */\n      dup2\n      mload\n      dup2\n      lt\n      tag_236\n      jumpi\n      tag_237\n      tag_173\n      jump\t// in\n    tag_237:\n    tag_236:\n      0x20\n      add\n      add\n        /* \"contracts/hangman.sol\":12166:12185  maskedWord[i] = \"_\" */\n      swap1\n      not(0xffffffffffffffffffffffffffffffffffffffffffffffffffffffffffffff)\n      and\n      swap1\n      dup2\n      0x00\n      byte\n      swap1\n      mstore8\n      pop\n        /* \"contracts/hangman.sol\":12210:12215  false */\n      0x00\n        /* \"contracts/hangman.sol\":12203:12215  done = false */\n      swap5\n      pop\n        /* \"contracts/hangman.sol\":12118:12230  if (!game.revealedLetters[i]) {... */\n    tag_235:\n        /* \"contracts/hangman.sol\":11928:12230  if (maskedWord[i] == voted_letter) {... */\n    tag_231:\n        /* \"contracts/hangman.sol\":11909:11912  i++ */\n      dup1\n      dup1\n      0x01\n      add\n      swap2\n      pop\n      pop\n        /* \"contracts/hangman.sol\":11862:12240  for (uint i = 0; i < bytes(maskedWord).length; i++) {... */\n      jump(tag_222)\n    tag_223:\n      pop\n        /* \"contracts/hangman.sol\":12257:12261  game */\n      dup7\n        /* \"contracts/hangman.sol\":12257:12266  game.vote */\n      0x08\n      add\n      0x00\n        /* \"contracts/hangman.sol\":12250:12266  delete game.vote */\n      dup1\n      dup3\n      add\n      exp(0x0100, 0x00)\n      dup2\n      sload\n      swap1\n      0xff\n      mul\n      not\n      and\n      swap1\n      sstore\n      0x01\n      dup3\n      add\n      0x00\n      swap1\n      sstore\n      0x02\n      dup3\n      add\n      exp(0x0100, 0x00)\n      dup2\n      sload\n      swap1\n      0xff\n      mul\n      not\n      and\n      swap1\n      sstore\n      0x03\n      dup3\n      add\n      0x00\n      tag_238\n      swap2\n      swap1\n      tag_239\n      jump\t// in\n    tag_238:\n      pop\n      pop\n        /* \"contracts/hangman.sol\":12291:12295  game */\n      dup7\n        /* \"contracts/hangman.sol\":12291:12302  game.gameID */\n      0x00\n      add\n        /* \"contracts/hangman.sol\":12281:12343  VoteEnded(game.gameID, voted_letter, string(maskedWord), !hit) */\n      mload(0x40)\n      tag_240\n      swap2\n      swap1\n      tag_241\n      jump\t// in\n    tag_240:\n      mload(0x40)\n      dup1\n      swap2\n      sub\n      swap1\n      keccak256\n      0x93484660649cf971864763c1bc0e0d0f5d7fdceeb388472825d299f8283268de\n        /* \"contracts/hangman.sol\":12304:12316  voted_letter */\n      dup7\n        /* \"contracts/hangman.sol\":12325:12335  maskedWord */\n      dup4\n        /* \"contracts/hangman.sol\":12339:12342  hit */\n      dup7\n        /* \"contracts/hangman.sol\":12338:12342  !hit */\n      iszero\n        /* \"contracts/hangman.sol\":12281:12343  VoteEnded(game.gameID, voted_letter, string(maskedWord), !hit) */\n      mload(0x40)\n      tag_242\n      swap4\n      swap3\n      swap2\n      swap1\n      tag_243\n      jump\t// in\n    tag_242:\n      mload(0x40)\n      dup1\n      swap2\n      sub\n      swap1\n      log2\n        /* \"contracts/hangman.sol\":12358:12361  hit */\n      dup3\n        /* \"contracts/hangman.sol\":12353:12592  if (!hit) {... */\n      tag_244\n      jumpi\n        /* \"contracts/hangman.sol\":12396:12397  1 */\n      0x01\n        /* \"contracts/hangman.sol\":12377:12381  game */\n      dup8\n        /* \"contracts/hangman.sol\":12377:12392  game.guessCount */\n      0x05\n      add\n      0x00\n        /* \"contracts/hangman.sol\":12377:12397  game.guessCount += 1 */\n      dup3\n      dup3\n      dup3\n      swap1\n      sload\n      swap1\n      0x0100\n      exp\n      swap1\n      div\n      0xff\n      and\n      tag_245\n      swap2\n      swap1\n      tag_202\n      jump\t// in\n    tag_245:\n      swap3\n      pop\n      0x0100\n      exp\n      dup2\n      sload\n      dup2\n      0xff\n      mul\n      not\n      and\n      swap1\n      dup4\n      0xff\n      and\n      mul\n      or\n      swap1\n      sstore\n      pop\n        /* \"contracts/hangman.sol\":322:323  6 */\n      0x06\n        /* \"contracts/hangman.sol\":12415:12445  game.guessCount == MAX_GUESSES */\n      0xff\n      and\n        /* \"contracts/hangman.sol\":12415:12419  game */\n      dup8\n        /* \"contracts/hangman.sol\":12415:12430  game.guessCount */\n      0x05\n      add\n      0x00\n      swap1\n      sload\n      swap1\n      0x0100\n      exp\n      swap1\n      div\n      0xff\n      and\n        /* \"contracts/hangman.sol\":12415:12445  game.guessCount == MAX_GUESSES */\n      0xff\n      and\n      sub\n        /* \"contracts/hangman.sol\":12411:12511  if (game.guessCount == MAX_GUESSES) {... */\n      tag_246\n      jumpi\n        /* \"contracts/hangman.sol\":12465:12496  _endGame(game, GameResult.LOST) */\n      tag_247\n        /* \"contracts/hangman.sol\":12474:12478  game */\n      dup8\n        /* \"contracts/hangman.sol\":12480:12495  GameResult.LOST */\n      0x01\n        /* \"contracts/hangman.sol\":12465:12473  _endGame */\n      tag_131\n        /* \"contracts/hangman.sol\":12465:12496  _endGame(game, GameResult.LOST) */\n      jump\t// in\n    tag_247:\n        /* \"contracts/hangman.sol\":12411:12511  if (game.guessCount == MAX_GUESSES) {... */\n    tag_246:\n        /* \"contracts/hangman.sol\":12353:12592  if (!hit) {... */\n      jump(tag_248)\n    tag_244:\n        /* \"contracts/hangman.sol\":12531:12535  done */\n      dup4\n        /* \"contracts/hangman.sol\":12527:12592  if (done) {... */\n      iszero\n      tag_249\n      jumpi\n        /* \"contracts/hangman.sol\":12551:12581  _endGame(game, GameResult.WON) */\n      tag_250\n        /* \"contracts/hangman.sol\":12560:12564  game */\n      dup8\n        /* \"contracts/hangman.sol\":12566:12580  GameResult.WON */\n      0x00\n        /* \"contracts/hangman.sol\":12551:12559  _endGame */\n      tag_131\n        /* \"contracts/hangman.sol\":12551:12581  _endGame(game, GameResult.WON) */\n      jump\t// in\n    tag_250:\n        /* \"contracts/hangman.sol\":12527:12592  if (done) {... */\n    tag_249:\n        /* \"contracts/hangman.sol\":12353:12592  if (!hit) {... */\n    tag_248:\n        /* \"contracts/hangman.sol\":11334:12598  {... */\n      pop\n      pop\n      pop\n      pop\n      pop\n      pop\n        /* \"contracts/hangman.sol\":11289:12598  function _endVote(Game storage game) private {... */\n      pop\n      jump\t// out\n        /* \"contracts/hangman.sol\":12758:13279  function _removePlayerFromGame(Game storage game, address player) private {... */\n    tag_128:\n        /* \"contracts/hangman.sol\":12866:12871  false */\n      0x00\n        /* \"contracts/hangman.sol\":12842:12846  game */\n      dup3\n        /* \"contracts/hangman.sol\":12842:12855  game.isPlayer */\n      0x02\n      add\n        /* \"contracts/hangman.sol\":12842:12863  game.isPlayer[player] */\n      0x00\n        /* \"contracts/hangman.sol\":12856:12862  player */\n      dup4\n        /* \"contracts/hangman.sol\":12842:12863  game.isPlayer[player] */\n      0xffffffffffffffffffffffffffffffffffffffff\n      and\n      0xffffffffffffffffffffffffffffffffffffffff\n      and\n      dup2\n      mstore\n      0x20\n      add\n      swap1\n      dup2\n      mstore\n      0x20\n      add\n      0x00\n      keccak256\n      0x00\n        /* \"contracts/hangman.sol\":12842:12871  game.isPlayer[player] = false */\n      0x0100\n      exp\n      dup2\n      sload\n      dup2\n      0xff\n      mul\n      not\n      and\n      swap1\n      dup4\n      iszero\n      iszero\n      mul\n      or\n      swap1\n      sstore\n      pop\n        /* \"contracts/hangman.sol\":12904:12905  1 */\n      0x01\n        /* \"contracts/hangman.sol\":12881:12885  game */\n      dup3\n        /* \"contracts/hangman.sol\":12881:12900  game.currentPlayers */\n      0x01\n      add\n      0x17\n        /* \"contracts/hangman.sol\":12881:12905  game.currentPlayers -= 1 */\n      dup3\n      dup3\n      dup3\n      swap1\n      sload\n      swap1\n      0x0100\n      exp\n      swap1\n      div\n      0xff\n      and\n      tag_252\n      swap2\n      swap1\n      tag_92\n      jump\t// in\n    tag_252:\n      swap3\n      pop\n      0x0100\n      exp\n      dup2\n      sload\n      dup2\n      0xff\n      mul\n      not\n      and\n      swap1\n      dup4\n      0xff\n      and\n      mul\n      or\n      swap1\n      sstore\n      pop\n        /* \"contracts/hangman.sol\":12950:12967  Vote storage vote */\n      0x00\n        /* \"contracts/hangman.sol\":12970:12974  game */\n      dup3\n        /* \"contracts/hangman.sol\":12970:12979  game.vote */\n      0x08\n      add\n        /* \"contracts/hangman.sol\":12950:12979  Vote storage vote = game.vote */\n      swap1\n      pop\n        /* \"contracts/hangman.sol\":13015:13016  0 */\n      0x00\n        /* \"contracts/hangman.sol\":12993:12997  game */\n      dup4\n        /* \"contracts/hangman.sol\":12993:13012  game.currentPlayers */\n      0x01\n      add\n      0x17\n      swap1\n      sload\n      swap1\n      0x0100\n      exp\n      swap1\n      div\n      0xff\n      and\n        /* \"contracts/hangman.sol\":12993:13016  game.currentPlayers > 0 */\n      0xff\n      and\n      gt\n        /* \"contracts/hangman.sol\":12993:13037  game.currentPlayers > 0 && vote.votingActive */\n      dup1\n      iszero\n      tag_253\n      jumpi\n      pop\n        /* \"contracts/hangman.sol\":13020:13024  vote */\n      dup1\n        /* \"contracts/hangman.sol\":13020:13037  vote.votingActive */\n      0x00\n      add\n      0x00\n      swap1\n      sload\n      swap1\n      0x0100\n      exp\n      swap1\n      div\n      0xff\n      and\n        /* \"contracts/hangman.sol\":12993:13037  game.currentPlayers > 0 && vote.votingActive */\n    tag_253:\n        /* \"contracts/hangman.sol\":12993:13070  game.currentPlayers > 0 && vote.votingActive && vote.playerVotes[player] != 0 */\n      dup1\n      iszero\n      tag_254\n      jumpi\n      pop\n        /* \"contracts/hangman.sol\":13069:13070  0 */\n      0x00\n        /* \"contracts/hangman.sol\":13041:13070  vote.playerVotes[player] != 0 */\n      0xf8\n      shl\n        /* \"contracts/hangman.sol\":13041:13045  vote */\n      dup2\n        /* \"contracts/hangman.sol\":13041:13057  vote.playerVotes */\n      0x08\n      add\n        /* \"contracts/hangman.sol\":13041:13065  vote.playerVotes[player] */\n      0x00\n        /* \"contracts/hangman.sol\":13058:13064  player */\n      dup5\n        /* \"contracts/hangman.sol\":13041:13065  vote.playerVotes[player] */\n      0xffffffffffffffffffffffffffffffffffffffff\n      and\n      0xffffffffffffffffffffffffffffffffffffffff\n      and\n      dup2\n      mstore\n      0x20\n      add\n      swap1\n      dup2\n      mstore\n      0x20\n      add\n      0x00\n      keccak256\n      0x00\n      swap1\n      sload\n      swap1\n      0x0100\n      exp\n      swap1\n      div\n      0xf8\n      shl\n        /* \"contracts/hangman.sol\":13041:13070  vote.playerVotes[player] != 0 */\n      not(0xffffffffffffffffffffffffffffffffffffffffffffffffffffffffffffff)\n      and\n      eq\n      iszero\n        /* \"contracts/hangman.sol\":12993:13070  game.currentPlayers > 0 && vote.votingActive && vote.playerVotes[player] != 0 */\n    tag_254:\n        /* \"contracts/hangman.sol\":12989:13139  if (game.currentPlayers > 0 && vote.votingActive && vote.playerVotes[player] != 0) {... */\n      iszero\n      tag_255\n      jumpi\n        /* \"contracts/hangman.sol\":13086:13128  _unregisterVote(game.gameID, vote, player) */\n      tag_256\n        /* \"contracts/hangman.sol\":13102:13106  game */\n      dup4\n        /* \"contracts/hangman.sol\":13102:13113  game.gameID */\n      0x00\n      add\n        /* \"contracts/hangman.sol\":13115:13119  vote */\n      dup3\n        /* \"contracts/hangman.sol\":13121:13127  player */\n      dup5\n        /* \"contracts/hangman.sol\":13086:13101  _unregisterVote */\n      tag_257\n        /* \"contracts/hangman.sol\":13086:13128  _unregisterVote(game.gameID, vote, player) */\n      jump\t// in\n    tag_256:\n        /* \"contracts/hangman.sol\":12989:13139  if (game.currentPlayers > 0 && vote.votingActive && vote.playerVotes[player] != 0) {... */\n    tag_255:\n        /* \"contracts/hangman.sol\":13169:13175  player */\n      dup2\n        /* \"contracts/hangman.sol\":13153:13175  game.creator == player */\n      0xffffffffffffffffffffffffffffffffffffffff\n      and\n        /* \"contracts/hangman.sol\":13153:13157  game */\n      dup4\n        /* \"contracts/hangman.sol\":13153:13165  game.creator */\n      0x01\n      add\n      0x02\n      swap1\n      sload\n      swap1\n      0x0100\n      exp\n      swap1\n      div\n      0xffffffffffffffffffffffffffffffffffffffff\n      and\n        /* \"contracts/hangman.sol\":13153:13175  game.creator == player */\n      0xffffffffffffffffffffffffffffffffffffffff\n      and\n      sub\n        /* \"contracts/hangman.sol\":13149:13227  if (game.creator == player) {... */\n      tag_258\n      jumpi\n        /* \"contracts/hangman.sol\":13214:13215  0 */\n      0x00\n        /* \"contracts/hangman.sol\":13191:13195  game */\n      dup4\n        /* \"contracts/hangman.sol\":13191:13203  game.creator */\n      0x01\n      add\n      0x02\n        /* \"contracts/hangman.sol\":13191:13216  game.creator = address(0) */\n      0x0100\n      exp\n      dup2\n      sload\n      dup2\n      0xffffffffffffffffffffffffffffffffffffffff\n      mul\n      not\n      and\n      swap1\n      dup4\n      0xffffffffffffffffffffffffffffffffffffffff\n      and\n      mul\n      or\n      swap1\n      sstore\n      pop\n        /* \"contracts/hangman.sol\":13149:13227  if (game.creator == player) {... */\n    tag_258:\n        /* \"contracts/hangman.sol\":13265:13271  player */\n      dup2\n        /* \"contracts/hangman.sol\":13241:13272  PlayerLeft(game.gameID, player) */\n      0xffffffffffffffffffffffffffffffffffffffff\n      and\n        /* \"contracts/hangman.sol\":13252:13256  game */\n      dup4\n        /* \"contracts/hangman.sol\":13252:13263  game.gameID */\n      0x00\n      add\n        /* \"contracts/hangman.sol\":13241:13272  PlayerLeft(game.gameID, player) */\n      mload(0x40)\n      tag_259\n      swap2\n      swap1\n      tag_241\n      jump\t// in\n    tag_259:\n      mload(0x40)\n      dup1\n      swap2\n      sub\n      swap1\n      keccak256\n      0xe3c5754d381588d73abe5a3ea491352ae6599bc3517832567c983a64f1fcb85b\n      mload(0x40)\n      mload(0x40)\n      dup1\n      swap2\n      sub\n      swap1\n      log3\n        /* \"contracts/hangman.sol\":12832:13279  {... */\n      pop\n        /* \"contracts/hangman.sol\":12758:13279  function _removePlayerFromGame(Game storage game, address player) private {... */\n      pop\n      pop\n      jump\t// out\n        /* \"contracts/hangman.sol\":9880:10047  function _endGame(Game storage game, GameResult result) private {... */\n    tag_131:\n        /* \"contracts/hangman.sol\":9969:9973  game */\n      dup2\n        /* \"contracts/hangman.sol\":9969:9980  game.gameID */\n      0x00\n      add\n        /* \"contracts/hangman.sol\":9959:10006  GameEnded(game.gameID, result, game.hiddenWord) */\n      mload(0x40)\n      tag_261\n      swap2\n      swap1\n      tag_241\n      jump\t// in\n    tag_261:\n      mload(0x40)\n      dup1\n      swap2\n      sub\n      swap1\n      keccak256\n      0x3d40bf146111cf2fb1681f012b4ced47c0260037f37ac76366766d0d20e1689d\n        /* \"contracts/hangman.sol\":9982:9988  result */\n      dup3\n        /* \"contracts/hangman.sol\":9990:9994  game */\n      dup5\n        /* \"contracts/hangman.sol\":9990:10005  game.hiddenWord */\n      0x03\n      add\n        /* \"contracts/hangman.sol\":9959:10006  GameEnded(game.gameID, result, game.hiddenWord) */\n      mload(0x40)\n      tag_262\n      swap3\n      swap2\n      swap1\n      tag_263\n      jump\t// in\n    tag_262:\n      mload(0x40)\n      dup1\n      swap2\n      sub\n      swap1\n      log2\n        /* \"contracts/hangman.sol\":10023:10028  games */\n      0x01\n        /* \"contracts/hangman.sol\":10029:10033  game */\n      dup3\n        /* \"contracts/hangman.sol\":10029:10039  game.index */\n      0x01\n      add\n      0x00\n      swap1\n      sload\n      swap1\n      0x0100\n      exp\n      swap1\n      div\n      0xff\n      and\n        /* \"contracts/hangman.sol\":10023:10040  games[game.index] */\n      0xff\n      and\n      0x05\n      dup2\n      lt\n      tag_264\n      jumpi\n      tag_265\n      tag_173\n      jump\t// in\n    tag_265:\n    tag_264:\n      0x12\n      mul\n      add\n      0x00\n        /* \"contracts/hangman.sol\":10016:10040  delete games[game.index] */\n      dup1\n      dup3\n      add\n      0x00\n      tag_267\n      swap2\n      swap1\n      tag_268\n      jump\t// in\n    tag_267:\n      0x01\n      dup3\n      add\n      exp(0x0100, 0x00)\n      dup2\n      sload\n      swap1\n      0xff\n      mul\n      not\n      and\n      swap1\n      sstore\n      0x01\n      dup3\n      add\n      exp(0x0100, 0x01)\n      dup2\n      sload\n      swap1\n      0xff\n      mul\n      not\n      and\n      swap1\n      sstore\n      0x01\n      dup3\n      add\n      exp(0x0100, 0x02)\n      dup2\n      sload\n      swap1\n      0xffffffffffffffffffffffffffffffffffffffff\n      mul\n      not\n      and\n      swap1\n      sstore\n      0x01\n      dup3\n      add\n      exp(0x0100, 0x16)\n      dup2\n      sload\n      swap1\n      0xff\n      mul\n      not\n      and\n      swap1\n      sstore\n      0x01\n      dup3\n      add\n      exp(0x0100, 0x17)\n      dup2\n      sload\n      swap1\n      0xff\n      mul\n      not\n      and\n      swap1\n      sstore\n      0x03\n      dup3\n      add\n      0x00\n      tag_269\n      swap2\n      swap1\n      tag_268\n      jump\t// in\n    tag_269:\n      0x04\n      dup3\n      add\n      0x00\n      tag_270\n      swap2\n      swap1\n      tag_271\n      jump\t// in\n    tag_270:\n      0x05\n      dup3\n      add\n      exp(0x0100, 0x00)\n      dup2\n      sload\n      swap1\n      0xff\n      mul\n      not\n      and\n      swap1\n      sstore\n      0x07\n      dup3\n      add\n      0x00\n      swap1\n      sstore\n      0x08\n      dup3\n      add\n      0x00\n      dup1\n      dup3\n      add\n      exp(0x0100, 0x00)\n      dup2\n      sload\n      swap1\n      0xff\n      mul\n      not\n      and\n      swap1\n      sstore\n      0x01\n      dup3\n      add\n      0x00\n      swap1\n      sstore\n      0x02\n      dup3\n      add\n      exp(0x0100, 0x00)\n      dup2\n      sload\n      swap1\n      0xff\n      mul\n      not\n      and\n      swap1\n      sstore\n      0x03\n      dup3\n      add\n      0x00\n      tag_272\n      swap2\n      swap1\n      tag_239\n      jump\t// in\n    tag_272:\n      pop\n      pop\n      pop\n      pop\n        /* \"contracts/hangman.sol\":9880:10047  function _endGame(Game storage game, GameResult result) private {... */\n      pop\n      pop\n      jump\t// out\n        /* \"contracts/hangman.sol\":9403:9870  function _allocateGame() private returns (uint8) {... */\n    tag_167:\n        /* \"contracts/hangman.sol\":9445:9450  uint8 */\n      0x00\n        /* \"contracts/hangman.sol\":9467:9474  uint8 i */\n      dup1\n        /* \"contracts/hangman.sol\":9477:9478  0 */\n      0x00\n        /* \"contracts/hangman.sol\":9467:9478  uint8 i = 0 */\n      swap1\n      pop\n        /* \"contracts/hangman.sol\":9462:9838  for (uint8 i = 0; i < games.length; i++) {... */\n    tag_274:\n        /* \"contracts/hangman.sol\":9484:9496  games.length */\n      0x05\n        /* \"contracts/hangman.sol\":9480:9481  i */\n      dup2\n        /* \"contracts/hangman.sol\":9480:9496  i < games.length */\n      0xff\n      and\n      lt\n        /* \"contracts/hangman.sol\":9462:9838  for (uint8 i = 0; i < games.length; i++) {... */\n      iszero\n      tag_275\n      jumpi\n        /* \"contracts/hangman.sol\":9517:9534  Game storage game */\n      0x00\n        /* \"contracts/hangman.sol\":9537:9542  games */\n      0x01\n        /* \"contracts/hangman.sol\":9543:9544  i */\n      dup3\n        /* \"contracts/hangman.sol\":9537:9545  games[i] */\n      0xff\n      and\n      0x05\n      dup2\n      lt\n      tag_277\n      jumpi\n      tag_278\n      tag_173\n      jump\t// in\n    tag_278:\n    tag_277:\n      0x12\n      mul\n      add\n        /* \"contracts/hangman.sol\":9517:9545  Game storage game = games[i] */\n      swap1\n      pop\n        /* \"contracts/hangman.sol\":9564:9568  game */\n      dup1\n        /* \"contracts/hangman.sol\":9564:9577  game.isActive */\n      0x01\n      add\n      0x01\n      swap1\n      sload\n      swap1\n      0x0100\n      exp\n      swap1\n      div\n      0xff\n      and\n        /* \"contracts/hangman.sol\":9559:9587  if (!game.isActive) return i */\n      tag_280\n      jumpi\n        /* \"contracts/hangman.sol\":9586:9587  i */\n      dup2\n        /* \"contracts/hangman.sol\":9579:9587  return i */\n      swap3\n      pop\n      pop\n      pop\n      jump(tag_273)\n        /* \"contracts/hangman.sol\":9559:9587  if (!game.isActive) return i */\n    tag_280:\n        /* \"contracts/hangman.sol\":376:386  15 minutes */\n      0x0384\n        /* \"contracts/hangman.sol\":9684:9688  game */\n      dup2\n        /* \"contracts/hangman.sol\":9684:9708  game.lastActionTimestamp */\n      0x07\n      add\n      sload\n        /* \"contracts/hangman.sol\":9666:9681  block.timestamp */\n      timestamp\n        /* \"contracts/hangman.sol\":9666:9708  block.timestamp - game.lastActionTimestamp */\n      tag_281\n      swap2\n      swap1\n      tag_99\n      jump\t// in\n    tag_281:\n        /* \"contracts/hangman.sol\":9666:9731  block.timestamp - game.lastActionTimestamp > INACTIVITY_THRESHOLD */\n      gt\n        /* \"contracts/hangman.sol\":9662:9828  if (block.timestamp - game.lastActionTimestamp > INACTIVITY_THRESHOLD) {... */\n      iszero\n      tag_282\n      jumpi\n        /* \"contracts/hangman.sol\":9751:9787  _endGame(game, GameResult.CANCELLED) */\n      tag_283\n        /* \"contracts/hangman.sol\":9760:9764  game */\n      dup2\n        /* \"contracts/hangman.sol\":9766:9786  GameResult.CANCELLED */\n      0x02\n        /* \"contracts/hangman.sol\":9751:9759  _endGame */\n      tag_131\n        /* \"contracts/hangman.sol\":9751:9787  _endGame(game, GameResult.CANCELLED) */\n      jump\t// in\n    tag_283:\n        /* \"contracts/hangman.sol\":9812:9813  i */\n      dup2\n        /* \"contracts/hangman.sol\":9805:9813  return i */\n      swap3\n      pop\n      pop\n      pop\n      jump(tag_273)\n        /* \"contracts/hangman.sol\":9662:9828  if (block.timestamp - game.lastActionTimestamp > INACTIVITY_THRESHOLD) {... */\n    tag_282:\n        /* \"contracts/hangman.sol\":9503:9838  {... */\n      pop\n        /* \"contracts/hangman.sol\":9498:9501  i++ */\n      dup1\n      dup1\n      tag_284\n      swap1\n      tag_285\n      jump\t// in\n    tag_284:\n      swap2\n      pop\n      pop\n        /* \"contracts/hangman.sol\":9462:9838  for (uint8 i = 0; i < games.length; i++) {... */\n      jump(tag_274)\n    tag_275:\n      pop\n        /* \"contracts/hangman.sol\":279:280  5 */\n      0x05\n        /* \"contracts/hangman.sol\":9847:9863  return MAX_GAMES */\n      swap1\n      pop\n        /* \"contracts/hangman.sol\":9403:9870  function _allocateGame() private returns (uint8) {... */\n    tag_273:\n      swap1\n      jump\t// out\n        /* \"contracts/hangman.sol\":12604:12752  function _addPlayerToGame(Game storage game, address player) private {... */\n    tag_196:\n        /* \"contracts/hangman.sol\":12707:12711  true */\n      0x01\n        /* \"contracts/hangman.sol\":12683:12687  game */\n      dup3\n        /* \"contracts/hangman.sol\":12683:12696  game.isPlayer */\n      0x02\n      add\n        /* \"contracts/hangman.sol\":12683:12704  game.isPlayer[player] */\n      0x00\n        /* \"contracts/hangman.sol\":12697:12703  player */\n      dup4\n        /* \"contracts/hangman.sol\":12683:12704  game.isPlayer[player] */\n      0xffffffffffffffffffffffffffffffffffffffff\n      and\n      0xffffffffffffffffffffffffffffffffffffffff\n      and\n      dup2\n      mstore\n      0x20\n      add\n      swap1\n      dup2\n      mstore\n      0x20\n      add\n      0x00\n      keccak256\n      0x00\n        /* \"contracts/hangman.sol\":12683:12711  game.isPlayer[player] = true */\n      0x0100\n      exp\n      dup2\n      sload\n      dup2\n      0xff\n      mul\n      not\n      and\n      swap1\n      dup4\n      iszero\n      iszero\n      mul\n      or\n      swap1\n      sstore\n      pop\n        /* \"contracts/hangman.sol\":12744:12745  1 */\n      0x01\n        /* \"contracts/hangman.sol\":12721:12725  game */\n      dup3\n        /* \"contracts/hangman.sol\":12721:12740  game.currentPlayers */\n      0x01\n      add\n      0x17\n        /* \"contracts/hangman.sol\":12721:12745  game.currentPlayers += 1 */\n      dup3\n      dup3\n      dup3\n      swap1\n      sload\n      swap1\n      0x0100\n      exp\n      swap1\n      div\n      0xff\n      and\n      tag_287\n      swap2\n      swap1\n      tag_202\n      jump\t// in\n    tag_287:\n      swap3\n      pop\n      0x0100\n      exp\n      dup2\n      sload\n      dup2\n      0xff\n      mul\n      not\n      and\n      swap1\n      dup4\n      0xff\n      and\n      mul\n      or\n      swap1\n      sstore\n      pop\n        /* \"contracts/hangman.sol\":12604:12752  function _addPlayerToGame(Game storage game, address player) private {... */\n      pop\n      pop\n      jump\t// out\n        /* \"contracts/hangman.sol\":10562:11283  function _unregisterVote(string storage gameID, Vote storage vote, address player) private {... */\n    tag_257:\n        /* \"contracts/hangman.sol\":10663:10676  bytes1 letter */\n      0x00\n        /* \"contracts/hangman.sol\":10679:10683  vote */\n      dup3\n        /* \"contracts/hangman.sol\":10679:10695  vote.playerVotes */\n      0x08\n      add\n        /* \"contracts/hangman.sol\":10679:10703  vote.playerVotes[player] */\n      0x00\n        /* \"contracts/hangman.sol\":10696:10702  player */\n      dup4\n        /* \"contracts/hangman.sol\":10679:10703  vote.playerVotes[player] */\n      0xffffffffffffffffffffffffffffffffffffffff\n      and\n      0xffffffffffffffffffffffffffffffffffffffff\n      and\n      dup2\n      mstore\n      0x20\n      add\n      swap1\n      dup2\n      mstore\n      0x20\n      add\n      0x00\n      keccak256\n      0x00\n      swap1\n      sload\n      swap1\n      0x0100\n      exp\n      swap1\n      div\n      0xf8\n      shl\n        /* \"contracts/hangman.sol\":10663:10703  bytes1 letter = vote.playerVotes[player] */\n      swap1\n      pop\n        /* \"contracts/hangman.sol\":10740:10741  0 */\n      0x00\n        /* \"contracts/hangman.sol\":10713:10741  vote.playerVotes[player] = 0 */\n      0xf8\n      shl\n        /* \"contracts/hangman.sol\":10713:10717  vote */\n      dup4\n        /* \"contracts/hangman.sol\":10713:10729  vote.playerVotes */\n      0x08\n      add\n        /* \"contracts/hangman.sol\":10713:10737  vote.playerVotes[player] */\n      0x00\n        /* \"contracts/hangman.sol\":10730:10736  player */\n      dup5\n        /* \"contracts/hangman.sol\":10713:10737  vote.playerVotes[player] */\n      0xffffffffffffffffffffffffffffffffffffffff\n      and\n      0xffffffffffffffffffffffffffffffffffffffff\n      and\n      dup2\n      mstore\n      0x20\n      add\n      swap1\n      dup2\n      mstore\n      0x20\n      add\n      0x00\n      keccak256\n      0x00\n        /* \"contracts/hangman.sol\":10713:10741  vote.playerVotes[player] = 0 */\n      0x0100\n      exp\n      dup2\n      sload\n      dup2\n      0xff\n      mul\n      not\n      and\n      swap1\n      dup4\n      0xf8\n      shr\n      mul\n      or\n      swap1\n      sstore\n      pop\n        /* \"contracts/hangman.sol\":10751:10760  bool move */\n      0x00\n        /* \"contracts/hangman.sol\":10783:10789  uint i */\n      dup1\n        /* \"contracts/hangman.sol\":10778:11193  for (uint i = 0; i < vote.voteCount; i++) {... */\n    tag_289:\n        /* \"contracts/hangman.sol\":10799:10803  vote */\n      dup5\n        /* \"contracts/hangman.sol\":10799:10813  vote.voteCount */\n      0x02\n      add\n      0x00\n      swap1\n      sload\n      swap1\n      0x0100\n      exp\n      swap1\n      div\n      0xff\n      and\n        /* \"contracts/hangman.sol\":10795:10813  i < vote.voteCount */\n      0xff\n      and\n        /* \"contracts/hangman.sol\":10795:10796  i */\n      dup2\n        /* \"contracts/hangman.sol\":10795:10813  i < vote.voteCount */\n      lt\n        /* \"contracts/hangman.sol\":10778:11193  for (uint i = 0; i < vote.voteCount; i++) {... */\n      iszero\n      tag_290\n      jumpi\n        /* \"contracts/hangman.sol\":10862:10868  player */\n      dup4\n        /* \"contracts/hangman.sol\":10838:10868  vote.playersVoted[i] == player */\n      0xffffffffffffffffffffffffffffffffffffffff\n      and\n        /* \"contracts/hangman.sol\":10838:10842  vote */\n      dup6\n        /* \"contracts/hangman.sol\":10838:10855  vote.playersVoted */\n      0x03\n      add\n        /* \"contracts/hangman.sol\":10856:10857  i */\n      dup3\n        /* \"contracts/hangman.sol\":10838:10858  vote.playersVoted[i] */\n      0x05\n      dup2\n      lt\n      tag_292\n      jumpi\n      tag_293\n      tag_173\n      jump\t// in\n    tag_293:\n    tag_292:\n      add\n      0x00\n      swap1\n      sload\n      swap1\n      0x0100\n      exp\n      swap1\n      div\n      0xffffffffffffffffffffffffffffffffffffffff\n      and\n        /* \"contracts/hangman.sol\":10838:10868  vote.playersVoted[i] == player */\n      0xffffffffffffffffffffffffffffffffffffffff\n      and\n      sub\n        /* \"contracts/hangman.sol\":10834:11183  if (vote.playersVoted[i] == player) {... */\n      tag_295\n      jumpi\n        /* \"contracts/hangman.sol\":10919:10920  0 */\n      0x00\n        /* \"contracts/hangman.sol\":10888:10892  vote */\n      dup6\n        /* \"contracts/hangman.sol\":10888:10905  vote.playersVoted */\n      0x03\n      add\n        /* \"contracts/hangman.sol\":10906:10907  i */\n      dup3\n        /* \"contracts/hangman.sol\":10888:10908  vote.playersVoted[i] */\n      0x05\n      dup2\n      lt\n      tag_296\n      jumpi\n      tag_297\n      tag_173\n      jump\t// in\n    tag_297:\n    tag_296:\n      add\n      0x00\n        /* \"contracts/hangman.sol\":10888:10921  vote.playersVoted[i] = address(0) */\n      0x0100\n      exp\n      dup2\n      sload\n      dup2\n      0xffffffffffffffffffffffffffffffffffffffff\n      mul\n      not\n      and\n      swap1\n      dup4\n      0xffffffffffffffffffffffffffffffffffffffff\n      and\n      mul\n      or\n      swap1\n      sstore\n      pop\n        /* \"contracts/hangman.sol\":10946:10950  true */\n      0x01\n        /* \"contracts/hangman.sol\":10939:10950  move = true */\n      swap2\n      pop\n        /* \"contracts/hangman.sol\":10968:10976  continue */\n      jump(tag_291)\n        /* \"contracts/hangman.sol\":10834:11183  if (vote.playersVoted[i] == player) {... */\n    tag_295:\n        /* \"contracts/hangman.sol\":11001:11005  move */\n      dup2\n        /* \"contracts/hangman.sol\":10997:11183  if (move) {... */\n      iszero\n      tag_300\n      jumpi\n        /* \"contracts/hangman.sol\":11025:11036  address tmp */\n      0x00\n        /* \"contracts/hangman.sol\":11039:11043  vote */\n      dup6\n        /* \"contracts/hangman.sol\":11039:11056  vote.playersVoted */\n      0x03\n      add\n        /* \"contracts/hangman.sol\":11059:11060  1 */\n      0x01\n        /* \"contracts/hangman.sol\":11057:11058  i */\n      dup4\n        /* \"contracts/hangman.sol\":11057:11060  i-1 */\n      tag_301\n      swap2\n      swap1\n      tag_99\n      jump\t// in\n    tag_301:\n        /* \"contracts/hangman.sol\":11039:11061  vote.playersVoted[i-1] */\n      0x05\n      dup2\n      lt\n      tag_302\n      jumpi\n      tag_303\n      tag_173\n      jump\t// in\n    tag_303:\n    tag_302:\n      add\n      0x00\n      swap1\n      sload\n      swap1\n      0x0100\n      exp\n      swap1\n      div\n      0xffffffffffffffffffffffffffffffffffffffff\n      and\n        /* \"contracts/hangman.sol\":11025:11061  address tmp = vote.playersVoted[i-1] */\n      swap1\n      pop\n        /* \"contracts/hangman.sol\":11104:11108  vote */\n      dup6\n        /* \"contracts/hangman.sol\":11104:11121  vote.playersVoted */\n      0x03\n      add\n        /* \"contracts/hangman.sol\":11122:11123  i */\n      dup3\n        /* \"contracts/hangman.sol\":11104:11124  vote.playersVoted[i] */\n      0x05\n      dup2\n      lt\n      tag_305\n      jumpi\n      tag_306\n      tag_173\n      jump\t// in\n    tag_306:\n    tag_305:\n      add\n      0x00\n      swap1\n      sload\n      swap1\n      0x0100\n      exp\n      swap1\n      div\n      0xffffffffffffffffffffffffffffffffffffffff\n      and\n        /* \"contracts/hangman.sol\":11079:11083  vote */\n      dup7\n        /* \"contracts/hangman.sol\":11079:11096  vote.playersVoted */\n      0x03\n      add\n        /* \"contracts/hangman.sol\":11099:11100  1 */\n      0x01\n        /* \"contracts/hangman.sol\":11097:11098  i */\n      dup5\n        /* \"contracts/hangman.sol\":11097:11100  i-1 */\n      tag_308\n      swap2\n      swap1\n      tag_99\n      jump\t// in\n    tag_308:\n        /* \"contracts/hangman.sol\":11079:11101  vote.playersVoted[i-1] */\n      0x05\n      dup2\n      lt\n      tag_309\n      jumpi\n      tag_310\n      tag_173\n      jump\t// in\n    tag_310:\n    tag_309:\n      add\n      0x00\n        /* \"contracts/hangman.sol\":11079:11124  vote.playersVoted[i-1] = vote.playersVoted[i] */\n      0x0100\n      exp\n      dup2\n      sload\n      dup2\n      0xffffffffffffffffffffffffffffffffffffffff\n      mul\n      not\n      and\n      swap1\n      dup4\n      0xffffffffffffffffffffffffffffffffffffffff\n      and\n      mul\n      or\n      swap1\n      sstore\n      pop\n        /* \"contracts/hangman.sol\":11165:11168  tmp */\n      dup1\n        /* \"contracts/hangman.sol\":11142:11146  vote */\n      dup7\n        /* \"contracts/hangman.sol\":11142:11159  vote.playersVoted */\n      0x03\n      add\n        /* \"contracts/hangman.sol\":11160:11161  i */\n      dup4\n        /* \"contracts/hangman.sol\":11142:11162  vote.playersVoted[i] */\n      0x05\n      dup2\n      lt\n      tag_312\n      jumpi\n      tag_313\n      tag_173\n      jump\t// in\n    tag_313:\n    tag_312:\n      add\n      0x00\n        /* \"contracts/hangman.sol\":11142:11168  vote.playersVoted[i] = tmp */\n      0x0100\n      exp\n      dup2\n      sload\n      dup2\n      0xffffffffffffffffffffffffffffffffffffffff\n      mul\n      not\n      and\n      swap1\n      dup4\n      0xffffffffffffffffffffffffffffffffffffffff\n      and\n      mul\n      or\n      swap1\n      sstore\n      pop\n        /* \"contracts/hangman.sol\":11007:11183  {... */\n      pop\n        /* \"contracts/hangman.sol\":10997:11183  if (move) {... */\n    tag_300:\n        /* \"contracts/hangman.sol\":10778:11193  for (uint i = 0; i < vote.voteCount; i++) {... */\n    tag_291:\n        /* \"contracts/hangman.sol\":10815:10818  i++ */\n      dup1\n      dup1\n      0x01\n      add\n      swap2\n      pop\n      pop\n        /* \"contracts/hangman.sol\":10778:11193  for (uint i = 0; i < vote.voteCount; i++) {... */\n      jump(tag_289)\n    tag_290:\n      pop\n        /* \"contracts/hangman.sol\":11220:11221  1 */\n      0x01\n        /* \"contracts/hangman.sol\":11202:11206  vote */\n      dup5\n        /* \"contracts/hangman.sol\":11202:11216  vote.voteCount */\n      0x02\n      add\n      0x00\n        /* \"contracts/hangman.sol\":11202:11221  vote.voteCount -= 1 */\n      dup3\n      dup3\n      dup3\n      swap1\n      sload\n      swap1\n      0x0100\n      exp\n      swap1\n      div\n      0xff\n      and\n      tag_315\n      swap2\n      swap1\n      tag_92\n      jump\t// in\n    tag_315:\n      swap3\n      pop\n      0x0100\n      exp\n      dup2\n      sload\n      dup2\n      0xff\n      mul\n      not\n      and\n      swap1\n      dup4\n      0xff\n      and\n      mul\n      or\n      swap1\n      sstore\n      pop\n        /* \"contracts/hangman.sol\":11261:11267  player */\n      dup3\n        /* \"contracts/hangman.sol\":11236:11276  VoteUnregistered(gameID, player, letter) */\n      0xffffffffffffffffffffffffffffffffffffffff\n      and\n      0xe11e7b01cdd17c8c7ab41ed7897874e6a229485a77cc445646517fdac64e75bc\n        /* \"contracts/hangman.sol\":11253:11259  gameID */\n      dup7\n        /* \"contracts/hangman.sol\":11269:11275  letter */\n      dup5\n        /* \"contracts/hangman.sol\":11236:11276  VoteUnregistered(gameID, player, letter) */\n      mload(0x40)\n      tag_316\n      swap3\n      swap2\n      swap1\n      tag_208\n      jump\t// in\n    tag_316:\n      mload(0x40)\n      dup1\n      swap2\n      sub\n      swap1\n      log2\n        /* \"contracts/hangman.sol\":10653:11283  {... */\n      pop\n      pop\n        /* \"contracts/hangman.sol\":10562:11283  function _unregisterVote(string storage gameID, Vote storage vote, address player) private {... */\n      pop\n      pop\n      pop\n      jump\t// out\n    tag_192:\n      dup3\n      dup1\n      sload\n      dup3\n      dup3\n      sstore\n      swap1\n      0x00\n      mstore\n      keccak256(0x00, 0x20)\n      swap1\n      0x1f\n      add\n      0x20\n      swap1\n      div\n      dup2\n      add\n      swap3\n      dup3\n      iszero\n      tag_317\n      jumpi\n      swap2\n      0x20\n      mul\n      dup3\n      add\n      0x00\n    tag_318:\n      dup4\n      dup3\n      gt\n      iszero\n      tag_319\n      jumpi\n      dup4\n      mload\n      dup4\n      dup3\n      0x0100\n      exp\n      dup2\n      sload\n      dup2\n      0xff\n      mul\n      not\n      and\n      swap1\n      dup4\n      iszero\n      iszero\n      mul\n      or\n      swap1\n      sstore\n      pop\n      swap3\n      0x20\n      add\n      swap3\n      0x01\n      add\n      0x20\n      dup2\n      0x00\n      add\n      div\n      swap3\n      dup4\n      add\n      swap3\n      0x01\n      sub\n      mul\n      jump(tag_318)\n    tag_319:\n      dup1\n      iszero\n      tag_320\n      jumpi\n      dup3\n      dup2\n      0x0100\n      exp\n      dup2\n      sload\n      swap1\n      0xff\n      mul\n      not\n      and\n      swap1\n      sstore\n      0x01\n      add\n      0x20\n      dup2\n      0x00\n      add\n      div\n      swap3\n      dup4\n      add\n      swap3\n      0x01\n      sub\n      mul\n      jump(tag_319)\n    tag_320:\n      pop\n    tag_317:\n      pop\n      swap1\n      pop\n      tag_321\n      swap2\n      swap1\n      tag_322\n      jump\t// in\n    tag_321:\n      pop\n      swap1\n      jump\t// out\n    tag_239:\n      pop\n      0x00\n      dup2\n      sstore\n      0x01\n      add\n      0x00\n      dup2\n      sstore\n      0x01\n      add\n      0x00\n      dup2\n      sstore\n      0x01\n      add\n      0x00\n      dup2\n      sstore\n      0x01\n      add\n      0x00\n      swap1\n      sstore\n      jump\t// out\n    tag_268:\n      pop\n      dup1\n      sload\n      tag_323\n      swap1\n      tag_63\n      jump\t// in\n    tag_323:\n      0x00\n      dup3\n      sstore\n      dup1\n      0x1f\n      lt\n      tag_325\n      jumpi\n      pop\n      jump(tag_324)\n    tag_325:\n      0x1f\n      add\n      0x20\n      swap1\n      div\n      swap1\n      0x00\n      mstore\n      keccak256(0x00, 0x20)\n      swap1\n      dup2\n      add\n      swap1\n      tag_326\n      swap2\n      swap1\n      tag_322\n      jump\t// in\n    tag_326:\n    tag_324:\n      pop\n      jump\t// out\n    tag_271:\n      pop\n      dup1\n      sload\n      0x00\n      dup3\n      sstore\n      0x1f\n      add\n      0x20\n      swap1\n      div\n      swap1\n      0x00\n      mstore\n      keccak256(0x00, 0x20)\n      swap1\n      dup2\n      add\n      swap1\n      tag_328\n      swap2\n      swap1\n      tag_322\n      jump\t// in\n    tag_328:\n      pop\n      jump\t// out\n    tag_322:\n    tag_329:\n      dup1\n      dup3\n      gt\n      iszero\n      tag_330\n      jumpi\n      0x00\n      dup2\n      0x00\n      swap1\n      sstore\n      pop\n      0x01\n      add\n      jump(tag_329)\n    tag_330:\n      pop\n      swap1\n      jump\t// out\n        /* \"#utility.yul\":7:82   */\n    tag_331:\n        /* \"#utility.yul\":40:46   */\n      0x00\n        /* \"#utility.yul\":73:75   */\n      0x40\n        /* \"#utility.yul\":67:76   */\n      mload\n        /* \"#utility.yul\":57:76   */\n      swap1\n      pop\n        /* \"#utility.yul\":7:82   */\n      swap1\n      jump\t// out\n        /* \"#utility.yul\":88:205   */\n    tag_332:\n        /* \"#utility.yul\":197:198   */\n      0x00\n        /* \"#utility.yul\":194:195   */\n      dup1\n        /* \"#utility.yul\":187:199   */\n      revert\n        /* \"#utility.yul\":211:328   */\n    tag_333:\n        /* \"#utility.yul\":320:321   */\n      0x00\n        /* \"#utility.yul\":317:318   */\n      dup1\n        /* \"#utility.yul\":310:322   */\n      revert\n        /* \"#utility.yul\":334:411   */\n    tag_334:\n        /* \"#utility.yul\":371:378   */\n      0x00\n        /* \"#utility.yul\":400:405   */\n      dup2\n        /* \"#utility.yul\":389:405   */\n      swap1\n      pop\n        /* \"#utility.yul\":334:411   */\n      swap2\n      swap1\n      pop\n      jump\t// out\n        /* \"#utility.yul\":417:539   */\n    tag_335:\n        /* \"#utility.yul\":490:514   */\n      tag_432\n        /* \"#utility.yul\":508:513   */\n      dup2\n        /* \"#utility.yul\":490:514   */\n      tag_334\n      jump\t// in\n    tag_432:\n        /* \"#utility.yul\":483:488   */\n      dup2\n        /* \"#utility.yul\":480:515   */\n      eq\n        /* \"#utility.yul\":470:533   */\n      tag_433\n      jumpi\n        /* \"#utility.yul\":529:530   */\n      0x00\n        /* \"#utility.yul\":526:527   */\n      dup1\n        /* \"#utility.yul\":519:531   */\n      revert\n        /* \"#utility.yul\":470:533   */\n    tag_433:\n        /* \"#utility.yul\":417:539   */\n      pop\n      jump\t// out\n        /* \"#utility.yul\":545:684   */\n    tag_336:\n        /* \"#utility.yul\":591:596   */\n      0x00\n        /* \"#utility.yul\":629:635   */\n      dup2\n        /* \"#utility.yul\":616:636   */\n      calldataload\n        /* \"#utility.yul\":607:636   */\n      swap1\n      pop\n        /* \"#utility.yul\":645:678   */\n      tag_435\n        /* \"#utility.yul\":672:677   */\n      dup2\n        /* \"#utility.yul\":645:678   */\n      tag_335\n      jump\t// in\n    tag_435:\n        /* \"#utility.yul\":545:684   */\n      swap3\n      swap2\n      pop\n      pop\n      jump\t// out\n        /* \"#utility.yul\":690:1019   */\n    tag_18:\n        /* \"#utility.yul\":749:755   */\n      0x00\n        /* \"#utility.yul\":798:800   */\n      0x20\n        /* \"#utility.yul\":786:795   */\n      dup3\n        /* \"#utility.yul\":777:784   */\n      dup5\n        /* \"#utility.yul\":773:796   */\n      sub\n        /* \"#utility.yul\":769:801   */\n      slt\n        /* \"#utility.yul\":766:885   */\n      iszero\n      tag_437\n      jumpi\n        /* \"#utility.yul\":804:883   */\n      tag_438\n      tag_332\n      jump\t// in\n    tag_438:\n        /* \"#utility.yul\":766:885   */\n    tag_437:\n        /* \"#utility.yul\":924:925   */\n      0x00\n        /* \"#utility.yul\":949:1002   */\n      tag_439\n        /* \"#utility.yul\":994:1001   */\n      dup5\n        /* \"#utility.yul\":985:991   */\n      dup3\n        /* \"#utility.yul\":974:983   */\n      dup6\n        /* \"#utility.yul\":970:992   */\n      add\n        /* \"#utility.yul\":949:1002   */\n      tag_336\n      jump\t// in\n    tag_439:\n        /* \"#utility.yul\":939:1002   */\n      swap2\n      pop\n        /* \"#utility.yul\":895:1012   */\n      pop\n        /* \"#utility.yul\":690:1019   */\n      swap3\n      swap2\n      pop\n      pop\n      jump\t// out\n        /* \"#utility.yul\":1025:1124   */\n    tag_337:\n        /* \"#utility.yul\":1077:1083   */\n      0x00\n        /* \"#utility.yul\":1111:1116   */\n      dup2\n        /* \"#utility.yul\":1105:1117   */\n      mload\n        /* \"#utility.yul\":1095:1117   */\n      swap1\n      pop\n        /* \"#utility.yul\":1025:1124   */\n      swap2\n      swap1\n      pop\n      jump\t// out\n        /* \"#utility.yul\":1130:1299   */\n    tag_338:\n        /* \"#utility.yul\":1214:1225   */\n      0x00\n        /* \"#utility.yul\":1248:1254   */\n      dup3\n        /* \"#utility.yul\":1243:1246   */\n      dup3\n        /* \"#utility.yul\":1236:1255   */\n      mstore\n        /* \"#utility.yul\":1288:1292   */\n      0x20\n        /* \"#utility.yul\":1283:1286   */\n      dup3\n        /* \"#utility.yul\":1279:1293   */\n      add\n        /* \"#utility.yul\":1264:1293   */\n      swap1\n      pop\n        /* \"#utility.yul\":1130:1299   */\n      swap3\n      swap2\n      pop\n      pop\n      jump\t// out\n        /* \"#utility.yul\":1305:1444   */\n    tag_339:\n        /* \"#utility.yul\":1394:1400   */\n      dup3\n        /* \"#utility.yul\":1389:1392   */\n      dup2\n        /* \"#utility.yul\":1384:1387   */\n      dup4\n        /* \"#utility.yul\":1378:1401   */\n      mcopy\n        /* \"#utility.yul\":1435:1436   */\n      0x00\n        /* \"#utility.yul\":1426:1432   */\n      dup4\n        /* \"#utility.yul\":1421:1424   */\n      dup4\n        /* \"#utility.yul\":1417:1433   */\n      add\n        /* \"#utility.yul\":1410:1437   */\n      mstore\n        /* \"#utility.yul\":1305:1444   */\n      pop\n      pop\n      pop\n      jump\t// out\n        /* \"#utility.yul\":1450:1552   */\n    tag_340:\n        /* \"#utility.yul\":1491:1497   */\n      0x00\n        /* \"#utility.yul\":1542:1544   */\n      0x1f\n        /* \"#utility.yul\":1538:1545   */\n      not\n        /* \"#utility.yul\":1533:1535   */\n      0x1f\n        /* \"#utility.yul\":1526:1531   */\n      dup4\n        /* \"#utility.yul\":1522:1536   */\n      add\n        /* \"#utility.yul\":1518:1546   */\n      and\n        /* \"#utility.yul\":1508:1546   */\n      swap1\n      pop\n        /* \"#utility.yul\":1450:1552   */\n      swap2\n      swap1\n      pop\n      jump\t// out\n        /* \"#utility.yul\":1558:1935   */\n    tag_341:\n        /* \"#utility.yul\":1646:1649   */\n      0x00\n        /* \"#utility.yul\":1674:1713   */\n      tag_445\n        /* \"#utility.yul\":1707:1712   */\n      dup3\n        /* \"#utility.yul\":1674:1713   */\n      tag_337\n      jump\t// in\n    tag_445:\n        /* \"#utility.yul\":1729:1800   */\n      tag_446\n        /* \"#utility.yul\":1793:1799   */\n      dup2\n        /* \"#utility.yul\":1788:1791   */\n      dup6\n        /* \"#utility.yul\":1729:1800   */\n      tag_338\n      jump\t// in\n    tag_446:\n        /* \"#utility.yul\":1722:1800   */\n      swap4\n      pop\n        /* \"#utility.yul\":1809:1874   */\n      tag_447\n        /* \"#utility.yul\":1867:1873   */\n      dup2\n        /* \"#utility.yul\":1862:1865   */\n      dup6\n        /* \"#utility.yul\":1855:1859   */\n      0x20\n        /* \"#utility.yul\":1848:1853   */\n      dup7\n        /* \"#utility.yul\":1844:1860   */\n      add\n        /* \"#utility.yul\":1809:1874   */\n      tag_339\n      jump\t// in\n    tag_447:\n        /* \"#utility.yul\":1899:1928   */\n      tag_448\n        /* \"#utility.yul\":1921:1927   */\n      dup2\n        /* \"#utility.yul\":1899:1928   */\n      tag_340\n      jump\t// in\n    tag_448:\n        /* \"#utility.yul\":1894:1897   */\n      dup5\n        /* \"#utility.yul\":1890:1929   */\n      add\n        /* \"#utility.yul\":1883:1929   */\n      swap2\n      pop\n        /* \"#utility.yul\":1650:1935   */\n      pop\n        /* \"#utility.yul\":1558:1935   */\n      swap3\n      swap2\n      pop\n      pop\n      jump\t// out\n        /* \"#utility.yul\":1941:2254   */\n    tag_21:\n        /* \"#utility.yul\":2054:2058   */\n      0x00\n        /* \"#utility.yul\":2092:2094   */\n      0x20\n        /* \"#utility.yul\":2081:2090   */\n      dup3\n        /* \"#utility.yul\":2077:2095   */\n      add\n        /* \"#utility.yul\":2069:2095   */\n      swap1\n      pop\n        /* \"#utility.yul\":2141:2150   */\n      dup2\n        /* \"#utility.yul\":2135:2139   */\n      dup2\n        /* \"#utility.yul\":2131:2151   */\n      sub\n        /* \"#utility.yul\":2127:2128   */\n      0x00\n        /* \"#utility.yul\":2116:2125   */\n      dup4\n        /* \"#utility.yul\":2112:2129   */\n      add\n        /* \"#utility.yul\":2105:2152   */\n      mstore\n        /* \"#utility.yul\":2169:2247   */\n      tag_450\n        /* \"#utility.yul\":2242:2246   */\n      dup2\n        /* \"#utility.yul\":2233:2239   */\n      dup5\n        /* \"#utility.yul\":2169:2247   */\n      tag_341\n      jump\t// in\n    tag_450:\n        /* \"#utility.yul\":2161:2247   */\n      swap1\n      pop\n        /* \"#utility.yul\":1941:2254   */\n      swap3\n      swap2\n      pop\n      pop\n      jump\t// out\n        /* \"#utility.yul\":2260:2377   */\n    tag_342:\n        /* \"#utility.yul\":2369:2370   */\n      0x00\n        /* \"#utility.yul\":2366:2367   */\n      dup1\n        /* \"#utility.yul\":2359:2371   */\n      revert\n        /* \"#utility.yul\":2383:2500   */\n    tag_343:\n        /* \"#utility.yul\":2492:2493   */\n      0x00\n        /* \"#utility.yul\":2489:2490   */\n      dup1\n        /* \"#utility.yul\":2482:2494   */\n      revert\n        /* \"#utility.yul\":2506:2686   */\n    tag_189:\n        /* \"#utility.yul\":2554:2631   */\n      0x4e487b7100000000000000000000000000000000000000000000000000000000\n        /* \"#utility.yul\":2551:2552   */\n      0x00\n        /* \"#utility.yul\":2544:2632   */\n      mstore\n        /* \"#utility.yul\":2651:2655   */\n      0x41\n        /* \"#utility.yul\":2648:2649   */\n      0x04\n        /* \"#utility.yul\":2641:2656   */\n      mstore\n        /* \"#utility.yul\":2675:2679   */\n      0x24\n        /* \"#utility.yul\":2672:2673   */\n      0x00\n        /* \"#utility.yul\":2665:2680   */\n      revert\n        /* \"#utility.yul\":2692:2973   */\n    tag_344:\n        /* \"#utility.yul\":2775:2802   */\n      tag_455\n        /* \"#utility.yul\":2797:2801   */\n      dup3\n        /* \"#utility.yul\":2775:2802   */\n      tag_340\n      jump\t// in\n    tag_455:\n        /* \"#utility.yul\":2767:2773   */\n      dup2\n        /* \"#utility.yul\":2763:2803   */\n      add\n        /* \"#utility.yul\":2905:2911   */\n      dup2\n        /* \"#utility.yul\":2893:2903   */\n      dup2\n        /* \"#utility.yul\":2890:2912   */\n      lt\n        /* \"#utility.yul\":2869:2887   */\n      0xffffffffffffffff\n        /* \"#utility.yul\":2857:2867   */\n      dup3\n        /* \"#utility.yul\":2854:2888   */\n      gt\n        /* \"#utility.yul\":2851:2913   */\n      or\n        /* \"#utility.yul\":2848:2936   */\n      iszero\n      tag_456\n      jumpi\n        /* \"#utility.yul\":2916:2934   */\n      tag_457\n      tag_189\n      jump\t// in\n    tag_457:\n        /* \"#utility.yul\":2848:2936   */\n    tag_456:\n        /* \"#utility.yul\":2956:2966   */\n      dup1\n        /* \"#utility.yul\":2952:2954   */\n      0x40\n        /* \"#utility.yul\":2945:2967   */\n      mstore\n        /* \"#utility.yul\":2735:2973   */\n      pop\n        /* \"#utility.yul\":2692:2973   */\n      pop\n      pop\n      jump\t// out\n        /* \"#utility.yul\":2979:3108   */\n    tag_345:\n        /* \"#utility.yul\":3013:3019   */\n      0x00\n        /* \"#utility.yul\":3040:3060   */\n      tag_459\n      tag_331\n      jump\t// in\n    tag_459:\n        /* \"#utility.yul\":3030:3060   */\n      swap1\n      pop\n        /* \"#utility.yul\":3069:3102   */\n      tag_460\n        /* \"#utility.yul\":3097:3101   */\n      dup3\n        /* \"#utility.yul\":3089:3095   */\n      dup3\n        /* \"#utility.yul\":3069:3102   */\n      tag_344\n      jump\t// in\n    tag_460:\n        /* \"#utility.yul\":2979:3108   */\n      swap2\n      swap1\n      pop\n      jump\t// out\n        /* \"#utility.yul\":3114:3422   */\n    tag_346:\n        /* \"#utility.yul\":3176:3180   */\n      0x00\n        /* \"#utility.yul\":3266:3284   */\n      0xffffffffffffffff\n        /* \"#utility.yul\":3258:3264   */\n      dup3\n        /* \"#utility.yul\":3255:3285   */\n      gt\n        /* \"#utility.yul\":3252:3308   */\n      iszero\n      tag_462\n      jumpi\n        /* \"#utility.yul\":3288:3306   */\n      tag_463\n      tag_189\n      jump\t// in\n    tag_463:\n        /* \"#utility.yul\":3252:3308   */\n    tag_462:\n        /* \"#utility.yul\":3326:3355   */\n      tag_464\n        /* \"#utility.yul\":3348:3354   */\n      dup3\n        /* \"#utility.yul\":3326:3355   */\n      tag_340\n      jump\t// in\n    tag_464:\n        /* \"#utility.yul\":3318:3355   */\n      swap1\n      pop\n        /* \"#utility.yul\":3410:3414   */\n      0x20\n        /* \"#utility.yul\":3404:3408   */\n      dup2\n        /* \"#utility.yul\":3400:3415   */\n      add\n        /* \"#utility.yul\":3392:3415   */\n      swap1\n      pop\n        /* \"#utility.yul\":3114:3422   */\n      swap2\n      swap1\n      pop\n      jump\t// out\n        /* \"#utility.yul\":3428:3576   */\n    tag_347:\n        /* \"#utility.yul\":3526:3532   */\n      dup3\n        /* \"#utility.yul\":3521:3524   */\n      dup2\n        /* \"#utility.yul\":3516:3519   */\n      dup4\n        /* \"#utility.yul\":3503:3533   */\n      calldatacopy\n        /* \"#utility.yul\":3567:3568   */\n      0x00\n        /* \"#utility.yul\":3558:3564   */\n      dup4\n        /* \"#utility.yul\":3553:3556   */\n      dup4\n        /* \"#utility.yul\":3549:3565   */\n      add\n        /* \"#utility.yul\":3542:3569   */\n      mstore\n        /* \"#utility.yul\":3428:3576   */\n      pop\n      pop\n      pop\n      jump\t// out\n        /* \"#utility.yul\":3582:4007   */\n    tag_348:\n        /* \"#utility.yul\":3660:3665   */\n      0x00\n        /* \"#utility.yul\":3685:3751   */\n      tag_467\n        /* \"#utility.yul\":3701:3750   */\n      tag_468\n        /* \"#utility.yul\":3743:3749   */\n      dup5\n        /* \"#utility.yul\":3701:3750   */\n      tag_346\n      jump\t// in\n    tag_468:\n        /* \"#utility.yul\":3685:3751   */\n      tag_345\n      jump\t// in\n    tag_467:\n        /* \"#utility.yul\":3676:3751   */\n      swap1\n      pop\n        /* \"#utility.yul\":3774:3780   */\n      dup3\n        /* \"#utility.yul\":3767:3772   */\n      dup2\n        /* \"#utility.yul\":3760:3781   */\n      mstore\n        /* \"#utility.yul\":3812:3816   */\n      0x20\n        /* \"#utility.yul\":3805:3810   */\n      dup2\n        /* \"#utility.yul\":3801:3817   */\n      add\n        /* \"#utility.yul\":3850:3853   */\n      dup5\n        /* \"#utility.yul\":3841:3847   */\n      dup5\n        /* \"#utility.yul\":3836:3839   */\n      dup5\n        /* \"#utility.yul\":3832:3848   */\n      add\n        /* \"#utility.yul\":3829:3854   */\n      gt\n        /* \"#utility.yul\":3826:3938   */\n      iszero\n      tag_469\n      jumpi\n        /* \"#utility.yul\":3857:3936   */\n      tag_470\n      tag_343\n      jump\t// in\n    tag_470:\n        /* \"#utility.yul\":3826:3938   */\n    tag_469:\n        /* \"#utility.yul\":3947:4001   */\n      tag_471\n        /* \"#utility.yul\":3994:4000   */\n      dup5\n        /* \"#utility.yul\":3989:3992   */\n      dup3\n        /* \"#utility.yul\":3984:3987   */\n      dup6\n        /* \"#utility.yul\":3947:4001   */\n      tag_347\n      jump\t// in\n    tag_471:\n        /* \"#utility.yul\":3666:4007   */\n      pop\n        /* \"#utility.yul\":3582:4007   */\n      swap4\n      swap3\n      pop\n      pop\n      pop\n      jump\t// out\n        /* \"#utility.yul\":4027:4367   */\n    tag_349:\n        /* \"#utility.yul\":4083:4088   */\n      0x00\n        /* \"#utility.yul\":4132:4135   */\n      dup3\n        /* \"#utility.yul\":4125:4129   */\n      0x1f\n        /* \"#utility.yul\":4117:4123   */\n      dup4\n        /* \"#utility.yul\":4113:4130   */\n      add\n        /* \"#utility.yul\":4109:4136   */\n      slt\n        /* \"#utility.yul\":4099:4221   */\n      tag_473\n      jumpi\n        /* \"#utility.yul\":4140:4219   */\n      tag_474\n      tag_342\n      jump\t// in\n    tag_474:\n        /* \"#utility.yul\":4099:4221   */\n    tag_473:\n        /* \"#utility.yul\":4257:4263   */\n      dup2\n        /* \"#utility.yul\":4244:4264   */\n      calldataload\n        /* \"#utility.yul\":4282:4361   */\n      tag_475\n        /* \"#utility.yul\":4357:4360   */\n      dup5\n        /* \"#utility.yul\":4349:4355   */\n      dup3\n        /* \"#utility.yul\":4342:4346   */\n      0x20\n        /* \"#utility.yul\":4334:4340   */\n      dup7\n        /* \"#utility.yul\":4330:4347   */\n      add\n        /* \"#utility.yul\":4282:4361   */\n      tag_348\n      jump\t// in\n    tag_475:\n        /* \"#utility.yul\":4273:4361   */\n      swap2\n      pop\n        /* \"#utility.yul\":4089:4367   */\n      pop\n        /* \"#utility.yul\":4027:4367   */\n      swap3\n      swap2\n      pop\n      pop\n      jump\t// out\n        /* \"#utility.yul\":4373:4522   */\n    tag_350:\n        /* \"#utility.yul\":4409:4416   */\n      0x00\n        /* \"#utility.yul\":4449:4515   */\n      0xff00000000000000000000000000000000000000000000000000000000000000\n        /* \"#utility.yul\":4442:4447   */\n      dup3\n        /* \"#utility.yul\":4438:4516   */\n      and\n        /* \"#utility.yul\":4427:4516   */\n      swap1\n      pop\n        /* \"#utility.yul\":4373:4522   */\n      swap2\n      swap1\n      pop\n      jump\t// out\n        /* \"#utility.yul\":4528:4648   */\n    tag_351:\n        /* \"#utility.yul\":4600:4623   */\n      tag_478\n        /* \"#utility.yul\":4617:4622   */\n      dup2\n        /* \"#utility.yul\":4600:4623   */\n      tag_350\n      jump\t// in\n    tag_478:\n        /* \"#utility.yul\":4593:4598   */\n      dup2\n        /* \"#utility.yul\":4590:4624   */\n      eq\n        /* \"#utility.yul\":4580:4642   */\n      tag_479\n      jumpi\n        /* \"#utility.yul\":4638:4639   */\n      0x00\n        /* \"#utility.yul\":4635:4636   */\n      dup1\n        /* \"#utility.yul\":4628:4640   */\n      revert\n        /* \"#utility.yul\":4580:4642   */\n    tag_479:\n        /* \"#utility.yul\":4528:4648   */\n      pop\n      jump\t// out\n        /* \"#utility.yul\":4654:4791   */\n    tag_352:\n        /* \"#utility.yul\":4699:4704   */\n      0x00\n        /* \"#utility.yul\":4737:4743   */\n      dup2\n        /* \"#utility.yul\":4724:4744   */\n      calldataload\n        /* \"#utility.yul\":4715:4744   */\n      swap1\n      pop\n        /* \"#utility.yul\":4753:4785   */\n      tag_481\n        /* \"#utility.yul\":4779:4784   */\n      dup2\n        /* \"#utility.yul\":4753:4785   */\n      tag_351\n      jump\t// in\n    tag_481:\n        /* \"#utility.yul\":4654:4791   */\n      swap3\n      swap2\n      pop\n      pop\n      jump\t// out\n        /* \"#utility.yul\":4797:5449   */\n    tag_24:\n        /* \"#utility.yul\":4874:4880   */\n      0x00\n        /* \"#utility.yul\":4882:4888   */\n      dup1\n        /* \"#utility.yul\":4931:4933   */\n      0x40\n        /* \"#utility.yul\":4919:4928   */\n      dup4\n        /* \"#utility.yul\":4910:4917   */\n      dup6\n        /* \"#utility.yul\":4906:4929   */\n      sub\n        /* \"#utility.yul\":4902:4934   */\n      slt\n        /* \"#utility.yul\":4899:5018   */\n      iszero\n      tag_483\n      jumpi\n        /* \"#utility.yul\":4937:5016   */\n      tag_484\n      tag_332\n      jump\t// in\n    tag_484:\n        /* \"#utility.yul\":4899:5018   */\n    tag_483:\n        /* \"#utility.yul\":5085:5086   */\n      0x00\n        /* \"#utility.yul\":5074:5083   */\n      dup4\n        /* \"#utility.yul\":5070:5087   */\n      add\n        /* \"#utility.yul\":5057:5088   */\n      calldataload\n        /* \"#utility.yul\":5115:5133   */\n      0xffffffffffffffff\n        /* \"#utility.yul\":5107:5113   */\n      dup2\n        /* \"#utility.yul\":5104:5134   */\n      gt\n        /* \"#utility.yul\":5101:5218   */\n      iszero\n      tag_485\n      jumpi\n        /* \"#utility.yul\":5137:5216   */\n      tag_486\n      tag_333\n      jump\t// in\n    tag_486:\n        /* \"#utility.yul\":5101:5218   */\n    tag_485:\n        /* \"#utility.yul\":5242:5305   */\n      tag_487\n        /* \"#utility.yul\":5297:5304   */\n      dup6\n        /* \"#utility.yul\":5288:5294   */\n      dup3\n        /* \"#utility.yul\":5277:5286   */\n      dup7\n        /* \"#utility.yul\":5273:5295   */\n      add\n        /* \"#utility.yul\":5242:5305   */\n      tag_349\n      jump\t// in\n    tag_487:\n        /* \"#utility.yul\":5232:5305   */\n      swap3\n      pop\n        /* \"#utility.yul\":5028:5315   */\n      pop\n        /* \"#utility.yul\":5354:5356   */\n      0x20\n        /* \"#utility.yul\":5380:5432   */\n      tag_488\n        /* \"#utility.yul\":5424:5431   */\n      dup6\n        /* \"#utility.yul\":5415:5421   */\n      dup3\n        /* \"#utility.yul\":5404:5413   */\n      dup7\n        /* \"#utility.yul\":5400:5422   */\n      add\n        /* \"#utility.yul\":5380:5432   */\n      tag_352\n      jump\t// in\n    tag_488:\n        /* \"#utility.yul\":5370:5432   */\n      swap2\n      pop\n        /* \"#utility.yul\":5325:5442   */\n      pop\n        /* \"#utility.yul\":4797:5449   */\n      swap3\n      pop\n      swap3\n      swap1\n      pop\n      jump\t// out\n        /* \"#utility.yul\":5455:5964   */\n    tag_28:\n        /* \"#utility.yul\":5524:5530   */\n      0x00\n        /* \"#utility.yul\":5573:5575   */\n      0x20\n        /* \"#utility.yul\":5561:5570   */\n      dup3\n        /* \"#utility.yul\":5552:5559   */\n      dup5\n        /* \"#utility.yul\":5548:5571   */\n      sub\n        /* \"#utility.yul\":5544:5576   */\n      slt\n        /* \"#utility.yul\":5541:5660   */\n      iszero\n      tag_490\n      jumpi\n        /* \"#utility.yul\":5579:5658   */\n      tag_491\n      tag_332\n      jump\t// in\n    tag_491:\n        /* \"#utility.yul\":5541:5660   */\n    tag_490:\n        /* \"#utility.yul\":5727:5728   */\n      0x00\n        /* \"#utility.yul\":5716:5725   */\n      dup3\n        /* \"#utility.yul\":5712:5729   */\n      add\n        /* \"#utility.yul\":5699:5730   */\n      calldataload\n        /* \"#utility.yul\":5757:5775   */\n      0xffffffffffffffff\n        /* \"#utility.yul\":5749:5755   */\n      dup2\n        /* \"#utility.yul\":5746:5776   */\n      gt\n        /* \"#utility.yul\":5743:5860   */\n      iszero\n      tag_492\n      jumpi\n        /* \"#utility.yul\":5779:5858   */\n      tag_493\n      tag_333\n      jump\t// in\n    tag_493:\n        /* \"#utility.yul\":5743:5860   */\n    tag_492:\n        /* \"#utility.yul\":5884:5947   */\n      tag_494\n        /* \"#utility.yul\":5939:5946   */\n      dup5\n        /* \"#utility.yul\":5930:5936   */\n      dup3\n        /* \"#utility.yul\":5919:5928   */\n      dup6\n        /* \"#utility.yul\":5915:5937   */\n      add\n        /* \"#utility.yul\":5884:5947   */\n      tag_349\n      jump\t// in\n    tag_494:\n        /* \"#utility.yul\":5874:5947   */\n      swap2\n      pop\n        /* \"#utility.yul\":5670:5957   */\n      pop\n        /* \"#utility.yul\":5455:5964   */\n      swap3\n      swap2\n      pop\n      pop\n      jump\t// out\n        /* \"#utility.yul\":5970:6056   */\n    tag_353:\n        /* \"#utility.yul\":6005:6012   */\n      0x00\n        /* \"#utility.yul\":6045:6049   */\n      0xff\n        /* \"#utility.yul\":6038:6043   */\n      dup3\n        /* \"#utility.yul\":6034:6050   */\n      and\n        /* \"#utility.yul\":6023:6050   */\n      swap1\n      pop\n        /* \"#utility.yul\":5970:6056   */\n      swap2\n      swap1\n      pop\n      jump\t// out\n        /* \"#utility.yul\":6062:6174   */\n    tag_354:\n        /* \"#utility.yul\":6145:6167   */\n      tag_497\n        /* \"#utility.yul\":6161:6166   */\n      dup2\n        /* \"#utility.yul\":6145:6167   */\n      tag_353\n      jump\t// in\n    tag_497:\n        /* \"#utility.yul\":6140:6143   */\n      dup3\n        /* \"#utility.yul\":6133:6168   */\n      mstore\n        /* \"#utility.yul\":6062:6174   */\n      pop\n      pop\n      jump\t// out\n        /* \"#utility.yul\":6180:6394   */\n    tag_33:\n        /* \"#utility.yul\":6269:6273   */\n      0x00\n        /* \"#utility.yul\":6307:6309   */\n      0x20\n        /* \"#utility.yul\":6296:6305   */\n      dup3\n        /* \"#utility.yul\":6292:6310   */\n      add\n        /* \"#utility.yul\":6284:6310   */\n      swap1\n      pop\n        /* \"#utility.yul\":6320:6387   */\n      tag_499\n        /* \"#utility.yul\":6384:6385   */\n      0x00\n        /* \"#utility.yul\":6373:6382   */\n      dup4\n        /* \"#utility.yul\":6369:6386   */\n      add\n        /* \"#utility.yul\":6360:6366   */\n      dup5\n        /* \"#utility.yul\":6320:6387   */\n      tag_354\n      jump\t// in\n    tag_499:\n        /* \"#utility.yul\":6180:6394   */\n      swap3\n      swap2\n      pop\n      pop\n      jump\t// out\n        /* \"#utility.yul\":6400:6518   */\n    tag_355:\n        /* \"#utility.yul\":6487:6511   */\n      tag_501\n        /* \"#utility.yul\":6505:6510   */\n      dup2\n        /* \"#utility.yul\":6487:6511   */\n      tag_334\n      jump\t// in\n    tag_501:\n        /* \"#utility.yul\":6482:6485   */\n      dup3\n        /* \"#utility.yul\":6475:6512   */\n      mstore\n        /* \"#utility.yul\":6400:6518   */\n      pop\n      pop\n      jump\t// out\n        /* \"#utility.yul\":6524:6746   */\n    tag_43:\n        /* \"#utility.yul\":6617:6621   */\n      0x00\n        /* \"#utility.yul\":6655:6657   */\n      0x20\n        /* \"#utility.yul\":6644:6653   */\n      dup3\n        /* \"#utility.yul\":6640:6658   */\n      add\n        /* \"#utility.yul\":6632:6658   */\n      swap1\n      pop\n        /* \"#utility.yul\":6668:6739   */\n      tag_503\n        /* \"#utility.yul\":6736:6737   */\n      0x00\n        /* \"#utility.yul\":6725:6734   */\n      dup4\n        /* \"#utility.yul\":6721:6738   */\n      add\n        /* \"#utility.yul\":6712:6718   */\n      dup5\n        /* \"#utility.yul\":6668:6739   */\n      tag_355\n      jump\t// in\n    tag_503:\n        /* \"#utility.yul\":6524:6746   */\n      swap3\n      swap2\n      pop\n      pop\n      jump\t// out\n        /* \"#utility.yul\":6752:6870   */\n    tag_356:\n        /* \"#utility.yul\":6823:6845   */\n      tag_505\n        /* \"#utility.yul\":6839:6844   */\n      dup2\n        /* \"#utility.yul\":6823:6845   */\n      tag_353\n      jump\t// in\n    tag_505:\n        /* \"#utility.yul\":6816:6821   */\n      dup2\n        /* \"#utility.yul\":6813:6846   */\n      eq\n        /* \"#utility.yul\":6803:6864   */\n      tag_506\n      jumpi\n        /* \"#utility.yul\":6860:6861   */\n      0x00\n        /* \"#utility.yul\":6857:6858   */\n      dup1\n        /* \"#utility.yul\":6850:6862   */\n      revert\n        /* \"#utility.yul\":6803:6864   */\n    tag_506:\n        /* \"#utility.yul\":6752:6870   */\n      pop\n      jump\t// out\n        /* \"#utility.yul\":6876:7011   */\n    tag_357:\n        /* \"#utility.yul\":6920:6925   */\n      0x00\n        /* \"#utility.yul\":6958:6964   */\n      dup2\n        /* \"#utility.yul\":6945:6965   */\n      calldataload\n        /* \"#utility.yul\":6936:6965   */\n      swap1\n      pop\n        /* \"#utility.yul\":6974:7005   */\n      tag_508\n        /* \"#utility.yul\":6999:7004   */\n      dup2\n        /* \"#utility.yul\":6974:7005   */\n      tag_356\n      jump\t// in\n    tag_508:\n        /* \"#utility.yul\":6876:7011   */\n      swap3\n      swap2\n      pop\n      pop\n      jump\t// out\n        /* \"#utility.yul\":7017:7667   */\n    tag_58:\n        /* \"#utility.yul\":7093:7099   */\n      0x00\n        /* \"#utility.yul\":7101:7107   */\n      dup1\n        /* \"#utility.yul\":7150:7152   */\n      0x40\n        /* \"#utility.yul\":7138:7147   */\n      dup4\n        /* \"#utility.yul\":7129:7136   */\n      dup6\n        /* \"#utility.yul\":7125:7148   */\n      sub\n        /* \"#utility.yul\":7121:7153   */\n      slt\n        /* \"#utility.yul\":7118:7237   */\n      iszero\n      tag_510\n      jumpi\n        /* \"#utility.yul\":7156:7235   */\n      tag_511\n      tag_332\n      jump\t// in\n    tag_511:\n        /* \"#utility.yul\":7118:7237   */\n    tag_510:\n        /* \"#utility.yul\":7304:7305   */\n      0x00\n        /* \"#utility.yul\":7293:7302   */\n      dup4\n        /* \"#utility.yul\":7289:7306   */\n      add\n        /* \"#utility.yul\":7276:7307   */\n      calldataload\n        /* \"#utility.yul\":7334:7352   */\n      0xffffffffffffffff\n        /* \"#utility.yul\":7326:7332   */\n      dup2\n        /* \"#utility.yul\":7323:7353   */\n      gt\n        /* \"#utility.yul\":7320:7437   */\n      iszero\n      tag_512\n      jumpi\n        /* \"#utility.yul\":7356:7435   */\n      tag_513\n      tag_333\n      jump\t// in\n    tag_513:\n        /* \"#utility.yul\":7320:7437   */\n    tag_512:\n        /* \"#utility.yul\":7461:7524   */\n      tag_514\n        /* \"#utility.yul\":7516:7523   */\n      dup6\n        /* \"#utility.yul\":7507:7513   */\n      dup3\n        /* \"#utility.yul\":7496:7505   */\n      dup7\n        /* \"#utility.yul\":7492:7514   */\n      add\n        /* \"#utility.yul\":7461:7524   */\n      tag_349\n      jump\t// in\n    tag_514:\n        /* \"#utility.yul\":7451:7524   */\n      swap3\n      pop\n        /* \"#utility.yul\":7247:7534   */\n      pop\n        /* \"#utility.yul\":7573:7575   */\n      0x20\n        /* \"#utility.yul\":7599:7650   */\n      tag_515\n        /* \"#utility.yul\":7642:7649   */\n      dup6\n        /* \"#utility.yul\":7633:7639   */\n      dup3\n        /* \"#utility.yul\":7622:7631   */\n      dup7\n        /* \"#utility.yul\":7618:7640   */\n      add\n        /* \"#utility.yul\":7599:7650   */\n      tag_357\n      jump\t// in\n    tag_515:\n        /* \"#utility.yul\":7589:7650   */\n      swap2\n      pop\n        /* \"#utility.yul\":7544:7660   */\n      pop\n        /* \"#utility.yul\":7017:7667   */\n      swap3\n      pop\n      swap3\n      swap1\n      pop\n      jump\t// out\n        /* \"#utility.yul\":7673:7853   */\n    tag_358:\n        /* \"#utility.yul\":7721:7798   */\n      0x4e487b7100000000000000000000000000000000000000000000000000000000\n        /* \"#utility.yul\":7718:7719   */\n      0x00\n        /* \"#utility.yul\":7711:7799   */\n      mstore\n        /* \"#utility.yul\":7818:7822   */\n      0x22\n        /* \"#utility.yul\":7815:7816   */\n      0x04\n        /* \"#utility.yul\":7808:7823   */\n      mstore\n        /* \"#utility.yul\":7842:7846   */\n      0x24\n        /* \"#utility.yul\":7839:7840   */\n      0x00\n        /* \"#utility.yul\":7832:7847   */\n      revert\n        /* \"#utility.yul\":7859:8179   */\n    tag_63:\n        /* \"#utility.yul\":7903:7909   */\n      0x00\n        /* \"#utility.yul\":7940:7941   */\n      0x02\n        /* \"#utility.yul\":7934:7938   */\n      dup3\n        /* \"#utility.yul\":7930:7942   */\n      div\n        /* \"#utility.yul\":7920:7942   */\n      swap1\n      pop\n        /* \"#utility.yul\":7987:7988   */\n      0x01\n        /* \"#utility.yul\":7981:7985   */\n      dup3\n        /* \"#utility.yul\":7977:7989   */\n      and\n        /* \"#utility.yul\":8008:8026   */\n      dup1\n        /* \"#utility.yul\":7998:8079   */\n      tag_518\n      jumpi\n        /* \"#utility.yul\":8064:8068   */\n      0x7f\n        /* \"#utility.yul\":8056:8062   */\n      dup3\n        /* \"#utility.yul\":8052:8069   */\n      and\n        /* \"#utility.yul\":8042:8069   */\n      swap2\n      pop\n        /* \"#utility.yul\":7998:8079   */\n    tag_518:\n        /* \"#utility.yul\":8126:8128   */\n      0x20\n        /* \"#utility.yul\":8118:8124   */\n      dup3\n        /* \"#utility.yul\":8115:8129   */\n      lt\n        /* \"#utility.yul\":8095:8113   */\n      dup2\n        /* \"#utility.yul\":8092:8130   */\n      sub\n        /* \"#utility.yul\":8089:8173   */\n      tag_519\n      jumpi\n        /* \"#utility.yul\":8145:8163   */\n      tag_520\n      tag_358\n      jump\t// in\n    tag_520:\n        /* \"#utility.yul\":8089:8173   */\n    tag_519:\n        /* \"#utility.yul\":7910:8179   */\n      pop\n        /* \"#utility.yul\":7859:8179   */\n      swap2\n      swap1\n      pop\n      jump\t// out\n        /* \"#utility.yul\":8185:8333   */\n    tag_359:\n        /* \"#utility.yul\":8287:8298   */\n      0x00\n        /* \"#utility.yul\":8324:8327   */\n      dup2\n        /* \"#utility.yul\":8309:8327   */\n      swap1\n      pop\n        /* \"#utility.yul\":8185:8333   */\n      swap3\n      swap2\n      pop\n      pop\n      jump\t// out\n        /* \"#utility.yul\":8339:8729   */\n    tag_360:\n        /* \"#utility.yul\":8445:8448   */\n      0x00\n        /* \"#utility.yul\":8473:8512   */\n      tag_523\n        /* \"#utility.yul\":8506:8511   */\n      dup3\n        /* \"#utility.yul\":8473:8512   */\n      tag_337\n      jump\t// in\n    tag_523:\n        /* \"#utility.yul\":8528:8617   */\n      tag_524\n        /* \"#utility.yul\":8610:8616   */\n      dup2\n        /* \"#utility.yul\":8605:8608   */\n      dup6\n        /* \"#utility.yul\":8528:8617   */\n      tag_359\n      jump\t// in\n    tag_524:\n        /* \"#utility.yul\":8521:8617   */\n      swap4\n      pop\n        /* \"#utility.yul\":8626:8691   */\n      tag_525\n        /* \"#utility.yul\":8684:8690   */\n      dup2\n        /* \"#utility.yul\":8679:8682   */\n      dup6\n        /* \"#utility.yul\":8672:8676   */\n      0x20\n        /* \"#utility.yul\":8665:8670   */\n      dup7\n        /* \"#utility.yul\":8661:8677   */\n      add\n        /* \"#utility.yul\":8626:8691   */\n      tag_339\n      jump\t// in\n    tag_525:\n        /* \"#utility.yul\":8716:8722   */\n      dup1\n        /* \"#utility.yul\":8711:8714   */\n      dup5\n        /* \"#utility.yul\":8707:8723   */\n      add\n        /* \"#utility.yul\":8700:8723   */\n      swap2\n      pop\n        /* \"#utility.yul\":8449:8729   */\n      pop\n        /* \"#utility.yul\":8339:8729   */\n      swap3\n      swap2\n      pop\n      pop\n      jump\t// out\n        /* \"#utility.yul\":8735:9010   */\n    tag_70:\n        /* \"#utility.yul\":8867:8870   */\n      0x00\n        /* \"#utility.yul\":8889:8984   */\n      tag_527\n        /* \"#utility.yul\":8980:8983   */\n      dup3\n        /* \"#utility.yul\":8971:8977   */\n      dup5\n        /* \"#utility.yul\":8889:8984   */\n      tag_360\n      jump\t// in\n    tag_527:\n        /* \"#utility.yul\":8882:8984   */\n      swap2\n      pop\n        /* \"#utility.yul\":9001:9004   */\n      dup2\n        /* \"#utility.yul\":8994:9004   */\n      swap1\n      pop\n        /* \"#utility.yul\":8735:9010   */\n      swap3\n      swap2\n      pop\n      pop\n      jump\t// out\n        /* \"#utility.yul\":9016:9185   */\n    tag_361:\n        /* \"#utility.yul\":9156:9177   */\n      0x47616d6573206973206e6f742061637469766500000000000000000000000000\n        /* \"#utility.yul\":9152:9153   */\n      0x00\n        /* \"#utility.yul\":9144:9150   */\n      dup3\n        /* \"#utility.yul\":9140:9154   */\n      add\n        /* \"#utility.yul\":9133:9178   */\n      mstore\n        /* \"#utility.yul\":9016:9185   */\n      pop\n      jump\t// out\n        /* \"#utility.yul\":9191:9557   */\n    tag_362:\n        /* \"#utility.yul\":9333:9336   */\n      0x00\n        /* \"#utility.yul\":9354:9421   */\n      tag_530\n        /* \"#utility.yul\":9418:9420   */\n      0x13\n        /* \"#utility.yul\":9413:9416   */\n      dup4\n        /* \"#utility.yul\":9354:9421   */\n      tag_338\n      jump\t// in\n    tag_530:\n        /* \"#utility.yul\":9347:9421   */\n      swap2\n      pop\n        /* \"#utility.yul\":9430:9523   */\n      tag_531\n        /* \"#utility.yul\":9519:9522   */\n      dup3\n        /* \"#utility.yul\":9430:9523   */\n      tag_361\n      jump\t// in\n    tag_531:\n        /* \"#utility.yul\":9548:9550   */\n      0x20\n        /* \"#utility.yul\":9543:9546   */\n      dup3\n        /* \"#utility.yul\":9539:9551   */\n      add\n        /* \"#utility.yul\":9532:9551   */\n      swap1\n      pop\n        /* \"#utility.yul\":9191:9557   */\n      swap2\n      swap1\n      pop\n      jump\t// out\n        /* \"#utility.yul\":9563:9982   */\n    tag_73:\n        /* \"#utility.yul\":9729:9733   */\n      0x00\n        /* \"#utility.yul\":9767:9769   */\n      0x20\n        /* \"#utility.yul\":9756:9765   */\n      dup3\n        /* \"#utility.yul\":9752:9770   */\n      add\n        /* \"#utility.yul\":9744:9770   */\n      swap1\n      pop\n        /* \"#utility.yul\":9816:9825   */\n      dup2\n        /* \"#utility.yul\":9810:9814   */\n      dup2\n        /* \"#utility.yul\":9806:9826   */\n      sub\n        /* \"#utility.yul\":9802:9803   */\n      0x00\n        /* \"#utility.yul\":9791:9800   */\n      dup4\n        /* \"#utility.yul\":9787:9804   */\n      add\n        /* \"#utility.yul\":9780:9827   */\n      mstore\n        /* \"#utility.yul\":9844:9975   */\n      tag_533\n        /* \"#utility.yul\":9970:9974   */\n      dup2\n        /* \"#utility.yul\":9844:9975   */\n      tag_362\n      jump\t// in\n    tag_533:\n        /* \"#utility.yul\":9836:9975   */\n      swap1\n      pop\n        /* \"#utility.yul\":9563:9982   */\n      swap2\n      swap1\n      pop\n      jump\t// out\n        /* \"#utility.yul\":9988:10208   */\n    tag_363:\n        /* \"#utility.yul\":10128:10162   */\n      0x596f7520617265206e6f74206120706c61796572206f6620746869732067616d\n        /* \"#utility.yul\":10124:10125   */\n      0x00\n        /* \"#utility.yul\":10116:10122   */\n      dup3\n        /* \"#utility.yul\":10112:10126   */\n      add\n        /* \"#utility.yul\":10105:10163   */\n      mstore\n        /* \"#utility.yul\":10197:10200   */\n      0x6500000000000000000000000000000000000000000000000000000000000000\n        /* \"#utility.yul\":10192:10194   */\n      0x20\n        /* \"#utility.yul\":10184:10190   */\n      dup3\n        /* \"#utility.yul\":10180:10195   */\n      add\n        /* \"#utility.yul\":10173:10201   */\n      mstore\n        /* \"#utility.yul\":9988:10208   */\n      pop\n      jump\t// out\n        /* \"#utility.yul\":10214:10580   */\n    tag_364:\n        /* \"#utility.yul\":10356:10359   */\n      0x00\n        /* \"#utility.yul\":10377:10444   */\n      tag_536\n        /* \"#utility.yul\":10441:10443   */\n      0x21\n        /* \"#utility.yul\":10436:10439   */\n      dup4\n        /* \"#utility.yul\":10377:10444   */\n      tag_338\n      jump\t// in\n    tag_536:\n        /* \"#utility.yul\":10370:10444   */\n      swap2\n      pop\n        /* \"#utility.yul\":10453:10546   */\n      tag_537\n        /* \"#utility.yul\":10542:10545   */\n      dup3\n        /* \"#utility.yul\":10453:10546   */\n      tag_363\n      jump\t// in\n    tag_537:\n        /* \"#utility.yul\":10571:10573   */\n      0x40\n        /* \"#utility.yul\":10566:10569   */\n      dup3\n        /* \"#utility.yul\":10562:10574   */\n      add\n        /* \"#utility.yul\":10555:10574   */\n      swap1\n      pop\n        /* \"#utility.yul\":10214:10580   */\n      swap2\n      swap1\n      pop\n      jump\t// out\n        /* \"#utility.yul\":10586:11005   */\n    tag_78:\n        /* \"#utility.yul\":10752:10756   */\n      0x00\n        /* \"#utility.yul\":10790:10792   */\n      0x20\n        /* \"#utility.yul\":10779:10788   */\n      dup3\n        /* \"#utility.yul\":10775:10793   */\n      add\n        /* \"#utility.yul\":10767:10793   */\n      swap1\n      pop\n        /* \"#utility.yul\":10839:10848   */\n      dup2\n        /* \"#utility.yul\":10833:10837   */\n      dup2\n        /* \"#utility.yul\":10829:10849   */\n      sub\n        /* \"#utility.yul\":10825:10826   */\n      0x00\n        /* \"#utility.yul\":10814:10823   */\n      dup4\n        /* \"#utility.yul\":10810:10827   */\n      add\n        /* \"#utility.yul\":10803:10850   */\n      mstore\n        /* \"#utility.yul\":10867:10998   */\n      tag_539\n        /* \"#utility.yul\":10993:10997   */\n      dup2\n        /* \"#utility.yul\":10867:10998   */\n      tag_364\n      jump\t// in\n    tag_539:\n        /* \"#utility.yul\":10859:10998   */\n      swap1\n      pop\n        /* \"#utility.yul\":10586:11005   */\n      swap2\n      swap1\n      pop\n      jump\t// out\n        /* \"#utility.yul\":11011:11178   */\n    tag_365:\n        /* \"#utility.yul\":11151:11170   */\n      0x596f7520616c726561647920766f746564000000000000000000000000000000\n        /* \"#utility.yul\":11147:11148   */\n      0x00\n        /* \"#utility.yul\":11139:11145   */\n      dup3\n        /* \"#utility.yul\":11135:11149   */\n      add\n        /* \"#utility.yul\":11128:11171   */\n      mstore\n        /* \"#utility.yul\":11011:11178   */\n      pop\n      jump\t// out\n        /* \"#utility.yul\":11184:11550   */\n    tag_366:\n        /* \"#utility.yul\":11326:11329   */\n      0x00\n        /* \"#utility.yul\":11347:11414   */\n      tag_542\n        /* \"#utility.yul\":11411:11413   */\n      0x11\n        /* \"#utility.yul\":11406:11409   */\n      dup4\n        /* \"#utility.yul\":11347:11414   */\n      tag_338\n      jump\t// in\n    tag_542:\n        /* \"#utility.yul\":11340:11414   */\n      swap2\n      pop\n        /* \"#utility.yul\":11423:11516   */\n      tag_543\n        /* \"#utility.yul\":11512:11515   */\n      dup3\n        /* \"#utility.yul\":11423:11516   */\n      tag_365\n      jump\t// in\n    tag_543:\n        /* \"#utility.yul\":11541:11543   */\n      0x20\n        /* \"#utility.yul\":11536:11539   */\n      dup3\n        /* \"#utility.yul\":11532:11544   */\n      add\n        /* \"#utility.yul\":11525:11544   */\n      swap1\n      pop\n        /* \"#utility.yul\":11184:11550   */\n      swap2\n      swap1\n      pop\n      jump\t// out\n        /* \"#utility.yul\":11556:11975   */\n    tag_83:\n        /* \"#utility.yul\":11722:11726   */\n      0x00\n        /* \"#utility.yul\":11760:11762   */\n      0x20\n        /* \"#utility.yul\":11749:11758   */\n      dup3\n        /* \"#utility.yul\":11745:11763   */\n      add\n        /* \"#utility.yul\":11737:11763   */\n      swap1\n      pop\n        /* \"#utility.yul\":11809:11818   */\n      dup2\n        /* \"#utility.yul\":11803:11807   */\n      dup2\n        /* \"#utility.yul\":11799:11819   */\n      sub\n        /* \"#utility.yul\":11795:11796   */\n      0x00\n        /* \"#utility.yul\":11784:11793   */\n      dup4\n        /* \"#utility.yul\":11780:11797   */\n      add\n        /* \"#utility.yul\":11773:11820   */\n      mstore\n        /* \"#utility.yul\":11837:11968   */\n      tag_545\n        /* \"#utility.yul\":11963:11967   */\n      dup2\n        /* \"#utility.yul\":11837:11968   */\n      tag_366\n      jump\t// in\n    tag_545:\n        /* \"#utility.yul\":11829:11968   */\n      swap1\n      pop\n        /* \"#utility.yul\":11556:11975   */\n      swap2\n      swap1\n      pop\n      jump\t// out\n        /* \"#utility.yul\":11981:12156   */\n    tag_367:\n        /* \"#utility.yul\":12121:12148   */\n      0x4c6574746572206d75737420626520696e20412d5a20612d7a00000000000000\n        /* \"#utility.yul\":12117:12118   */\n      0x00\n        /* \"#utility.yul\":12109:12115   */\n      dup3\n        /* \"#utility.yul\":12105:12119   */\n      add\n        /* \"#utility.yul\":12098:12149   */\n      mstore\n        /* \"#utility.yul\":11981:12156   */\n      pop\n      jump\t// out\n        /* \"#utility.yul\":12162:12528   */\n    tag_368:\n        /* \"#utility.yul\":12304:12307   */\n      0x00\n        /* \"#utility.yul\":12325:12392   */\n      tag_548\n        /* \"#utility.yul\":12389:12391   */\n      0x19\n        /* \"#utility.yul\":12384:12387   */\n      dup4\n        /* \"#utility.yul\":12325:12392   */\n      tag_338\n      jump\t// in\n    tag_548:\n        /* \"#utility.yul\":12318:12392   */\n      swap2\n      pop\n        /* \"#utility.yul\":12401:12494   */\n      tag_549\n        /* \"#utility.yul\":12490:12493   */\n      dup3\n        /* \"#utility.yul\":12401:12494   */\n      tag_367\n      jump\t// in\n    tag_549:\n        /* \"#utility.yul\":12519:12521   */\n      0x20\n        /* \"#utility.yul\":12514:12517   */\n      dup3\n        /* \"#utility.yul\":12510:12522   */\n      add\n        /* \"#utility.yul\":12503:12522   */\n      swap1\n      pop\n        /* \"#utility.yul\":12162:12528   */\n      swap2\n      swap1\n      pop\n      jump\t// out\n        /* \"#utility.yul\":12534:12953   */\n    tag_89:\n        /* \"#utility.yul\":12700:12704   */\n      0x00\n        /* \"#utility.yul\":12738:12740   */\n      0x20\n        /* \"#utility.yul\":12727:12736   */\n      dup3\n        /* \"#utility.yul\":12723:12741   */\n      add\n        /* \"#utility.yul\":12715:12741   */\n      swap1\n      pop\n        /* \"#utility.yul\":12787:12796   */\n      dup2\n        /* \"#utility.yul\":12781:12785   */\n      dup2\n        /* \"#utility.yul\":12777:12797   */\n      sub\n        /* \"#utility.yul\":12773:12774   */\n      0x00\n        /* \"#utility.yul\":12762:12771   */\n      dup4\n        /* \"#utility.yul\":12758:12775   */\n      add\n        /* \"#utility.yul\":12751:12798   */\n      mstore\n        /* \"#utility.yul\":12815:12946   */\n      tag_551\n        /* \"#utility.yul\":12941:12945   */\n      dup2\n        /* \"#utility.yul\":12815:12946   */\n      tag_368\n      jump\t// in\n    tag_551:\n        /* \"#utility.yul\":12807:12946   */\n      swap1\n      pop\n        /* \"#utility.yul\":12534:12953   */\n      swap2\n      swap1\n      pop\n      jump\t// out\n        /* \"#utility.yul\":12959:13139   */\n    tag_369:\n        /* \"#utility.yul\":13007:13084   */\n      0x4e487b7100000000000000000000000000000000000000000000000000000000\n        /* \"#utility.yul\":13004:13005   */\n      0x00\n        /* \"#utility.yul\":12997:13085   */\n      mstore\n        /* \"#utility.yul\":13104:13108   */\n      0x11\n        /* \"#utility.yul\":13101:13102   */\n      0x04\n        /* \"#utility.yul\":13094:13109   */\n      mstore\n        /* \"#utility.yul\":13128:13132   */\n      0x24\n        /* \"#utility.yul\":13125:13126   */\n      0x00\n        /* \"#utility.yul\":13118:13133   */\n      revert\n        /* \"#utility.yul\":13145:13336   */\n    tag_92:\n        /* \"#utility.yul\":13183:13187   */\n      0x00\n        /* \"#utility.yul\":13203:13221   */\n      tag_554\n        /* \"#utility.yul\":13219:13220   */\n      dup3\n        /* \"#utility.yul\":13203:13221   */\n      tag_353\n      jump\t// in\n    tag_554:\n        /* \"#utility.yul\":13198:13221   */\n      swap2\n      pop\n        /* \"#utility.yul\":13235:13253   */\n      tag_555\n        /* \"#utility.yul\":13251:13252   */\n      dup4\n        /* \"#utility.yul\":13235:13253   */\n      tag_353\n      jump\t// in\n    tag_555:\n        /* \"#utility.yul\":13230:13253   */\n      swap3\n      pop\n        /* \"#utility.yul\":13277:13278   */\n      dup3\n        /* \"#utility.yul\":13274:13275   */\n      dup3\n        /* \"#utility.yul\":13270:13279   */\n      sub\n        /* \"#utility.yul\":13262:13279   */\n      swap1\n      pop\n        /* \"#utility.yul\":13301:13305   */\n      0xff\n        /* \"#utility.yul\":13295:13299   */\n      dup2\n        /* \"#utility.yul\":13292:13306   */\n      gt\n        /* \"#utility.yul\":13289:13329   */\n      iszero\n      tag_556\n      jumpi\n        /* \"#utility.yul\":13309:13327   */\n      tag_557\n      tag_369\n      jump\t// in\n    tag_557:\n        /* \"#utility.yul\":13289:13329   */\n    tag_556:\n        /* \"#utility.yul\":13145:13336   */\n      swap3\n      swap2\n      pop\n      pop\n      jump\t// out\n        /* \"#utility.yul\":13342:13523   */\n    tag_370:\n        /* \"#utility.yul\":13482:13515   */\n      0x4c65747465722068617320616c7265616479206265656e206775657373656400\n        /* \"#utility.yul\":13478:13479   */\n      0x00\n        /* \"#utility.yul\":13470:13476   */\n      dup3\n        /* \"#utility.yul\":13466:13480   */\n      add\n        /* \"#utility.yul\":13459:13516   */\n      mstore\n        /* \"#utility.yul\":13342:13523   */\n      pop\n      jump\t// out\n        /* \"#utility.yul\":13529:13895   */\n    tag_371:\n        /* \"#utility.yul\":13671:13674   */\n      0x00\n        /* \"#utility.yul\":13692:13759   */\n      tag_560\n        /* \"#utility.yul\":13756:13758   */\n      0x1f\n        /* \"#utility.yul\":13751:13754   */\n      dup4\n        /* \"#utility.yul\":13692:13759   */\n      tag_338\n      jump\t// in\n    tag_560:\n        /* \"#utility.yul\":13685:13759   */\n      swap2\n      pop\n        /* \"#utility.yul\":13768:13861   */\n      tag_561\n        /* \"#utility.yul\":13857:13860   */\n      dup3\n        /* \"#utility.yul\":13768:13861   */\n      tag_370\n      jump\t// in\n    tag_561:\n        /* \"#utility.yul\":13886:13888   */\n      0x20\n        /* \"#utility.yul\":13881:13884   */\n      dup3\n        /* \"#utility.yul\":13877:13889   */\n      add\n        /* \"#utility.yul\":13870:13889   */\n      swap1\n      pop\n        /* \"#utility.yul\":13529:13895   */\n      swap2\n      swap1\n      pop\n      jump\t// out\n        /* \"#utility.yul\":13901:14320   */\n    tag_95:\n        /* \"#utility.yul\":14067:14071   */\n      0x00\n        /* \"#utility.yul\":14105:14107   */\n      0x20\n        /* \"#utility.yul\":14094:14103   */\n      dup3\n        /* \"#utility.yul\":14090:14108   */\n      add\n        /* \"#utility.yul\":14082:14108   */\n      swap1\n      pop\n        /* \"#utility.yul\":14154:14163   */\n      dup2\n        /* \"#utility.yul\":14148:14152   */\n      dup2\n        /* \"#utility.yul\":14144:14164   */\n      sub\n        /* \"#utility.yul\":14140:14141   */\n      0x00\n        /* \"#utility.yul\":14129:14138   */\n      dup4\n        /* \"#utility.yul\":14125:14142   */\n      add\n        /* \"#utility.yul\":14118:14165   */\n      mstore\n        /* \"#utility.yul\":14182:14313   */\n      tag_563\n        /* \"#utility.yul\":14308:14312   */\n      dup2\n        /* \"#utility.yul\":14182:14313   */\n      tag_371\n      jump\t// in\n    tag_563:\n        /* \"#utility.yul\":14174:14313   */\n      swap1\n      pop\n        /* \"#utility.yul\":13901:14320   */\n      swap2\n      swap1\n      pop\n      jump\t// out\n        /* \"#utility.yul\":14326:14520   */\n    tag_99:\n        /* \"#utility.yul\":14366:14370   */\n      0x00\n        /* \"#utility.yul\":14386:14406   */\n      tag_565\n        /* \"#utility.yul\":14404:14405   */\n      dup3\n        /* \"#utility.yul\":14386:14406   */\n      tag_334\n      jump\t// in\n    tag_565:\n        /* \"#utility.yul\":14381:14406   */\n      swap2\n      pop\n        /* \"#utility.yul\":14420:14440   */\n      tag_566\n        /* \"#utility.yul\":14438:14439   */\n      dup4\n        /* \"#utility.yul\":14420:14440   */\n      tag_334\n      jump\t// in\n    tag_566:\n        /* \"#utility.yul\":14415:14440   */\n      swap3\n      pop\n        /* \"#utility.yul\":14464:14465   */\n      dup3\n        /* \"#utility.yul\":14461:14462   */\n      dup3\n        /* \"#utility.yul\":14457:14466   */\n      sub\n        /* \"#utility.yul\":14449:14466   */\n      swap1\n      pop\n        /* \"#utility.yul\":14488:14489   */\n      dup2\n        /* \"#utility.yul\":14482:14486   */\n      dup2\n        /* \"#utility.yul\":14479:14490   */\n      gt\n        /* \"#utility.yul\":14476:14513   */\n      iszero\n      tag_567\n      jumpi\n        /* \"#utility.yul\":14493:14511   */\n      tag_568\n      tag_369\n      jump\t// in\n    tag_568:\n        /* \"#utility.yul\":14476:14513   */\n    tag_567:\n        /* \"#utility.yul\":14326:14520   */\n      swap3\n      swap2\n      pop\n      pop\n      jump\t// out\n        /* \"#utility.yul\":14526:14707   */\n    tag_372:\n        /* \"#utility.yul\":14666:14699   */\n      0x4e6f206d6f726520706c617965727320736c6f747320617661696c61626c6500\n        /* \"#utility.yul\":14662:14663   */\n      0x00\n        /* \"#utility.yul\":14654:14660   */\n      dup3\n        /* \"#utility.yul\":14650:14664   */\n      add\n        /* \"#utility.yul\":14643:14700   */\n      mstore\n        /* \"#utility.yul\":14526:14707   */\n      pop\n      jump\t// out\n        /* \"#utility.yul\":14713:15079   */\n    tag_373:\n        /* \"#utility.yul\":14855:14858   */\n      0x00\n        /* \"#utility.yul\":14876:14943   */\n      tag_571\n        /* \"#utility.yul\":14940:14942   */\n      0x1f\n        /* \"#utility.yul\":14935:14938   */\n      dup4\n        /* \"#utility.yul\":14876:14943   */\n      tag_338\n      jump\t// in\n    tag_571:\n        /* \"#utility.yul\":14869:14943   */\n      swap2\n      pop\n        /* \"#utility.yul\":14952:15045   */\n      tag_572\n        /* \"#utility.yul\":15041:15044   */\n      dup3\n        /* \"#utility.yul\":14952:15045   */\n      tag_372\n      jump\t// in\n    tag_572:\n        /* \"#utility.yul\":15070:15072   */\n      0x20\n        /* \"#utility.yul\":15065:15068   */\n      dup3\n        /* \"#utility.yul\":15061:15073   */\n      add\n        /* \"#utility.yul\":15054:15073   */\n      swap1\n      pop\n        /* \"#utility.yul\":14713:15079   */\n      swap2\n      swap1\n      pop\n      jump\t// out\n        /* \"#utility.yul\":15085:15504   */\n    tag_112:\n        /* \"#utility.yul\":15251:15255   */\n      0x00\n        /* \"#utility.yul\":15289:15291   */\n      0x20\n        /* \"#utility.yul\":15278:15287   */\n      dup3\n        /* \"#utility.yul\":15274:15292   */\n      add\n        /* \"#utility.yul\":15266:15292   */\n      swap1\n      pop\n        /* \"#utility.yul\":15338:15347   */\n      dup2\n        /* \"#utility.yul\":15332:15336   */\n      dup2\n        /* \"#utility.yul\":15328:15348   */\n      sub\n        /* \"#utility.yul\":15324:15325   */\n      0x00\n        /* \"#utility.yul\":15313:15322   */\n      dup4\n        /* \"#utility.yul\":15309:15326   */\n      add\n        /* \"#utility.yul\":15302:15349   */\n      mstore\n        /* \"#utility.yul\":15366:15497   */\n      tag_574\n        /* \"#utility.yul\":15492:15496   */\n      dup2\n        /* \"#utility.yul\":15366:15497   */\n      tag_373\n      jump\t// in\n    tag_574:\n        /* \"#utility.yul\":15358:15497   */\n      swap1\n      pop\n        /* \"#utility.yul\":15085:15504   */\n      swap2\n      swap1\n      pop\n      jump\t// out\n        /* \"#utility.yul\":15510:15679   */\n    tag_374:\n        /* \"#utility.yul\":15650:15671   */\n      0x416c726561647920696e207468652067616d6500000000000000000000000000\n        /* \"#utility.yul\":15646:15647   */\n      0x00\n        /* \"#utility.yul\":15638:15644   */\n      dup3\n        /* \"#utility.yul\":15634:15648   */\n      add\n        /* \"#utility.yul\":15627:15672   */\n      mstore\n        /* \"#utility.yul\":15510:15679   */\n      pop\n      jump\t// out\n        /* \"#utility.yul\":15685:16051   */\n    tag_375:\n        /* \"#utility.yul\":15827:15830   */\n      0x00\n        /* \"#utility.yul\":15848:15915   */\n      tag_577\n        /* \"#utility.yul\":15912:15914   */\n      0x13\n        /* \"#utility.yul\":15907:15910   */\n      dup4\n        /* \"#utility.yul\":15848:15915   */\n      tag_338\n      jump\t// in\n    tag_577:\n        /* \"#utility.yul\":15841:15915   */\n      swap2\n      pop\n        /* \"#utility.yul\":15924:16017   */\n      tag_578\n        /* \"#utility.yul\":16013:16016   */\n      dup3\n        /* \"#utility.yul\":15924:16017   */\n      tag_374\n      jump\t// in\n    tag_578:\n        /* \"#utility.yul\":16042:16044   */\n      0x20\n        /* \"#utility.yul\":16037:16040   */\n      dup3\n        /* \"#utility.yul\":16033:16045   */\n      add\n        /* \"#utility.yul\":16026:16045   */\n      swap1\n      pop\n        /* \"#utility.yul\":15685:16051   */\n      swap2\n      swap1\n      pop\n      jump\t// out\n        /* \"#utility.yul\":16057:16476   */\n    tag_115:\n        /* \"#utility.yul\":16223:16227   */\n      0x00\n        /* \"#utility.yul\":16261:16263   */\n      0x20\n        /* \"#utility.yul\":16250:16259   */\n      dup3\n        /* \"#utility.yul\":16246:16264   */\n      add\n        /* \"#utility.yul\":16238:16264   */\n      swap1\n      pop\n        /* \"#utility.yul\":16310:16319   */\n      dup2\n        /* \"#utility.yul\":16304:16308   */\n      dup2\n        /* \"#utility.yul\":16300:16320   */\n      sub\n        /* \"#utility.yul\":16296:16297   */\n      0x00\n        /* \"#utility.yul\":16285:16294   */\n      dup4\n        /* \"#utility.yul\":16281:16298   */\n      add\n        /* \"#utility.yul\":16274:16321   */\n      mstore\n        /* \"#utility.yul\":16338:16469   */\n      tag_580\n        /* \"#utility.yul\":16464:16468   */\n      dup2\n        /* \"#utility.yul\":16338:16469   */\n      tag_375\n      jump\t// in\n    tag_580:\n        /* \"#utility.yul\":16330:16469   */\n      swap1\n      pop\n        /* \"#utility.yul\":16057:16476   */\n      swap2\n      swap1\n      pop\n      jump\t// out\n        /* \"#utility.yul\":16482:16646   */\n    tag_376:\n        /* \"#utility.yul\":16622:16638   */\n      0x4e6f2061637469766520766f7465000000000000000000000000000000000000\n        /* \"#utility.yul\":16618:16619   */\n      0x00\n        /* \"#utility.yul\":16610:16616   */\n      dup3\n        /* \"#utility.yul\":16606:16620   */\n      add\n        /* \"#utility.yul\":16599:16639   */\n      mstore\n        /* \"#utility.yul\":16482:16646   */\n      pop\n      jump\t// out\n        /* \"#utility.yul\":16652:17018   */\n    tag_377:\n        /* \"#utility.yul\":16794:16797   */\n      0x00\n        /* \"#utility.yul\":16815:16882   */\n      tag_583\n        /* \"#utility.yul\":16879:16881   */\n      0x0e\n        /* \"#utility.yul\":16874:16877   */\n      dup4\n        /* \"#utility.yul\":16815:16882   */\n      tag_338\n      jump\t// in\n    tag_583:\n        /* \"#utility.yul\":16808:16882   */\n      swap2\n      pop\n        /* \"#utility.yul\":16891:16984   */\n      tag_584\n        /* \"#utility.yul\":16980:16983   */\n      dup3\n        /* \"#utility.yul\":16891:16984   */\n      tag_376\n      jump\t// in\n    tag_584:\n        /* \"#utility.yul\":17009:17011   */\n      0x20\n        /* \"#utility.yul\":17004:17007   */\n      dup3\n        /* \"#utility.yul\":17000:17012   */\n      add\n        /* \"#utility.yul\":16993:17012   */\n      swap1\n      pop\n        /* \"#utility.yul\":16652:17018   */\n      swap2\n      swap1\n      pop\n      jump\t// out\n        /* \"#utility.yul\":17024:17443   */\n    tag_140:\n        /* \"#utility.yul\":17190:17194   */\n      0x00\n        /* \"#utility.yul\":17228:17230   */\n      0x20\n        /* \"#utility.yul\":17217:17226   */\n      dup3\n        /* \"#utility.yul\":17213:17231   */\n      add\n        /* \"#utility.yul\":17205:17231   */\n      swap1\n      pop\n        /* \"#utility.yul\":17277:17286   */\n      dup2\n        /* \"#utility.yul\":17271:17275   */\n      dup2\n        /* \"#utility.yul\":17267:17287   */\n      sub\n        /* \"#utility.yul\":17263:17264   */\n      0x00\n        /* \"#utility.yul\":17252:17261   */\n      dup4\n        /* \"#utility.yul\":17248:17265   */\n      add\n        /* \"#utility.yul\":17241:17288   */\n      mstore\n        /* \"#utility.yul\":17305:17436   */\n      tag_586\n        /* \"#utility.yul\":17431:17435   */\n      dup2\n        /* \"#utility.yul\":17305:17436   */\n      tag_377\n      jump\t// in\n    tag_586:\n        /* \"#utility.yul\":17297:17436   */\n      swap1\n      pop\n        /* \"#utility.yul\":17024:17443   */\n      swap2\n      swap1\n      pop\n      jump\t// out\n        /* \"#utility.yul\":17449:17628   */\n    tag_378:\n        /* \"#utility.yul\":17589:17620   */\n      0x566f7465206475726174696f6e20686173206e6f7420656c6170736564000000\n        /* \"#utility.yul\":17585:17586   */\n      0x00\n        /* \"#utility.yul\":17577:17583   */\n      dup3\n        /* \"#utility.yul\":17573:17587   */\n      add\n        /* \"#utility.yul\":17566:17621   */\n      mstore\n        /* \"#utility.yul\":17449:17628   */\n      pop\n      jump\t// out\n        /* \"#utility.yul\":17634:18000   */\n    tag_379:\n        /* \"#utility.yul\":17776:17779   */\n      0x00\n        /* \"#utility.yul\":17797:17864   */\n      tag_589\n        /* \"#utility.yul\":17861:17863   */\n      0x1d\n        /* \"#utility.yul\":17856:17859   */\n      dup4\n        /* \"#utility.yul\":17797:17864   */\n      tag_338\n      jump\t// in\n    tag_589:\n        /* \"#utility.yul\":17790:17864   */\n      swap2\n      pop\n        /* \"#utility.yul\":17873:17966   */\n      tag_590\n        /* \"#utility.yul\":17962:17965   */\n      dup3\n        /* \"#utility.yul\":17873:17966   */\n      tag_378\n      jump\t// in\n    tag_590:\n        /* \"#utility.yul\":17991:17993   */\n      0x20\n        /* \"#utility.yul\":17986:17989   */\n      dup3\n        /* \"#utility.yul\":17982:17994   */\n      add\n        /* \"#utility.yul\":17975:17994   */\n      swap1\n      pop\n        /* \"#utility.yul\":17634:18000   */\n      swap2\n      swap1\n      pop\n      jump\t// out\n        /* \"#utility.yul\":18006:18425   */\n    tag_144:\n        /* \"#utility.yul\":18172:18176   */\n      0x00\n        /* \"#utility.yul\":18210:18212   */\n      0x20\n        /* \"#utility.yul\":18199:18208   */\n      dup3\n        /* \"#utility.yul\":18195:18213   */\n      add\n        /* \"#utility.yul\":18187:18213   */\n      swap1\n      pop\n        /* \"#utility.yul\":18259:18268   */\n      dup2\n        /* \"#utility.yul\":18253:18257   */\n      dup2\n        /* \"#utility.yul\":18249:18269   */\n      sub\n        /* \"#utility.yul\":18245:18246   */\n      0x00\n        /* \"#utility.yul\":18234:18243   */\n      dup4\n        /* \"#utility.yul\":18230:18247   */\n      add\n        /* \"#utility.yul\":18223:18270   */\n      mstore\n        /* \"#utility.yul\":18287:18418   */\n      tag_592\n        /* \"#utility.yul\":18413:18417   */\n      dup2\n        /* \"#utility.yul\":18287:18418   */\n      tag_379\n      jump\t// in\n    tag_592:\n        /* \"#utility.yul\":18279:18418   */\n      swap1\n      pop\n        /* \"#utility.yul\":18006:18425   */\n      swap2\n      swap1\n      pop\n      jump\t// out\n        /* \"#utility.yul\":18431:18655   */\n    tag_380:\n        /* \"#utility.yul\":18571:18605   */\n      0x4f6e6c792067616d652063726561746f722063616e2064656c65746520746865\n        /* \"#utility.yul\":18567:18568   */\n      0x00\n        /* \"#utility.yul\":18559:18565   */\n      dup3\n        /* \"#utility.yul\":18555:18569   */\n      add\n        /* \"#utility.yul\":18548:18606   */\n      mstore\n        /* \"#utility.yul\":18640:18647   */\n      0x2067616d65000000000000000000000000000000000000000000000000000000\n        /* \"#utility.yul\":18635:18637   */\n      0x20\n        /* \"#utility.yul\":18627:18633   */\n      dup3\n        /* \"#utility.yul\":18623:18638   */\n      add\n        /* \"#utility.yul\":18616:18648   */\n      mstore\n        /* \"#utility.yul\":18431:18655   */\n      pop\n      jump\t// out\n        /* \"#utility.yul\":18661:19027   */\n    tag_381:\n        /* \"#utility.yul\":18803:18806   */\n      0x00\n        /* \"#utility.yul\":18824:18891   */\n      tag_595\n        /* \"#utility.yul\":18888:18890   */\n      0x25\n        /* \"#utility.yul\":18883:18886   */\n      dup4\n        /* \"#utility.yul\":18824:18891   */\n      tag_338\n      jump\t// in\n    tag_595:\n        /* \"#utility.yul\":18817:18891   */\n      swap2\n      pop\n        /* \"#utility.yul\":18900:18993   */\n      tag_596\n        /* \"#utility.yul\":18989:18992   */\n      dup3\n        /* \"#utility.yul\":18900:18993   */\n      tag_380\n      jump\t// in\n    tag_596:\n        /* \"#utility.yul\":19018:19020   */\n      0x40\n        /* \"#utility.yul\":19013:19016   */\n      dup3\n        /* \"#utility.yul\":19009:19021   */\n      add\n        /* \"#utility.yul\":19002:19021   */\n      swap1\n      pop\n        /* \"#utility.yul\":18661:19027   */\n      swap2\n      swap1\n      pop\n      jump\t// out\n        /* \"#utility.yul\":19033:19452   */\n    tag_155:\n        /* \"#utility.yul\":19199:19203   */\n      0x00\n        /* \"#utility.yul\":19237:19239   */\n      0x20\n        /* \"#utility.yul\":19226:19235   */\n      dup3\n        /* \"#utility.yul\":19222:19240   */\n      add\n        /* \"#utility.yul\":19214:19240   */\n      swap1\n      pop\n        /* \"#utility.yul\":19286:19295   */\n      dup2\n        /* \"#utility.yul\":19280:19284   */\n      dup2\n        /* \"#utility.yul\":19276:19296   */\n      sub\n        /* \"#utility.yul\":19272:19273   */\n      0x00\n        /* \"#utility.yul\":19261:19270   */\n      dup4\n        /* \"#utility.yul\":19257:19274   */\n      add\n        /* \"#utility.yul\":19250:19297   */\n      mstore\n        /* \"#utility.yul\":19314:19445   */\n      tag_598\n        /* \"#utility.yul\":19440:19444   */\n      dup2\n        /* \"#utility.yul\":19314:19445   */\n      tag_381\n      jump\t// in\n    tag_598:\n        /* \"#utility.yul\":19306:19445   */\n      swap1\n      pop\n        /* \"#utility.yul\":19033:19452   */\n      swap2\n      swap1\n      pop\n      jump\t// out\n        /* \"#utility.yul\":19458:19685   */\n    tag_382:\n        /* \"#utility.yul\":19598:19632   */\n      0x412067616d652077697468207468652063686f73656e20494420616c72656164\n        /* \"#utility.yul\":19594:19595   */\n      0x00\n        /* \"#utility.yul\":19586:19592   */\n      dup3\n        /* \"#utility.yul\":19582:19596   */\n      add\n        /* \"#utility.yul\":19575:19633   */\n      mstore\n        /* \"#utility.yul\":19667:19677   */\n      0x7920657869737473000000000000000000000000000000000000000000000000\n        /* \"#utility.yul\":19662:19664   */\n      0x20\n        /* \"#utility.yul\":19654:19660   */\n      dup3\n        /* \"#utility.yul\":19650:19665   */\n      add\n        /* \"#utility.yul\":19643:19678   */\n      mstore\n        /* \"#utility.yul\":19458:19685   */\n      pop\n      jump\t// out\n        /* \"#utility.yul\":19691:20057   */\n    tag_383:\n        /* \"#utility.yul\":19833:19836   */\n      0x00\n        /* \"#utility.yul\":19854:19921   */\n      tag_601\n        /* \"#utility.yul\":19918:19920   */\n      0x28\n        /* \"#utility.yul\":19913:19916   */\n      dup4\n        /* \"#utility.yul\":19854:19921   */\n      tag_338\n      jump\t// in\n    tag_601:\n        /* \"#utility.yul\":19847:19921   */\n      swap2\n      pop\n        /* \"#utility.yul\":19930:20023   */\n      tag_602\n        /* \"#utility.yul\":20019:20022   */\n      dup3\n        /* \"#utility.yul\":19930:20023   */\n      tag_382\n      jump\t// in\n    tag_602:\n        /* \"#utility.yul\":20048:20050   */\n      0x40\n        /* \"#utility.yul\":20043:20046   */\n      dup3\n        /* \"#utility.yul\":20039:20051   */\n      add\n        /* \"#utility.yul\":20032:20051   */\n      swap1\n      pop\n        /* \"#utility.yul\":19691:20057   */\n      swap2\n      swap1\n      pop\n      jump\t// out\n        /* \"#utility.yul\":20063:20482   */\n    tag_161:\n        /* \"#utility.yul\":20229:20233   */\n      0x00\n        /* \"#utility.yul\":20267:20269   */\n      0x20\n        /* \"#utility.yul\":20256:20265   */\n      dup3\n        /* \"#utility.yul\":20252:20270   */\n      add\n        /* \"#utility.yul\":20244:20270   */\n      swap1\n      pop\n        /* \"#utility.yul\":20316:20325   */\n      dup2\n        /* \"#utility.yul\":20310:20314   */\n      dup2\n        /* \"#utility.yul\":20306:20326   */\n      sub\n        /* \"#utility.yul\":20302:20303   */\n      0x00\n        /* \"#utility.yul\":20291:20300   */\n      dup4\n        /* \"#utility.yul\":20287:20304   */\n      add\n        /* \"#utility.yul\":20280:20327   */\n      mstore\n        /* \"#utility.yul\":20344:20475   */\n      tag_604\n        /* \"#utility.yul\":20470:20474   */\n      dup2\n        /* \"#utility.yul\":20344:20475   */\n      tag_383\n      jump\t// in\n    tag_604:\n        /* \"#utility.yul\":20336:20475   */\n      swap1\n      pop\n        /* \"#utility.yul\":20063:20482   */\n      swap2\n      swap1\n      pop\n      jump\t// out\n        /* \"#utility.yul\":20488:20735   */\n    tag_384:\n        /* \"#utility.yul\":20628:20662   */\n      0x4174206c65617374206f6e6520706c6179657220726571756972656420616e64\n        /* \"#utility.yul\":20624:20625   */\n      0x00\n        /* \"#utility.yul\":20616:20622   */\n      dup3\n        /* \"#utility.yul\":20612:20626   */\n      add\n        /* \"#utility.yul\":20605:20663   */\n      mstore\n        /* \"#utility.yul\":20697:20727   */\n      0x206174206d6f7374204d41585f504c415945525320616c6c6f77656400000000\n        /* \"#utility.yul\":20692:20694   */\n      0x20\n        /* \"#utility.yul\":20684:20690   */\n      dup3\n        /* \"#utility.yul\":20680:20695   */\n      add\n        /* \"#utility.yul\":20673:20728   */\n      mstore\n        /* \"#utility.yul\":20488:20735   */\n      pop\n      jump\t// out\n        /* \"#utility.yul\":20741:21107   */\n    tag_385:\n        /* \"#utility.yul\":20883:20886   */\n      0x00\n        /* \"#utility.yul\":20904:20971   */\n      tag_607\n        /* \"#utility.yul\":20968:20970   */\n      0x3c\n        /* \"#utility.yul\":20963:20966   */\n      dup4\n        /* \"#utility.yul\":20904:20971   */\n      tag_338\n      jump\t// in\n    tag_607:\n        /* \"#utility.yul\":20897:20971   */\n      swap2\n      pop\n        /* \"#utility.yul\":20980:21073   */\n      tag_608\n        /* \"#utility.yul\":21069:21072   */\n      dup3\n        /* \"#utility.yul\":20980:21073   */\n      tag_384\n      jump\t// in\n    tag_608:\n        /* \"#utility.yul\":21098:21100   */\n      0x40\n        /* \"#utility.yul\":21093:21096   */\n      dup3\n        /* \"#utility.yul\":21089:21101   */\n      add\n        /* \"#utility.yul\":21082:21101   */\n      swap1\n      pop\n        /* \"#utility.yul\":20741:21107   */\n      swap2\n      swap1\n      pop\n      jump\t// out\n        /* \"#utility.yul\":21113:21532   */\n    tag_165:\n        /* \"#utility.yul\":21279:21283   */\n      0x00\n        /* \"#utility.yul\":21317:21319   */\n      0x20\n        /* \"#utility.yul\":21306:21315   */\n      dup3\n        /* \"#utility.yul\":21302:21320   */\n      add\n        /* \"#utility.yul\":21294:21320   */\n      swap1\n      pop\n        /* \"#utility.yul\":21366:21375   */\n      dup2\n        /* \"#utility.yul\":21360:21364   */\n      dup2\n        /* \"#utility.yul\":21356:21376   */\n      sub\n        /* \"#utility.yul\":21352:21353   */\n      0x00\n        /* \"#utility.yul\":21341:21350   */\n      dup4\n        /* \"#utility.yul\":21337:21354   */\n      add\n        /* \"#utility.yul\":21330:21377   */\n      mstore\n        /* \"#utility.yul\":21394:21525   */\n      tag_610\n        /* \"#utility.yul\":21520:21524   */\n      dup2\n        /* \"#utility.yul\":21394:21525   */\n      tag_385\n      jump\t// in\n    tag_610:\n        /* \"#utility.yul\":21386:21525   */\n      swap1\n      pop\n        /* \"#utility.yul\":21113:21532   */\n      swap2\n      swap1\n      pop\n      jump\t// out\n        /* \"#utility.yul\":21538:21715   */\n    tag_386:\n        /* \"#utility.yul\":21678:21707   */\n      0x4e6f20667265652067616d6520736c6f7420617661696c61626c650000000000\n        /* \"#utility.yul\":21674:21675   */\n      0x00\n        /* \"#utility.yul\":21666:21672   */\n      dup3\n        /* \"#utility.yul\":21662:21676   */\n      add\n        /* \"#utility.yul\":21655:21708   */\n      mstore\n        /* \"#utility.yul\":21538:21715   */\n      pop\n      jump\t// out\n        /* \"#utility.yul\":21721:22087   */\n    tag_387:\n        /* \"#utility.yul\":21863:21866   */\n      0x00\n        /* \"#utility.yul\":21884:21951   */\n      tag_613\n        /* \"#utility.yul\":21948:21950   */\n      0x1b\n        /* \"#utility.yul\":21943:21946   */\n      dup4\n        /* \"#utility.yul\":21884:21951   */\n      tag_338\n      jump\t// in\n    tag_613:\n        /* \"#utility.yul\":21877:21951   */\n      swap2\n      pop\n        /* \"#utility.yul\":21960:22053   */\n      tag_614\n        /* \"#utility.yul\":22049:22052   */\n      dup3\n        /* \"#utility.yul\":21960:22053   */\n      tag_386\n      jump\t// in\n    tag_614:\n        /* \"#utility.yul\":22078:22080   */\n      0x20\n        /* \"#utility.yul\":22073:22076   */\n      dup3\n        /* \"#utility.yul\":22069:22081   */\n      add\n        /* \"#utility.yul\":22062:22081   */\n      swap1\n      pop\n        /* \"#utility.yul\":21721:22087   */\n      swap2\n      swap1\n      pop\n      jump\t// out\n        /* \"#utility.yul\":22093:22512   */\n    tag_170:\n        /* \"#utility.yul\":22259:22263   */\n      0x00\n        /* \"#utility.yul\":22297:22299   */\n      0x20\n        /* \"#utility.yul\":22286:22295   */\n      dup3\n        /* \"#utility.yul\":22282:22300   */\n      add\n        /* \"#utility.yul\":22274:22300   */\n      swap1\n      pop\n        /* \"#utility.yul\":22346:22355   */\n      dup2\n        /* \"#utility.yul\":22340:22344   */\n      dup2\n        /* \"#utility.yul\":22336:22356   */\n      sub\n        /* \"#utility.yul\":22332:22333   */\n      0x00\n        /* \"#utility.yul\":22321:22330   */\n      dup4\n        /* \"#utility.yul\":22317:22334   */\n      add\n        /* \"#utility.yul\":22310:22357   */\n      mstore\n        /* \"#utility.yul\":22374:22505   */\n      tag_616\n        /* \"#utility.yul\":22500:22504   */\n      dup2\n        /* \"#utility.yul\":22374:22505   */\n      tag_387\n      jump\t// in\n    tag_616:\n        /* \"#utility.yul\":22366:22505   */\n      swap1\n      pop\n        /* \"#utility.yul\":22093:22512   */\n      swap2\n      swap1\n      pop\n      jump\t// out\n        /* \"#utility.yul\":22518:22698   */\n    tag_173:\n        /* \"#utility.yul\":22566:22643   */\n      0x4e487b7100000000000000000000000000000000000000000000000000000000\n        /* \"#utility.yul\":22563:22564   */\n      0x00\n        /* \"#utility.yul\":22556:22644   */\n      mstore\n        /* \"#utility.yul\":22663:22667   */\n      0x32\n        /* \"#utility.yul\":22660:22661   */\n      0x04\n        /* \"#utility.yul\":22653:22668   */\n      mstore\n        /* \"#utility.yul\":22687:22691   */\n      0x24\n        /* \"#utility.yul\":22684:22685   */\n      0x00\n        /* \"#utility.yul\":22677:22692   */\n      revert\n        /* \"#utility.yul\":22704:22845   */\n    tag_388:\n        /* \"#utility.yul\":22753:22757   */\n      0x00\n        /* \"#utility.yul\":22776:22779   */\n      dup2\n        /* \"#utility.yul\":22768:22779   */\n      swap1\n      pop\n        /* \"#utility.yul\":22799:22802   */\n      dup2\n        /* \"#utility.yul\":22796:22797   */\n      0x00\n        /* \"#utility.yul\":22789:22803   */\n      mstore\n        /* \"#utility.yul\":22833:22837   */\n      0x20\n        /* \"#utility.yul\":22830:22831   */\n      0x00\n        /* \"#utility.yul\":22820:22838   */\n      keccak256\n        /* \"#utility.yul\":22812:22838   */\n      swap1\n      pop\n        /* \"#utility.yul\":22704:22845   */\n      swap2\n      swap1\n      pop\n      jump\t// out\n        /* \"#utility.yul\":22851:22944   */\n    tag_389:\n        /* \"#utility.yul\":22888:22894   */\n      0x00\n        /* \"#utility.yul\":22935:22937   */\n      0x20\n        /* \"#utility.yul\":22930:22932   */\n      0x1f\n        /* \"#utility.yul\":22923:22928   */\n      dup4\n        /* \"#utility.yul\":22919:22933   */\n      add\n        /* \"#utility.yul\":22915:22938   */\n      div\n        /* \"#utility.yul\":22905:22938   */\n      swap1\n      pop\n        /* \"#utility.yul\":22851:22944   */\n      swap2\n      swap1\n      pop\n      jump\t// out\n        /* \"#utility.yul\":22950:23057   */\n    tag_390:\n        /* \"#utility.yul\":22994:23002   */\n      0x00\n        /* \"#utility.yul\":23044:23049   */\n      dup3\n        /* \"#utility.yul\":23038:23042   */\n      dup3\n        /* \"#utility.yul\":23034:23050   */\n      shl\n        /* \"#utility.yul\":23013:23050   */\n      swap1\n      pop\n        /* \"#utility.yul\":22950:23057   */\n      swap3\n      swap2\n      pop\n      pop\n      jump\t// out\n        /* \"#utility.yul\":23063:23456   */\n    tag_391:\n        /* \"#utility.yul\":23132:23138   */\n      0x00\n        /* \"#utility.yul\":23182:23183   */\n      0x08\n        /* \"#utility.yul\":23170:23180   */\n      dup4\n        /* \"#utility.yul\":23166:23184   */\n      mul\n        /* \"#utility.yul\":23205:23302   */\n      tag_622\n        /* \"#utility.yul\":23235:23301   */\n      0xffffffffffffffffffffffffffffffffffffffffffffffffffffffffffffffff\n        /* \"#utility.yul\":23224:23233   */\n      dup3\n        /* \"#utility.yul\":23205:23302   */\n      tag_390\n      jump\t// in\n    tag_622:\n        /* \"#utility.yul\":23323:23362   */\n      tag_623\n        /* \"#utility.yul\":23353:23361   */\n      dup7\n        /* \"#utility.yul\":23342:23351   */\n      dup4\n        /* \"#utility.yul\":23323:23362   */\n      tag_390\n      jump\t// in\n    tag_623:\n        /* \"#utility.yul\":23311:23362   */\n      swap6\n      pop\n        /* \"#utility.yul\":23395:23399   */\n      dup1\n        /* \"#utility.yul\":23391:23400   */\n      not\n        /* \"#utility.yul\":23384:23389   */\n      dup5\n        /* \"#utility.yul\":23380:23401   */\n      and\n        /* \"#utility.yul\":23371:23401   */\n      swap4\n      pop\n        /* \"#utility.yul\":23444:23448   */\n      dup1\n        /* \"#utility.yul\":23434:23442   */\n      dup7\n        /* \"#utility.yul\":23430:23449   */\n      and\n        /* \"#utility.yul\":23423:23428   */\n      dup5\n        /* \"#utility.yul\":23420:23450   */\n      or\n        /* \"#utility.yul\":23410:23450   */\n      swap3\n      pop\n        /* \"#utility.yul\":23139:23456   */\n      pop\n      pop\n        /* \"#utility.yul\":23063:23456   */\n      swap4\n      swap3\n      pop\n      pop\n      pop\n      jump\t// out\n        /* \"#utility.yul\":23462:23522   */\n    tag_392:\n        /* \"#utility.yul\":23490:23493   */\n      0x00\n        /* \"#utility.yul\":23511:23516   */\n      dup2\n        /* \"#utility.yul\":23504:23516   */\n      swap1\n      pop\n        /* \"#utility.yul\":23462:23522   */\n      swap2\n      swap1\n      pop\n      jump\t// out\n        /* \"#utility.yul\":23528:23670   */\n    tag_393:\n        /* \"#utility.yul\":23578:23587   */\n      0x00\n        /* \"#utility.yul\":23611:23664   */\n      tag_626\n        /* \"#utility.yul\":23629:23663   */\n      tag_627\n        /* \"#utility.yul\":23638:23662   */\n      tag_628\n        /* \"#utility.yul\":23656:23661   */\n      dup5\n        /* \"#utility.yul\":23638:23662   */\n      tag_334\n      jump\t// in\n    tag_628:\n        /* \"#utility.yul\":23629:23663   */\n      tag_392\n      jump\t// in\n    tag_627:\n        /* \"#utility.yul\":23611:23664   */\n      tag_334\n      jump\t// in\n    tag_626:\n        /* \"#utility.yul\":23598:23664   */\n      swap1\n      pop\n        /* \"#utility.yul\":23528:23670   */\n      swap2\n      swap1\n      pop\n      jump\t// out\n        /* \"#utility.yul\":23676:23751   */\n    tag_394:\n        /* \"#utility.yul\":23719:23722   */\n      0x00\n        /* \"#utility.yul\":23740:23745   */\n      dup2\n        /* \"#utility.yul\":23733:23745   */\n      swap1\n      pop\n        /* \"#utility.yul\":23676:23751   */\n      swap2\n      swap1\n      pop\n      jump\t// out\n        /* \"#utility.yul\":23757:24026   */\n    tag_395:\n        /* \"#utility.yul\":23867:23906   */\n      tag_631\n        /* \"#utility.yul\":23898:23905   */\n      dup4\n        /* \"#utility.yul\":23867:23906   */\n      tag_393\n      jump\t// in\n    tag_631:\n        /* \"#utility.yul\":23928:24019   */\n      tag_632\n        /* \"#utility.yul\":23977:24018   */\n      tag_633\n        /* \"#utility.yul\":24001:24017   */\n      dup3\n        /* \"#utility.yul\":23977:24018   */\n      tag_394\n      jump\t// in\n    tag_633:\n        /* \"#utility.yul\":23969:23975   */\n      dup5\n        /* \"#utility.yul\":23962:23966   */\n      dup5\n        /* \"#utility.yul\":23956:23967   */\n      sload\n        /* \"#utility.yul\":23928:24019   */\n      tag_391\n      jump\t// in\n    tag_632:\n        /* \"#utility.yul\":23922:23926   */\n      dup3\n        /* \"#utility.yul\":23915:24020   */\n      sstore\n        /* \"#utility.yul\":23833:24026   */\n      pop\n        /* \"#utility.yul\":23757:24026   */\n      pop\n      pop\n      pop\n      jump\t// out\n        /* \"#utility.yul\":24032:24105   */\n    tag_396:\n        /* \"#utility.yul\":24077:24080   */\n      0x00\n        /* \"#utility.yul\":24032:24105   */\n      swap1\n      jump\t// out\n        /* \"#utility.yul\":24111:24300   */\n    tag_397:\n        /* \"#utility.yul\":24188:24220   */\n      tag_636\n      tag_396\n      jump\t// in\n    tag_636:\n        /* \"#utility.yul\":24229:24294   */\n      tag_637\n        /* \"#utility.yul\":24287:24293   */\n      dup2\n        /* \"#utility.yul\":24279:24285   */\n      dup5\n        /* \"#utility.yul\":24273:24277   */\n      dup5\n        /* \"#utility.yul\":24229:24294   */\n      tag_395\n      jump\t// in\n    tag_637:\n        /* \"#utility.yul\":24164:24300   */\n      pop\n        /* \"#utility.yul\":24111:24300   */\n      pop\n      pop\n      jump\t// out\n        /* \"#utility.yul\":24306:24492   */\n    tag_398:\n        /* \"#utility.yul\":24366:24486   */\n    tag_639:\n        /* \"#utility.yul\":24383:24386   */\n      dup2\n        /* \"#utility.yul\":24376:24381   */\n      dup2\n        /* \"#utility.yul\":24373:24387   */\n      lt\n        /* \"#utility.yul\":24366:24486   */\n      iszero\n      tag_641\n      jumpi\n        /* \"#utility.yul\":24437:24476   */\n      tag_642\n        /* \"#utility.yul\":24474:24475   */\n      0x00\n        /* \"#utility.yul\":24467:24472   */\n      dup3\n        /* \"#utility.yul\":24437:24476   */\n      tag_397\n      jump\t// in\n    tag_642:\n        /* \"#utility.yul\":24410:24411   */\n      0x01\n        /* \"#utility.yul\":24403:24408   */\n      dup2\n        /* \"#utility.yul\":24399:24412   */\n      add\n        /* \"#utility.yul\":24390:24412   */\n      swap1\n      pop\n        /* \"#utility.yul\":24366:24486   */\n      jump(tag_639)\n    tag_641:\n        /* \"#utility.yul\":24306:24492   */\n      pop\n      pop\n      jump\t// out\n        /* \"#utility.yul\":24498:25041   */\n    tag_399:\n        /* \"#utility.yul\":24599:24601   */\n      0x1f\n        /* \"#utility.yul\":24594:24597   */\n      dup3\n        /* \"#utility.yul\":24591:24602   */\n      gt\n        /* \"#utility.yul\":24588:25034   */\n      iszero\n      tag_644\n      jumpi\n        /* \"#utility.yul\":24633:24671   */\n      tag_645\n        /* \"#utility.yul\":24665:24670   */\n      dup2\n        /* \"#utility.yul\":24633:24671   */\n      tag_388\n      jump\t// in\n    tag_645:\n        /* \"#utility.yul\":24717:24746   */\n      tag_646\n        /* \"#utility.yul\":24735:24745   */\n      dup5\n        /* \"#utility.yul\":24717:24746   */\n      tag_389\n      jump\t// in\n    tag_646:\n        /* \"#utility.yul\":24707:24715   */\n      dup2\n        /* \"#utility.yul\":24703:24747   */\n      add\n        /* \"#utility.yul\":24900:24902   */\n      0x20\n        /* \"#utility.yul\":24888:24898   */\n      dup6\n        /* \"#utility.yul\":24885:24903   */\n      lt\n        /* \"#utility.yul\":24882:24931   */\n      iszero\n      tag_647\n      jumpi\n        /* \"#utility.yul\":24921:24929   */\n      dup2\n        /* \"#utility.yul\":24906:24929   */\n      swap1\n      pop\n        /* \"#utility.yul\":24882:24931   */\n    tag_647:\n        /* \"#utility.yul\":24944:25024   */\n      tag_648\n        /* \"#utility.yul\":25000:25022   */\n      tag_649\n        /* \"#utility.yul\":25018:25021   */\n      dup6\n        /* \"#utility.yul\":25000:25022   */\n      tag_389\n      jump\t// in\n    tag_649:\n        /* \"#utility.yul\":24990:24998   */\n      dup4\n        /* \"#utility.yul\":24986:25023   */\n      add\n        /* \"#utility.yul\":24973:24984   */\n      dup3\n        /* \"#utility.yul\":24944:25024   */\n      tag_398\n      jump\t// in\n    tag_648:\n        /* \"#utility.yul\":24603:25034   */\n      pop\n      pop\n        /* \"#utility.yul\":24588:25034   */\n    tag_644:\n        /* \"#utility.yul\":24498:25041   */\n      pop\n      pop\n      pop\n      jump\t// out\n        /* \"#utility.yul\":25047:25164   */\n    tag_400:\n        /* \"#utility.yul\":25101:25109   */\n      0x00\n        /* \"#utility.yul\":25151:25156   */\n      dup3\n        /* \"#utility.yul\":25145:25149   */\n      dup3\n        /* \"#utility.yul\":25141:25157   */\n      shr\n        /* \"#utility.yul\":25120:25157   */\n      swap1\n      pop\n        /* \"#utility.yul\":25047:25164   */\n      swap3\n      swap2\n      pop\n      pop\n      jump\t// out\n        /* \"#utility.yul\":25170:25339   */\n    tag_401:\n        /* \"#utility.yul\":25214:25220   */\n      0x00\n        /* \"#utility.yul\":25247:25298   */\n      tag_652\n        /* \"#utility.yul\":25295:25296   */\n      0x00\n        /* \"#utility.yul\":25291:25297   */\n      not\n        /* \"#utility.yul\":25283:25288   */\n      dup5\n        /* \"#utility.yul\":25280:25281   */\n      0x08\n        /* \"#utility.yul\":25276:25289   */\n      mul\n        /* \"#utility.yul\":25247:25298   */\n      tag_400\n      jump\t// in\n    tag_652:\n        /* \"#utility.yul\":25243:25299   */\n      not\n        /* \"#utility.yul\":25328:25332   */\n      dup1\n        /* \"#utility.yul\":25322:25326   */\n      dup4\n        /* \"#utility.yul\":25318:25333   */\n      and\n        /* \"#utility.yul\":25308:25333   */\n      swap2\n      pop\n        /* \"#utility.yul\":25221:25339   */\n      pop\n        /* \"#utility.yul\":25170:25339   */\n      swap3\n      swap2\n      pop\n      pop\n      jump\t// out\n        /* \"#utility.yul\":25344:25639   */\n    tag_402:\n        /* \"#utility.yul\":25420:25424   */\n      0x00\n        /* \"#utility.yul\":25566:25595   */\n      tag_654\n        /* \"#utility.yul\":25591:25594   */\n      dup4\n        /* \"#utility.yul\":25585:25589   */\n      dup4\n        /* \"#utility.yul\":25566:25595   */\n      tag_401\n      jump\t// in\n    tag_654:\n        /* \"#utility.yul\":25558:25595   */\n      swap2\n      pop\n        /* \"#utility.yul\":25628:25631   */\n      dup3\n        /* \"#utility.yul\":25625:25626   */\n      0x02\n        /* \"#utility.yul\":25621:25632   */\n      mul\n        /* \"#utility.yul\":25615:25619   */\n      dup3\n        /* \"#utility.yul\":25612:25633   */\n      or\n        /* \"#utility.yul\":25604:25633   */\n      swap1\n      pop\n        /* \"#utility.yul\":25344:25639   */\n      swap3\n      swap2\n      pop\n      pop\n      jump\t// out\n        /* \"#utility.yul\":25644:27039   */\n    tag_176:\n        /* \"#utility.yul\":25761:25798   */\n      tag_656\n        /* \"#utility.yul\":25794:25797   */\n      dup3\n        /* \"#utility.yul\":25761:25798   */\n      tag_337\n      jump\t// in\n    tag_656:\n        /* \"#utility.yul\":25863:25881   */\n      0xffffffffffffffff\n        /* \"#utility.yul\":25855:25861   */\n      dup2\n        /* \"#utility.yul\":25852:25882   */\n      gt\n        /* \"#utility.yul\":25849:25905   */\n      iszero\n      tag_657\n      jumpi\n        /* \"#utility.yul\":25885:25903   */\n      tag_658\n      tag_189\n      jump\t// in\n    tag_658:\n        /* \"#utility.yul\":25849:25905   */\n    tag_657:\n        /* \"#utility.yul\":25929:25967   */\n      tag_659\n        /* \"#utility.yul\":25961:25965   */\n      dup3\n        /* \"#utility.yul\":25955:25966   */\n      sload\n        /* \"#utility.yul\":25929:25967   */\n      tag_63\n      jump\t// in\n    tag_659:\n        /* \"#utility.yul\":26014:26081   */\n      tag_660\n        /* \"#utility.yul\":26074:26080   */\n      dup3\n        /* \"#utility.yul\":26066:26072   */\n      dup3\n        /* \"#utility.yul\":26060:26064   */\n      dup6\n        /* \"#utility.yul\":26014:26081   */\n      tag_399\n      jump\t// in\n    tag_660:\n        /* \"#utility.yul\":26108:26109   */\n      0x00\n        /* \"#utility.yul\":26132:26136   */\n      0x20\n        /* \"#utility.yul\":26119:26136   */\n      swap1\n      pop\n        /* \"#utility.yul\":26164:26166   */\n      0x1f\n        /* \"#utility.yul\":26156:26162   */\n      dup4\n        /* \"#utility.yul\":26153:26167   */\n      gt\n        /* \"#utility.yul\":26181:26182   */\n      0x01\n        /* \"#utility.yul\":26176:26794   */\n      dup2\n      eq\n      tag_662\n      jumpi\n        /* \"#utility.yul\":26838:26839   */\n      0x00\n        /* \"#utility.yul\":26855:26861   */\n      dup5\n        /* \"#utility.yul\":26852:26929   */\n      iszero\n      tag_663\n      jumpi\n        /* \"#utility.yul\":26904:26913   */\n      dup3\n        /* \"#utility.yul\":26899:26902   */\n      dup8\n        /* \"#utility.yul\":26895:26914   */\n      add\n        /* \"#utility.yul\":26889:26915   */\n      mload\n        /* \"#utility.yul\":26880:26915   */\n      swap1\n      pop\n        /* \"#utility.yul\":26852:26929   */\n    tag_663:\n        /* \"#utility.yul\":26955:27022   */\n      tag_664\n        /* \"#utility.yul\":27015:27021   */\n      dup6\n        /* \"#utility.yul\":27008:27013   */\n      dup3\n        /* \"#utility.yul\":26955:27022   */\n      tag_402\n      jump\t// in\n    tag_664:\n        /* \"#utility.yul\":26949:26953   */\n      dup7\n        /* \"#utility.yul\":26942:27023   */\n      sstore\n        /* \"#utility.yul\":26811:27033   */\n      pop\n        /* \"#utility.yul\":26146:27033   */\n      jump(tag_661)\n        /* \"#utility.yul\":26176:26794   */\n    tag_662:\n        /* \"#utility.yul\":26228:26232   */\n      0x1f\n        /* \"#utility.yul\":26224:26233   */\n      not\n        /* \"#utility.yul\":26216:26222   */\n      dup5\n        /* \"#utility.yul\":26212:26234   */\n      and\n        /* \"#utility.yul\":26262:26299   */\n      tag_665\n        /* \"#utility.yul\":26294:26298   */\n      dup7\n        /* \"#utility.yul\":26262:26299   */\n      tag_388\n      jump\t// in\n    tag_665:\n        /* \"#utility.yul\":26321:26322   */\n      0x00\n        /* \"#utility.yul\":26335:26543   */\n    tag_666:\n        /* \"#utility.yul\":26349:26356   */\n      dup3\n        /* \"#utility.yul\":26346:26347   */\n      dup2\n        /* \"#utility.yul\":26343:26357   */\n      lt\n        /* \"#utility.yul\":26335:26543   */\n      iszero\n      tag_668\n      jumpi\n        /* \"#utility.yul\":26428:26437   */\n      dup5\n        /* \"#utility.yul\":26423:26426   */\n      dup10\n        /* \"#utility.yul\":26419:26438   */\n      add\n        /* \"#utility.yul\":26413:26439   */\n      mload\n        /* \"#utility.yul\":26405:26411   */\n      dup3\n        /* \"#utility.yul\":26398:26440   */\n      sstore\n        /* \"#utility.yul\":26479:26480   */\n      0x01\n        /* \"#utility.yul\":26471:26477   */\n      dup3\n        /* \"#utility.yul\":26467:26481   */\n      add\n        /* \"#utility.yul\":26457:26481   */\n      swap2\n      pop\n        /* \"#utility.yul\":26526:26528   */\n      0x20\n        /* \"#utility.yul\":26515:26524   */\n      dup6\n        /* \"#utility.yul\":26511:26529   */\n      add\n        /* \"#utility.yul\":26498:26529   */\n      swap5\n      pop\n        /* \"#utility.yul\":26372:26376   */\n      0x20\n        /* \"#utility.yul\":26369:26370   */\n      dup2\n        /* \"#utility.yul\":26365:26377   */\n      add\n        /* \"#utility.yul\":26360:26377   */\n      swap1\n      pop\n        /* \"#utility.yul\":26335:26543   */\n      jump(tag_666)\n    tag_668:\n        /* \"#utility.yul\":26571:26577   */\n      dup7\n        /* \"#utility.yul\":26562:26569   */\n      dup4\n        /* \"#utility.yul\":26559:26578   */\n      lt\n        /* \"#utility.yul\":26556:26735   */\n      iszero\n      tag_669\n      jumpi\n        /* \"#utility.yul\":26629:26638   */\n      dup5\n        /* \"#utility.yul\":26624:26627   */\n      dup10\n        /* \"#utility.yul\":26620:26639   */\n      add\n        /* \"#utility.yul\":26614:26640   */\n      mload\n        /* \"#utility.yul\":26672:26720   */\n      tag_670\n        /* \"#utility.yul\":26714:26718   */\n      0x1f\n        /* \"#utility.yul\":26706:26712   */\n      dup10\n        /* \"#utility.yul\":26702:26719   */\n      and\n        /* \"#utility.yul\":26691:26700   */\n      dup3\n        /* \"#utility.yul\":26672:26720   */\n      tag_401\n      jump\t// in\n    tag_670:\n        /* \"#utility.yul\":26664:26670   */\n      dup4\n        /* \"#utility.yul\":26657:26721   */\n      sstore\n        /* \"#utility.yul\":26579:26735   */\n      pop\n        /* \"#utility.yul\":26556:26735   */\n    tag_669:\n        /* \"#utility.yul\":26781:26782   */\n      0x01\n        /* \"#utility.yul\":26777:26778   */\n      0x02\n        /* \"#utility.yul\":26769:26775   */\n      dup9\n        /* \"#utility.yul\":26765:26779   */\n      mul\n        /* \"#utility.yul\":26761:26783   */\n      add\n        /* \"#utility.yul\":26755:26759   */\n      dup9\n        /* \"#utility.yul\":26748:26784   */\n      sstore\n        /* \"#utility.yul\":26183:26794   */\n      pop\n      pop\n      pop\n        /* \"#utility.yul\":26146:27033   */\n    tag_661:\n      pop\n        /* \"#utility.yul\":25736:27039   */\n      pop\n      pop\n      pop\n        /* \"#utility.yul\":25644:27039   */\n      pop\n      pop\n      jump\t// out\n        /* \"#utility.yul\":27045:27124   */\n    tag_403:\n        /* \"#utility.yul\":27084:27091   */\n      0x00\n        /* \"#utility.yul\":27113:27118   */\n      dup2\n        /* \"#utility.yul\":27102:27118   */\n      swap1\n      pop\n        /* \"#utility.yul\":27045:27124   */\n      swap2\n      swap1\n      pop\n      jump\t// out\n        /* \"#utility.yul\":27130:27287   */\n    tag_404:\n        /* \"#utility.yul\":27235:27280   */\n      tag_673\n        /* \"#utility.yul\":27255:27279   */\n      tag_674\n        /* \"#utility.yul\":27273:27278   */\n      dup3\n        /* \"#utility.yul\":27255:27279   */\n      tag_334\n      jump\t// in\n    tag_674:\n        /* \"#utility.yul\":27235:27280   */\n      tag_403\n      jump\t// in\n    tag_673:\n        /* \"#utility.yul\":27230:27233   */\n      dup3\n        /* \"#utility.yul\":27223:27281   */\n      mstore\n        /* \"#utility.yul\":27130:27287   */\n      pop\n      pop\n      jump\t// out\n        /* \"#utility.yul\":27293:27419   */\n    tag_405:\n        /* \"#utility.yul\":27330:27337   */\n      0x00\n        /* \"#utility.yul\":27370:27412   */\n      0xffffffffffffffffffffffffffffffffffffffff\n        /* \"#utility.yul\":27363:27368   */\n      dup3\n        /* \"#utility.yul\":27359:27413   */\n      and\n        /* \"#utility.yul\":27348:27413   */\n      swap1\n      pop\n        /* \"#utility.yul\":27293:27419   */\n      swap2\n      swap1\n      pop\n      jump\t// out\n        /* \"#utility.yul\":27425:27521   */\n    tag_406:\n        /* \"#utility.yul\":27462:27469   */\n      0x00\n        /* \"#utility.yul\":27491:27515   */\n      tag_677\n        /* \"#utility.yul\":27509:27514   */\n      dup3\n        /* \"#utility.yul\":27491:27515   */\n      tag_405\n      jump\t// in\n    tag_677:\n        /* \"#utility.yul\":27480:27515   */\n      swap1\n      pop\n        /* \"#utility.yul\":27425:27521   */\n      swap2\n      swap1\n      pop\n      jump\t// out\n        /* \"#utility.yul\":27527:27621   */\n    tag_407:\n        /* \"#utility.yul\":27560:27568   */\n      0x00\n        /* \"#utility.yul\":27608:27613   */\n      dup2\n        /* \"#utility.yul\":27604:27606   */\n      0x60\n        /* \"#utility.yul\":27600:27614   */\n      shl\n        /* \"#utility.yul\":27579:27614   */\n      swap1\n      pop\n        /* \"#utility.yul\":27527:27621   */\n      swap2\n      swap1\n      pop\n      jump\t// out\n        /* \"#utility.yul\":27627:27721   */\n    tag_408:\n        /* \"#utility.yul\":27666:27673   */\n      0x00\n        /* \"#utility.yul\":27695:27715   */\n      tag_680\n        /* \"#utility.yul\":27709:27714   */\n      dup3\n        /* \"#utility.yul\":27695:27715   */\n      tag_407\n      jump\t// in\n    tag_680:\n        /* \"#utility.yul\":27684:27715   */\n      swap1\n      pop\n        /* \"#utility.yul\":27627:27721   */\n      swap2\n      swap1\n      pop\n      jump\t// out\n        /* \"#utility.yul\":27727:27827   */\n    tag_409:\n        /* \"#utility.yul\":27766:27773   */\n      0x00\n        /* \"#utility.yul\":27795:27821   */\n      tag_682\n        /* \"#utility.yul\":27815:27820   */\n      dup3\n        /* \"#utility.yul\":27795:27821   */\n      tag_408\n      jump\t// in\n    tag_682:\n        /* \"#utility.yul\":27784:27821   */\n      swap1\n      pop\n        /* \"#utility.yul\":27727:27827   */\n      swap2\n      swap1\n      pop\n      jump\t// out\n        /* \"#utility.yul\":27833:27990   */\n    tag_410:\n        /* \"#utility.yul\":27938:27983   */\n      tag_684\n        /* \"#utility.yul\":27958:27982   */\n      tag_685\n        /* \"#utility.yul\":27976:27981   */\n      dup3\n        /* \"#utility.yul\":27958:27982   */\n      tag_406\n      jump\t// in\n    tag_685:\n        /* \"#utility.yul\":27938:27983   */\n      tag_409\n      jump\t// in\n    tag_684:\n        /* \"#utility.yul\":27933:27936   */\n      dup3\n        /* \"#utility.yul\":27926:27984   */\n      mstore\n        /* \"#utility.yul\":27833:27990   */\n      pop\n      pop\n      jump\t// out\n        /* \"#utility.yul\":27996:28393   */\n    tag_178:\n        /* \"#utility.yul\":28136:28139   */\n      0x00\n        /* \"#utility.yul\":28151:28226   */\n      tag_687\n        /* \"#utility.yul\":28222:28225   */\n      dup3\n        /* \"#utility.yul\":28213:28219   */\n      dup6\n        /* \"#utility.yul\":28151:28226   */\n      tag_404\n      jump\t// in\n    tag_687:\n        /* \"#utility.yul\":28251:28253   */\n      0x20\n        /* \"#utility.yul\":28246:28249   */\n      dup3\n        /* \"#utility.yul\":28242:28254   */\n      add\n        /* \"#utility.yul\":28235:28254   */\n      swap2\n      pop\n        /* \"#utility.yul\":28264:28339   */\n      tag_688\n        /* \"#utility.yul\":28335:28338   */\n      dup3\n        /* \"#utility.yul\":28326:28332   */\n      dup5\n        /* \"#utility.yul\":28264:28339   */\n      tag_410\n      jump\t// in\n    tag_688:\n        /* \"#utility.yul\":28364:28366   */\n      0x14\n        /* \"#utility.yul\":28359:28362   */\n      dup3\n        /* \"#utility.yul\":28355:28367   */\n      add\n        /* \"#utility.yul\":28348:28367   */\n      swap2\n      pop\n        /* \"#utility.yul\":28384:28387   */\n      dup2\n        /* \"#utility.yul\":28377:28387   */\n      swap1\n      pop\n        /* \"#utility.yul\":27996:28393   */\n      swap4\n      swap3\n      pop\n      pop\n      pop\n      jump\t// out\n        /* \"#utility.yul\":28399:28579   */\n    tag_411:\n        /* \"#utility.yul\":28447:28524   */\n      0x4e487b7100000000000000000000000000000000000000000000000000000000\n        /* \"#utility.yul\":28444:28445   */\n      0x00\n        /* \"#utility.yul\":28437:28525   */\n      mstore\n        /* \"#utility.yul\":28544:28548   */\n      0x12\n        /* \"#utility.yul\":28541:28542   */\n      0x04\n        /* \"#utility.yul\":28534:28549   */\n      mstore\n        /* \"#utility.yul\":28568:28572   */\n      0x24\n        /* \"#utility.yul\":28565:28566   */\n      0x00\n        /* \"#utility.yul\":28558:28573   */\n      revert\n        /* \"#utility.yul\":28585:28761   */\n    tag_180:\n        /* \"#utility.yul\":28617:28618   */\n      0x00\n        /* \"#utility.yul\":28634:28654   */\n      tag_691\n        /* \"#utility.yul\":28652:28653   */\n      dup3\n        /* \"#utility.yul\":28634:28654   */\n      tag_334\n      jump\t// in\n    tag_691:\n        /* \"#utility.yul\":28629:28654   */\n      swap2\n      pop\n        /* \"#utility.yul\":28668:28688   */\n      tag_692\n        /* \"#utility.yul\":28686:28687   */\n      dup4\n        /* \"#utility.yul\":28668:28688   */\n      tag_334\n      jump\t// in\n    tag_692:\n        /* \"#utility.yul\":28663:28688   */\n      swap3\n      pop\n        /* \"#utility.yul\":28707:28708   */\n      dup3\n        /* \"#utility.yul\":28697:28732   */\n      tag_693\n      jumpi\n        /* \"#utility.yul\":28712:28730   */\n      tag_694\n      tag_411\n      jump\t// in\n    tag_694:\n        /* \"#utility.yul\":28697:28732   */\n    tag_693:\n        /* \"#utility.yul\":28753:28754   */\n      dup3\n        /* \"#utility.yul\":28750:28751   */\n      dup3\n        /* \"#utility.yul\":28746:28755   */\n      mod\n        /* \"#utility.yul\":28741:28755   */\n      swap1\n      pop\n        /* \"#utility.yul\":28585:28761   */\n      swap3\n      swap2\n      pop\n      pop\n      jump\t// out\n        /* \"#utility.yul\":28767:28920   */\n    tag_412:\n        /* \"#utility.yul\":28820:28826   */\n      0x00\n        /* \"#utility.yul\":28854:28859   */\n      dup2\n        /* \"#utility.yul\":28848:28860   */\n      sload\n        /* \"#utility.yul\":28838:28860   */\n      swap1\n      pop\n        /* \"#utility.yul\":28880:28913   */\n      tag_696\n        /* \"#utility.yul\":28906:28912   */\n      dup2\n        /* \"#utility.yul\":28880:28913   */\n      tag_63\n      jump\t// in\n    tag_696:\n        /* \"#utility.yul\":28870:28913   */\n      swap1\n      pop\n        /* \"#utility.yul\":28767:28920   */\n      swap2\n      swap1\n      pop\n      jump\t// out\n        /* \"#utility.yul\":28926:29071   */\n    tag_413:\n        /* \"#utility.yul\":28979:28983   */\n      0x00\n        /* \"#utility.yul\":29002:29005   */\n      dup2\n        /* \"#utility.yul\":28994:29005   */\n      swap1\n      pop\n        /* \"#utility.yul\":29025:29028   */\n      dup2\n        /* \"#utility.yul\":29022:29023   */\n      0x00\n        /* \"#utility.yul\":29015:29029   */\n      mstore\n        /* \"#utility.yul\":29059:29063   */\n      0x20\n        /* \"#utility.yul\":29056:29057   */\n      0x00\n        /* \"#utility.yul\":29046:29064   */\n      keccak256\n        /* \"#utility.yul\":29038:29064   */\n      swap1\n      pop\n        /* \"#utility.yul\":28926:29071   */\n      swap2\n      swap1\n      pop\n      jump\t// out\n        /* \"#utility.yul\":29077:30540   */\n    tag_185:\n        /* \"#utility.yul\":29192:29195   */\n      dup2\n        /* \"#utility.yul\":29186:29190   */\n      dup2\n        /* \"#utility.yul\":29183:29196   */\n      sub\n        /* \"#utility.yul\":29180:29206   */\n      tag_699\n      jumpi\n        /* \"#utility.yul\":29199:29204   */\n      pop\n      pop\n      jump(tag_698)\n        /* \"#utility.yul\":29180:29206   */\n    tag_699:\n        /* \"#utility.yul\":29230:29268   */\n      tag_700\n        /* \"#utility.yul\":29264:29267   */\n      dup3\n        /* \"#utility.yul\":29230:29268   */\n      tag_412\n      jump\t// in\n    tag_700:\n        /* \"#utility.yul\":29333:29351   */\n      0xffffffffffffffff\n        /* \"#utility.yul\":29325:29331   */\n      dup2\n        /* \"#utility.yul\":29322:29352   */\n      gt\n        /* \"#utility.yul\":29319:29375   */\n      iszero\n      tag_701\n      jumpi\n        /* \"#utility.yul\":29355:29373   */\n      tag_702\n      tag_189\n      jump\t// in\n    tag_702:\n        /* \"#utility.yul\":29319:29375   */\n    tag_701:\n        /* \"#utility.yul\":29399:29437   */\n      tag_703\n        /* \"#utility.yul\":29431:29435   */\n      dup3\n        /* \"#utility.yul\":29425:29436   */\n      sload\n        /* \"#utility.yul\":29399:29437   */\n      tag_63\n      jump\t// in\n    tag_703:\n        /* \"#utility.yul\":29484:29551   */\n      tag_704\n        /* \"#utility.yul\":29544:29550   */\n      dup3\n        /* \"#utility.yul\":29536:29542   */\n      dup3\n        /* \"#utility.yul\":29530:29534   */\n      dup6\n        /* \"#utility.yul\":29484:29551   */\n      tag_399\n      jump\t// in\n    tag_704:\n        /* \"#utility.yul\":29578:29579   */\n      0x00\n        /* \"#utility.yul\":29607:29609   */\n      0x1f\n        /* \"#utility.yul\":29599:29605   */\n      dup4\n        /* \"#utility.yul\":29596:29610   */\n      gt\n        /* \"#utility.yul\":29624:29625   */\n      0x01\n        /* \"#utility.yul\":29619:30295   */\n      dup2\n      eq\n      tag_706\n      jumpi\n        /* \"#utility.yul\":30339:30340   */\n      0x00\n        /* \"#utility.yul\":30356:30362   */\n      dup5\n        /* \"#utility.yul\":30353:30430   */\n      iszero\n      tag_707\n      jumpi\n        /* \"#utility.yul\":30405:30414   */\n      dup3\n        /* \"#utility.yul\":30400:30403   */\n      dup8\n        /* \"#utility.yul\":30396:30415   */\n      add\n        /* \"#utility.yul\":30390:30416   */\n      sload\n        /* \"#utility.yul\":30381:30416   */\n      swap1\n      pop\n        /* \"#utility.yul\":30353:30430   */\n    tag_707:\n        /* \"#utility.yul\":30456:30523   */\n      tag_708\n        /* \"#utility.yul\":30516:30522   */\n      dup6\n        /* \"#utility.yul\":30509:30514   */\n      dup3\n        /* \"#utility.yul\":30456:30523   */\n      tag_402\n      jump\t// in\n    tag_708:\n        /* \"#utility.yul\":30450:30454   */\n      dup7\n        /* \"#utility.yul\":30443:30524   */\n      sstore\n        /* \"#utility.yul\":30312:30534   */\n      pop\n        /* \"#utility.yul\":29589:30534   */\n      jump(tag_705)\n        /* \"#utility.yul\":29619:30295   */\n    tag_706:\n        /* \"#utility.yul\":29671:29675   */\n      0x1f\n        /* \"#utility.yul\":29667:29676   */\n      not\n        /* \"#utility.yul\":29659:29665   */\n      dup5\n        /* \"#utility.yul\":29655:29677   */\n      and\n        /* \"#utility.yul\":29697:29737   */\n      tag_709\n        /* \"#utility.yul\":29733:29736   */\n      dup8\n        /* \"#utility.yul\":29697:29737   */\n      tag_413\n      jump\t// in\n    tag_709:\n        /* \"#utility.yul\":29690:29737   */\n      swap7\n      pop\n        /* \"#utility.yul\":29764:29801   */\n      tag_710\n        /* \"#utility.yul\":29796:29800   */\n      dup7\n        /* \"#utility.yul\":29764:29801   */\n      tag_388\n      jump\t// in\n    tag_710:\n        /* \"#utility.yul\":29823:29824   */\n      0x00\n        /* \"#utility.yul\":29837:30044   */\n    tag_711:\n        /* \"#utility.yul\":29851:29858   */\n      dup3\n        /* \"#utility.yul\":29848:29849   */\n      dup2\n        /* \"#utility.yul\":29845:29859   */\n      lt\n        /* \"#utility.yul\":29837:30044   */\n      iszero\n      tag_713\n      jumpi\n        /* \"#utility.yul\":29930:29939   */\n      dup5\n        /* \"#utility.yul\":29925:29928   */\n      dup10\n        /* \"#utility.yul\":29921:29940   */\n      add\n        /* \"#utility.yul\":29915:29941   */\n      sload\n        /* \"#utility.yul\":29907:29913   */\n      dup3\n        /* \"#utility.yul\":29900:29942   */\n      sstore\n        /* \"#utility.yul\":29981:29982   */\n      0x01\n        /* \"#utility.yul\":29973:29979   */\n      dup3\n        /* \"#utility.yul\":29969:29983   */\n      add\n        /* \"#utility.yul\":29959:29983   */\n      swap2\n      pop\n        /* \"#utility.yul\":30028:30029   */\n      0x01\n        /* \"#utility.yul\":30017:30026   */\n      dup6\n        /* \"#utility.yul\":30013:30030   */\n      add\n        /* \"#utility.yul\":30000:30030   */\n      swap5\n      pop\n        /* \"#utility.yul\":29874:29878   */\n      0x20\n        /* \"#utility.yul\":29871:29872   */\n      dup2\n        /* \"#utility.yul\":29867:29879   */\n      add\n        /* \"#utility.yul\":29862:29879   */\n      swap1\n      pop\n        /* \"#utility.yul\":29837:30044   */\n      jump(tag_711)\n    tag_713:\n        /* \"#utility.yul\":30072:30078   */\n      dup7\n        /* \"#utility.yul\":30063:30070   */\n      dup4\n        /* \"#utility.yul\":30060:30079   */\n      lt\n        /* \"#utility.yul\":30057:30236   */\n      iszero\n      tag_714\n      jumpi\n        /* \"#utility.yul\":30130:30139   */\n      dup5\n        /* \"#utility.yul\":30125:30128   */\n      dup10\n        /* \"#utility.yul\":30121:30140   */\n      add\n        /* \"#utility.yul\":30115:30141   */\n      sload\n        /* \"#utility.yul\":30173:30221   */\n      tag_715\n        /* \"#utility.yul\":30215:30219   */\n      0x1f\n        /* \"#utility.yul\":30207:30213   */\n      dup10\n        /* \"#utility.yul\":30203:30220   */\n      and\n        /* \"#utility.yul\":30192:30201   */\n      dup3\n        /* \"#utility.yul\":30173:30221   */\n      tag_401\n      jump\t// in\n    tag_715:\n        /* \"#utility.yul\":30165:30171   */\n      dup4\n        /* \"#utility.yul\":30158:30222   */\n      sstore\n        /* \"#utility.yul\":30080:30236   */\n      pop\n        /* \"#utility.yul\":30057:30236   */\n    tag_714:\n        /* \"#utility.yul\":30282:30283   */\n      0x01\n        /* \"#utility.yul\":30278:30279   */\n      0x02\n        /* \"#utility.yul\":30270:30276   */\n      dup9\n        /* \"#utility.yul\":30266:30280   */\n      mul\n        /* \"#utility.yul\":30262:30284   */\n      add\n        /* \"#utility.yul\":30256:30260   */\n      dup9\n        /* \"#utility.yul\":30249:30285   */\n      sstore\n        /* \"#utility.yul\":29626:30295   */\n      pop\n      pop\n      pop\n        /* \"#utility.yul\":29589:30534   */\n    tag_705:\n      pop\n        /* \"#utility.yul\":29170:30540   */\n      pop\n      pop\n      pop\n        /* \"#utility.yul\":29077:30540   */\n      pop\n      pop\n    tag_698:\n      jump\t// out\n        /* \"#utility.yul\":30546:30734   */\n    tag_202:\n        /* \"#utility.yul\":30584:30587   */\n      0x00\n        /* \"#utility.yul\":30603:30621   */\n      tag_717\n        /* \"#utility.yul\":30619:30620   */\n      dup3\n        /* \"#utility.yul\":30603:30621   */\n      tag_353\n      jump\t// in\n    tag_717:\n        /* \"#utility.yul\":30598:30621   */\n      swap2\n      pop\n        /* \"#utility.yul\":30635:30653   */\n      tag_718\n        /* \"#utility.yul\":30651:30652   */\n      dup4\n        /* \"#utility.yul\":30635:30653   */\n      tag_353\n      jump\t// in\n    tag_718:\n        /* \"#utility.yul\":30630:30653   */\n      swap3\n      pop\n        /* \"#utility.yul\":30676:30677   */\n      dup3\n        /* \"#utility.yul\":30673:30674   */\n      dup3\n        /* \"#utility.yul\":30669:30678   */\n      add\n        /* \"#utility.yul\":30662:30678   */\n      swap1\n      pop\n        /* \"#utility.yul\":30699:30703   */\n      0xff\n        /* \"#utility.yul\":30694:30697   */\n      dup2\n        /* \"#utility.yul\":30691:30704   */\n      gt\n        /* \"#utility.yul\":30688:30727   */\n      iszero\n      tag_719\n      jumpi\n        /* \"#utility.yul\":30707:30725   */\n      tag_720\n      tag_369\n      jump\t// in\n    tag_720:\n        /* \"#utility.yul\":30688:30727   */\n    tag_719:\n        /* \"#utility.yul\":30546:30734   */\n      swap3\n      swap2\n      pop\n      pop\n      jump\t// out\n        /* \"#utility.yul\":30764:31646   */\n    tag_414:\n        /* \"#utility.yul\":30871:30874   */\n      0x00\n        /* \"#utility.yul\":30908:30913   */\n      dup2\n        /* \"#utility.yul\":30902:30914   */\n      sload\n        /* \"#utility.yul\":30937:30973   */\n      tag_722\n        /* \"#utility.yul\":30963:30972   */\n      dup2\n        /* \"#utility.yul\":30937:30973   */\n      tag_63\n      jump\t// in\n    tag_722:\n        /* \"#utility.yul\":30989:31078   */\n      tag_723\n        /* \"#utility.yul\":31071:31077   */\n      dup2\n        /* \"#utility.yul\":31066:31069   */\n      dup7\n        /* \"#utility.yul\":30989:31078   */\n      tag_359\n      jump\t// in\n    tag_723:\n        /* \"#utility.yul\":30982:31078   */\n      swap5\n      pop\n        /* \"#utility.yul\":31109:31110   */\n      0x01\n        /* \"#utility.yul\":31098:31107   */\n      dup3\n        /* \"#utility.yul\":31094:31111   */\n      and\n        /* \"#utility.yul\":31125:31126   */\n      0x00\n        /* \"#utility.yul\":31120:31286   */\n      dup2\n      eq\n      tag_725\n      jumpi\n        /* \"#utility.yul\":31300:31301   */\n      0x01\n        /* \"#utility.yul\":31295:31640   */\n      dup2\n      eq\n      tag_726\n      jumpi\n        /* \"#utility.yul\":31087:31640   */\n      jump(tag_724)\n        /* \"#utility.yul\":31120:31286   */\n    tag_725:\n        /* \"#utility.yul\":31204:31208   */\n      0xff\n        /* \"#utility.yul\":31200:31209   */\n      not\n        /* \"#utility.yul\":31189:31198   */\n      dup4\n        /* \"#utility.yul\":31185:31210   */\n      and\n        /* \"#utility.yul\":31180:31183   */\n      dup7\n        /* \"#utility.yul\":31173:31211   */\n      mstore\n        /* \"#utility.yul\":31266:31272   */\n      dup2\n        /* \"#utility.yul\":31259:31273   */\n      iszero\n        /* \"#utility.yul\":31252:31274   */\n      iszero\n        /* \"#utility.yul\":31244:31250   */\n      dup3\n        /* \"#utility.yul\":31240:31275   */\n      mul\n        /* \"#utility.yul\":31235:31238   */\n      dup7\n        /* \"#utility.yul\":31231:31276   */\n      add\n        /* \"#utility.yul\":31224:31276   */\n      swap4\n      pop\n        /* \"#utility.yul\":31120:31286   */\n      jump(tag_724)\n        /* \"#utility.yul\":31295:31640   */\n    tag_726:\n        /* \"#utility.yul\":31362:31404   */\n      tag_727\n        /* \"#utility.yul\":31398:31403   */\n      dup6\n        /* \"#utility.yul\":31362:31404   */\n      tag_413\n      jump\t// in\n    tag_727:\n        /* \"#utility.yul\":31426:31427   */\n      0x00\n        /* \"#utility.yul\":31440:31594   */\n    tag_728:\n        /* \"#utility.yul\":31454:31460   */\n      dup4\n        /* \"#utility.yul\":31451:31452   */\n      dup2\n        /* \"#utility.yul\":31448:31461   */\n      lt\n        /* \"#utility.yul\":31440:31594   */\n      iszero\n      tag_730\n      jumpi\n        /* \"#utility.yul\":31528:31535   */\n      dup2\n        /* \"#utility.yul\":31522:31536   */\n      sload\n        /* \"#utility.yul\":31518:31519   */\n      dup2\n        /* \"#utility.yul\":31513:31516   */\n      dup10\n        /* \"#utility.yul\":31509:31520   */\n      add\n        /* \"#utility.yul\":31502:31537   */\n      mstore\n        /* \"#utility.yul\":31578:31579   */\n      0x01\n        /* \"#utility.yul\":31569:31576   */\n      dup3\n        /* \"#utility.yul\":31565:31580   */\n      add\n        /* \"#utility.yul\":31554:31580   */\n      swap2\n      pop\n        /* \"#utility.yul\":31476:31480   */\n      0x20\n        /* \"#utility.yul\":31473:31474   */\n      dup2\n        /* \"#utility.yul\":31469:31481   */\n      add\n        /* \"#utility.yul\":31464:31481   */\n      swap1\n      pop\n        /* \"#utility.yul\":31440:31594   */\n      jump(tag_728)\n    tag_730:\n        /* \"#utility.yul\":31623:31629   */\n      dup4\n        /* \"#utility.yul\":31618:31621   */\n      dup9\n        /* \"#utility.yul\":31614:31630   */\n      add\n        /* \"#utility.yul\":31607:31630   */\n      swap6\n      pop\n        /* \"#utility.yul\":31302:31640   */\n      pop\n      pop\n        /* \"#utility.yul\":31087:31640   */\n    tag_724:\n      pop\n        /* \"#utility.yul\":30875:31646   */\n      pop\n      pop\n        /* \"#utility.yul\":30764:31646   */\n      swap3\n      swap2\n      pop\n      pop\n      jump\t// out\n        /* \"#utility.yul\":31652:31929   */\n    tag_206:\n        /* \"#utility.yul\":31785:31788   */\n      0x00\n        /* \"#utility.yul\":31807:31903   */\n      tag_732\n        /* \"#utility.yul\":31899:31902   */\n      dup3\n        /* \"#utility.yul\":31890:31896   */\n      dup5\n        /* \"#utility.yul\":31807:31903   */\n      tag_414\n      jump\t// in\n    tag_732:\n        /* \"#utility.yul\":31800:31903   */\n      swap2\n      pop\n        /* \"#utility.yul\":31920:31923   */\n      dup2\n        /* \"#utility.yul\":31913:31923   */\n      swap1\n      pop\n        /* \"#utility.yul\":31652:31929   */\n      swap3\n      swap2\n      pop\n      pop\n      jump\t// out\n        /* \"#utility.yul\":31959:32798   */\n    tag_415:\n        /* \"#utility.yul\":32048:32051   */\n      0x00\n        /* \"#utility.yul\":32085:32090   */\n      dup2\n        /* \"#utility.yul\":32079:32091   */\n      sload\n        /* \"#utility.yul\":32114:32150   */\n      tag_734\n        /* \"#utility.yul\":32140:32149   */\n      dup2\n        /* \"#utility.yul\":32114:32150   */\n      tag_63\n      jump\t// in\n    tag_734:\n        /* \"#utility.yul\":32166:32237   */\n      tag_735\n        /* \"#utility.yul\":32230:32236   */\n      dup2\n        /* \"#utility.yul\":32225:32228   */\n      dup7\n        /* \"#utility.yul\":32166:32237   */\n      tag_338\n      jump\t// in\n    tag_735:\n        /* \"#utility.yul\":32159:32237   */\n      swap5\n      pop\n        /* \"#utility.yul\":32268:32269   */\n      0x01\n        /* \"#utility.yul\":32257:32266   */\n      dup3\n        /* \"#utility.yul\":32253:32270   */\n      and\n        /* \"#utility.yul\":32284:32285   */\n      0x00\n        /* \"#utility.yul\":32279:32443   */\n      dup2\n      eq\n      tag_737\n      jumpi\n        /* \"#utility.yul\":32457:32458   */\n      0x01\n        /* \"#utility.yul\":32452:32792   */\n      dup2\n      eq\n      tag_738\n      jumpi\n        /* \"#utility.yul\":32246:32792   */\n      jump(tag_736)\n        /* \"#utility.yul\":32279:32443   */\n    tag_737:\n        /* \"#utility.yul\":32363:32367   */\n      0xff\n        /* \"#utility.yul\":32359:32368   */\n      not\n        /* \"#utility.yul\":32348:32357   */\n      dup4\n        /* \"#utility.yul\":32344:32369   */\n      and\n        /* \"#utility.yul\":32339:32342   */\n      dup7\n        /* \"#utility.yul\":32332:32370   */\n      mstore\n        /* \"#utility.yul\":32423:32429   */\n      dup2\n        /* \"#utility.yul\":32416:32430   */\n      iszero\n        /* \"#utility.yul\":32409:32431   */\n      iszero\n        /* \"#utility.yul\":32403:32407   */\n      0x20\n        /* \"#utility.yul\":32399:32432   */\n      mul\n        /* \"#utility.yul\":32394:32397   */\n      dup7\n        /* \"#utility.yul\":32390:32433   */\n      add\n        /* \"#utility.yul\":32383:32433   */\n      swap4\n      pop\n        /* \"#utility.yul\":32279:32443   */\n      jump(tag_736)\n        /* \"#utility.yul\":32452:32792   */\n    tag_738:\n        /* \"#utility.yul\":32519:32561   */\n      tag_739\n        /* \"#utility.yul\":32555:32560   */\n      dup6\n        /* \"#utility.yul\":32519:32561   */\n      tag_413\n      jump\t// in\n    tag_739:\n        /* \"#utility.yul\":32583:32584   */\n      0x00\n        /* \"#utility.yul\":32597:32751   */\n    tag_740:\n        /* \"#utility.yul\":32611:32617   */\n      dup4\n        /* \"#utility.yul\":32608:32609   */\n      dup2\n        /* \"#utility.yul\":32605:32618   */\n      lt\n        /* \"#utility.yul\":32597:32751   */\n      iszero\n      tag_742\n      jumpi\n        /* \"#utility.yul\":32685:32692   */\n      dup2\n        /* \"#utility.yul\":32679:32693   */\n      sload\n        /* \"#utility.yul\":32675:32676   */\n      dup2\n        /* \"#utility.yul\":32670:32673   */\n      dup10\n        /* \"#utility.yul\":32666:32677   */\n      add\n        /* \"#utility.yul\":32659:32694   */\n      mstore\n        /* \"#utility.yul\":32735:32736   */\n      0x01\n        /* \"#utility.yul\":32726:32733   */\n      dup3\n        /* \"#utility.yul\":32722:32737   */\n      add\n        /* \"#utility.yul\":32711:32737   */\n      swap2\n      pop\n        /* \"#utility.yul\":32633:32637   */\n      0x20\n        /* \"#utility.yul\":32630:32631   */\n      dup2\n        /* \"#utility.yul\":32626:32638   */\n      add\n        /* \"#utility.yul\":32621:32638   */\n      swap1\n      pop\n        /* \"#utility.yul\":32597:32751   */\n      jump(tag_740)\n    tag_742:\n        /* \"#utility.yul\":32780:32781   */\n      dup1\n        /* \"#utility.yul\":32775:32778   */\n      dup9\n        /* \"#utility.yul\":32771:32782   */\n      add\n        /* \"#utility.yul\":32764:32782   */\n      swap6\n      pop\n        /* \"#utility.yul\":32459:32792   */\n      pop\n      pop\n        /* \"#utility.yul\":32246:32792   */\n    tag_736:\n      pop\n        /* \"#utility.yul\":32052:32798   */\n      pop\n      pop\n        /* \"#utility.yul\":31959:32798   */\n      swap3\n      swap2\n      pop\n      pop\n      jump\t// out\n        /* \"#utility.yul\":32804:32919   */\n    tag_416:\n        /* \"#utility.yul\":32889:32912   */\n      tag_744\n        /* \"#utility.yul\":32906:32911   */\n      dup2\n        /* \"#utility.yul\":32889:32912   */\n      tag_350\n      jump\t// in\n    tag_744:\n        /* \"#utility.yul\":32884:32887   */\n      dup3\n        /* \"#utility.yul\":32877:32913   */\n      mstore\n        /* \"#utility.yul\":32804:32919   */\n      pop\n      pop\n      jump\t// out\n        /* \"#utility.yul\":32925:33346   */\n    tag_208:\n        /* \"#utility.yul\":33065:33069   */\n      0x00\n        /* \"#utility.yul\":33103:33105   */\n      0x40\n        /* \"#utility.yul\":33092:33101   */\n      dup3\n        /* \"#utility.yul\":33088:33106   */\n      add\n        /* \"#utility.yul\":33080:33106   */\n      swap1\n      pop\n        /* \"#utility.yul\":33152:33161   */\n      dup2\n        /* \"#utility.yul\":33146:33150   */\n      dup2\n        /* \"#utility.yul\":33142:33162   */\n      sub\n        /* \"#utility.yul\":33138:33139   */\n      0x00\n        /* \"#utility.yul\":33127:33136   */\n      dup4\n        /* \"#utility.yul\":33123:33140   */\n      add\n        /* \"#utility.yul\":33116:33163   */\n      mstore\n        /* \"#utility.yul\":33180:33259   */\n      tag_746\n        /* \"#utility.yul\":33254:33258   */\n      dup2\n        /* \"#utility.yul\":33245:33251   */\n      dup6\n        /* \"#utility.yul\":33180:33259   */\n      tag_415\n      jump\t// in\n    tag_746:\n        /* \"#utility.yul\":33172:33259   */\n      swap1\n      pop\n        /* \"#utility.yul\":33269:33339   */\n      tag_747\n        /* \"#utility.yul\":33335:33337   */\n      0x20\n        /* \"#utility.yul\":33324:33333   */\n      dup4\n        /* \"#utility.yul\":33320:33338   */\n      add\n        /* \"#utility.yul\":33311:33317   */\n      dup5\n        /* \"#utility.yul\":33269:33339   */\n      tag_416\n      jump\t// in\n    tag_747:\n        /* \"#utility.yul\":32925:33346   */\n      swap4\n      swap3\n      pop\n      pop\n      pop\n      jump\t// out\n        /* \"#utility.yul\":33376:34250   */\n    tag_417:\n        /* \"#utility.yul\":33479:33482   */\n      0x00\n        /* \"#utility.yul\":33516:33521   */\n      dup2\n        /* \"#utility.yul\":33510:33522   */\n      sload\n        /* \"#utility.yul\":33545:33581   */\n      tag_749\n        /* \"#utility.yul\":33571:33580   */\n      dup2\n        /* \"#utility.yul\":33545:33581   */\n      tag_63\n      jump\t// in\n    tag_749:\n        /* \"#utility.yul\":33597:33686   */\n      tag_750\n        /* \"#utility.yul\":33679:33685   */\n      dup2\n        /* \"#utility.yul\":33674:33677   */\n      dup7\n        /* \"#utility.yul\":33597:33686   */\n      tag_359\n      jump\t// in\n    tag_750:\n        /* \"#utility.yul\":33590:33686   */\n      swap5\n      pop\n        /* \"#utility.yul\":33717:33718   */\n      0x01\n        /* \"#utility.yul\":33706:33715   */\n      dup3\n        /* \"#utility.yul\":33702:33719   */\n      and\n        /* \"#utility.yul\":33733:33734   */\n      0x00\n        /* \"#utility.yul\":33728:33894   */\n      dup2\n      eq\n      tag_752\n      jumpi\n        /* \"#utility.yul\":33908:33909   */\n      0x01\n        /* \"#utility.yul\":33903:34244   */\n      dup2\n      eq\n      tag_753\n      jumpi\n        /* \"#utility.yul\":33695:34244   */\n      jump(tag_751)\n        /* \"#utility.yul\":33728:33894   */\n    tag_752:\n        /* \"#utility.yul\":33812:33816   */\n      0xff\n        /* \"#utility.yul\":33808:33817   */\n      not\n        /* \"#utility.yul\":33797:33806   */\n      dup4\n        /* \"#utility.yul\":33793:33818   */\n      and\n        /* \"#utility.yul\":33788:33791   */\n      dup7\n        /* \"#utility.yul\":33781:33819   */\n      mstore\n        /* \"#utility.yul\":33874:33880   */\n      dup2\n        /* \"#utility.yul\":33867:33881   */\n      iszero\n        /* \"#utility.yul\":33860:33882   */\n      iszero\n        /* \"#utility.yul\":33852:33858   */\n      dup3\n        /* \"#utility.yul\":33848:33883   */\n      mul\n        /* \"#utility.yul\":33843:33846   */\n      dup7\n        /* \"#utility.yul\":33839:33884   */\n      add\n        /* \"#utility.yul\":33832:33884   */\n      swap4\n      pop\n        /* \"#utility.yul\":33728:33894   */\n      jump(tag_751)\n        /* \"#utility.yul\":33903:34244   */\n    tag_753:\n        /* \"#utility.yul\":33970:34008   */\n      tag_754\n        /* \"#utility.yul\":34002:34007   */\n      dup6\n        /* \"#utility.yul\":33970:34008   */\n      tag_388\n      jump\t// in\n    tag_754:\n        /* \"#utility.yul\":34030:34031   */\n      0x00\n        /* \"#utility.yul\":34044:34198   */\n    tag_755:\n        /* \"#utility.yul\":34058:34064   */\n      dup4\n        /* \"#utility.yul\":34055:34056   */\n      dup2\n        /* \"#utility.yul\":34052:34065   */\n      lt\n        /* \"#utility.yul\":34044:34198   */\n      iszero\n      tag_757\n      jumpi\n        /* \"#utility.yul\":34132:34139   */\n      dup2\n        /* \"#utility.yul\":34126:34140   */\n      sload\n        /* \"#utility.yul\":34122:34123   */\n      dup2\n        /* \"#utility.yul\":34117:34120   */\n      dup10\n        /* \"#utility.yul\":34113:34124   */\n      add\n        /* \"#utility.yul\":34106:34141   */\n      mstore\n        /* \"#utility.yul\":34182:34183   */\n      0x01\n        /* \"#utility.yul\":34173:34180   */\n      dup3\n        /* \"#utility.yul\":34169:34184   */\n      add\n        /* \"#utility.yul\":34158:34184   */\n      swap2\n      pop\n        /* \"#utility.yul\":34080:34084   */\n      0x20\n        /* \"#utility.yul\":34077:34078   */\n      dup2\n        /* \"#utility.yul\":34073:34085   */\n      add\n        /* \"#utility.yul\":34068:34085   */\n      swap1\n      pop\n        /* \"#utility.yul\":34044:34198   */\n      jump(tag_755)\n    tag_757:\n        /* \"#utility.yul\":34227:34233   */\n      dup4\n        /* \"#utility.yul\":34222:34225   */\n      dup9\n        /* \"#utility.yul\":34218:34234   */\n      add\n        /* \"#utility.yul\":34211:34234   */\n      swap6\n      pop\n        /* \"#utility.yul\":33910:34244   */\n      pop\n      pop\n        /* \"#utility.yul\":33695:34244   */\n    tag_751:\n      pop\n        /* \"#utility.yul\":33483:34250   */\n      pop\n      pop\n        /* \"#utility.yul\":33376:34250   */\n      swap3\n      swap2\n      pop\n      pop\n      jump\t// out\n        /* \"#utility.yul\":34256:34525   */\n    tag_241:\n        /* \"#utility.yul\":34385:34388   */\n      0x00\n        /* \"#utility.yul\":34407:34499   */\n      tag_759\n        /* \"#utility.yul\":34495:34498   */\n      dup3\n        /* \"#utility.yul\":34486:34492   */\n      dup5\n        /* \"#utility.yul\":34407:34499   */\n      tag_417\n      jump\t// in\n    tag_759:\n        /* \"#utility.yul\":34400:34499   */\n      swap2\n      pop\n        /* \"#utility.yul\":34516:34519   */\n      dup2\n        /* \"#utility.yul\":34509:34519   */\n      swap1\n      pop\n        /* \"#utility.yul\":34256:34525   */\n      swap3\n      swap2\n      pop\n      pop\n      jump\t// out\n        /* \"#utility.yul\":34531:34621   */\n    tag_418:\n        /* \"#utility.yul\":34565:34572   */\n      0x00\n        /* \"#utility.yul\":34608:34613   */\n      dup2\n        /* \"#utility.yul\":34601:34614   */\n      iszero\n        /* \"#utility.yul\":34594:34615   */\n      iszero\n        /* \"#utility.yul\":34583:34615   */\n      swap1\n      pop\n        /* \"#utility.yul\":34531:34621   */\n      swap2\n      swap1\n      pop\n      jump\t// out\n        /* \"#utility.yul\":34627:34736   */\n    tag_419:\n        /* \"#utility.yul\":34708:34729   */\n      tag_762\n        /* \"#utility.yul\":34723:34728   */\n      dup2\n        /* \"#utility.yul\":34708:34729   */\n      tag_418\n      jump\t// in\n    tag_762:\n        /* \"#utility.yul\":34703:34706   */\n      dup3\n        /* \"#utility.yul\":34696:34730   */\n      mstore\n        /* \"#utility.yul\":34627:34736   */\n      pop\n      pop\n      jump\t// out\n        /* \"#utility.yul\":34742:35259   */\n    tag_243:\n        /* \"#utility.yul\":34903:34907   */\n      0x00\n        /* \"#utility.yul\":34941:34943   */\n      0x60\n        /* \"#utility.yul\":34930:34939   */\n      dup3\n        /* \"#utility.yul\":34926:34944   */\n      add\n        /* \"#utility.yul\":34918:34944   */\n      swap1\n      pop\n        /* \"#utility.yul\":34954:35023   */\n      tag_764\n        /* \"#utility.yul\":35020:35021   */\n      0x00\n        /* \"#utility.yul\":35009:35018   */\n      dup4\n        /* \"#utility.yul\":35005:35022   */\n      add\n        /* \"#utility.yul\":34996:35002   */\n      dup7\n        /* \"#utility.yul\":34954:35023   */\n      tag_416\n      jump\t// in\n    tag_764:\n        /* \"#utility.yul\":35070:35079   */\n      dup2\n        /* \"#utility.yul\":35064:35068   */\n      dup2\n        /* \"#utility.yul\":35060:35080   */\n      sub\n        /* \"#utility.yul\":35055:35057   */\n      0x20\n        /* \"#utility.yul\":35044:35053   */\n      dup4\n        /* \"#utility.yul\":35040:35058   */\n      add\n        /* \"#utility.yul\":35033:35081   */\n      mstore\n        /* \"#utility.yul\":35098:35176   */\n      tag_765\n        /* \"#utility.yul\":35171:35175   */\n      dup2\n        /* \"#utility.yul\":35162:35168   */\n      dup6\n        /* \"#utility.yul\":35098:35176   */\n      tag_341\n      jump\t// in\n    tag_765:\n        /* \"#utility.yul\":35090:35176   */\n      swap1\n      pop\n        /* \"#utility.yul\":35186:35252   */\n      tag_766\n        /* \"#utility.yul\":35248:35250   */\n      0x40\n        /* \"#utility.yul\":35237:35246   */\n      dup4\n        /* \"#utility.yul\":35233:35251   */\n      add\n        /* \"#utility.yul\":35224:35230   */\n      dup5\n        /* \"#utility.yul\":35186:35252   */\n      tag_419\n      jump\t// in\n    tag_766:\n        /* \"#utility.yul\":34742:35259   */\n      swap5\n      swap4\n      pop\n      pop\n      pop\n      pop\n      jump\t// out\n        /* \"#utility.yul\":35265:35445   */\n    tag_420:\n        /* \"#utility.yul\":35313:35390   */\n      0x4e487b7100000000000000000000000000000000000000000000000000000000\n        /* \"#utility.yul\":35310:35311   */\n      0x00\n        /* \"#utility.yul\":35303:35391   */\n      mstore\n        /* \"#utility.yul\":35410:35414   */\n      0x21\n        /* \"#utility.yul\":35407:35408   */\n      0x04\n        /* \"#utility.yul\":35400:35415   */\n      mstore\n        /* \"#utility.yul\":35434:35438   */\n      0x24\n        /* \"#utility.yul\":35431:35432   */\n      0x00\n        /* \"#utility.yul\":35424:35439   */\n      revert\n        /* \"#utility.yul\":35451:35569   */\n    tag_421:\n        /* \"#utility.yul\":35537:35538   */\n      0x03\n        /* \"#utility.yul\":35530:35535   */\n      dup2\n        /* \"#utility.yul\":35527:35539   */\n      lt\n        /* \"#utility.yul\":35517:35563   */\n      tag_769\n      jumpi\n        /* \"#utility.yul\":35543:35561   */\n      tag_770\n      tag_420\n      jump\t// in\n    tag_770:\n        /* \"#utility.yul\":35517:35563   */\n    tag_769:\n        /* \"#utility.yul\":35451:35569   */\n      pop\n      jump\t// out\n        /* \"#utility.yul\":35575:35712   */\n    tag_422:\n        /* \"#utility.yul\":35625:35632   */\n      0x00\n        /* \"#utility.yul\":35654:35659   */\n      dup2\n        /* \"#utility.yul\":35643:35659   */\n      swap1\n      pop\n        /* \"#utility.yul\":35660:35706   */\n      tag_772\n        /* \"#utility.yul\":35700:35705   */\n      dup3\n        /* \"#utility.yul\":35660:35706   */\n      tag_421\n      jump\t// in\n    tag_772:\n        /* \"#utility.yul\":35575:35712   */\n      swap2\n      swap1\n      pop\n      jump\t// out\n        /* \"#utility.yul\":35718:35855   */\n    tag_423:\n        /* \"#utility.yul\":35779:35788   */\n      0x00\n        /* \"#utility.yul\":35812:35849   */\n      tag_774\n        /* \"#utility.yul\":35843:35848   */\n      dup3\n        /* \"#utility.yul\":35812:35849   */\n      tag_422\n      jump\t// in\n    tag_774:\n        /* \"#utility.yul\":35799:35849   */\n      swap1\n      pop\n        /* \"#utility.yul\":35718:35855   */\n      swap2\n      swap1\n      pop\n      jump\t// out\n        /* \"#utility.yul\":35861:36014   */\n    tag_424:\n        /* \"#utility.yul\":35959:36007   */\n      tag_776\n        /* \"#utility.yul\":36001:36006   */\n      dup2\n        /* \"#utility.yul\":35959:36007   */\n      tag_423\n      jump\t// in\n    tag_776:\n        /* \"#utility.yul\":35954:35957   */\n      dup3\n        /* \"#utility.yul\":35947:36008   */\n      mstore\n        /* \"#utility.yul\":35861:36014   */\n      pop\n      pop\n      jump\t// out\n        /* \"#utility.yul\":36044:36875   */\n    tag_425:\n        /* \"#utility.yul\":36129:36132   */\n      0x00\n        /* \"#utility.yul\":36166:36171   */\n      dup2\n        /* \"#utility.yul\":36160:36172   */\n      sload\n        /* \"#utility.yul\":36195:36231   */\n      tag_778\n        /* \"#utility.yul\":36221:36230   */\n      dup2\n        /* \"#utility.yul\":36195:36231   */\n      tag_63\n      jump\t// in\n    tag_778:\n        /* \"#utility.yul\":36247:36318   */\n      tag_779\n        /* \"#utility.yul\":36311:36317   */\n      dup2\n        /* \"#utility.yul\":36306:36309   */\n      dup7\n        /* \"#utility.yul\":36247:36318   */\n      tag_338\n      jump\t// in\n    tag_779:\n        /* \"#utility.yul\":36240:36318   */\n      swap5\n      pop\n        /* \"#utility.yul\":36349:36350   */\n      0x01\n        /* \"#utility.yul\":36338:36347   */\n      dup3\n        /* \"#utility.yul\":36334:36351   */\n      and\n        /* \"#utility.yul\":36365:36366   */\n      0x00\n        /* \"#utility.yul\":36360:36524   */\n      dup2\n      eq\n      tag_781\n      jumpi\n        /* \"#utility.yul\":36538:36539   */\n      0x01\n        /* \"#utility.yul\":36533:36869   */\n      dup2\n      eq\n      tag_782\n      jumpi\n        /* \"#utility.yul\":36327:36869   */\n      jump(tag_780)\n        /* \"#utility.yul\":36360:36524   */\n    tag_781:\n        /* \"#utility.yul\":36444:36448   */\n      0xff\n        /* \"#utility.yul\":36440:36449   */\n      not\n        /* \"#utility.yul\":36429:36438   */\n      dup4\n        /* \"#utility.yul\":36425:36450   */\n      and\n        /* \"#utility.yul\":36420:36423   */\n      dup7\n        /* \"#utility.yul\":36413:36451   */\n      mstore\n        /* \"#utility.yul\":36504:36510   */\n      dup2\n        /* \"#utility.yul\":36497:36511   */\n      iszero\n        /* \"#utility.yul\":36490:36512   */\n      iszero\n        /* \"#utility.yul\":36484:36488   */\n      0x20\n        /* \"#utility.yul\":36480:36513   */\n      mul\n        /* \"#utility.yul\":36475:36478   */\n      dup7\n        /* \"#utility.yul\":36471:36514   */\n      add\n        /* \"#utility.yul\":36464:36514   */\n      swap4\n      pop\n        /* \"#utility.yul\":36360:36524   */\n      jump(tag_780)\n        /* \"#utility.yul\":36533:36869   */\n    tag_782:\n        /* \"#utility.yul\":36600:36638   */\n      tag_783\n        /* \"#utility.yul\":36632:36637   */\n      dup6\n        /* \"#utility.yul\":36600:36638   */\n      tag_388\n      jump\t// in\n    tag_783:\n        /* \"#utility.yul\":36660:36661   */\n      0x00\n        /* \"#utility.yul\":36674:36828   */\n    tag_784:\n        /* \"#utility.yul\":36688:36694   */\n      dup4\n        /* \"#utility.yul\":36685:36686   */\n      dup2\n        /* \"#utility.yul\":36682:36695   */\n      lt\n        /* \"#utility.yul\":36674:36828   */\n      iszero\n      tag_786\n      jumpi\n        /* \"#utility.yul\":36762:36769   */\n      dup2\n        /* \"#utility.yul\":36756:36770   */\n      sload\n        /* \"#utility.yul\":36752:36753   */\n      dup2\n        /* \"#utility.yul\":36747:36750   */\n      dup10\n        /* \"#utility.yul\":36743:36754   */\n      add\n        /* \"#utility.yul\":36736:36771   */\n      mstore\n        /* \"#utility.yul\":36812:36813   */\n      0x01\n        /* \"#utility.yul\":36803:36810   */\n      dup3\n        /* \"#utility.yul\":36799:36814   */\n      add\n        /* \"#utility.yul\":36788:36814   */\n      swap2\n      pop\n        /* \"#utility.yul\":36710:36714   */\n      0x20\n        /* \"#utility.yul\":36707:36708   */\n      dup2\n        /* \"#utility.yul\":36703:36715   */\n      add\n        /* \"#utility.yul\":36698:36715   */\n      swap1\n      pop\n        /* \"#utility.yul\":36674:36828   */\n      jump(tag_784)\n    tag_786:\n        /* \"#utility.yul\":36857:36858   */\n      dup1\n        /* \"#utility.yul\":36852:36855   */\n      dup9\n        /* \"#utility.yul\":36848:36859   */\n      add\n        /* \"#utility.yul\":36841:36859   */\n      swap6\n      pop\n        /* \"#utility.yul\":36540:36869   */\n      pop\n      pop\n        /* \"#utility.yul\":36327:36869   */\n    tag_780:\n      pop\n        /* \"#utility.yul\":36133:36875   */\n      pop\n      pop\n        /* \"#utility.yul\":36044:36875   */\n      swap3\n      swap2\n      pop\n      pop\n      jump\t// out\n        /* \"#utility.yul\":36881:37320   */\n    tag_263:\n        /* \"#utility.yul\":37030:37034   */\n      0x00\n        /* \"#utility.yul\":37068:37070   */\n      0x40\n        /* \"#utility.yul\":37057:37066   */\n      dup3\n        /* \"#utility.yul\":37053:37071   */\n      add\n        /* \"#utility.yul\":37045:37071   */\n      swap1\n      pop\n        /* \"#utility.yul\":37081:37163   */\n      tag_788\n        /* \"#utility.yul\":37160:37161   */\n      0x00\n        /* \"#utility.yul\":37149:37158   */\n      dup4\n        /* \"#utility.yul\":37145:37162   */\n      add\n        /* \"#utility.yul\":37136:37142   */\n      dup6\n        /* \"#utility.yul\":37081:37163   */\n      tag_424\n      jump\t// in\n    tag_788:\n        /* \"#utility.yul\":37210:37219   */\n      dup2\n        /* \"#utility.yul\":37204:37208   */\n      dup2\n        /* \"#utility.yul\":37200:37220   */\n      sub\n        /* \"#utility.yul\":37195:37197   */\n      0x20\n        /* \"#utility.yul\":37184:37193   */\n      dup4\n        /* \"#utility.yul\":37180:37198   */\n      add\n        /* \"#utility.yul\":37173:37221   */\n      mstore\n        /* \"#utility.yul\":37238:37313   */\n      tag_789\n        /* \"#utility.yul\":37308:37312   */\n      dup2\n        /* \"#utility.yul\":37299:37305   */\n      dup5\n        /* \"#utility.yul\":37238:37313   */\n      tag_425\n      jump\t// in\n    tag_789:\n        /* \"#utility.yul\":37230:37313   */\n      swap1\n      pop\n        /* \"#utility.yul\":36881:37320   */\n      swap4\n      swap3\n      pop\n      pop\n      pop\n      jump\t// out\n        /* \"#utility.yul\":37326:37493   */\n    tag_285:\n        /* \"#utility.yul\":37363:37366   */\n      0x00\n        /* \"#utility.yul\":37386:37408   */\n      tag_791\n        /* \"#utility.yul\":37402:37407   */\n      dup3\n        /* \"#utility.yul\":37386:37408   */\n      tag_353\n      jump\t// in\n    tag_791:\n        /* \"#utility.yul\":37377:37408   */\n      swap2\n      pop\n        /* \"#utility.yul\":37430:37434   */\n      0xff\n        /* \"#utility.yul\":37423:37428   */\n      dup3\n        /* \"#utility.yul\":37420:37435   */\n      sub\n        /* \"#utility.yul\":37417:37458   */\n      tag_792\n      jumpi\n        /* \"#utility.yul\":37438:37456   */\n      tag_793\n      tag_369\n      jump\t// in\n    tag_793:\n        /* \"#utility.yul\":37417:37458   */\n    tag_792:\n        /* \"#utility.yul\":37485:37486   */\n      0x01\n        /* \"#utility.yul\":37478:37483   */\n      dup3\n        /* \"#utility.yul\":37474:37487   */\n      add\n        /* \"#utility.yul\":37467:37487   */\n      swap1\n      pop\n        /* \"#utility.yul\":37326:37493   */\n      swap2\n      swap1\n      pop\n      jump\t// out\n\n    auxdata: 0xa2646970667358221220656cb417c02d64a092b908da7a28d61662b7bd51d15d5178bf3472a5fb95906a64736f6c634300081a0033\n}\n",
				"bytecode": {
					"linkReferences": {},
					"object": "60806040526040518060a001604052806040518060400160405280600581526020017f4170706c6500000000000000000000000000000000000000000000000000000081525081526020016040518060400160405280600681526020017f42616e616e61000000000000000000000000000000000000000000000000000081525081526020016040518060400160405280600681526020017f436865727279000000000000000000000000000000000000000000000000000081525081526020016040518060400160405280600681526020017f44757269616e000000000000000000000000000000000000000000000000000081525081526020016040518060400160405280600a81526020017f456c6465726265727279000000000000000000000000000000000000000000008152508152505f906005610143929190610155565b5034801561014f575f80fd5b50610530565b828054828255905f5260205f2090810192821561019b579160200282015b8281111561019a57825182908161018a9190610461565b5091602001919060010190610173565b5b5090506101a891906101ac565b5090565b5b808211156101cb575f81816101c291906101cf565b506001016101ad565b5090565b5080546101db9061028b565b5f825580601f106101ec5750610209565b601f0160209004905f5260205f2090810190610208919061020c565b5b50565b5b80821115610223575f815f90555060010161020d565b5090565b5f81519050919050565b7f4e487b71000000000000000000000000000000000000000000000000000000005f52604160045260245ffd5b7f4e487b71000000000000000000000000000000000000000000000000000000005f52602260045260245ffd5b5f60028204905060018216806102a257607f821691505b6020821081036102b5576102b461025e565b5b50919050565b5f819050815f5260205f209050919050565b5f6020601f8301049050919050565b5f82821b905092915050565b5f600883026103177fffffffffffffffffffffffffffffffffffffffffffffffffffffffffffffffff826102dc565b61032186836102dc565b95508019841693508086168417925050509392505050565b5f819050919050565b5f819050919050565b5f61036561036061035b84610339565b610342565b610339565b9050919050565b5f819050919050565b61037e8361034b565b61039261038a8261036c565b8484546102e8565b825550505050565b5f90565b6103a661039a565b6103b1818484610375565b505050565b5b818110156103d4576103c95f8261039e565b6001810190506103b7565b5050565b601f821115610419576103ea816102bb565b6103f3846102cd565b81016020851015610402578190505b61041661040e856102cd565b8301826103b6565b50505b505050565b5f82821c905092915050565b5f6104395f198460080261041e565b1980831691505092915050565b5f610451838361042a565b9150826002028217905092915050565b61046a82610227565b67ffffffffffffffff81111561048357610482610231565b5b61048d825461028b565b6104988282856103d8565b5f60209050601f8311600181146104c9575f84156104b7578287015190505b6104c18582610446565b865550610528565b601f1984166104d7866102bb565b5f5b828110156104fe578489015182556001820191506020850194506020810190506104d9565b8683101561051b5784890151610517601f89168261042a565b8355505b6001600288020188555050505b505050505050565b61365b8061053d5f395ff3fe608060405234801561000f575f80fd5b50600436106100b2575f3560e01c8063a438d2081161006f578063a438d20814610178578063aa4103e214610196578063c22a95f1146101b4578063d19e39f0146101d0578063d5c68ab2146101ec578063e565c83514610208576100b2565b80630f1ad663146100b65780631616c521146100e65780633d536a2e146101025780634411b3eb1461011e5780634fd019131461013c578063684d46781461015a575b5f80fd5b6100d060048036038101906100cb91906122c7565b610224565b6040516100dd9190612362565b60405180910390f35b61010060048036038101906100fb9190612503565b6102c9565b005b61011c6004803603810190610117919061255d565b6107f0565b005b610126610a32565b60405161013391906125bf565b60405180910390f35b610144610a37565b60405161015191906125bf565b60405180910390f35b610162610a3c565b60405161016f91906125bf565b60405180910390f35b610180610a41565b60405161018d91906125e7565b60405180910390f35b61019e610a47565b6040516101ab91906125e7565b60405180910390f35b6101ce60048036038101906101c9919061255d565b610a4d565b005b6101ea60048036038101906101e5919061255d565b610bc4565b005b6102066004803603810190610201919061255d565b610d13565b005b610222600480360381019061021d919061262a565b610ea6565b005b5f8181548110610232575f80fd5b905f5260205f20015f91509050805461024a906126b1565b80601f0160208091040260200160405190810160405280929190818152602001828054610276906126b1565b80156102c15780601f10610298576101008083540402835291602001916102c1565b820191905f5260205f20905b8154815290600101906020018083116102a457829003601f168201915b505050505081565b8160011515605b826040516102de919061271b565b908152602001604051809103902060010160019054906101000a900460ff1615151461033f576040517f08c379a00000000000000000000000000000000000000000000000000000000081526004016103369061277b565b60405180910390fd5b82605b81604051610350919061271b565b90815260200160405180910390206002015f3373ffffffffffffffffffffffffffffffffffffffff1673ffffffffffffffffffffffffffffffffffffffff1681526020019081526020015f205f9054906101000a900460ff166103e8576040517f08c379a00000000000000000000000000000000000000000000000000000000081526004016103df90612809565b60405180910390fd5b5f605b856040516103f9919061271b565b908152602001604051809103902090505f8160080190505f60f81b816008015f3373ffffffffffffffffffffffffffffffffffffffff1673ffffffffffffffffffffffffffffffffffffffff1681526020019081526020015f205f9054906101000a900460f81b7effffffffffffffffffffffffffffffffffffffffffffffffffffffffffffff1916146104c2576040517f08c379a00000000000000000000000000000000000000000000000000000000081526004016104b990612871565b60405180910390fd5b5f7f41000000000000000000000000000000000000000000000000000000000000007effffffffffffffffffffffffffffffffffffffffffffffffffffffffffffff1916867effffffffffffffffffffffffffffffffffffffffffffffffffffffffffffff19161015801561059b57507f5a000000000000000000000000000000000000000000000000000000000000007effffffffffffffffffffffffffffffffffffffffffffffffffffffffffffff1916867effffffffffffffffffffffffffffffffffffffffffffffffffffffffffffff191610155b9050808061067d57507f61000000000000000000000000000000000000000000000000000000000000007effffffffffffffffffffffffffffffffffffffffffffffffffffffffffffff1916867effffffffffffffffffffffffffffffffffffffffffffffffffffffffffffff19161015801561067c57507f7a000000000000000000000000000000000000000000000000000000000000007effffffffffffffffffffffffffffffffffffffffffffffffffffffffffffff1916867effffffffffffffffffffffffffffffffffffffffffffffffffffffffffffff191610155b5b6106bc576040517f08c379a00000000000000000000000000000000000000000000000000000000081526004016106b3906128d9565b60405180910390fd5b80156106d85760208660f81c6106d29190612924565b60f81b95505b826006015f877effffffffffffffffffffffffffffffffffffffffffffffffffffffffffffff19167effffffffffffffffffffffffffffffffffffffffffffffffffffffffffffff191681526020019081526020015f205f9054906101000a900460ff161561077c576040517f08c379a0000000000000000000000000000000000000000000000000000000008152600401610773906129a2565b60405180910390fd5b61078a835f018333896111ca565b42836007018190555061012c8260010154426107a691906129c0565b11806107d857508260010160179054906101000a900460ff1660ff16826002015f9054906101000a900460ff1660ff16145b156107e7576107e68361141d565b5b50505050505050565b8060011515605b82604051610805919061271b565b908152602001604051809103902060010160019054906101000a900460ff16151514610866576040517f08c379a000000000000000000000000000000000000000000000000000000000815260040161085d9061277b565b60405180910390fd5b5f605b83604051610877919061271b565b908152602001604051809103902090508060010160169054906101000a900460ff1660ff168160010160179054906101000a900460ff1660ff16106108f1576040517f08c379a00000000000000000000000000000000000000000000000000000000081526004016108e890612a3d565b60405180910390fd5b806002015f3373ffffffffffffffffffffffffffffffffffffffff1673ffffffffffffffffffffffffffffffffffffffff1681526020019081526020015f205f9054906101000a900460ff161561097d576040517f08c379a000000000000000000000000000000000000000000000000000000000815260040161097490612aa5565b60405180910390fd5b6001816002015f3373ffffffffffffffffffffffffffffffffffffffff1673ffffffffffffffffffffffffffffffffffffffff1681526020019081526020015f205f6101000a81548160ff0219169083151502179055503373ffffffffffffffffffffffffffffffffffffffff16836040516109f9919061271b565b60405180910390207f6426ed08b4816b27e58d721b4ff6fb44e6696b9d5ca257dcbd4b0576eb4dc53960405160405180910390a3505050565b600581565b600581565b600681565b61012c81565b61038481565b8060011515605b82604051610a62919061271b565b908152602001604051809103902060010160019054906101000a900460ff16151514610ac3576040517f08c379a0000000000000000000000000000000000000000000000000000000008152600401610aba9061277b565b60405180910390fd5b81605b81604051610ad4919061271b565b90815260200160405180910390206002015f3373ffffffffffffffffffffffffffffffffffffffff1673ffffffffffffffffffffffffffffffffffffffff1681526020019081526020015f205f9054906101000a900460ff16610b6c576040517f08c379a0000000000000000000000000000000000000000000000000000000008152600401610b6390612809565b60405180910390fd5b5f605b84604051610b7d919061271b565b90815260200160405180910390209050610b9781336118df565b5f8160010160179054906101000a900460ff1660ff1603610bbe57610bbd816002611b2e565b5b50505050565b8060011515605b82604051610bd9919061271b565b908152602001604051809103902060010160019054906101000a900460ff16151514610c3a576040517f08c379a0000000000000000000000000000000000000000000000000000000008152600401610c319061277b565b60405180910390fd5b5f605b83604051610c4b919061271b565b908152602001604051809103902090505f816008019050805f015f9054906101000a900460ff16610cb1576040517f08c379a0000000000000000000000000000000000000000000000000000000008152600401610ca890612b0d565b60405180910390fd5b61012c816001015442610cc491906129c0565b11610d04576040517f08c379a0000000000000000000000000000000000000000000000000000000008152600401610cfb90612b75565b60405180910390fd5b610d0d8261141d565b50505050565b8060011515605b82604051610d28919061271b565b908152602001604051809103902060010160019054906101000a900460ff16151514610d89576040517f08c379a0000000000000000000000000000000000000000000000000000000008152600401610d809061277b565b60405180910390fd5b5f605b83604051610d9a919061271b565b908152602001604051809103902090503373ffffffffffffffffffffffffffffffffffffffff168160010160029054906101000a900473ffffffffffffffffffffffffffffffffffffffff1673ffffffffffffffffffffffffffffffffffffffff161480610e5757505f73ffffffffffffffffffffffffffffffffffffffff168160010160029054906101000a900473ffffffffffffffffffffffffffffffffffffffff1673ffffffffffffffffffffffffffffffffffffffff16145b610e96576040517f08c379a0000000000000000000000000000000000000000000000000000000008152600401610e8d90612c03565b60405180910390fd5b610ea1816002611b2e565b505050565b605b82604051610eb6919061271b565b908152602001604051809103902060010160019054906101000a900460ff1615610f15576040517f08c379a0000000000000000000000000000000000000000000000000000000008152600401610f0c90612c91565b60405180910390fd5b5f8160ff16118015610f2e5750600560ff168160ff1611155b610f6d576040517f08c379a0000000000000000000000000000000000000000000000000000000008152600401610f6490612d1f565b60405180910390fd5b5f610f76611cb2565b9050600560ff168160ff1610610fc1576040517f08c379a0000000000000000000000000000000000000000000000000000000008152600401610fb890612d87565b60405180910390fd5b5f60018260ff1660058110610fd957610fd8612da5565b5b60120201905083815f019081610fef9190612f6f565b5081816001015f6101000a81548160ff021916908360ff160217905550338160010160026101000a81548173ffffffffffffffffffffffffffffffffffffffff021916908373ffffffffffffffffffffffffffffffffffffffff160217905550828160010160166101000a81548160ff021916908360ff1602179055505f42336040516020016110809291906130d3565b604051602081830303815290604052805190602001205f1c90505f8080549050826110ab919061312b565b815481106110bc576110bb612da5565b5b905f5260205f20018260030190816110d49190613182565b508160030180546110e4906126b1565b905067ffffffffffffffff8111156110ff576110fe61238a565b5b60405190808252806020026020018201604052801561112d5781602001602082028036833780820191505090505b50826004019080519060200190611145929190612147565b5042826007018190555060018260010160016101000a81548160ff0219169083151502179055508460405161117a919061271b565b60405180910390207f0a0048d71a81bd0849ad071dd103d646a72b493a92a1cdf4cb7c13cf30f577df856040516111b191906125bf565b60405180910390a26111c38233611d4d565b5050505050565b8183600301846002015f9054906101000a900460ff1660ff16600581106111f4576111f3612da5565b5b015f6101000a81548173ffffffffffffffffffffffffffffffffffffffff021916908373ffffffffffffffffffffffffffffffffffffffff16021790555080836008015f8473ffffffffffffffffffffffffffffffffffffffff1673ffffffffffffffffffffffffffffffffffffffff1681526020019081526020015f205f6101000a81548160ff021916908360f81c02179055506001836009015f837effffffffffffffffffffffffffffffffffffffffffffffffffffffffffffff19167effffffffffffffffffffffffffffffffffffffffffffffffffffffffffffff191681526020019081526020015f205f8282829054906101000a900460ff166112fc9190613267565b92506101000a81548160ff021916908360ff1602179055506001836002015f8282829054906101000a900460ff166113349190613267565b92506101000a81548160ff021916908360ff160217905550825f015f9054906101000a900460ff166113c7576001835f015f6101000a81548160ff02191690831515021790555042836001018190555083604051611392919061331b565b60405180910390207fc39eb03dc11d6bbeb3b818b739e4478f7874c1f803d2e603cc7d7a45045cb68d60405160405180910390a25b8173ffffffffffffffffffffffffffffffffffffffff167fe1be499d3000b42a54f5be9b908b831fbed5da7f8431ee79b82a3fa6d092781e858360405161140f9291906133c1565b60405180910390a250505050565b5f8160080190505f8060f81b90505f600190505f805f5b856002015f9054906101000a900460ff1660ff1681101561155c575f866008015f88600301846005811061146b5761146a612da5565b5b015f9054906101000a900473ffffffffffffffffffffffffffffffffffffffff1673ffffffffffffffffffffffffffffffffffffffff1673ffffffffffffffffffffffffffffffffffffffff1681526020019081526020015f205f9054906101000a900460f81b90505f876009015f837effffffffffffffffffffffffffffffffffffffffffffffffffffffffffffff19167effffffffffffffffffffffffffffffffffffffffffffffffffffffffffffff191681526020019081526020015f205f9054906101000a900460ff1690508360ff168160ff16111561154d578196505b50508080600101915050611434565b505f86600301805461156d906126b1565b80601f0160208091040260200160405190810160405280929190818152602001828054611599906126b1565b80156115e45780601f106115bb576101008083540402835291602001916115e4565b820191905f5260205f20905b8154815290600101906020018083116115c757829003601f168201915b505050505090505f5b81518110156117c157857effffffffffffffffffffffffffffffffffffffffffffffffffffffffffffff191682828151811061162c5761162b612da5565b5b602001015160f81c60f81b7effffffffffffffffffffffffffffffffffffffffffffffffffffffffffffff191603611715576001886006015f887effffffffffffffffffffffffffffffffffffffffffffffffffffffffffffff19167effffffffffffffffffffffffffffffffffffffffffffffffffffffffffffff191681526020019081526020015f205f6101000a81548160ff02191690831515021790555060018860040182815481106116e5576116e4612da5565b5b905f5260205f2090602091828204019190066101000a81548160ff021916908315150217905550600193506117b4565b87600401818154811061172b5761172a612da5565b5b905f5260205f2090602091828204019190069054906101000a900460ff166117b3577f5f0000000000000000000000000000000000000000000000000000000000000082828151811061178157611780612da5565b5b60200101907effffffffffffffffffffffffffffffffffffffffffffffffffffffffffffff191690815f1a9053505f94505b5b80806001019150506115ed565b50866008015f8082015f6101000a81549060ff0219169055600182015f9055600282015f6101000a81549060ff0219169055600382015f61180291906121e8565b5050865f01604051611814919061346f565b60405180910390207f93484660649cf971864763c1bc0e0d0f5d7fdceeb388472825d299f8283268de868386156040516118509392919061349f565b60405180910390a2826118c4576001876005015f8282829054906101000a900460ff1661187d9190613267565b92506101000a81548160ff021916908360ff160217905550600660ff16876005015f9054906101000a900460ff1660ff16036118bf576118be876001611b2e565b5b6118d6565b83156118d5576118d4875f611b2e565b5b5b50505050505050565b5f826002015f8373ffffffffffffffffffffffffffffffffffffffff1673ffffffffffffffffffffffffffffffffffffffff1681526020019081526020015f205f6101000a81548160ff02191690831515021790555060018260010160178282829054906101000a900460ff166119569190612924565b92506101000a81548160ff021916908360ff1602179055505f8260080190505f8360010160179054906101000a900460ff1660ff161180156119a45750805f015f9054906101000a900460ff165b8015611a2057505f60f81b816008015f8473ffffffffffffffffffffffffffffffffffffffff1673ffffffffffffffffffffffffffffffffffffffff1681526020019081526020015f205f9054906101000a900460f81b7effffffffffffffffffffffffffffffffffffffffffffffffffffffffffffff191614155b15611a3357611a32835f018284611de1565b5b8173ffffffffffffffffffffffffffffffffffffffff168360010160029054906101000a900473ffffffffffffffffffffffffffffffffffffffff1673ffffffffffffffffffffffffffffffffffffffff1603611ace575f8360010160026101000a81548173ffffffffffffffffffffffffffffffffffffffff021916908373ffffffffffffffffffffffffffffffffffffffff1602179055505b8173ffffffffffffffffffffffffffffffffffffffff16835f01604051611af5919061346f565b60405180910390207fe3c5754d381588d73abe5a3ea491352ae6599bc3517832567c983a64f1fcb85b60405160405180910390a3505050565b815f01604051611b3e919061346f565b60405180910390207f3d40bf146111cf2fb1681f012b4ced47c0260037f37ac76366766d0d20e1689d8284600301604051611b7a9291906135cf565b60405180910390a26001826001015f9054906101000a900460ff1660ff1660058110611ba957611ba8612da5565b5b601202015f8082015f611bbc9190612206565b600182015f6101000a81549060ff02191690556001820160016101000a81549060ff02191690556001820160026101000a81549073ffffffffffffffffffffffffffffffffffffffff02191690556001820160166101000a81549060ff02191690556001820160176101000a81549060ff0219169055600382015f611c419190612206565b600482015f611c509190612243565b600582015f6101000a81549060ff0219169055600782015f9055600882015f8082015f6101000a81549060ff0219169055600182015f9055600282015f6101000a81549060ff0219169055600382015f611caa91906121e8565b505050505050565b5f805f90505b60058160ff161015611d44575f60018260ff1660058110611cdc57611cdb612da5565b5b6012020190508060010160019054906101000a900460ff16611d02578192505050611d4a565b610384816007015442611d1591906129c0565b1115611d3057611d26816002611b2e565b8192505050611d4a565b508080611d3c906135fd565b915050611cb8565b50600590505b90565b6001826002015f8373ffffffffffffffffffffffffffffffffffffffff1673ffffffffffffffffffffffffffffffffffffffff1681526020019081526020015f205f6101000a81548160ff02191690831515021790555060018260010160178282829054906101000a900460ff16611dc59190613267565b92506101000a81548160ff021916908360ff1602179055505050565b5f826008015f8373ffffffffffffffffffffffffffffffffffffffff1673ffffffffffffffffffffffffffffffffffffffff1681526020019081526020015f205f9054906101000a900460f81b90505f60f81b836008015f8473ffffffffffffffffffffffffffffffffffffffff1673ffffffffffffffffffffffffffffffffffffffff1681526020019081526020015f205f6101000a81548160ff021916908360f81c02179055505f805b846002015f9054906101000a900460ff1660ff168110156120b7578373ffffffffffffffffffffffffffffffffffffffff16856003018260058110611ed557611ed4612da5565b5b015f9054906101000a900473ffffffffffffffffffffffffffffffffffffffff1673ffffffffffffffffffffffffffffffffffffffff1603611f6f575f856003018260058110611f2857611f27612da5565b5b015f6101000a81548173ffffffffffffffffffffffffffffffffffffffff021916908373ffffffffffffffffffffffffffffffffffffffff160217905550600191506120aa565b81156120a9575f85600301600183611f8791906129c0565b60058110611f9857611f97612da5565b5b015f9054906101000a900473ffffffffffffffffffffffffffffffffffffffff169050856003018260058110611fd157611fd0612da5565b5b015f9054906101000a900473ffffffffffffffffffffffffffffffffffffffff168660030160018461200391906129c0565b6005811061201457612013612da5565b5b015f6101000a81548173ffffffffffffffffffffffffffffffffffffffff021916908373ffffffffffffffffffffffffffffffffffffffff1602179055508086600301836005811061206957612068612da5565b5b015f6101000a81548173ffffffffffffffffffffffffffffffffffffffff021916908373ffffffffffffffffffffffffffffffffffffffff160217905550505b5b8080600101915050611e8d565b506001846002015f8282829054906101000a900460ff166120d89190612924565b92506101000a81548160ff021916908360ff1602179055508273ffffffffffffffffffffffffffffffffffffffff167fe11e7b01cdd17c8c7ab41ed7897874e6a229485a77cc445646517fdac64e75bc86846040516121389291906133c1565b60405180910390a25050505050565b828054828255905f5260205f2090601f016020900481019282156121d7579160200282015f5b838211156121a957835183826101000a81548160ff02191690831515021790555092602001926001016020815f0104928301926001030261216d565b80156121d55782816101000a81549060ff02191690556001016020815f010492830192600103026121a9565b505b5090506121e49190612268565b5090565b505f81556001015f81556001015f81556001015f81556001015f9055565b508054612212906126b1565b5f825580601f106122235750612240565b601f0160209004905f5260205f209081019061223f9190612268565b5b50565b5080545f8255601f0160209004905f5260205f20908101906122659190612268565b50565b5b8082111561227f575f815f905550600101612269565b5090565b5f604051905090565b5f80fd5b5f80fd5b5f819050919050565b6122a681612294565b81146122b0575f80fd5b50565b5f813590506122c18161229d565b92915050565b5f602082840312156122dc576122db61228c565b5b5f6122e9848285016122b3565b91505092915050565b5f81519050919050565b5f82825260208201905092915050565b8281835e5f83830152505050565b5f601f19601f8301169050919050565b5f612334826122f2565b61233e81856122fc565b935061234e81856020860161230c565b6123578161231a565b840191505092915050565b5f6020820190508181035f83015261237a818461232a565b905092915050565b5f80fd5b5f80fd5b7f4e487b71000000000000000000000000000000000000000000000000000000005f52604160045260245ffd5b6123c08261231a565b810181811067ffffffffffffffff821117156123df576123de61238a565b5b80604052505050565b5f6123f1612283565b90506123fd82826123b7565b919050565b5f67ffffffffffffffff82111561241c5761241b61238a565b5b6124258261231a565b9050602081019050919050565b828183375f83830152505050565b5f61245261244d84612402565b6123e8565b90508281526020810184848401111561246e5761246d612386565b5b612479848285612432565b509392505050565b5f82601f83011261249557612494612382565b5b81356124a5848260208601612440565b91505092915050565b5f7fff0000000000000000000000000000000000000000000000000000000000000082169050919050565b6124e2816124ae565b81146124ec575f80fd5b50565b5f813590506124fd816124d9565b92915050565b5f80604083850312156125195761251861228c565b5b5f83013567ffffffffffffffff81111561253657612535612290565b5b61254285828601612481565b9250506020612553858286016124ef565b9150509250929050565b5f602082840312156125725761257161228c565b5b5f82013567ffffffffffffffff81111561258f5761258e612290565b5b61259b84828501612481565b91505092915050565b5f60ff82169050919050565b6125b9816125a4565b82525050565b5f6020820190506125d25f8301846125b0565b92915050565b6125e181612294565b82525050565b5f6020820190506125fa5f8301846125d8565b92915050565b612609816125a4565b8114612613575f80fd5b50565b5f8135905061262481612600565b92915050565b5f80604083850312156126405761263f61228c565b5b5f83013567ffffffffffffffff81111561265d5761265c612290565b5b61266985828601612481565b925050602061267a85828601612616565b9150509250929050565b7f4e487b71000000000000000000000000000000000000000000000000000000005f52602260045260245ffd5b5f60028204905060018216806126c857607f821691505b6020821081036126db576126da612684565b5b50919050565b5f81905092915050565b5f6126f5826122f2565b6126ff81856126e1565b935061270f81856020860161230c565b80840191505092915050565b5f61272682846126eb565b915081905092915050565b7f47616d6573206973206e6f7420616374697665000000000000000000000000005f82015250565b5f6127656013836122fc565b915061277082612731565b602082019050919050565b5f6020820190508181035f83015261279281612759565b9050919050565b7f596f7520617265206e6f74206120706c61796572206f6620746869732067616d5f8201527f6500000000000000000000000000000000000000000000000000000000000000602082015250565b5f6127f36021836122fc565b91506127fe82612799565b604082019050919050565b5f6020820190508181035f830152612820816127e7565b9050919050565b7f596f7520616c726561647920766f7465640000000000000000000000000000005f82015250565b5f61285b6011836122fc565b915061286682612827565b602082019050919050565b5f6020820190508181035f8301526128888161284f565b9050919050565b7f4c6574746572206d75737420626520696e20412d5a20612d7a000000000000005f82015250565b5f6128c36019836122fc565b91506128ce8261288f565b602082019050919050565b5f6020820190508181035f8301526128f0816128b7565b9050919050565b7f4e487b71000000000000000000000000000000000000000000000000000000005f52601160045260245ffd5b5f61292e826125a4565b9150612939836125a4565b9250828203905060ff811115612952576129516128f7565b5b92915050565b7f4c65747465722068617320616c7265616479206265656e2067756573736564005f82015250565b5f61298c601f836122fc565b915061299782612958565b602082019050919050565b5f6020820190508181035f8301526129b981612980565b9050919050565b5f6129ca82612294565b91506129d583612294565b92508282039050818111156129ed576129ec6128f7565b5b92915050565b7f4e6f206d6f726520706c617965727320736c6f747320617661696c61626c65005f82015250565b5f612a27601f836122fc565b9150612a32826129f3565b602082019050919050565b5f6020820190508181035f830152612a5481612a1b565b9050919050565b7f416c726561647920696e207468652067616d65000000000000000000000000005f82015250565b5f612a8f6013836122fc565b9150612a9a82612a5b565b602082019050919050565b5f6020820190508181035f830152612abc81612a83565b9050919050565b7f4e6f2061637469766520766f74650000000000000000000000000000000000005f82015250565b5f612af7600e836122fc565b9150612b0282612ac3565b602082019050919050565b5f6020820190508181035f830152612b2481612aeb565b9050919050565b7f566f7465206475726174696f6e20686173206e6f7420656c61707365640000005f82015250565b5f612b5f601d836122fc565b9150612b6a82612b2b565b602082019050919050565b5f6020820190508181035f830152612b8c81612b53565b9050919050565b7f4f6e6c792067616d652063726561746f722063616e2064656c657465207468655f8201527f2067616d65000000000000000000000000000000000000000000000000000000602082015250565b5f612bed6025836122fc565b9150612bf882612b93565b604082019050919050565b5f6020820190508181035f830152612c1a81612be1565b9050919050565b7f412067616d652077697468207468652063686f73656e20494420616c726561645f8201527f7920657869737473000000000000000000000000000000000000000000000000602082015250565b5f612c7b6028836122fc565b9150612c8682612c21565b604082019050919050565b5f6020820190508181035f830152612ca881612c6f565b9050919050565b7f4174206c65617374206f6e6520706c6179657220726571756972656420616e645f8201527f206174206d6f7374204d41585f504c415945525320616c6c6f77656400000000602082015250565b5f612d09603c836122fc565b9150612d1482612caf565b604082019050919050565b5f6020820190508181035f830152612d3681612cfd565b9050919050565b7f4e6f20667265652067616d6520736c6f7420617661696c61626c6500000000005f82015250565b5f612d71601b836122fc565b9150612d7c82612d3d565b602082019050919050565b5f6020820190508181035f830152612d9e81612d65565b9050919050565b7f4e487b71000000000000000000000000000000000000000000000000000000005f52603260045260245ffd5b5f819050815f5260205f209050919050565b5f6020601f8301049050919050565b5f82821b905092915050565b5f60088302612e2e7fffffffffffffffffffffffffffffffffffffffffffffffffffffffffffffffff82612df3565b612e388683612df3565b95508019841693508086168417925050509392505050565b5f819050919050565b5f612e73612e6e612e6984612294565b612e50565b612294565b9050919050565b5f819050919050565b612e8c83612e59565b612ea0612e9882612e7a565b848454612dff565b825550505050565b5f90565b612eb4612ea8565b612ebf818484612e83565b505050565b5b81811015612ee257612ed75f82612eac565b600181019050612ec5565b5050565b601f821115612f2757612ef881612dd2565b612f0184612de4565b81016020851015612f10578190505b612f24612f1c85612de4565b830182612ec4565b50505b505050565b5f82821c905092915050565b5f612f475f1984600802612f2c565b1980831691505092915050565b5f612f5f8383612f38565b9150826002028217905092915050565b612f78826122f2565b67ffffffffffffffff811115612f9157612f9061238a565b5b612f9b82546126b1565b612fa6828285612ee6565b5f60209050601f831160018114612fd7575f8415612fc5578287015190505b612fcf8582612f54565b865550613036565b601f198416612fe586612dd2565b5f5b8281101561300c57848901518255600182019150602085019450602081019050612fe7565b868310156130295784890151613025601f891682612f38565b8355505b6001600288020188555050505b505050505050565b5f819050919050565b61305861305382612294565b61303e565b82525050565b5f73ffffffffffffffffffffffffffffffffffffffff82169050919050565b5f6130878261305e565b9050919050565b5f8160601b9050919050565b5f6130a48261308e565b9050919050565b5f6130b58261309a565b9050919050565b6130cd6130c88261307d565b6130ab565b82525050565b5f6130de8285613047565b6020820191506130ee82846130bc565b6014820191508190509392505050565b7f4e487b71000000000000000000000000000000000000000000000000000000005f52601260045260245ffd5b5f61313582612294565b915061314083612294565b9250826131505761314f6130fe565b5b828206905092915050565b5f81549050613169816126b1565b9050919050565b5f819050815f5260205f209050919050565b818103613190575050613265565b6131998261315b565b67ffffffffffffffff8111156131b2576131b161238a565b5b6131bc82546126b1565b6131c7828285612ee6565b5f601f8311600181146131f4575f84156131e2578287015490505b6131ec8582612f54565b86555061325e565b601f19841661320287613170565b965061320d86612dd2565b5f5b828110156132345784890154825560018201915060018501945060208101905061320f565b86831015613251578489015461324d601f891682612f38565b8355505b6001600288020188555050505b5050505050505b565b5f613271826125a4565b915061327c836125a4565b9250828201905060ff811115613295576132946128f7565b5b92915050565b5f81546132a7816126b1565b6132b181866126e1565b9450600182165f81146132cb57600181146132e057613312565b60ff1983168652811515820286019350613312565b6132e985613170565b5f5b8381101561330a578154818901526001820191506020810190506132eb565b838801955050505b50505092915050565b5f613326828461329b565b915081905092915050565b5f815461333d816126b1565b61334781866122fc565b9450600182165f81146133615760018114613377576133a9565b60ff1983168652811515602002860193506133a9565b61338085613170565b5f5b838110156133a157815481890152600182019150602081019050613382565b808801955050505b50505092915050565b6133bb816124ae565b82525050565b5f6040820190508181035f8301526133d98185613331565b90506133e860208301846133b2565b9392505050565b5f81546133fb816126b1565b61340581866126e1565b9450600182165f811461341f576001811461343457613466565b60ff1983168652811515820286019350613466565b61343d85612dd2565b5f5b8381101561345e5781548189015260018201915060208101905061343f565b838801955050505b50505092915050565b5f61347a82846133ef565b915081905092915050565b5f8115159050919050565b61349981613485565b82525050565b5f6060820190506134b25f8301866133b2565b81810360208301526134c4818561232a565b90506134d36040830184613490565b949350505050565b7f4e487b71000000000000000000000000000000000000000000000000000000005f52602160045260245ffd5b60038110613519576135186134db565b5b50565b5f81905061352982613508565b919050565b5f6135388261351c565b9050919050565b6135488161352e565b82525050565b5f815461355a816126b1565b61356481866122fc565b9450600182165f811461357e5760018114613594576135c6565b60ff1983168652811515602002860193506135c6565b61359d85612dd2565b5f5b838110156135be5781548189015260018201915060208101905061359f565b808801955050505b50505092915050565b5f6040820190506135e25f83018561353f565b81810360208301526135f4818461354e565b90509392505050565b5f613607826125a4565b915060ff820361361a576136196128f7565b5b60018201905091905056fea2646970667358221220656cb417c02d64a092b908da7a28d61662b7bd51d15d5178bf3472a5fb95906a64736f6c634300081a0033",
					"opcodes": "PUSH1 0x80 PUSH1 0x40 MSTORE PUSH1 0x40 MLOAD DUP1 PUSH1 0xA0 ADD PUSH1 0x40 MSTORE DUP1 PUSH1 0x40 MLOAD DUP1 PUSH1 0x40 ADD PUSH1 0x40 MSTORE DUP1 PUSH1 0x5 DUP2 MSTORE PUSH1 0x20 ADD PUSH32 0x4170706C65000000000000000000000000000000000000000000000000000000 DUP2 MSTORE POP DUP2 MSTORE PUSH1 0x20 ADD PUSH1 0x40 MLOAD DUP1 PUSH1 0x40 ADD PUSH1 0x40 MSTORE DUP1 PUSH1 0x6 DUP2 MSTORE PUSH1 0x20 ADD PUSH32 0x42616E616E610000000000000000000000000000000000000000000000000000 DUP2 MSTORE POP DUP2 MSTORE PUSH1 0x20 ADD PUSH1 0x40 MLOAD DUP1 PUSH1 0x40 ADD PUSH1 0x40 MSTORE DUP1 PUSH1 0x6 DUP2 MSTORE PUSH1 0x20 ADD PUSH32 0x4368657272790000000000000000000000000000000000000000000000000000 DUP2 MSTORE POP DUP2 MSTORE PUSH1 0x20 ADD PUSH1 0x40 MLOAD DUP1 PUSH1 0x40 ADD PUSH1 0x40 MSTORE DUP1 PUSH1 0x6 DUP2 MSTORE PUSH1 0x20 ADD PUSH32 0x44757269616E0000000000000000000000000000000000000000000000000000 DUP2 MSTORE POP DUP2 MSTORE PUSH1 0x20 ADD PUSH1 0x40 MLOAD DUP1 PUSH1 0x40 ADD PUSH1 0x40 MSTORE DUP1 PUSH1 0xA DUP2 MSTORE PUSH1 0x20 ADD PUSH32 0x456C646572626572727900000000000000000000000000000000000000000000 DUP2 MSTORE POP DUP2 MSTORE POP PUSH0 SWAP1 PUSH1 0x5 PUSH2 0x143 SWAP3 SWAP2 SWAP1 PUSH2 0x155 JUMP JUMPDEST POP CALLVALUE DUP1 ISZERO PUSH2 0x14F JUMPI PUSH0 DUP1 REVERT JUMPDEST POP PUSH2 0x530 JUMP JUMPDEST DUP3 DUP1 SLOAD DUP3 DUP3 SSTORE SWAP1 PUSH0 MSTORE PUSH1 0x20 PUSH0 KECCAK256 SWAP1 DUP2 ADD SWAP3 DUP3 ISZERO PUSH2 0x19B JUMPI SWAP2 PUSH1 0x20 MUL DUP3 ADD JUMPDEST DUP3 DUP2 GT ISZERO PUSH2 0x19A JUMPI DUP3 MLOAD DUP3 SWAP1 DUP2 PUSH2 0x18A SWAP2 SWAP1 PUSH2 0x461 JUMP JUMPDEST POP SWAP2 PUSH1 0x20 ADD SWAP2 SWAP1 PUSH1 0x1 ADD SWAP1 PUSH2 0x173 JUMP JUMPDEST JUMPDEST POP SWAP1 POP PUSH2 0x1A8 SWAP2 SWAP1 PUSH2 0x1AC JUMP JUMPDEST POP SWAP1 JUMP JUMPDEST JUMPDEST DUP1 DUP3 GT ISZERO PUSH2 0x1CB JUMPI PUSH0 DUP2 DUP2 PUSH2 0x1C2 SWAP2 SWAP1 PUSH2 0x1CF JUMP JUMPDEST POP PUSH1 0x1 ADD PUSH2 0x1AD JUMP JUMPDEST POP SWAP1 JUMP JUMPDEST POP DUP1 SLOAD PUSH2 0x1DB SWAP1 PUSH2 0x28B JUMP JUMPDEST PUSH0 DUP3 SSTORE DUP1 PUSH1 0x1F LT PUSH2 0x1EC JUMPI POP PUSH2 0x209 JUMP JUMPDEST PUSH1 0x1F ADD PUSH1 0x20 SWAP1 DIV SWAP1 PUSH0 MSTORE PUSH1 0x20 PUSH0 KECCAK256 SWAP1 DUP2 ADD SWAP1 PUSH2 0x208 SWAP2 SWAP1 PUSH2 0x20C JUMP JUMPDEST JUMPDEST POP JUMP JUMPDEST JUMPDEST DUP1 DUP3 GT ISZERO PUSH2 0x223 JUMPI PUSH0 DUP2 PUSH0 SWAP1 SSTORE POP PUSH1 0x1 ADD PUSH2 0x20D JUMP JUMPDEST POP SWAP1 JUMP JUMPDEST PUSH0 DUP2 MLOAD SWAP1 POP SWAP2 SWAP1 POP JUMP JUMPDEST PUSH32 0x4E487B7100000000000000000000000000000000000000000000000000000000 PUSH0 MSTORE PUSH1 0x41 PUSH1 0x4 MSTORE PUSH1 0x24 PUSH0 REVERT JUMPDEST PUSH32 0x4E487B7100000000000000000000000000000000000000000000000000000000 PUSH0 MSTORE PUSH1 0x22 PUSH1 0x4 MSTORE PUSH1 0x24 PUSH0 REVERT JUMPDEST PUSH0 PUSH1 0x2 DUP3 DIV SWAP1 POP PUSH1 0x1 DUP3 AND DUP1 PUSH2 0x2A2 JUMPI PUSH1 0x7F DUP3 AND SWAP2 POP JUMPDEST PUSH1 0x20 DUP3 LT DUP2 SUB PUSH2 0x2B5 JUMPI PUSH2 0x2B4 PUSH2 0x25E JUMP JUMPDEST JUMPDEST POP SWAP2 SWAP1 POP JUMP JUMPDEST PUSH0 DUP2 SWAP1 POP DUP2 PUSH0 MSTORE PUSH1 0x20 PUSH0 KECCAK256 SWAP1 POP SWAP2 SWAP1 POP JUMP JUMPDEST PUSH0 PUSH1 0x20 PUSH1 0x1F DUP4 ADD DIV SWAP1 POP SWAP2 SWAP1 POP JUMP JUMPDEST PUSH0 DUP3 DUP3 SHL SWAP1 POP SWAP3 SWAP2 POP POP JUMP JUMPDEST PUSH0 PUSH1 0x8 DUP4 MUL PUSH2 0x317 PUSH32 0xFFFFFFFFFFFFFFFFFFFFFFFFFFFFFFFFFFFFFFFFFFFFFFFFFFFFFFFFFFFFFFFF DUP3 PUSH2 0x2DC JUMP JUMPDEST PUSH2 0x321 DUP7 DUP4 PUSH2 0x2DC JUMP JUMPDEST SWAP6 POP DUP1 NOT DUP5 AND SWAP4 POP DUP1 DUP7 AND DUP5 OR SWAP3 POP POP POP SWAP4 SWAP3 POP POP POP JUMP JUMPDEST PUSH0 DUP2 SWAP1 POP SWAP2 SWAP1 POP JUMP JUMPDEST PUSH0 DUP2 SWAP1 POP SWAP2 SWAP1 POP JUMP JUMPDEST PUSH0 PUSH2 0x365 PUSH2 0x360 PUSH2 0x35B DUP5 PUSH2 0x339 JUMP JUMPDEST PUSH2 0x342 JUMP JUMPDEST PUSH2 0x339 JUMP JUMPDEST SWAP1 POP SWAP2 SWAP1 POP JUMP JUMPDEST PUSH0 DUP2 SWAP1 POP SWAP2 SWAP1 POP JUMP JUMPDEST PUSH2 0x37E DUP4 PUSH2 0x34B JUMP JUMPDEST PUSH2 0x392 PUSH2 0x38A DUP3 PUSH2 0x36C JUMP JUMPDEST DUP5 DUP5 SLOAD PUSH2 0x2E8 JUMP JUMPDEST DUP3 SSTORE POP POP POP POP JUMP JUMPDEST PUSH0 SWAP1 JUMP JUMPDEST PUSH2 0x3A6 PUSH2 0x39A JUMP JUMPDEST PUSH2 0x3B1 DUP2 DUP5 DUP5 PUSH2 0x375 JUMP JUMPDEST POP POP POP JUMP JUMPDEST JUMPDEST DUP2 DUP2 LT ISZERO PUSH2 0x3D4 JUMPI PUSH2 0x3C9 PUSH0 DUP3 PUSH2 0x39E JUMP JUMPDEST PUSH1 0x1 DUP2 ADD SWAP1 POP PUSH2 0x3B7 JUMP JUMPDEST POP POP JUMP JUMPDEST PUSH1 0x1F DUP3 GT ISZERO PUSH2 0x419 JUMPI PUSH2 0x3EA DUP2 PUSH2 0x2BB JUMP JUMPDEST PUSH2 0x3F3 DUP5 PUSH2 0x2CD JUMP JUMPDEST DUP2 ADD PUSH1 0x20 DUP6 LT ISZERO PUSH2 0x402 JUMPI DUP2 SWAP1 POP JUMPDEST PUSH2 0x416 PUSH2 0x40E DUP6 PUSH2 0x2CD JUMP JUMPDEST DUP4 ADD DUP3 PUSH2 0x3B6 JUMP JUMPDEST POP POP JUMPDEST POP POP POP JUMP JUMPDEST PUSH0 DUP3 DUP3 SHR SWAP1 POP SWAP3 SWAP2 POP POP JUMP JUMPDEST PUSH0 PUSH2 0x439 PUSH0 NOT DUP5 PUSH1 0x8 MUL PUSH2 0x41E JUMP JUMPDEST NOT DUP1 DUP4 AND SWAP2 POP POP SWAP3 SWAP2 POP POP JUMP JUMPDEST PUSH0 PUSH2 0x451 DUP4 DUP4 PUSH2 0x42A JUMP JUMPDEST SWAP2 POP DUP3 PUSH1 0x2 MUL DUP3 OR SWAP1 POP SWAP3 SWAP2 POP POP JUMP JUMPDEST PUSH2 0x46A DUP3 PUSH2 0x227 JUMP JUMPDEST PUSH8 0xFFFFFFFFFFFFFFFF DUP2 GT ISZERO PUSH2 0x483 JUMPI PUSH2 0x482 PUSH2 0x231 JUMP JUMPDEST JUMPDEST PUSH2 0x48D DUP3 SLOAD PUSH2 0x28B JUMP JUMPDEST PUSH2 0x498 DUP3 DUP3 DUP6 PUSH2 0x3D8 JUMP JUMPDEST PUSH0 PUSH1 0x20 SWAP1 POP PUSH1 0x1F DUP4 GT PUSH1 0x1 DUP2 EQ PUSH2 0x4C9 JUMPI PUSH0 DUP5 ISZERO PUSH2 0x4B7 JUMPI DUP3 DUP8 ADD MLOAD SWAP1 POP JUMPDEST PUSH2 0x4C1 DUP6 DUP3 PUSH2 0x446 JUMP JUMPDEST DUP7 SSTORE POP PUSH2 0x528 JUMP JUMPDEST PUSH1 0x1F NOT DUP5 AND PUSH2 0x4D7 DUP7 PUSH2 0x2BB JUMP JUMPDEST PUSH0 JUMPDEST DUP3 DUP2 LT ISZERO PUSH2 0x4FE JUMPI DUP5 DUP10 ADD MLOAD DUP3 SSTORE PUSH1 0x1 DUP3 ADD SWAP2 POP PUSH1 0x20 DUP6 ADD SWAP5 POP PUSH1 0x20 DUP2 ADD SWAP1 POP PUSH2 0x4D9 JUMP JUMPDEST DUP7 DUP4 LT ISZERO PUSH2 0x51B JUMPI DUP5 DUP10 ADD MLOAD PUSH2 0x517 PUSH1 0x1F DUP10 AND DUP3 PUSH2 0x42A JUMP JUMPDEST DUP4 SSTORE POP JUMPDEST PUSH1 0x1 PUSH1 0x2 DUP9 MUL ADD DUP9 SSTORE POP POP POP JUMPDEST POP POP POP POP POP POP JUMP JUMPDEST PUSH2 0x365B DUP1 PUSH2 0x53D PUSH0 CODECOPY PUSH0 RETURN INVALID PUSH1 0x80 PUSH1 0x40 MSTORE CALLVALUE DUP1 ISZERO PUSH2 0xF JUMPI PUSH0 DUP1 REVERT JUMPDEST POP PUSH1 0x4 CALLDATASIZE LT PUSH2 0xB2 JUMPI PUSH0 CALLDATALOAD PUSH1 0xE0 SHR DUP1 PUSH4 0xA438D208 GT PUSH2 0x6F JUMPI DUP1 PUSH4 0xA438D208 EQ PUSH2 0x178 JUMPI DUP1 PUSH4 0xAA4103E2 EQ PUSH2 0x196 JUMPI DUP1 PUSH4 0xC22A95F1 EQ PUSH2 0x1B4 JUMPI DUP1 PUSH4 0xD19E39F0 EQ PUSH2 0x1D0 JUMPI DUP1 PUSH4 0xD5C68AB2 EQ PUSH2 0x1EC JUMPI DUP1 PUSH4 0xE565C835 EQ PUSH2 0x208 JUMPI PUSH2 0xB2 JUMP JUMPDEST DUP1 PUSH4 0xF1AD663 EQ PUSH2 0xB6 JUMPI DUP1 PUSH4 0x1616C521 EQ PUSH2 0xE6 JUMPI DUP1 PUSH4 0x3D536A2E EQ PUSH2 0x102 JUMPI DUP1 PUSH4 0x4411B3EB EQ PUSH2 0x11E JUMPI DUP1 PUSH4 0x4FD01913 EQ PUSH2 0x13C JUMPI DUP1 PUSH4 0x684D4678 EQ PUSH2 0x15A JUMPI JUMPDEST PUSH0 DUP1 REVERT JUMPDEST PUSH2 0xD0 PUSH1 0x4 DUP1 CALLDATASIZE SUB DUP2 ADD SWAP1 PUSH2 0xCB SWAP2 SWAP1 PUSH2 0x22C7 JUMP JUMPDEST PUSH2 0x224 JUMP JUMPDEST PUSH1 0x40 MLOAD PUSH2 0xDD SWAP2 SWAP1 PUSH2 0x2362 JUMP JUMPDEST PUSH1 0x40 MLOAD DUP1 SWAP2 SUB SWAP1 RETURN JUMPDEST PUSH2 0x100 PUSH1 0x4 DUP1 CALLDATASIZE SUB DUP2 ADD SWAP1 PUSH2 0xFB SWAP2 SWAP1 PUSH2 0x2503 JUMP JUMPDEST PUSH2 0x2C9 JUMP JUMPDEST STOP JUMPDEST PUSH2 0x11C PUSH1 0x4 DUP1 CALLDATASIZE SUB DUP2 ADD SWAP1 PUSH2 0x117 SWAP2 SWAP1 PUSH2 0x255D JUMP JUMPDEST PUSH2 0x7F0 JUMP JUMPDEST STOP JUMPDEST PUSH2 0x126 PUSH2 0xA32 JUMP JUMPDEST PUSH1 0x40 MLOAD PUSH2 0x133 SWAP2 SWAP1 PUSH2 0x25BF JUMP JUMPDEST PUSH1 0x40 MLOAD DUP1 SWAP2 SUB SWAP1 RETURN JUMPDEST PUSH2 0x144 PUSH2 0xA37 JUMP JUMPDEST PUSH1 0x40 MLOAD PUSH2 0x151 SWAP2 SWAP1 PUSH2 0x25BF JUMP JUMPDEST PUSH1 0x40 MLOAD DUP1 SWAP2 SUB SWAP1 RETURN JUMPDEST PUSH2 0x162 PUSH2 0xA3C JUMP JUMPDEST PUSH1 0x40 MLOAD PUSH2 0x16F SWAP2 SWAP1 PUSH2 0x25BF JUMP JUMPDEST PUSH1 0x40 MLOAD DUP1 SWAP2 SUB SWAP1 RETURN JUMPDEST PUSH2 0x180 PUSH2 0xA41 JUMP JUMPDEST PUSH1 0x40 MLOAD PUSH2 0x18D SWAP2 SWAP1 PUSH2 0x25E7 JUMP JUMPDEST PUSH1 0x40 MLOAD DUP1 SWAP2 SUB SWAP1 RETURN JUMPDEST PUSH2 0x19E PUSH2 0xA47 JUMP JUMPDEST PUSH1 0x40 MLOAD PUSH2 0x1AB SWAP2 SWAP1 PUSH2 0x25E7 JUMP JUMPDEST PUSH1 0x40 MLOAD DUP1 SWAP2 SUB SWAP1 RETURN JUMPDEST PUSH2 0x1CE PUSH1 0x4 DUP1 CALLDATASIZE SUB DUP2 ADD SWAP1 PUSH2 0x1C9 SWAP2 SWAP1 PUSH2 0x255D JUMP JUMPDEST PUSH2 0xA4D JUMP JUMPDEST STOP JUMPDEST PUSH2 0x1EA PUSH1 0x4 DUP1 CALLDATASIZE SUB DUP2 ADD SWAP1 PUSH2 0x1E5 SWAP2 SWAP1 PUSH2 0x255D JUMP JUMPDEST PUSH2 0xBC4 JUMP JUMPDEST STOP JUMPDEST PUSH2 0x206 PUSH1 0x4 DUP1 CALLDATASIZE SUB DUP2 ADD SWAP1 PUSH2 0x201 SWAP2 SWAP1 PUSH2 0x255D JUMP JUMPDEST PUSH2 0xD13 JUMP JUMPDEST STOP JUMPDEST PUSH2 0x222 PUSH1 0x4 DUP1 CALLDATASIZE SUB DUP2 ADD SWAP1 PUSH2 0x21D SWAP2 SWAP1 PUSH2 0x262A JUMP JUMPDEST PUSH2 0xEA6 JUMP JUMPDEST STOP JUMPDEST PUSH0 DUP2 DUP2 SLOAD DUP2 LT PUSH2 0x232 JUMPI PUSH0 DUP1 REVERT JUMPDEST SWAP1 PUSH0 MSTORE PUSH1 0x20 PUSH0 KECCAK256 ADD PUSH0 SWAP2 POP SWAP1 POP DUP1 SLOAD PUSH2 0x24A SWAP1 PUSH2 0x26B1 JUMP JUMPDEST DUP1 PUSH1 0x1F ADD PUSH1 0x20 DUP1 SWAP2 DIV MUL PUSH1 0x20 ADD PUSH1 0x40 MLOAD SWAP1 DUP2 ADD PUSH1 0x40 MSTORE DUP1 SWAP3 SWAP2 SWAP1 DUP2 DUP2 MSTORE PUSH1 0x20 ADD DUP3 DUP1 SLOAD PUSH2 0x276 SWAP1 PUSH2 0x26B1 JUMP JUMPDEST DUP1 ISZERO PUSH2 0x2C1 JUMPI DUP1 PUSH1 0x1F LT PUSH2 0x298 JUMPI PUSH2 0x100 DUP1 DUP4 SLOAD DIV MUL DUP4 MSTORE SWAP2 PUSH1 0x20 ADD SWAP2 PUSH2 0x2C1 JUMP JUMPDEST DUP3 ADD SWAP2 SWAP1 PUSH0 MSTORE PUSH1 0x20 PUSH0 KECCAK256 SWAP1 JUMPDEST DUP2 SLOAD DUP2 MSTORE SWAP1 PUSH1 0x1 ADD SWAP1 PUSH1 0x20 ADD DUP1 DUP4 GT PUSH2 0x2A4 JUMPI DUP3 SWAP1 SUB PUSH1 0x1F AND DUP3 ADD SWAP2 JUMPDEST POP POP POP POP POP DUP2 JUMP JUMPDEST DUP2 PUSH1 0x1 ISZERO ISZERO PUSH1 0x5B DUP3 PUSH1 0x40 MLOAD PUSH2 0x2DE SWAP2 SWAP1 PUSH2 0x271B JUMP JUMPDEST SWAP1 DUP2 MSTORE PUSH1 0x20 ADD PUSH1 0x40 MLOAD DUP1 SWAP2 SUB SWAP1 KECCAK256 PUSH1 0x1 ADD PUSH1 0x1 SWAP1 SLOAD SWAP1 PUSH2 0x100 EXP SWAP1 DIV PUSH1 0xFF AND ISZERO ISZERO EQ PUSH2 0x33F JUMPI PUSH1 0x40 MLOAD PUSH32 0x8C379A000000000000000000000000000000000000000000000000000000000 DUP2 MSTORE PUSH1 0x4 ADD PUSH2 0x336 SWAP1 PUSH2 0x277B JUMP JUMPDEST PUSH1 0x40 MLOAD DUP1 SWAP2 SUB SWAP1 REVERT JUMPDEST DUP3 PUSH1 0x5B DUP2 PUSH1 0x40 MLOAD PUSH2 0x350 SWAP2 SWAP1 PUSH2 0x271B JUMP JUMPDEST SWAP1 DUP2 MSTORE PUSH1 0x20 ADD PUSH1 0x40 MLOAD DUP1 SWAP2 SUB SWAP1 KECCAK256 PUSH1 0x2 ADD PUSH0 CALLER PUSH20 0xFFFFFFFFFFFFFFFFFFFFFFFFFFFFFFFFFFFFFFFF AND PUSH20 0xFFFFFFFFFFFFFFFFFFFFFFFFFFFFFFFFFFFFFFFF AND DUP2 MSTORE PUSH1 0x20 ADD SWAP1 DUP2 MSTORE PUSH1 0x20 ADD PUSH0 KECCAK256 PUSH0 SWAP1 SLOAD SWAP1 PUSH2 0x100 EXP SWAP1 DIV PUSH1 0xFF AND PUSH2 0x3E8 JUMPI PUSH1 0x40 MLOAD PUSH32 0x8C379A000000000000000000000000000000000000000000000000000000000 DUP2 MSTORE PUSH1 0x4 ADD PUSH2 0x3DF SWAP1 PUSH2 0x2809 JUMP JUMPDEST PUSH1 0x40 MLOAD DUP1 SWAP2 SUB SWAP1 REVERT JUMPDEST PUSH0 PUSH1 0x5B DUP6 PUSH1 0x40 MLOAD PUSH2 0x3F9 SWAP2 SWAP1 PUSH2 0x271B JUMP JUMPDEST SWAP1 DUP2 MSTORE PUSH1 0x20 ADD PUSH1 0x40 MLOAD DUP1 SWAP2 SUB SWAP1 KECCAK256 SWAP1 POP PUSH0 DUP2 PUSH1 0x8 ADD SWAP1 POP PUSH0 PUSH1 0xF8 SHL DUP2 PUSH1 0x8 ADD PUSH0 CALLER PUSH20 0xFFFFFFFFFFFFFFFFFFFFFFFFFFFFFFFFFFFFFFFF AND PUSH20 0xFFFFFFFFFFFFFFFFFFFFFFFFFFFFFFFFFFFFFFFF AND DUP2 MSTORE PUSH1 0x20 ADD SWAP1 DUP2 MSTORE PUSH1 0x20 ADD PUSH0 KECCAK256 PUSH0 SWAP1 SLOAD SWAP1 PUSH2 0x100 EXP SWAP1 DIV PUSH1 0xF8 SHL PUSH31 0xFFFFFFFFFFFFFFFFFFFFFFFFFFFFFFFFFFFFFFFFFFFFFFFFFFFFFFFFFFFFFF NOT AND EQ PUSH2 0x4C2 JUMPI PUSH1 0x40 MLOAD PUSH32 0x8C379A000000000000000000000000000000000000000000000000000000000 DUP2 MSTORE PUSH1 0x4 ADD PUSH2 0x4B9 SWAP1 PUSH2 0x2871 JUMP JUMPDEST PUSH1 0x40 MLOAD DUP1 SWAP2 SUB SWAP1 REVERT JUMPDEST PUSH0 PUSH32 0x4100000000000000000000000000000000000000000000000000000000000000 PUSH31 0xFFFFFFFFFFFFFFFFFFFFFFFFFFFFFFFFFFFFFFFFFFFFFFFFFFFFFFFFFFFFFF NOT AND DUP7 PUSH31 0xFFFFFFFFFFFFFFFFFFFFFFFFFFFFFFFFFFFFFFFFFFFFFFFFFFFFFFFFFFFFFF NOT AND LT ISZERO DUP1 ISZERO PUSH2 0x59B JUMPI POP PUSH32 0x5A00000000000000000000000000000000000000000000000000000000000000 PUSH31 0xFFFFFFFFFFFFFFFFFFFFFFFFFFFFFFFFFFFFFFFFFFFFFFFFFFFFFFFFFFFFFF NOT AND DUP7 PUSH31 0xFFFFFFFFFFFFFFFFFFFFFFFFFFFFFFFFFFFFFFFFFFFFFFFFFFFFFFFFFFFFFF NOT AND LT ISZERO JUMPDEST SWAP1 POP DUP1 DUP1 PUSH2 0x67D JUMPI POP PUSH32 0x6100000000000000000000000000000000000000000000000000000000000000 PUSH31 0xFFFFFFFFFFFFFFFFFFFFFFFFFFFFFFFFFFFFFFFFFFFFFFFFFFFFFFFFFFFFFF NOT AND DUP7 PUSH31 0xFFFFFFFFFFFFFFFFFFFFFFFFFFFFFFFFFFFFFFFFFFFFFFFFFFFFFFFFFFFFFF NOT AND LT ISZERO DUP1 ISZERO PUSH2 0x67C JUMPI POP PUSH32 0x7A00000000000000000000000000000000000000000000000000000000000000 PUSH31 0xFFFFFFFFFFFFFFFFFFFFFFFFFFFFFFFFFFFFFFFFFFFFFFFFFFFFFFFFFFFFFF NOT AND DUP7 PUSH31 0xFFFFFFFFFFFFFFFFFFFFFFFFFFFFFFFFFFFFFFFFFFFFFFFFFFFFFFFFFFFFFF NOT AND LT ISZERO JUMPDEST JUMPDEST PUSH2 0x6BC JUMPI PUSH1 0x40 MLOAD PUSH32 0x8C379A000000000000000000000000000000000000000000000000000000000 DUP2 MSTORE PUSH1 0x4 ADD PUSH2 0x6B3 SWAP1 PUSH2 0x28D9 JUMP JUMPDEST PUSH1 0x40 MLOAD DUP1 SWAP2 SUB SWAP1 REVERT JUMPDEST DUP1 ISZERO PUSH2 0x6D8 JUMPI PUSH1 0x20 DUP7 PUSH1 0xF8 SHR PUSH2 0x6D2 SWAP2 SWAP1 PUSH2 0x2924 JUMP JUMPDEST PUSH1 0xF8 SHL SWAP6 POP JUMPDEST DUP3 PUSH1 0x6 ADD PUSH0 DUP8 PUSH31 0xFFFFFFFFFFFFFFFFFFFFFFFFFFFFFFFFFFFFFFFFFFFFFFFFFFFFFFFFFFFFFF NOT AND PUSH31 0xFFFFFFFFFFFFFFFFFFFFFFFFFFFFFFFFFFFFFFFFFFFFFFFFFFFFFFFFFFFFFF NOT AND DUP2 MSTORE PUSH1 0x20 ADD SWAP1 DUP2 MSTORE PUSH1 0x20 ADD PUSH0 KECCAK256 PUSH0 SWAP1 SLOAD SWAP1 PUSH2 0x100 EXP SWAP1 DIV PUSH1 0xFF AND ISZERO PUSH2 0x77C JUMPI PUSH1 0x40 MLOAD PUSH32 0x8C379A000000000000000000000000000000000000000000000000000000000 DUP2 MSTORE PUSH1 0x4 ADD PUSH2 0x773 SWAP1 PUSH2 0x29A2 JUMP JUMPDEST PUSH1 0x40 MLOAD DUP1 SWAP2 SUB SWAP1 REVERT JUMPDEST PUSH2 0x78A DUP4 PUSH0 ADD DUP4 CALLER DUP10 PUSH2 0x11CA JUMP JUMPDEST TIMESTAMP DUP4 PUSH1 0x7 ADD DUP2 SWAP1 SSTORE POP PUSH2 0x12C DUP3 PUSH1 0x1 ADD SLOAD TIMESTAMP PUSH2 0x7A6 SWAP2 SWAP1 PUSH2 0x29C0 JUMP JUMPDEST GT DUP1 PUSH2 0x7D8 JUMPI POP DUP3 PUSH1 0x1 ADD PUSH1 0x17 SWAP1 SLOAD SWAP1 PUSH2 0x100 EXP SWAP1 DIV PUSH1 0xFF AND PUSH1 0xFF AND DUP3 PUSH1 0x2 ADD PUSH0 SWAP1 SLOAD SWAP1 PUSH2 0x100 EXP SWAP1 DIV PUSH1 0xFF AND PUSH1 0xFF AND EQ JUMPDEST ISZERO PUSH2 0x7E7 JUMPI PUSH2 0x7E6 DUP4 PUSH2 0x141D JUMP JUMPDEST JUMPDEST POP POP POP POP POP POP POP JUMP JUMPDEST DUP1 PUSH1 0x1 ISZERO ISZERO PUSH1 0x5B DUP3 PUSH1 0x40 MLOAD PUSH2 0x805 SWAP2 SWAP1 PUSH2 0x271B JUMP JUMPDEST SWAP1 DUP2 MSTORE PUSH1 0x20 ADD PUSH1 0x40 MLOAD DUP1 SWAP2 SUB SWAP1 KECCAK256 PUSH1 0x1 ADD PUSH1 0x1 SWAP1 SLOAD SWAP1 PUSH2 0x100 EXP SWAP1 DIV PUSH1 0xFF AND ISZERO ISZERO EQ PUSH2 0x866 JUMPI PUSH1 0x40 MLOAD PUSH32 0x8C379A000000000000000000000000000000000000000000000000000000000 DUP2 MSTORE PUSH1 0x4 ADD PUSH2 0x85D SWAP1 PUSH2 0x277B JUMP JUMPDEST PUSH1 0x40 MLOAD DUP1 SWAP2 SUB SWAP1 REVERT JUMPDEST PUSH0 PUSH1 0x5B DUP4 PUSH1 0x40 MLOAD PUSH2 0x877 SWAP2 SWAP1 PUSH2 0x271B JUMP JUMPDEST SWAP1 DUP2 MSTORE PUSH1 0x20 ADD PUSH1 0x40 MLOAD DUP1 SWAP2 SUB SWAP1 KECCAK256 SWAP1 POP DUP1 PUSH1 0x1 ADD PUSH1 0x16 SWAP1 SLOAD SWAP1 PUSH2 0x100 EXP SWAP1 DIV PUSH1 0xFF AND PUSH1 0xFF AND DUP2 PUSH1 0x1 ADD PUSH1 0x17 SWAP1 SLOAD SWAP1 PUSH2 0x100 EXP SWAP1 DIV PUSH1 0xFF AND PUSH1 0xFF AND LT PUSH2 0x8F1 JUMPI PUSH1 0x40 MLOAD PUSH32 0x8C379A000000000000000000000000000000000000000000000000000000000 DUP2 MSTORE PUSH1 0x4 ADD PUSH2 0x8E8 SWAP1 PUSH2 0x2A3D JUMP JUMPDEST PUSH1 0x40 MLOAD DUP1 SWAP2 SUB SWAP1 REVERT JUMPDEST DUP1 PUSH1 0x2 ADD PUSH0 CALLER PUSH20 0xFFFFFFFFFFFFFFFFFFFFFFFFFFFFFFFFFFFFFFFF AND PUSH20 0xFFFFFFFFFFFFFFFFFFFFFFFFFFFFFFFFFFFFFFFF AND DUP2 MSTORE PUSH1 0x20 ADD SWAP1 DUP2 MSTORE PUSH1 0x20 ADD PUSH0 KECCAK256 PUSH0 SWAP1 SLOAD SWAP1 PUSH2 0x100 EXP SWAP1 DIV PUSH1 0xFF AND ISZERO PUSH2 0x97D JUMPI PUSH1 0x40 MLOAD PUSH32 0x8C379A000000000000000000000000000000000000000000000000000000000 DUP2 MSTORE PUSH1 0x4 ADD PUSH2 0x974 SWAP1 PUSH2 0x2AA5 JUMP JUMPDEST PUSH1 0x40 MLOAD DUP1 SWAP2 SUB SWAP1 REVERT JUMPDEST PUSH1 0x1 DUP2 PUSH1 0x2 ADD PUSH0 CALLER PUSH20 0xFFFFFFFFFFFFFFFFFFFFFFFFFFFFFFFFFFFFFFFF AND PUSH20 0xFFFFFFFFFFFFFFFFFFFFFFFFFFFFFFFFFFFFFFFF AND DUP2 MSTORE PUSH1 0x20 ADD SWAP1 DUP2 MSTORE PUSH1 0x20 ADD PUSH0 KECCAK256 PUSH0 PUSH2 0x100 EXP DUP2 SLOAD DUP2 PUSH1 0xFF MUL NOT AND SWAP1 DUP4 ISZERO ISZERO MUL OR SWAP1 SSTORE POP CALLER PUSH20 0xFFFFFFFFFFFFFFFFFFFFFFFFFFFFFFFFFFFFFFFF AND DUP4 PUSH1 0x40 MLOAD PUSH2 0x9F9 SWAP2 SWAP1 PUSH2 0x271B JUMP JUMPDEST PUSH1 0x40 MLOAD DUP1 SWAP2 SUB SWAP1 KECCAK256 PUSH32 0x6426ED08B4816B27E58D721B4FF6FB44E6696B9D5CA257DCBD4B0576EB4DC539 PUSH1 0x40 MLOAD PUSH1 0x40 MLOAD DUP1 SWAP2 SUB SWAP1 LOG3 POP POP POP JUMP JUMPDEST PUSH1 0x5 DUP2 JUMP JUMPDEST PUSH1 0x5 DUP2 JUMP JUMPDEST PUSH1 0x6 DUP2 JUMP JUMPDEST PUSH2 0x12C DUP2 JUMP JUMPDEST PUSH2 0x384 DUP2 JUMP JUMPDEST DUP1 PUSH1 0x1 ISZERO ISZERO PUSH1 0x5B DUP3 PUSH1 0x40 MLOAD PUSH2 0xA62 SWAP2 SWAP1 PUSH2 0x271B JUMP JUMPDEST SWAP1 DUP2 MSTORE PUSH1 0x20 ADD PUSH1 0x40 MLOAD DUP1 SWAP2 SUB SWAP1 KECCAK256 PUSH1 0x1 ADD PUSH1 0x1 SWAP1 SLOAD SWAP1 PUSH2 0x100 EXP SWAP1 DIV PUSH1 0xFF AND ISZERO ISZERO EQ PUSH2 0xAC3 JUMPI PUSH1 0x40 MLOAD PUSH32 0x8C379A000000000000000000000000000000000000000000000000000000000 DUP2 MSTORE PUSH1 0x4 ADD PUSH2 0xABA SWAP1 PUSH2 0x277B JUMP JUMPDEST PUSH1 0x40 MLOAD DUP1 SWAP2 SUB SWAP1 REVERT JUMPDEST DUP2 PUSH1 0x5B DUP2 PUSH1 0x40 MLOAD PUSH2 0xAD4 SWAP2 SWAP1 PUSH2 0x271B JUMP JUMPDEST SWAP1 DUP2 MSTORE PUSH1 0x20 ADD PUSH1 0x40 MLOAD DUP1 SWAP2 SUB SWAP1 KECCAK256 PUSH1 0x2 ADD PUSH0 CALLER PUSH20 0xFFFFFFFFFFFFFFFFFFFFFFFFFFFFFFFFFFFFFFFF AND PUSH20 0xFFFFFFFFFFFFFFFFFFFFFFFFFFFFFFFFFFFFFFFF AND DUP2 MSTORE PUSH1 0x20 ADD SWAP1 DUP2 MSTORE PUSH1 0x20 ADD PUSH0 KECCAK256 PUSH0 SWAP1 SLOAD SWAP1 PUSH2 0x100 EXP SWAP1 DIV PUSH1 0xFF AND PUSH2 0xB6C JUMPI PUSH1 0x40 MLOAD PUSH32 0x8C379A000000000000000000000000000000000000000000000000000000000 DUP2 MSTORE PUSH1 0x4 ADD PUSH2 0xB63 SWAP1 PUSH2 0x2809 JUMP JUMPDEST PUSH1 0x40 MLOAD DUP1 SWAP2 SUB SWAP1 REVERT JUMPDEST PUSH0 PUSH1 0x5B DUP5 PUSH1 0x40 MLOAD PUSH2 0xB7D SWAP2 SWAP1 PUSH2 0x271B JUMP JUMPDEST SWAP1 DUP2 MSTORE PUSH1 0x20 ADD PUSH1 0x40 MLOAD DUP1 SWAP2 SUB SWAP1 KECCAK256 SWAP1 POP PUSH2 0xB97 DUP2 CALLER PUSH2 0x18DF JUMP JUMPDEST PUSH0 DUP2 PUSH1 0x1 ADD PUSH1 0x17 SWAP1 SLOAD SWAP1 PUSH2 0x100 EXP SWAP1 DIV PUSH1 0xFF AND PUSH1 0xFF AND SUB PUSH2 0xBBE JUMPI PUSH2 0xBBD DUP2 PUSH1 0x2 PUSH2 0x1B2E JUMP JUMPDEST JUMPDEST POP POP POP POP JUMP JUMPDEST DUP1 PUSH1 0x1 ISZERO ISZERO PUSH1 0x5B DUP3 PUSH1 0x40 MLOAD PUSH2 0xBD9 SWAP2 SWAP1 PUSH2 0x271B JUMP JUMPDEST SWAP1 DUP2 MSTORE PUSH1 0x20 ADD PUSH1 0x40 MLOAD DUP1 SWAP2 SUB SWAP1 KECCAK256 PUSH1 0x1 ADD PUSH1 0x1 SWAP1 SLOAD SWAP1 PUSH2 0x100 EXP SWAP1 DIV PUSH1 0xFF AND ISZERO ISZERO EQ PUSH2 0xC3A JUMPI PUSH1 0x40 MLOAD PUSH32 0x8C379A000000000000000000000000000000000000000000000000000000000 DUP2 MSTORE PUSH1 0x4 ADD PUSH2 0xC31 SWAP1 PUSH2 0x277B JUMP JUMPDEST PUSH1 0x40 MLOAD DUP1 SWAP2 SUB SWAP1 REVERT JUMPDEST PUSH0 PUSH1 0x5B DUP4 PUSH1 0x40 MLOAD PUSH2 0xC4B SWAP2 SWAP1 PUSH2 0x271B JUMP JUMPDEST SWAP1 DUP2 MSTORE PUSH1 0x20 ADD PUSH1 0x40 MLOAD DUP1 SWAP2 SUB SWAP1 KECCAK256 SWAP1 POP PUSH0 DUP2 PUSH1 0x8 ADD SWAP1 POP DUP1 PUSH0 ADD PUSH0 SWAP1 SLOAD SWAP1 PUSH2 0x100 EXP SWAP1 DIV PUSH1 0xFF AND PUSH2 0xCB1 JUMPI PUSH1 0x40 MLOAD PUSH32 0x8C379A000000000000000000000000000000000000000000000000000000000 DUP2 MSTORE PUSH1 0x4 ADD PUSH2 0xCA8 SWAP1 PUSH2 0x2B0D JUMP JUMPDEST PUSH1 0x40 MLOAD DUP1 SWAP2 SUB SWAP1 REVERT JUMPDEST PUSH2 0x12C DUP2 PUSH1 0x1 ADD SLOAD TIMESTAMP PUSH2 0xCC4 SWAP2 SWAP1 PUSH2 0x29C0 JUMP JUMPDEST GT PUSH2 0xD04 JUMPI PUSH1 0x40 MLOAD PUSH32 0x8C379A000000000000000000000000000000000000000000000000000000000 DUP2 MSTORE PUSH1 0x4 ADD PUSH2 0xCFB SWAP1 PUSH2 0x2B75 JUMP JUMPDEST PUSH1 0x40 MLOAD DUP1 SWAP2 SUB SWAP1 REVERT JUMPDEST PUSH2 0xD0D DUP3 PUSH2 0x141D JUMP JUMPDEST POP POP POP POP JUMP JUMPDEST DUP1 PUSH1 0x1 ISZERO ISZERO PUSH1 0x5B DUP3 PUSH1 0x40 MLOAD PUSH2 0xD28 SWAP2 SWAP1 PUSH2 0x271B JUMP JUMPDEST SWAP1 DUP2 MSTORE PUSH1 0x20 ADD PUSH1 0x40 MLOAD DUP1 SWAP2 SUB SWAP1 KECCAK256 PUSH1 0x1 ADD PUSH1 0x1 SWAP1 SLOAD SWAP1 PUSH2 0x100 EXP SWAP1 DIV PUSH1 0xFF AND ISZERO ISZERO EQ PUSH2 0xD89 JUMPI PUSH1 0x40 MLOAD PUSH32 0x8C379A000000000000000000000000000000000000000000000000000000000 DUP2 MSTORE PUSH1 0x4 ADD PUSH2 0xD80 SWAP1 PUSH2 0x277B JUMP JUMPDEST PUSH1 0x40 MLOAD DUP1 SWAP2 SUB SWAP1 REVERT JUMPDEST PUSH0 PUSH1 0x5B DUP4 PUSH1 0x40 MLOAD PUSH2 0xD9A SWAP2 SWAP1 PUSH2 0x271B JUMP JUMPDEST SWAP1 DUP2 MSTORE PUSH1 0x20 ADD PUSH1 0x40 MLOAD DUP1 SWAP2 SUB SWAP1 KECCAK256 SWAP1 POP CALLER PUSH20 0xFFFFFFFFFFFFFFFFFFFFFFFFFFFFFFFFFFFFFFFF AND DUP2 PUSH1 0x1 ADD PUSH1 0x2 SWAP1 SLOAD SWAP1 PUSH2 0x100 EXP SWAP1 DIV PUSH20 0xFFFFFFFFFFFFFFFFFFFFFFFFFFFFFFFFFFFFFFFF AND PUSH20 0xFFFFFFFFFFFFFFFFFFFFFFFFFFFFFFFFFFFFFFFF AND EQ DUP1 PUSH2 0xE57 JUMPI POP PUSH0 PUSH20 0xFFFFFFFFFFFFFFFFFFFFFFFFFFFFFFFFFFFFFFFF AND DUP2 PUSH1 0x1 ADD PUSH1 0x2 SWAP1 SLOAD SWAP1 PUSH2 0x100 EXP SWAP1 DIV PUSH20 0xFFFFFFFFFFFFFFFFFFFFFFFFFFFFFFFFFFFFFFFF AND PUSH20 0xFFFFFFFFFFFFFFFFFFFFFFFFFFFFFFFFFFFFFFFF AND EQ JUMPDEST PUSH2 0xE96 JUMPI PUSH1 0x40 MLOAD PUSH32 0x8C379A000000000000000000000000000000000000000000000000000000000 DUP2 MSTORE PUSH1 0x4 ADD PUSH2 0xE8D SWAP1 PUSH2 0x2C03 JUMP JUMPDEST PUSH1 0x40 MLOAD DUP1 SWAP2 SUB SWAP1 REVERT JUMPDEST PUSH2 0xEA1 DUP2 PUSH1 0x2 PUSH2 0x1B2E JUMP JUMPDEST POP POP POP JUMP JUMPDEST PUSH1 0x5B DUP3 PUSH1 0x40 MLOAD PUSH2 0xEB6 SWAP2 SWAP1 PUSH2 0x271B JUMP JUMPDEST SWAP1 DUP2 MSTORE PUSH1 0x20 ADD PUSH1 0x40 MLOAD DUP1 SWAP2 SUB SWAP1 KECCAK256 PUSH1 0x1 ADD PUSH1 0x1 SWAP1 SLOAD SWAP1 PUSH2 0x100 EXP SWAP1 DIV PUSH1 0xFF AND ISZERO PUSH2 0xF15 JUMPI PUSH1 0x40 MLOAD PUSH32 0x8C379A000000000000000000000000000000000000000000000000000000000 DUP2 MSTORE PUSH1 0x4 ADD PUSH2 0xF0C SWAP1 PUSH2 0x2C91 JUMP JUMPDEST PUSH1 0x40 MLOAD DUP1 SWAP2 SUB SWAP1 REVERT JUMPDEST PUSH0 DUP2 PUSH1 0xFF AND GT DUP1 ISZERO PUSH2 0xF2E JUMPI POP PUSH1 0x5 PUSH1 0xFF AND DUP2 PUSH1 0xFF AND GT ISZERO JUMPDEST PUSH2 0xF6D JUMPI PUSH1 0x40 MLOAD PUSH32 0x8C379A000000000000000000000000000000000000000000000000000000000 DUP2 MSTORE PUSH1 0x4 ADD PUSH2 0xF64 SWAP1 PUSH2 0x2D1F JUMP JUMPDEST PUSH1 0x40 MLOAD DUP1 SWAP2 SUB SWAP1 REVERT JUMPDEST PUSH0 PUSH2 0xF76 PUSH2 0x1CB2 JUMP JUMPDEST SWAP1 POP PUSH1 0x5 PUSH1 0xFF AND DUP2 PUSH1 0xFF AND LT PUSH2 0xFC1 JUMPI PUSH1 0x40 MLOAD PUSH32 0x8C379A000000000000000000000000000000000000000000000000000000000 DUP2 MSTORE PUSH1 0x4 ADD PUSH2 0xFB8 SWAP1 PUSH2 0x2D87 JUMP JUMPDEST PUSH1 0x40 MLOAD DUP1 SWAP2 SUB SWAP1 REVERT JUMPDEST PUSH0 PUSH1 0x1 DUP3 PUSH1 0xFF AND PUSH1 0x5 DUP2 LT PUSH2 0xFD9 JUMPI PUSH2 0xFD8 PUSH2 0x2DA5 JUMP JUMPDEST JUMPDEST PUSH1 0x12 MUL ADD SWAP1 POP DUP4 DUP2 PUSH0 ADD SWAP1 DUP2 PUSH2 0xFEF SWAP2 SWAP1 PUSH2 0x2F6F JUMP JUMPDEST POP DUP2 DUP2 PUSH1 0x1 ADD PUSH0 PUSH2 0x100 EXP DUP2 SLOAD DUP2 PUSH1 0xFF MUL NOT AND SWAP1 DUP4 PUSH1 0xFF AND MUL OR SWAP1 SSTORE POP CALLER DUP2 PUSH1 0x1 ADD PUSH1 0x2 PUSH2 0x100 EXP DUP2 SLOAD DUP2 PUSH20 0xFFFFFFFFFFFFFFFFFFFFFFFFFFFFFFFFFFFFFFFF MUL NOT AND SWAP1 DUP4 PUSH20 0xFFFFFFFFFFFFFFFFFFFFFFFFFFFFFFFFFFFFFFFF AND MUL OR SWAP1 SSTORE POP DUP3 DUP2 PUSH1 0x1 ADD PUSH1 0x16 PUSH2 0x100 EXP DUP2 SLOAD DUP2 PUSH1 0xFF MUL NOT AND SWAP1 DUP4 PUSH1 0xFF AND MUL OR SWAP1 SSTORE POP PUSH0 TIMESTAMP CALLER PUSH1 0x40 MLOAD PUSH1 0x20 ADD PUSH2 0x1080 SWAP3 SWAP2 SWAP1 PUSH2 0x30D3 JUMP JUMPDEST PUSH1 0x40 MLOAD PUSH1 0x20 DUP2 DUP4 SUB SUB DUP2 MSTORE SWAP1 PUSH1 0x40 MSTORE DUP1 MLOAD SWAP1 PUSH1 0x20 ADD KECCAK256 PUSH0 SHR SWAP1 POP PUSH0 DUP1 DUP1 SLOAD SWAP1 POP DUP3 PUSH2 0x10AB SWAP2 SWAP1 PUSH2 0x312B JUMP JUMPDEST DUP2 SLOAD DUP2 LT PUSH2 0x10BC JUMPI PUSH2 0x10BB PUSH2 0x2DA5 JUMP JUMPDEST JUMPDEST SWAP1 PUSH0 MSTORE PUSH1 0x20 PUSH0 KECCAK256 ADD DUP3 PUSH1 0x3 ADD SWAP1 DUP2 PUSH2 0x10D4 SWAP2 SWAP1 PUSH2 0x3182 JUMP JUMPDEST POP DUP2 PUSH1 0x3 ADD DUP1 SLOAD PUSH2 0x10E4 SWAP1 PUSH2 0x26B1 JUMP JUMPDEST SWAP1 POP PUSH8 0xFFFFFFFFFFFFFFFF DUP2 GT ISZERO PUSH2 0x10FF JUMPI PUSH2 0x10FE PUSH2 0x238A JUMP JUMPDEST JUMPDEST PUSH1 0x40 MLOAD SWAP1 DUP1 DUP3 MSTORE DUP1 PUSH1 0x20 MUL PUSH1 0x20 ADD DUP3 ADD PUSH1 0x40 MSTORE DUP1 ISZERO PUSH2 0x112D JUMPI DUP2 PUSH1 0x20 ADD PUSH1 0x20 DUP3 MUL DUP1 CALLDATASIZE DUP4 CALLDATACOPY DUP1 DUP3 ADD SWAP2 POP POP SWAP1 POP JUMPDEST POP DUP3 PUSH1 0x4 ADD SWAP1 DUP1 MLOAD SWAP1 PUSH1 0x20 ADD SWAP1 PUSH2 0x1145 SWAP3 SWAP2 SWAP1 PUSH2 0x2147 JUMP JUMPDEST POP TIMESTAMP DUP3 PUSH1 0x7 ADD DUP2 SWAP1 SSTORE POP PUSH1 0x1 DUP3 PUSH1 0x1 ADD PUSH1 0x1 PUSH2 0x100 EXP DUP2 SLOAD DUP2 PUSH1 0xFF MUL NOT AND SWAP1 DUP4 ISZERO ISZERO MUL OR SWAP1 SSTORE POP DUP5 PUSH1 0x40 MLOAD PUSH2 0x117A SWAP2 SWAP1 PUSH2 0x271B JUMP JUMPDEST PUSH1 0x40 MLOAD DUP1 SWAP2 SUB SWAP1 KECCAK256 PUSH32 0xA0048D71A81BD0849AD071DD103D646A72B493A92A1CDF4CB7C13CF30F577DF DUP6 PUSH1 0x40 MLOAD PUSH2 0x11B1 SWAP2 SWAP1 PUSH2 0x25BF JUMP JUMPDEST PUSH1 0x40 MLOAD DUP1 SWAP2 SUB SWAP1 LOG2 PUSH2 0x11C3 DUP3 CALLER PUSH2 0x1D4D JUMP JUMPDEST POP POP POP POP POP JUMP JUMPDEST DUP2 DUP4 PUSH1 0x3 ADD DUP5 PUSH1 0x2 ADD PUSH0 SWAP1 SLOAD SWAP1 PUSH2 0x100 EXP SWAP1 DIV PUSH1 0xFF AND PUSH1 0xFF AND PUSH1 0x5 DUP2 LT PUSH2 0x11F4 JUMPI PUSH2 0x11F3 PUSH2 0x2DA5 JUMP JUMPDEST JUMPDEST ADD PUSH0 PUSH2 0x100 EXP DUP2 SLOAD DUP2 PUSH20 0xFFFFFFFFFFFFFFFFFFFFFFFFFFFFFFFFFFFFFFFF MUL NOT AND SWAP1 DUP4 PUSH20 0xFFFFFFFFFFFFFFFFFFFFFFFFFFFFFFFFFFFFFFFF AND MUL OR SWAP1 SSTORE POP DUP1 DUP4 PUSH1 0x8 ADD PUSH0 DUP5 PUSH20 0xFFFFFFFFFFFFFFFFFFFFFFFFFFFFFFFFFFFFFFFF AND PUSH20 0xFFFFFFFFFFFFFFFFFFFFFFFFFFFFFFFFFFFFFFFF AND DUP2 MSTORE PUSH1 0x20 ADD SWAP1 DUP2 MSTORE PUSH1 0x20 ADD PUSH0 KECCAK256 PUSH0 PUSH2 0x100 EXP DUP2 SLOAD DUP2 PUSH1 0xFF MUL NOT AND SWAP1 DUP4 PUSH1 0xF8 SHR MUL OR SWAP1 SSTORE POP PUSH1 0x1 DUP4 PUSH1 0x9 ADD PUSH0 DUP4 PUSH31 0xFFFFFFFFFFFFFFFFFFFFFFFFFFFFFFFFFFFFFFFFFFFFFFFFFFFFFFFFFFFFFF NOT AND PUSH31 0xFFFFFFFFFFFFFFFFFFFFFFFFFFFFFFFFFFFFFFFFFFFFFFFFFFFFFFFFFFFFFF NOT AND DUP2 MSTORE PUSH1 0x20 ADD SWAP1 DUP2 MSTORE PUSH1 0x20 ADD PUSH0 KECCAK256 PUSH0 DUP3 DUP3 DUP3 SWAP1 SLOAD SWAP1 PUSH2 0x100 EXP SWAP1 DIV PUSH1 0xFF AND PUSH2 0x12FC SWAP2 SWAP1 PUSH2 0x3267 JUMP JUMPDEST SWAP3 POP PUSH2 0x100 EXP DUP2 SLOAD DUP2 PUSH1 0xFF MUL NOT AND SWAP1 DUP4 PUSH1 0xFF AND MUL OR SWAP1 SSTORE POP PUSH1 0x1 DUP4 PUSH1 0x2 ADD PUSH0 DUP3 DUP3 DUP3 SWAP1 SLOAD SWAP1 PUSH2 0x100 EXP SWAP1 DIV PUSH1 0xFF AND PUSH2 0x1334 SWAP2 SWAP1 PUSH2 0x3267 JUMP JUMPDEST SWAP3 POP PUSH2 0x100 EXP DUP2 SLOAD DUP2 PUSH1 0xFF MUL NOT AND SWAP1 DUP4 PUSH1 0xFF AND MUL OR SWAP1 SSTORE POP DUP3 PUSH0 ADD PUSH0 SWAP1 SLOAD SWAP1 PUSH2 0x100 EXP SWAP1 DIV PUSH1 0xFF AND PUSH2 0x13C7 JUMPI PUSH1 0x1 DUP4 PUSH0 ADD PUSH0 PUSH2 0x100 EXP DUP2 SLOAD DUP2 PUSH1 0xFF MUL NOT AND SWAP1 DUP4 ISZERO ISZERO MUL OR SWAP1 SSTORE POP TIMESTAMP DUP4 PUSH1 0x1 ADD DUP2 SWAP1 SSTORE POP DUP4 PUSH1 0x40 MLOAD PUSH2 0x1392 SWAP2 SWAP1 PUSH2 0x331B JUMP JUMPDEST PUSH1 0x40 MLOAD DUP1 SWAP2 SUB SWAP1 KECCAK256 PUSH32 0xC39EB03DC11D6BBEB3B818B739E4478F7874C1F803D2E603CC7D7A45045CB68D PUSH1 0x40 MLOAD PUSH1 0x40 MLOAD DUP1 SWAP2 SUB SWAP1 LOG2 JUMPDEST DUP2 PUSH20 0xFFFFFFFFFFFFFFFFFFFFFFFFFFFFFFFFFFFFFFFF AND PUSH32 0xE1BE499D3000B42A54F5BE9B908B831FBED5DA7F8431EE79B82A3FA6D092781E DUP6 DUP4 PUSH1 0x40 MLOAD PUSH2 0x140F SWAP3 SWAP2 SWAP1 PUSH2 0x33C1 JUMP JUMPDEST PUSH1 0x40 MLOAD DUP1 SWAP2 SUB SWAP1 LOG2 POP POP POP POP JUMP JUMPDEST PUSH0 DUP2 PUSH1 0x8 ADD SWAP1 POP PUSH0 DUP1 PUSH1 0xF8 SHL SWAP1 POP PUSH0 PUSH1 0x1 SWAP1 POP PUSH0 DUP1 PUSH0 JUMPDEST DUP6 PUSH1 0x2 ADD PUSH0 SWAP1 SLOAD SWAP1 PUSH2 0x100 EXP SWAP1 DIV PUSH1 0xFF AND PUSH1 0xFF AND DUP2 LT ISZERO PUSH2 0x155C JUMPI PUSH0 DUP7 PUSH1 0x8 ADD PUSH0 DUP9 PUSH1 0x3 ADD DUP5 PUSH1 0x5 DUP2 LT PUSH2 0x146B JUMPI PUSH2 0x146A PUSH2 0x2DA5 JUMP JUMPDEST JUMPDEST ADD PUSH0 SWAP1 SLOAD SWAP1 PUSH2 0x100 EXP SWAP1 DIV PUSH20 0xFFFFFFFFFFFFFFFFFFFFFFFFFFFFFFFFFFFFFFFF AND PUSH20 0xFFFFFFFFFFFFFFFFFFFFFFFFFFFFFFFFFFFFFFFF AND PUSH20 0xFFFFFFFFFFFFFFFFFFFFFFFFFFFFFFFFFFFFFFFF AND DUP2 MSTORE PUSH1 0x20 ADD SWAP1 DUP2 MSTORE PUSH1 0x20 ADD PUSH0 KECCAK256 PUSH0 SWAP1 SLOAD SWAP1 PUSH2 0x100 EXP SWAP1 DIV PUSH1 0xF8 SHL SWAP1 POP PUSH0 DUP8 PUSH1 0x9 ADD PUSH0 DUP4 PUSH31 0xFFFFFFFFFFFFFFFFFFFFFFFFFFFFFFFFFFFFFFFFFFFFFFFFFFFFFFFFFFFFFF NOT AND PUSH31 0xFFFFFFFFFFFFFFFFFFFFFFFFFFFFFFFFFFFFFFFFFFFFFFFFFFFFFFFFFFFFFF NOT AND DUP2 MSTORE PUSH1 0x20 ADD SWAP1 DUP2 MSTORE PUSH1 0x20 ADD PUSH0 KECCAK256 PUSH0 SWAP1 SLOAD SWAP1 PUSH2 0x100 EXP SWAP1 DIV PUSH1 0xFF AND SWAP1 POP DUP4 PUSH1 0xFF AND DUP2 PUSH1 0xFF AND GT ISZERO PUSH2 0x154D JUMPI DUP2 SWAP7 POP JUMPDEST POP POP DUP1 DUP1 PUSH1 0x1 ADD SWAP2 POP POP PUSH2 0x1434 JUMP JUMPDEST POP PUSH0 DUP7 PUSH1 0x3 ADD DUP1 SLOAD PUSH2 0x156D SWAP1 PUSH2 0x26B1 JUMP JUMPDEST DUP1 PUSH1 0x1F ADD PUSH1 0x20 DUP1 SWAP2 DIV MUL PUSH1 0x20 ADD PUSH1 0x40 MLOAD SWAP1 DUP2 ADD PUSH1 0x40 MSTORE DUP1 SWAP3 SWAP2 SWAP1 DUP2 DUP2 MSTORE PUSH1 0x20 ADD DUP3 DUP1 SLOAD PUSH2 0x1599 SWAP1 PUSH2 0x26B1 JUMP JUMPDEST DUP1 ISZERO PUSH2 0x15E4 JUMPI DUP1 PUSH1 0x1F LT PUSH2 0x15BB JUMPI PUSH2 0x100 DUP1 DUP4 SLOAD DIV MUL DUP4 MSTORE SWAP2 PUSH1 0x20 ADD SWAP2 PUSH2 0x15E4 JUMP JUMPDEST DUP3 ADD SWAP2 SWAP1 PUSH0 MSTORE PUSH1 0x20 PUSH0 KECCAK256 SWAP1 JUMPDEST DUP2 SLOAD DUP2 MSTORE SWAP1 PUSH1 0x1 ADD SWAP1 PUSH1 0x20 ADD DUP1 DUP4 GT PUSH2 0x15C7 JUMPI DUP3 SWAP1 SUB PUSH1 0x1F AND DUP3 ADD SWAP2 JUMPDEST POP POP POP POP POP SWAP1 POP PUSH0 JUMPDEST DUP2 MLOAD DUP2 LT ISZERO PUSH2 0x17C1 JUMPI DUP6 PUSH31 0xFFFFFFFFFFFFFFFFFFFFFFFFFFFFFFFFFFFFFFFFFFFFFFFFFFFFFFFFFFFFFF NOT AND DUP3 DUP3 DUP2 MLOAD DUP2 LT PUSH2 0x162C JUMPI PUSH2 0x162B PUSH2 0x2DA5 JUMP JUMPDEST JUMPDEST PUSH1 0x20 ADD ADD MLOAD PUSH1 0xF8 SHR PUSH1 0xF8 SHL PUSH31 0xFFFFFFFFFFFFFFFFFFFFFFFFFFFFFFFFFFFFFFFFFFFFFFFFFFFFFFFFFFFFFF NOT AND SUB PUSH2 0x1715 JUMPI PUSH1 0x1 DUP9 PUSH1 0x6 ADD PUSH0 DUP9 PUSH31 0xFFFFFFFFFFFFFFFFFFFFFFFFFFFFFFFFFFFFFFFFFFFFFFFFFFFFFFFFFFFFFF NOT AND PUSH31 0xFFFFFFFFFFFFFFFFFFFFFFFFFFFFFFFFFFFFFFFFFFFFFFFFFFFFFFFFFFFFFF NOT AND DUP2 MSTORE PUSH1 0x20 ADD SWAP1 DUP2 MSTORE PUSH1 0x20 ADD PUSH0 KECCAK256 PUSH0 PUSH2 0x100 EXP DUP2 SLOAD DUP2 PUSH1 0xFF MUL NOT AND SWAP1 DUP4 ISZERO ISZERO MUL OR SWAP1 SSTORE POP PUSH1 0x1 DUP9 PUSH1 0x4 ADD DUP3 DUP2 SLOAD DUP2 LT PUSH2 0x16E5 JUMPI PUSH2 0x16E4 PUSH2 0x2DA5 JUMP JUMPDEST JUMPDEST SWAP1 PUSH0 MSTORE PUSH1 0x20 PUSH0 KECCAK256 SWAP1 PUSH1 0x20 SWAP2 DUP3 DUP3 DIV ADD SWAP2 SWAP1 MOD PUSH2 0x100 EXP DUP2 SLOAD DUP2 PUSH1 0xFF MUL NOT AND SWAP1 DUP4 ISZERO ISZERO MUL OR SWAP1 SSTORE POP PUSH1 0x1 SWAP4 POP PUSH2 0x17B4 JUMP JUMPDEST DUP8 PUSH1 0x4 ADD DUP2 DUP2 SLOAD DUP2 LT PUSH2 0x172B JUMPI PUSH2 0x172A PUSH2 0x2DA5 JUMP JUMPDEST JUMPDEST SWAP1 PUSH0 MSTORE PUSH1 0x20 PUSH0 KECCAK256 SWAP1 PUSH1 0x20 SWAP2 DUP3 DUP3 DIV ADD SWAP2 SWAP1 MOD SWAP1 SLOAD SWAP1 PUSH2 0x100 EXP SWAP1 DIV PUSH1 0xFF AND PUSH2 0x17B3 JUMPI PUSH32 0x5F00000000000000000000000000000000000000000000000000000000000000 DUP3 DUP3 DUP2 MLOAD DUP2 LT PUSH2 0x1781 JUMPI PUSH2 0x1780 PUSH2 0x2DA5 JUMP JUMPDEST JUMPDEST PUSH1 0x20 ADD ADD SWAP1 PUSH31 0xFFFFFFFFFFFFFFFFFFFFFFFFFFFFFFFFFFFFFFFFFFFFFFFFFFFFFFFFFFFFFF NOT AND SWAP1 DUP2 PUSH0 BYTE SWAP1 MSTORE8 POP PUSH0 SWAP5 POP JUMPDEST JUMPDEST DUP1 DUP1 PUSH1 0x1 ADD SWAP2 POP POP PUSH2 0x15ED JUMP JUMPDEST POP DUP7 PUSH1 0x8 ADD PUSH0 DUP1 DUP3 ADD PUSH0 PUSH2 0x100 EXP DUP2 SLOAD SWAP1 PUSH1 0xFF MUL NOT AND SWAP1 SSTORE PUSH1 0x1 DUP3 ADD PUSH0 SWAP1 SSTORE PUSH1 0x2 DUP3 ADD PUSH0 PUSH2 0x100 EXP DUP2 SLOAD SWAP1 PUSH1 0xFF MUL NOT AND SWAP1 SSTORE PUSH1 0x3 DUP3 ADD PUSH0 PUSH2 0x1802 SWAP2 SWAP1 PUSH2 0x21E8 JUMP JUMPDEST POP POP DUP7 PUSH0 ADD PUSH1 0x40 MLOAD PUSH2 0x1814 SWAP2 SWAP1 PUSH2 0x346F JUMP JUMPDEST PUSH1 0x40 MLOAD DUP1 SWAP2 SUB SWAP1 KECCAK256 PUSH32 0x93484660649CF971864763C1BC0E0D0F5D7FDCEEB388472825D299F8283268DE DUP7 DUP4 DUP7 ISZERO PUSH1 0x40 MLOAD PUSH2 0x1850 SWAP4 SWAP3 SWAP2 SWAP1 PUSH2 0x349F JUMP JUMPDEST PUSH1 0x40 MLOAD DUP1 SWAP2 SUB SWAP1 LOG2 DUP3 PUSH2 0x18C4 JUMPI PUSH1 0x1 DUP8 PUSH1 0x5 ADD PUSH0 DUP3 DUP3 DUP3 SWAP1 SLOAD SWAP1 PUSH2 0x100 EXP SWAP1 DIV PUSH1 0xFF AND PUSH2 0x187D SWAP2 SWAP1 PUSH2 0x3267 JUMP JUMPDEST SWAP3 POP PUSH2 0x100 EXP DUP2 SLOAD DUP2 PUSH1 0xFF MUL NOT AND SWAP1 DUP4 PUSH1 0xFF AND MUL OR SWAP1 SSTORE POP PUSH1 0x6 PUSH1 0xFF AND DUP8 PUSH1 0x5 ADD PUSH0 SWAP1 SLOAD SWAP1 PUSH2 0x100 EXP SWAP1 DIV PUSH1 0xFF AND PUSH1 0xFF AND SUB PUSH2 0x18BF JUMPI PUSH2 0x18BE DUP8 PUSH1 0x1 PUSH2 0x1B2E JUMP JUMPDEST JUMPDEST PUSH2 0x18D6 JUMP JUMPDEST DUP4 ISZERO PUSH2 0x18D5 JUMPI PUSH2 0x18D4 DUP8 PUSH0 PUSH2 0x1B2E JUMP JUMPDEST JUMPDEST JUMPDEST POP POP POP POP POP POP POP JUMP JUMPDEST PUSH0 DUP3 PUSH1 0x2 ADD PUSH0 DUP4 PUSH20 0xFFFFFFFFFFFFFFFFFFFFFFFFFFFFFFFFFFFFFFFF AND PUSH20 0xFFFFFFFFFFFFFFFFFFFFFFFFFFFFFFFFFFFFFFFF AND DUP2 MSTORE PUSH1 0x20 ADD SWAP1 DUP2 MSTORE PUSH1 0x20 ADD PUSH0 KECCAK256 PUSH0 PUSH2 0x100 EXP DUP2 SLOAD DUP2 PUSH1 0xFF MUL NOT AND SWAP1 DUP4 ISZERO ISZERO MUL OR SWAP1 SSTORE POP PUSH1 0x1 DUP3 PUSH1 0x1 ADD PUSH1 0x17 DUP3 DUP3 DUP3 SWAP1 SLOAD SWAP1 PUSH2 0x100 EXP SWAP1 DIV PUSH1 0xFF AND PUSH2 0x1956 SWAP2 SWAP1 PUSH2 0x2924 JUMP JUMPDEST SWAP3 POP PUSH2 0x100 EXP DUP2 SLOAD DUP2 PUSH1 0xFF MUL NOT AND SWAP1 DUP4 PUSH1 0xFF AND MUL OR SWAP1 SSTORE POP PUSH0 DUP3 PUSH1 0x8 ADD SWAP1 POP PUSH0 DUP4 PUSH1 0x1 ADD PUSH1 0x17 SWAP1 SLOAD SWAP1 PUSH2 0x100 EXP SWAP1 DIV PUSH1 0xFF AND PUSH1 0xFF AND GT DUP1 ISZERO PUSH2 0x19A4 JUMPI POP DUP1 PUSH0 ADD PUSH0 SWAP1 SLOAD SWAP1 PUSH2 0x100 EXP SWAP1 DIV PUSH1 0xFF AND JUMPDEST DUP1 ISZERO PUSH2 0x1A20 JUMPI POP PUSH0 PUSH1 0xF8 SHL DUP2 PUSH1 0x8 ADD PUSH0 DUP5 PUSH20 0xFFFFFFFFFFFFFFFFFFFFFFFFFFFFFFFFFFFFFFFF AND PUSH20 0xFFFFFFFFFFFFFFFFFFFFFFFFFFFFFFFFFFFFFFFF AND DUP2 MSTORE PUSH1 0x20 ADD SWAP1 DUP2 MSTORE PUSH1 0x20 ADD PUSH0 KECCAK256 PUSH0 SWAP1 SLOAD SWAP1 PUSH2 0x100 EXP SWAP1 DIV PUSH1 0xF8 SHL PUSH31 0xFFFFFFFFFFFFFFFFFFFFFFFFFFFFFFFFFFFFFFFFFFFFFFFFFFFFFFFFFFFFFF NOT AND EQ ISZERO JUMPDEST ISZERO PUSH2 0x1A33 JUMPI PUSH2 0x1A32 DUP4 PUSH0 ADD DUP3 DUP5 PUSH2 0x1DE1 JUMP JUMPDEST JUMPDEST DUP2 PUSH20 0xFFFFFFFFFFFFFFFFFFFFFFFFFFFFFFFFFFFFFFFF AND DUP4 PUSH1 0x1 ADD PUSH1 0x2 SWAP1 SLOAD SWAP1 PUSH2 0x100 EXP SWAP1 DIV PUSH20 0xFFFFFFFFFFFFFFFFFFFFFFFFFFFFFFFFFFFFFFFF AND PUSH20 0xFFFFFFFFFFFFFFFFFFFFFFFFFFFFFFFFFFFFFFFF AND SUB PUSH2 0x1ACE JUMPI PUSH0 DUP4 PUSH1 0x1 ADD PUSH1 0x2 PUSH2 0x100 EXP DUP2 SLOAD DUP2 PUSH20 0xFFFFFFFFFFFFFFFFFFFFFFFFFFFFFFFFFFFFFFFF MUL NOT AND SWAP1 DUP4 PUSH20 0xFFFFFFFFFFFFFFFFFFFFFFFFFFFFFFFFFFFFFFFF AND MUL OR SWAP1 SSTORE POP JUMPDEST DUP2 PUSH20 0xFFFFFFFFFFFFFFFFFFFFFFFFFFFFFFFFFFFFFFFF AND DUP4 PUSH0 ADD PUSH1 0x40 MLOAD PUSH2 0x1AF5 SWAP2 SWAP1 PUSH2 0x346F JUMP JUMPDEST PUSH1 0x40 MLOAD DUP1 SWAP2 SUB SWAP1 KECCAK256 PUSH32 0xE3C5754D381588D73ABE5A3EA491352AE6599BC3517832567C983A64F1FCB85B PUSH1 0x40 MLOAD PUSH1 0x40 MLOAD DUP1 SWAP2 SUB SWAP1 LOG3 POP POP POP JUMP JUMPDEST DUP2 PUSH0 ADD PUSH1 0x40 MLOAD PUSH2 0x1B3E SWAP2 SWAP1 PUSH2 0x346F JUMP JUMPDEST PUSH1 0x40 MLOAD DUP1 SWAP2 SUB SWAP1 KECCAK256 PUSH32 0x3D40BF146111CF2FB1681F012B4CED47C0260037F37AC76366766D0D20E1689D DUP3 DUP5 PUSH1 0x3 ADD PUSH1 0x40 MLOAD PUSH2 0x1B7A SWAP3 SWAP2 SWAP1 PUSH2 0x35CF JUMP JUMPDEST PUSH1 0x40 MLOAD DUP1 SWAP2 SUB SWAP1 LOG2 PUSH1 0x1 DUP3 PUSH1 0x1 ADD PUSH0 SWAP1 SLOAD SWAP1 PUSH2 0x100 EXP SWAP1 DIV PUSH1 0xFF AND PUSH1 0xFF AND PUSH1 0x5 DUP2 LT PUSH2 0x1BA9 JUMPI PUSH2 0x1BA8 PUSH2 0x2DA5 JUMP JUMPDEST JUMPDEST PUSH1 0x12 MUL ADD PUSH0 DUP1 DUP3 ADD PUSH0 PUSH2 0x1BBC SWAP2 SWAP1 PUSH2 0x2206 JUMP JUMPDEST PUSH1 0x1 DUP3 ADD PUSH0 PUSH2 0x100 EXP DUP2 SLOAD SWAP1 PUSH1 0xFF MUL NOT AND SWAP1 SSTORE PUSH1 0x1 DUP3 ADD PUSH1 0x1 PUSH2 0x100 EXP DUP2 SLOAD SWAP1 PUSH1 0xFF MUL NOT AND SWAP1 SSTORE PUSH1 0x1 DUP3 ADD PUSH1 0x2 PUSH2 0x100 EXP DUP2 SLOAD SWAP1 PUSH20 0xFFFFFFFFFFFFFFFFFFFFFFFFFFFFFFFFFFFFFFFF MUL NOT AND SWAP1 SSTORE PUSH1 0x1 DUP3 ADD PUSH1 0x16 PUSH2 0x100 EXP DUP2 SLOAD SWAP1 PUSH1 0xFF MUL NOT AND SWAP1 SSTORE PUSH1 0x1 DUP3 ADD PUSH1 0x17 PUSH2 0x100 EXP DUP2 SLOAD SWAP1 PUSH1 0xFF MUL NOT AND SWAP1 SSTORE PUSH1 0x3 DUP3 ADD PUSH0 PUSH2 0x1C41 SWAP2 SWAP1 PUSH2 0x2206 JUMP JUMPDEST PUSH1 0x4 DUP3 ADD PUSH0 PUSH2 0x1C50 SWAP2 SWAP1 PUSH2 0x2243 JUMP JUMPDEST PUSH1 0x5 DUP3 ADD PUSH0 PUSH2 0x100 EXP DUP2 SLOAD SWAP1 PUSH1 0xFF MUL NOT AND SWAP1 SSTORE PUSH1 0x7 DUP3 ADD PUSH0 SWAP1 SSTORE PUSH1 0x8 DUP3 ADD PUSH0 DUP1 DUP3 ADD PUSH0 PUSH2 0x100 EXP DUP2 SLOAD SWAP1 PUSH1 0xFF MUL NOT AND SWAP1 SSTORE PUSH1 0x1 DUP3 ADD PUSH0 SWAP1 SSTORE PUSH1 0x2 DUP3 ADD PUSH0 PUSH2 0x100 EXP DUP2 SLOAD SWAP1 PUSH1 0xFF MUL NOT AND SWAP1 SSTORE PUSH1 0x3 DUP3 ADD PUSH0 PUSH2 0x1CAA SWAP2 SWAP1 PUSH2 0x21E8 JUMP JUMPDEST POP POP POP POP POP POP JUMP JUMPDEST PUSH0 DUP1 PUSH0 SWAP1 POP JUMPDEST PUSH1 0x5 DUP2 PUSH1 0xFF AND LT ISZERO PUSH2 0x1D44 JUMPI PUSH0 PUSH1 0x1 DUP3 PUSH1 0xFF AND PUSH1 0x5 DUP2 LT PUSH2 0x1CDC JUMPI PUSH2 0x1CDB PUSH2 0x2DA5 JUMP JUMPDEST JUMPDEST PUSH1 0x12 MUL ADD SWAP1 POP DUP1 PUSH1 0x1 ADD PUSH1 0x1 SWAP1 SLOAD SWAP1 PUSH2 0x100 EXP SWAP1 DIV PUSH1 0xFF AND PUSH2 0x1D02 JUMPI DUP2 SWAP3 POP POP POP PUSH2 0x1D4A JUMP JUMPDEST PUSH2 0x384 DUP2 PUSH1 0x7 ADD SLOAD TIMESTAMP PUSH2 0x1D15 SWAP2 SWAP1 PUSH2 0x29C0 JUMP JUMPDEST GT ISZERO PUSH2 0x1D30 JUMPI PUSH2 0x1D26 DUP2 PUSH1 0x2 PUSH2 0x1B2E JUMP JUMPDEST DUP2 SWAP3 POP POP POP PUSH2 0x1D4A JUMP JUMPDEST POP DUP1 DUP1 PUSH2 0x1D3C SWAP1 PUSH2 0x35FD JUMP JUMPDEST SWAP2 POP POP PUSH2 0x1CB8 JUMP JUMPDEST POP PUSH1 0x5 SWAP1 POP JUMPDEST SWAP1 JUMP JUMPDEST PUSH1 0x1 DUP3 PUSH1 0x2 ADD PUSH0 DUP4 PUSH20 0xFFFFFFFFFFFFFFFFFFFFFFFFFFFFFFFFFFFFFFFF AND PUSH20 0xFFFFFFFFFFFFFFFFFFFFFFFFFFFFFFFFFFFFFFFF AND DUP2 MSTORE PUSH1 0x20 ADD SWAP1 DUP2 MSTORE PUSH1 0x20 ADD PUSH0 KECCAK256 PUSH0 PUSH2 0x100 EXP DUP2 SLOAD DUP2 PUSH1 0xFF MUL NOT AND SWAP1 DUP4 ISZERO ISZERO MUL OR SWAP1 SSTORE POP PUSH1 0x1 DUP3 PUSH1 0x1 ADD PUSH1 0x17 DUP3 DUP3 DUP3 SWAP1 SLOAD SWAP1 PUSH2 0x100 EXP SWAP1 DIV PUSH1 0xFF AND PUSH2 0x1DC5 SWAP2 SWAP1 PUSH2 0x3267 JUMP JUMPDEST SWAP3 POP PUSH2 0x100 EXP DUP2 SLOAD DUP2 PUSH1 0xFF MUL NOT AND SWAP1 DUP4 PUSH1 0xFF AND MUL OR SWAP1 SSTORE POP POP POP JUMP JUMPDEST PUSH0 DUP3 PUSH1 0x8 ADD PUSH0 DUP4 PUSH20 0xFFFFFFFFFFFFFFFFFFFFFFFFFFFFFFFFFFFFFFFF AND PUSH20 0xFFFFFFFFFFFFFFFFFFFFFFFFFFFFFFFFFFFFFFFF AND DUP2 MSTORE PUSH1 0x20 ADD SWAP1 DUP2 MSTORE PUSH1 0x20 ADD PUSH0 KECCAK256 PUSH0 SWAP1 SLOAD SWAP1 PUSH2 0x100 EXP SWAP1 DIV PUSH1 0xF8 SHL SWAP1 POP PUSH0 PUSH1 0xF8 SHL DUP4 PUSH1 0x8 ADD PUSH0 DUP5 PUSH20 0xFFFFFFFFFFFFFFFFFFFFFFFFFFFFFFFFFFFFFFFF AND PUSH20 0xFFFFFFFFFFFFFFFFFFFFFFFFFFFFFFFFFFFFFFFF AND DUP2 MSTORE PUSH1 0x20 ADD SWAP1 DUP2 MSTORE PUSH1 0x20 ADD PUSH0 KECCAK256 PUSH0 PUSH2 0x100 EXP DUP2 SLOAD DUP2 PUSH1 0xFF MUL NOT AND SWAP1 DUP4 PUSH1 0xF8 SHR MUL OR SWAP1 SSTORE POP PUSH0 DUP1 JUMPDEST DUP5 PUSH1 0x2 ADD PUSH0 SWAP1 SLOAD SWAP1 PUSH2 0x100 EXP SWAP1 DIV PUSH1 0xFF AND PUSH1 0xFF AND DUP2 LT ISZERO PUSH2 0x20B7 JUMPI DUP4 PUSH20 0xFFFFFFFFFFFFFFFFFFFFFFFFFFFFFFFFFFFFFFFF AND DUP6 PUSH1 0x3 ADD DUP3 PUSH1 0x5 DUP2 LT PUSH2 0x1ED5 JUMPI PUSH2 0x1ED4 PUSH2 0x2DA5 JUMP JUMPDEST JUMPDEST ADD PUSH0 SWAP1 SLOAD SWAP1 PUSH2 0x100 EXP SWAP1 DIV PUSH20 0xFFFFFFFFFFFFFFFFFFFFFFFFFFFFFFFFFFFFFFFF AND PUSH20 0xFFFFFFFFFFFFFFFFFFFFFFFFFFFFFFFFFFFFFFFF AND SUB PUSH2 0x1F6F JUMPI PUSH0 DUP6 PUSH1 0x3 ADD DUP3 PUSH1 0x5 DUP2 LT PUSH2 0x1F28 JUMPI PUSH2 0x1F27 PUSH2 0x2DA5 JUMP JUMPDEST JUMPDEST ADD PUSH0 PUSH2 0x100 EXP DUP2 SLOAD DUP2 PUSH20 0xFFFFFFFFFFFFFFFFFFFFFFFFFFFFFFFFFFFFFFFF MUL NOT AND SWAP1 DUP4 PUSH20 0xFFFFFFFFFFFFFFFFFFFFFFFFFFFFFFFFFFFFFFFF AND MUL OR SWAP1 SSTORE POP PUSH1 0x1 SWAP2 POP PUSH2 0x20AA JUMP JUMPDEST DUP2 ISZERO PUSH2 0x20A9 JUMPI PUSH0 DUP6 PUSH1 0x3 ADD PUSH1 0x1 DUP4 PUSH2 0x1F87 SWAP2 SWAP1 PUSH2 0x29C0 JUMP JUMPDEST PUSH1 0x5 DUP2 LT PUSH2 0x1F98 JUMPI PUSH2 0x1F97 PUSH2 0x2DA5 JUMP JUMPDEST JUMPDEST ADD PUSH0 SWAP1 SLOAD SWAP1 PUSH2 0x100 EXP SWAP1 DIV PUSH20 0xFFFFFFFFFFFFFFFFFFFFFFFFFFFFFFFFFFFFFFFF AND SWAP1 POP DUP6 PUSH1 0x3 ADD DUP3 PUSH1 0x5 DUP2 LT PUSH2 0x1FD1 JUMPI PUSH2 0x1FD0 PUSH2 0x2DA5 JUMP JUMPDEST JUMPDEST ADD PUSH0 SWAP1 SLOAD SWAP1 PUSH2 0x100 EXP SWAP1 DIV PUSH20 0xFFFFFFFFFFFFFFFFFFFFFFFFFFFFFFFFFFFFFFFF AND DUP7 PUSH1 0x3 ADD PUSH1 0x1 DUP5 PUSH2 0x2003 SWAP2 SWAP1 PUSH2 0x29C0 JUMP JUMPDEST PUSH1 0x5 DUP2 LT PUSH2 0x2014 JUMPI PUSH2 0x2013 PUSH2 0x2DA5 JUMP JUMPDEST JUMPDEST ADD PUSH0 PUSH2 0x100 EXP DUP2 SLOAD DUP2 PUSH20 0xFFFFFFFFFFFFFFFFFFFFFFFFFFFFFFFFFFFFFFFF MUL NOT AND SWAP1 DUP4 PUSH20 0xFFFFFFFFFFFFFFFFFFFFFFFFFFFFFFFFFFFFFFFF AND MUL OR SWAP1 SSTORE POP DUP1 DUP7 PUSH1 0x3 ADD DUP4 PUSH1 0x5 DUP2 LT PUSH2 0x2069 JUMPI PUSH2 0x2068 PUSH2 0x2DA5 JUMP JUMPDEST JUMPDEST ADD PUSH0 PUSH2 0x100 EXP DUP2 SLOAD DUP2 PUSH20 0xFFFFFFFFFFFFFFFFFFFFFFFFFFFFFFFFFFFFFFFF MUL NOT AND SWAP1 DUP4 PUSH20 0xFFFFFFFFFFFFFFFFFFFFFFFFFFFFFFFFFFFFFFFF AND MUL OR SWAP1 SSTORE POP POP JUMPDEST JUMPDEST DUP1 DUP1 PUSH1 0x1 ADD SWAP2 POP POP PUSH2 0x1E8D JUMP JUMPDEST POP PUSH1 0x1 DUP5 PUSH1 0x2 ADD PUSH0 DUP3 DUP3 DUP3 SWAP1 SLOAD SWAP1 PUSH2 0x100 EXP SWAP1 DIV PUSH1 0xFF AND PUSH2 0x20D8 SWAP2 SWAP1 PUSH2 0x2924 JUMP JUMPDEST SWAP3 POP PUSH2 0x100 EXP DUP2 SLOAD DUP2 PUSH1 0xFF MUL NOT AND SWAP1 DUP4 PUSH1 0xFF AND MUL OR SWAP1 SSTORE POP DUP3 PUSH20 0xFFFFFFFFFFFFFFFFFFFFFFFFFFFFFFFFFFFFFFFF AND PUSH32 0xE11E7B01CDD17C8C7AB41ED7897874E6A229485A77CC445646517FDAC64E75BC DUP7 DUP5 PUSH1 0x40 MLOAD PUSH2 0x2138 SWAP3 SWAP2 SWAP1 PUSH2 0x33C1 JUMP JUMPDEST PUSH1 0x40 MLOAD DUP1 SWAP2 SUB SWAP1 LOG2 POP POP POP POP POP JUMP JUMPDEST DUP3 DUP1 SLOAD DUP3 DUP3 SSTORE SWAP1 PUSH0 MSTORE PUSH1 0x20 PUSH0 KECCAK256 SWAP1 PUSH1 0x1F ADD PUSH1 0x20 SWAP1 DIV DUP2 ADD SWAP3 DUP3 ISZERO PUSH2 0x21D7 JUMPI SWAP2 PUSH1 0x20 MUL DUP3 ADD PUSH0 JUMPDEST DUP4 DUP3 GT ISZERO PUSH2 0x21A9 JUMPI DUP4 MLOAD DUP4 DUP3 PUSH2 0x100 EXP DUP2 SLOAD DUP2 PUSH1 0xFF MUL NOT AND SWAP1 DUP4 ISZERO ISZERO MUL OR SWAP1 SSTORE POP SWAP3 PUSH1 0x20 ADD SWAP3 PUSH1 0x1 ADD PUSH1 0x20 DUP2 PUSH0 ADD DIV SWAP3 DUP4 ADD SWAP3 PUSH1 0x1 SUB MUL PUSH2 0x216D JUMP JUMPDEST DUP1 ISZERO PUSH2 0x21D5 JUMPI DUP3 DUP2 PUSH2 0x100 EXP DUP2 SLOAD SWAP1 PUSH1 0xFF MUL NOT AND SWAP1 SSTORE PUSH1 0x1 ADD PUSH1 0x20 DUP2 PUSH0 ADD DIV SWAP3 DUP4 ADD SWAP3 PUSH1 0x1 SUB MUL PUSH2 0x21A9 JUMP JUMPDEST POP JUMPDEST POP SWAP1 POP PUSH2 0x21E4 SWAP2 SWAP1 PUSH2 0x2268 JUMP JUMPDEST POP SWAP1 JUMP JUMPDEST POP PUSH0 DUP2 SSTORE PUSH1 0x1 ADD PUSH0 DUP2 SSTORE PUSH1 0x1 ADD PUSH0 DUP2 SSTORE PUSH1 0x1 ADD PUSH0 DUP2 SSTORE PUSH1 0x1 ADD PUSH0 SWAP1 SSTORE JUMP JUMPDEST POP DUP1 SLOAD PUSH2 0x2212 SWAP1 PUSH2 0x26B1 JUMP JUMPDEST PUSH0 DUP3 SSTORE DUP1 PUSH1 0x1F LT PUSH2 0x2223 JUMPI POP PUSH2 0x2240 JUMP JUMPDEST PUSH1 0x1F ADD PUSH1 0x20 SWAP1 DIV SWAP1 PUSH0 MSTORE PUSH1 0x20 PUSH0 KECCAK256 SWAP1 DUP2 ADD SWAP1 PUSH2 0x223F SWAP2 SWAP1 PUSH2 0x2268 JUMP JUMPDEST JUMPDEST POP JUMP JUMPDEST POP DUP1 SLOAD PUSH0 DUP3 SSTORE PUSH1 0x1F ADD PUSH1 0x20 SWAP1 DIV SWAP1 PUSH0 MSTORE PUSH1 0x20 PUSH0 KECCAK256 SWAP1 DUP2 ADD SWAP1 PUSH2 0x2265 SWAP2 SWAP1 PUSH2 0x2268 JUMP JUMPDEST POP JUMP JUMPDEST JUMPDEST DUP1 DUP3 GT ISZERO PUSH2 0x227F JUMPI PUSH0 DUP2 PUSH0 SWAP1 SSTORE POP PUSH1 0x1 ADD PUSH2 0x2269 JUMP JUMPDEST POP SWAP1 JUMP JUMPDEST PUSH0 PUSH1 0x40 MLOAD SWAP1 POP SWAP1 JUMP JUMPDEST PUSH0 DUP1 REVERT JUMPDEST PUSH0 DUP1 REVERT JUMPDEST PUSH0 DUP2 SWAP1 POP SWAP2 SWAP1 POP JUMP JUMPDEST PUSH2 0x22A6 DUP2 PUSH2 0x2294 JUMP JUMPDEST DUP2 EQ PUSH2 0x22B0 JUMPI PUSH0 DUP1 REVERT JUMPDEST POP JUMP JUMPDEST PUSH0 DUP2 CALLDATALOAD SWAP1 POP PUSH2 0x22C1 DUP2 PUSH2 0x229D JUMP JUMPDEST SWAP3 SWAP2 POP POP JUMP JUMPDEST PUSH0 PUSH1 0x20 DUP3 DUP5 SUB SLT ISZERO PUSH2 0x22DC JUMPI PUSH2 0x22DB PUSH2 0x228C JUMP JUMPDEST JUMPDEST PUSH0 PUSH2 0x22E9 DUP5 DUP3 DUP6 ADD PUSH2 0x22B3 JUMP JUMPDEST SWAP2 POP POP SWAP3 SWAP2 POP POP JUMP JUMPDEST PUSH0 DUP2 MLOAD SWAP1 POP SWAP2 SWAP1 POP JUMP JUMPDEST PUSH0 DUP3 DUP3 MSTORE PUSH1 0x20 DUP3 ADD SWAP1 POP SWAP3 SWAP2 POP POP JUMP JUMPDEST DUP3 DUP2 DUP4 MCOPY PUSH0 DUP4 DUP4 ADD MSTORE POP POP POP JUMP JUMPDEST PUSH0 PUSH1 0x1F NOT PUSH1 0x1F DUP4 ADD AND SWAP1 POP SWAP2 SWAP1 POP JUMP JUMPDEST PUSH0 PUSH2 0x2334 DUP3 PUSH2 0x22F2 JUMP JUMPDEST PUSH2 0x233E DUP2 DUP6 PUSH2 0x22FC JUMP JUMPDEST SWAP4 POP PUSH2 0x234E DUP2 DUP6 PUSH1 0x20 DUP7 ADD PUSH2 0x230C JUMP JUMPDEST PUSH2 0x2357 DUP2 PUSH2 0x231A JUMP JUMPDEST DUP5 ADD SWAP2 POP POP SWAP3 SWAP2 POP POP JUMP JUMPDEST PUSH0 PUSH1 0x20 DUP3 ADD SWAP1 POP DUP2 DUP2 SUB PUSH0 DUP4 ADD MSTORE PUSH2 0x237A DUP2 DUP5 PUSH2 0x232A JUMP JUMPDEST SWAP1 POP SWAP3 SWAP2 POP POP JUMP JUMPDEST PUSH0 DUP1 REVERT JUMPDEST PUSH0 DUP1 REVERT JUMPDEST PUSH32 0x4E487B7100000000000000000000000000000000000000000000000000000000 PUSH0 MSTORE PUSH1 0x41 PUSH1 0x4 MSTORE PUSH1 0x24 PUSH0 REVERT JUMPDEST PUSH2 0x23C0 DUP3 PUSH2 0x231A JUMP JUMPDEST DUP2 ADD DUP2 DUP2 LT PUSH8 0xFFFFFFFFFFFFFFFF DUP3 GT OR ISZERO PUSH2 0x23DF JUMPI PUSH2 0x23DE PUSH2 0x238A JUMP JUMPDEST JUMPDEST DUP1 PUSH1 0x40 MSTORE POP POP POP JUMP JUMPDEST PUSH0 PUSH2 0x23F1 PUSH2 0x2283 JUMP JUMPDEST SWAP1 POP PUSH2 0x23FD DUP3 DUP3 PUSH2 0x23B7 JUMP JUMPDEST SWAP2 SWAP1 POP JUMP JUMPDEST PUSH0 PUSH8 0xFFFFFFFFFFFFFFFF DUP3 GT ISZERO PUSH2 0x241C JUMPI PUSH2 0x241B PUSH2 0x238A JUMP JUMPDEST JUMPDEST PUSH2 0x2425 DUP3 PUSH2 0x231A JUMP JUMPDEST SWAP1 POP PUSH1 0x20 DUP2 ADD SWAP1 POP SWAP2 SWAP1 POP JUMP JUMPDEST DUP3 DUP2 DUP4 CALLDATACOPY PUSH0 DUP4 DUP4 ADD MSTORE POP POP POP JUMP JUMPDEST PUSH0 PUSH2 0x2452 PUSH2 0x244D DUP5 PUSH2 0x2402 JUMP JUMPDEST PUSH2 0x23E8 JUMP JUMPDEST SWAP1 POP DUP3 DUP2 MSTORE PUSH1 0x20 DUP2 ADD DUP5 DUP5 DUP5 ADD GT ISZERO PUSH2 0x246E JUMPI PUSH2 0x246D PUSH2 0x2386 JUMP JUMPDEST JUMPDEST PUSH2 0x2479 DUP5 DUP3 DUP6 PUSH2 0x2432 JUMP JUMPDEST POP SWAP4 SWAP3 POP POP POP JUMP JUMPDEST PUSH0 DUP3 PUSH1 0x1F DUP4 ADD SLT PUSH2 0x2495 JUMPI PUSH2 0x2494 PUSH2 0x2382 JUMP JUMPDEST JUMPDEST DUP2 CALLDATALOAD PUSH2 0x24A5 DUP5 DUP3 PUSH1 0x20 DUP7 ADD PUSH2 0x2440 JUMP JUMPDEST SWAP2 POP POP SWAP3 SWAP2 POP POP JUMP JUMPDEST PUSH0 PUSH32 0xFF00000000000000000000000000000000000000000000000000000000000000 DUP3 AND SWAP1 POP SWAP2 SWAP1 POP JUMP JUMPDEST PUSH2 0x24E2 DUP2 PUSH2 0x24AE JUMP JUMPDEST DUP2 EQ PUSH2 0x24EC JUMPI PUSH0 DUP1 REVERT JUMPDEST POP JUMP JUMPDEST PUSH0 DUP2 CALLDATALOAD SWAP1 POP PUSH2 0x24FD DUP2 PUSH2 0x24D9 JUMP JUMPDEST SWAP3 SWAP2 POP POP JUMP JUMPDEST PUSH0 DUP1 PUSH1 0x40 DUP4 DUP6 SUB SLT ISZERO PUSH2 0x2519 JUMPI PUSH2 0x2518 PUSH2 0x228C JUMP JUMPDEST JUMPDEST PUSH0 DUP4 ADD CALLDATALOAD PUSH8 0xFFFFFFFFFFFFFFFF DUP2 GT ISZERO PUSH2 0x2536 JUMPI PUSH2 0x2535 PUSH2 0x2290 JUMP JUMPDEST JUMPDEST PUSH2 0x2542 DUP6 DUP3 DUP7 ADD PUSH2 0x2481 JUMP JUMPDEST SWAP3 POP POP PUSH1 0x20 PUSH2 0x2553 DUP6 DUP3 DUP7 ADD PUSH2 0x24EF JUMP JUMPDEST SWAP2 POP POP SWAP3 POP SWAP3 SWAP1 POP JUMP JUMPDEST PUSH0 PUSH1 0x20 DUP3 DUP5 SUB SLT ISZERO PUSH2 0x2572 JUMPI PUSH2 0x2571 PUSH2 0x228C JUMP JUMPDEST JUMPDEST PUSH0 DUP3 ADD CALLDATALOAD PUSH8 0xFFFFFFFFFFFFFFFF DUP2 GT ISZERO PUSH2 0x258F JUMPI PUSH2 0x258E PUSH2 0x2290 JUMP JUMPDEST JUMPDEST PUSH2 0x259B DUP5 DUP3 DUP6 ADD PUSH2 0x2481 JUMP JUMPDEST SWAP2 POP POP SWAP3 SWAP2 POP POP JUMP JUMPDEST PUSH0 PUSH1 0xFF DUP3 AND SWAP1 POP SWAP2 SWAP1 POP JUMP JUMPDEST PUSH2 0x25B9 DUP2 PUSH2 0x25A4 JUMP JUMPDEST DUP3 MSTORE POP POP JUMP JUMPDEST PUSH0 PUSH1 0x20 DUP3 ADD SWAP1 POP PUSH2 0x25D2 PUSH0 DUP4 ADD DUP5 PUSH2 0x25B0 JUMP JUMPDEST SWAP3 SWAP2 POP POP JUMP JUMPDEST PUSH2 0x25E1 DUP2 PUSH2 0x2294 JUMP JUMPDEST DUP3 MSTORE POP POP JUMP JUMPDEST PUSH0 PUSH1 0x20 DUP3 ADD SWAP1 POP PUSH2 0x25FA PUSH0 DUP4 ADD DUP5 PUSH2 0x25D8 JUMP JUMPDEST SWAP3 SWAP2 POP POP JUMP JUMPDEST PUSH2 0x2609 DUP2 PUSH2 0x25A4 JUMP JUMPDEST DUP2 EQ PUSH2 0x2613 JUMPI PUSH0 DUP1 REVERT JUMPDEST POP JUMP JUMPDEST PUSH0 DUP2 CALLDATALOAD SWAP1 POP PUSH2 0x2624 DUP2 PUSH2 0x2600 JUMP JUMPDEST SWAP3 SWAP2 POP POP JUMP JUMPDEST PUSH0 DUP1 PUSH1 0x40 DUP4 DUP6 SUB SLT ISZERO PUSH2 0x2640 JUMPI PUSH2 0x263F PUSH2 0x228C JUMP JUMPDEST JUMPDEST PUSH0 DUP4 ADD CALLDATALOAD PUSH8 0xFFFFFFFFFFFFFFFF DUP2 GT ISZERO PUSH2 0x265D JUMPI PUSH2 0x265C PUSH2 0x2290 JUMP JUMPDEST JUMPDEST PUSH2 0x2669 DUP6 DUP3 DUP7 ADD PUSH2 0x2481 JUMP JUMPDEST SWAP3 POP POP PUSH1 0x20 PUSH2 0x267A DUP6 DUP3 DUP7 ADD PUSH2 0x2616 JUMP JUMPDEST SWAP2 POP POP SWAP3 POP SWAP3 SWAP1 POP JUMP JUMPDEST PUSH32 0x4E487B7100000000000000000000000000000000000000000000000000000000 PUSH0 MSTORE PUSH1 0x22 PUSH1 0x4 MSTORE PUSH1 0x24 PUSH0 REVERT JUMPDEST PUSH0 PUSH1 0x2 DUP3 DIV SWAP1 POP PUSH1 0x1 DUP3 AND DUP1 PUSH2 0x26C8 JUMPI PUSH1 0x7F DUP3 AND SWAP2 POP JUMPDEST PUSH1 0x20 DUP3 LT DUP2 SUB PUSH2 0x26DB JUMPI PUSH2 0x26DA PUSH2 0x2684 JUMP JUMPDEST JUMPDEST POP SWAP2 SWAP1 POP JUMP JUMPDEST PUSH0 DUP2 SWAP1 POP SWAP3 SWAP2 POP POP JUMP JUMPDEST PUSH0 PUSH2 0x26F5 DUP3 PUSH2 0x22F2 JUMP JUMPDEST PUSH2 0x26FF DUP2 DUP6 PUSH2 0x26E1 JUMP JUMPDEST SWAP4 POP PUSH2 0x270F DUP2 DUP6 PUSH1 0x20 DUP7 ADD PUSH2 0x230C JUMP JUMPDEST DUP1 DUP5 ADD SWAP2 POP POP SWAP3 SWAP2 POP POP JUMP JUMPDEST PUSH0 PUSH2 0x2726 DUP3 DUP5 PUSH2 0x26EB JUMP JUMPDEST SWAP2 POP DUP2 SWAP1 POP SWAP3 SWAP2 POP POP JUMP JUMPDEST PUSH32 0x47616D6573206973206E6F742061637469766500000000000000000000000000 PUSH0 DUP3 ADD MSTORE POP JUMP JUMPDEST PUSH0 PUSH2 0x2765 PUSH1 0x13 DUP4 PUSH2 0x22FC JUMP JUMPDEST SWAP2 POP PUSH2 0x2770 DUP3 PUSH2 0x2731 JUMP JUMPDEST PUSH1 0x20 DUP3 ADD SWAP1 POP SWAP2 SWAP1 POP JUMP JUMPDEST PUSH0 PUSH1 0x20 DUP3 ADD SWAP1 POP DUP2 DUP2 SUB PUSH0 DUP4 ADD MSTORE PUSH2 0x2792 DUP2 PUSH2 0x2759 JUMP JUMPDEST SWAP1 POP SWAP2 SWAP1 POP JUMP JUMPDEST PUSH32 0x596F7520617265206E6F74206120706C61796572206F6620746869732067616D PUSH0 DUP3 ADD MSTORE PUSH32 0x6500000000000000000000000000000000000000000000000000000000000000 PUSH1 0x20 DUP3 ADD MSTORE POP JUMP JUMPDEST PUSH0 PUSH2 0x27F3 PUSH1 0x21 DUP4 PUSH2 0x22FC JUMP JUMPDEST SWAP2 POP PUSH2 0x27FE DUP3 PUSH2 0x2799 JUMP JUMPDEST PUSH1 0x40 DUP3 ADD SWAP1 POP SWAP2 SWAP1 POP JUMP JUMPDEST PUSH0 PUSH1 0x20 DUP3 ADD SWAP1 POP DUP2 DUP2 SUB PUSH0 DUP4 ADD MSTORE PUSH2 0x2820 DUP2 PUSH2 0x27E7 JUMP JUMPDEST SWAP1 POP SWAP2 SWAP1 POP JUMP JUMPDEST PUSH32 0x596F7520616C726561647920766F746564000000000000000000000000000000 PUSH0 DUP3 ADD MSTORE POP JUMP JUMPDEST PUSH0 PUSH2 0x285B PUSH1 0x11 DUP4 PUSH2 0x22FC JUMP JUMPDEST SWAP2 POP PUSH2 0x2866 DUP3 PUSH2 0x2827 JUMP JUMPDEST PUSH1 0x20 DUP3 ADD SWAP1 POP SWAP2 SWAP1 POP JUMP JUMPDEST PUSH0 PUSH1 0x20 DUP3 ADD SWAP1 POP DUP2 DUP2 SUB PUSH0 DUP4 ADD MSTORE PUSH2 0x2888 DUP2 PUSH2 0x284F JUMP JUMPDEST SWAP1 POP SWAP2 SWAP1 POP JUMP JUMPDEST PUSH32 0x4C6574746572206D75737420626520696E20412D5A20612D7A00000000000000 PUSH0 DUP3 ADD MSTORE POP JUMP JUMPDEST PUSH0 PUSH2 0x28C3 PUSH1 0x19 DUP4 PUSH2 0x22FC JUMP JUMPDEST SWAP2 POP PUSH2 0x28CE DUP3 PUSH2 0x288F JUMP JUMPDEST PUSH1 0x20 DUP3 ADD SWAP1 POP SWAP2 SWAP1 POP JUMP JUMPDEST PUSH0 PUSH1 0x20 DUP3 ADD SWAP1 POP DUP2 DUP2 SUB PUSH0 DUP4 ADD MSTORE PUSH2 0x28F0 DUP2 PUSH2 0x28B7 JUMP JUMPDEST SWAP1 POP SWAP2 SWAP1 POP JUMP JUMPDEST PUSH32 0x4E487B7100000000000000000000000000000000000000000000000000000000 PUSH0 MSTORE PUSH1 0x11 PUSH1 0x4 MSTORE PUSH1 0x24 PUSH0 REVERT JUMPDEST PUSH0 PUSH2 0x292E DUP3 PUSH2 0x25A4 JUMP JUMPDEST SWAP2 POP PUSH2 0x2939 DUP4 PUSH2 0x25A4 JUMP JUMPDEST SWAP3 POP DUP3 DUP3 SUB SWAP1 POP PUSH1 0xFF DUP2 GT ISZERO PUSH2 0x2952 JUMPI PUSH2 0x2951 PUSH2 0x28F7 JUMP JUMPDEST JUMPDEST SWAP3 SWAP2 POP POP JUMP JUMPDEST PUSH32 0x4C65747465722068617320616C7265616479206265656E206775657373656400 PUSH0 DUP3 ADD MSTORE POP JUMP JUMPDEST PUSH0 PUSH2 0x298C PUSH1 0x1F DUP4 PUSH2 0x22FC JUMP JUMPDEST SWAP2 POP PUSH2 0x2997 DUP3 PUSH2 0x2958 JUMP JUMPDEST PUSH1 0x20 DUP3 ADD SWAP1 POP SWAP2 SWAP1 POP JUMP JUMPDEST PUSH0 PUSH1 0x20 DUP3 ADD SWAP1 POP DUP2 DUP2 SUB PUSH0 DUP4 ADD MSTORE PUSH2 0x29B9 DUP2 PUSH2 0x2980 JUMP JUMPDEST SWAP1 POP SWAP2 SWAP1 POP JUMP JUMPDEST PUSH0 PUSH2 0x29CA DUP3 PUSH2 0x2294 JUMP JUMPDEST SWAP2 POP PUSH2 0x29D5 DUP4 PUSH2 0x2294 JUMP JUMPDEST SWAP3 POP DUP3 DUP3 SUB SWAP1 POP DUP2 DUP2 GT ISZERO PUSH2 0x29ED JUMPI PUSH2 0x29EC PUSH2 0x28F7 JUMP JUMPDEST JUMPDEST SWAP3 SWAP2 POP POP JUMP JUMPDEST PUSH32 0x4E6F206D6F726520706C617965727320736C6F747320617661696C61626C6500 PUSH0 DUP3 ADD MSTORE POP JUMP JUMPDEST PUSH0 PUSH2 0x2A27 PUSH1 0x1F DUP4 PUSH2 0x22FC JUMP JUMPDEST SWAP2 POP PUSH2 0x2A32 DUP3 PUSH2 0x29F3 JUMP JUMPDEST PUSH1 0x20 DUP3 ADD SWAP1 POP SWAP2 SWAP1 POP JUMP JUMPDEST PUSH0 PUSH1 0x20 DUP3 ADD SWAP1 POP DUP2 DUP2 SUB PUSH0 DUP4 ADD MSTORE PUSH2 0x2A54 DUP2 PUSH2 0x2A1B JUMP JUMPDEST SWAP1 POP SWAP2 SWAP1 POP JUMP JUMPDEST PUSH32 0x416C726561647920696E207468652067616D6500000000000000000000000000 PUSH0 DUP3 ADD MSTORE POP JUMP JUMPDEST PUSH0 PUSH2 0x2A8F PUSH1 0x13 DUP4 PUSH2 0x22FC JUMP JUMPDEST SWAP2 POP PUSH2 0x2A9A DUP3 PUSH2 0x2A5B JUMP JUMPDEST PUSH1 0x20 DUP3 ADD SWAP1 POP SWAP2 SWAP1 POP JUMP JUMPDEST PUSH0 PUSH1 0x20 DUP3 ADD SWAP1 POP DUP2 DUP2 SUB PUSH0 DUP4 ADD MSTORE PUSH2 0x2ABC DUP2 PUSH2 0x2A83 JUMP JUMPDEST SWAP1 POP SWAP2 SWAP1 POP JUMP JUMPDEST PUSH32 0x4E6F2061637469766520766F7465000000000000000000000000000000000000 PUSH0 DUP3 ADD MSTORE POP JUMP JUMPDEST PUSH0 PUSH2 0x2AF7 PUSH1 0xE DUP4 PUSH2 0x22FC JUMP JUMPDEST SWAP2 POP PUSH2 0x2B02 DUP3 PUSH2 0x2AC3 JUMP JUMPDEST PUSH1 0x20 DUP3 ADD SWAP1 POP SWAP2 SWAP1 POP JUMP JUMPDEST PUSH0 PUSH1 0x20 DUP3 ADD SWAP1 POP DUP2 DUP2 SUB PUSH0 DUP4 ADD MSTORE PUSH2 0x2B24 DUP2 PUSH2 0x2AEB JUMP JUMPDEST SWAP1 POP SWAP2 SWAP1 POP JUMP JUMPDEST PUSH32 0x566F7465206475726174696F6E20686173206E6F7420656C6170736564000000 PUSH0 DUP3 ADD MSTORE POP JUMP JUMPDEST PUSH0 PUSH2 0x2B5F PUSH1 0x1D DUP4 PUSH2 0x22FC JUMP JUMPDEST SWAP2 POP PUSH2 0x2B6A DUP3 PUSH2 0x2B2B JUMP JUMPDEST PUSH1 0x20 DUP3 ADD SWAP1 POP SWAP2 SWAP1 POP JUMP JUMPDEST PUSH0 PUSH1 0x20 DUP3 ADD SWAP1 POP DUP2 DUP2 SUB PUSH0 DUP4 ADD MSTORE PUSH2 0x2B8C DUP2 PUSH2 0x2B53 JUMP JUMPDEST SWAP1 POP SWAP2 SWAP1 POP JUMP JUMPDEST PUSH32 0x4F6E6C792067616D652063726561746F722063616E2064656C65746520746865 PUSH0 DUP3 ADD MSTORE PUSH32 0x2067616D65000000000000000000000000000000000000000000000000000000 PUSH1 0x20 DUP3 ADD MSTORE POP JUMP JUMPDEST PUSH0 PUSH2 0x2BED PUSH1 0x25 DUP4 PUSH2 0x22FC JUMP JUMPDEST SWAP2 POP PUSH2 0x2BF8 DUP3 PUSH2 0x2B93 JUMP JUMPDEST PUSH1 0x40 DUP3 ADD SWAP1 POP SWAP2 SWAP1 POP JUMP JUMPDEST PUSH0 PUSH1 0x20 DUP3 ADD SWAP1 POP DUP2 DUP2 SUB PUSH0 DUP4 ADD MSTORE PUSH2 0x2C1A DUP2 PUSH2 0x2BE1 JUMP JUMPDEST SWAP1 POP SWAP2 SWAP1 POP JUMP JUMPDEST PUSH32 0x412067616D652077697468207468652063686F73656E20494420616C72656164 PUSH0 DUP3 ADD MSTORE PUSH32 0x7920657869737473000000000000000000000000000000000000000000000000 PUSH1 0x20 DUP3 ADD MSTORE POP JUMP JUMPDEST PUSH0 PUSH2 0x2C7B PUSH1 0x28 DUP4 PUSH2 0x22FC JUMP JUMPDEST SWAP2 POP PUSH2 0x2C86 DUP3 PUSH2 0x2C21 JUMP JUMPDEST PUSH1 0x40 DUP3 ADD SWAP1 POP SWAP2 SWAP1 POP JUMP JUMPDEST PUSH0 PUSH1 0x20 DUP3 ADD SWAP1 POP DUP2 DUP2 SUB PUSH0 DUP4 ADD MSTORE PUSH2 0x2CA8 DUP2 PUSH2 0x2C6F JUMP JUMPDEST SWAP1 POP SWAP2 SWAP1 POP JUMP JUMPDEST PUSH32 0x4174206C65617374206F6E6520706C6179657220726571756972656420616E64 PUSH0 DUP3 ADD MSTORE PUSH32 0x206174206D6F7374204D41585F504C415945525320616C6C6F77656400000000 PUSH1 0x20 DUP3 ADD MSTORE POP JUMP JUMPDEST PUSH0 PUSH2 0x2D09 PUSH1 0x3C DUP4 PUSH2 0x22FC JUMP JUMPDEST SWAP2 POP PUSH2 0x2D14 DUP3 PUSH2 0x2CAF JUMP JUMPDEST PUSH1 0x40 DUP3 ADD SWAP1 POP SWAP2 SWAP1 POP JUMP JUMPDEST PUSH0 PUSH1 0x20 DUP3 ADD SWAP1 POP DUP2 DUP2 SUB PUSH0 DUP4 ADD MSTORE PUSH2 0x2D36 DUP2 PUSH2 0x2CFD JUMP JUMPDEST SWAP1 POP SWAP2 SWAP1 POP JUMP JUMPDEST PUSH32 0x4E6F20667265652067616D6520736C6F7420617661696C61626C650000000000 PUSH0 DUP3 ADD MSTORE POP JUMP JUMPDEST PUSH0 PUSH2 0x2D71 PUSH1 0x1B DUP4 PUSH2 0x22FC JUMP JUMPDEST SWAP2 POP PUSH2 0x2D7C DUP3 PUSH2 0x2D3D JUMP JUMPDEST PUSH1 0x20 DUP3 ADD SWAP1 POP SWAP2 SWAP1 POP JUMP JUMPDEST PUSH0 PUSH1 0x20 DUP3 ADD SWAP1 POP DUP2 DUP2 SUB PUSH0 DUP4 ADD MSTORE PUSH2 0x2D9E DUP2 PUSH2 0x2D65 JUMP JUMPDEST SWAP1 POP SWAP2 SWAP1 POP JUMP JUMPDEST PUSH32 0x4E487B7100000000000000000000000000000000000000000000000000000000 PUSH0 MSTORE PUSH1 0x32 PUSH1 0x4 MSTORE PUSH1 0x24 PUSH0 REVERT JUMPDEST PUSH0 DUP2 SWAP1 POP DUP2 PUSH0 MSTORE PUSH1 0x20 PUSH0 KECCAK256 SWAP1 POP SWAP2 SWAP1 POP JUMP JUMPDEST PUSH0 PUSH1 0x20 PUSH1 0x1F DUP4 ADD DIV SWAP1 POP SWAP2 SWAP1 POP JUMP JUMPDEST PUSH0 DUP3 DUP3 SHL SWAP1 POP SWAP3 SWAP2 POP POP JUMP JUMPDEST PUSH0 PUSH1 0x8 DUP4 MUL PUSH2 0x2E2E PUSH32 0xFFFFFFFFFFFFFFFFFFFFFFFFFFFFFFFFFFFFFFFFFFFFFFFFFFFFFFFFFFFFFFFF DUP3 PUSH2 0x2DF3 JUMP JUMPDEST PUSH2 0x2E38 DUP7 DUP4 PUSH2 0x2DF3 JUMP JUMPDEST SWAP6 POP DUP1 NOT DUP5 AND SWAP4 POP DUP1 DUP7 AND DUP5 OR SWAP3 POP POP POP SWAP4 SWAP3 POP POP POP JUMP JUMPDEST PUSH0 DUP2 SWAP1 POP SWAP2 SWAP1 POP JUMP JUMPDEST PUSH0 PUSH2 0x2E73 PUSH2 0x2E6E PUSH2 0x2E69 DUP5 PUSH2 0x2294 JUMP JUMPDEST PUSH2 0x2E50 JUMP JUMPDEST PUSH2 0x2294 JUMP JUMPDEST SWAP1 POP SWAP2 SWAP1 POP JUMP JUMPDEST PUSH0 DUP2 SWAP1 POP SWAP2 SWAP1 POP JUMP JUMPDEST PUSH2 0x2E8C DUP4 PUSH2 0x2E59 JUMP JUMPDEST PUSH2 0x2EA0 PUSH2 0x2E98 DUP3 PUSH2 0x2E7A JUMP JUMPDEST DUP5 DUP5 SLOAD PUSH2 0x2DFF JUMP JUMPDEST DUP3 SSTORE POP POP POP POP JUMP JUMPDEST PUSH0 SWAP1 JUMP JUMPDEST PUSH2 0x2EB4 PUSH2 0x2EA8 JUMP JUMPDEST PUSH2 0x2EBF DUP2 DUP5 DUP5 PUSH2 0x2E83 JUMP JUMPDEST POP POP POP JUMP JUMPDEST JUMPDEST DUP2 DUP2 LT ISZERO PUSH2 0x2EE2 JUMPI PUSH2 0x2ED7 PUSH0 DUP3 PUSH2 0x2EAC JUMP JUMPDEST PUSH1 0x1 DUP2 ADD SWAP1 POP PUSH2 0x2EC5 JUMP JUMPDEST POP POP JUMP JUMPDEST PUSH1 0x1F DUP3 GT ISZERO PUSH2 0x2F27 JUMPI PUSH2 0x2EF8 DUP2 PUSH2 0x2DD2 JUMP JUMPDEST PUSH2 0x2F01 DUP5 PUSH2 0x2DE4 JUMP JUMPDEST DUP2 ADD PUSH1 0x20 DUP6 LT ISZERO PUSH2 0x2F10 JUMPI DUP2 SWAP1 POP JUMPDEST PUSH2 0x2F24 PUSH2 0x2F1C DUP6 PUSH2 0x2DE4 JUMP JUMPDEST DUP4 ADD DUP3 PUSH2 0x2EC4 JUMP JUMPDEST POP POP JUMPDEST POP POP POP JUMP JUMPDEST PUSH0 DUP3 DUP3 SHR SWAP1 POP SWAP3 SWAP2 POP POP JUMP JUMPDEST PUSH0 PUSH2 0x2F47 PUSH0 NOT DUP5 PUSH1 0x8 MUL PUSH2 0x2F2C JUMP JUMPDEST NOT DUP1 DUP4 AND SWAP2 POP POP SWAP3 SWAP2 POP POP JUMP JUMPDEST PUSH0 PUSH2 0x2F5F DUP4 DUP4 PUSH2 0x2F38 JUMP JUMPDEST SWAP2 POP DUP3 PUSH1 0x2 MUL DUP3 OR SWAP1 POP SWAP3 SWAP2 POP POP JUMP JUMPDEST PUSH2 0x2F78 DUP3 PUSH2 0x22F2 JUMP JUMPDEST PUSH8 0xFFFFFFFFFFFFFFFF DUP2 GT ISZERO PUSH2 0x2F91 JUMPI PUSH2 0x2F90 PUSH2 0x238A JUMP JUMPDEST JUMPDEST PUSH2 0x2F9B DUP3 SLOAD PUSH2 0x26B1 JUMP JUMPDEST PUSH2 0x2FA6 DUP3 DUP3 DUP6 PUSH2 0x2EE6 JUMP JUMPDEST PUSH0 PUSH1 0x20 SWAP1 POP PUSH1 0x1F DUP4 GT PUSH1 0x1 DUP2 EQ PUSH2 0x2FD7 JUMPI PUSH0 DUP5 ISZERO PUSH2 0x2FC5 JUMPI DUP3 DUP8 ADD MLOAD SWAP1 POP JUMPDEST PUSH2 0x2FCF DUP6 DUP3 PUSH2 0x2F54 JUMP JUMPDEST DUP7 SSTORE POP PUSH2 0x3036 JUMP JUMPDEST PUSH1 0x1F NOT DUP5 AND PUSH2 0x2FE5 DUP7 PUSH2 0x2DD2 JUMP JUMPDEST PUSH0 JUMPDEST DUP3 DUP2 LT ISZERO PUSH2 0x300C JUMPI DUP5 DUP10 ADD MLOAD DUP3 SSTORE PUSH1 0x1 DUP3 ADD SWAP2 POP PUSH1 0x20 DUP6 ADD SWAP5 POP PUSH1 0x20 DUP2 ADD SWAP1 POP PUSH2 0x2FE7 JUMP JUMPDEST DUP7 DUP4 LT ISZERO PUSH2 0x3029 JUMPI DUP5 DUP10 ADD MLOAD PUSH2 0x3025 PUSH1 0x1F DUP10 AND DUP3 PUSH2 0x2F38 JUMP JUMPDEST DUP4 SSTORE POP JUMPDEST PUSH1 0x1 PUSH1 0x2 DUP9 MUL ADD DUP9 SSTORE POP POP POP JUMPDEST POP POP POP POP POP POP JUMP JUMPDEST PUSH0 DUP2 SWAP1 POP SWAP2 SWAP1 POP JUMP JUMPDEST PUSH2 0x3058 PUSH2 0x3053 DUP3 PUSH2 0x2294 JUMP JUMPDEST PUSH2 0x303E JUMP JUMPDEST DUP3 MSTORE POP POP JUMP JUMPDEST PUSH0 PUSH20 0xFFFFFFFFFFFFFFFFFFFFFFFFFFFFFFFFFFFFFFFF DUP3 AND SWAP1 POP SWAP2 SWAP1 POP JUMP JUMPDEST PUSH0 PUSH2 0x3087 DUP3 PUSH2 0x305E JUMP JUMPDEST SWAP1 POP SWAP2 SWAP1 POP JUMP JUMPDEST PUSH0 DUP2 PUSH1 0x60 SHL SWAP1 POP SWAP2 SWAP1 POP JUMP JUMPDEST PUSH0 PUSH2 0x30A4 DUP3 PUSH2 0x308E JUMP JUMPDEST SWAP1 POP SWAP2 SWAP1 POP JUMP JUMPDEST PUSH0 PUSH2 0x30B5 DUP3 PUSH2 0x309A JUMP JUMPDEST SWAP1 POP SWAP2 SWAP1 POP JUMP JUMPDEST PUSH2 0x30CD PUSH2 0x30C8 DUP3 PUSH2 0x307D JUMP JUMPDEST PUSH2 0x30AB JUMP JUMPDEST DUP3 MSTORE POP POP JUMP JUMPDEST PUSH0 PUSH2 0x30DE DUP3 DUP6 PUSH2 0x3047 JUMP JUMPDEST PUSH1 0x20 DUP3 ADD SWAP2 POP PUSH2 0x30EE DUP3 DUP5 PUSH2 0x30BC JUMP JUMPDEST PUSH1 0x14 DUP3 ADD SWAP2 POP DUP2 SWAP1 POP SWAP4 SWAP3 POP POP POP JUMP JUMPDEST PUSH32 0x4E487B7100000000000000000000000000000000000000000000000000000000 PUSH0 MSTORE PUSH1 0x12 PUSH1 0x4 MSTORE PUSH1 0x24 PUSH0 REVERT JUMPDEST PUSH0 PUSH2 0x3135 DUP3 PUSH2 0x2294 JUMP JUMPDEST SWAP2 POP PUSH2 0x3140 DUP4 PUSH2 0x2294 JUMP JUMPDEST SWAP3 POP DUP3 PUSH2 0x3150 JUMPI PUSH2 0x314F PUSH2 0x30FE JUMP JUMPDEST JUMPDEST DUP3 DUP3 MOD SWAP1 POP SWAP3 SWAP2 POP POP JUMP JUMPDEST PUSH0 DUP2 SLOAD SWAP1 POP PUSH2 0x3169 DUP2 PUSH2 0x26B1 JUMP JUMPDEST SWAP1 POP SWAP2 SWAP1 POP JUMP JUMPDEST PUSH0 DUP2 SWAP1 POP DUP2 PUSH0 MSTORE PUSH1 0x20 PUSH0 KECCAK256 SWAP1 POP SWAP2 SWAP1 POP JUMP JUMPDEST DUP2 DUP2 SUB PUSH2 0x3190 JUMPI POP POP PUSH2 0x3265 JUMP JUMPDEST PUSH2 0x3199 DUP3 PUSH2 0x315B JUMP JUMPDEST PUSH8 0xFFFFFFFFFFFFFFFF DUP2 GT ISZERO PUSH2 0x31B2 JUMPI PUSH2 0x31B1 PUSH2 0x238A JUMP JUMPDEST JUMPDEST PUSH2 0x31BC DUP3 SLOAD PUSH2 0x26B1 JUMP JUMPDEST PUSH2 0x31C7 DUP3 DUP3 DUP6 PUSH2 0x2EE6 JUMP JUMPDEST PUSH0 PUSH1 0x1F DUP4 GT PUSH1 0x1 DUP2 EQ PUSH2 0x31F4 JUMPI PUSH0 DUP5 ISZERO PUSH2 0x31E2 JUMPI DUP3 DUP8 ADD SLOAD SWAP1 POP JUMPDEST PUSH2 0x31EC DUP6 DUP3 PUSH2 0x2F54 JUMP JUMPDEST DUP7 SSTORE POP PUSH2 0x325E JUMP JUMPDEST PUSH1 0x1F NOT DUP5 AND PUSH2 0x3202 DUP8 PUSH2 0x3170 JUMP JUMPDEST SWAP7 POP PUSH2 0x320D DUP7 PUSH2 0x2DD2 JUMP JUMPDEST PUSH0 JUMPDEST DUP3 DUP2 LT ISZERO PUSH2 0x3234 JUMPI DUP5 DUP10 ADD SLOAD DUP3 SSTORE PUSH1 0x1 DUP3 ADD SWAP2 POP PUSH1 0x1 DUP6 ADD SWAP5 POP PUSH1 0x20 DUP2 ADD SWAP1 POP PUSH2 0x320F JUMP JUMPDEST DUP7 DUP4 LT ISZERO PUSH2 0x3251 JUMPI DUP5 DUP10 ADD SLOAD PUSH2 0x324D PUSH1 0x1F DUP10 AND DUP3 PUSH2 0x2F38 JUMP JUMPDEST DUP4 SSTORE POP JUMPDEST PUSH1 0x1 PUSH1 0x2 DUP9 MUL ADD DUP9 SSTORE POP POP POP JUMPDEST POP POP POP POP POP POP JUMPDEST JUMP JUMPDEST PUSH0 PUSH2 0x3271 DUP3 PUSH2 0x25A4 JUMP JUMPDEST SWAP2 POP PUSH2 0x327C DUP4 PUSH2 0x25A4 JUMP JUMPDEST SWAP3 POP DUP3 DUP3 ADD SWAP1 POP PUSH1 0xFF DUP2 GT ISZERO PUSH2 0x3295 JUMPI PUSH2 0x3294 PUSH2 0x28F7 JUMP JUMPDEST JUMPDEST SWAP3 SWAP2 POP POP JUMP JUMPDEST PUSH0 DUP2 SLOAD PUSH2 0x32A7 DUP2 PUSH2 0x26B1 JUMP JUMPDEST PUSH2 0x32B1 DUP2 DUP7 PUSH2 0x26E1 JUMP JUMPDEST SWAP5 POP PUSH1 0x1 DUP3 AND PUSH0 DUP2 EQ PUSH2 0x32CB JUMPI PUSH1 0x1 DUP2 EQ PUSH2 0x32E0 JUMPI PUSH2 0x3312 JUMP JUMPDEST PUSH1 0xFF NOT DUP4 AND DUP7 MSTORE DUP2 ISZERO ISZERO DUP3 MUL DUP7 ADD SWAP4 POP PUSH2 0x3312 JUMP JUMPDEST PUSH2 0x32E9 DUP6 PUSH2 0x3170 JUMP JUMPDEST PUSH0 JUMPDEST DUP4 DUP2 LT ISZERO PUSH2 0x330A JUMPI DUP2 SLOAD DUP2 DUP10 ADD MSTORE PUSH1 0x1 DUP3 ADD SWAP2 POP PUSH1 0x20 DUP2 ADD SWAP1 POP PUSH2 0x32EB JUMP JUMPDEST DUP4 DUP9 ADD SWAP6 POP POP POP JUMPDEST POP POP POP SWAP3 SWAP2 POP POP JUMP JUMPDEST PUSH0 PUSH2 0x3326 DUP3 DUP5 PUSH2 0x329B JUMP JUMPDEST SWAP2 POP DUP2 SWAP1 POP SWAP3 SWAP2 POP POP JUMP JUMPDEST PUSH0 DUP2 SLOAD PUSH2 0x333D DUP2 PUSH2 0x26B1 JUMP JUMPDEST PUSH2 0x3347 DUP2 DUP7 PUSH2 0x22FC JUMP JUMPDEST SWAP5 POP PUSH1 0x1 DUP3 AND PUSH0 DUP2 EQ PUSH2 0x3361 JUMPI PUSH1 0x1 DUP2 EQ PUSH2 0x3377 JUMPI PUSH2 0x33A9 JUMP JUMPDEST PUSH1 0xFF NOT DUP4 AND DUP7 MSTORE DUP2 ISZERO ISZERO PUSH1 0x20 MUL DUP7 ADD SWAP4 POP PUSH2 0x33A9 JUMP JUMPDEST PUSH2 0x3380 DUP6 PUSH2 0x3170 JUMP JUMPDEST PUSH0 JUMPDEST DUP4 DUP2 LT ISZERO PUSH2 0x33A1 JUMPI DUP2 SLOAD DUP2 DUP10 ADD MSTORE PUSH1 0x1 DUP3 ADD SWAP2 POP PUSH1 0x20 DUP2 ADD SWAP1 POP PUSH2 0x3382 JUMP JUMPDEST DUP1 DUP9 ADD SWAP6 POP POP POP JUMPDEST POP POP POP SWAP3 SWAP2 POP POP JUMP JUMPDEST PUSH2 0x33BB DUP2 PUSH2 0x24AE JUMP JUMPDEST DUP3 MSTORE POP POP JUMP JUMPDEST PUSH0 PUSH1 0x40 DUP3 ADD SWAP1 POP DUP2 DUP2 SUB PUSH0 DUP4 ADD MSTORE PUSH2 0x33D9 DUP2 DUP6 PUSH2 0x3331 JUMP JUMPDEST SWAP1 POP PUSH2 0x33E8 PUSH1 0x20 DUP4 ADD DUP5 PUSH2 0x33B2 JUMP JUMPDEST SWAP4 SWAP3 POP POP POP JUMP JUMPDEST PUSH0 DUP2 SLOAD PUSH2 0x33FB DUP2 PUSH2 0x26B1 JUMP JUMPDEST PUSH2 0x3405 DUP2 DUP7 PUSH2 0x26E1 JUMP JUMPDEST SWAP5 POP PUSH1 0x1 DUP3 AND PUSH0 DUP2 EQ PUSH2 0x341F JUMPI PUSH1 0x1 DUP2 EQ PUSH2 0x3434 JUMPI PUSH2 0x3466 JUMP JUMPDEST PUSH1 0xFF NOT DUP4 AND DUP7 MSTORE DUP2 ISZERO ISZERO DUP3 MUL DUP7 ADD SWAP4 POP PUSH2 0x3466 JUMP JUMPDEST PUSH2 0x343D DUP6 PUSH2 0x2DD2 JUMP JUMPDEST PUSH0 JUMPDEST DUP4 DUP2 LT ISZERO PUSH2 0x345E JUMPI DUP2 SLOAD DUP2 DUP10 ADD MSTORE PUSH1 0x1 DUP3 ADD SWAP2 POP PUSH1 0x20 DUP2 ADD SWAP1 POP PUSH2 0x343F JUMP JUMPDEST DUP4 DUP9 ADD SWAP6 POP POP POP JUMPDEST POP POP POP SWAP3 SWAP2 POP POP JUMP JUMPDEST PUSH0 PUSH2 0x347A DUP3 DUP5 PUSH2 0x33EF JUMP JUMPDEST SWAP2 POP DUP2 SWAP1 POP SWAP3 SWAP2 POP POP JUMP JUMPDEST PUSH0 DUP2 ISZERO ISZERO SWAP1 POP SWAP2 SWAP1 POP JUMP JUMPDEST PUSH2 0x3499 DUP2 PUSH2 0x3485 JUMP JUMPDEST DUP3 MSTORE POP POP JUMP JUMPDEST PUSH0 PUSH1 0x60 DUP3 ADD SWAP1 POP PUSH2 0x34B2 PUSH0 DUP4 ADD DUP7 PUSH2 0x33B2 JUMP JUMPDEST DUP2 DUP2 SUB PUSH1 0x20 DUP4 ADD MSTORE PUSH2 0x34C4 DUP2 DUP6 PUSH2 0x232A JUMP JUMPDEST SWAP1 POP PUSH2 0x34D3 PUSH1 0x40 DUP4 ADD DUP5 PUSH2 0x3490 JUMP JUMPDEST SWAP5 SWAP4 POP POP POP POP JUMP JUMPDEST PUSH32 0x4E487B7100000000000000000000000000000000000000000000000000000000 PUSH0 MSTORE PUSH1 0x21 PUSH1 0x4 MSTORE PUSH1 0x24 PUSH0 REVERT JUMPDEST PUSH1 0x3 DUP2 LT PUSH2 0x3519 JUMPI PUSH2 0x3518 PUSH2 0x34DB JUMP JUMPDEST JUMPDEST POP JUMP JUMPDEST PUSH0 DUP2 SWAP1 POP PUSH2 0x3529 DUP3 PUSH2 0x3508 JUMP JUMPDEST SWAP2 SWAP1 POP JUMP JUMPDEST PUSH0 PUSH2 0x3538 DUP3 PUSH2 0x351C JUMP JUMPDEST SWAP1 POP SWAP2 SWAP1 POP JUMP JUMPDEST PUSH2 0x3548 DUP2 PUSH2 0x352E JUMP JUMPDEST DUP3 MSTORE POP POP JUMP JUMPDEST PUSH0 DUP2 SLOAD PUSH2 0x355A DUP2 PUSH2 0x26B1 JUMP JUMPDEST PUSH2 0x3564 DUP2 DUP7 PUSH2 0x22FC JUMP JUMPDEST SWAP5 POP PUSH1 0x1 DUP3 AND PUSH0 DUP2 EQ PUSH2 0x357E JUMPI PUSH1 0x1 DUP2 EQ PUSH2 0x3594 JUMPI PUSH2 0x35C6 JUMP JUMPDEST PUSH1 0xFF NOT DUP4 AND DUP7 MSTORE DUP2 ISZERO ISZERO PUSH1 0x20 MUL DUP7 ADD SWAP4 POP PUSH2 0x35C6 JUMP JUMPDEST PUSH2 0x359D DUP6 PUSH2 0x2DD2 JUMP JUMPDEST PUSH0 JUMPDEST DUP4 DUP2 LT ISZERO PUSH2 0x35BE JUMPI DUP2 SLOAD DUP2 DUP10 ADD MSTORE PUSH1 0x1 DUP3 ADD SWAP2 POP PUSH1 0x20 DUP2 ADD SWAP1 POP PUSH2 0x359F JUMP JUMPDEST DUP1 DUP9 ADD SWAP6 POP POP POP JUMPDEST POP POP POP SWAP3 SWAP2 POP POP JUMP JUMPDEST PUSH0 PUSH1 0x40 DUP3 ADD SWAP1 POP PUSH2 0x35E2 PUSH0 DUP4 ADD DUP6 PUSH2 0x353F JUMP JUMPDEST DUP2 DUP2 SUB PUSH1 0x20 DUP4 ADD MSTORE PUSH2 0x35F4 DUP2 DUP5 PUSH2 0x354E JUMP JUMPDEST SWAP1 POP SWAP4 SWAP3 POP POP POP JUMP JUMPDEST PUSH0 PUSH2 0x3607 DUP3 PUSH2 0x25A4 JUMP JUMPDEST SWAP2 POP PUSH1 0xFF DUP3 SUB PUSH2 0x361A JUMPI PUSH2 0x3619 PUSH2 0x28F7 JUMP JUMPDEST JUMPDEST PUSH1 0x1 DUP3 ADD SWAP1 POP SWAP2 SWAP1 POP JUMP INVALID LOG2 PUSH5 0x6970667358 0x22 SLT KECCAK256 PUSH6 0x6CB417C02D64 LOG0 SWAP3 0xB9 ADDMOD 0xDA PUSH27 0x28D61662B7BD51D15D5178BF3472A5FB95906A64736F6C63430008 BYTE STOP CALLER "
				},
				"gasEstimates": {
					"creation": {
						"codeDepositCost": "2783000",
						"executionCost": "infinite",
						"totalCost": "infinite"
					},
					"external": {
						"INACTIVITY_THRESHOLD()": "347",
						"MAX_GAMES()": "420",
						"MAX_GUESSES()": "442",
						"MAX_PLAYERS()": "398",
						"VOTING_DURATION()": "325",
						"WORDS(uint256)": "infinite",
						"createGame(string,uint8)": "infinite",
						"deleteGame(string)": "infinite",
						"endVote(string)": "infinite",
						"joinGame(string)": "infinite",
						"leaveGame(string)": "infinite",
						"voteForLetter(string,bytes1)": "infinite"
					},
					"internal": {
						"_addPlayerToGame(struct Hangman.Game storage pointer,address)": "infinite",
						"_allocateGame()": "infinite",
						"_endGame(struct Hangman.Game storage pointer,enum Hangman.GameResult)": "infinite",
						"_endVote(struct Hangman.Game storage pointer)": "infinite",
						"_registerVote(string storage pointer,struct Hangman.Vote storage pointer,address,bytes1)": "infinite",
						"_removePlayerFromGame(struct Hangman.Game storage pointer,address)": "infinite",
						"_unregisterVote(string storage pointer,struct Hangman.Vote storage pointer,address)": "infinite"
					}
				},
				"methodIdentifiers": {
					"INACTIVITY_THRESHOLD()": "aa4103e2",
					"MAX_GAMES()": "4fd01913",
					"MAX_GUESSES()": "684d4678",
					"MAX_PLAYERS()": "4411b3eb",
					"VOTING_DURATION()": "a438d208",
					"WORDS(uint256)": "0f1ad663",
					"createGame(string,uint8)": "e565c835",
					"deleteGame(string)": "d5c68ab2",
					"endVote(string)": "d19e39f0",
					"joinGame(string)": "3d536a2e",
					"leaveGame(string)": "c22a95f1",
					"voteForLetter(string,bytes1)": "1616c521"
				}
			},
			"storageLayout": {
				"storage": [
					{
						"astId": 25,
						"contract": "contracts/hangman.sol:Hangman",
						"label": "WORDS",
						"offset": 0,
						"slot": "0",
						"type": "t_array(t_string_storage)dyn_storage"
					},
					{
						"astId": 86,
						"contract": "contracts/hangman.sol:Hangman",
						"label": "games",
						"offset": 0,
						"slot": "1",
						"type": "t_array(t_struct(Game)58_storage)5_storage"
					},
					{
						"astId": 91,
						"contract": "contracts/hangman.sol:Hangman",
						"label": "activeGames",
						"offset": 0,
						"slot": "91",
						"type": "t_mapping(t_string_memory_ptr,t_struct(Game)58_storage)"
					}
				],
				"types": {
					"t_address": {
						"encoding": "inplace",
						"label": "address",
						"numberOfBytes": "20"
					},
					"t_array(t_address)5_storage": {
						"base": "t_address",
						"encoding": "inplace",
						"label": "address[5]",
						"numberOfBytes": "160"
					},
					"t_array(t_bool)dyn_storage": {
						"base": "t_bool",
						"encoding": "dynamic_array",
						"label": "bool[]",
						"numberOfBytes": "32"
					},
					"t_array(t_string_storage)dyn_storage": {
						"base": "t_string_storage",
						"encoding": "dynamic_array",
						"label": "string[]",
						"numberOfBytes": "32"
					},
					"t_array(t_struct(Game)58_storage)5_storage": {
						"base": "t_struct(Game)58_storage",
						"encoding": "inplace",
						"label": "struct Hangman.Game[5]",
						"numberOfBytes": "2880"
					},
					"t_bool": {
						"encoding": "inplace",
						"label": "bool",
						"numberOfBytes": "1"
					},
					"t_bytes1": {
						"encoding": "inplace",
						"label": "bytes1",
						"numberOfBytes": "1"
					},
					"t_mapping(t_address,t_bool)": {
						"encoding": "mapping",
						"key": "t_address",
						"label": "mapping(address => bool)",
						"numberOfBytes": "32",
						"value": "t_bool"
					},
					"t_mapping(t_address,t_bytes1)": {
						"encoding": "mapping",
						"key": "t_address",
						"label": "mapping(address => bytes1)",
						"numberOfBytes": "32",
						"value": "t_bytes1"
					},
					"t_mapping(t_bytes1,t_bool)": {
						"encoding": "mapping",
						"key": "t_bytes1",
						"label": "mapping(bytes1 => bool)",
						"numberOfBytes": "32",
						"value": "t_bool"
					},
					"t_mapping(t_bytes1,t_uint8)": {
						"encoding": "mapping",
						"key": "t_bytes1",
						"label": "mapping(bytes1 => uint8)",
						"numberOfBytes": "32",
						"value": "t_uint8"
					},
					"t_mapping(t_string_memory_ptr,t_struct(Game)58_storage)": {
						"encoding": "mapping",
						"key": "t_string_memory_ptr",
						"label": "mapping(string => struct Hangman.Game)",
						"numberOfBytes": "32",
						"value": "t_struct(Game)58_storage"
					},
					"t_string_memory_ptr": {
						"encoding": "bytes",
						"label": "string",
						"numberOfBytes": "32"
					},
					"t_string_storage": {
						"encoding": "bytes",
						"label": "string",
						"numberOfBytes": "32"
					},
					"t_struct(Game)58_storage": {
						"encoding": "inplace",
						"label": "struct Hangman.Game",
						"members": [
							{
								"astId": 27,
								"contract": "contracts/hangman.sol:Hangman",
								"label": "gameID",
								"offset": 0,
								"slot": "0",
								"type": "t_string_storage"
							},
							{
								"astId": 29,
								"contract": "contracts/hangman.sol:Hangman",
								"label": "index",
								"offset": 0,
								"slot": "1",
								"type": "t_uint8"
							},
							{
								"astId": 31,
								"contract": "contracts/hangman.sol:Hangman",
								"label": "isActive",
								"offset": 1,
								"slot": "1",
								"type": "t_bool"
							},
							{
								"astId": 33,
								"contract": "contracts/hangman.sol:Hangman",
								"label": "creator",
								"offset": 2,
								"slot": "1",
								"type": "t_address"
							},
							{
								"astId": 35,
								"contract": "contracts/hangman.sol:Hangman",
								"label": "maxPlayers",
								"offset": 22,
								"slot": "1",
								"type": "t_uint8"
							},
							{
								"astId": 37,
								"contract": "contracts/hangman.sol:Hangman",
								"label": "currentPlayers",
								"offset": 23,
								"slot": "1",
								"type": "t_uint8"
							},
							{
								"astId": 41,
								"contract": "contracts/hangman.sol:Hangman",
								"label": "isPlayer",
								"offset": 0,
								"slot": "2",
								"type": "t_mapping(t_address,t_bool)"
							},
							{
								"astId": 43,
								"contract": "contracts/hangman.sol:Hangman",
								"label": "hiddenWord",
								"offset": 0,
								"slot": "3",
								"type": "t_string_storage"
							},
							{
								"astId": 46,
								"contract": "contracts/hangman.sol:Hangman",
								"label": "revealedLetters",
								"offset": 0,
								"slot": "4",
								"type": "t_array(t_bool)dyn_storage"
							},
							{
								"astId": 48,
								"contract": "contracts/hangman.sol:Hangman",
								"label": "guessCount",
								"offset": 0,
								"slot": "5",
								"type": "t_uint8"
							},
							{
								"astId": 52,
								"contract": "contracts/hangman.sol:Hangman",
								"label": "guessedLetters",
								"offset": 0,
								"slot": "6",
								"type": "t_mapping(t_bytes1,t_bool)"
							},
							{
								"astId": 54,
								"contract": "contracts/hangman.sol:Hangman",
								"label": "lastActionTimestamp",
								"offset": 0,
								"slot": "7",
								"type": "t_uint256"
							},
							{
								"astId": 57,
								"contract": "contracts/hangman.sol:Hangman",
								"label": "vote",
								"offset": 0,
								"slot": "8",
								"type": "t_struct(Vote)77_storage"
							}
						],
						"numberOfBytes": "576"
					},
					"t_struct(Vote)77_storage": {
						"encoding": "inplace",
						"label": "struct Hangman.Vote",
						"members": [
							{
								"astId": 60,
								"contract": "contracts/hangman.sol:Hangman",
								"label": "votingActive",
								"offset": 0,
								"slot": "0",
								"type": "t_bool"
							},
							{
								"astId": 62,
								"contract": "contracts/hangman.sol:Hangman",
								"label": "voteStartTimestamp",
								"offset": 0,
								"slot": "1",
								"type": "t_uint256"
							},
							{
								"astId": 64,
								"contract": "contracts/hangman.sol:Hangman",
								"label": "voteCount",
								"offset": 0,
								"slot": "2",
								"type": "t_uint8"
							},
							{
								"astId": 68,
								"contract": "contracts/hangman.sol:Hangman",
								"label": "playersVoted",
								"offset": 0,
								"slot": "3",
								"type": "t_array(t_address)5_storage"
							},
							{
								"astId": 72,
								"contract": "contracts/hangman.sol:Hangman",
								"label": "playerVotes",
								"offset": 0,
								"slot": "8",
								"type": "t_mapping(t_address,t_bytes1)"
							},
							{
								"astId": 76,
								"contract": "contracts/hangman.sol:Hangman",
								"label": "letterCounts",
								"offset": 0,
								"slot": "9",
								"type": "t_mapping(t_bytes1,t_uint8)"
							}
						],
						"numberOfBytes": "320"
					},
					"t_uint256": {
						"encoding": "inplace",
						"label": "uint256",
						"numberOfBytes": "32"
					},
					"t_uint8": {
						"encoding": "inplace",
						"label": "uint8",
						"numberOfBytes": "1"
					}
				}
			},
			"userdoc": {
				"kind": "user",
				"methods": {
					"createGame(string,uint8)": {
						"notice": "Create a new game, if there is space in the games array."
					},
					"deleteGame(string)": {
						"notice": "Deletes an existing game."
					},
					"endVote(string)": {
						"notice": "End a vote in case some players are not voting"
					},
					"joinGame(string)": {
						"notice": "Join an active game."
					},
					"leaveGame(string)": {
						"notice": "Leave the game at any time while its active."
					},
					"voteForLetter(string,bytes1)": {
						"notice": "Vote for a letter in the hangman game."
					}
				},
				"version": 1
			}
		}
	}
}