{
	"contracts/hangman.sol": {
		"Hangman": {
			"abi": [
				{
					"anonymous": false,
					"inputs": [
						{
							"indexed": true,
							"internalType": "string",
							"name": "gameID",
							"type": "string"
						},
						{
							"indexed": false,
							"internalType": "uint8",
							"name": "numOfPlayers",
							"type": "uint8"
						}
					],
					"name": "GameCreated",
					"type": "event"
				},
				{
					"anonymous": false,
					"inputs": [
						{
							"indexed": true,
							"internalType": "string",
							"name": "gameID",
							"type": "string"
						},
						{
							"indexed": false,
							"internalType": "enum Hangman.GameResult",
							"name": "result",
							"type": "uint8"
						},
						{
							"indexed": false,
							"internalType": "string",
							"name": "solution",
							"type": "string"
						}
					],
					"name": "GameEnded",
					"type": "event"
				},
				{
					"anonymous": false,
					"inputs": [
						{
							"indexed": true,
							"internalType": "string",
							"name": "gameID",
							"type": "string"
						},
						{
							"indexed": true,
							"internalType": "address",
							"name": "player",
							"type": "address"
						}
					],
					"name": "PlayerJoined",
					"type": "event"
				},
				{
					"anonymous": false,
					"inputs": [
						{
							"indexed": true,
							"internalType": "string",
							"name": "gameID",
							"type": "string"
						},
						{
							"indexed": true,
							"internalType": "address",
							"name": "player",
							"type": "address"
						}
					],
					"name": "PlayerLeft",
					"type": "event"
				},
				{
					"anonymous": false,
					"inputs": [
						{
							"indexed": true,
							"internalType": "string",
							"name": "gameID",
							"type": "string"
						},
						{
							"indexed": false,
							"internalType": "bytes1",
							"name": "chosenLetter",
							"type": "bytes1"
						},
						{
							"indexed": false,
							"internalType": "string",
							"name": "maskedWord",
							"type": "string"
						},
						{
							"indexed": false,
							"internalType": "bool",
							"name": "error",
							"type": "bool"
						}
					],
					"name": "VoteEnded",
					"type": "event"
				},
				{
					"anonymous": false,
					"inputs": [
						{
							"indexed": false,
							"internalType": "string",
							"name": "gameID",
							"type": "string"
						},
						{
							"indexed": true,
							"internalType": "address",
							"name": "player",
							"type": "address"
						},
						{
							"indexed": false,
							"internalType": "bytes1",
							"name": "letter",
							"type": "bytes1"
						}
					],
					"name": "VoteRegistered",
					"type": "event"
				},
				{
					"anonymous": false,
					"inputs": [
						{
							"indexed": true,
							"internalType": "string",
							"name": "gameID",
							"type": "string"
						}
					],
					"name": "VoteStarted",
					"type": "event"
				},
				{
					"anonymous": false,
					"inputs": [
						{
							"indexed": false,
							"internalType": "string",
							"name": "gameID",
							"type": "string"
						},
						{
							"indexed": true,
							"internalType": "address",
							"name": "player",
							"type": "address"
						},
						{
							"indexed": false,
							"internalType": "bytes1",
							"name": "letter",
							"type": "bytes1"
						}
					],
					"name": "VoteUnregistered",
					"type": "event"
				},
				{
					"inputs": [],
					"name": "INACTIVITY_THRESHOLD",
					"outputs": [
						{
							"internalType": "uint256",
							"name": "",
							"type": "uint256"
						}
					],
					"stateMutability": "view",
					"type": "function"
				},
				{
					"inputs": [],
					"name": "MAX_GAMES",
					"outputs": [
						{
							"internalType": "uint8",
							"name": "",
							"type": "uint8"
						}
					],
					"stateMutability": "view",
					"type": "function"
				},
				{
					"inputs": [],
					"name": "MAX_GUESSES",
					"outputs": [
						{
							"internalType": "uint8",
							"name": "",
							"type": "uint8"
						}
					],
					"stateMutability": "view",
					"type": "function"
				},
				{
					"inputs": [],
					"name": "MAX_PLAYERS",
					"outputs": [
						{
							"internalType": "uint8",
							"name": "",
							"type": "uint8"
						}
					],
					"stateMutability": "view",
					"type": "function"
				},
				{
					"inputs": [],
					"name": "VOTING_DURATION",
					"outputs": [
						{
							"internalType": "uint256",
							"name": "",
							"type": "uint256"
						}
					],
					"stateMutability": "view",
					"type": "function"
				},
				{
					"inputs": [
						{
							"internalType": "uint256",
							"name": "",
							"type": "uint256"
						}
					],
					"name": "WORDS",
					"outputs": [
						{
							"internalType": "string",
							"name": "",
							"type": "string"
						}
					],
					"stateMutability": "view",
					"type": "function"
				},
				{
					"inputs": [
						{
							"internalType": "string",
							"name": "_gameID",
							"type": "string"
						},
						{
							"internalType": "uint8",
							"name": "_numOfPlayers",
							"type": "uint8"
						}
					],
					"name": "createGame",
					"outputs": [],
					"stateMutability": "nonpayable",
					"type": "function"
				},
				{
					"inputs": [
						{
							"internalType": "string",
							"name": "_gameID",
							"type": "string"
						}
					],
					"name": "deleteGame",
					"outputs": [],
					"stateMutability": "nonpayable",
					"type": "function"
				},
				{
					"inputs": [
						{
							"internalType": "string",
							"name": "_gameID",
							"type": "string"
						}
					],
					"name": "endVote",
					"outputs": [],
					"stateMutability": "nonpayable",
					"type": "function"
				},
				{
					"inputs": [
						{
							"internalType": "string",
							"name": "",
							"type": "string"
						}
					],
					"name": "getGameIndex",
					"outputs": [
						{
							"internalType": "uint8",
							"name": "",
							"type": "uint8"
						}
					],
					"stateMutability": "view",
					"type": "function"
				},
				{
					"inputs": [
						{
							"internalType": "string",
							"name": "_gameID",
							"type": "string"
						}
					],
					"name": "joinGame",
					"outputs": [],
					"stateMutability": "nonpayable",
					"type": "function"
				},
				{
					"inputs": [
						{
							"internalType": "string",
							"name": "_gameID",
							"type": "string"
						}
					],
					"name": "leaveGame",
					"outputs": [],
					"stateMutability": "nonpayable",
					"type": "function"
				},
				{
					"inputs": [
						{
							"internalType": "string",
							"name": "_gameID",
							"type": "string"
						},
						{
							"internalType": "string",
							"name": "_vote",
							"type": "string"
						}
					],
					"name": "voteForLetter",
					"outputs": [],
					"stateMutability": "nonpayable",
					"type": "function"
				}
			],
			"devdoc": {
				"kind": "dev",
				"methods": {
					"createGame(string,uint8)": {
						"params": {
							"_gameID": "Identifier for the game.",
							"_numOfPlayers": "The maximum number of players > 0, <= MAX_PLAYERS."
						}
					},
					"deleteGame(string)": {
						"params": {
							"_gameID": "Identifier for the game."
						}
					},
					"endVote(string)": {
						"params": {
							"_gameID": "Identifier for the game."
						}
					},
					"joinGame(string)": {
						"params": {
							"_gameID": "Identifier for the game."
						}
					},
					"leaveGame(string)": {
						"params": {
							"_gameID": "Identifier for the game."
						}
					},
					"voteForLetter(string,string)": {
						"params": {
							"_gameID": "Identifier for the game.",
							"_vote": "Letter to vote for."
						}
					}
				},
				"version": 1
			},
			"evm": {
				"assembly": "    /* \"contracts/hangman.sol\":64:13317  contract Hangman {... */\n  mstore(0x40, 0x80)\n    /* \"contracts/hangman.sol\":450:527  string[] public WORDS = [\"Apple\", \"Banana\", \"Cherry\", \"Durian\", \"Elderberry\"] */\n  mload(0x40)\n  dup1\n  0xa0\n  add\n  0x40\n  mstore\n  dup1\n  mload(0x40)\n  dup1\n  0x40\n  add\n  0x40\n  mstore\n  dup1\n  0x05\n  dup2\n  mstore\n  0x20\n  add\n  0x4170706c65000000000000000000000000000000000000000000000000000000\n  dup2\n  mstore\n  pop\n  dup2\n  mstore\n  0x20\n  add\n  mload(0x40)\n  dup1\n  0x40\n  add\n  0x40\n  mstore\n  dup1\n  0x06\n  dup2\n  mstore\n  0x20\n  add\n  0x42616e616e610000000000000000000000000000000000000000000000000000\n  dup2\n  mstore\n  pop\n  dup2\n  mstore\n  0x20\n  add\n  mload(0x40)\n  dup1\n  0x40\n  add\n  0x40\n  mstore\n  dup1\n  0x06\n  dup2\n  mstore\n  0x20\n  add\n  0x4368657272790000000000000000000000000000000000000000000000000000\n  dup2\n  mstore\n  pop\n  dup2\n  mstore\n  0x20\n  add\n  mload(0x40)\n  dup1\n  0x40\n  add\n  0x40\n  mstore\n  dup1\n  0x06\n  dup2\n  mstore\n  0x20\n  add\n  0x44757269616e0000000000000000000000000000000000000000000000000000\n  dup2\n  mstore\n  pop\n  dup2\n  mstore\n  0x20\n  add\n  mload(0x40)\n  dup1\n  0x40\n  add\n  0x40\n  mstore\n  dup1\n  0x0a\n  dup2\n  mstore\n  0x20\n  add\n  0x456c646572626572727900000000000000000000000000000000000000000000\n  dup2\n  mstore\n  pop\n  dup2\n  mstore\n  pop\n  0x00\n  swap1\n  0x05\n  tag_1\n  swap3\n  swap2\n  swap1\n  tag_2\n  jump\t// in\ntag_1:\n  pop\n    /* \"contracts/hangman.sol\":64:13317  contract Hangman {... */\n  callvalue\n  dup1\n  iszero\n  tag_3\n  jumpi\n  0x00\n  dup1\n  revert\ntag_3:\n  pop\n  jump(tag_4)\ntag_2:\n  dup3\n  dup1\n  sload\n  dup3\n  dup3\n  sstore\n  swap1\n  0x00\n  mstore\n  keccak256(0x00, 0x20)\n  swap1\n  dup2\n  add\n  swap3\n  dup3\n  iszero\n  tag_5\n  jumpi\n  swap2\n  0x20\n  mul\n  dup3\n  add\ntag_6:\n  dup3\n  dup2\n  gt\n  iszero\n  tag_7\n  jumpi\n  dup3\n  mload\n  dup3\n  swap1\n  dup2\n  tag_8\n  swap2\n  swap1\n  tag_9\n  jump\t// in\ntag_8:\n  pop\n  swap2\n  0x20\n  add\n  swap2\n  swap1\n  0x01\n  add\n  swap1\n  jump(tag_6)\ntag_7:\ntag_5:\n  pop\n  swap1\n  pop\n  tag_10\n  swap2\n  swap1\n  tag_11\n  jump\t// in\ntag_10:\n  pop\n  swap1\n  jump\t// out\ntag_11:\ntag_12:\n  dup1\n  dup3\n  gt\n  iszero\n  tag_13\n  jumpi\n  0x00\n  dup2\n  dup2\n  tag_14\n  swap2\n  swap1\n  tag_15\n  jump\t// in\ntag_14:\n  pop\n  0x01\n  add\n  jump(tag_12)\ntag_13:\n  pop\n  swap1\n  jump\t// out\ntag_15:\n  pop\n  dup1\n  sload\n  tag_16\n  swap1\n  tag_17\n  jump\t// in\ntag_16:\n  0x00\n  dup3\n  sstore\n  dup1\n  0x1f\n  lt\n  tag_19\n  jumpi\n  pop\n  jump(tag_18)\ntag_19:\n  0x1f\n  add\n  0x20\n  swap1\n  div\n  swap1\n  0x00\n  mstore\n  keccak256(0x00, 0x20)\n  swap1\n  dup2\n  add\n  swap1\n  tag_20\n  swap2\n  swap1\n  tag_21\n  jump\t// in\ntag_20:\ntag_18:\n  pop\n  jump\t// out\ntag_21:\ntag_22:\n  dup1\n  dup3\n  gt\n  iszero\n  tag_23\n  jumpi\n  0x00\n  dup2\n  0x00\n  swap1\n  sstore\n  pop\n  0x01\n  add\n  jump(tag_22)\ntag_23:\n  pop\n  swap1\n  jump\t// out\n    /* \"#utility.yul\":7:106   */\ntag_24:\n    /* \"#utility.yul\":59:65   */\n  0x00\n    /* \"#utility.yul\":93:98   */\n  dup2\n    /* \"#utility.yul\":87:99   */\n  mload\n    /* \"#utility.yul\":77:99   */\n  swap1\n  pop\n    /* \"#utility.yul\":7:106   */\n  swap2\n  swap1\n  pop\n  jump\t// out\n    /* \"#utility.yul\":112:292   */\ntag_25:\n    /* \"#utility.yul\":160:237   */\n  0x4e487b7100000000000000000000000000000000000000000000000000000000\n    /* \"#utility.yul\":157:158   */\n  0x00\n    /* \"#utility.yul\":150:238   */\n  mstore\n    /* \"#utility.yul\":257:261   */\n  0x41\n    /* \"#utility.yul\":254:255   */\n  0x04\n    /* \"#utility.yul\":247:262   */\n  mstore\n    /* \"#utility.yul\":281:285   */\n  0x24\n    /* \"#utility.yul\":278:279   */\n  0x00\n    /* \"#utility.yul\":271:286   */\n  revert\n    /* \"#utility.yul\":298:478   */\ntag_26:\n    /* \"#utility.yul\":346:423   */\n  0x4e487b7100000000000000000000000000000000000000000000000000000000\n    /* \"#utility.yul\":343:344   */\n  0x00\n    /* \"#utility.yul\":336:424   */\n  mstore\n    /* \"#utility.yul\":443:447   */\n  0x22\n    /* \"#utility.yul\":440:441   */\n  0x04\n    /* \"#utility.yul\":433:448   */\n  mstore\n    /* \"#utility.yul\":467:471   */\n  0x24\n    /* \"#utility.yul\":464:465   */\n  0x00\n    /* \"#utility.yul\":457:472   */\n  revert\n    /* \"#utility.yul\":484:804   */\ntag_17:\n    /* \"#utility.yul\":528:534   */\n  0x00\n    /* \"#utility.yul\":565:566   */\n  0x02\n    /* \"#utility.yul\":559:563   */\n  dup3\n    /* \"#utility.yul\":555:567   */\n  div\n    /* \"#utility.yul\":545:567   */\n  swap1\n  pop\n    /* \"#utility.yul\":612:613   */\n  0x01\n    /* \"#utility.yul\":606:610   */\n  dup3\n    /* \"#utility.yul\":602:614   */\n  and\n    /* \"#utility.yul\":633:651   */\n  dup1\n    /* \"#utility.yul\":623:704   */\n  tag_48\n  jumpi\n    /* \"#utility.yul\":689:693   */\n  0x7f\n    /* \"#utility.yul\":681:687   */\n  dup3\n    /* \"#utility.yul\":677:694   */\n  and\n    /* \"#utility.yul\":667:694   */\n  swap2\n  pop\n    /* \"#utility.yul\":623:704   */\ntag_48:\n    /* \"#utility.yul\":751:753   */\n  0x20\n    /* \"#utility.yul\":743:749   */\n  dup3\n    /* \"#utility.yul\":740:754   */\n  lt\n    /* \"#utility.yul\":720:738   */\n  dup2\n    /* \"#utility.yul\":717:755   */\n  sub\n    /* \"#utility.yul\":714:798   */\n  tag_49\n  jumpi\n    /* \"#utility.yul\":770:788   */\n  tag_50\n  tag_26\n  jump\t// in\ntag_50:\n    /* \"#utility.yul\":714:798   */\ntag_49:\n    /* \"#utility.yul\":535:804   */\n  pop\n    /* \"#utility.yul\":484:804   */\n  swap2\n  swap1\n  pop\n  jump\t// out\n    /* \"#utility.yul\":810:951   */\ntag_27:\n    /* \"#utility.yul\":859:863   */\n  0x00\n    /* \"#utility.yul\":882:885   */\n  dup2\n    /* \"#utility.yul\":874:885   */\n  swap1\n  pop\n    /* \"#utility.yul\":905:908   */\n  dup2\n    /* \"#utility.yul\":902:903   */\n  0x00\n    /* \"#utility.yul\":895:909   */\n  mstore\n    /* \"#utility.yul\":939:943   */\n  0x20\n    /* \"#utility.yul\":936:937   */\n  0x00\n    /* \"#utility.yul\":926:944   */\n  keccak256\n    /* \"#utility.yul\":918:944   */\n  swap1\n  pop\n    /* \"#utility.yul\":810:951   */\n  swap2\n  swap1\n  pop\n  jump\t// out\n    /* \"#utility.yul\":957:1050   */\ntag_28:\n    /* \"#utility.yul\":994:1000   */\n  0x00\n    /* \"#utility.yul\":1041:1043   */\n  0x20\n    /* \"#utility.yul\":1036:1038   */\n  0x1f\n    /* \"#utility.yul\":1029:1034   */\n  dup4\n    /* \"#utility.yul\":1025:1039   */\n  add\n    /* \"#utility.yul\":1021:1044   */\n  div\n    /* \"#utility.yul\":1011:1044   */\n  swap1\n  pop\n    /* \"#utility.yul\":957:1050   */\n  swap2\n  swap1\n  pop\n  jump\t// out\n    /* \"#utility.yul\":1056:1163   */\ntag_29:\n    /* \"#utility.yul\":1100:1108   */\n  0x00\n    /* \"#utility.yul\":1150:1155   */\n  dup3\n    /* \"#utility.yul\":1144:1148   */\n  dup3\n    /* \"#utility.yul\":1140:1156   */\n  shl\n    /* \"#utility.yul\":1119:1156   */\n  swap1\n  pop\n    /* \"#utility.yul\":1056:1163   */\n  swap3\n  swap2\n  pop\n  pop\n  jump\t// out\n    /* \"#utility.yul\":1169:1562   */\ntag_30:\n    /* \"#utility.yul\":1238:1244   */\n  0x00\n    /* \"#utility.yul\":1288:1289   */\n  0x08\n    /* \"#utility.yul\":1276:1286   */\n  dup4\n    /* \"#utility.yul\":1272:1290   */\n  mul\n    /* \"#utility.yul\":1311:1408   */\n  tag_55\n    /* \"#utility.yul\":1341:1407   */\n  0xffffffffffffffffffffffffffffffffffffffffffffffffffffffffffffffff\n    /* \"#utility.yul\":1330:1339   */\n  dup3\n    /* \"#utility.yul\":1311:1408   */\n  tag_29\n  jump\t// in\ntag_55:\n    /* \"#utility.yul\":1429:1468   */\n  tag_56\n    /* \"#utility.yul\":1459:1467   */\n  dup7\n    /* \"#utility.yul\":1448:1457   */\n  dup4\n    /* \"#utility.yul\":1429:1468   */\n  tag_29\n  jump\t// in\ntag_56:\n    /* \"#utility.yul\":1417:1468   */\n  swap6\n  pop\n    /* \"#utility.yul\":1501:1505   */\n  dup1\n    /* \"#utility.yul\":1497:1506   */\n  not\n    /* \"#utility.yul\":1490:1495   */\n  dup5\n    /* \"#utility.yul\":1486:1507   */\n  and\n    /* \"#utility.yul\":1477:1507   */\n  swap4\n  pop\n    /* \"#utility.yul\":1550:1554   */\n  dup1\n    /* \"#utility.yul\":1540:1548   */\n  dup7\n    /* \"#utility.yul\":1536:1555   */\n  and\n    /* \"#utility.yul\":1529:1534   */\n  dup5\n    /* \"#utility.yul\":1526:1556   */\n  or\n    /* \"#utility.yul\":1516:1556   */\n  swap3\n  pop\n    /* \"#utility.yul\":1245:1562   */\n  pop\n  pop\n    /* \"#utility.yul\":1169:1562   */\n  swap4\n  swap3\n  pop\n  pop\n  pop\n  jump\t// out\n    /* \"#utility.yul\":1568:1645   */\ntag_31:\n    /* \"#utility.yul\":1605:1612   */\n  0x00\n    /* \"#utility.yul\":1634:1639   */\n  dup2\n    /* \"#utility.yul\":1623:1639   */\n  swap1\n  pop\n    /* \"#utility.yul\":1568:1645   */\n  swap2\n  swap1\n  pop\n  jump\t// out\n    /* \"#utility.yul\":1651:1711   */\ntag_32:\n    /* \"#utility.yul\":1679:1682   */\n  0x00\n    /* \"#utility.yul\":1700:1705   */\n  dup2\n    /* \"#utility.yul\":1693:1705   */\n  swap1\n  pop\n    /* \"#utility.yul\":1651:1711   */\n  swap2\n  swap1\n  pop\n  jump\t// out\n    /* \"#utility.yul\":1717:1859   */\ntag_33:\n    /* \"#utility.yul\":1767:1776   */\n  0x00\n    /* \"#utility.yul\":1800:1853   */\n  tag_60\n    /* \"#utility.yul\":1818:1852   */\n  tag_61\n    /* \"#utility.yul\":1827:1851   */\n  tag_62\n    /* \"#utility.yul\":1845:1850   */\n  dup5\n    /* \"#utility.yul\":1827:1851   */\n  tag_31\n  jump\t// in\ntag_62:\n    /* \"#utility.yul\":1818:1852   */\n  tag_32\n  jump\t// in\ntag_61:\n    /* \"#utility.yul\":1800:1853   */\n  tag_31\n  jump\t// in\ntag_60:\n    /* \"#utility.yul\":1787:1853   */\n  swap1\n  pop\n    /* \"#utility.yul\":1717:1859   */\n  swap2\n  swap1\n  pop\n  jump\t// out\n    /* \"#utility.yul\":1865:1940   */\ntag_34:\n    /* \"#utility.yul\":1908:1911   */\n  0x00\n    /* \"#utility.yul\":1929:1934   */\n  dup2\n    /* \"#utility.yul\":1922:1934   */\n  swap1\n  pop\n    /* \"#utility.yul\":1865:1940   */\n  swap2\n  swap1\n  pop\n  jump\t// out\n    /* \"#utility.yul\":1946:2215   */\ntag_35:\n    /* \"#utility.yul\":2056:2095   */\n  tag_65\n    /* \"#utility.yul\":2087:2094   */\n  dup4\n    /* \"#utility.yul\":2056:2095   */\n  tag_33\n  jump\t// in\ntag_65:\n    /* \"#utility.yul\":2117:2208   */\n  tag_66\n    /* \"#utility.yul\":2166:2207   */\n  tag_67\n    /* \"#utility.yul\":2190:2206   */\n  dup3\n    /* \"#utility.yul\":2166:2207   */\n  tag_34\n  jump\t// in\ntag_67:\n    /* \"#utility.yul\":2158:2164   */\n  dup5\n    /* \"#utility.yul\":2151:2155   */\n  dup5\n    /* \"#utility.yul\":2145:2156   */\n  sload\n    /* \"#utility.yul\":2117:2208   */\n  tag_30\n  jump\t// in\ntag_66:\n    /* \"#utility.yul\":2111:2115   */\n  dup3\n    /* \"#utility.yul\":2104:2209   */\n  sstore\n    /* \"#utility.yul\":2022:2215   */\n  pop\n    /* \"#utility.yul\":1946:2215   */\n  pop\n  pop\n  pop\n  jump\t// out\n    /* \"#utility.yul\":2221:2294   */\ntag_36:\n    /* \"#utility.yul\":2266:2269   */\n  0x00\n    /* \"#utility.yul\":2221:2294   */\n  swap1\n  jump\t// out\n    /* \"#utility.yul\":2300:2489   */\ntag_37:\n    /* \"#utility.yul\":2377:2409   */\n  tag_70\n  tag_36\n  jump\t// in\ntag_70:\n    /* \"#utility.yul\":2418:2483   */\n  tag_71\n    /* \"#utility.yul\":2476:2482   */\n  dup2\n    /* \"#utility.yul\":2468:2474   */\n  dup5\n    /* \"#utility.yul\":2462:2466   */\n  dup5\n    /* \"#utility.yul\":2418:2483   */\n  tag_35\n  jump\t// in\ntag_71:\n    /* \"#utility.yul\":2353:2489   */\n  pop\n    /* \"#utility.yul\":2300:2489   */\n  pop\n  pop\n  jump\t// out\n    /* \"#utility.yul\":2495:2681   */\ntag_38:\n    /* \"#utility.yul\":2555:2675   */\ntag_73:\n    /* \"#utility.yul\":2572:2575   */\n  dup2\n    /* \"#utility.yul\":2565:2570   */\n  dup2\n    /* \"#utility.yul\":2562:2576   */\n  lt\n    /* \"#utility.yul\":2555:2675   */\n  iszero\n  tag_75\n  jumpi\n    /* \"#utility.yul\":2626:2665   */\n  tag_76\n    /* \"#utility.yul\":2663:2664   */\n  0x00\n    /* \"#utility.yul\":2656:2661   */\n  dup3\n    /* \"#utility.yul\":2626:2665   */\n  tag_37\n  jump\t// in\ntag_76:\n    /* \"#utility.yul\":2599:2600   */\n  0x01\n    /* \"#utility.yul\":2592:2597   */\n  dup2\n    /* \"#utility.yul\":2588:2601   */\n  add\n    /* \"#utility.yul\":2579:2601   */\n  swap1\n  pop\n    /* \"#utility.yul\":2555:2675   */\n  jump(tag_73)\ntag_75:\n    /* \"#utility.yul\":2495:2681   */\n  pop\n  pop\n  jump\t// out\n    /* \"#utility.yul\":2687:3230   */\ntag_39:\n    /* \"#utility.yul\":2788:2790   */\n  0x1f\n    /* \"#utility.yul\":2783:2786   */\n  dup3\n    /* \"#utility.yul\":2780:2791   */\n  gt\n    /* \"#utility.yul\":2777:3223   */\n  iszero\n  tag_78\n  jumpi\n    /* \"#utility.yul\":2822:2860   */\n  tag_79\n    /* \"#utility.yul\":2854:2859   */\n  dup2\n    /* \"#utility.yul\":2822:2860   */\n  tag_27\n  jump\t// in\ntag_79:\n    /* \"#utility.yul\":2906:2935   */\n  tag_80\n    /* \"#utility.yul\":2924:2934   */\n  dup5\n    /* \"#utility.yul\":2906:2935   */\n  tag_28\n  jump\t// in\ntag_80:\n    /* \"#utility.yul\":2896:2904   */\n  dup2\n    /* \"#utility.yul\":2892:2936   */\n  add\n    /* \"#utility.yul\":3089:3091   */\n  0x20\n    /* \"#utility.yul\":3077:3087   */\n  dup6\n    /* \"#utility.yul\":3074:3092   */\n  lt\n    /* \"#utility.yul\":3071:3120   */\n  iszero\n  tag_81\n  jumpi\n    /* \"#utility.yul\":3110:3118   */\n  dup2\n    /* \"#utility.yul\":3095:3118   */\n  swap1\n  pop\n    /* \"#utility.yul\":3071:3120   */\ntag_81:\n    /* \"#utility.yul\":3133:3213   */\n  tag_82\n    /* \"#utility.yul\":3189:3211   */\n  tag_83\n    /* \"#utility.yul\":3207:3210   */\n  dup6\n    /* \"#utility.yul\":3189:3211   */\n  tag_28\n  jump\t// in\ntag_83:\n    /* \"#utility.yul\":3179:3187   */\n  dup4\n    /* \"#utility.yul\":3175:3212   */\n  add\n    /* \"#utility.yul\":3162:3173   */\n  dup3\n    /* \"#utility.yul\":3133:3213   */\n  tag_38\n  jump\t// in\ntag_82:\n    /* \"#utility.yul\":2792:3223   */\n  pop\n  pop\n    /* \"#utility.yul\":2777:3223   */\ntag_78:\n    /* \"#utility.yul\":2687:3230   */\n  pop\n  pop\n  pop\n  jump\t// out\n    /* \"#utility.yul\":3236:3353   */\ntag_40:\n    /* \"#utility.yul\":3290:3298   */\n  0x00\n    /* \"#utility.yul\":3340:3345   */\n  dup3\n    /* \"#utility.yul\":3334:3338   */\n  dup3\n    /* \"#utility.yul\":3330:3346   */\n  shr\n    /* \"#utility.yul\":3309:3346   */\n  swap1\n  pop\n    /* \"#utility.yul\":3236:3353   */\n  swap3\n  swap2\n  pop\n  pop\n  jump\t// out\n    /* \"#utility.yul\":3359:3528   */\ntag_41:\n    /* \"#utility.yul\":3403:3409   */\n  0x00\n    /* \"#utility.yul\":3436:3487   */\n  tag_86\n    /* \"#utility.yul\":3484:3485   */\n  0x00\n    /* \"#utility.yul\":3480:3486   */\n  not\n    /* \"#utility.yul\":3472:3477   */\n  dup5\n    /* \"#utility.yul\":3469:3470   */\n  0x08\n    /* \"#utility.yul\":3465:3478   */\n  mul\n    /* \"#utility.yul\":3436:3487   */\n  tag_40\n  jump\t// in\ntag_86:\n    /* \"#utility.yul\":3432:3488   */\n  not\n    /* \"#utility.yul\":3517:3521   */\n  dup1\n    /* \"#utility.yul\":3511:3515   */\n  dup4\n    /* \"#utility.yul\":3507:3522   */\n  and\n    /* \"#utility.yul\":3497:3522   */\n  swap2\n  pop\n    /* \"#utility.yul\":3410:3528   */\n  pop\n    /* \"#utility.yul\":3359:3528   */\n  swap3\n  swap2\n  pop\n  pop\n  jump\t// out\n    /* \"#utility.yul\":3533:3828   */\ntag_42:\n    /* \"#utility.yul\":3609:3613   */\n  0x00\n    /* \"#utility.yul\":3755:3784   */\n  tag_88\n    /* \"#utility.yul\":3780:3783   */\n  dup4\n    /* \"#utility.yul\":3774:3778   */\n  dup4\n    /* \"#utility.yul\":3755:3784   */\n  tag_41\n  jump\t// in\ntag_88:\n    /* \"#utility.yul\":3747:3784   */\n  swap2\n  pop\n    /* \"#utility.yul\":3817:3820   */\n  dup3\n    /* \"#utility.yul\":3814:3815   */\n  0x02\n    /* \"#utility.yul\":3810:3821   */\n  mul\n    /* \"#utility.yul\":3804:3808   */\n  dup3\n    /* \"#utility.yul\":3801:3822   */\n  or\n    /* \"#utility.yul\":3793:3822   */\n  swap1\n  pop\n    /* \"#utility.yul\":3533:3828   */\n  swap3\n  swap2\n  pop\n  pop\n  jump\t// out\n    /* \"#utility.yul\":3833:5228   */\ntag_9:\n    /* \"#utility.yul\":3950:3987   */\n  tag_90\n    /* \"#utility.yul\":3983:3986   */\n  dup3\n    /* \"#utility.yul\":3950:3987   */\n  tag_24\n  jump\t// in\ntag_90:\n    /* \"#utility.yul\":4052:4070   */\n  0xffffffffffffffff\n    /* \"#utility.yul\":4044:4050   */\n  dup2\n    /* \"#utility.yul\":4041:4071   */\n  gt\n    /* \"#utility.yul\":4038:4094   */\n  iszero\n  tag_91\n  jumpi\n    /* \"#utility.yul\":4074:4092   */\n  tag_92\n  tag_25\n  jump\t// in\ntag_92:\n    /* \"#utility.yul\":4038:4094   */\ntag_91:\n    /* \"#utility.yul\":4118:4156   */\n  tag_93\n    /* \"#utility.yul\":4150:4154   */\n  dup3\n    /* \"#utility.yul\":4144:4155   */\n  sload\n    /* \"#utility.yul\":4118:4156   */\n  tag_17\n  jump\t// in\ntag_93:\n    /* \"#utility.yul\":4203:4270   */\n  tag_94\n    /* \"#utility.yul\":4263:4269   */\n  dup3\n    /* \"#utility.yul\":4255:4261   */\n  dup3\n    /* \"#utility.yul\":4249:4253   */\n  dup6\n    /* \"#utility.yul\":4203:4270   */\n  tag_39\n  jump\t// in\ntag_94:\n    /* \"#utility.yul\":4297:4298   */\n  0x00\n    /* \"#utility.yul\":4321:4325   */\n  0x20\n    /* \"#utility.yul\":4308:4325   */\n  swap1\n  pop\n    /* \"#utility.yul\":4353:4355   */\n  0x1f\n    /* \"#utility.yul\":4345:4351   */\n  dup4\n    /* \"#utility.yul\":4342:4356   */\n  gt\n    /* \"#utility.yul\":4370:4371   */\n  0x01\n    /* \"#utility.yul\":4365:4983   */\n  dup2\n  eq\n  tag_96\n  jumpi\n    /* \"#utility.yul\":5027:5028   */\n  0x00\n    /* \"#utility.yul\":5044:5050   */\n  dup5\n    /* \"#utility.yul\":5041:5118   */\n  iszero\n  tag_97\n  jumpi\n    /* \"#utility.yul\":5093:5102   */\n  dup3\n    /* \"#utility.yul\":5088:5091   */\n  dup8\n    /* \"#utility.yul\":5084:5103   */\n  add\n    /* \"#utility.yul\":5078:5104   */\n  mload\n    /* \"#utility.yul\":5069:5104   */\n  swap1\n  pop\n    /* \"#utility.yul\":5041:5118   */\ntag_97:\n    /* \"#utility.yul\":5144:5211   */\n  tag_98\n    /* \"#utility.yul\":5204:5210   */\n  dup6\n    /* \"#utility.yul\":5197:5202   */\n  dup3\n    /* \"#utility.yul\":5144:5211   */\n  tag_42\n  jump\t// in\ntag_98:\n    /* \"#utility.yul\":5138:5142   */\n  dup7\n    /* \"#utility.yul\":5131:5212   */\n  sstore\n    /* \"#utility.yul\":5000:5222   */\n  pop\n    /* \"#utility.yul\":4335:5222   */\n  jump(tag_95)\n    /* \"#utility.yul\":4365:4983   */\ntag_96:\n    /* \"#utility.yul\":4417:4421   */\n  0x1f\n    /* \"#utility.yul\":4413:4422   */\n  not\n    /* \"#utility.yul\":4405:4411   */\n  dup5\n    /* \"#utility.yul\":4401:4423   */\n  and\n    /* \"#utility.yul\":4451:4488   */\n  tag_99\n    /* \"#utility.yul\":4483:4487   */\n  dup7\n    /* \"#utility.yul\":4451:4488   */\n  tag_27\n  jump\t// in\ntag_99:\n    /* \"#utility.yul\":4510:4511   */\n  0x00\n    /* \"#utility.yul\":4524:4732   */\ntag_100:\n    /* \"#utility.yul\":4538:4545   */\n  dup3\n    /* \"#utility.yul\":4535:4536   */\n  dup2\n    /* \"#utility.yul\":4532:4546   */\n  lt\n    /* \"#utility.yul\":4524:4732   */\n  iszero\n  tag_102\n  jumpi\n    /* \"#utility.yul\":4617:4626   */\n  dup5\n    /* \"#utility.yul\":4612:4615   */\n  dup10\n    /* \"#utility.yul\":4608:4627   */\n  add\n    /* \"#utility.yul\":4602:4628   */\n  mload\n    /* \"#utility.yul\":4594:4600   */\n  dup3\n    /* \"#utility.yul\":4587:4629   */\n  sstore\n    /* \"#utility.yul\":4668:4669   */\n  0x01\n    /* \"#utility.yul\":4660:4666   */\n  dup3\n    /* \"#utility.yul\":4656:4670   */\n  add\n    /* \"#utility.yul\":4646:4670   */\n  swap2\n  pop\n    /* \"#utility.yul\":4715:4717   */\n  0x20\n    /* \"#utility.yul\":4704:4713   */\n  dup6\n    /* \"#utility.yul\":4700:4718   */\n  add\n    /* \"#utility.yul\":4687:4718   */\n  swap5\n  pop\n    /* \"#utility.yul\":4561:4565   */\n  0x20\n    /* \"#utility.yul\":4558:4559   */\n  dup2\n    /* \"#utility.yul\":4554:4566   */\n  add\n    /* \"#utility.yul\":4549:4566   */\n  swap1\n  pop\n    /* \"#utility.yul\":4524:4732   */\n  jump(tag_100)\ntag_102:\n    /* \"#utility.yul\":4760:4766   */\n  dup7\n    /* \"#utility.yul\":4751:4758   */\n  dup4\n    /* \"#utility.yul\":4748:4767   */\n  lt\n    /* \"#utility.yul\":4745:4924   */\n  iszero\n  tag_103\n  jumpi\n    /* \"#utility.yul\":4818:4827   */\n  dup5\n    /* \"#utility.yul\":4813:4816   */\n  dup10\n    /* \"#utility.yul\":4809:4828   */\n  add\n    /* \"#utility.yul\":4803:4829   */\n  mload\n    /* \"#utility.yul\":4861:4909   */\n  tag_104\n    /* \"#utility.yul\":4903:4907   */\n  0x1f\n    /* \"#utility.yul\":4895:4901   */\n  dup10\n    /* \"#utility.yul\":4891:4908   */\n  and\n    /* \"#utility.yul\":4880:4889   */\n  dup3\n    /* \"#utility.yul\":4861:4909   */\n  tag_41\n  jump\t// in\ntag_104:\n    /* \"#utility.yul\":4853:4859   */\n  dup4\n    /* \"#utility.yul\":4846:4910   */\n  sstore\n    /* \"#utility.yul\":4768:4924   */\n  pop\n    /* \"#utility.yul\":4745:4924   */\ntag_103:\n    /* \"#utility.yul\":4970:4971   */\n  0x01\n    /* \"#utility.yul\":4966:4967   */\n  0x02\n    /* \"#utility.yul\":4958:4964   */\n  dup9\n    /* \"#utility.yul\":4954:4968   */\n  mul\n    /* \"#utility.yul\":4950:4972   */\n  add\n    /* \"#utility.yul\":4944:4948   */\n  dup9\n    /* \"#utility.yul\":4937:4973   */\n  sstore\n    /* \"#utility.yul\":4372:4983   */\n  pop\n  pop\n  pop\n    /* \"#utility.yul\":4335:5222   */\ntag_95:\n  pop\n    /* \"#utility.yul\":3925:5228   */\n  pop\n  pop\n  pop\n    /* \"#utility.yul\":3833:5228   */\n  pop\n  pop\n  jump\t// out\n    /* \"contracts/hangman.sol\":64:13317  contract Hangman {... */\ntag_4:\n  dataSize(sub_0)\n  dup1\n  dataOffset(sub_0)\n  0x00\n  codecopy\n  0x00\n  return\nstop\n\nsub_0: assembly {\n        /* \"contracts/hangman.sol\":64:13317  contract Hangman {... */\n      mstore(0x40, 0x80)\n      callvalue\n      dup1\n      iszero\n      tag_1\n      jumpi\n      0x00\n      dup1\n      revert\n    tag_1:\n      pop\n      jumpi(tag_2, lt(calldatasize, 0x04))\n      shr(0xe0, calldataload(0x00))\n      dup1\n      0xa8010c4e\n      gt\n      tag_16\n      jumpi\n      dup1\n      0xc22a95f1\n      gt\n      tag_17\n      jumpi\n      dup1\n      0xc22a95f1\n      eq\n      tag_12\n      jumpi\n      dup1\n      0xd19e39f0\n      eq\n      tag_13\n      jumpi\n      dup1\n      0xd5c68ab2\n      eq\n      tag_14\n      jumpi\n      dup1\n      0xe565c835\n      eq\n      tag_15\n      jumpi\n      jump(tag_2)\n    tag_17:\n      dup1\n      0xa8010c4e\n      eq\n      tag_9\n      jumpi\n      dup1\n      0xaa4103e2\n      eq\n      tag_10\n      jumpi\n      dup1\n      0xb3914f32\n      eq\n      tag_11\n      jumpi\n      jump(tag_2)\n    tag_16:\n      dup1\n      0x0f1ad663\n      eq\n      tag_3\n      jumpi\n      dup1\n      0x3d536a2e\n      eq\n      tag_4\n      jumpi\n      dup1\n      0x4411b3eb\n      eq\n      tag_5\n      jumpi\n      dup1\n      0x4fd01913\n      eq\n      tag_6\n      jumpi\n      dup1\n      0x684d4678\n      eq\n      tag_7\n      jumpi\n      dup1\n      0xa438d208\n      eq\n      tag_8\n      jumpi\n    tag_2:\n      0x00\n      dup1\n      revert\n        /* \"contracts/hangman.sol\":450:527  string[] public WORDS = [\"Apple\", \"Banana\", \"Cherry\", \"Durian\", \"Elderberry\"] */\n    tag_3:\n      tag_18\n      0x04\n      dup1\n      calldatasize\n      sub\n      dup2\n      add\n      swap1\n      tag_19\n      swap2\n      swap1\n      tag_20\n      jump\t// in\n    tag_19:\n      tag_21\n      jump\t// in\n    tag_18:\n      mload(0x40)\n      tag_22\n      swap2\n      swap1\n      tag_23\n      jump\t// in\n    tag_22:\n      mload(0x40)\n      dup1\n      swap2\n      sub\n      swap1\n      return\n        /* \"contracts/hangman.sol\":6213:6670  function joinGame(string memory _gameID) external gameExists(_gameID) {... */\n    tag_4:\n      tag_24\n      0x04\n      dup1\n      calldatasize\n      sub\n      dup2\n      add\n      swap1\n      tag_25\n      swap2\n      swap1\n      tag_26\n      jump\t// in\n    tag_25:\n      tag_27\n      jump\t// in\n    tag_24:\n      stop\n        /* \"contracts/hangman.sol\":202:239  uint8 public constant MAX_PLAYERS = 5 */\n    tag_5:\n      tag_28\n      tag_29\n      jump\t// in\n    tag_28:\n      mload(0x40)\n      tag_30\n      swap2\n      swap1\n      tag_31\n      jump\t// in\n    tag_30:\n      mload(0x40)\n      dup1\n      swap2\n      sub\n      swap1\n      return\n        /* \"contracts/hangman.sol\":245:280  uint8 public constant MAX_GAMES = 5 */\n    tag_6:\n      tag_32\n      tag_33\n      jump\t// in\n    tag_32:\n      mload(0x40)\n      tag_34\n      swap2\n      swap1\n      tag_31\n      jump\t// in\n    tag_34:\n      mload(0x40)\n      dup1\n      swap2\n      sub\n      swap1\n      return\n        /* \"contracts/hangman.sol\":286:323  uint8 public constant MAX_GUESSES = 6 */\n    tag_7:\n      tag_35\n      tag_36\n      jump\t// in\n    tag_35:\n      mload(0x40)\n      tag_37\n      swap2\n      swap1\n      tag_31\n      jump\t// in\n    tag_37:\n      mload(0x40)\n      dup1\n      swap2\n      sub\n      swap1\n      return\n        /* \"contracts/hangman.sol\":392:443  uint256 public constant VOTING_DURATION = 5 minutes */\n    tag_8:\n      tag_38\n      tag_39\n      jump\t// in\n    tag_38:\n      mload(0x40)\n      tag_40\n      swap2\n      swap1\n      tag_41\n      jump\t// in\n    tag_40:\n      mload(0x40)\n      dup1\n      swap2\n      sub\n      swap1\n      return\n        /* \"contracts/hangman.sol\":2865:2909  mapping(string => uint8) public getGameIndex */\n    tag_9:\n      tag_42\n      0x04\n      dup1\n      calldatasize\n      sub\n      dup2\n      add\n      swap1\n      tag_43\n      swap2\n      swap1\n      tag_26\n      jump\t// in\n    tag_43:\n      tag_44\n      jump\t// in\n    tag_42:\n      mload(0x40)\n      tag_45\n      swap2\n      swap1\n      tag_31\n      jump\t// in\n    tag_45:\n      mload(0x40)\n      dup1\n      swap2\n      sub\n      swap1\n      return\n        /* \"contracts/hangman.sol\":329:386  uint256 public constant INACTIVITY_THRESHOLD = 15 minutes */\n    tag_10:\n      tag_46\n      tag_47\n      jump\t// in\n    tag_46:\n      mload(0x40)\n      tag_48\n      swap2\n      swap1\n      tag_41\n      jump\t// in\n    tag_48:\n      mload(0x40)\n      dup1\n      swap2\n      sub\n      swap1\n      return\n        /* \"contracts/hangman.sol\":7344:8519  function voteForLetter(string memory _gameID, string memory _vote) external gameExists(_gameID) isPlayer(_gameID) {... */\n    tag_11:\n      tag_49\n      0x04\n      dup1\n      calldatasize\n      sub\n      dup2\n      add\n      swap1\n      tag_50\n      swap2\n      swap1\n      tag_51\n      jump\t// in\n    tag_50:\n      tag_52\n      jump\t// in\n    tag_49:\n      stop\n        /* \"contracts/hangman.sol\":6799:7181  function leaveGame(string memory _gameID) external gameExists(_gameID) isPlayer(_gameID) {... */\n    tag_12:\n      tag_53\n      0x04\n      dup1\n      calldatasize\n      sub\n      dup2\n      add\n      swap1\n      tag_54\n      swap2\n      swap1\n      tag_26\n      jump\t// in\n    tag_54:\n      tag_55\n      jump\t// in\n    tag_53:\n      stop\n        /* \"contracts/hangman.sol\":8650:9084  function endVote(string memory _gameID) external gameExists(_gameID) {... */\n    tag_13:\n      tag_56\n      0x04\n      dup1\n      calldatasize\n      sub\n      dup2\n      add\n      swap1\n      tag_57\n      swap2\n      swap1\n      tag_26\n      jump\t// in\n    tag_57:\n      tag_58\n      jump\t// in\n    tag_56:\n      stop\n        /* \"contracts/hangman.sol\":5770:6108  function deleteGame(string memory _gameID) external gameExists(_gameID) {... */\n    tag_14:\n      tag_59\n      0x04\n      dup1\n      calldatasize\n      sub\n      dup2\n      add\n      swap1\n      tag_60\n      swap2\n      swap1\n      tag_26\n      jump\t// in\n    tag_60:\n      tag_61\n      jump\t// in\n    tag_59:\n      stop\n        /* \"contracts/hangman.sol\":4456:5660  function createGame(... */\n    tag_15:\n      tag_62\n      0x04\n      dup1\n      calldatasize\n      sub\n      dup2\n      add\n      swap1\n      tag_63\n      swap2\n      swap1\n      tag_64\n      jump\t// in\n    tag_63:\n      tag_65\n      jump\t// in\n    tag_62:\n      stop\n        /* \"contracts/hangman.sol\":450:527  string[] public WORDS = [\"Apple\", \"Banana\", \"Cherry\", \"Durian\", \"Elderberry\"] */\n    tag_21:\n      0x00\n      dup2\n      dup2\n      sload\n      dup2\n      lt\n      tag_66\n      jumpi\n      0x00\n      dup1\n      revert\n    tag_66:\n      swap1\n      0x00\n      mstore\n      keccak256(0x00, 0x20)\n      add\n      0x00\n      swap2\n      pop\n      swap1\n      pop\n      dup1\n      sload\n      tag_68\n      swap1\n      tag_69\n      jump\t// in\n    tag_68:\n      dup1\n      0x1f\n      add\n      0x20\n      dup1\n      swap2\n      div\n      mul\n      0x20\n      add\n      mload(0x40)\n      swap1\n      dup2\n      add\n      0x40\n      mstore\n      dup1\n      swap3\n      swap2\n      swap1\n      dup2\n      dup2\n      mstore\n      0x20\n      add\n      dup3\n      dup1\n      sload\n      tag_70\n      swap1\n      tag_69\n      jump\t// in\n    tag_70:\n      dup1\n      iszero\n      tag_71\n      jumpi\n      dup1\n      0x1f\n      lt\n      tag_72\n      jumpi\n      0x0100\n      dup1\n      dup4\n      sload\n      div\n      mul\n      dup4\n      mstore\n      swap2\n      0x20\n      add\n      swap2\n      jump(tag_71)\n    tag_72:\n      dup3\n      add\n      swap2\n      swap1\n      0x00\n      mstore\n      keccak256(0x00, 0x20)\n      swap1\n    tag_73:\n      dup2\n      sload\n      dup2\n      mstore\n      swap1\n      0x01\n      add\n      swap1\n      0x20\n      add\n      dup1\n      dup4\n      gt\n      tag_73\n      jumpi\n      dup3\n      swap1\n      sub\n      0x1f\n      and\n      dup3\n      add\n      swap2\n    tag_71:\n      pop\n      pop\n      pop\n      pop\n      pop\n      dup2\n      jump\t// out\n        /* \"contracts/hangman.sol\":6213:6670  function joinGame(string memory _gameID) external gameExists(_gameID) {... */\n    tag_27:\n        /* \"contracts/hangman.sol\":6274:6281  _gameID */\n      dup1\n        /* \"contracts/hangman.sol\":3129:3130  0 */\n      0x00\n        /* \"contracts/hangman.sol\":3105:3117  getGameIndex */\n      0x5b\n        /* \"contracts/hangman.sol\":3118:3124  gameID */\n      dup3\n        /* \"contracts/hangman.sol\":3105:3125  getGameIndex[gameID] */\n      mload(0x40)\n      tag_75\n      swap2\n      swap1\n      tag_76\n      jump\t// in\n    tag_75:\n      swap1\n      dup2\n      mstore\n      0x20\n      add\n      mload(0x40)\n      dup1\n      swap2\n      sub\n      swap1\n      keccak256\n      0x00\n      swap1\n      sload\n      swap1\n      0x0100\n      exp\n      swap1\n      div\n      0xff\n      and\n        /* \"contracts/hangman.sol\":3105:3130  getGameIndex[gameID] != 0 */\n      0xff\n      and\n      sub\n        /* \"contracts/hangman.sol\":3084:3175  require(... */\n      tag_77\n      jumpi\n      mload(0x40)\n      0x08c379a000000000000000000000000000000000000000000000000000000000\n      dup2\n      mstore\n      0x04\n      add\n      tag_78\n      swap1\n      tag_79\n      jump\t// in\n    tag_78:\n      mload(0x40)\n      dup1\n      swap2\n      sub\n      swap1\n      revert\n    tag_77:\n        /* \"contracts/hangman.sol\":6293:6310  Game storage game */\n      0x00\n        /* \"contracts/hangman.sol\":6313:6318  games */\n      0x01\n        /* \"contracts/hangman.sol\":6343:6344  1 */\n      dup1\n        /* \"contracts/hangman.sol\":6319:6331  getGameIndex */\n      0x5b\n        /* \"contracts/hangman.sol\":6332:6339  _gameID */\n      dup6\n        /* \"contracts/hangman.sol\":6319:6340  getGameIndex[_gameID] */\n      mload(0x40)\n      tag_81\n      swap2\n      swap1\n      tag_76\n      jump\t// in\n    tag_81:\n      swap1\n      dup2\n      mstore\n      0x20\n      add\n      mload(0x40)\n      dup1\n      swap2\n      sub\n      swap1\n      keccak256\n      0x00\n      swap1\n      sload\n      swap1\n      0x0100\n      exp\n      swap1\n      div\n      0xff\n      and\n        /* \"contracts/hangman.sol\":6319:6344  getGameIndex[_gameID] - 1 */\n      tag_82\n      swap2\n      swap1\n      tag_83\n      jump\t// in\n    tag_82:\n        /* \"contracts/hangman.sol\":6313:6345  games[getGameIndex[_gameID] - 1] */\n      0xff\n      and\n      0x05\n      dup2\n      lt\n      tag_84\n      jumpi\n      tag_85\n      tag_86\n      jump\t// in\n    tag_85:\n    tag_84:\n      0x12\n      mul\n      add\n        /* \"contracts/hangman.sol\":6293:6345  Game storage game = games[getGameIndex[_gameID] - 1] */\n      swap1\n      pop\n        /* \"contracts/hangman.sol\":6398:6402  game */\n      dup1\n        /* \"contracts/hangman.sol\":6398:6413  game.maxPlayers */\n      0x01\n      add\n      0x14\n      swap1\n      sload\n      swap1\n      0x0100\n      exp\n      swap1\n      div\n      0xff\n      and\n        /* \"contracts/hangman.sol\":6376:6413  game.currentPlayers < game.maxPlayers */\n      0xff\n      and\n        /* \"contracts/hangman.sol\":6376:6380  game */\n      dup2\n        /* \"contracts/hangman.sol\":6376:6395  game.currentPlayers */\n      0x01\n      add\n      0x15\n      swap1\n      sload\n      swap1\n      0x0100\n      exp\n      swap1\n      div\n      0xff\n      and\n        /* \"contracts/hangman.sol\":6376:6413  game.currentPlayers < game.maxPlayers */\n      0xff\n      and\n      lt\n        /* \"contracts/hangman.sol\":6355:6470  require(... */\n      tag_88\n      jumpi\n      mload(0x40)\n      0x08c379a000000000000000000000000000000000000000000000000000000000\n      dup2\n      mstore\n      0x04\n      add\n      tag_89\n      swap1\n      tag_90\n      jump\t// in\n    tag_89:\n      mload(0x40)\n      dup1\n      swap2\n      sub\n      swap1\n      revert\n    tag_88:\n        /* \"contracts/hangman.sol\":6502:6506  game */\n      dup1\n        /* \"contracts/hangman.sol\":6502:6515  game.isPlayer */\n      0x02\n      add\n        /* \"contracts/hangman.sol\":6502:6527  game.isPlayer[msg.sender] */\n      0x00\n        /* \"contracts/hangman.sol\":6516:6526  msg.sender */\n      caller\n        /* \"contracts/hangman.sol\":6502:6527  game.isPlayer[msg.sender] */\n      0xffffffffffffffffffffffffffffffffffffffff\n      and\n      0xffffffffffffffffffffffffffffffffffffffff\n      and\n      dup2\n      mstore\n      0x20\n      add\n      swap1\n      dup2\n      mstore\n      0x20\n      add\n      0x00\n      keccak256\n      0x00\n      swap1\n      sload\n      swap1\n      0x0100\n      exp\n      swap1\n      div\n      0xff\n      and\n        /* \"contracts/hangman.sol\":6501:6527  !game.isPlayer[msg.sender] */\n      iszero\n        /* \"contracts/hangman.sol\":6480:6572  require(... */\n      tag_91\n      jumpi\n      mload(0x40)\n      0x08c379a000000000000000000000000000000000000000000000000000000000\n      dup2\n      mstore\n      0x04\n      add\n      tag_92\n      swap1\n      tag_93\n      jump\t// in\n    tag_92:\n      mload(0x40)\n      dup1\n      swap2\n      sub\n      swap1\n      revert\n    tag_91:\n        /* \"contracts/hangman.sol\":6611:6615  true */\n      0x01\n        /* \"contracts/hangman.sol\":6583:6587  game */\n      dup2\n        /* \"contracts/hangman.sol\":6583:6596  game.isPlayer */\n      0x02\n      add\n        /* \"contracts/hangman.sol\":6583:6608  game.isPlayer[msg.sender] */\n      0x00\n        /* \"contracts/hangman.sol\":6597:6607  msg.sender */\n      caller\n        /* \"contracts/hangman.sol\":6583:6608  game.isPlayer[msg.sender] */\n      0xffffffffffffffffffffffffffffffffffffffff\n      and\n      0xffffffffffffffffffffffffffffffffffffffff\n      and\n      dup2\n      mstore\n      0x20\n      add\n      swap1\n      dup2\n      mstore\n      0x20\n      add\n      0x00\n      keccak256\n      0x00\n        /* \"contracts/hangman.sol\":6583:6615  game.isPlayer[msg.sender] = true */\n      0x0100\n      exp\n      dup2\n      sload\n      dup2\n      0xff\n      mul\n      not\n      and\n      swap1\n      dup4\n      iszero\n      iszero\n      mul\n      or\n      swap1\n      sstore\n      pop\n        /* \"contracts/hangman.sol\":6652:6662  msg.sender */\n      caller\n        /* \"contracts/hangman.sol\":6630:6663  PlayerJoined(_gameID, msg.sender) */\n      0xffffffffffffffffffffffffffffffffffffffff\n      and\n        /* \"contracts/hangman.sol\":6643:6650  _gameID */\n      dup4\n        /* \"contracts/hangman.sol\":6630:6663  PlayerJoined(_gameID, msg.sender) */\n      mload(0x40)\n      tag_94\n      swap2\n      swap1\n      tag_76\n      jump\t// in\n    tag_94:\n      mload(0x40)\n      dup1\n      swap2\n      sub\n      swap1\n      keccak256\n      0x6426ed08b4816b27e58d721b4ff6fb44e6696b9d5ca257dcbd4b0576eb4dc539\n      mload(0x40)\n      mload(0x40)\n      dup1\n      swap2\n      sub\n      swap1\n      log3\n        /* \"contracts/hangman.sol\":6283:6670  {... */\n      pop\n        /* \"contracts/hangman.sol\":6213:6670  function joinGame(string memory _gameID) external gameExists(_gameID) {... */\n      pop\n      pop\n      jump\t// out\n        /* \"contracts/hangman.sol\":202:239  uint8 public constant MAX_PLAYERS = 5 */\n    tag_29:\n        /* \"contracts/hangman.sol\":238:239  5 */\n      0x05\n        /* \"contracts/hangman.sol\":202:239  uint8 public constant MAX_PLAYERS = 5 */\n      dup2\n      jump\t// out\n        /* \"contracts/hangman.sol\":245:280  uint8 public constant MAX_GAMES = 5 */\n    tag_33:\n        /* \"contracts/hangman.sol\":279:280  5 */\n      0x05\n        /* \"contracts/hangman.sol\":245:280  uint8 public constant MAX_GAMES = 5 */\n      dup2\n      jump\t// out\n        /* \"contracts/hangman.sol\":286:323  uint8 public constant MAX_GUESSES = 6 */\n    tag_36:\n        /* \"contracts/hangman.sol\":322:323  6 */\n      0x06\n        /* \"contracts/hangman.sol\":286:323  uint8 public constant MAX_GUESSES = 6 */\n      dup2\n      jump\t// out\n        /* \"contracts/hangman.sol\":392:443  uint256 public constant VOTING_DURATION = 5 minutes */\n    tag_39:\n        /* \"contracts/hangman.sol\":434:443  5 minutes */\n      0x012c\n        /* \"contracts/hangman.sol\":392:443  uint256 public constant VOTING_DURATION = 5 minutes */\n      dup2\n      jump\t// out\n        /* \"contracts/hangman.sol\":2865:2909  mapping(string => uint8) public getGameIndex */\n    tag_44:\n      0x5b\n      dup2\n      dup1\n      mload\n      0x20\n      dup2\n      add\n      dup3\n      add\n      dup1\n      mload\n      dup5\n      dup3\n      mstore\n      0x20\n      dup4\n      add\n      0x20\n      dup6\n      add\n      keccak256\n      dup2\n      dup4\n      mstore\n      dup1\n      swap6\n      pop\n      pop\n      pop\n      pop\n      pop\n      pop\n      0x00\n      swap2\n      pop\n      sload\n      swap1\n      0x0100\n      exp\n      swap1\n      div\n      0xff\n      and\n      dup2\n      jump\t// out\n        /* \"contracts/hangman.sol\":329:386  uint256 public constant INACTIVITY_THRESHOLD = 15 minutes */\n    tag_47:\n        /* \"contracts/hangman.sol\":376:386  15 minutes */\n      0x0384\n        /* \"contracts/hangman.sol\":329:386  uint256 public constant INACTIVITY_THRESHOLD = 15 minutes */\n      dup2\n      jump\t// out\n        /* \"contracts/hangman.sol\":7344:8519  function voteForLetter(string memory _gameID, string memory _vote) external gameExists(_gameID) isPlayer(_gameID) {... */\n    tag_52:\n        /* \"contracts/hangman.sol\":7431:7438  _gameID */\n      dup2\n        /* \"contracts/hangman.sol\":3129:3130  0 */\n      0x00\n        /* \"contracts/hangman.sol\":3105:3117  getGameIndex */\n      0x5b\n        /* \"contracts/hangman.sol\":3118:3124  gameID */\n      dup3\n        /* \"contracts/hangman.sol\":3105:3125  getGameIndex[gameID] */\n      mload(0x40)\n      tag_96\n      swap2\n      swap1\n      tag_76\n      jump\t// in\n    tag_96:\n      swap1\n      dup2\n      mstore\n      0x20\n      add\n      mload(0x40)\n      dup1\n      swap2\n      sub\n      swap1\n      keccak256\n      0x00\n      swap1\n      sload\n      swap1\n      0x0100\n      exp\n      swap1\n      div\n      0xff\n      and\n        /* \"contracts/hangman.sol\":3105:3130  getGameIndex[gameID] != 0 */\n      0xff\n      and\n      sub\n        /* \"contracts/hangman.sol\":3084:3175  require(... */\n      tag_97\n      jumpi\n      mload(0x40)\n      0x08c379a000000000000000000000000000000000000000000000000000000000\n      dup2\n      mstore\n      0x04\n      add\n      tag_98\n      swap1\n      tag_79\n      jump\t// in\n    tag_98:\n      mload(0x40)\n      dup1\n      swap2\n      sub\n      swap1\n      revert\n    tag_97:\n        /* \"contracts/hangman.sol\":7449:7456  _gameID */\n      dup3\n        /* \"contracts/hangman.sol\":3270:3275  games */\n      0x01\n        /* \"contracts/hangman.sol\":3299:3300  1 */\n      dup1\n        /* \"contracts/hangman.sol\":3276:3288  getGameIndex */\n      0x5b\n        /* \"contracts/hangman.sol\":3289:3295  gameID */\n      dup4\n        /* \"contracts/hangman.sol\":3276:3296  getGameIndex[gameID] */\n      mload(0x40)\n      tag_100\n      swap2\n      swap1\n      tag_76\n      jump\t// in\n    tag_100:\n      swap1\n      dup2\n      mstore\n      0x20\n      add\n      mload(0x40)\n      dup1\n      swap2\n      sub\n      swap1\n      keccak256\n      0x00\n      swap1\n      sload\n      swap1\n      0x0100\n      exp\n      swap1\n      div\n      0xff\n      and\n        /* \"contracts/hangman.sol\":3276:3300  getGameIndex[gameID] - 1 */\n      tag_101\n      swap2\n      swap1\n      tag_83\n      jump\t// in\n    tag_101:\n        /* \"contracts/hangman.sol\":3270:3301  games[getGameIndex[gameID] - 1] */\n      0xff\n      and\n      0x05\n      dup2\n      lt\n      tag_102\n      jumpi\n      tag_103\n      tag_86\n      jump\t// in\n    tag_103:\n    tag_102:\n      0x12\n      mul\n      add\n        /* \"contracts/hangman.sol\":3270:3310  games[getGameIndex[gameID] - 1].isPlayer */\n      0x02\n      add\n        /* \"contracts/hangman.sol\":3270:3322  games[getGameIndex[gameID] - 1].isPlayer[msg.sender] */\n      0x00\n        /* \"contracts/hangman.sol\":3311:3321  msg.sender */\n      caller\n        /* \"contracts/hangman.sol\":3270:3322  games[getGameIndex[gameID] - 1].isPlayer[msg.sender] */\n      0xffffffffffffffffffffffffffffffffffffffff\n      and\n      0xffffffffffffffffffffffffffffffffffffffff\n      and\n      dup2\n      mstore\n      0x20\n      add\n      swap1\n      dup2\n      mstore\n      0x20\n      add\n      0x00\n      keccak256\n      0x00\n      swap1\n      sload\n      swap1\n      0x0100\n      exp\n      swap1\n      div\n      0xff\n      and\n        /* \"contracts/hangman.sol\":3249:3381  require(... */\n      tag_105\n      jumpi\n      mload(0x40)\n      0x08c379a000000000000000000000000000000000000000000000000000000000\n      dup2\n      mstore\n      0x04\n      add\n      tag_106\n      swap1\n      tag_107\n      jump\t// in\n    tag_106:\n      mload(0x40)\n      dup1\n      swap2\n      sub\n      swap1\n      revert\n    tag_105:\n        /* \"contracts/hangman.sol\":7468:7481  bytes1 letter */\n      0x00\n        /* \"contracts/hangman.sol\":7490:7495  _vote */\n      dup4\n        /* \"contracts/hangman.sol\":7497:7498  0 */\n      0x00\n        /* \"contracts/hangman.sol\":7484:7499  bytes(_vote)[0] */\n      dup2\n      mload\n      dup2\n      lt\n      tag_109\n      jumpi\n      tag_110\n      tag_86\n      jump\t// in\n    tag_110:\n    tag_109:\n      0x20\n      add\n      add\n      mload\n      0xf8\n      shr\n      0xf8\n      shl\n        /* \"contracts/hangman.sol\":7468:7499  bytes1 letter = bytes(_vote)[0] */\n      swap1\n      pop\n        /* \"contracts/hangman.sol\":7509:7526  Game storage game */\n      0x00\n        /* \"contracts/hangman.sol\":7529:7534  games */\n      0x01\n        /* \"contracts/hangman.sol\":7559:7560  1 */\n      dup1\n        /* \"contracts/hangman.sol\":7535:7547  getGameIndex */\n      0x5b\n        /* \"contracts/hangman.sol\":7548:7555  _gameID */\n      dup9\n        /* \"contracts/hangman.sol\":7535:7556  getGameIndex[_gameID] */\n      mload(0x40)\n      tag_111\n      swap2\n      swap1\n      tag_76\n      jump\t// in\n    tag_111:\n      swap1\n      dup2\n      mstore\n      0x20\n      add\n      mload(0x40)\n      dup1\n      swap2\n      sub\n      swap1\n      keccak256\n      0x00\n      swap1\n      sload\n      swap1\n      0x0100\n      exp\n      swap1\n      div\n      0xff\n      and\n        /* \"contracts/hangman.sol\":7535:7560  getGameIndex[_gameID] - 1 */\n      tag_112\n      swap2\n      swap1\n      tag_83\n      jump\t// in\n    tag_112:\n        /* \"contracts/hangman.sol\":7529:7561  games[getGameIndex[_gameID] - 1] */\n      0xff\n      and\n      0x05\n      dup2\n      lt\n      tag_113\n      jumpi\n      tag_114\n      tag_86\n      jump\t// in\n    tag_114:\n    tag_113:\n      0x12\n      mul\n      add\n        /* \"contracts/hangman.sol\":7509:7561  Game storage game = games[getGameIndex[_gameID] - 1] */\n      swap1\n      pop\n        /* \"contracts/hangman.sol\":7571:7588  Vote storage vote */\n      0x00\n        /* \"contracts/hangman.sol\":7591:7595  game */\n      dup2\n        /* \"contracts/hangman.sol\":7591:7600  game.vote */\n      0x08\n      add\n        /* \"contracts/hangman.sol\":7571:7600  Vote storage vote = game.vote */\n      swap1\n      pop\n        /* \"contracts/hangman.sol\":7663:7664  0 */\n      0x00\n        /* \"contracts/hangman.sol\":7631:7664  vote.playerVotes[msg.sender] == 0 */\n      0xf8\n      shl\n        /* \"contracts/hangman.sol\":7631:7635  vote */\n      dup2\n        /* \"contracts/hangman.sol\":7631:7647  vote.playerVotes */\n      0x08\n      add\n        /* \"contracts/hangman.sol\":7631:7659  vote.playerVotes[msg.sender] */\n      0x00\n        /* \"contracts/hangman.sol\":7648:7658  msg.sender */\n      caller\n        /* \"contracts/hangman.sol\":7631:7659  vote.playerVotes[msg.sender] */\n      0xffffffffffffffffffffffffffffffffffffffff\n      and\n      0xffffffffffffffffffffffffffffffffffffffff\n      and\n      dup2\n      mstore\n      0x20\n      add\n      swap1\n      dup2\n      mstore\n      0x20\n      add\n      0x00\n      keccak256\n      0x00\n      swap1\n      sload\n      swap1\n      0x0100\n      exp\n      swap1\n      div\n      0xf8\n      shl\n        /* \"contracts/hangman.sol\":7631:7664  vote.playerVotes[msg.sender] == 0 */\n      not(0xffffffffffffffffffffffffffffffffffffffffffffffffffffffffffffff)\n      and\n      eq\n        /* \"contracts/hangman.sol\":7610:7707  require(... */\n      tag_116\n      jumpi\n      mload(0x40)\n      0x08c379a000000000000000000000000000000000000000000000000000000000\n      dup2\n      mstore\n      0x04\n      add\n      tag_117\n      swap1\n      tag_118\n      jump\t// in\n    tag_117:\n      mload(0x40)\n      dup1\n      swap2\n      sub\n      swap1\n      revert\n    tag_116:\n        /* \"contracts/hangman.sol\":7717:7731  bool uppercase */\n      0x00\n        /* \"contracts/hangman.sol\":7744:7755  bytes1(\"A\") */\n      0x4100000000000000000000000000000000000000000000000000000000000000\n        /* \"contracts/hangman.sol\":7734:7755  letter >= bytes1(\"A\") */\n      not(0xffffffffffffffffffffffffffffffffffffffffffffffffffffffffffffff)\n      and\n        /* \"contracts/hangman.sol\":7734:7740  letter */\n      dup5\n        /* \"contracts/hangman.sol\":7734:7755  letter >= bytes1(\"A\") */\n      not(0xffffffffffffffffffffffffffffffffffffffffffffffffffffffffffffff)\n      and\n      lt\n      iszero\n        /* \"contracts/hangman.sol\":7734:7780  letter >= bytes1(\"A\") && letter >= bytes1(\"Z\") */\n      dup1\n      iszero\n      tag_119\n      jumpi\n      pop\n        /* \"contracts/hangman.sol\":7769:7780  bytes1(\"Z\") */\n      0x5a00000000000000000000000000000000000000000000000000000000000000\n        /* \"contracts/hangman.sol\":7759:7780  letter >= bytes1(\"Z\") */\n      not(0xffffffffffffffffffffffffffffffffffffffffffffffffffffffffffffff)\n      and\n        /* \"contracts/hangman.sol\":7759:7765  letter */\n      dup5\n        /* \"contracts/hangman.sol\":7759:7780  letter >= bytes1(\"Z\") */\n      not(0xffffffffffffffffffffffffffffffffffffffffffffffffffffffffffffff)\n      and\n      lt\n      iszero\n        /* \"contracts/hangman.sol\":7734:7780  letter >= bytes1(\"A\") && letter >= bytes1(\"Z\") */\n    tag_119:\n        /* \"contracts/hangman.sol\":7717:7780  bool uppercase = letter >= bytes1(\"A\") && letter >= bytes1(\"Z\") */\n      swap1\n      pop\n        /* \"contracts/hangman.sol\":7811:7820  uppercase */\n      dup1\n        /* \"contracts/hangman.sol\":7811:7872  uppercase || (letter >= bytes1(\"a\") && letter >= bytes1(\"z\")) */\n      dup1\n      tag_120\n      jumpi\n      pop\n        /* \"contracts/hangman.sol\":7835:7846  bytes1(\"a\") */\n      0x6100000000000000000000000000000000000000000000000000000000000000\n        /* \"contracts/hangman.sol\":7825:7846  letter >= bytes1(\"a\") */\n      not(0xffffffffffffffffffffffffffffffffffffffffffffffffffffffffffffff)\n      and\n        /* \"contracts/hangman.sol\":7825:7831  letter */\n      dup5\n        /* \"contracts/hangman.sol\":7825:7846  letter >= bytes1(\"a\") */\n      not(0xffffffffffffffffffffffffffffffffffffffffffffffffffffffffffffff)\n      and\n      lt\n      iszero\n        /* \"contracts/hangman.sol\":7825:7871  letter >= bytes1(\"a\") && letter >= bytes1(\"z\") */\n      dup1\n      iszero\n      tag_121\n      jumpi\n      pop\n        /* \"contracts/hangman.sol\":7860:7871  bytes1(\"z\") */\n      0x7a00000000000000000000000000000000000000000000000000000000000000\n        /* \"contracts/hangman.sol\":7850:7871  letter >= bytes1(\"z\") */\n      not(0xffffffffffffffffffffffffffffffffffffffffffffffffffffffffffffff)\n      and\n        /* \"contracts/hangman.sol\":7850:7856  letter */\n      dup5\n        /* \"contracts/hangman.sol\":7850:7871  letter >= bytes1(\"z\") */\n      not(0xffffffffffffffffffffffffffffffffffffffffffffffffffffffffffffff)\n      and\n      lt\n      iszero\n        /* \"contracts/hangman.sol\":7825:7871  letter >= bytes1(\"a\") && letter >= bytes1(\"z\") */\n    tag_121:\n        /* \"contracts/hangman.sol\":7811:7872  uppercase || (letter >= bytes1(\"a\") && letter >= bytes1(\"z\")) */\n    tag_120:\n        /* \"contracts/hangman.sol\":7790:7923  require(... */\n      tag_122\n      jumpi\n      mload(0x40)\n      0x08c379a000000000000000000000000000000000000000000000000000000000\n      dup2\n      mstore\n      0x04\n      add\n      tag_123\n      swap1\n      tag_124\n      jump\t// in\n    tag_123:\n      mload(0x40)\n      dup1\n      swap2\n      sub\n      swap1\n      revert\n    tag_122:\n        /* \"contracts/hangman.sol\":7975:7984  uppercase */\n      dup1\n        /* \"contracts/hangman.sol\":7971:8046  if (uppercase) {... */\n      iszero\n      tag_125\n      jumpi\n        /* \"contracts/hangman.sol\":8032:8034  32 */\n      0x20\n        /* \"contracts/hangman.sol\":8022:8028  letter */\n      dup5\n        /* \"contracts/hangman.sol\":8016:8029  uint8(letter) */\n      0xf8\n      shr\n        /* \"contracts/hangman.sol\":8016:8034  uint8(letter) - 32 */\n      tag_126\n      swap2\n      swap1\n      tag_83\n      jump\t// in\n    tag_126:\n        /* \"contracts/hangman.sol\":8009:8035  bytes1(uint8(letter) - 32) */\n      0xf8\n      shl\n        /* \"contracts/hangman.sol\":8000:8035  letter = bytes1(uint8(letter) - 32) */\n      swap4\n      pop\n        /* \"contracts/hangman.sol\":7971:8046  if (uppercase) {... */\n    tag_125:\n        /* \"contracts/hangman.sol\":8077:8081  game */\n      dup3\n        /* \"contracts/hangman.sol\":8077:8096  game.guessedLetters */\n      0x06\n      add\n        /* \"contracts/hangman.sol\":8077:8104  game.guessedLetters[letter] */\n      0x00\n        /* \"contracts/hangman.sol\":8097:8103  letter */\n      dup6\n        /* \"contracts/hangman.sol\":8077:8104  game.guessedLetters[letter] */\n      not(0xffffffffffffffffffffffffffffffffffffffffffffffffffffffffffffff)\n      and\n      not(0xffffffffffffffffffffffffffffffffffffffffffffffffffffffffffffff)\n      and\n      dup2\n      mstore\n      0x20\n      add\n      swap1\n      dup2\n      mstore\n      0x20\n      add\n      0x00\n      keccak256\n      0x00\n      swap1\n      sload\n      swap1\n      0x0100\n      exp\n      swap1\n      div\n      0xff\n      and\n        /* \"contracts/hangman.sol\":8076:8104  !game.guessedLetters[letter] */\n      iszero\n        /* \"contracts/hangman.sol\":8055:8161  require(... */\n      tag_127\n      jumpi\n      mload(0x40)\n      0x08c379a000000000000000000000000000000000000000000000000000000000\n      dup2\n      mstore\n      0x04\n      add\n      tag_128\n      swap1\n      tag_129\n      jump\t// in\n    tag_128:\n      mload(0x40)\n      dup1\n      swap2\n      sub\n      swap1\n      revert\n    tag_127:\n        /* \"contracts/hangman.sol\":8172:8224  _registerVote(game.gameID, vote, msg.sender, letter) */\n      tag_130\n        /* \"contracts/hangman.sol\":8186:8190  game */\n      dup4\n        /* \"contracts/hangman.sol\":8186:8197  game.gameID */\n      0x00\n      add\n        /* \"contracts/hangman.sol\":8199:8203  vote */\n      dup4\n        /* \"contracts/hangman.sol\":8205:8215  msg.sender */\n      caller\n        /* \"contracts/hangman.sol\":8217:8223  letter */\n      dup8\n        /* \"contracts/hangman.sol\":8172:8185  _registerVote */\n      tag_131\n        /* \"contracts/hangman.sol\":8172:8224  _registerVote(game.gameID, vote, msg.sender, letter) */\n      jump\t// in\n    tag_130:\n        /* \"contracts/hangman.sol\":8260:8275  block.timestamp */\n      timestamp\n        /* \"contracts/hangman.sol\":8233:8237  game */\n      dup4\n        /* \"contracts/hangman.sol\":8233:8257  game.lastActionTimestamp */\n      0x07\n      add\n        /* \"contracts/hangman.sol\":8233:8275  game.lastActionTimestamp = block.timestamp */\n      dup2\n      swap1\n      sstore\n      pop\n        /* \"contracts/hangman.sol\":434:443  5 minutes */\n      0x012c\n        /* \"contracts/hangman.sol\":8378:8382  vote */\n      dup3\n        /* \"contracts/hangman.sol\":8378:8401  vote.voteStartTimestamp */\n      0x01\n      add\n      sload\n        /* \"contracts/hangman.sol\":8360:8375  block.timestamp */\n      timestamp\n        /* \"contracts/hangman.sol\":8360:8401  block.timestamp - vote.voteStartTimestamp */\n      tag_132\n      swap2\n      swap1\n      tag_133\n      jump\t// in\n    tag_132:\n        /* \"contracts/hangman.sol\":8360:8419  block.timestamp - vote.voteStartTimestamp > VOTING_DURATION */\n      gt\n        /* \"contracts/hangman.sol\":8360:8472  block.timestamp - vote.voteStartTimestamp > VOTING_DURATION ||... */\n      dup1\n      tag_134\n      jumpi\n      pop\n        /* \"contracts/hangman.sol\":8453:8457  game */\n      dup3\n        /* \"contracts/hangman.sol\":8453:8472  game.currentPlayers */\n      0x01\n      add\n      0x15\n      swap1\n      sload\n      swap1\n      0x0100\n      exp\n      swap1\n      div\n      0xff\n      and\n        /* \"contracts/hangman.sol\":8435:8472  vote.voteCount == game.currentPlayers */\n      0xff\n      and\n        /* \"contracts/hangman.sol\":8435:8439  vote */\n      dup3\n        /* \"contracts/hangman.sol\":8435:8449  vote.voteCount */\n      0x02\n      add\n      0x00\n      swap1\n      sload\n      swap1\n      0x0100\n      exp\n      swap1\n      div\n      0xff\n      and\n        /* \"contracts/hangman.sol\":8435:8472  vote.voteCount == game.currentPlayers */\n      0xff\n      and\n      eq\n        /* \"contracts/hangman.sol\":8360:8472  block.timestamp - vote.voteStartTimestamp > VOTING_DURATION ||... */\n    tag_134:\n        /* \"contracts/hangman.sol\":8356:8513  if (block.timestamp - vote.voteStartTimestamp > VOTING_DURATION ||... */\n      iszero\n      tag_135\n      jumpi\n        /* \"contracts/hangman.sol\":8488:8502  _endVote(game) */\n      tag_136\n        /* \"contracts/hangman.sol\":8497:8501  game */\n      dup4\n        /* \"contracts/hangman.sol\":8488:8496  _endVote */\n      tag_137\n        /* \"contracts/hangman.sol\":8488:8502  _endVote(game) */\n      jump\t// in\n    tag_136:\n        /* \"contracts/hangman.sol\":8356:8513  if (block.timestamp - vote.voteStartTimestamp > VOTING_DURATION ||... */\n    tag_135:\n        /* \"contracts/hangman.sol\":7458:8519  {... */\n      pop\n      pop\n      pop\n      pop\n        /* \"contracts/hangman.sol\":3185:3186  _ */\n      pop\n        /* \"contracts/hangman.sol\":7344:8519  function voteForLetter(string memory _gameID, string memory _vote) external gameExists(_gameID) isPlayer(_gameID) {... */\n      pop\n      pop\n      pop\n      jump\t// out\n        /* \"contracts/hangman.sol\":6799:7181  function leaveGame(string memory _gameID) external gameExists(_gameID) isPlayer(_gameID) {... */\n    tag_55:\n        /* \"contracts/hangman.sol\":6861:6868  _gameID */\n      dup1\n        /* \"contracts/hangman.sol\":3129:3130  0 */\n      0x00\n        /* \"contracts/hangman.sol\":3105:3117  getGameIndex */\n      0x5b\n        /* \"contracts/hangman.sol\":3118:3124  gameID */\n      dup3\n        /* \"contracts/hangman.sol\":3105:3125  getGameIndex[gameID] */\n      mload(0x40)\n      tag_139\n      swap2\n      swap1\n      tag_76\n      jump\t// in\n    tag_139:\n      swap1\n      dup2\n      mstore\n      0x20\n      add\n      mload(0x40)\n      dup1\n      swap2\n      sub\n      swap1\n      keccak256\n      0x00\n      swap1\n      sload\n      swap1\n      0x0100\n      exp\n      swap1\n      div\n      0xff\n      and\n        /* \"contracts/hangman.sol\":3105:3130  getGameIndex[gameID] != 0 */\n      0xff\n      and\n      sub\n        /* \"contracts/hangman.sol\":3084:3175  require(... */\n      tag_140\n      jumpi\n      mload(0x40)\n      0x08c379a000000000000000000000000000000000000000000000000000000000\n      dup2\n      mstore\n      0x04\n      add\n      tag_141\n      swap1\n      tag_79\n      jump\t// in\n    tag_141:\n      mload(0x40)\n      dup1\n      swap2\n      sub\n      swap1\n      revert\n    tag_140:\n        /* \"contracts/hangman.sol\":6879:6886  _gameID */\n      dup2\n        /* \"contracts/hangman.sol\":3270:3275  games */\n      0x01\n        /* \"contracts/hangman.sol\":3299:3300  1 */\n      dup1\n        /* \"contracts/hangman.sol\":3276:3288  getGameIndex */\n      0x5b\n        /* \"contracts/hangman.sol\":3289:3295  gameID */\n      dup4\n        /* \"contracts/hangman.sol\":3276:3296  getGameIndex[gameID] */\n      mload(0x40)\n      tag_143\n      swap2\n      swap1\n      tag_76\n      jump\t// in\n    tag_143:\n      swap1\n      dup2\n      mstore\n      0x20\n      add\n      mload(0x40)\n      dup1\n      swap2\n      sub\n      swap1\n      keccak256\n      0x00\n      swap1\n      sload\n      swap1\n      0x0100\n      exp\n      swap1\n      div\n      0xff\n      and\n        /* \"contracts/hangman.sol\":3276:3300  getGameIndex[gameID] - 1 */\n      tag_144\n      swap2\n      swap1\n      tag_83\n      jump\t// in\n    tag_144:\n        /* \"contracts/hangman.sol\":3270:3301  games[getGameIndex[gameID] - 1] */\n      0xff\n      and\n      0x05\n      dup2\n      lt\n      tag_145\n      jumpi\n      tag_146\n      tag_86\n      jump\t// in\n    tag_146:\n    tag_145:\n      0x12\n      mul\n      add\n        /* \"contracts/hangman.sol\":3270:3310  games[getGameIndex[gameID] - 1].isPlayer */\n      0x02\n      add\n        /* \"contracts/hangman.sol\":3270:3322  games[getGameIndex[gameID] - 1].isPlayer[msg.sender] */\n      0x00\n        /* \"contracts/hangman.sol\":3311:3321  msg.sender */\n      caller\n        /* \"contracts/hangman.sol\":3270:3322  games[getGameIndex[gameID] - 1].isPlayer[msg.sender] */\n      0xffffffffffffffffffffffffffffffffffffffff\n      and\n      0xffffffffffffffffffffffffffffffffffffffff\n      and\n      dup2\n      mstore\n      0x20\n      add\n      swap1\n      dup2\n      mstore\n      0x20\n      add\n      0x00\n      keccak256\n      0x00\n      swap1\n      sload\n      swap1\n      0x0100\n      exp\n      swap1\n      div\n      0xff\n      and\n        /* \"contracts/hangman.sol\":3249:3381  require(... */\n      tag_148\n      jumpi\n      mload(0x40)\n      0x08c379a000000000000000000000000000000000000000000000000000000000\n      dup2\n      mstore\n      0x04\n      add\n      tag_149\n      swap1\n      tag_107\n      jump\t// in\n    tag_149:\n      mload(0x40)\n      dup1\n      swap2\n      sub\n      swap1\n      revert\n    tag_148:\n        /* \"contracts/hangman.sol\":6898:6915  Game storage game */\n      0x00\n        /* \"contracts/hangman.sol\":6918:6923  games */\n      0x01\n        /* \"contracts/hangman.sol\":6948:6949  1 */\n      dup1\n        /* \"contracts/hangman.sol\":6924:6936  getGameIndex */\n      0x5b\n        /* \"contracts/hangman.sol\":6937:6944  _gameID */\n      dup7\n        /* \"contracts/hangman.sol\":6924:6945  getGameIndex[_gameID] */\n      mload(0x40)\n      tag_151\n      swap2\n      swap1\n      tag_76\n      jump\t// in\n    tag_151:\n      swap1\n      dup2\n      mstore\n      0x20\n      add\n      mload(0x40)\n      dup1\n      swap2\n      sub\n      swap1\n      keccak256\n      0x00\n      swap1\n      sload\n      swap1\n      0x0100\n      exp\n      swap1\n      div\n      0xff\n      and\n        /* \"contracts/hangman.sol\":6924:6949  getGameIndex[_gameID] - 1 */\n      tag_152\n      swap2\n      swap1\n      tag_83\n      jump\t// in\n    tag_152:\n        /* \"contracts/hangman.sol\":6918:6950  games[getGameIndex[_gameID] - 1] */\n      0xff\n      and\n      0x05\n      dup2\n      lt\n      tag_153\n      jumpi\n      tag_154\n      tag_86\n      jump\t// in\n    tag_154:\n    tag_153:\n      0x12\n      mul\n      add\n        /* \"contracts/hangman.sol\":6898:6950  Game storage game = games[getGameIndex[_gameID] - 1] */\n      swap1\n      pop\n        /* \"contracts/hangman.sol\":6986:7025  _removePlayerFromGame(game, msg.sender) */\n      tag_156\n        /* \"contracts/hangman.sol\":7008:7012  game */\n      dup2\n        /* \"contracts/hangman.sol\":7014:7024  msg.sender */\n      caller\n        /* \"contracts/hangman.sol\":6986:7007  _removePlayerFromGame */\n      tag_157\n        /* \"contracts/hangman.sol\":6986:7025  _removePlayerFromGame(game, msg.sender) */\n      jump\t// in\n    tag_156:\n        /* \"contracts/hangman.sol\":7111:7112  0 */\n      0x00\n        /* \"contracts/hangman.sol\":7088:7092  game */\n      dup2\n        /* \"contracts/hangman.sol\":7088:7107  game.currentPlayers */\n      0x01\n      add\n      0x15\n      swap1\n      sload\n      swap1\n      0x0100\n      exp\n      swap1\n      div\n      0xff\n      and\n        /* \"contracts/hangman.sol\":7088:7112  game.currentPlayers == 0 */\n      0xff\n      and\n      sub\n        /* \"contracts/hangman.sol\":7084:7175  if (game.currentPlayers == 0) {... */\n      tag_158\n      jumpi\n        /* \"contracts/hangman.sol\":7128:7164  _endGame(game, GameResult.CANCELLED) */\n      tag_159\n        /* \"contracts/hangman.sol\":7137:7141  game */\n      dup2\n        /* \"contracts/hangman.sol\":7143:7163  GameResult.CANCELLED */\n      0x02\n        /* \"contracts/hangman.sol\":7128:7136  _endGame */\n      tag_160\n        /* \"contracts/hangman.sol\":7128:7164  _endGame(game, GameResult.CANCELLED) */\n      jump\t// in\n    tag_159:\n        /* \"contracts/hangman.sol\":7084:7175  if (game.currentPlayers == 0) {... */\n    tag_158:\n        /* \"contracts/hangman.sol\":6888:7181  {... */\n      pop\n        /* \"contracts/hangman.sol\":3185:3186  _ */\n      pop\n        /* \"contracts/hangman.sol\":6799:7181  function leaveGame(string memory _gameID) external gameExists(_gameID) isPlayer(_gameID) {... */\n      pop\n      pop\n      jump\t// out\n        /* \"contracts/hangman.sol\":8650:9084  function endVote(string memory _gameID) external gameExists(_gameID) {... */\n    tag_58:\n        /* \"contracts/hangman.sol\":8710:8717  _gameID */\n      dup1\n        /* \"contracts/hangman.sol\":3129:3130  0 */\n      0x00\n        /* \"contracts/hangman.sol\":3105:3117  getGameIndex */\n      0x5b\n        /* \"contracts/hangman.sol\":3118:3124  gameID */\n      dup3\n        /* \"contracts/hangman.sol\":3105:3125  getGameIndex[gameID] */\n      mload(0x40)\n      tag_162\n      swap2\n      swap1\n      tag_76\n      jump\t// in\n    tag_162:\n      swap1\n      dup2\n      mstore\n      0x20\n      add\n      mload(0x40)\n      dup1\n      swap2\n      sub\n      swap1\n      keccak256\n      0x00\n      swap1\n      sload\n      swap1\n      0x0100\n      exp\n      swap1\n      div\n      0xff\n      and\n        /* \"contracts/hangman.sol\":3105:3130  getGameIndex[gameID] != 0 */\n      0xff\n      and\n      sub\n        /* \"contracts/hangman.sol\":3084:3175  require(... */\n      tag_163\n      jumpi\n      mload(0x40)\n      0x08c379a000000000000000000000000000000000000000000000000000000000\n      dup2\n      mstore\n      0x04\n      add\n      tag_164\n      swap1\n      tag_79\n      jump\t// in\n    tag_164:\n      mload(0x40)\n      dup1\n      swap2\n      sub\n      swap1\n      revert\n    tag_163:\n        /* \"contracts/hangman.sol\":8729:8746  Game storage game */\n      0x00\n        /* \"contracts/hangman.sol\":8749:8754  games */\n      0x01\n        /* \"contracts/hangman.sol\":8779:8780  1 */\n      dup1\n        /* \"contracts/hangman.sol\":8755:8767  getGameIndex */\n      0x5b\n        /* \"contracts/hangman.sol\":8768:8775  _gameID */\n      dup6\n        /* \"contracts/hangman.sol\":8755:8776  getGameIndex[_gameID] */\n      mload(0x40)\n      tag_166\n      swap2\n      swap1\n      tag_76\n      jump\t// in\n    tag_166:\n      swap1\n      dup2\n      mstore\n      0x20\n      add\n      mload(0x40)\n      dup1\n      swap2\n      sub\n      swap1\n      keccak256\n      0x00\n      swap1\n      sload\n      swap1\n      0x0100\n      exp\n      swap1\n      div\n      0xff\n      and\n        /* \"contracts/hangman.sol\":8755:8780  getGameIndex[_gameID] - 1 */\n      tag_167\n      swap2\n      swap1\n      tag_83\n      jump\t// in\n    tag_167:\n        /* \"contracts/hangman.sol\":8749:8781  games[getGameIndex[_gameID] - 1] */\n      0xff\n      and\n      0x05\n      dup2\n      lt\n      tag_168\n      jumpi\n      tag_169\n      tag_86\n      jump\t// in\n    tag_169:\n    tag_168:\n      0x12\n      mul\n      add\n        /* \"contracts/hangman.sol\":8729:8781  Game storage game = games[getGameIndex[_gameID] - 1] */\n      swap1\n      pop\n        /* \"contracts/hangman.sol\":8791:8808  Vote storage vote */\n      0x00\n        /* \"contracts/hangman.sol\":8811:8815  game */\n      dup2\n        /* \"contracts/hangman.sol\":8811:8820  game.vote */\n      0x08\n      add\n        /* \"contracts/hangman.sol\":8791:8820  Vote storage vote = game.vote */\n      swap1\n      pop\n        /* \"contracts/hangman.sol\":8851:8855  vote */\n      dup1\n        /* \"contracts/hangman.sol\":8851:8868  vote.votingActive */\n      0x00\n      add\n      0x00\n      swap1\n      sload\n      swap1\n      0x0100\n      exp\n      swap1\n      div\n      0xff\n      and\n        /* \"contracts/hangman.sol\":8830:8908  require(... */\n      tag_171\n      jumpi\n      mload(0x40)\n      0x08c379a000000000000000000000000000000000000000000000000000000000\n      dup2\n      mstore\n      0x04\n      add\n      tag_172\n      swap1\n      tag_173\n      jump\t// in\n    tag_172:\n      mload(0x40)\n      dup1\n      swap2\n      sub\n      swap1\n      revert\n    tag_171:\n        /* \"contracts/hangman.sol\":434:443  5 minutes */\n      0x012c\n        /* \"contracts/hangman.sol\":8957:8961  vote */\n      dup2\n        /* \"contracts/hangman.sol\":8957:8980  vote.voteStartTimestamp */\n      0x01\n      add\n      sload\n        /* \"contracts/hangman.sol\":8939:8954  block.timestamp */\n      timestamp\n        /* \"contracts/hangman.sol\":8939:8980  block.timestamp - vote.voteStartTimestamp */\n      tag_174\n      swap2\n      swap1\n      tag_133\n      jump\t// in\n    tag_174:\n        /* \"contracts/hangman.sol\":8939:8998  block.timestamp - vote.voteStartTimestamp > VOTING_DURATION */\n      gt\n        /* \"contracts/hangman.sol\":8918:9053  require(... */\n      tag_175\n      jumpi\n      mload(0x40)\n      0x08c379a000000000000000000000000000000000000000000000000000000000\n      dup2\n      mstore\n      0x04\n      add\n      tag_176\n      swap1\n      tag_177\n      jump\t// in\n    tag_176:\n      mload(0x40)\n      dup1\n      swap2\n      sub\n      swap1\n      revert\n    tag_175:\n        /* \"contracts/hangman.sol\":9063:9077  _endVote(game) */\n      tag_178\n        /* \"contracts/hangman.sol\":9072:9076  game */\n      dup3\n        /* \"contracts/hangman.sol\":9063:9071  _endVote */\n      tag_137\n        /* \"contracts/hangman.sol\":9063:9077  _endVote(game) */\n      jump\t// in\n    tag_178:\n        /* \"contracts/hangman.sol\":8719:9084  {... */\n      pop\n      pop\n        /* \"contracts/hangman.sol\":8650:9084  function endVote(string memory _gameID) external gameExists(_gameID) {... */\n      pop\n      pop\n      jump\t// out\n        /* \"contracts/hangman.sol\":5770:6108  function deleteGame(string memory _gameID) external gameExists(_gameID) {... */\n    tag_61:\n        /* \"contracts/hangman.sol\":5833:5840  _gameID */\n      dup1\n        /* \"contracts/hangman.sol\":3129:3130  0 */\n      0x00\n        /* \"contracts/hangman.sol\":3105:3117  getGameIndex */\n      0x5b\n        /* \"contracts/hangman.sol\":3118:3124  gameID */\n      dup3\n        /* \"contracts/hangman.sol\":3105:3125  getGameIndex[gameID] */\n      mload(0x40)\n      tag_180\n      swap2\n      swap1\n      tag_76\n      jump\t// in\n    tag_180:\n      swap1\n      dup2\n      mstore\n      0x20\n      add\n      mload(0x40)\n      dup1\n      swap2\n      sub\n      swap1\n      keccak256\n      0x00\n      swap1\n      sload\n      swap1\n      0x0100\n      exp\n      swap1\n      div\n      0xff\n      and\n        /* \"contracts/hangman.sol\":3105:3130  getGameIndex[gameID] != 0 */\n      0xff\n      and\n      sub\n        /* \"contracts/hangman.sol\":3084:3175  require(... */\n      tag_181\n      jumpi\n      mload(0x40)\n      0x08c379a000000000000000000000000000000000000000000000000000000000\n      dup2\n      mstore\n      0x04\n      add\n      tag_182\n      swap1\n      tag_79\n      jump\t// in\n    tag_182:\n      mload(0x40)\n      dup1\n      swap2\n      sub\n      swap1\n      revert\n    tag_181:\n        /* \"contracts/hangman.sol\":5852:5869  Game storage game */\n      0x00\n        /* \"contracts/hangman.sol\":5872:5877  games */\n      0x01\n        /* \"contracts/hangman.sol\":5902:5903  1 */\n      dup1\n        /* \"contracts/hangman.sol\":5878:5890  getGameIndex */\n      0x5b\n        /* \"contracts/hangman.sol\":5891:5898  _gameID */\n      dup6\n        /* \"contracts/hangman.sol\":5878:5899  getGameIndex[_gameID] */\n      mload(0x40)\n      tag_184\n      swap2\n      swap1\n      tag_76\n      jump\t// in\n    tag_184:\n      swap1\n      dup2\n      mstore\n      0x20\n      add\n      mload(0x40)\n      dup1\n      swap2\n      sub\n      swap1\n      keccak256\n      0x00\n      swap1\n      sload\n      swap1\n      0x0100\n      exp\n      swap1\n      div\n      0xff\n      and\n        /* \"contracts/hangman.sol\":5878:5903  getGameIndex[_gameID] - 1 */\n      tag_185\n      swap2\n      swap1\n      tag_83\n      jump\t// in\n    tag_185:\n        /* \"contracts/hangman.sol\":5872:5904  games[getGameIndex[_gameID] - 1] */\n      0xff\n      and\n      0x05\n      dup2\n      lt\n      tag_186\n      jumpi\n      tag_187\n      tag_86\n      jump\t// in\n    tag_187:\n    tag_186:\n      0x12\n      mul\n      add\n        /* \"contracts/hangman.sol\":5852:5904  Game storage game = games[getGameIndex[_gameID] - 1] */\n      swap1\n      pop\n        /* \"contracts/hangman.sol\":5951:5961  msg.sender */\n      caller\n        /* \"contracts/hangman.sol\":5935:5961  game.creator == msg.sender */\n      0xffffffffffffffffffffffffffffffffffffffff\n      and\n        /* \"contracts/hangman.sol\":5935:5939  game */\n      dup2\n        /* \"contracts/hangman.sol\":5935:5947  game.creator */\n      0x01\n      add\n      0x00\n      swap1\n      sload\n      swap1\n      0x0100\n      exp\n      swap1\n      div\n      0xffffffffffffffffffffffffffffffffffffffff\n      and\n        /* \"contracts/hangman.sol\":5935:5961  game.creator == msg.sender */\n      0xffffffffffffffffffffffffffffffffffffffff\n      and\n      eq\n        /* \"contracts/hangman.sol\":5935:5991  game.creator == msg.sender || game.creator == address(0) */\n      dup1\n      tag_189\n      jumpi\n      pop\n        /* \"contracts/hangman.sol\":5989:5990  0 */\n      0x00\n        /* \"contracts/hangman.sol\":5965:5991  game.creator == address(0) */\n      0xffffffffffffffffffffffffffffffffffffffff\n      and\n        /* \"contracts/hangman.sol\":5965:5969  game */\n      dup2\n        /* \"contracts/hangman.sol\":5965:5977  game.creator */\n      0x01\n      add\n      0x00\n      swap1\n      sload\n      swap1\n      0x0100\n      exp\n      swap1\n      div\n      0xffffffffffffffffffffffffffffffffffffffff\n      and\n        /* \"contracts/hangman.sol\":5965:5991  game.creator == address(0) */\n      0xffffffffffffffffffffffffffffffffffffffff\n      and\n      eq\n        /* \"contracts/hangman.sol\":5935:5991  game.creator == msg.sender || game.creator == address(0) */\n    tag_189:\n        /* \"contracts/hangman.sol\":5914:6054  require(... */\n      tag_190\n      jumpi\n      mload(0x40)\n      0x08c379a000000000000000000000000000000000000000000000000000000000\n      dup2\n      mstore\n      0x04\n      add\n      tag_191\n      swap1\n      tag_192\n      jump\t// in\n    tag_191:\n      mload(0x40)\n      dup1\n      swap2\n      sub\n      swap1\n      revert\n    tag_190:\n        /* \"contracts/hangman.sol\":6065:6101  _endGame(game, GameResult.CANCELLED) */\n      tag_193\n        /* \"contracts/hangman.sol\":6074:6078  game */\n      dup2\n        /* \"contracts/hangman.sol\":6080:6100  GameResult.CANCELLED */\n      0x02\n        /* \"contracts/hangman.sol\":6065:6073  _endGame */\n      tag_160\n        /* \"contracts/hangman.sol\":6065:6101  _endGame(game, GameResult.CANCELLED) */\n      jump\t// in\n    tag_193:\n        /* \"contracts/hangman.sol\":5842:6108  {... */\n      pop\n        /* \"contracts/hangman.sol\":5770:6108  function deleteGame(string memory _gameID) external gameExists(_gameID) {... */\n      pop\n      pop\n      jump\t// out\n        /* \"contracts/hangman.sol\":4456:5660  function createGame(... */\n    tag_65:\n        /* \"contracts/hangman.sol\":4631:4632  0 */\n      0x00\n        /* \"contracts/hangman.sol\":4606:4618  getGameIndex */\n      0x5b\n        /* \"contracts/hangman.sol\":4619:4626  _gameID */\n      dup4\n        /* \"contracts/hangman.sol\":4606:4627  getGameIndex[_gameID] */\n      mload(0x40)\n      tag_195\n      swap2\n      swap1\n      tag_76\n      jump\t// in\n    tag_195:\n      swap1\n      dup2\n      mstore\n      0x20\n      add\n      mload(0x40)\n      dup1\n      swap2\n      sub\n      swap1\n      keccak256\n      0x00\n      swap1\n      sload\n      swap1\n      0x0100\n      exp\n      swap1\n      div\n      0xff\n      and\n        /* \"contracts/hangman.sol\":4606:4632  getGameIndex[_gameID] == 0 */\n      0xff\n      and\n      eq\n        /* \"contracts/hangman.sol\":4585:4698  require(... */\n      tag_196\n      jumpi\n      mload(0x40)\n      0x08c379a000000000000000000000000000000000000000000000000000000000\n      dup2\n      mstore\n      0x04\n      add\n      tag_197\n      swap1\n      tag_198\n      jump\t// in\n    tag_197:\n      mload(0x40)\n      dup1\n      swap2\n      sub\n      swap1\n      revert\n    tag_196:\n        /* \"contracts/hangman.sol\":4745:4746  0 */\n      0x00\n        /* \"contracts/hangman.sol\":4729:4742  _numOfPlayers */\n      dup2\n        /* \"contracts/hangman.sol\":4729:4746  _numOfPlayers > 0 */\n      0xff\n      and\n      gt\n        /* \"contracts/hangman.sol\":4729:4778  _numOfPlayers > 0 && _numOfPlayers <= MAX_PLAYERS */\n      dup1\n      iszero\n      tag_199\n      jumpi\n      pop\n        /* \"contracts/hangman.sol\":238:239  5 */\n      0x05\n        /* \"contracts/hangman.sol\":4750:4778  _numOfPlayers <= MAX_PLAYERS */\n      0xff\n      and\n        /* \"contracts/hangman.sol\":4750:4763  _numOfPlayers */\n      dup2\n        /* \"contracts/hangman.sol\":4750:4778  _numOfPlayers <= MAX_PLAYERS */\n      0xff\n      and\n      gt\n      iszero\n        /* \"contracts/hangman.sol\":4729:4778  _numOfPlayers > 0 && _numOfPlayers <= MAX_PLAYERS */\n    tag_199:\n        /* \"contracts/hangman.sol\":4708:4864  require(... */\n      tag_200\n      jumpi\n      mload(0x40)\n      0x08c379a000000000000000000000000000000000000000000000000000000000\n      dup2\n      mstore\n      0x04\n      add\n      tag_201\n      swap1\n      tag_202\n      jump\t// in\n    tag_201:\n      mload(0x40)\n      dup1\n      swap2\n      sub\n      swap1\n      revert\n    tag_200:\n        /* \"contracts/hangman.sol\":4874:4889  uint8 gameIndex */\n      0x00\n        /* \"contracts/hangman.sol\":4892:4907  _allocateGame() */\n      tag_203\n        /* \"contracts/hangman.sol\":4892:4905  _allocateGame */\n      tag_204\n        /* \"contracts/hangman.sol\":4892:4907  _allocateGame() */\n      jump\t// in\n    tag_203:\n        /* \"contracts/hangman.sol\":4874:4907  uint8 gameIndex = _allocateGame() */\n      swap1\n      pop\n        /* \"contracts/hangman.sol\":4950:4951  0 */\n      0x00\n        /* \"contracts/hangman.sol\":4938:4947  gameIndex */\n      dup2\n        /* \"contracts/hangman.sol\":4938:4951  gameIndex > 0 */\n      0xff\n      and\n      gt\n        /* \"contracts/hangman.sol\":4917:5004  require(... */\n      tag_205\n      jumpi\n      mload(0x40)\n      0x08c379a000000000000000000000000000000000000000000000000000000000\n      dup2\n      mstore\n      0x04\n      add\n      tag_206\n      swap1\n      tag_207\n      jump\t// in\n    tag_206:\n      mload(0x40)\n      dup1\n      swap2\n      sub\n      swap1\n      revert\n    tag_205:\n        /* \"contracts/hangman.sol\":5037:5054  Game storage game */\n      0x00\n        /* \"contracts/hangman.sol\":5057:5062  games */\n      0x01\n        /* \"contracts/hangman.sol\":5075:5076  1 */\n      dup1\n        /* \"contracts/hangman.sol\":5063:5072  gameIndex */\n      dup4\n        /* \"contracts/hangman.sol\":5063:5076  gameIndex - 1 */\n      tag_208\n      swap2\n      swap1\n      tag_83\n      jump\t// in\n    tag_208:\n        /* \"contracts/hangman.sol\":5057:5077  games[gameIndex - 1] */\n      0xff\n      and\n      0x05\n      dup2\n      lt\n      tag_209\n      jumpi\n      tag_210\n      tag_86\n      jump\t// in\n    tag_210:\n    tag_209:\n      0x12\n      mul\n      add\n        /* \"contracts/hangman.sol\":5037:5077  Game storage game = games[gameIndex - 1] */\n      swap1\n      pop\n        /* \"contracts/hangman.sol\":5101:5108  _gameID */\n      dup4\n        /* \"contracts/hangman.sol\":5087:5091  game */\n      dup2\n        /* \"contracts/hangman.sol\":5087:5098  game.gameID */\n      0x00\n      add\n        /* \"contracts/hangman.sol\":5087:5108  game.gameID = _gameID */\n      swap1\n      dup2\n      tag_212\n      swap2\n      swap1\n      tag_213\n      jump\t// in\n    tag_212:\n      pop\n        /* \"contracts/hangman.sol\":5133:5143  msg.sender */\n      caller\n        /* \"contracts/hangman.sol\":5118:5122  game */\n      dup2\n        /* \"contracts/hangman.sol\":5118:5130  game.creator */\n      0x01\n      add\n      0x00\n        /* \"contracts/hangman.sol\":5118:5143  game.creator = msg.sender */\n      0x0100\n      exp\n      dup2\n      sload\n      dup2\n      0xffffffffffffffffffffffffffffffffffffffff\n      mul\n      not\n      and\n      swap1\n      dup4\n      0xffffffffffffffffffffffffffffffffffffffff\n      and\n      mul\n      or\n      swap1\n      sstore\n      pop\n        /* \"contracts/hangman.sol\":5171:5184  _numOfPlayers */\n      dup3\n        /* \"contracts/hangman.sol\":5153:5157  game */\n      dup2\n        /* \"contracts/hangman.sol\":5153:5168  game.maxPlayers */\n      0x01\n      add\n      0x14\n        /* \"contracts/hangman.sol\":5153:5184  game.maxPlayers = _numOfPlayers */\n      0x0100\n      exp\n      dup2\n      sload\n      dup2\n      0xff\n      mul\n      not\n      and\n      swap1\n      dup4\n      0xff\n      and\n      mul\n      or\n      swap1\n      sstore\n      pop\n        /* \"contracts/hangman.sol\":5194:5211  uint256 randomNum */\n      0x00\n        /* \"contracts/hangman.sol\":5279:5294  block.timestamp */\n      timestamp\n        /* \"contracts/hangman.sol\":5296:5306  msg.sender */\n      caller\n        /* \"contracts/hangman.sol\":5262:5307  abi.encodePacked(block.timestamp, msg.sender) */\n      add(0x20, mload(0x40))\n      tag_214\n      swap3\n      swap2\n      swap1\n      tag_215\n      jump\t// in\n    tag_214:\n      mload(0x40)\n      0x20\n      dup2\n      dup4\n      sub\n      sub\n      dup2\n      mstore\n      swap1\n      0x40\n      mstore\n        /* \"contracts/hangman.sol\":5235:5321  keccak256(... */\n      dup1\n      mload\n      swap1\n      0x20\n      add\n      keccak256\n        /* \"contracts/hangman.sol\":5214:5331  uint256(... */\n      0x00\n      shr\n        /* \"contracts/hangman.sol\":5194:5331  uint256 randomNum = uint256(... */\n      swap1\n      pop\n        /* \"contracts/hangman.sol\":5359:5364  WORDS */\n      0x00\n        /* \"contracts/hangman.sol\":5377:5382  WORDS */\n      dup1\n        /* \"contracts/hangman.sol\":5377:5389  WORDS.length */\n      dup1\n      sload\n      swap1\n      pop\n        /* \"contracts/hangman.sol\":5365:5374  randomNum */\n      dup3\n        /* \"contracts/hangman.sol\":5365:5389  randomNum % WORDS.length */\n      tag_216\n      swap2\n      swap1\n      tag_217\n      jump\t// in\n    tag_216:\n        /* \"contracts/hangman.sol\":5359:5390  WORDS[randomNum % WORDS.length] */\n      dup2\n      sload\n      dup2\n      lt\n      tag_218\n      jumpi\n      tag_219\n      tag_86\n      jump\t// in\n    tag_219:\n    tag_218:\n      swap1\n      0x00\n      mstore\n      keccak256(0x00, 0x20)\n      add\n        /* \"contracts/hangman.sol\":5341:5345  game */\n      dup3\n        /* \"contracts/hangman.sol\":5341:5356  game.hiddenWord */\n      0x03\n      add\n        /* \"contracts/hangman.sol\":5341:5390  game.hiddenWord = WORDS[randomNum % WORDS.length] */\n      swap1\n      dup2\n      tag_221\n      swap2\n      swap1\n      tag_222\n      jump\t// in\n    tag_221:\n      pop\n        /* \"contracts/hangman.sol\":5440:5444  game */\n      dup2\n        /* \"contracts/hangman.sol\":5440:5455  game.hiddenWord */\n      0x03\n      add\n        /* \"contracts/hangman.sol\":5434:5463  bytes(game.hiddenWord).length */\n      dup1\n      sload\n      tag_223\n      swap1\n      tag_69\n      jump\t// in\n    tag_223:\n      swap1\n      pop\n        /* \"contracts/hangman.sol\":5423:5464  new bool[](bytes(game.hiddenWord).length) */\n      0xffffffffffffffff\n      dup2\n      gt\n      iszero\n      tag_224\n      jumpi\n      tag_225\n      tag_226\n      jump\t// in\n    tag_225:\n    tag_224:\n      mload(0x40)\n      swap1\n      dup1\n      dup3\n      mstore\n      dup1\n      0x20\n      mul\n      0x20\n      add\n      dup3\n      add\n      0x40\n      mstore\n      dup1\n      iszero\n      tag_227\n      jumpi\n      dup2\n      0x20\n      add\n      0x20\n      dup3\n      mul\n      dup1\n      calldatasize\n      dup4\n      calldatacopy\n      dup1\n      dup3\n      add\n      swap2\n      pop\n      pop\n      swap1\n      pop\n    tag_227:\n      pop\n        /* \"contracts/hangman.sol\":5400:5404  game */\n      dup3\n        /* \"contracts/hangman.sol\":5400:5420  game.revealedLetters */\n      0x04\n      add\n        /* \"contracts/hangman.sol\":5400:5464  game.revealedLetters = new bool[](bytes(game.hiddenWord).length) */\n      swap1\n      dup1\n      mload\n      swap1\n      0x20\n      add\n      swap1\n      tag_228\n      swap3\n      swap2\n      swap1\n      tag_229\n      jump\t// in\n    tag_228:\n      pop\n        /* \"contracts/hangman.sol\":5501:5516  block.timestamp */\n      timestamp\n        /* \"contracts/hangman.sol\":5474:5478  game */\n      dup3\n        /* \"contracts/hangman.sol\":5474:5498  game.lastActionTimestamp */\n      0x07\n      add\n        /* \"contracts/hangman.sol\":5474:5516  game.lastActionTimestamp = block.timestamp */\n      dup2\n      swap1\n      sstore\n      pop\n        /* \"contracts/hangman.sol\":5550:5559  gameIndex */\n      dup3\n        /* \"contracts/hangman.sol\":5526:5538  getGameIndex */\n      0x5b\n        /* \"contracts/hangman.sol\":5539:5546  _gameID */\n      dup7\n        /* \"contracts/hangman.sol\":5526:5547  getGameIndex[_gameID] */\n      mload(0x40)\n      tag_230\n      swap2\n      swap1\n      tag_76\n      jump\t// in\n    tag_230:\n      swap1\n      dup2\n      mstore\n      0x20\n      add\n      mload(0x40)\n      dup1\n      swap2\n      sub\n      swap1\n      keccak256\n      0x00\n        /* \"contracts/hangman.sol\":5526:5559  getGameIndex[_gameID] = gameIndex */\n      0x0100\n      exp\n      dup2\n      sload\n      dup2\n      0xff\n      mul\n      not\n      and\n      swap1\n      dup4\n      0xff\n      and\n      mul\n      or\n      swap1\n      sstore\n      pop\n        /* \"contracts/hangman.sol\":5586:5593  _gameID */\n      dup5\n        /* \"contracts/hangman.sol\":5574:5609  GameCreated(_gameID, _numOfPlayers) */\n      mload(0x40)\n      tag_231\n      swap2\n      swap1\n      tag_76\n      jump\t// in\n    tag_231:\n      mload(0x40)\n      dup1\n      swap2\n      sub\n      swap1\n      keccak256\n      0x0a0048d71a81bd0849ad071dd103d646a72b493a92a1cdf4cb7c13cf30f577df\n        /* \"contracts/hangman.sol\":5595:5608  _numOfPlayers */\n      dup6\n        /* \"contracts/hangman.sol\":5574:5609  GameCreated(_gameID, _numOfPlayers) */\n      mload(0x40)\n      tag_232\n      swap2\n      swap1\n      tag_31\n      jump\t// in\n    tag_232:\n      mload(0x40)\n      dup1\n      swap2\n      sub\n      swap1\n      log2\n        /* \"contracts/hangman.sol\":5619:5653  _addPlayerToGame(game, msg.sender) */\n      tag_233\n        /* \"contracts/hangman.sol\":5636:5640  game */\n      dup3\n        /* \"contracts/hangman.sol\":5642:5652  msg.sender */\n      caller\n        /* \"contracts/hangman.sol\":5619:5635  _addPlayerToGame */\n      tag_234\n        /* \"contracts/hangman.sol\":5619:5653  _addPlayerToGame(game, msg.sender) */\n      jump\t// in\n    tag_233:\n        /* \"contracts/hangman.sol\":4551:5660  {... */\n      pop\n      pop\n      pop\n        /* \"contracts/hangman.sol\":4456:5660  function createGame(... */\n      pop\n      pop\n      jump\t// out\n        /* \"contracts/hangman.sol\":10089:10592  function _registerVote(string storage gameID, Vote storage vote, address player, bytes1 letter) private {... */\n    tag_131:\n        /* \"contracts/hangman.sol\":10239:10245  player */\n      dup2\n        /* \"contracts/hangman.sol\":10203:10207  vote */\n      dup4\n        /* \"contracts/hangman.sol\":10203:10220  vote.playersVoted */\n      0x03\n      add\n        /* \"contracts/hangman.sol\":10221:10225  vote */\n      dup5\n        /* \"contracts/hangman.sol\":10221:10235  vote.voteCount */\n      0x02\n      add\n      0x00\n      swap1\n      sload\n      swap1\n      0x0100\n      exp\n      swap1\n      div\n      0xff\n      and\n        /* \"contracts/hangman.sol\":10203:10236  vote.playersVoted[vote.voteCount] */\n      0xff\n      and\n      0x05\n      dup2\n      lt\n      tag_236\n      jumpi\n      tag_237\n      tag_86\n      jump\t// in\n    tag_237:\n    tag_236:\n      add\n      0x00\n        /* \"contracts/hangman.sol\":10203:10245  vote.playersVoted[vote.voteCount] = player */\n      0x0100\n      exp\n      dup2\n      sload\n      dup2\n      0xffffffffffffffffffffffffffffffffffffffff\n      mul\n      not\n      and\n      swap1\n      dup4\n      0xffffffffffffffffffffffffffffffffffffffff\n      and\n      mul\n      or\n      swap1\n      sstore\n      pop\n        /* \"contracts/hangman.sol\":10282:10288  letter */\n      dup1\n        /* \"contracts/hangman.sol\":10255:10259  vote */\n      dup4\n        /* \"contracts/hangman.sol\":10255:10271  vote.playerVotes */\n      0x08\n      add\n        /* \"contracts/hangman.sol\":10255:10279  vote.playerVotes[player] */\n      0x00\n        /* \"contracts/hangman.sol\":10272:10278  player */\n      dup5\n        /* \"contracts/hangman.sol\":10255:10279  vote.playerVotes[player] */\n      0xffffffffffffffffffffffffffffffffffffffff\n      and\n      0xffffffffffffffffffffffffffffffffffffffff\n      and\n      dup2\n      mstore\n      0x20\n      add\n      swap1\n      dup2\n      mstore\n      0x20\n      add\n      0x00\n      keccak256\n      0x00\n        /* \"contracts/hangman.sol\":10255:10288  vote.playerVotes[player] = letter */\n      0x0100\n      exp\n      dup2\n      sload\n      dup2\n      0xff\n      mul\n      not\n      and\n      swap1\n      dup4\n      0xf8\n      shr\n      mul\n      or\n      swap1\n      sstore\n      pop\n        /* \"contracts/hangman.sol\":10327:10328  1 */\n      0x01\n        /* \"contracts/hangman.sol\":10298:10302  vote */\n      dup4\n        /* \"contracts/hangman.sol\":10298:10315  vote.letterCounts */\n      0x09\n      add\n        /* \"contracts/hangman.sol\":10298:10323  vote.letterCounts[letter] */\n      0x00\n        /* \"contracts/hangman.sol\":10316:10322  letter */\n      dup4\n        /* \"contracts/hangman.sol\":10298:10323  vote.letterCounts[letter] */\n      not(0xffffffffffffffffffffffffffffffffffffffffffffffffffffffffffffff)\n      and\n      not(0xffffffffffffffffffffffffffffffffffffffffffffffffffffffffffffff)\n      and\n      dup2\n      mstore\n      0x20\n      add\n      swap1\n      dup2\n      mstore\n      0x20\n      add\n      0x00\n      keccak256\n      0x00\n        /* \"contracts/hangman.sol\":10298:10328  vote.letterCounts[letter] += 1 */\n      dup3\n      dup3\n      dup3\n      swap1\n      sload\n      swap1\n      0x0100\n      exp\n      swap1\n      div\n      0xff\n      and\n      tag_239\n      swap2\n      swap1\n      tag_240\n      jump\t// in\n    tag_239:\n      swap3\n      pop\n      0x0100\n      exp\n      dup2\n      sload\n      dup2\n      0xff\n      mul\n      not\n      and\n      swap1\n      dup4\n      0xff\n      and\n      mul\n      or\n      swap1\n      sstore\n      pop\n        /* \"contracts/hangman.sol\":10356:10357  1 */\n      0x01\n        /* \"contracts/hangman.sol\":10338:10342  vote */\n      dup4\n        /* \"contracts/hangman.sol\":10338:10352  vote.voteCount */\n      0x02\n      add\n      0x00\n        /* \"contracts/hangman.sol\":10338:10357  vote.voteCount += 1 */\n      dup3\n      dup3\n      dup3\n      swap1\n      sload\n      swap1\n      0x0100\n      exp\n      swap1\n      div\n      0xff\n      and\n      tag_241\n      swap2\n      swap1\n      tag_240\n      jump\t// in\n    tag_241:\n      swap3\n      pop\n      0x0100\n      exp\n      dup2\n      sload\n      dup2\n      0xff\n      mul\n      not\n      and\n      swap1\n      dup4\n      0xff\n      and\n      mul\n      or\n      swap1\n      sstore\n      pop\n        /* \"contracts/hangman.sol\":10372:10376  vote */\n      dup3\n        /* \"contracts/hangman.sol\":10372:10389  vote.votingActive */\n      0x00\n      add\n      0x00\n      swap1\n      sload\n      swap1\n      0x0100\n      exp\n      swap1\n      div\n      0xff\n      and\n        /* \"contracts/hangman.sol\":10367:10533  if (!vote.votingActive) {... */\n      tag_242\n      jumpi\n        /* \"contracts/hangman.sol\":10425:10429  true */\n      0x01\n        /* \"contracts/hangman.sol\":10405:10409  vote */\n      dup4\n        /* \"contracts/hangman.sol\":10405:10422  vote.votingActive */\n      0x00\n      add\n      0x00\n        /* \"contracts/hangman.sol\":10405:10429  vote.votingActive = true */\n      0x0100\n      exp\n      dup2\n      sload\n      dup2\n      0xff\n      mul\n      not\n      and\n      swap1\n      dup4\n      iszero\n      iszero\n      mul\n      or\n      swap1\n      sstore\n      pop\n        /* \"contracts/hangman.sol\":10469:10484  block.timestamp */\n      timestamp\n        /* \"contracts/hangman.sol\":10443:10447  vote */\n      dup4\n        /* \"contracts/hangman.sol\":10443:10466  vote.voteStartTimestamp */\n      0x01\n      add\n        /* \"contracts/hangman.sol\":10443:10484  vote.voteStartTimestamp = block.timestamp */\n      dup2\n      swap1\n      sstore\n      pop\n        /* \"contracts/hangman.sol\":10515:10521  gameID */\n      dup4\n        /* \"contracts/hangman.sol\":10503:10522  VoteStarted(gameID) */\n      mload(0x40)\n      tag_243\n      swap2\n      swap1\n      tag_244\n      jump\t// in\n    tag_243:\n      mload(0x40)\n      dup1\n      swap2\n      sub\n      swap1\n      keccak256\n      0xc39eb03dc11d6bbeb3b818b739e4478f7874c1f803d2e603cc7d7a45045cb68d\n      mload(0x40)\n      mload(0x40)\n      dup1\n      swap2\n      sub\n      swap1\n      log2\n        /* \"contracts/hangman.sol\":10367:10533  if (!vote.votingActive) {... */\n    tag_242:\n        /* \"contracts/hangman.sol\":10570:10576  player */\n      dup2\n        /* \"contracts/hangman.sol\":10547:10585  VoteRegistered(gameID, player, letter) */\n      0xffffffffffffffffffffffffffffffffffffffff\n      and\n      0xe1be499d3000b42a54f5be9b908b831fbed5da7f8431ee79b82a3fa6d092781e\n        /* \"contracts/hangman.sol\":10562:10568  gameID */\n      dup6\n        /* \"contracts/hangman.sol\":10578:10584  letter */\n      dup4\n        /* \"contracts/hangman.sol\":10547:10585  VoteRegistered(gameID, player, letter) */\n      mload(0x40)\n      tag_245\n      swap3\n      swap2\n      swap1\n      tag_246\n      jump\t// in\n    tag_245:\n      mload(0x40)\n      dup1\n      swap2\n      sub\n      swap1\n      log2\n        /* \"contracts/hangman.sol\":10089:10592  function _registerVote(string storage gameID, Vote storage vote, address player, bytes1 letter) private {... */\n      pop\n      pop\n      pop\n      pop\n      jump\t// out\n        /* \"contracts/hangman.sol\":11325:12634  function _endVote(Game storage game) private {... */\n    tag_137:\n        /* \"contracts/hangman.sol\":11380:11397  Vote storage vote */\n      0x00\n        /* \"contracts/hangman.sol\":11400:11404  game */\n      dup2\n        /* \"contracts/hangman.sol\":11400:11409  game.vote */\n      0x08\n      add\n        /* \"contracts/hangman.sol\":11380:11409  Vote storage vote = game.vote */\n      swap1\n      pop\n        /* \"contracts/hangman.sol\":11419:11438  bytes1 voted_letter */\n      0x00\n        /* \"contracts/hangman.sol\":11441:11442  0 */\n      dup1\n        /* \"contracts/hangman.sol\":11419:11442  bytes1 voted_letter = 0 */\n      0xf8\n      shl\n      swap1\n      pop\n        /* \"contracts/hangman.sol\":11452:11461  bool done */\n      0x00\n        /* \"contracts/hangman.sol\":11464:11468  true */\n      0x01\n        /* \"contracts/hangman.sol\":11452:11468  bool done = true */\n      swap1\n      pop\n        /* \"contracts/hangman.sol\":11478:11486  bool hit */\n      0x00\n        /* \"contracts/hangman.sol\":11504:11513  uint8 max */\n      dup1\n        /* \"contracts/hangman.sol\":11575:11581  uint i */\n      0x00\n        /* \"contracts/hangman.sol\":11570:11829  for (uint i = 0; i < vote.voteCount; i++) {... */\n    tag_248:\n        /* \"contracts/hangman.sol\":11591:11595  vote */\n      dup6\n        /* \"contracts/hangman.sol\":11591:11605  vote.voteCount */\n      0x02\n      add\n      0x00\n      swap1\n      sload\n      swap1\n      0x0100\n      exp\n      swap1\n      div\n      0xff\n      and\n        /* \"contracts/hangman.sol\":11587:11605  i < vote.voteCount */\n      0xff\n      and\n        /* \"contracts/hangman.sol\":11587:11588  i */\n      dup2\n        /* \"contracts/hangman.sol\":11587:11605  i < vote.voteCount */\n      lt\n        /* \"contracts/hangman.sol\":11570:11829  for (uint i = 0; i < vote.voteCount; i++) {... */\n      iszero\n      tag_249\n      jumpi\n        /* \"contracts/hangman.sol\":11626:11639  bytes1 letter */\n      0x00\n        /* \"contracts/hangman.sol\":11642:11646  vote */\n      dup7\n        /* \"contracts/hangman.sol\":11642:11658  vote.playerVotes */\n      0x08\n      add\n        /* \"contracts/hangman.sol\":11642:11680  vote.playerVotes[vote.playersVoted[i]] */\n      0x00\n        /* \"contracts/hangman.sol\":11659:11663  vote */\n      dup9\n        /* \"contracts/hangman.sol\":11659:11676  vote.playersVoted */\n      0x03\n      add\n        /* \"contracts/hangman.sol\":11677:11678  i */\n      dup5\n        /* \"contracts/hangman.sol\":11659:11679  vote.playersVoted[i] */\n      0x05\n      dup2\n      lt\n      tag_251\n      jumpi\n      tag_252\n      tag_86\n      jump\t// in\n    tag_252:\n    tag_251:\n      add\n      0x00\n      swap1\n      sload\n      swap1\n      0x0100\n      exp\n      swap1\n      div\n      0xffffffffffffffffffffffffffffffffffffffff\n      and\n        /* \"contracts/hangman.sol\":11642:11680  vote.playerVotes[vote.playersVoted[i]] */\n      0xffffffffffffffffffffffffffffffffffffffff\n      and\n      0xffffffffffffffffffffffffffffffffffffffff\n      and\n      dup2\n      mstore\n      0x20\n      add\n      swap1\n      dup2\n      mstore\n      0x20\n      add\n      0x00\n      keccak256\n      0x00\n      swap1\n      sload\n      swap1\n      0x0100\n      exp\n      swap1\n      div\n      0xf8\n      shl\n        /* \"contracts/hangman.sol\":11626:11680  bytes1 letter = vote.playerVotes[vote.playersVoted[i]] */\n      swap1\n      pop\n        /* \"contracts/hangman.sol\":11694:11705  uint8 count */\n      0x00\n        /* \"contracts/hangman.sol\":11708:11712  vote */\n      dup8\n        /* \"contracts/hangman.sol\":11708:11725  vote.letterCounts */\n      0x09\n      add\n        /* \"contracts/hangman.sol\":11708:11733  vote.letterCounts[letter] */\n      0x00\n        /* \"contracts/hangman.sol\":11726:11732  letter */\n      dup4\n        /* \"contracts/hangman.sol\":11708:11733  vote.letterCounts[letter] */\n      not(0xffffffffffffffffffffffffffffffffffffffffffffffffffffffffffffff)\n      and\n      not(0xffffffffffffffffffffffffffffffffffffffffffffffffffffffffffffff)\n      and\n      dup2\n      mstore\n      0x20\n      add\n      swap1\n      dup2\n      mstore\n      0x20\n      add\n      0x00\n      keccak256\n      0x00\n      swap1\n      sload\n      swap1\n      0x0100\n      exp\n      swap1\n      div\n      0xff\n      and\n        /* \"contracts/hangman.sol\":11694:11733  uint8 count = vote.letterCounts[letter] */\n      swap1\n      pop\n        /* \"contracts/hangman.sol\":11760:11763  max */\n      dup4\n        /* \"contracts/hangman.sol\":11752:11763  count > max */\n      0xff\n      and\n        /* \"contracts/hangman.sol\":11752:11757  count */\n      dup2\n        /* \"contracts/hangman.sol\":11752:11763  count > max */\n      0xff\n      and\n      gt\n        /* \"contracts/hangman.sol\":11748:11819  if (count > max) {... */\n      iszero\n      tag_254\n      jumpi\n        /* \"contracts/hangman.sol\":11798:11804  letter */\n      dup2\n        /* \"contracts/hangman.sol\":11783:11804  voted_letter = letter */\n      swap7\n      pop\n        /* \"contracts/hangman.sol\":11748:11819  if (count > max) {... */\n    tag_254:\n        /* \"contracts/hangman.sol\":11612:11829  {... */\n      pop\n      pop\n        /* \"contracts/hangman.sol\":11607:11610  i++ */\n      dup1\n      dup1\n      0x01\n      add\n      swap2\n      pop\n      pop\n        /* \"contracts/hangman.sol\":11570:11829  for (uint i = 0; i < vote.voteCount; i++) {... */\n      jump(tag_248)\n    tag_249:\n      pop\n        /* \"contracts/hangman.sol\":11839:11862  bytes memory maskedWord */\n      0x00\n        /* \"contracts/hangman.sol\":11871:11875  game */\n      dup7\n        /* \"contracts/hangman.sol\":11871:11886  game.hiddenWord */\n      0x03\n      add\n        /* \"contracts/hangman.sol\":11839:11887  bytes memory maskedWord = bytes(game.hiddenWord) */\n      dup1\n      sload\n      tag_255\n      swap1\n      tag_69\n      jump\t// in\n    tag_255:\n      dup1\n      0x1f\n      add\n      0x20\n      dup1\n      swap2\n      div\n      mul\n      0x20\n      add\n      mload(0x40)\n      swap1\n      dup2\n      add\n      0x40\n      mstore\n      dup1\n      swap3\n      swap2\n      swap1\n      dup2\n      dup2\n      mstore\n      0x20\n      add\n      dup3\n      dup1\n      sload\n      tag_256\n      swap1\n      tag_69\n      jump\t// in\n    tag_256:\n      dup1\n      iszero\n      tag_257\n      jumpi\n      dup1\n      0x1f\n      lt\n      tag_258\n      jumpi\n      0x0100\n      dup1\n      dup4\n      sload\n      div\n      mul\n      dup4\n      mstore\n      swap2\n      0x20\n      add\n      swap2\n      jump(tag_257)\n    tag_258:\n      dup3\n      add\n      swap2\n      swap1\n      0x00\n      mstore\n      keccak256(0x00, 0x20)\n      swap1\n    tag_259:\n      dup2\n      sload\n      dup2\n      mstore\n      swap1\n      0x01\n      add\n      swap1\n      0x20\n      add\n      dup1\n      dup4\n      gt\n      tag_259\n      jumpi\n      dup3\n      swap1\n      sub\n      0x1f\n      and\n      dup3\n      add\n      swap2\n    tag_257:\n      pop\n      pop\n      pop\n      pop\n      pop\n      swap1\n      pop\n        /* \"contracts/hangman.sol\":11903:11909  uint i */\n      0x00\n        /* \"contracts/hangman.sol\":11898:12276  for (uint i = 0; i < bytes(maskedWord).length; i++) {... */\n    tag_260:\n        /* \"contracts/hangman.sol\":11925:11935  maskedWord */\n      dup2\n        /* \"contracts/hangman.sol\":11919:11943  bytes(maskedWord).length */\n      mload\n        /* \"contracts/hangman.sol\":11915:11916  i */\n      dup2\n        /* \"contracts/hangman.sol\":11915:11943  i < bytes(maskedWord).length */\n      lt\n        /* \"contracts/hangman.sol\":11898:12276  for (uint i = 0; i < bytes(maskedWord).length; i++) {... */\n      iszero\n      tag_261\n      jumpi\n        /* \"contracts/hangman.sol\":11985:11997  voted_letter */\n      dup6\n        /* \"contracts/hangman.sol\":11968:11997  maskedWord[i] == voted_letter */\n      not(0xffffffffffffffffffffffffffffffffffffffffffffffffffffffffffffff)\n      and\n        /* \"contracts/hangman.sol\":11968:11978  maskedWord */\n      dup3\n        /* \"contracts/hangman.sol\":11979:11980  i */\n      dup3\n        /* \"contracts/hangman.sol\":11968:11981  maskedWord[i] */\n      dup2\n      mload\n      dup2\n      lt\n      tag_263\n      jumpi\n      tag_264\n      tag_86\n      jump\t// in\n    tag_264:\n    tag_263:\n      0x20\n      add\n      add\n      mload\n      0xf8\n      shr\n      0xf8\n      shl\n        /* \"contracts/hangman.sol\":11968:11997  maskedWord[i] == voted_letter */\n      not(0xffffffffffffffffffffffffffffffffffffffffffffffffffffffffffffff)\n      and\n      sub\n        /* \"contracts/hangman.sol\":11964:12266  if (maskedWord[i] == voted_letter) {... */\n      tag_265\n      jumpi\n        /* \"contracts/hangman.sol\":12053:12057  true */\n      0x01\n        /* \"contracts/hangman.sol\":12017:12021  game */\n      dup9\n        /* \"contracts/hangman.sol\":12017:12036  game.guessedLetters */\n      0x06\n      add\n        /* \"contracts/hangman.sol\":12017:12050  game.guessedLetters[voted_letter] */\n      0x00\n        /* \"contracts/hangman.sol\":12037:12049  voted_letter */\n      dup9\n        /* \"contracts/hangman.sol\":12017:12050  game.guessedLetters[voted_letter] */\n      not(0xffffffffffffffffffffffffffffffffffffffffffffffffffffffffffffff)\n      and\n      not(0xffffffffffffffffffffffffffffffffffffffffffffffffffffffffffffff)\n      and\n      dup2\n      mstore\n      0x20\n      add\n      swap1\n      dup2\n      mstore\n      0x20\n      add\n      0x00\n      keccak256\n      0x00\n        /* \"contracts/hangman.sol\":12017:12057  game.guessedLetters[voted_letter] = true */\n      0x0100\n      exp\n      dup2\n      sload\n      dup2\n      0xff\n      mul\n      not\n      and\n      swap1\n      dup4\n      iszero\n      iszero\n      mul\n      or\n      swap1\n      sstore\n      pop\n        /* \"contracts/hangman.sol\":12101:12105  true */\n      0x01\n        /* \"contracts/hangman.sol\":12075:12079  game */\n      dup9\n        /* \"contracts/hangman.sol\":12075:12095  game.revealedLetters */\n      0x04\n      add\n        /* \"contracts/hangman.sol\":12096:12097  i */\n      dup3\n        /* \"contracts/hangman.sol\":12075:12098  game.revealedLetters[i] */\n      dup2\n      sload\n      dup2\n      lt\n      tag_266\n      jumpi\n      tag_267\n      tag_86\n      jump\t// in\n    tag_267:\n    tag_266:\n      swap1\n      0x00\n      mstore\n      keccak256(0x00, 0x20)\n      swap1\n      0x20\n      swap2\n      dup3\n      dup3\n      div\n      add\n      swap2\n      swap1\n      mod\n        /* \"contracts/hangman.sol\":12075:12105  game.revealedLetters[i] = true */\n      0x0100\n      exp\n      dup2\n      sload\n      dup2\n      0xff\n      mul\n      not\n      and\n      swap1\n      dup4\n      iszero\n      iszero\n      mul\n      or\n      swap1\n      sstore\n      pop\n        /* \"contracts/hangman.sol\":12129:12133  true */\n      0x01\n        /* \"contracts/hangman.sol\":12123:12133  hit = true */\n      swap4\n      pop\n        /* \"contracts/hangman.sol\":11964:12266  if (maskedWord[i] == voted_letter) {... */\n      jump(tag_269)\n    tag_265:\n        /* \"contracts/hangman.sol\":12159:12163  game */\n      dup8\n        /* \"contracts/hangman.sol\":12159:12179  game.revealedLetters */\n      0x04\n      add\n        /* \"contracts/hangman.sol\":12180:12181  i */\n      dup2\n        /* \"contracts/hangman.sol\":12159:12182  game.revealedLetters[i] */\n      dup2\n      sload\n      dup2\n      lt\n      tag_270\n      jumpi\n      tag_271\n      tag_86\n      jump\t// in\n    tag_271:\n    tag_270:\n      swap1\n      0x00\n      mstore\n      keccak256(0x00, 0x20)\n      swap1\n      0x20\n      swap2\n      dup3\n      dup3\n      div\n      add\n      swap2\n      swap1\n      mod\n      swap1\n      sload\n      swap1\n      0x0100\n      exp\n      swap1\n      div\n      0xff\n      and\n        /* \"contracts/hangman.sol\":12154:12266  if (!game.revealedLetters[i]) {... */\n      tag_273\n      jumpi\n        /* \"contracts/hangman.sol\":12202:12221  maskedWord[i] = \"_\" */\n      0x5f00000000000000000000000000000000000000000000000000000000000000\n        /* \"contracts/hangman.sol\":12202:12212  maskedWord */\n      dup3\n        /* \"contracts/hangman.sol\":12213:12214  i */\n      dup3\n        /* \"contracts/hangman.sol\":12202:12215  maskedWord[i] */\n      dup2\n      mload\n      dup2\n      lt\n      tag_274\n      jumpi\n      tag_275\n      tag_86\n      jump\t// in\n    tag_275:\n    tag_274:\n      0x20\n      add\n      add\n        /* \"contracts/hangman.sol\":12202:12221  maskedWord[i] = \"_\" */\n      swap1\n      not(0xffffffffffffffffffffffffffffffffffffffffffffffffffffffffffffff)\n      and\n      swap1\n      dup2\n      0x00\n      byte\n      swap1\n      mstore8\n      pop\n        /* \"contracts/hangman.sol\":12246:12251  false */\n      0x00\n        /* \"contracts/hangman.sol\":12239:12251  done = false */\n      swap5\n      pop\n        /* \"contracts/hangman.sol\":12154:12266  if (!game.revealedLetters[i]) {... */\n    tag_273:\n        /* \"contracts/hangman.sol\":11964:12266  if (maskedWord[i] == voted_letter) {... */\n    tag_269:\n        /* \"contracts/hangman.sol\":11945:11948  i++ */\n      dup1\n      dup1\n      0x01\n      add\n      swap2\n      pop\n      pop\n        /* \"contracts/hangman.sol\":11898:12276  for (uint i = 0; i < bytes(maskedWord).length; i++) {... */\n      jump(tag_260)\n    tag_261:\n      pop\n        /* \"contracts/hangman.sol\":12293:12297  game */\n      dup7\n        /* \"contracts/hangman.sol\":12293:12302  game.vote */\n      0x08\n      add\n      0x00\n        /* \"contracts/hangman.sol\":12286:12302  delete game.vote */\n      dup1\n      dup3\n      add\n      exp(0x0100, 0x00)\n      dup2\n      sload\n      swap1\n      0xff\n      mul\n      not\n      and\n      swap1\n      sstore\n      0x01\n      dup3\n      add\n      0x00\n      swap1\n      sstore\n      0x02\n      dup3\n      add\n      exp(0x0100, 0x00)\n      dup2\n      sload\n      swap1\n      0xff\n      mul\n      not\n      and\n      swap1\n      sstore\n      0x03\n      dup3\n      add\n      0x00\n      tag_276\n      swap2\n      swap1\n      tag_277\n      jump\t// in\n    tag_276:\n      pop\n      pop\n        /* \"contracts/hangman.sol\":12327:12331  game */\n      dup7\n        /* \"contracts/hangman.sol\":12327:12338  game.gameID */\n      0x00\n      add\n        /* \"contracts/hangman.sol\":12317:12379  VoteEnded(game.gameID, voted_letter, string(maskedWord), !hit) */\n      mload(0x40)\n      tag_278\n      swap2\n      swap1\n      tag_279\n      jump\t// in\n    tag_278:\n      mload(0x40)\n      dup1\n      swap2\n      sub\n      swap1\n      keccak256\n      0x93484660649cf971864763c1bc0e0d0f5d7fdceeb388472825d299f8283268de\n        /* \"contracts/hangman.sol\":12340:12352  voted_letter */\n      dup7\n        /* \"contracts/hangman.sol\":12361:12371  maskedWord */\n      dup4\n        /* \"contracts/hangman.sol\":12375:12378  hit */\n      dup7\n        /* \"contracts/hangman.sol\":12374:12378  !hit */\n      iszero\n        /* \"contracts/hangman.sol\":12317:12379  VoteEnded(game.gameID, voted_letter, string(maskedWord), !hit) */\n      mload(0x40)\n      tag_280\n      swap4\n      swap3\n      swap2\n      swap1\n      tag_281\n      jump\t// in\n    tag_280:\n      mload(0x40)\n      dup1\n      swap2\n      sub\n      swap1\n      log2\n        /* \"contracts/hangman.sol\":12394:12397  hit */\n      dup3\n        /* \"contracts/hangman.sol\":12389:12628  if (!hit) {... */\n      tag_282\n      jumpi\n        /* \"contracts/hangman.sol\":12432:12433  1 */\n      0x01\n        /* \"contracts/hangman.sol\":12413:12417  game */\n      dup8\n        /* \"contracts/hangman.sol\":12413:12428  game.guessCount */\n      0x05\n      add\n      0x00\n        /* \"contracts/hangman.sol\":12413:12433  game.guessCount += 1 */\n      dup3\n      dup3\n      dup3\n      swap1\n      sload\n      swap1\n      0x0100\n      exp\n      swap1\n      div\n      0xff\n      and\n      tag_283\n      swap2\n      swap1\n      tag_240\n      jump\t// in\n    tag_283:\n      swap3\n      pop\n      0x0100\n      exp\n      dup2\n      sload\n      dup2\n      0xff\n      mul\n      not\n      and\n      swap1\n      dup4\n      0xff\n      and\n      mul\n      or\n      swap1\n      sstore\n      pop\n        /* \"contracts/hangman.sol\":322:323  6 */\n      0x06\n        /* \"contracts/hangman.sol\":12451:12481  game.guessCount == MAX_GUESSES */\n      0xff\n      and\n        /* \"contracts/hangman.sol\":12451:12455  game */\n      dup8\n        /* \"contracts/hangman.sol\":12451:12466  game.guessCount */\n      0x05\n      add\n      0x00\n      swap1\n      sload\n      swap1\n      0x0100\n      exp\n      swap1\n      div\n      0xff\n      and\n        /* \"contracts/hangman.sol\":12451:12481  game.guessCount == MAX_GUESSES */\n      0xff\n      and\n      sub\n        /* \"contracts/hangman.sol\":12447:12547  if (game.guessCount == MAX_GUESSES) {... */\n      tag_284\n      jumpi\n        /* \"contracts/hangman.sol\":12501:12532  _endGame(game, GameResult.LOST) */\n      tag_285\n        /* \"contracts/hangman.sol\":12510:12514  game */\n      dup8\n        /* \"contracts/hangman.sol\":12516:12531  GameResult.LOST */\n      0x01\n        /* \"contracts/hangman.sol\":12501:12509  _endGame */\n      tag_160\n        /* \"contracts/hangman.sol\":12501:12532  _endGame(game, GameResult.LOST) */\n      jump\t// in\n    tag_285:\n        /* \"contracts/hangman.sol\":12447:12547  if (game.guessCount == MAX_GUESSES) {... */\n    tag_284:\n        /* \"contracts/hangman.sol\":12389:12628  if (!hit) {... */\n      jump(tag_286)\n    tag_282:\n        /* \"contracts/hangman.sol\":12567:12571  done */\n      dup4\n        /* \"contracts/hangman.sol\":12563:12628  if (done) {... */\n      iszero\n      tag_287\n      jumpi\n        /* \"contracts/hangman.sol\":12587:12617  _endGame(game, GameResult.WON) */\n      tag_288\n        /* \"contracts/hangman.sol\":12596:12600  game */\n      dup8\n        /* \"contracts/hangman.sol\":12602:12616  GameResult.WON */\n      0x00\n        /* \"contracts/hangman.sol\":12587:12595  _endGame */\n      tag_160\n        /* \"contracts/hangman.sol\":12587:12617  _endGame(game, GameResult.WON) */\n      jump\t// in\n    tag_288:\n        /* \"contracts/hangman.sol\":12563:12628  if (done) {... */\n    tag_287:\n        /* \"contracts/hangman.sol\":12389:12628  if (!hit) {... */\n    tag_286:\n        /* \"contracts/hangman.sol\":11370:12634  {... */\n      pop\n      pop\n      pop\n      pop\n      pop\n      pop\n        /* \"contracts/hangman.sol\":11325:12634  function _endVote(Game storage game) private {... */\n      pop\n      jump\t// out\n        /* \"contracts/hangman.sol\":12794:13315  function _removePlayerFromGame(Game storage game, address player) private {... */\n    tag_157:\n        /* \"contracts/hangman.sol\":12902:12907  false */\n      0x00\n        /* \"contracts/hangman.sol\":12878:12882  game */\n      dup3\n        /* \"contracts/hangman.sol\":12878:12891  game.isPlayer */\n      0x02\n      add\n        /* \"contracts/hangman.sol\":12878:12899  game.isPlayer[player] */\n      0x00\n        /* \"contracts/hangman.sol\":12892:12898  player */\n      dup4\n        /* \"contracts/hangman.sol\":12878:12899  game.isPlayer[player] */\n      0xffffffffffffffffffffffffffffffffffffffff\n      and\n      0xffffffffffffffffffffffffffffffffffffffff\n      and\n      dup2\n      mstore\n      0x20\n      add\n      swap1\n      dup2\n      mstore\n      0x20\n      add\n      0x00\n      keccak256\n      0x00\n        /* \"contracts/hangman.sol\":12878:12907  game.isPlayer[player] = false */\n      0x0100\n      exp\n      dup2\n      sload\n      dup2\n      0xff\n      mul\n      not\n      and\n      swap1\n      dup4\n      iszero\n      iszero\n      mul\n      or\n      swap1\n      sstore\n      pop\n        /* \"contracts/hangman.sol\":12940:12941  1 */\n      0x01\n        /* \"contracts/hangman.sol\":12917:12921  game */\n      dup3\n        /* \"contracts/hangman.sol\":12917:12936  game.currentPlayers */\n      0x01\n      add\n      0x15\n        /* \"contracts/hangman.sol\":12917:12941  game.currentPlayers -= 1 */\n      dup3\n      dup3\n      dup3\n      swap1\n      sload\n      swap1\n      0x0100\n      exp\n      swap1\n      div\n      0xff\n      and\n      tag_290\n      swap2\n      swap1\n      tag_83\n      jump\t// in\n    tag_290:\n      swap3\n      pop\n      0x0100\n      exp\n      dup2\n      sload\n      dup2\n      0xff\n      mul\n      not\n      and\n      swap1\n      dup4\n      0xff\n      and\n      mul\n      or\n      swap1\n      sstore\n      pop\n        /* \"contracts/hangman.sol\":12986:13003  Vote storage vote */\n      0x00\n        /* \"contracts/hangman.sol\":13006:13010  game */\n      dup3\n        /* \"contracts/hangman.sol\":13006:13015  game.vote */\n      0x08\n      add\n        /* \"contracts/hangman.sol\":12986:13015  Vote storage vote = game.vote */\n      swap1\n      pop\n        /* \"contracts/hangman.sol\":13051:13052  0 */\n      0x00\n        /* \"contracts/hangman.sol\":13029:13033  game */\n      dup4\n        /* \"contracts/hangman.sol\":13029:13048  game.currentPlayers */\n      0x01\n      add\n      0x15\n      swap1\n      sload\n      swap1\n      0x0100\n      exp\n      swap1\n      div\n      0xff\n      and\n        /* \"contracts/hangman.sol\":13029:13052  game.currentPlayers > 0 */\n      0xff\n      and\n      gt\n        /* \"contracts/hangman.sol\":13029:13073  game.currentPlayers > 0 && vote.votingActive */\n      dup1\n      iszero\n      tag_291\n      jumpi\n      pop\n        /* \"contracts/hangman.sol\":13056:13060  vote */\n      dup1\n        /* \"contracts/hangman.sol\":13056:13073  vote.votingActive */\n      0x00\n      add\n      0x00\n      swap1\n      sload\n      swap1\n      0x0100\n      exp\n      swap1\n      div\n      0xff\n      and\n        /* \"contracts/hangman.sol\":13029:13073  game.currentPlayers > 0 && vote.votingActive */\n    tag_291:\n        /* \"contracts/hangman.sol\":13029:13106  game.currentPlayers > 0 && vote.votingActive && vote.playerVotes[player] != 0 */\n      dup1\n      iszero\n      tag_292\n      jumpi\n      pop\n        /* \"contracts/hangman.sol\":13105:13106  0 */\n      0x00\n        /* \"contracts/hangman.sol\":13077:13106  vote.playerVotes[player] != 0 */\n      0xf8\n      shl\n        /* \"contracts/hangman.sol\":13077:13081  vote */\n      dup2\n        /* \"contracts/hangman.sol\":13077:13093  vote.playerVotes */\n      0x08\n      add\n        /* \"contracts/hangman.sol\":13077:13101  vote.playerVotes[player] */\n      0x00\n        /* \"contracts/hangman.sol\":13094:13100  player */\n      dup5\n        /* \"contracts/hangman.sol\":13077:13101  vote.playerVotes[player] */\n      0xffffffffffffffffffffffffffffffffffffffff\n      and\n      0xffffffffffffffffffffffffffffffffffffffff\n      and\n      dup2\n      mstore\n      0x20\n      add\n      swap1\n      dup2\n      mstore\n      0x20\n      add\n      0x00\n      keccak256\n      0x00\n      swap1\n      sload\n      swap1\n      0x0100\n      exp\n      swap1\n      div\n      0xf8\n      shl\n        /* \"contracts/hangman.sol\":13077:13106  vote.playerVotes[player] != 0 */\n      not(0xffffffffffffffffffffffffffffffffffffffffffffffffffffffffffffff)\n      and\n      eq\n      iszero\n        /* \"contracts/hangman.sol\":13029:13106  game.currentPlayers > 0 && vote.votingActive && vote.playerVotes[player] != 0 */\n    tag_292:\n        /* \"contracts/hangman.sol\":13025:13175  if (game.currentPlayers > 0 && vote.votingActive && vote.playerVotes[player] != 0) {... */\n      iszero\n      tag_293\n      jumpi\n        /* \"contracts/hangman.sol\":13122:13164  _unregisterVote(game.gameID, vote, player) */\n      tag_294\n        /* \"contracts/hangman.sol\":13138:13142  game */\n      dup4\n        /* \"contracts/hangman.sol\":13138:13149  game.gameID */\n      0x00\n      add\n        /* \"contracts/hangman.sol\":13151:13155  vote */\n      dup3\n        /* \"contracts/hangman.sol\":13157:13163  player */\n      dup5\n        /* \"contracts/hangman.sol\":13122:13137  _unregisterVote */\n      tag_295\n        /* \"contracts/hangman.sol\":13122:13164  _unregisterVote(game.gameID, vote, player) */\n      jump\t// in\n    tag_294:\n        /* \"contracts/hangman.sol\":13025:13175  if (game.currentPlayers > 0 && vote.votingActive && vote.playerVotes[player] != 0) {... */\n    tag_293:\n        /* \"contracts/hangman.sol\":13205:13211  player */\n      dup2\n        /* \"contracts/hangman.sol\":13189:13211  game.creator == player */\n      0xffffffffffffffffffffffffffffffffffffffff\n      and\n        /* \"contracts/hangman.sol\":13189:13193  game */\n      dup4\n        /* \"contracts/hangman.sol\":13189:13201  game.creator */\n      0x01\n      add\n      0x00\n      swap1\n      sload\n      swap1\n      0x0100\n      exp\n      swap1\n      div\n      0xffffffffffffffffffffffffffffffffffffffff\n      and\n        /* \"contracts/hangman.sol\":13189:13211  game.creator == player */\n      0xffffffffffffffffffffffffffffffffffffffff\n      and\n      sub\n        /* \"contracts/hangman.sol\":13185:13263  if (game.creator == player) {... */\n      tag_296\n      jumpi\n        /* \"contracts/hangman.sol\":13250:13251  0 */\n      0x00\n        /* \"contracts/hangman.sol\":13227:13231  game */\n      dup4\n        /* \"contracts/hangman.sol\":13227:13239  game.creator */\n      0x01\n      add\n      0x00\n        /* \"contracts/hangman.sol\":13227:13252  game.creator = address(0) */\n      0x0100\n      exp\n      dup2\n      sload\n      dup2\n      0xffffffffffffffffffffffffffffffffffffffff\n      mul\n      not\n      and\n      swap1\n      dup4\n      0xffffffffffffffffffffffffffffffffffffffff\n      and\n      mul\n      or\n      swap1\n      sstore\n      pop\n        /* \"contracts/hangman.sol\":13185:13263  if (game.creator == player) {... */\n    tag_296:\n        /* \"contracts/hangman.sol\":13301:13307  player */\n      dup2\n        /* \"contracts/hangman.sol\":13277:13308  PlayerLeft(game.gameID, player) */\n      0xffffffffffffffffffffffffffffffffffffffff\n      and\n        /* \"contracts/hangman.sol\":13288:13292  game */\n      dup4\n        /* \"contracts/hangman.sol\":13288:13299  game.gameID */\n      0x00\n      add\n        /* \"contracts/hangman.sol\":13277:13308  PlayerLeft(game.gameID, player) */\n      mload(0x40)\n      tag_297\n      swap2\n      swap1\n      tag_279\n      jump\t// in\n    tag_297:\n      mload(0x40)\n      dup1\n      swap2\n      sub\n      swap1\n      keccak256\n      0xe3c5754d381588d73abe5a3ea491352ae6599bc3517832567c983a64f1fcb85b\n      mload(0x40)\n      mload(0x40)\n      dup1\n      swap2\n      sub\n      swap1\n      log3\n        /* \"contracts/hangman.sol\":12868:13315  {... */\n      pop\n        /* \"contracts/hangman.sol\":12794:13315  function _removePlayerFromGame(Game storage game, address player) private {... */\n      pop\n      pop\n      jump\t// out\n        /* \"contracts/hangman.sol\":9826:10083  function _endGame(Game storage game, GameResult result) private {... */\n    tag_160:\n        /* \"contracts/hangman.sol\":9915:9919  game */\n      dup2\n        /* \"contracts/hangman.sol\":9915:9926  game.gameID */\n      0x00\n      add\n        /* \"contracts/hangman.sol\":9905:9952  GameEnded(game.gameID, result, game.hiddenWord) */\n      mload(0x40)\n      tag_299\n      swap2\n      swap1\n      tag_279\n      jump\t// in\n    tag_299:\n      mload(0x40)\n      dup1\n      swap2\n      sub\n      swap1\n      keccak256\n      0x3d40bf146111cf2fb1681f012b4ced47c0260037f37ac76366766d0d20e1689d\n        /* \"contracts/hangman.sol\":9928:9934  result */\n      dup3\n        /* \"contracts/hangman.sol\":9936:9940  game */\n      dup5\n        /* \"contracts/hangman.sol\":9936:9951  game.hiddenWord */\n      0x03\n      add\n        /* \"contracts/hangman.sol\":9905:9952  GameEnded(game.gameID, result, game.hiddenWord) */\n      mload(0x40)\n      tag_300\n      swap3\n      swap2\n      swap1\n      tag_301\n      jump\t// in\n    tag_300:\n      mload(0x40)\n      dup1\n      swap2\n      sub\n      swap1\n      log2\n        /* \"contracts/hangman.sol\":9962:9973  uint8 index */\n      0x00\n        /* \"contracts/hangman.sol\":9976:9988  getGameIndex */\n      0x5b\n        /* \"contracts/hangman.sol\":9989:9993  game */\n      dup4\n        /* \"contracts/hangman.sol\":9989:10000  game.gameID */\n      0x00\n      add\n        /* \"contracts/hangman.sol\":9976:10001  getGameIndex[game.gameID] */\n      mload(0x40)\n      tag_302\n      swap2\n      swap1\n      tag_279\n      jump\t// in\n    tag_302:\n      swap1\n      dup2\n      mstore\n      0x20\n      add\n      mload(0x40)\n      dup1\n      swap2\n      sub\n      swap1\n      keccak256\n      0x00\n      swap1\n      sload\n      swap1\n      0x0100\n      exp\n      swap1\n      div\n      0xff\n      and\n        /* \"contracts/hangman.sol\":9962:10001  uint8 index = getGameIndex[game.gameID] */\n      swap1\n      pop\n        /* \"contracts/hangman.sol\":10018:10030  getGameIndex */\n      0x5b\n        /* \"contracts/hangman.sol\":10031:10035  game */\n      dup4\n        /* \"contracts/hangman.sol\":10031:10042  game.gameID */\n      0x00\n      add\n        /* \"contracts/hangman.sol\":10018:10043  getGameIndex[game.gameID] */\n      mload(0x40)\n      tag_303\n      swap2\n      swap1\n      tag_279\n      jump\t// in\n    tag_303:\n      swap1\n      dup2\n      mstore\n      0x20\n      add\n      mload(0x40)\n      dup1\n      swap2\n      sub\n      swap1\n      keccak256\n      0x00\n        /* \"contracts/hangman.sol\":10011:10043  delete getGameIndex[game.gameID] */\n      0x0100\n      exp\n      dup2\n      sload\n      swap1\n      0xff\n      mul\n      not\n      and\n      swap1\n      sstore\n        /* \"contracts/hangman.sol\":10060:10065  games */\n      0x01\n        /* \"contracts/hangman.sol\":10074:10075  1 */\n      dup1\n        /* \"contracts/hangman.sol\":10066:10071  index */\n      dup3\n        /* \"contracts/hangman.sol\":10066:10075  index - 1 */\n      tag_304\n      swap2\n      swap1\n      tag_83\n      jump\t// in\n    tag_304:\n        /* \"contracts/hangman.sol\":10060:10076  games[index - 1] */\n      0xff\n      and\n      0x05\n      dup2\n      lt\n      tag_305\n      jumpi\n      tag_306\n      tag_86\n      jump\t// in\n    tag_306:\n    tag_305:\n      0x12\n      mul\n      add\n      0x00\n        /* \"contracts/hangman.sol\":10053:10076  delete games[index - 1] */\n      dup1\n      dup3\n      add\n      0x00\n      tag_308\n      swap2\n      swap1\n      tag_309\n      jump\t// in\n    tag_308:\n      0x01\n      dup3\n      add\n      exp(0x0100, 0x00)\n      dup2\n      sload\n      swap1\n      0xffffffffffffffffffffffffffffffffffffffff\n      mul\n      not\n      and\n      swap1\n      sstore\n      0x01\n      dup3\n      add\n      exp(0x0100, 0x14)\n      dup2\n      sload\n      swap1\n      0xff\n      mul\n      not\n      and\n      swap1\n      sstore\n      0x01\n      dup3\n      add\n      exp(0x0100, 0x15)\n      dup2\n      sload\n      swap1\n      0xff\n      mul\n      not\n      and\n      swap1\n      sstore\n      0x03\n      dup3\n      add\n      0x00\n      tag_310\n      swap2\n      swap1\n      tag_309\n      jump\t// in\n    tag_310:\n      0x04\n      dup3\n      add\n      0x00\n      tag_311\n      swap2\n      swap1\n      tag_312\n      jump\t// in\n    tag_311:\n      0x05\n      dup3\n      add\n      exp(0x0100, 0x00)\n      dup2\n      sload\n      swap1\n      0xff\n      mul\n      not\n      and\n      swap1\n      sstore\n      0x07\n      dup3\n      add\n      0x00\n      swap1\n      sstore\n      0x08\n      dup3\n      add\n      0x00\n      dup1\n      dup3\n      add\n      exp(0x0100, 0x00)\n      dup2\n      sload\n      swap1\n      0xff\n      mul\n      not\n      and\n      swap1\n      sstore\n      0x01\n      dup3\n      add\n      0x00\n      swap1\n      sstore\n      0x02\n      dup3\n      add\n      exp(0x0100, 0x00)\n      dup2\n      sload\n      swap1\n      0xff\n      mul\n      not\n      and\n      swap1\n      sstore\n      0x03\n      dup3\n      add\n      0x00\n      tag_313\n      swap2\n      swap1\n      tag_277\n      jump\t// in\n    tag_313:\n      pop\n      pop\n      pop\n      pop\n        /* \"contracts/hangman.sol\":9890:10083  {... */\n      pop\n        /* \"contracts/hangman.sol\":9826:10083  function _endGame(Game storage game, GameResult result) private {... */\n      pop\n      pop\n      jump\t// out\n        /* \"contracts/hangman.sol\":9338:9821  function _allocateGame() private returns (uint8) {... */\n    tag_204:\n        /* \"contracts/hangman.sol\":9380:9385  uint8 */\n      0x00\n        /* \"contracts/hangman.sol\":9402:9409  uint8 i */\n      dup1\n        /* \"contracts/hangman.sol\":9412:9413  0 */\n      0x00\n        /* \"contracts/hangman.sol\":9402:9413  uint8 i = 0 */\n      swap1\n      pop\n        /* \"contracts/hangman.sol\":9397:9797  for (uint8 i = 0; i < games.length; i++) {... */\n    tag_315:\n        /* \"contracts/hangman.sol\":9419:9431  games.length */\n      0x05\n        /* \"contracts/hangman.sol\":9415:9416  i */\n      dup2\n        /* \"contracts/hangman.sol\":9415:9431  i < games.length */\n      0xff\n      and\n      lt\n        /* \"contracts/hangman.sol\":9397:9797  for (uint8 i = 0; i < games.length; i++) {... */\n      iszero\n      tag_316\n      jumpi\n        /* \"contracts/hangman.sol\":9452:9469  Game storage game */\n      0x00\n        /* \"contracts/hangman.sol\":9472:9477  games */\n      0x01\n        /* \"contracts/hangman.sol\":9478:9479  i */\n      dup3\n        /* \"contracts/hangman.sol\":9472:9480  games[i] */\n      0xff\n      and\n      0x05\n      dup2\n      lt\n      tag_318\n      jumpi\n      tag_319\n      tag_86\n      jump\t// in\n    tag_319:\n    tag_318:\n      0x12\n      mul\n      add\n        /* \"contracts/hangman.sol\":9452:9480  Game storage game = games[i] */\n      swap1\n      pop\n        /* \"contracts/hangman.sol\":9527:9528  0 */\n      0x00\n        /* \"contracts/hangman.sol\":9498:9510  getGameIndex */\n      0x5b\n        /* \"contracts/hangman.sol\":9511:9515  game */\n      dup3\n        /* \"contracts/hangman.sol\":9511:9522  game.gameID */\n      0x00\n      add\n        /* \"contracts/hangman.sol\":9498:9523  getGameIndex[game.gameID] */\n      mload(0x40)\n      tag_321\n      swap2\n      swap1\n      tag_279\n      jump\t// in\n    tag_321:\n      swap1\n      dup2\n      mstore\n      0x20\n      add\n      mload(0x40)\n      dup1\n      swap2\n      sub\n      swap1\n      keccak256\n      0x00\n      swap1\n      sload\n      swap1\n      0x0100\n      exp\n      swap1\n      div\n      0xff\n      and\n        /* \"contracts/hangman.sol\":9498:9528  getGameIndex[game.gameID] == 0 */\n      0xff\n      and\n      sub\n        /* \"contracts/hangman.sol\":9494:9542  if (getGameIndex[game.gameID] == 0) return i + 1 */\n      tag_322\n      jumpi\n        /* \"contracts/hangman.sol\":9541:9542  1 */\n      0x01\n        /* \"contracts/hangman.sol\":9537:9538  i */\n      dup3\n        /* \"contracts/hangman.sol\":9537:9542  i + 1 */\n      tag_323\n      swap2\n      swap1\n      tag_240\n      jump\t// in\n    tag_323:\n        /* \"contracts/hangman.sol\":9530:9542  return i + 1 */\n      swap3\n      pop\n      pop\n      pop\n      jump(tag_314)\n        /* \"contracts/hangman.sol\":9494:9542  if (getGameIndex[game.gameID] == 0) return i + 1 */\n    tag_322:\n        /* \"contracts/hangman.sol\":376:386  15 minutes */\n      0x0384\n        /* \"contracts/hangman.sol\":9639:9643  game */\n      dup2\n        /* \"contracts/hangman.sol\":9639:9663  game.lastActionTimestamp */\n      0x07\n      add\n      sload\n        /* \"contracts/hangman.sol\":9621:9636  block.timestamp */\n      timestamp\n        /* \"contracts/hangman.sol\":9621:9663  block.timestamp - game.lastActionTimestamp */\n      tag_324\n      swap2\n      swap1\n      tag_133\n      jump\t// in\n    tag_324:\n        /* \"contracts/hangman.sol\":9621:9686  block.timestamp - game.lastActionTimestamp > INACTIVITY_THRESHOLD */\n      gt\n        /* \"contracts/hangman.sol\":9617:9787  if (block.timestamp - game.lastActionTimestamp > INACTIVITY_THRESHOLD) {... */\n      iszero\n      tag_325\n      jumpi\n        /* \"contracts/hangman.sol\":9706:9742  _endGame(game, GameResult.CANCELLED) */\n      tag_326\n        /* \"contracts/hangman.sol\":9715:9719  game */\n      dup2\n        /* \"contracts/hangman.sol\":9721:9741  GameResult.CANCELLED */\n      0x02\n        /* \"contracts/hangman.sol\":9706:9714  _endGame */\n      tag_160\n        /* \"contracts/hangman.sol\":9706:9742  _endGame(game, GameResult.CANCELLED) */\n      jump\t// in\n    tag_326:\n        /* \"contracts/hangman.sol\":9771:9772  1 */\n      0x01\n        /* \"contracts/hangman.sol\":9767:9768  i */\n      dup3\n        /* \"contracts/hangman.sol\":9767:9772  i + 1 */\n      tag_327\n      swap2\n      swap1\n      tag_240\n      jump\t// in\n    tag_327:\n        /* \"contracts/hangman.sol\":9760:9772  return i + 1 */\n      swap3\n      pop\n      pop\n      pop\n      jump(tag_314)\n        /* \"contracts/hangman.sol\":9617:9787  if (block.timestamp - game.lastActionTimestamp > INACTIVITY_THRESHOLD) {... */\n    tag_325:\n        /* \"contracts/hangman.sol\":9438:9797  {... */\n      pop\n        /* \"contracts/hangman.sol\":9433:9436  i++ */\n      dup1\n      dup1\n      tag_328\n      swap1\n      tag_329\n      jump\t// in\n    tag_328:\n      swap2\n      pop\n      pop\n        /* \"contracts/hangman.sol\":9397:9797  for (uint8 i = 0; i < games.length; i++) {... */\n      jump(tag_315)\n    tag_316:\n      pop\n        /* \"contracts/hangman.sol\":9813:9814  0 */\n      0x00\n        /* \"contracts/hangman.sol\":9806:9814  return 0 */\n      swap1\n      pop\n        /* \"contracts/hangman.sol\":9338:9821  function _allocateGame() private returns (uint8) {... */\n    tag_314:\n      swap1\n      jump\t// out\n        /* \"contracts/hangman.sol\":12640:12788  function _addPlayerToGame(Game storage game, address player) private {... */\n    tag_234:\n        /* \"contracts/hangman.sol\":12743:12747  true */\n      0x01\n        /* \"contracts/hangman.sol\":12719:12723  game */\n      dup3\n        /* \"contracts/hangman.sol\":12719:12732  game.isPlayer */\n      0x02\n      add\n        /* \"contracts/hangman.sol\":12719:12740  game.isPlayer[player] */\n      0x00\n        /* \"contracts/hangman.sol\":12733:12739  player */\n      dup4\n        /* \"contracts/hangman.sol\":12719:12740  game.isPlayer[player] */\n      0xffffffffffffffffffffffffffffffffffffffff\n      and\n      0xffffffffffffffffffffffffffffffffffffffff\n      and\n      dup2\n      mstore\n      0x20\n      add\n      swap1\n      dup2\n      mstore\n      0x20\n      add\n      0x00\n      keccak256\n      0x00\n        /* \"contracts/hangman.sol\":12719:12747  game.isPlayer[player] = true */\n      0x0100\n      exp\n      dup2\n      sload\n      dup2\n      0xff\n      mul\n      not\n      and\n      swap1\n      dup4\n      iszero\n      iszero\n      mul\n      or\n      swap1\n      sstore\n      pop\n        /* \"contracts/hangman.sol\":12780:12781  1 */\n      0x01\n        /* \"contracts/hangman.sol\":12757:12761  game */\n      dup3\n        /* \"contracts/hangman.sol\":12757:12776  game.currentPlayers */\n      0x01\n      add\n      0x15\n        /* \"contracts/hangman.sol\":12757:12781  game.currentPlayers += 1 */\n      dup3\n      dup3\n      dup3\n      swap1\n      sload\n      swap1\n      0x0100\n      exp\n      swap1\n      div\n      0xff\n      and\n      tag_331\n      swap2\n      swap1\n      tag_240\n      jump\t// in\n    tag_331:\n      swap3\n      pop\n      0x0100\n      exp\n      dup2\n      sload\n      dup2\n      0xff\n      mul\n      not\n      and\n      swap1\n      dup4\n      0xff\n      and\n      mul\n      or\n      swap1\n      sstore\n      pop\n        /* \"contracts/hangman.sol\":12640:12788  function _addPlayerToGame(Game storage game, address player) private {... */\n      pop\n      pop\n      jump\t// out\n        /* \"contracts/hangman.sol\":10598:11319  function _unregisterVote(string storage gameID, Vote storage vote, address player) private {... */\n    tag_295:\n        /* \"contracts/hangman.sol\":10699:10712  bytes1 letter */\n      0x00\n        /* \"contracts/hangman.sol\":10715:10719  vote */\n      dup3\n        /* \"contracts/hangman.sol\":10715:10731  vote.playerVotes */\n      0x08\n      add\n        /* \"contracts/hangman.sol\":10715:10739  vote.playerVotes[player] */\n      0x00\n        /* \"contracts/hangman.sol\":10732:10738  player */\n      dup4\n        /* \"contracts/hangman.sol\":10715:10739  vote.playerVotes[player] */\n      0xffffffffffffffffffffffffffffffffffffffff\n      and\n      0xffffffffffffffffffffffffffffffffffffffff\n      and\n      dup2\n      mstore\n      0x20\n      add\n      swap1\n      dup2\n      mstore\n      0x20\n      add\n      0x00\n      keccak256\n      0x00\n      swap1\n      sload\n      swap1\n      0x0100\n      exp\n      swap1\n      div\n      0xf8\n      shl\n        /* \"contracts/hangman.sol\":10699:10739  bytes1 letter = vote.playerVotes[player] */\n      swap1\n      pop\n        /* \"contracts/hangman.sol\":10776:10777  0 */\n      0x00\n        /* \"contracts/hangman.sol\":10749:10777  vote.playerVotes[player] = 0 */\n      0xf8\n      shl\n        /* \"contracts/hangman.sol\":10749:10753  vote */\n      dup4\n        /* \"contracts/hangman.sol\":10749:10765  vote.playerVotes */\n      0x08\n      add\n        /* \"contracts/hangman.sol\":10749:10773  vote.playerVotes[player] */\n      0x00\n        /* \"contracts/hangman.sol\":10766:10772  player */\n      dup5\n        /* \"contracts/hangman.sol\":10749:10773  vote.playerVotes[player] */\n      0xffffffffffffffffffffffffffffffffffffffff\n      and\n      0xffffffffffffffffffffffffffffffffffffffff\n      and\n      dup2\n      mstore\n      0x20\n      add\n      swap1\n      dup2\n      mstore\n      0x20\n      add\n      0x00\n      keccak256\n      0x00\n        /* \"contracts/hangman.sol\":10749:10777  vote.playerVotes[player] = 0 */\n      0x0100\n      exp\n      dup2\n      sload\n      dup2\n      0xff\n      mul\n      not\n      and\n      swap1\n      dup4\n      0xf8\n      shr\n      mul\n      or\n      swap1\n      sstore\n      pop\n        /* \"contracts/hangman.sol\":10787:10796  bool move */\n      0x00\n        /* \"contracts/hangman.sol\":10819:10825  uint i */\n      dup1\n        /* \"contracts/hangman.sol\":10814:11229  for (uint i = 0; i < vote.voteCount; i++) {... */\n    tag_333:\n        /* \"contracts/hangman.sol\":10835:10839  vote */\n      dup5\n        /* \"contracts/hangman.sol\":10835:10849  vote.voteCount */\n      0x02\n      add\n      0x00\n      swap1\n      sload\n      swap1\n      0x0100\n      exp\n      swap1\n      div\n      0xff\n      and\n        /* \"contracts/hangman.sol\":10831:10849  i < vote.voteCount */\n      0xff\n      and\n        /* \"contracts/hangman.sol\":10831:10832  i */\n      dup2\n        /* \"contracts/hangman.sol\":10831:10849  i < vote.voteCount */\n      lt\n        /* \"contracts/hangman.sol\":10814:11229  for (uint i = 0; i < vote.voteCount; i++) {... */\n      iszero\n      tag_334\n      jumpi\n        /* \"contracts/hangman.sol\":10898:10904  player */\n      dup4\n        /* \"contracts/hangman.sol\":10874:10904  vote.playersVoted[i] == player */\n      0xffffffffffffffffffffffffffffffffffffffff\n      and\n        /* \"contracts/hangman.sol\":10874:10878  vote */\n      dup6\n        /* \"contracts/hangman.sol\":10874:10891  vote.playersVoted */\n      0x03\n      add\n        /* \"contracts/hangman.sol\":10892:10893  i */\n      dup3\n        /* \"contracts/hangman.sol\":10874:10894  vote.playersVoted[i] */\n      0x05\n      dup2\n      lt\n      tag_336\n      jumpi\n      tag_337\n      tag_86\n      jump\t// in\n    tag_337:\n    tag_336:\n      add\n      0x00\n      swap1\n      sload\n      swap1\n      0x0100\n      exp\n      swap1\n      div\n      0xffffffffffffffffffffffffffffffffffffffff\n      and\n        /* \"contracts/hangman.sol\":10874:10904  vote.playersVoted[i] == player */\n      0xffffffffffffffffffffffffffffffffffffffff\n      and\n      sub\n        /* \"contracts/hangman.sol\":10870:11219  if (vote.playersVoted[i] == player) {... */\n      tag_339\n      jumpi\n        /* \"contracts/hangman.sol\":10955:10956  0 */\n      0x00\n        /* \"contracts/hangman.sol\":10924:10928  vote */\n      dup6\n        /* \"contracts/hangman.sol\":10924:10941  vote.playersVoted */\n      0x03\n      add\n        /* \"contracts/hangman.sol\":10942:10943  i */\n      dup3\n        /* \"contracts/hangman.sol\":10924:10944  vote.playersVoted[i] */\n      0x05\n      dup2\n      lt\n      tag_340\n      jumpi\n      tag_341\n      tag_86\n      jump\t// in\n    tag_341:\n    tag_340:\n      add\n      0x00\n        /* \"contracts/hangman.sol\":10924:10957  vote.playersVoted[i] = address(0) */\n      0x0100\n      exp\n      dup2\n      sload\n      dup2\n      0xffffffffffffffffffffffffffffffffffffffff\n      mul\n      not\n      and\n      swap1\n      dup4\n      0xffffffffffffffffffffffffffffffffffffffff\n      and\n      mul\n      or\n      swap1\n      sstore\n      pop\n        /* \"contracts/hangman.sol\":10982:10986  true */\n      0x01\n        /* \"contracts/hangman.sol\":10975:10986  move = true */\n      swap2\n      pop\n        /* \"contracts/hangman.sol\":11004:11012  continue */\n      jump(tag_335)\n        /* \"contracts/hangman.sol\":10870:11219  if (vote.playersVoted[i] == player) {... */\n    tag_339:\n        /* \"contracts/hangman.sol\":11037:11041  move */\n      dup2\n        /* \"contracts/hangman.sol\":11033:11219  if (move) {... */\n      iszero\n      tag_344\n      jumpi\n        /* \"contracts/hangman.sol\":11061:11072  address tmp */\n      0x00\n        /* \"contracts/hangman.sol\":11075:11079  vote */\n      dup6\n        /* \"contracts/hangman.sol\":11075:11092  vote.playersVoted */\n      0x03\n      add\n        /* \"contracts/hangman.sol\":11095:11096  1 */\n      0x01\n        /* \"contracts/hangman.sol\":11093:11094  i */\n      dup4\n        /* \"contracts/hangman.sol\":11093:11096  i-1 */\n      tag_345\n      swap2\n      swap1\n      tag_133\n      jump\t// in\n    tag_345:\n        /* \"contracts/hangman.sol\":11075:11097  vote.playersVoted[i-1] */\n      0x05\n      dup2\n      lt\n      tag_346\n      jumpi\n      tag_347\n      tag_86\n      jump\t// in\n    tag_347:\n    tag_346:\n      add\n      0x00\n      swap1\n      sload\n      swap1\n      0x0100\n      exp\n      swap1\n      div\n      0xffffffffffffffffffffffffffffffffffffffff\n      and\n        /* \"contracts/hangman.sol\":11061:11097  address tmp = vote.playersVoted[i-1] */\n      swap1\n      pop\n        /* \"contracts/hangman.sol\":11140:11144  vote */\n      dup6\n        /* \"contracts/hangman.sol\":11140:11157  vote.playersVoted */\n      0x03\n      add\n        /* \"contracts/hangman.sol\":11158:11159  i */\n      dup3\n        /* \"contracts/hangman.sol\":11140:11160  vote.playersVoted[i] */\n      0x05\n      dup2\n      lt\n      tag_349\n      jumpi\n      tag_350\n      tag_86\n      jump\t// in\n    tag_350:\n    tag_349:\n      add\n      0x00\n      swap1\n      sload\n      swap1\n      0x0100\n      exp\n      swap1\n      div\n      0xffffffffffffffffffffffffffffffffffffffff\n      and\n        /* \"contracts/hangman.sol\":11115:11119  vote */\n      dup7\n        /* \"contracts/hangman.sol\":11115:11132  vote.playersVoted */\n      0x03\n      add\n        /* \"contracts/hangman.sol\":11135:11136  1 */\n      0x01\n        /* \"contracts/hangman.sol\":11133:11134  i */\n      dup5\n        /* \"contracts/hangman.sol\":11133:11136  i-1 */\n      tag_352\n      swap2\n      swap1\n      tag_133\n      jump\t// in\n    tag_352:\n        /* \"contracts/hangman.sol\":11115:11137  vote.playersVoted[i-1] */\n      0x05\n      dup2\n      lt\n      tag_353\n      jumpi\n      tag_354\n      tag_86\n      jump\t// in\n    tag_354:\n    tag_353:\n      add\n      0x00\n        /* \"contracts/hangman.sol\":11115:11160  vote.playersVoted[i-1] = vote.playersVoted[i] */\n      0x0100\n      exp\n      dup2\n      sload\n      dup2\n      0xffffffffffffffffffffffffffffffffffffffff\n      mul\n      not\n      and\n      swap1\n      dup4\n      0xffffffffffffffffffffffffffffffffffffffff\n      and\n      mul\n      or\n      swap1\n      sstore\n      pop\n        /* \"contracts/hangman.sol\":11201:11204  tmp */\n      dup1\n        /* \"contracts/hangman.sol\":11178:11182  vote */\n      dup7\n        /* \"contracts/hangman.sol\":11178:11195  vote.playersVoted */\n      0x03\n      add\n        /* \"contracts/hangman.sol\":11196:11197  i */\n      dup4\n        /* \"contracts/hangman.sol\":11178:11198  vote.playersVoted[i] */\n      0x05\n      dup2\n      lt\n      tag_356\n      jumpi\n      tag_357\n      tag_86\n      jump\t// in\n    tag_357:\n    tag_356:\n      add\n      0x00\n        /* \"contracts/hangman.sol\":11178:11204  vote.playersVoted[i] = tmp */\n      0x0100\n      exp\n      dup2\n      sload\n      dup2\n      0xffffffffffffffffffffffffffffffffffffffff\n      mul\n      not\n      and\n      swap1\n      dup4\n      0xffffffffffffffffffffffffffffffffffffffff\n      and\n      mul\n      or\n      swap1\n      sstore\n      pop\n        /* \"contracts/hangman.sol\":11043:11219  {... */\n      pop\n        /* \"contracts/hangman.sol\":11033:11219  if (move) {... */\n    tag_344:\n        /* \"contracts/hangman.sol\":10814:11229  for (uint i = 0; i < vote.voteCount; i++) {... */\n    tag_335:\n        /* \"contracts/hangman.sol\":10851:10854  i++ */\n      dup1\n      dup1\n      0x01\n      add\n      swap2\n      pop\n      pop\n        /* \"contracts/hangman.sol\":10814:11229  for (uint i = 0; i < vote.voteCount; i++) {... */\n      jump(tag_333)\n    tag_334:\n      pop\n        /* \"contracts/hangman.sol\":11256:11257  1 */\n      0x01\n        /* \"contracts/hangman.sol\":11238:11242  vote */\n      dup5\n        /* \"contracts/hangman.sol\":11238:11252  vote.voteCount */\n      0x02\n      add\n      0x00\n        /* \"contracts/hangman.sol\":11238:11257  vote.voteCount -= 1 */\n      dup3\n      dup3\n      dup3\n      swap1\n      sload\n      swap1\n      0x0100\n      exp\n      swap1\n      div\n      0xff\n      and\n      tag_359\n      swap2\n      swap1\n      tag_83\n      jump\t// in\n    tag_359:\n      swap3\n      pop\n      0x0100\n      exp\n      dup2\n      sload\n      dup2\n      0xff\n      mul\n      not\n      and\n      swap1\n      dup4\n      0xff\n      and\n      mul\n      or\n      swap1\n      sstore\n      pop\n        /* \"contracts/hangman.sol\":11297:11303  player */\n      dup3\n        /* \"contracts/hangman.sol\":11272:11312  VoteUnregistered(gameID, player, letter) */\n      0xffffffffffffffffffffffffffffffffffffffff\n      and\n      0xe11e7b01cdd17c8c7ab41ed7897874e6a229485a77cc445646517fdac64e75bc\n        /* \"contracts/hangman.sol\":11289:11295  gameID */\n      dup7\n        /* \"contracts/hangman.sol\":11305:11311  letter */\n      dup5\n        /* \"contracts/hangman.sol\":11272:11312  VoteUnregistered(gameID, player, letter) */\n      mload(0x40)\n      tag_360\n      swap3\n      swap2\n      swap1\n      tag_246\n      jump\t// in\n    tag_360:\n      mload(0x40)\n      dup1\n      swap2\n      sub\n      swap1\n      log2\n        /* \"contracts/hangman.sol\":10689:11319  {... */\n      pop\n      pop\n        /* \"contracts/hangman.sol\":10598:11319  function _unregisterVote(string storage gameID, Vote storage vote, address player) private {... */\n      pop\n      pop\n      pop\n      jump\t// out\n    tag_229:\n      dup3\n      dup1\n      sload\n      dup3\n      dup3\n      sstore\n      swap1\n      0x00\n      mstore\n      keccak256(0x00, 0x20)\n      swap1\n      0x1f\n      add\n      0x20\n      swap1\n      div\n      dup2\n      add\n      swap3\n      dup3\n      iszero\n      tag_361\n      jumpi\n      swap2\n      0x20\n      mul\n      dup3\n      add\n      0x00\n    tag_362:\n      dup4\n      dup3\n      gt\n      iszero\n      tag_363\n      jumpi\n      dup4\n      mload\n      dup4\n      dup3\n      0x0100\n      exp\n      dup2\n      sload\n      dup2\n      0xff\n      mul\n      not\n      and\n      swap1\n      dup4\n      iszero\n      iszero\n      mul\n      or\n      swap1\n      sstore\n      pop\n      swap3\n      0x20\n      add\n      swap3\n      0x01\n      add\n      0x20\n      dup2\n      0x00\n      add\n      div\n      swap3\n      dup4\n      add\n      swap3\n      0x01\n      sub\n      mul\n      jump(tag_362)\n    tag_363:\n      dup1\n      iszero\n      tag_364\n      jumpi\n      dup3\n      dup2\n      0x0100\n      exp\n      dup2\n      sload\n      swap1\n      0xff\n      mul\n      not\n      and\n      swap1\n      sstore\n      0x01\n      add\n      0x20\n      dup2\n      0x00\n      add\n      div\n      swap3\n      dup4\n      add\n      swap3\n      0x01\n      sub\n      mul\n      jump(tag_363)\n    tag_364:\n      pop\n    tag_361:\n      pop\n      swap1\n      pop\n      tag_365\n      swap2\n      swap1\n      tag_366\n      jump\t// in\n    tag_365:\n      pop\n      swap1\n      jump\t// out\n    tag_277:\n      pop\n      0x00\n      dup2\n      sstore\n      0x01\n      add\n      0x00\n      dup2\n      sstore\n      0x01\n      add\n      0x00\n      dup2\n      sstore\n      0x01\n      add\n      0x00\n      dup2\n      sstore\n      0x01\n      add\n      0x00\n      swap1\n      sstore\n      jump\t// out\n    tag_309:\n      pop\n      dup1\n      sload\n      tag_367\n      swap1\n      tag_69\n      jump\t// in\n    tag_367:\n      0x00\n      dup3\n      sstore\n      dup1\n      0x1f\n      lt\n      tag_369\n      jumpi\n      pop\n      jump(tag_368)\n    tag_369:\n      0x1f\n      add\n      0x20\n      swap1\n      div\n      swap1\n      0x00\n      mstore\n      keccak256(0x00, 0x20)\n      swap1\n      dup2\n      add\n      swap1\n      tag_370\n      swap2\n      swap1\n      tag_366\n      jump\t// in\n    tag_370:\n    tag_368:\n      pop\n      jump\t// out\n    tag_312:\n      pop\n      dup1\n      sload\n      0x00\n      dup3\n      sstore\n      0x1f\n      add\n      0x20\n      swap1\n      div\n      swap1\n      0x00\n      mstore\n      keccak256(0x00, 0x20)\n      swap1\n      dup2\n      add\n      swap1\n      tag_372\n      swap2\n      swap1\n      tag_366\n      jump\t// in\n    tag_372:\n      pop\n      jump\t// out\n    tag_366:\n    tag_373:\n      dup1\n      dup3\n      gt\n      iszero\n      tag_374\n      jumpi\n      0x00\n      dup2\n      0x00\n      swap1\n      sstore\n      pop\n      0x01\n      add\n      jump(tag_373)\n    tag_374:\n      pop\n      swap1\n      jump\t// out\n        /* \"#utility.yul\":7:82   */\n    tag_375:\n        /* \"#utility.yul\":40:46   */\n      0x00\n        /* \"#utility.yul\":73:75   */\n      0x40\n        /* \"#utility.yul\":67:76   */\n      mload\n        /* \"#utility.yul\":57:76   */\n      swap1\n      pop\n        /* \"#utility.yul\":7:82   */\n      swap1\n      jump\t// out\n        /* \"#utility.yul\":88:205   */\n    tag_376:\n        /* \"#utility.yul\":197:198   */\n      0x00\n        /* \"#utility.yul\":194:195   */\n      dup1\n        /* \"#utility.yul\":187:199   */\n      revert\n        /* \"#utility.yul\":211:328   */\n    tag_377:\n        /* \"#utility.yul\":320:321   */\n      0x00\n        /* \"#utility.yul\":317:318   */\n      dup1\n        /* \"#utility.yul\":310:322   */\n      revert\n        /* \"#utility.yul\":334:411   */\n    tag_378:\n        /* \"#utility.yul\":371:378   */\n      0x00\n        /* \"#utility.yul\":400:405   */\n      dup2\n        /* \"#utility.yul\":389:405   */\n      swap1\n      pop\n        /* \"#utility.yul\":334:411   */\n      swap2\n      swap1\n      pop\n      jump\t// out\n        /* \"#utility.yul\":417:539   */\n    tag_379:\n        /* \"#utility.yul\":490:514   */\n      tag_474\n        /* \"#utility.yul\":508:513   */\n      dup2\n        /* \"#utility.yul\":490:514   */\n      tag_378\n      jump\t// in\n    tag_474:\n        /* \"#utility.yul\":483:488   */\n      dup2\n        /* \"#utility.yul\":480:515   */\n      eq\n        /* \"#utility.yul\":470:533   */\n      tag_475\n      jumpi\n        /* \"#utility.yul\":529:530   */\n      0x00\n        /* \"#utility.yul\":526:527   */\n      dup1\n        /* \"#utility.yul\":519:531   */\n      revert\n        /* \"#utility.yul\":470:533   */\n    tag_475:\n        /* \"#utility.yul\":417:539   */\n      pop\n      jump\t// out\n        /* \"#utility.yul\":545:684   */\n    tag_380:\n        /* \"#utility.yul\":591:596   */\n      0x00\n        /* \"#utility.yul\":629:635   */\n      dup2\n        /* \"#utility.yul\":616:636   */\n      calldataload\n        /* \"#utility.yul\":607:636   */\n      swap1\n      pop\n        /* \"#utility.yul\":645:678   */\n      tag_477\n        /* \"#utility.yul\":672:677   */\n      dup2\n        /* \"#utility.yul\":645:678   */\n      tag_379\n      jump\t// in\n    tag_477:\n        /* \"#utility.yul\":545:684   */\n      swap3\n      swap2\n      pop\n      pop\n      jump\t// out\n        /* \"#utility.yul\":690:1019   */\n    tag_20:\n        /* \"#utility.yul\":749:755   */\n      0x00\n        /* \"#utility.yul\":798:800   */\n      0x20\n        /* \"#utility.yul\":786:795   */\n      dup3\n        /* \"#utility.yul\":777:784   */\n      dup5\n        /* \"#utility.yul\":773:796   */\n      sub\n        /* \"#utility.yul\":769:801   */\n      slt\n        /* \"#utility.yul\":766:885   */\n      iszero\n      tag_479\n      jumpi\n        /* \"#utility.yul\":804:883   */\n      tag_480\n      tag_376\n      jump\t// in\n    tag_480:\n        /* \"#utility.yul\":766:885   */\n    tag_479:\n        /* \"#utility.yul\":924:925   */\n      0x00\n        /* \"#utility.yul\":949:1002   */\n      tag_481\n        /* \"#utility.yul\":994:1001   */\n      dup5\n        /* \"#utility.yul\":985:991   */\n      dup3\n        /* \"#utility.yul\":974:983   */\n      dup6\n        /* \"#utility.yul\":970:992   */\n      add\n        /* \"#utility.yul\":949:1002   */\n      tag_380\n      jump\t// in\n    tag_481:\n        /* \"#utility.yul\":939:1002   */\n      swap2\n      pop\n        /* \"#utility.yul\":895:1012   */\n      pop\n        /* \"#utility.yul\":690:1019   */\n      swap3\n      swap2\n      pop\n      pop\n      jump\t// out\n        /* \"#utility.yul\":1025:1124   */\n    tag_381:\n        /* \"#utility.yul\":1077:1083   */\n      0x00\n        /* \"#utility.yul\":1111:1116   */\n      dup2\n        /* \"#utility.yul\":1105:1117   */\n      mload\n        /* \"#utility.yul\":1095:1117   */\n      swap1\n      pop\n        /* \"#utility.yul\":1025:1124   */\n      swap2\n      swap1\n      pop\n      jump\t// out\n        /* \"#utility.yul\":1130:1299   */\n    tag_382:\n        /* \"#utility.yul\":1214:1225   */\n      0x00\n        /* \"#utility.yul\":1248:1254   */\n      dup3\n        /* \"#utility.yul\":1243:1246   */\n      dup3\n        /* \"#utility.yul\":1236:1255   */\n      mstore\n        /* \"#utility.yul\":1288:1292   */\n      0x20\n        /* \"#utility.yul\":1283:1286   */\n      dup3\n        /* \"#utility.yul\":1279:1293   */\n      add\n        /* \"#utility.yul\":1264:1293   */\n      swap1\n      pop\n        /* \"#utility.yul\":1130:1299   */\n      swap3\n      swap2\n      pop\n      pop\n      jump\t// out\n        /* \"#utility.yul\":1305:1444   */\n    tag_383:\n        /* \"#utility.yul\":1394:1400   */\n      dup3\n        /* \"#utility.yul\":1389:1392   */\n      dup2\n        /* \"#utility.yul\":1384:1387   */\n      dup4\n        /* \"#utility.yul\":1378:1401   */\n      mcopy\n        /* \"#utility.yul\":1435:1436   */\n      0x00\n        /* \"#utility.yul\":1426:1432   */\n      dup4\n        /* \"#utility.yul\":1421:1424   */\n      dup4\n        /* \"#utility.yul\":1417:1433   */\n      add\n        /* \"#utility.yul\":1410:1437   */\n      mstore\n        /* \"#utility.yul\":1305:1444   */\n      pop\n      pop\n      pop\n      jump\t// out\n        /* \"#utility.yul\":1450:1552   */\n    tag_384:\n        /* \"#utility.yul\":1491:1497   */\n      0x00\n        /* \"#utility.yul\":1542:1544   */\n      0x1f\n        /* \"#utility.yul\":1538:1545   */\n      not\n        /* \"#utility.yul\":1533:1535   */\n      0x1f\n        /* \"#utility.yul\":1526:1531   */\n      dup4\n        /* \"#utility.yul\":1522:1536   */\n      add\n        /* \"#utility.yul\":1518:1546   */\n      and\n        /* \"#utility.yul\":1508:1546   */\n      swap1\n      pop\n        /* \"#utility.yul\":1450:1552   */\n      swap2\n      swap1\n      pop\n      jump\t// out\n        /* \"#utility.yul\":1558:1935   */\n    tag_385:\n        /* \"#utility.yul\":1646:1649   */\n      0x00\n        /* \"#utility.yul\":1674:1713   */\n      tag_487\n        /* \"#utility.yul\":1707:1712   */\n      dup3\n        /* \"#utility.yul\":1674:1713   */\n      tag_381\n      jump\t// in\n    tag_487:\n        /* \"#utility.yul\":1729:1800   */\n      tag_488\n        /* \"#utility.yul\":1793:1799   */\n      dup2\n        /* \"#utility.yul\":1788:1791   */\n      dup6\n        /* \"#utility.yul\":1729:1800   */\n      tag_382\n      jump\t// in\n    tag_488:\n        /* \"#utility.yul\":1722:1800   */\n      swap4\n      pop\n        /* \"#utility.yul\":1809:1874   */\n      tag_489\n        /* \"#utility.yul\":1867:1873   */\n      dup2\n        /* \"#utility.yul\":1862:1865   */\n      dup6\n        /* \"#utility.yul\":1855:1859   */\n      0x20\n        /* \"#utility.yul\":1848:1853   */\n      dup7\n        /* \"#utility.yul\":1844:1860   */\n      add\n        /* \"#utility.yul\":1809:1874   */\n      tag_383\n      jump\t// in\n    tag_489:\n        /* \"#utility.yul\":1899:1928   */\n      tag_490\n        /* \"#utility.yul\":1921:1927   */\n      dup2\n        /* \"#utility.yul\":1899:1928   */\n      tag_384\n      jump\t// in\n    tag_490:\n        /* \"#utility.yul\":1894:1897   */\n      dup5\n        /* \"#utility.yul\":1890:1929   */\n      add\n        /* \"#utility.yul\":1883:1929   */\n      swap2\n      pop\n        /* \"#utility.yul\":1650:1935   */\n      pop\n        /* \"#utility.yul\":1558:1935   */\n      swap3\n      swap2\n      pop\n      pop\n      jump\t// out\n        /* \"#utility.yul\":1941:2254   */\n    tag_23:\n        /* \"#utility.yul\":2054:2058   */\n      0x00\n        /* \"#utility.yul\":2092:2094   */\n      0x20\n        /* \"#utility.yul\":2081:2090   */\n      dup3\n        /* \"#utility.yul\":2077:2095   */\n      add\n        /* \"#utility.yul\":2069:2095   */\n      swap1\n      pop\n        /* \"#utility.yul\":2141:2150   */\n      dup2\n        /* \"#utility.yul\":2135:2139   */\n      dup2\n        /* \"#utility.yul\":2131:2151   */\n      sub\n        /* \"#utility.yul\":2127:2128   */\n      0x00\n        /* \"#utility.yul\":2116:2125   */\n      dup4\n        /* \"#utility.yul\":2112:2129   */\n      add\n        /* \"#utility.yul\":2105:2152   */\n      mstore\n        /* \"#utility.yul\":2169:2247   */\n      tag_492\n        /* \"#utility.yul\":2242:2246   */\n      dup2\n        /* \"#utility.yul\":2233:2239   */\n      dup5\n        /* \"#utility.yul\":2169:2247   */\n      tag_385\n      jump\t// in\n    tag_492:\n        /* \"#utility.yul\":2161:2247   */\n      swap1\n      pop\n        /* \"#utility.yul\":1941:2254   */\n      swap3\n      swap2\n      pop\n      pop\n      jump\t// out\n        /* \"#utility.yul\":2260:2377   */\n    tag_386:\n        /* \"#utility.yul\":2369:2370   */\n      0x00\n        /* \"#utility.yul\":2366:2367   */\n      dup1\n        /* \"#utility.yul\":2359:2371   */\n      revert\n        /* \"#utility.yul\":2383:2500   */\n    tag_387:\n        /* \"#utility.yul\":2492:2493   */\n      0x00\n        /* \"#utility.yul\":2489:2490   */\n      dup1\n        /* \"#utility.yul\":2482:2494   */\n      revert\n        /* \"#utility.yul\":2506:2686   */\n    tag_226:\n        /* \"#utility.yul\":2554:2631   */\n      0x4e487b7100000000000000000000000000000000000000000000000000000000\n        /* \"#utility.yul\":2551:2552   */\n      0x00\n        /* \"#utility.yul\":2544:2632   */\n      mstore\n        /* \"#utility.yul\":2651:2655   */\n      0x41\n        /* \"#utility.yul\":2648:2649   */\n      0x04\n        /* \"#utility.yul\":2641:2656   */\n      mstore\n        /* \"#utility.yul\":2675:2679   */\n      0x24\n        /* \"#utility.yul\":2672:2673   */\n      0x00\n        /* \"#utility.yul\":2665:2680   */\n      revert\n        /* \"#utility.yul\":2692:2973   */\n    tag_388:\n        /* \"#utility.yul\":2775:2802   */\n      tag_497\n        /* \"#utility.yul\":2797:2801   */\n      dup3\n        /* \"#utility.yul\":2775:2802   */\n      tag_384\n      jump\t// in\n    tag_497:\n        /* \"#utility.yul\":2767:2773   */\n      dup2\n        /* \"#utility.yul\":2763:2803   */\n      add\n        /* \"#utility.yul\":2905:2911   */\n      dup2\n        /* \"#utility.yul\":2893:2903   */\n      dup2\n        /* \"#utility.yul\":2890:2912   */\n      lt\n        /* \"#utility.yul\":2869:2887   */\n      0xffffffffffffffff\n        /* \"#utility.yul\":2857:2867   */\n      dup3\n        /* \"#utility.yul\":2854:2888   */\n      gt\n        /* \"#utility.yul\":2851:2913   */\n      or\n        /* \"#utility.yul\":2848:2936   */\n      iszero\n      tag_498\n      jumpi\n        /* \"#utility.yul\":2916:2934   */\n      tag_499\n      tag_226\n      jump\t// in\n    tag_499:\n        /* \"#utility.yul\":2848:2936   */\n    tag_498:\n        /* \"#utility.yul\":2956:2966   */\n      dup1\n        /* \"#utility.yul\":2952:2954   */\n      0x40\n        /* \"#utility.yul\":2945:2967   */\n      mstore\n        /* \"#utility.yul\":2735:2973   */\n      pop\n        /* \"#utility.yul\":2692:2973   */\n      pop\n      pop\n      jump\t// out\n        /* \"#utility.yul\":2979:3108   */\n    tag_389:\n        /* \"#utility.yul\":3013:3019   */\n      0x00\n        /* \"#utility.yul\":3040:3060   */\n      tag_501\n      tag_375\n      jump\t// in\n    tag_501:\n        /* \"#utility.yul\":3030:3060   */\n      swap1\n      pop\n        /* \"#utility.yul\":3069:3102   */\n      tag_502\n        /* \"#utility.yul\":3097:3101   */\n      dup3\n        /* \"#utility.yul\":3089:3095   */\n      dup3\n        /* \"#utility.yul\":3069:3102   */\n      tag_388\n      jump\t// in\n    tag_502:\n        /* \"#utility.yul\":2979:3108   */\n      swap2\n      swap1\n      pop\n      jump\t// out\n        /* \"#utility.yul\":3114:3422   */\n    tag_390:\n        /* \"#utility.yul\":3176:3180   */\n      0x00\n        /* \"#utility.yul\":3266:3284   */\n      0xffffffffffffffff\n        /* \"#utility.yul\":3258:3264   */\n      dup3\n        /* \"#utility.yul\":3255:3285   */\n      gt\n        /* \"#utility.yul\":3252:3308   */\n      iszero\n      tag_504\n      jumpi\n        /* \"#utility.yul\":3288:3306   */\n      tag_505\n      tag_226\n      jump\t// in\n    tag_505:\n        /* \"#utility.yul\":3252:3308   */\n    tag_504:\n        /* \"#utility.yul\":3326:3355   */\n      tag_506\n        /* \"#utility.yul\":3348:3354   */\n      dup3\n        /* \"#utility.yul\":3326:3355   */\n      tag_384\n      jump\t// in\n    tag_506:\n        /* \"#utility.yul\":3318:3355   */\n      swap1\n      pop\n        /* \"#utility.yul\":3410:3414   */\n      0x20\n        /* \"#utility.yul\":3404:3408   */\n      dup2\n        /* \"#utility.yul\":3400:3415   */\n      add\n        /* \"#utility.yul\":3392:3415   */\n      swap1\n      pop\n        /* \"#utility.yul\":3114:3422   */\n      swap2\n      swap1\n      pop\n      jump\t// out\n        /* \"#utility.yul\":3428:3576   */\n    tag_391:\n        /* \"#utility.yul\":3526:3532   */\n      dup3\n        /* \"#utility.yul\":3521:3524   */\n      dup2\n        /* \"#utility.yul\":3516:3519   */\n      dup4\n        /* \"#utility.yul\":3503:3533   */\n      calldatacopy\n        /* \"#utility.yul\":3567:3568   */\n      0x00\n        /* \"#utility.yul\":3558:3564   */\n      dup4\n        /* \"#utility.yul\":3553:3556   */\n      dup4\n        /* \"#utility.yul\":3549:3565   */\n      add\n        /* \"#utility.yul\":3542:3569   */\n      mstore\n        /* \"#utility.yul\":3428:3576   */\n      pop\n      pop\n      pop\n      jump\t// out\n        /* \"#utility.yul\":3582:4007   */\n    tag_392:\n        /* \"#utility.yul\":3660:3665   */\n      0x00\n        /* \"#utility.yul\":3685:3751   */\n      tag_509\n        /* \"#utility.yul\":3701:3750   */\n      tag_510\n        /* \"#utility.yul\":3743:3749   */\n      dup5\n        /* \"#utility.yul\":3701:3750   */\n      tag_390\n      jump\t// in\n    tag_510:\n        /* \"#utility.yul\":3685:3751   */\n      tag_389\n      jump\t// in\n    tag_509:\n        /* \"#utility.yul\":3676:3751   */\n      swap1\n      pop\n        /* \"#utility.yul\":3774:3780   */\n      dup3\n        /* \"#utility.yul\":3767:3772   */\n      dup2\n        /* \"#utility.yul\":3760:3781   */\n      mstore\n        /* \"#utility.yul\":3812:3816   */\n      0x20\n        /* \"#utility.yul\":3805:3810   */\n      dup2\n        /* \"#utility.yul\":3801:3817   */\n      add\n        /* \"#utility.yul\":3850:3853   */\n      dup5\n        /* \"#utility.yul\":3841:3847   */\n      dup5\n        /* \"#utility.yul\":3836:3839   */\n      dup5\n        /* \"#utility.yul\":3832:3848   */\n      add\n        /* \"#utility.yul\":3829:3854   */\n      gt\n        /* \"#utility.yul\":3826:3938   */\n      iszero\n      tag_511\n      jumpi\n        /* \"#utility.yul\":3857:3936   */\n      tag_512\n      tag_387\n      jump\t// in\n    tag_512:\n        /* \"#utility.yul\":3826:3938   */\n    tag_511:\n        /* \"#utility.yul\":3947:4001   */\n      tag_513\n        /* \"#utility.yul\":3994:4000   */\n      dup5\n        /* \"#utility.yul\":3989:3992   */\n      dup3\n        /* \"#utility.yul\":3984:3987   */\n      dup6\n        /* \"#utility.yul\":3947:4001   */\n      tag_391\n      jump\t// in\n    tag_513:\n        /* \"#utility.yul\":3666:4007   */\n      pop\n        /* \"#utility.yul\":3582:4007   */\n      swap4\n      swap3\n      pop\n      pop\n      pop\n      jump\t// out\n        /* \"#utility.yul\":4027:4367   */\n    tag_393:\n        /* \"#utility.yul\":4083:4088   */\n      0x00\n        /* \"#utility.yul\":4132:4135   */\n      dup3\n        /* \"#utility.yul\":4125:4129   */\n      0x1f\n        /* \"#utility.yul\":4117:4123   */\n      dup4\n        /* \"#utility.yul\":4113:4130   */\n      add\n        /* \"#utility.yul\":4109:4136   */\n      slt\n        /* \"#utility.yul\":4099:4221   */\n      tag_515\n      jumpi\n        /* \"#utility.yul\":4140:4219   */\n      tag_516\n      tag_386\n      jump\t// in\n    tag_516:\n        /* \"#utility.yul\":4099:4221   */\n    tag_515:\n        /* \"#utility.yul\":4257:4263   */\n      dup2\n        /* \"#utility.yul\":4244:4264   */\n      calldataload\n        /* \"#utility.yul\":4282:4361   */\n      tag_517\n        /* \"#utility.yul\":4357:4360   */\n      dup5\n        /* \"#utility.yul\":4349:4355   */\n      dup3\n        /* \"#utility.yul\":4342:4346   */\n      0x20\n        /* \"#utility.yul\":4334:4340   */\n      dup7\n        /* \"#utility.yul\":4330:4347   */\n      add\n        /* \"#utility.yul\":4282:4361   */\n      tag_392\n      jump\t// in\n    tag_517:\n        /* \"#utility.yul\":4273:4361   */\n      swap2\n      pop\n        /* \"#utility.yul\":4089:4367   */\n      pop\n        /* \"#utility.yul\":4027:4367   */\n      swap3\n      swap2\n      pop\n      pop\n      jump\t// out\n        /* \"#utility.yul\":4373:4882   */\n    tag_26:\n        /* \"#utility.yul\":4442:4448   */\n      0x00\n        /* \"#utility.yul\":4491:4493   */\n      0x20\n        /* \"#utility.yul\":4479:4488   */\n      dup3\n        /* \"#utility.yul\":4470:4477   */\n      dup5\n        /* \"#utility.yul\":4466:4489   */\n      sub\n        /* \"#utility.yul\":4462:4494   */\n      slt\n        /* \"#utility.yul\":4459:4578   */\n      iszero\n      tag_519\n      jumpi\n        /* \"#utility.yul\":4497:4576   */\n      tag_520\n      tag_376\n      jump\t// in\n    tag_520:\n        /* \"#utility.yul\":4459:4578   */\n    tag_519:\n        /* \"#utility.yul\":4645:4646   */\n      0x00\n        /* \"#utility.yul\":4634:4643   */\n      dup3\n        /* \"#utility.yul\":4630:4647   */\n      add\n        /* \"#utility.yul\":4617:4648   */\n      calldataload\n        /* \"#utility.yul\":4675:4693   */\n      0xffffffffffffffff\n        /* \"#utility.yul\":4667:4673   */\n      dup2\n        /* \"#utility.yul\":4664:4694   */\n      gt\n        /* \"#utility.yul\":4661:4778   */\n      iszero\n      tag_521\n      jumpi\n        /* \"#utility.yul\":4697:4776   */\n      tag_522\n      tag_377\n      jump\t// in\n    tag_522:\n        /* \"#utility.yul\":4661:4778   */\n    tag_521:\n        /* \"#utility.yul\":4802:4865   */\n      tag_523\n        /* \"#utility.yul\":4857:4864   */\n      dup5\n        /* \"#utility.yul\":4848:4854   */\n      dup3\n        /* \"#utility.yul\":4837:4846   */\n      dup6\n        /* \"#utility.yul\":4833:4855   */\n      add\n        /* \"#utility.yul\":4802:4865   */\n      tag_393\n      jump\t// in\n    tag_523:\n        /* \"#utility.yul\":4792:4865   */\n      swap2\n      pop\n        /* \"#utility.yul\":4588:4875   */\n      pop\n        /* \"#utility.yul\":4373:4882   */\n      swap3\n      swap2\n      pop\n      pop\n      jump\t// out\n        /* \"#utility.yul\":4888:4974   */\n    tag_394:\n        /* \"#utility.yul\":4923:4930   */\n      0x00\n        /* \"#utility.yul\":4963:4967   */\n      0xff\n        /* \"#utility.yul\":4956:4961   */\n      dup3\n        /* \"#utility.yul\":4952:4968   */\n      and\n        /* \"#utility.yul\":4941:4968   */\n      swap1\n      pop\n        /* \"#utility.yul\":4888:4974   */\n      swap2\n      swap1\n      pop\n      jump\t// out\n        /* \"#utility.yul\":4980:5092   */\n    tag_395:\n        /* \"#utility.yul\":5063:5085   */\n      tag_526\n        /* \"#utility.yul\":5079:5084   */\n      dup2\n        /* \"#utility.yul\":5063:5085   */\n      tag_394\n      jump\t// in\n    tag_526:\n        /* \"#utility.yul\":5058:5061   */\n      dup3\n        /* \"#utility.yul\":5051:5086   */\n      mstore\n        /* \"#utility.yul\":4980:5092   */\n      pop\n      pop\n      jump\t// out\n        /* \"#utility.yul\":5098:5312   */\n    tag_31:\n        /* \"#utility.yul\":5187:5191   */\n      0x00\n        /* \"#utility.yul\":5225:5227   */\n      0x20\n        /* \"#utility.yul\":5214:5223   */\n      dup3\n        /* \"#utility.yul\":5210:5228   */\n      add\n        /* \"#utility.yul\":5202:5228   */\n      swap1\n      pop\n        /* \"#utility.yul\":5238:5305   */\n      tag_528\n        /* \"#utility.yul\":5302:5303   */\n      0x00\n        /* \"#utility.yul\":5291:5300   */\n      dup4\n        /* \"#utility.yul\":5287:5304   */\n      add\n        /* \"#utility.yul\":5278:5284   */\n      dup5\n        /* \"#utility.yul\":5238:5305   */\n      tag_395\n      jump\t// in\n    tag_528:\n        /* \"#utility.yul\":5098:5312   */\n      swap3\n      swap2\n      pop\n      pop\n      jump\t// out\n        /* \"#utility.yul\":5318:5436   */\n    tag_396:\n        /* \"#utility.yul\":5405:5429   */\n      tag_530\n        /* \"#utility.yul\":5423:5428   */\n      dup2\n        /* \"#utility.yul\":5405:5429   */\n      tag_378\n      jump\t// in\n    tag_530:\n        /* \"#utility.yul\":5400:5403   */\n      dup3\n        /* \"#utility.yul\":5393:5430   */\n      mstore\n        /* \"#utility.yul\":5318:5436   */\n      pop\n      pop\n      jump\t// out\n        /* \"#utility.yul\":5442:5664   */\n    tag_41:\n        /* \"#utility.yul\":5535:5539   */\n      0x00\n        /* \"#utility.yul\":5573:5575   */\n      0x20\n        /* \"#utility.yul\":5562:5571   */\n      dup3\n        /* \"#utility.yul\":5558:5576   */\n      add\n        /* \"#utility.yul\":5550:5576   */\n      swap1\n      pop\n        /* \"#utility.yul\":5586:5657   */\n      tag_532\n        /* \"#utility.yul\":5654:5655   */\n      0x00\n        /* \"#utility.yul\":5643:5652   */\n      dup4\n        /* \"#utility.yul\":5639:5656   */\n      add\n        /* \"#utility.yul\":5630:5636   */\n      dup5\n        /* \"#utility.yul\":5586:5657   */\n      tag_396\n      jump\t// in\n    tag_532:\n        /* \"#utility.yul\":5442:5664   */\n      swap3\n      swap2\n      pop\n      pop\n      jump\t// out\n        /* \"#utility.yul\":5670:6504   */\n    tag_51:\n        /* \"#utility.yul\":5758:5764   */\n      0x00\n        /* \"#utility.yul\":5766:5772   */\n      dup1\n        /* \"#utility.yul\":5815:5817   */\n      0x40\n        /* \"#utility.yul\":5803:5812   */\n      dup4\n        /* \"#utility.yul\":5794:5801   */\n      dup6\n        /* \"#utility.yul\":5790:5813   */\n      sub\n        /* \"#utility.yul\":5786:5818   */\n      slt\n        /* \"#utility.yul\":5783:5902   */\n      iszero\n      tag_534\n      jumpi\n        /* \"#utility.yul\":5821:5900   */\n      tag_535\n      tag_376\n      jump\t// in\n    tag_535:\n        /* \"#utility.yul\":5783:5902   */\n    tag_534:\n        /* \"#utility.yul\":5969:5970   */\n      0x00\n        /* \"#utility.yul\":5958:5967   */\n      dup4\n        /* \"#utility.yul\":5954:5971   */\n      add\n        /* \"#utility.yul\":5941:5972   */\n      calldataload\n        /* \"#utility.yul\":5999:6017   */\n      0xffffffffffffffff\n        /* \"#utility.yul\":5991:5997   */\n      dup2\n        /* \"#utility.yul\":5988:6018   */\n      gt\n        /* \"#utility.yul\":5985:6102   */\n      iszero\n      tag_536\n      jumpi\n        /* \"#utility.yul\":6021:6100   */\n      tag_537\n      tag_377\n      jump\t// in\n    tag_537:\n        /* \"#utility.yul\":5985:6102   */\n    tag_536:\n        /* \"#utility.yul\":6126:6189   */\n      tag_538\n        /* \"#utility.yul\":6181:6188   */\n      dup6\n        /* \"#utility.yul\":6172:6178   */\n      dup3\n        /* \"#utility.yul\":6161:6170   */\n      dup7\n        /* \"#utility.yul\":6157:6179   */\n      add\n        /* \"#utility.yul\":6126:6189   */\n      tag_393\n      jump\t// in\n    tag_538:\n        /* \"#utility.yul\":6116:6189   */\n      swap3\n      pop\n        /* \"#utility.yul\":5912:6199   */\n      pop\n        /* \"#utility.yul\":6266:6268   */\n      0x20\n        /* \"#utility.yul\":6255:6264   */\n      dup4\n        /* \"#utility.yul\":6251:6269   */\n      add\n        /* \"#utility.yul\":6238:6270   */\n      calldataload\n        /* \"#utility.yul\":6297:6315   */\n      0xffffffffffffffff\n        /* \"#utility.yul\":6289:6295   */\n      dup2\n        /* \"#utility.yul\":6286:6316   */\n      gt\n        /* \"#utility.yul\":6283:6400   */\n      iszero\n      tag_539\n      jumpi\n        /* \"#utility.yul\":6319:6398   */\n      tag_540\n      tag_377\n      jump\t// in\n    tag_540:\n        /* \"#utility.yul\":6283:6400   */\n    tag_539:\n        /* \"#utility.yul\":6424:6487   */\n      tag_541\n        /* \"#utility.yul\":6479:6486   */\n      dup6\n        /* \"#utility.yul\":6470:6476   */\n      dup3\n        /* \"#utility.yul\":6459:6468   */\n      dup7\n        /* \"#utility.yul\":6455:6477   */\n      add\n        /* \"#utility.yul\":6424:6487   */\n      tag_393\n      jump\t// in\n    tag_541:\n        /* \"#utility.yul\":6414:6487   */\n      swap2\n      pop\n        /* \"#utility.yul\":6209:6497   */\n      pop\n        /* \"#utility.yul\":5670:6504   */\n      swap3\n      pop\n      swap3\n      swap1\n      pop\n      jump\t// out\n        /* \"#utility.yul\":6510:6628   */\n    tag_397:\n        /* \"#utility.yul\":6581:6603   */\n      tag_543\n        /* \"#utility.yul\":6597:6602   */\n      dup2\n        /* \"#utility.yul\":6581:6603   */\n      tag_394\n      jump\t// in\n    tag_543:\n        /* \"#utility.yul\":6574:6579   */\n      dup2\n        /* \"#utility.yul\":6571:6604   */\n      eq\n        /* \"#utility.yul\":6561:6622   */\n      tag_544\n      jumpi\n        /* \"#utility.yul\":6618:6619   */\n      0x00\n        /* \"#utility.yul\":6615:6616   */\n      dup1\n        /* \"#utility.yul\":6608:6620   */\n      revert\n        /* \"#utility.yul\":6561:6622   */\n    tag_544:\n        /* \"#utility.yul\":6510:6628   */\n      pop\n      jump\t// out\n        /* \"#utility.yul\":6634:6769   */\n    tag_398:\n        /* \"#utility.yul\":6678:6683   */\n      0x00\n        /* \"#utility.yul\":6716:6722   */\n      dup2\n        /* \"#utility.yul\":6703:6723   */\n      calldataload\n        /* \"#utility.yul\":6694:6723   */\n      swap1\n      pop\n        /* \"#utility.yul\":6732:6763   */\n      tag_546\n        /* \"#utility.yul\":6757:6762   */\n      dup2\n        /* \"#utility.yul\":6732:6763   */\n      tag_397\n      jump\t// in\n    tag_546:\n        /* \"#utility.yul\":6634:6769   */\n      swap3\n      swap2\n      pop\n      pop\n      jump\t// out\n        /* \"#utility.yul\":6775:7425   */\n    tag_64:\n        /* \"#utility.yul\":6851:6857   */\n      0x00\n        /* \"#utility.yul\":6859:6865   */\n      dup1\n        /* \"#utility.yul\":6908:6910   */\n      0x40\n        /* \"#utility.yul\":6896:6905   */\n      dup4\n        /* \"#utility.yul\":6887:6894   */\n      dup6\n        /* \"#utility.yul\":6883:6906   */\n      sub\n        /* \"#utility.yul\":6879:6911   */\n      slt\n        /* \"#utility.yul\":6876:6995   */\n      iszero\n      tag_548\n      jumpi\n        /* \"#utility.yul\":6914:6993   */\n      tag_549\n      tag_376\n      jump\t// in\n    tag_549:\n        /* \"#utility.yul\":6876:6995   */\n    tag_548:\n        /* \"#utility.yul\":7062:7063   */\n      0x00\n        /* \"#utility.yul\":7051:7060   */\n      dup4\n        /* \"#utility.yul\":7047:7064   */\n      add\n        /* \"#utility.yul\":7034:7065   */\n      calldataload\n        /* \"#utility.yul\":7092:7110   */\n      0xffffffffffffffff\n        /* \"#utility.yul\":7084:7090   */\n      dup2\n        /* \"#utility.yul\":7081:7111   */\n      gt\n        /* \"#utility.yul\":7078:7195   */\n      iszero\n      tag_550\n      jumpi\n        /* \"#utility.yul\":7114:7193   */\n      tag_551\n      tag_377\n      jump\t// in\n    tag_551:\n        /* \"#utility.yul\":7078:7195   */\n    tag_550:\n        /* \"#utility.yul\":7219:7282   */\n      tag_552\n        /* \"#utility.yul\":7274:7281   */\n      dup6\n        /* \"#utility.yul\":7265:7271   */\n      dup3\n        /* \"#utility.yul\":7254:7263   */\n      dup7\n        /* \"#utility.yul\":7250:7272   */\n      add\n        /* \"#utility.yul\":7219:7282   */\n      tag_393\n      jump\t// in\n    tag_552:\n        /* \"#utility.yul\":7209:7282   */\n      swap3\n      pop\n        /* \"#utility.yul\":7005:7292   */\n      pop\n        /* \"#utility.yul\":7331:7333   */\n      0x20\n        /* \"#utility.yul\":7357:7408   */\n      tag_553\n        /* \"#utility.yul\":7400:7407   */\n      dup6\n        /* \"#utility.yul\":7391:7397   */\n      dup3\n        /* \"#utility.yul\":7380:7389   */\n      dup7\n        /* \"#utility.yul\":7376:7398   */\n      add\n        /* \"#utility.yul\":7357:7408   */\n      tag_398\n      jump\t// in\n    tag_553:\n        /* \"#utility.yul\":7347:7408   */\n      swap2\n      pop\n        /* \"#utility.yul\":7302:7418   */\n      pop\n        /* \"#utility.yul\":6775:7425   */\n      swap3\n      pop\n      swap3\n      swap1\n      pop\n      jump\t// out\n        /* \"#utility.yul\":7431:7611   */\n    tag_399:\n        /* \"#utility.yul\":7479:7556   */\n      0x4e487b7100000000000000000000000000000000000000000000000000000000\n        /* \"#utility.yul\":7476:7477   */\n      0x00\n        /* \"#utility.yul\":7469:7557   */\n      mstore\n        /* \"#utility.yul\":7576:7580   */\n      0x22\n        /* \"#utility.yul\":7573:7574   */\n      0x04\n        /* \"#utility.yul\":7566:7581   */\n      mstore\n        /* \"#utility.yul\":7600:7604   */\n      0x24\n        /* \"#utility.yul\":7597:7598   */\n      0x00\n        /* \"#utility.yul\":7590:7605   */\n      revert\n        /* \"#utility.yul\":7617:7937   */\n    tag_69:\n        /* \"#utility.yul\":7661:7667   */\n      0x00\n        /* \"#utility.yul\":7698:7699   */\n      0x02\n        /* \"#utility.yul\":7692:7696   */\n      dup3\n        /* \"#utility.yul\":7688:7700   */\n      div\n        /* \"#utility.yul\":7678:7700   */\n      swap1\n      pop\n        /* \"#utility.yul\":7745:7746   */\n      0x01\n        /* \"#utility.yul\":7739:7743   */\n      dup3\n        /* \"#utility.yul\":7735:7747   */\n      and\n        /* \"#utility.yul\":7766:7784   */\n      dup1\n        /* \"#utility.yul\":7756:7837   */\n      tag_556\n      jumpi\n        /* \"#utility.yul\":7822:7826   */\n      0x7f\n        /* \"#utility.yul\":7814:7820   */\n      dup3\n        /* \"#utility.yul\":7810:7827   */\n      and\n        /* \"#utility.yul\":7800:7827   */\n      swap2\n      pop\n        /* \"#utility.yul\":7756:7837   */\n    tag_556:\n        /* \"#utility.yul\":7884:7886   */\n      0x20\n        /* \"#utility.yul\":7876:7882   */\n      dup3\n        /* \"#utility.yul\":7873:7887   */\n      lt\n        /* \"#utility.yul\":7853:7871   */\n      dup2\n        /* \"#utility.yul\":7850:7888   */\n      sub\n        /* \"#utility.yul\":7847:7931   */\n      tag_557\n      jumpi\n        /* \"#utility.yul\":7903:7921   */\n      tag_558\n      tag_399\n      jump\t// in\n    tag_558:\n        /* \"#utility.yul\":7847:7931   */\n    tag_557:\n        /* \"#utility.yul\":7668:7937   */\n      pop\n        /* \"#utility.yul\":7617:7937   */\n      swap2\n      swap1\n      pop\n      jump\t// out\n        /* \"#utility.yul\":7943:8091   */\n    tag_400:\n        /* \"#utility.yul\":8045:8056   */\n      0x00\n        /* \"#utility.yul\":8082:8085   */\n      dup2\n        /* \"#utility.yul\":8067:8085   */\n      swap1\n      pop\n        /* \"#utility.yul\":7943:8091   */\n      swap3\n      swap2\n      pop\n      pop\n      jump\t// out\n        /* \"#utility.yul\":8097:8487   */\n    tag_401:\n        /* \"#utility.yul\":8203:8206   */\n      0x00\n        /* \"#utility.yul\":8231:8270   */\n      tag_561\n        /* \"#utility.yul\":8264:8269   */\n      dup3\n        /* \"#utility.yul\":8231:8270   */\n      tag_381\n      jump\t// in\n    tag_561:\n        /* \"#utility.yul\":8286:8375   */\n      tag_562\n        /* \"#utility.yul\":8368:8374   */\n      dup2\n        /* \"#utility.yul\":8363:8366   */\n      dup6\n        /* \"#utility.yul\":8286:8375   */\n      tag_400\n      jump\t// in\n    tag_562:\n        /* \"#utility.yul\":8279:8375   */\n      swap4\n      pop\n        /* \"#utility.yul\":8384:8449   */\n      tag_563\n        /* \"#utility.yul\":8442:8448   */\n      dup2\n        /* \"#utility.yul\":8437:8440   */\n      dup6\n        /* \"#utility.yul\":8430:8434   */\n      0x20\n        /* \"#utility.yul\":8423:8428   */\n      dup7\n        /* \"#utility.yul\":8419:8435   */\n      add\n        /* \"#utility.yul\":8384:8449   */\n      tag_383\n      jump\t// in\n    tag_563:\n        /* \"#utility.yul\":8474:8480   */\n      dup1\n        /* \"#utility.yul\":8469:8472   */\n      dup5\n        /* \"#utility.yul\":8465:8481   */\n      add\n        /* \"#utility.yul\":8458:8481   */\n      swap2\n      pop\n        /* \"#utility.yul\":8207:8487   */\n      pop\n        /* \"#utility.yul\":8097:8487   */\n      swap3\n      swap2\n      pop\n      pop\n      jump\t// out\n        /* \"#utility.yul\":8493:8768   */\n    tag_76:\n        /* \"#utility.yul\":8625:8628   */\n      0x00\n        /* \"#utility.yul\":8647:8742   */\n      tag_565\n        /* \"#utility.yul\":8738:8741   */\n      dup3\n        /* \"#utility.yul\":8729:8735   */\n      dup5\n        /* \"#utility.yul\":8647:8742   */\n      tag_401\n      jump\t// in\n    tag_565:\n        /* \"#utility.yul\":8640:8742   */\n      swap2\n      pop\n        /* \"#utility.yul\":8759:8762   */\n      dup2\n        /* \"#utility.yul\":8752:8762   */\n      swap1\n      pop\n        /* \"#utility.yul\":8493:8768   */\n      swap3\n      swap2\n      pop\n      pop\n      jump\t// out\n        /* \"#utility.yul\":8774:8943   */\n    tag_402:\n        /* \"#utility.yul\":8914:8935   */\n      0x47616d6573206973206e6f742061637469766500000000000000000000000000\n        /* \"#utility.yul\":8910:8911   */\n      0x00\n        /* \"#utility.yul\":8902:8908   */\n      dup3\n        /* \"#utility.yul\":8898:8912   */\n      add\n        /* \"#utility.yul\":8891:8936   */\n      mstore\n        /* \"#utility.yul\":8774:8943   */\n      pop\n      jump\t// out\n        /* \"#utility.yul\":8949:9315   */\n    tag_403:\n        /* \"#utility.yul\":9091:9094   */\n      0x00\n        /* \"#utility.yul\":9112:9179   */\n      tag_568\n        /* \"#utility.yul\":9176:9178   */\n      0x13\n        /* \"#utility.yul\":9171:9174   */\n      dup4\n        /* \"#utility.yul\":9112:9179   */\n      tag_382\n      jump\t// in\n    tag_568:\n        /* \"#utility.yul\":9105:9179   */\n      swap2\n      pop\n        /* \"#utility.yul\":9188:9281   */\n      tag_569\n        /* \"#utility.yul\":9277:9280   */\n      dup3\n        /* \"#utility.yul\":9188:9281   */\n      tag_402\n      jump\t// in\n    tag_569:\n        /* \"#utility.yul\":9306:9308   */\n      0x20\n        /* \"#utility.yul\":9301:9304   */\n      dup3\n        /* \"#utility.yul\":9297:9309   */\n      add\n        /* \"#utility.yul\":9290:9309   */\n      swap1\n      pop\n        /* \"#utility.yul\":8949:9315   */\n      swap2\n      swap1\n      pop\n      jump\t// out\n        /* \"#utility.yul\":9321:9740   */\n    tag_79:\n        /* \"#utility.yul\":9487:9491   */\n      0x00\n        /* \"#utility.yul\":9525:9527   */\n      0x20\n        /* \"#utility.yul\":9514:9523   */\n      dup3\n        /* \"#utility.yul\":9510:9528   */\n      add\n        /* \"#utility.yul\":9502:9528   */\n      swap1\n      pop\n        /* \"#utility.yul\":9574:9583   */\n      dup2\n        /* \"#utility.yul\":9568:9572   */\n      dup2\n        /* \"#utility.yul\":9564:9584   */\n      sub\n        /* \"#utility.yul\":9560:9561   */\n      0x00\n        /* \"#utility.yul\":9549:9558   */\n      dup4\n        /* \"#utility.yul\":9545:9562   */\n      add\n        /* \"#utility.yul\":9538:9585   */\n      mstore\n        /* \"#utility.yul\":9602:9733   */\n      tag_571\n        /* \"#utility.yul\":9728:9732   */\n      dup2\n        /* \"#utility.yul\":9602:9733   */\n      tag_403\n      jump\t// in\n    tag_571:\n        /* \"#utility.yul\":9594:9733   */\n      swap1\n      pop\n        /* \"#utility.yul\":9321:9740   */\n      swap2\n      swap1\n      pop\n      jump\t// out\n        /* \"#utility.yul\":9746:9926   */\n    tag_404:\n        /* \"#utility.yul\":9794:9871   */\n      0x4e487b7100000000000000000000000000000000000000000000000000000000\n        /* \"#utility.yul\":9791:9792   */\n      0x00\n        /* \"#utility.yul\":9784:9872   */\n      mstore\n        /* \"#utility.yul\":9891:9895   */\n      0x11\n        /* \"#utility.yul\":9888:9889   */\n      0x04\n        /* \"#utility.yul\":9881:9896   */\n      mstore\n        /* \"#utility.yul\":9915:9919   */\n      0x24\n        /* \"#utility.yul\":9912:9913   */\n      0x00\n        /* \"#utility.yul\":9905:9920   */\n      revert\n        /* \"#utility.yul\":9932:10123   */\n    tag_83:\n        /* \"#utility.yul\":9970:9974   */\n      0x00\n        /* \"#utility.yul\":9990:10008   */\n      tag_574\n        /* \"#utility.yul\":10006:10007   */\n      dup3\n        /* \"#utility.yul\":9990:10008   */\n      tag_394\n      jump\t// in\n    tag_574:\n        /* \"#utility.yul\":9985:10008   */\n      swap2\n      pop\n        /* \"#utility.yul\":10022:10040   */\n      tag_575\n        /* \"#utility.yul\":10038:10039   */\n      dup4\n        /* \"#utility.yul\":10022:10040   */\n      tag_394\n      jump\t// in\n    tag_575:\n        /* \"#utility.yul\":10017:10040   */\n      swap3\n      pop\n        /* \"#utility.yul\":10064:10065   */\n      dup3\n        /* \"#utility.yul\":10061:10062   */\n      dup3\n        /* \"#utility.yul\":10057:10066   */\n      sub\n        /* \"#utility.yul\":10049:10066   */\n      swap1\n      pop\n        /* \"#utility.yul\":10088:10092   */\n      0xff\n        /* \"#utility.yul\":10082:10086   */\n      dup2\n        /* \"#utility.yul\":10079:10093   */\n      gt\n        /* \"#utility.yul\":10076:10116   */\n      iszero\n      tag_576\n      jumpi\n        /* \"#utility.yul\":10096:10114   */\n      tag_577\n      tag_404\n      jump\t// in\n    tag_577:\n        /* \"#utility.yul\":10076:10116   */\n    tag_576:\n        /* \"#utility.yul\":9932:10123   */\n      swap3\n      swap2\n      pop\n      pop\n      jump\t// out\n        /* \"#utility.yul\":10129:10309   */\n    tag_86:\n        /* \"#utility.yul\":10177:10254   */\n      0x4e487b7100000000000000000000000000000000000000000000000000000000\n        /* \"#utility.yul\":10174:10175   */\n      0x00\n        /* \"#utility.yul\":10167:10255   */\n      mstore\n        /* \"#utility.yul\":10274:10278   */\n      0x32\n        /* \"#utility.yul\":10271:10272   */\n      0x04\n        /* \"#utility.yul\":10264:10279   */\n      mstore\n        /* \"#utility.yul\":10298:10302   */\n      0x24\n        /* \"#utility.yul\":10295:10296   */\n      0x00\n        /* \"#utility.yul\":10288:10303   */\n      revert\n        /* \"#utility.yul\":10315:10496   */\n    tag_405:\n        /* \"#utility.yul\":10455:10488   */\n      0x4e6f206d6f726520706c617965727320736c6f747320617661696c61626c6500\n        /* \"#utility.yul\":10451:10452   */\n      0x00\n        /* \"#utility.yul\":10443:10449   */\n      dup3\n        /* \"#utility.yul\":10439:10453   */\n      add\n        /* \"#utility.yul\":10432:10489   */\n      mstore\n        /* \"#utility.yul\":10315:10496   */\n      pop\n      jump\t// out\n        /* \"#utility.yul\":10502:10868   */\n    tag_406:\n        /* \"#utility.yul\":10644:10647   */\n      0x00\n        /* \"#utility.yul\":10665:10732   */\n      tag_581\n        /* \"#utility.yul\":10729:10731   */\n      0x1f\n        /* \"#utility.yul\":10724:10727   */\n      dup4\n        /* \"#utility.yul\":10665:10732   */\n      tag_382\n      jump\t// in\n    tag_581:\n        /* \"#utility.yul\":10658:10732   */\n      swap2\n      pop\n        /* \"#utility.yul\":10741:10834   */\n      tag_582\n        /* \"#utility.yul\":10830:10833   */\n      dup3\n        /* \"#utility.yul\":10741:10834   */\n      tag_405\n      jump\t// in\n    tag_582:\n        /* \"#utility.yul\":10859:10861   */\n      0x20\n        /* \"#utility.yul\":10854:10857   */\n      dup3\n        /* \"#utility.yul\":10850:10862   */\n      add\n        /* \"#utility.yul\":10843:10862   */\n      swap1\n      pop\n        /* \"#utility.yul\":10502:10868   */\n      swap2\n      swap1\n      pop\n      jump\t// out\n        /* \"#utility.yul\":10874:11293   */\n    tag_90:\n        /* \"#utility.yul\":11040:11044   */\n      0x00\n        /* \"#utility.yul\":11078:11080   */\n      0x20\n        /* \"#utility.yul\":11067:11076   */\n      dup3\n        /* \"#utility.yul\":11063:11081   */\n      add\n        /* \"#utility.yul\":11055:11081   */\n      swap1\n      pop\n        /* \"#utility.yul\":11127:11136   */\n      dup2\n        /* \"#utility.yul\":11121:11125   */\n      dup2\n        /* \"#utility.yul\":11117:11137   */\n      sub\n        /* \"#utility.yul\":11113:11114   */\n      0x00\n        /* \"#utility.yul\":11102:11111   */\n      dup4\n        /* \"#utility.yul\":11098:11115   */\n      add\n        /* \"#utility.yul\":11091:11138   */\n      mstore\n        /* \"#utility.yul\":11155:11286   */\n      tag_584\n        /* \"#utility.yul\":11281:11285   */\n      dup2\n        /* \"#utility.yul\":11155:11286   */\n      tag_406\n      jump\t// in\n    tag_584:\n        /* \"#utility.yul\":11147:11286   */\n      swap1\n      pop\n        /* \"#utility.yul\":10874:11293   */\n      swap2\n      swap1\n      pop\n      jump\t// out\n        /* \"#utility.yul\":11299:11468   */\n    tag_407:\n        /* \"#utility.yul\":11439:11460   */\n      0x416c726561647920696e207468652067616d6500000000000000000000000000\n        /* \"#utility.yul\":11435:11436   */\n      0x00\n        /* \"#utility.yul\":11427:11433   */\n      dup3\n        /* \"#utility.yul\":11423:11437   */\n      add\n        /* \"#utility.yul\":11416:11461   */\n      mstore\n        /* \"#utility.yul\":11299:11468   */\n      pop\n      jump\t// out\n        /* \"#utility.yul\":11474:11840   */\n    tag_408:\n        /* \"#utility.yul\":11616:11619   */\n      0x00\n        /* \"#utility.yul\":11637:11704   */\n      tag_587\n        /* \"#utility.yul\":11701:11703   */\n      0x13\n        /* \"#utility.yul\":11696:11699   */\n      dup4\n        /* \"#utility.yul\":11637:11704   */\n      tag_382\n      jump\t// in\n    tag_587:\n        /* \"#utility.yul\":11630:11704   */\n      swap2\n      pop\n        /* \"#utility.yul\":11713:11806   */\n      tag_588\n        /* \"#utility.yul\":11802:11805   */\n      dup3\n        /* \"#utility.yul\":11713:11806   */\n      tag_407\n      jump\t// in\n    tag_588:\n        /* \"#utility.yul\":11831:11833   */\n      0x20\n        /* \"#utility.yul\":11826:11829   */\n      dup3\n        /* \"#utility.yul\":11822:11834   */\n      add\n        /* \"#utility.yul\":11815:11834   */\n      swap1\n      pop\n        /* \"#utility.yul\":11474:11840   */\n      swap2\n      swap1\n      pop\n      jump\t// out\n        /* \"#utility.yul\":11846:12265   */\n    tag_93:\n        /* \"#utility.yul\":12012:12016   */\n      0x00\n        /* \"#utility.yul\":12050:12052   */\n      0x20\n        /* \"#utility.yul\":12039:12048   */\n      dup3\n        /* \"#utility.yul\":12035:12053   */\n      add\n        /* \"#utility.yul\":12027:12053   */\n      swap1\n      pop\n        /* \"#utility.yul\":12099:12108   */\n      dup2\n        /* \"#utility.yul\":12093:12097   */\n      dup2\n        /* \"#utility.yul\":12089:12109   */\n      sub\n        /* \"#utility.yul\":12085:12086   */\n      0x00\n        /* \"#utility.yul\":12074:12083   */\n      dup4\n        /* \"#utility.yul\":12070:12087   */\n      add\n        /* \"#utility.yul\":12063:12110   */\n      mstore\n        /* \"#utility.yul\":12127:12258   */\n      tag_590\n        /* \"#utility.yul\":12253:12257   */\n      dup2\n        /* \"#utility.yul\":12127:12258   */\n      tag_408\n      jump\t// in\n    tag_590:\n        /* \"#utility.yul\":12119:12258   */\n      swap1\n      pop\n        /* \"#utility.yul\":11846:12265   */\n      swap2\n      swap1\n      pop\n      jump\t// out\n        /* \"#utility.yul\":12271:12491   */\n    tag_409:\n        /* \"#utility.yul\":12411:12445   */\n      0x596f7520617265206e6f74206120706c61796572206f6620746869732067616d\n        /* \"#utility.yul\":12407:12408   */\n      0x00\n        /* \"#utility.yul\":12399:12405   */\n      dup3\n        /* \"#utility.yul\":12395:12409   */\n      add\n        /* \"#utility.yul\":12388:12446   */\n      mstore\n        /* \"#utility.yul\":12480:12483   */\n      0x6500000000000000000000000000000000000000000000000000000000000000\n        /* \"#utility.yul\":12475:12477   */\n      0x20\n        /* \"#utility.yul\":12467:12473   */\n      dup3\n        /* \"#utility.yul\":12463:12478   */\n      add\n        /* \"#utility.yul\":12456:12484   */\n      mstore\n        /* \"#utility.yul\":12271:12491   */\n      pop\n      jump\t// out\n        /* \"#utility.yul\":12497:12863   */\n    tag_410:\n        /* \"#utility.yul\":12639:12642   */\n      0x00\n        /* \"#utility.yul\":12660:12727   */\n      tag_593\n        /* \"#utility.yul\":12724:12726   */\n      0x21\n        /* \"#utility.yul\":12719:12722   */\n      dup4\n        /* \"#utility.yul\":12660:12727   */\n      tag_382\n      jump\t// in\n    tag_593:\n        /* \"#utility.yul\":12653:12727   */\n      swap2\n      pop\n        /* \"#utility.yul\":12736:12829   */\n      tag_594\n        /* \"#utility.yul\":12825:12828   */\n      dup3\n        /* \"#utility.yul\":12736:12829   */\n      tag_409\n      jump\t// in\n    tag_594:\n        /* \"#utility.yul\":12854:12856   */\n      0x40\n        /* \"#utility.yul\":12849:12852   */\n      dup3\n        /* \"#utility.yul\":12845:12857   */\n      add\n        /* \"#utility.yul\":12838:12857   */\n      swap1\n      pop\n        /* \"#utility.yul\":12497:12863   */\n      swap2\n      swap1\n      pop\n      jump\t// out\n        /* \"#utility.yul\":12869:13288   */\n    tag_107:\n        /* \"#utility.yul\":13035:13039   */\n      0x00\n        /* \"#utility.yul\":13073:13075   */\n      0x20\n        /* \"#utility.yul\":13062:13071   */\n      dup3\n        /* \"#utility.yul\":13058:13076   */\n      add\n        /* \"#utility.yul\":13050:13076   */\n      swap1\n      pop\n        /* \"#utility.yul\":13122:13131   */\n      dup2\n        /* \"#utility.yul\":13116:13120   */\n      dup2\n        /* \"#utility.yul\":13112:13132   */\n      sub\n        /* \"#utility.yul\":13108:13109   */\n      0x00\n        /* \"#utility.yul\":13097:13106   */\n      dup4\n        /* \"#utility.yul\":13093:13110   */\n      add\n        /* \"#utility.yul\":13086:13133   */\n      mstore\n        /* \"#utility.yul\":13150:13281   */\n      tag_596\n        /* \"#utility.yul\":13276:13280   */\n      dup2\n        /* \"#utility.yul\":13150:13281   */\n      tag_410\n      jump\t// in\n    tag_596:\n        /* \"#utility.yul\":13142:13281   */\n      swap1\n      pop\n        /* \"#utility.yul\":12869:13288   */\n      swap2\n      swap1\n      pop\n      jump\t// out\n        /* \"#utility.yul\":13294:13461   */\n    tag_411:\n        /* \"#utility.yul\":13434:13453   */\n      0x596f7520616c726561647920766f746564000000000000000000000000000000\n        /* \"#utility.yul\":13430:13431   */\n      0x00\n        /* \"#utility.yul\":13422:13428   */\n      dup3\n        /* \"#utility.yul\":13418:13432   */\n      add\n        /* \"#utility.yul\":13411:13454   */\n      mstore\n        /* \"#utility.yul\":13294:13461   */\n      pop\n      jump\t// out\n        /* \"#utility.yul\":13467:13833   */\n    tag_412:\n        /* \"#utility.yul\":13609:13612   */\n      0x00\n        /* \"#utility.yul\":13630:13697   */\n      tag_599\n        /* \"#utility.yul\":13694:13696   */\n      0x11\n        /* \"#utility.yul\":13689:13692   */\n      dup4\n        /* \"#utility.yul\":13630:13697   */\n      tag_382\n      jump\t// in\n    tag_599:\n        /* \"#utility.yul\":13623:13697   */\n      swap2\n      pop\n        /* \"#utility.yul\":13706:13799   */\n      tag_600\n        /* \"#utility.yul\":13795:13798   */\n      dup3\n        /* \"#utility.yul\":13706:13799   */\n      tag_411\n      jump\t// in\n    tag_600:\n        /* \"#utility.yul\":13824:13826   */\n      0x20\n        /* \"#utility.yul\":13819:13822   */\n      dup3\n        /* \"#utility.yul\":13815:13827   */\n      add\n        /* \"#utility.yul\":13808:13827   */\n      swap1\n      pop\n        /* \"#utility.yul\":13467:13833   */\n      swap2\n      swap1\n      pop\n      jump\t// out\n        /* \"#utility.yul\":13839:14258   */\n    tag_118:\n        /* \"#utility.yul\":14005:14009   */\n      0x00\n        /* \"#utility.yul\":14043:14045   */\n      0x20\n        /* \"#utility.yul\":14032:14041   */\n      dup3\n        /* \"#utility.yul\":14028:14046   */\n      add\n        /* \"#utility.yul\":14020:14046   */\n      swap1\n      pop\n        /* \"#utility.yul\":14092:14101   */\n      dup2\n        /* \"#utility.yul\":14086:14090   */\n      dup2\n        /* \"#utility.yul\":14082:14102   */\n      sub\n        /* \"#utility.yul\":14078:14079   */\n      0x00\n        /* \"#utility.yul\":14067:14076   */\n      dup4\n        /* \"#utility.yul\":14063:14080   */\n      add\n        /* \"#utility.yul\":14056:14103   */\n      mstore\n        /* \"#utility.yul\":14120:14251   */\n      tag_602\n        /* \"#utility.yul\":14246:14250   */\n      dup2\n        /* \"#utility.yul\":14120:14251   */\n      tag_412\n      jump\t// in\n    tag_602:\n        /* \"#utility.yul\":14112:14251   */\n      swap1\n      pop\n        /* \"#utility.yul\":13839:14258   */\n      swap2\n      swap1\n      pop\n      jump\t// out\n        /* \"#utility.yul\":14264:14439   */\n    tag_413:\n        /* \"#utility.yul\":14404:14431   */\n      0x4c6574746572206d75737420626520696e20412d5a20612d7a00000000000000\n        /* \"#utility.yul\":14400:14401   */\n      0x00\n        /* \"#utility.yul\":14392:14398   */\n      dup3\n        /* \"#utility.yul\":14388:14402   */\n      add\n        /* \"#utility.yul\":14381:14432   */\n      mstore\n        /* \"#utility.yul\":14264:14439   */\n      pop\n      jump\t// out\n        /* \"#utility.yul\":14445:14811   */\n    tag_414:\n        /* \"#utility.yul\":14587:14590   */\n      0x00\n        /* \"#utility.yul\":14608:14675   */\n      tag_605\n        /* \"#utility.yul\":14672:14674   */\n      0x19\n        /* \"#utility.yul\":14667:14670   */\n      dup4\n        /* \"#utility.yul\":14608:14675   */\n      tag_382\n      jump\t// in\n    tag_605:\n        /* \"#utility.yul\":14601:14675   */\n      swap2\n      pop\n        /* \"#utility.yul\":14684:14777   */\n      tag_606\n        /* \"#utility.yul\":14773:14776   */\n      dup3\n        /* \"#utility.yul\":14684:14777   */\n      tag_413\n      jump\t// in\n    tag_606:\n        /* \"#utility.yul\":14802:14804   */\n      0x20\n        /* \"#utility.yul\":14797:14800   */\n      dup3\n        /* \"#utility.yul\":14793:14805   */\n      add\n        /* \"#utility.yul\":14786:14805   */\n      swap1\n      pop\n        /* \"#utility.yul\":14445:14811   */\n      swap2\n      swap1\n      pop\n      jump\t// out\n        /* \"#utility.yul\":14817:15236   */\n    tag_124:\n        /* \"#utility.yul\":14983:14987   */\n      0x00\n        /* \"#utility.yul\":15021:15023   */\n      0x20\n        /* \"#utility.yul\":15010:15019   */\n      dup3\n        /* \"#utility.yul\":15006:15024   */\n      add\n        /* \"#utility.yul\":14998:15024   */\n      swap1\n      pop\n        /* \"#utility.yul\":15070:15079   */\n      dup2\n        /* \"#utility.yul\":15064:15068   */\n      dup2\n        /* \"#utility.yul\":15060:15080   */\n      sub\n        /* \"#utility.yul\":15056:15057   */\n      0x00\n        /* \"#utility.yul\":15045:15054   */\n      dup4\n        /* \"#utility.yul\":15041:15058   */\n      add\n        /* \"#utility.yul\":15034:15081   */\n      mstore\n        /* \"#utility.yul\":15098:15229   */\n      tag_608\n        /* \"#utility.yul\":15224:15228   */\n      dup2\n        /* \"#utility.yul\":15098:15229   */\n      tag_414\n      jump\t// in\n    tag_608:\n        /* \"#utility.yul\":15090:15229   */\n      swap1\n      pop\n        /* \"#utility.yul\":14817:15236   */\n      swap2\n      swap1\n      pop\n      jump\t// out\n        /* \"#utility.yul\":15242:15423   */\n    tag_415:\n        /* \"#utility.yul\":15382:15415   */\n      0x4c65747465722068617320616c7265616479206265656e206775657373656400\n        /* \"#utility.yul\":15378:15379   */\n      0x00\n        /* \"#utility.yul\":15370:15376   */\n      dup3\n        /* \"#utility.yul\":15366:15380   */\n      add\n        /* \"#utility.yul\":15359:15416   */\n      mstore\n        /* \"#utility.yul\":15242:15423   */\n      pop\n      jump\t// out\n        /* \"#utility.yul\":15429:15795   */\n    tag_416:\n        /* \"#utility.yul\":15571:15574   */\n      0x00\n        /* \"#utility.yul\":15592:15659   */\n      tag_611\n        /* \"#utility.yul\":15656:15658   */\n      0x1f\n        /* \"#utility.yul\":15651:15654   */\n      dup4\n        /* \"#utility.yul\":15592:15659   */\n      tag_382\n      jump\t// in\n    tag_611:\n        /* \"#utility.yul\":15585:15659   */\n      swap2\n      pop\n        /* \"#utility.yul\":15668:15761   */\n      tag_612\n        /* \"#utility.yul\":15757:15760   */\n      dup3\n        /* \"#utility.yul\":15668:15761   */\n      tag_415\n      jump\t// in\n    tag_612:\n        /* \"#utility.yul\":15786:15788   */\n      0x20\n        /* \"#utility.yul\":15781:15784   */\n      dup3\n        /* \"#utility.yul\":15777:15789   */\n      add\n        /* \"#utility.yul\":15770:15789   */\n      swap1\n      pop\n        /* \"#utility.yul\":15429:15795   */\n      swap2\n      swap1\n      pop\n      jump\t// out\n        /* \"#utility.yul\":15801:16220   */\n    tag_129:\n        /* \"#utility.yul\":15967:15971   */\n      0x00\n        /* \"#utility.yul\":16005:16007   */\n      0x20\n        /* \"#utility.yul\":15994:16003   */\n      dup3\n        /* \"#utility.yul\":15990:16008   */\n      add\n        /* \"#utility.yul\":15982:16008   */\n      swap1\n      pop\n        /* \"#utility.yul\":16054:16063   */\n      dup2\n        /* \"#utility.yul\":16048:16052   */\n      dup2\n        /* \"#utility.yul\":16044:16064   */\n      sub\n        /* \"#utility.yul\":16040:16041   */\n      0x00\n        /* \"#utility.yul\":16029:16038   */\n      dup4\n        /* \"#utility.yul\":16025:16042   */\n      add\n        /* \"#utility.yul\":16018:16065   */\n      mstore\n        /* \"#utility.yul\":16082:16213   */\n      tag_614\n        /* \"#utility.yul\":16208:16212   */\n      dup2\n        /* \"#utility.yul\":16082:16213   */\n      tag_416\n      jump\t// in\n    tag_614:\n        /* \"#utility.yul\":16074:16213   */\n      swap1\n      pop\n        /* \"#utility.yul\":15801:16220   */\n      swap2\n      swap1\n      pop\n      jump\t// out\n        /* \"#utility.yul\":16226:16420   */\n    tag_133:\n        /* \"#utility.yul\":16266:16270   */\n      0x00\n        /* \"#utility.yul\":16286:16306   */\n      tag_616\n        /* \"#utility.yul\":16304:16305   */\n      dup3\n        /* \"#utility.yul\":16286:16306   */\n      tag_378\n      jump\t// in\n    tag_616:\n        /* \"#utility.yul\":16281:16306   */\n      swap2\n      pop\n        /* \"#utility.yul\":16320:16340   */\n      tag_617\n        /* \"#utility.yul\":16338:16339   */\n      dup4\n        /* \"#utility.yul\":16320:16340   */\n      tag_378\n      jump\t// in\n    tag_617:\n        /* \"#utility.yul\":16315:16340   */\n      swap3\n      pop\n        /* \"#utility.yul\":16364:16365   */\n      dup3\n        /* \"#utility.yul\":16361:16362   */\n      dup3\n        /* \"#utility.yul\":16357:16366   */\n      sub\n        /* \"#utility.yul\":16349:16366   */\n      swap1\n      pop\n        /* \"#utility.yul\":16388:16389   */\n      dup2\n        /* \"#utility.yul\":16382:16386   */\n      dup2\n        /* \"#utility.yul\":16379:16390   */\n      gt\n        /* \"#utility.yul\":16376:16413   */\n      iszero\n      tag_618\n      jumpi\n        /* \"#utility.yul\":16393:16411   */\n      tag_619\n      tag_404\n      jump\t// in\n    tag_619:\n        /* \"#utility.yul\":16376:16413   */\n    tag_618:\n        /* \"#utility.yul\":16226:16420   */\n      swap3\n      swap2\n      pop\n      pop\n      jump\t// out\n        /* \"#utility.yul\":16426:16590   */\n    tag_417:\n        /* \"#utility.yul\":16566:16582   */\n      0x4e6f2061637469766520766f7465000000000000000000000000000000000000\n        /* \"#utility.yul\":16562:16563   */\n      0x00\n        /* \"#utility.yul\":16554:16560   */\n      dup3\n        /* \"#utility.yul\":16550:16564   */\n      add\n        /* \"#utility.yul\":16543:16583   */\n      mstore\n        /* \"#utility.yul\":16426:16590   */\n      pop\n      jump\t// out\n        /* \"#utility.yul\":16596:16962   */\n    tag_418:\n        /* \"#utility.yul\":16738:16741   */\n      0x00\n        /* \"#utility.yul\":16759:16826   */\n      tag_622\n        /* \"#utility.yul\":16823:16825   */\n      0x0e\n        /* \"#utility.yul\":16818:16821   */\n      dup4\n        /* \"#utility.yul\":16759:16826   */\n      tag_382\n      jump\t// in\n    tag_622:\n        /* \"#utility.yul\":16752:16826   */\n      swap2\n      pop\n        /* \"#utility.yul\":16835:16928   */\n      tag_623\n        /* \"#utility.yul\":16924:16927   */\n      dup3\n        /* \"#utility.yul\":16835:16928   */\n      tag_417\n      jump\t// in\n    tag_623:\n        /* \"#utility.yul\":16953:16955   */\n      0x20\n        /* \"#utility.yul\":16948:16951   */\n      dup3\n        /* \"#utility.yul\":16944:16956   */\n      add\n        /* \"#utility.yul\":16937:16956   */\n      swap1\n      pop\n        /* \"#utility.yul\":16596:16962   */\n      swap2\n      swap1\n      pop\n      jump\t// out\n        /* \"#utility.yul\":16968:17387   */\n    tag_173:\n        /* \"#utility.yul\":17134:17138   */\n      0x00\n        /* \"#utility.yul\":17172:17174   */\n      0x20\n        /* \"#utility.yul\":17161:17170   */\n      dup3\n        /* \"#utility.yul\":17157:17175   */\n      add\n        /* \"#utility.yul\":17149:17175   */\n      swap1\n      pop\n        /* \"#utility.yul\":17221:17230   */\n      dup2\n        /* \"#utility.yul\":17215:17219   */\n      dup2\n        /* \"#utility.yul\":17211:17231   */\n      sub\n        /* \"#utility.yul\":17207:17208   */\n      0x00\n        /* \"#utility.yul\":17196:17205   */\n      dup4\n        /* \"#utility.yul\":17192:17209   */\n      add\n        /* \"#utility.yul\":17185:17232   */\n      mstore\n        /* \"#utility.yul\":17249:17380   */\n      tag_625\n        /* \"#utility.yul\":17375:17379   */\n      dup2\n        /* \"#utility.yul\":17249:17380   */\n      tag_418\n      jump\t// in\n    tag_625:\n        /* \"#utility.yul\":17241:17380   */\n      swap1\n      pop\n        /* \"#utility.yul\":16968:17387   */\n      swap2\n      swap1\n      pop\n      jump\t// out\n        /* \"#utility.yul\":17393:17572   */\n    tag_419:\n        /* \"#utility.yul\":17533:17564   */\n      0x566f7465206475726174696f6e20686173206e6f7420656c6170736564000000\n        /* \"#utility.yul\":17529:17530   */\n      0x00\n        /* \"#utility.yul\":17521:17527   */\n      dup3\n        /* \"#utility.yul\":17517:17531   */\n      add\n        /* \"#utility.yul\":17510:17565   */\n      mstore\n        /* \"#utility.yul\":17393:17572   */\n      pop\n      jump\t// out\n        /* \"#utility.yul\":17578:17944   */\n    tag_420:\n        /* \"#utility.yul\":17720:17723   */\n      0x00\n        /* \"#utility.yul\":17741:17808   */\n      tag_628\n        /* \"#utility.yul\":17805:17807   */\n      0x1d\n        /* \"#utility.yul\":17800:17803   */\n      dup4\n        /* \"#utility.yul\":17741:17808   */\n      tag_382\n      jump\t// in\n    tag_628:\n        /* \"#utility.yul\":17734:17808   */\n      swap2\n      pop\n        /* \"#utility.yul\":17817:17910   */\n      tag_629\n        /* \"#utility.yul\":17906:17909   */\n      dup3\n        /* \"#utility.yul\":17817:17910   */\n      tag_419\n      jump\t// in\n    tag_629:\n        /* \"#utility.yul\":17935:17937   */\n      0x20\n        /* \"#utility.yul\":17930:17933   */\n      dup3\n        /* \"#utility.yul\":17926:17938   */\n      add\n        /* \"#utility.yul\":17919:17938   */\n      swap1\n      pop\n        /* \"#utility.yul\":17578:17944   */\n      swap2\n      swap1\n      pop\n      jump\t// out\n        /* \"#utility.yul\":17950:18369   */\n    tag_177:\n        /* \"#utility.yul\":18116:18120   */\n      0x00\n        /* \"#utility.yul\":18154:18156   */\n      0x20\n        /* \"#utility.yul\":18143:18152   */\n      dup3\n        /* \"#utility.yul\":18139:18157   */\n      add\n        /* \"#utility.yul\":18131:18157   */\n      swap1\n      pop\n        /* \"#utility.yul\":18203:18212   */\n      dup2\n        /* \"#utility.yul\":18197:18201   */\n      dup2\n        /* \"#utility.yul\":18193:18213   */\n      sub\n        /* \"#utility.yul\":18189:18190   */\n      0x00\n        /* \"#utility.yul\":18178:18187   */\n      dup4\n        /* \"#utility.yul\":18174:18191   */\n      add\n        /* \"#utility.yul\":18167:18214   */\n      mstore\n        /* \"#utility.yul\":18231:18362   */\n      tag_631\n        /* \"#utility.yul\":18357:18361   */\n      dup2\n        /* \"#utility.yul\":18231:18362   */\n      tag_420\n      jump\t// in\n    tag_631:\n        /* \"#utility.yul\":18223:18362   */\n      swap1\n      pop\n        /* \"#utility.yul\":17950:18369   */\n      swap2\n      swap1\n      pop\n      jump\t// out\n        /* \"#utility.yul\":18375:18599   */\n    tag_421:\n        /* \"#utility.yul\":18515:18549   */\n      0x4f6e6c792067616d652063726561746f722063616e2064656c65746520746865\n        /* \"#utility.yul\":18511:18512   */\n      0x00\n        /* \"#utility.yul\":18503:18509   */\n      dup3\n        /* \"#utility.yul\":18499:18513   */\n      add\n        /* \"#utility.yul\":18492:18550   */\n      mstore\n        /* \"#utility.yul\":18584:18591   */\n      0x2067616d65000000000000000000000000000000000000000000000000000000\n        /* \"#utility.yul\":18579:18581   */\n      0x20\n        /* \"#utility.yul\":18571:18577   */\n      dup3\n        /* \"#utility.yul\":18567:18582   */\n      add\n        /* \"#utility.yul\":18560:18592   */\n      mstore\n        /* \"#utility.yul\":18375:18599   */\n      pop\n      jump\t// out\n        /* \"#utility.yul\":18605:18971   */\n    tag_422:\n        /* \"#utility.yul\":18747:18750   */\n      0x00\n        /* \"#utility.yul\":18768:18835   */\n      tag_634\n        /* \"#utility.yul\":18832:18834   */\n      0x25\n        /* \"#utility.yul\":18827:18830   */\n      dup4\n        /* \"#utility.yul\":18768:18835   */\n      tag_382\n      jump\t// in\n    tag_634:\n        /* \"#utility.yul\":18761:18835   */\n      swap2\n      pop\n        /* \"#utility.yul\":18844:18937   */\n      tag_635\n        /* \"#utility.yul\":18933:18936   */\n      dup3\n        /* \"#utility.yul\":18844:18937   */\n      tag_421\n      jump\t// in\n    tag_635:\n        /* \"#utility.yul\":18962:18964   */\n      0x40\n        /* \"#utility.yul\":18957:18960   */\n      dup3\n        /* \"#utility.yul\":18953:18965   */\n      add\n        /* \"#utility.yul\":18946:18965   */\n      swap1\n      pop\n        /* \"#utility.yul\":18605:18971   */\n      swap2\n      swap1\n      pop\n      jump\t// out\n        /* \"#utility.yul\":18977:19396   */\n    tag_192:\n        /* \"#utility.yul\":19143:19147   */\n      0x00\n        /* \"#utility.yul\":19181:19183   */\n      0x20\n        /* \"#utility.yul\":19170:19179   */\n      dup3\n        /* \"#utility.yul\":19166:19184   */\n      add\n        /* \"#utility.yul\":19158:19184   */\n      swap1\n      pop\n        /* \"#utility.yul\":19230:19239   */\n      dup2\n        /* \"#utility.yul\":19224:19228   */\n      dup2\n        /* \"#utility.yul\":19220:19240   */\n      sub\n        /* \"#utility.yul\":19216:19217   */\n      0x00\n        /* \"#utility.yul\":19205:19214   */\n      dup4\n        /* \"#utility.yul\":19201:19218   */\n      add\n        /* \"#utility.yul\":19194:19241   */\n      mstore\n        /* \"#utility.yul\":19258:19389   */\n      tag_637\n        /* \"#utility.yul\":19384:19388   */\n      dup2\n        /* \"#utility.yul\":19258:19389   */\n      tag_422\n      jump\t// in\n    tag_637:\n        /* \"#utility.yul\":19250:19389   */\n      swap1\n      pop\n        /* \"#utility.yul\":18977:19396   */\n      swap2\n      swap1\n      pop\n      jump\t// out\n        /* \"#utility.yul\":19402:19629   */\n    tag_423:\n        /* \"#utility.yul\":19542:19576   */\n      0x412067616d652077697468207468652063686f73656e20494420616c72656164\n        /* \"#utility.yul\":19538:19539   */\n      0x00\n        /* \"#utility.yul\":19530:19536   */\n      dup3\n        /* \"#utility.yul\":19526:19540   */\n      add\n        /* \"#utility.yul\":19519:19577   */\n      mstore\n        /* \"#utility.yul\":19611:19621   */\n      0x7920657869737473000000000000000000000000000000000000000000000000\n        /* \"#utility.yul\":19606:19608   */\n      0x20\n        /* \"#utility.yul\":19598:19604   */\n      dup3\n        /* \"#utility.yul\":19594:19609   */\n      add\n        /* \"#utility.yul\":19587:19622   */\n      mstore\n        /* \"#utility.yul\":19402:19629   */\n      pop\n      jump\t// out\n        /* \"#utility.yul\":19635:20001   */\n    tag_424:\n        /* \"#utility.yul\":19777:19780   */\n      0x00\n        /* \"#utility.yul\":19798:19865   */\n      tag_640\n        /* \"#utility.yul\":19862:19864   */\n      0x28\n        /* \"#utility.yul\":19857:19860   */\n      dup4\n        /* \"#utility.yul\":19798:19865   */\n      tag_382\n      jump\t// in\n    tag_640:\n        /* \"#utility.yul\":19791:19865   */\n      swap2\n      pop\n        /* \"#utility.yul\":19874:19967   */\n      tag_641\n        /* \"#utility.yul\":19963:19966   */\n      dup3\n        /* \"#utility.yul\":19874:19967   */\n      tag_423\n      jump\t// in\n    tag_641:\n        /* \"#utility.yul\":19992:19994   */\n      0x40\n        /* \"#utility.yul\":19987:19990   */\n      dup3\n        /* \"#utility.yul\":19983:19995   */\n      add\n        /* \"#utility.yul\":19976:19995   */\n      swap1\n      pop\n        /* \"#utility.yul\":19635:20001   */\n      swap2\n      swap1\n      pop\n      jump\t// out\n        /* \"#utility.yul\":20007:20426   */\n    tag_198:\n        /* \"#utility.yul\":20173:20177   */\n      0x00\n        /* \"#utility.yul\":20211:20213   */\n      0x20\n        /* \"#utility.yul\":20200:20209   */\n      dup3\n        /* \"#utility.yul\":20196:20214   */\n      add\n        /* \"#utility.yul\":20188:20214   */\n      swap1\n      pop\n        /* \"#utility.yul\":20260:20269   */\n      dup2\n        /* \"#utility.yul\":20254:20258   */\n      dup2\n        /* \"#utility.yul\":20250:20270   */\n      sub\n        /* \"#utility.yul\":20246:20247   */\n      0x00\n        /* \"#utility.yul\":20235:20244   */\n      dup4\n        /* \"#utility.yul\":20231:20248   */\n      add\n        /* \"#utility.yul\":20224:20271   */\n      mstore\n        /* \"#utility.yul\":20288:20419   */\n      tag_643\n        /* \"#utility.yul\":20414:20418   */\n      dup2\n        /* \"#utility.yul\":20288:20419   */\n      tag_424\n      jump\t// in\n    tag_643:\n        /* \"#utility.yul\":20280:20419   */\n      swap1\n      pop\n        /* \"#utility.yul\":20007:20426   */\n      swap2\n      swap1\n      pop\n      jump\t// out\n        /* \"#utility.yul\":20432:20679   */\n    tag_425:\n        /* \"#utility.yul\":20572:20606   */\n      0x4174206c65617374206f6e6520706c6179657220726571756972656420616e64\n        /* \"#utility.yul\":20568:20569   */\n      0x00\n        /* \"#utility.yul\":20560:20566   */\n      dup3\n        /* \"#utility.yul\":20556:20570   */\n      add\n        /* \"#utility.yul\":20549:20607   */\n      mstore\n        /* \"#utility.yul\":20641:20671   */\n      0x206174206d6f7374204d41585f504c415945525320616c6c6f77656400000000\n        /* \"#utility.yul\":20636:20638   */\n      0x20\n        /* \"#utility.yul\":20628:20634   */\n      dup3\n        /* \"#utility.yul\":20624:20639   */\n      add\n        /* \"#utility.yul\":20617:20672   */\n      mstore\n        /* \"#utility.yul\":20432:20679   */\n      pop\n      jump\t// out\n        /* \"#utility.yul\":20685:21051   */\n    tag_426:\n        /* \"#utility.yul\":20827:20830   */\n      0x00\n        /* \"#utility.yul\":20848:20915   */\n      tag_646\n        /* \"#utility.yul\":20912:20914   */\n      0x3c\n        /* \"#utility.yul\":20907:20910   */\n      dup4\n        /* \"#utility.yul\":20848:20915   */\n      tag_382\n      jump\t// in\n    tag_646:\n        /* \"#utility.yul\":20841:20915   */\n      swap2\n      pop\n        /* \"#utility.yul\":20924:21017   */\n      tag_647\n        /* \"#utility.yul\":21013:21016   */\n      dup3\n        /* \"#utility.yul\":20924:21017   */\n      tag_425\n      jump\t// in\n    tag_647:\n        /* \"#utility.yul\":21042:21044   */\n      0x40\n        /* \"#utility.yul\":21037:21040   */\n      dup3\n        /* \"#utility.yul\":21033:21045   */\n      add\n        /* \"#utility.yul\":21026:21045   */\n      swap1\n      pop\n        /* \"#utility.yul\":20685:21051   */\n      swap2\n      swap1\n      pop\n      jump\t// out\n        /* \"#utility.yul\":21057:21476   */\n    tag_202:\n        /* \"#utility.yul\":21223:21227   */\n      0x00\n        /* \"#utility.yul\":21261:21263   */\n      0x20\n        /* \"#utility.yul\":21250:21259   */\n      dup3\n        /* \"#utility.yul\":21246:21264   */\n      add\n        /* \"#utility.yul\":21238:21264   */\n      swap1\n      pop\n        /* \"#utility.yul\":21310:21319   */\n      dup2\n        /* \"#utility.yul\":21304:21308   */\n      dup2\n        /* \"#utility.yul\":21300:21320   */\n      sub\n        /* \"#utility.yul\":21296:21297   */\n      0x00\n        /* \"#utility.yul\":21285:21294   */\n      dup4\n        /* \"#utility.yul\":21281:21298   */\n      add\n        /* \"#utility.yul\":21274:21321   */\n      mstore\n        /* \"#utility.yul\":21338:21469   */\n      tag_649\n        /* \"#utility.yul\":21464:21468   */\n      dup2\n        /* \"#utility.yul\":21338:21469   */\n      tag_426\n      jump\t// in\n    tag_649:\n        /* \"#utility.yul\":21330:21469   */\n      swap1\n      pop\n        /* \"#utility.yul\":21057:21476   */\n      swap2\n      swap1\n      pop\n      jump\t// out\n        /* \"#utility.yul\":21482:21659   */\n    tag_427:\n        /* \"#utility.yul\":21622:21651   */\n      0x4e6f20667265652067616d6520736c6f7420617661696c61626c650000000000\n        /* \"#utility.yul\":21618:21619   */\n      0x00\n        /* \"#utility.yul\":21610:21616   */\n      dup3\n        /* \"#utility.yul\":21606:21620   */\n      add\n        /* \"#utility.yul\":21599:21652   */\n      mstore\n        /* \"#utility.yul\":21482:21659   */\n      pop\n      jump\t// out\n        /* \"#utility.yul\":21665:22031   */\n    tag_428:\n        /* \"#utility.yul\":21807:21810   */\n      0x00\n        /* \"#utility.yul\":21828:21895   */\n      tag_652\n        /* \"#utility.yul\":21892:21894   */\n      0x1b\n        /* \"#utility.yul\":21887:21890   */\n      dup4\n        /* \"#utility.yul\":21828:21895   */\n      tag_382\n      jump\t// in\n    tag_652:\n        /* \"#utility.yul\":21821:21895   */\n      swap2\n      pop\n        /* \"#utility.yul\":21904:21997   */\n      tag_653\n        /* \"#utility.yul\":21993:21996   */\n      dup3\n        /* \"#utility.yul\":21904:21997   */\n      tag_427\n      jump\t// in\n    tag_653:\n        /* \"#utility.yul\":22022:22024   */\n      0x20\n        /* \"#utility.yul\":22017:22020   */\n      dup3\n        /* \"#utility.yul\":22013:22025   */\n      add\n        /* \"#utility.yul\":22006:22025   */\n      swap1\n      pop\n        /* \"#utility.yul\":21665:22031   */\n      swap2\n      swap1\n      pop\n      jump\t// out\n        /* \"#utility.yul\":22037:22456   */\n    tag_207:\n        /* \"#utility.yul\":22203:22207   */\n      0x00\n        /* \"#utility.yul\":22241:22243   */\n      0x20\n        /* \"#utility.yul\":22230:22239   */\n      dup3\n        /* \"#utility.yul\":22226:22244   */\n      add\n        /* \"#utility.yul\":22218:22244   */\n      swap1\n      pop\n        /* \"#utility.yul\":22290:22299   */\n      dup2\n        /* \"#utility.yul\":22284:22288   */\n      dup2\n        /* \"#utility.yul\":22280:22300   */\n      sub\n        /* \"#utility.yul\":22276:22277   */\n      0x00\n        /* \"#utility.yul\":22265:22274   */\n      dup4\n        /* \"#utility.yul\":22261:22278   */\n      add\n        /* \"#utility.yul\":22254:22301   */\n      mstore\n        /* \"#utility.yul\":22318:22449   */\n      tag_655\n        /* \"#utility.yul\":22444:22448   */\n      dup2\n        /* \"#utility.yul\":22318:22449   */\n      tag_428\n      jump\t// in\n    tag_655:\n        /* \"#utility.yul\":22310:22449   */\n      swap1\n      pop\n        /* \"#utility.yul\":22037:22456   */\n      swap2\n      swap1\n      pop\n      jump\t// out\n        /* \"#utility.yul\":22462:22603   */\n    tag_429:\n        /* \"#utility.yul\":22511:22515   */\n      0x00\n        /* \"#utility.yul\":22534:22537   */\n      dup2\n        /* \"#utility.yul\":22526:22537   */\n      swap1\n      pop\n        /* \"#utility.yul\":22557:22560   */\n      dup2\n        /* \"#utility.yul\":22554:22555   */\n      0x00\n        /* \"#utility.yul\":22547:22561   */\n      mstore\n        /* \"#utility.yul\":22591:22595   */\n      0x20\n        /* \"#utility.yul\":22588:22589   */\n      0x00\n        /* \"#utility.yul\":22578:22596   */\n      keccak256\n        /* \"#utility.yul\":22570:22596   */\n      swap1\n      pop\n        /* \"#utility.yul\":22462:22603   */\n      swap2\n      swap1\n      pop\n      jump\t// out\n        /* \"#utility.yul\":22609:22702   */\n    tag_430:\n        /* \"#utility.yul\":22646:22652   */\n      0x00\n        /* \"#utility.yul\":22693:22695   */\n      0x20\n        /* \"#utility.yul\":22688:22690   */\n      0x1f\n        /* \"#utility.yul\":22681:22686   */\n      dup4\n        /* \"#utility.yul\":22677:22691   */\n      add\n        /* \"#utility.yul\":22673:22696   */\n      div\n        /* \"#utility.yul\":22663:22696   */\n      swap1\n      pop\n        /* \"#utility.yul\":22609:22702   */\n      swap2\n      swap1\n      pop\n      jump\t// out\n        /* \"#utility.yul\":22708:22815   */\n    tag_431:\n        /* \"#utility.yul\":22752:22760   */\n      0x00\n        /* \"#utility.yul\":22802:22807   */\n      dup3\n        /* \"#utility.yul\":22796:22800   */\n      dup3\n        /* \"#utility.yul\":22792:22808   */\n      shl\n        /* \"#utility.yul\":22771:22808   */\n      swap1\n      pop\n        /* \"#utility.yul\":22708:22815   */\n      swap3\n      swap2\n      pop\n      pop\n      jump\t// out\n        /* \"#utility.yul\":22821:23214   */\n    tag_432:\n        /* \"#utility.yul\":22890:22896   */\n      0x00\n        /* \"#utility.yul\":22940:22941   */\n      0x08\n        /* \"#utility.yul\":22928:22938   */\n      dup4\n        /* \"#utility.yul\":22924:22942   */\n      mul\n        /* \"#utility.yul\":22963:23060   */\n      tag_660\n        /* \"#utility.yul\":22993:23059   */\n      0xffffffffffffffffffffffffffffffffffffffffffffffffffffffffffffffff\n        /* \"#utility.yul\":22982:22991   */\n      dup3\n        /* \"#utility.yul\":22963:23060   */\n      tag_431\n      jump\t// in\n    tag_660:\n        /* \"#utility.yul\":23081:23120   */\n      tag_661\n        /* \"#utility.yul\":23111:23119   */\n      dup7\n        /* \"#utility.yul\":23100:23109   */\n      dup4\n        /* \"#utility.yul\":23081:23120   */\n      tag_431\n      jump\t// in\n    tag_661:\n        /* \"#utility.yul\":23069:23120   */\n      swap6\n      pop\n        /* \"#utility.yul\":23153:23157   */\n      dup1\n        /* \"#utility.yul\":23149:23158   */\n      not\n        /* \"#utility.yul\":23142:23147   */\n      dup5\n        /* \"#utility.yul\":23138:23159   */\n      and\n        /* \"#utility.yul\":23129:23159   */\n      swap4\n      pop\n        /* \"#utility.yul\":23202:23206   */\n      dup1\n        /* \"#utility.yul\":23192:23200   */\n      dup7\n        /* \"#utility.yul\":23188:23207   */\n      and\n        /* \"#utility.yul\":23181:23186   */\n      dup5\n        /* \"#utility.yul\":23178:23208   */\n      or\n        /* \"#utility.yul\":23168:23208   */\n      swap3\n      pop\n        /* \"#utility.yul\":22897:23214   */\n      pop\n      pop\n        /* \"#utility.yul\":22821:23214   */\n      swap4\n      swap3\n      pop\n      pop\n      pop\n      jump\t// out\n        /* \"#utility.yul\":23220:23280   */\n    tag_433:\n        /* \"#utility.yul\":23248:23251   */\n      0x00\n        /* \"#utility.yul\":23269:23274   */\n      dup2\n        /* \"#utility.yul\":23262:23274   */\n      swap1\n      pop\n        /* \"#utility.yul\":23220:23280   */\n      swap2\n      swap1\n      pop\n      jump\t// out\n        /* \"#utility.yul\":23286:23428   */\n    tag_434:\n        /* \"#utility.yul\":23336:23345   */\n      0x00\n        /* \"#utility.yul\":23369:23422   */\n      tag_664\n        /* \"#utility.yul\":23387:23421   */\n      tag_665\n        /* \"#utility.yul\":23396:23420   */\n      tag_666\n        /* \"#utility.yul\":23414:23419   */\n      dup5\n        /* \"#utility.yul\":23396:23420   */\n      tag_378\n      jump\t// in\n    tag_666:\n        /* \"#utility.yul\":23387:23421   */\n      tag_433\n      jump\t// in\n    tag_665:\n        /* \"#utility.yul\":23369:23422   */\n      tag_378\n      jump\t// in\n    tag_664:\n        /* \"#utility.yul\":23356:23422   */\n      swap1\n      pop\n        /* \"#utility.yul\":23286:23428   */\n      swap2\n      swap1\n      pop\n      jump\t// out\n        /* \"#utility.yul\":23434:23509   */\n    tag_435:\n        /* \"#utility.yul\":23477:23480   */\n      0x00\n        /* \"#utility.yul\":23498:23503   */\n      dup2\n        /* \"#utility.yul\":23491:23503   */\n      swap1\n      pop\n        /* \"#utility.yul\":23434:23509   */\n      swap2\n      swap1\n      pop\n      jump\t// out\n        /* \"#utility.yul\":23515:23784   */\n    tag_436:\n        /* \"#utility.yul\":23625:23664   */\n      tag_669\n        /* \"#utility.yul\":23656:23663   */\n      dup4\n        /* \"#utility.yul\":23625:23664   */\n      tag_434\n      jump\t// in\n    tag_669:\n        /* \"#utility.yul\":23686:23777   */\n      tag_670\n        /* \"#utility.yul\":23735:23776   */\n      tag_671\n        /* \"#utility.yul\":23759:23775   */\n      dup3\n        /* \"#utility.yul\":23735:23776   */\n      tag_435\n      jump\t// in\n    tag_671:\n        /* \"#utility.yul\":23727:23733   */\n      dup5\n        /* \"#utility.yul\":23720:23724   */\n      dup5\n        /* \"#utility.yul\":23714:23725   */\n      sload\n        /* \"#utility.yul\":23686:23777   */\n      tag_432\n      jump\t// in\n    tag_670:\n        /* \"#utility.yul\":23680:23684   */\n      dup3\n        /* \"#utility.yul\":23673:23778   */\n      sstore\n        /* \"#utility.yul\":23591:23784   */\n      pop\n        /* \"#utility.yul\":23515:23784   */\n      pop\n      pop\n      pop\n      jump\t// out\n        /* \"#utility.yul\":23790:23863   */\n    tag_437:\n        /* \"#utility.yul\":23835:23838   */\n      0x00\n        /* \"#utility.yul\":23790:23863   */\n      swap1\n      jump\t// out\n        /* \"#utility.yul\":23869:24058   */\n    tag_438:\n        /* \"#utility.yul\":23946:23978   */\n      tag_674\n      tag_437\n      jump\t// in\n    tag_674:\n        /* \"#utility.yul\":23987:24052   */\n      tag_675\n        /* \"#utility.yul\":24045:24051   */\n      dup2\n        /* \"#utility.yul\":24037:24043   */\n      dup5\n        /* \"#utility.yul\":24031:24035   */\n      dup5\n        /* \"#utility.yul\":23987:24052   */\n      tag_436\n      jump\t// in\n    tag_675:\n        /* \"#utility.yul\":23922:24058   */\n      pop\n        /* \"#utility.yul\":23869:24058   */\n      pop\n      pop\n      jump\t// out\n        /* \"#utility.yul\":24064:24250   */\n    tag_439:\n        /* \"#utility.yul\":24124:24244   */\n    tag_677:\n        /* \"#utility.yul\":24141:24144   */\n      dup2\n        /* \"#utility.yul\":24134:24139   */\n      dup2\n        /* \"#utility.yul\":24131:24145   */\n      lt\n        /* \"#utility.yul\":24124:24244   */\n      iszero\n      tag_679\n      jumpi\n        /* \"#utility.yul\":24195:24234   */\n      tag_680\n        /* \"#utility.yul\":24232:24233   */\n      0x00\n        /* \"#utility.yul\":24225:24230   */\n      dup3\n        /* \"#utility.yul\":24195:24234   */\n      tag_438\n      jump\t// in\n    tag_680:\n        /* \"#utility.yul\":24168:24169   */\n      0x01\n        /* \"#utility.yul\":24161:24166   */\n      dup2\n        /* \"#utility.yul\":24157:24170   */\n      add\n        /* \"#utility.yul\":24148:24170   */\n      swap1\n      pop\n        /* \"#utility.yul\":24124:24244   */\n      jump(tag_677)\n    tag_679:\n        /* \"#utility.yul\":24064:24250   */\n      pop\n      pop\n      jump\t// out\n        /* \"#utility.yul\":24256:24799   */\n    tag_440:\n        /* \"#utility.yul\":24357:24359   */\n      0x1f\n        /* \"#utility.yul\":24352:24355   */\n      dup3\n        /* \"#utility.yul\":24349:24360   */\n      gt\n        /* \"#utility.yul\":24346:24792   */\n      iszero\n      tag_682\n      jumpi\n        /* \"#utility.yul\":24391:24429   */\n      tag_683\n        /* \"#utility.yul\":24423:24428   */\n      dup2\n        /* \"#utility.yul\":24391:24429   */\n      tag_429\n      jump\t// in\n    tag_683:\n        /* \"#utility.yul\":24475:24504   */\n      tag_684\n        /* \"#utility.yul\":24493:24503   */\n      dup5\n        /* \"#utility.yul\":24475:24504   */\n      tag_430\n      jump\t// in\n    tag_684:\n        /* \"#utility.yul\":24465:24473   */\n      dup2\n        /* \"#utility.yul\":24461:24505   */\n      add\n        /* \"#utility.yul\":24658:24660   */\n      0x20\n        /* \"#utility.yul\":24646:24656   */\n      dup6\n        /* \"#utility.yul\":24643:24661   */\n      lt\n        /* \"#utility.yul\":24640:24689   */\n      iszero\n      tag_685\n      jumpi\n        /* \"#utility.yul\":24679:24687   */\n      dup2\n        /* \"#utility.yul\":24664:24687   */\n      swap1\n      pop\n        /* \"#utility.yul\":24640:24689   */\n    tag_685:\n        /* \"#utility.yul\":24702:24782   */\n      tag_686\n        /* \"#utility.yul\":24758:24780   */\n      tag_687\n        /* \"#utility.yul\":24776:24779   */\n      dup6\n        /* \"#utility.yul\":24758:24780   */\n      tag_430\n      jump\t// in\n    tag_687:\n        /* \"#utility.yul\":24748:24756   */\n      dup4\n        /* \"#utility.yul\":24744:24781   */\n      add\n        /* \"#utility.yul\":24731:24742   */\n      dup3\n        /* \"#utility.yul\":24702:24782   */\n      tag_439\n      jump\t// in\n    tag_686:\n        /* \"#utility.yul\":24361:24792   */\n      pop\n      pop\n        /* \"#utility.yul\":24346:24792   */\n    tag_682:\n        /* \"#utility.yul\":24256:24799   */\n      pop\n      pop\n      pop\n      jump\t// out\n        /* \"#utility.yul\":24805:24922   */\n    tag_441:\n        /* \"#utility.yul\":24859:24867   */\n      0x00\n        /* \"#utility.yul\":24909:24914   */\n      dup3\n        /* \"#utility.yul\":24903:24907   */\n      dup3\n        /* \"#utility.yul\":24899:24915   */\n      shr\n        /* \"#utility.yul\":24878:24915   */\n      swap1\n      pop\n        /* \"#utility.yul\":24805:24922   */\n      swap3\n      swap2\n      pop\n      pop\n      jump\t// out\n        /* \"#utility.yul\":24928:25097   */\n    tag_442:\n        /* \"#utility.yul\":24972:24978   */\n      0x00\n        /* \"#utility.yul\":25005:25056   */\n      tag_690\n        /* \"#utility.yul\":25053:25054   */\n      0x00\n        /* \"#utility.yul\":25049:25055   */\n      not\n        /* \"#utility.yul\":25041:25046   */\n      dup5\n        /* \"#utility.yul\":25038:25039   */\n      0x08\n        /* \"#utility.yul\":25034:25047   */\n      mul\n        /* \"#utility.yul\":25005:25056   */\n      tag_441\n      jump\t// in\n    tag_690:\n        /* \"#utility.yul\":25001:25057   */\n      not\n        /* \"#utility.yul\":25086:25090   */\n      dup1\n        /* \"#utility.yul\":25080:25084   */\n      dup4\n        /* \"#utility.yul\":25076:25091   */\n      and\n        /* \"#utility.yul\":25066:25091   */\n      swap2\n      pop\n        /* \"#utility.yul\":24979:25097   */\n      pop\n        /* \"#utility.yul\":24928:25097   */\n      swap3\n      swap2\n      pop\n      pop\n      jump\t// out\n        /* \"#utility.yul\":25102:25397   */\n    tag_443:\n        /* \"#utility.yul\":25178:25182   */\n      0x00\n        /* \"#utility.yul\":25324:25353   */\n      tag_692\n        /* \"#utility.yul\":25349:25352   */\n      dup4\n        /* \"#utility.yul\":25343:25347   */\n      dup4\n        /* \"#utility.yul\":25324:25353   */\n      tag_442\n      jump\t// in\n    tag_692:\n        /* \"#utility.yul\":25316:25353   */\n      swap2\n      pop\n        /* \"#utility.yul\":25386:25389   */\n      dup3\n        /* \"#utility.yul\":25383:25384   */\n      0x02\n        /* \"#utility.yul\":25379:25390   */\n      mul\n        /* \"#utility.yul\":25373:25377   */\n      dup3\n        /* \"#utility.yul\":25370:25391   */\n      or\n        /* \"#utility.yul\":25362:25391   */\n      swap1\n      pop\n        /* \"#utility.yul\":25102:25397   */\n      swap3\n      swap2\n      pop\n      pop\n      jump\t// out\n        /* \"#utility.yul\":25402:26797   */\n    tag_213:\n        /* \"#utility.yul\":25519:25556   */\n      tag_694\n        /* \"#utility.yul\":25552:25555   */\n      dup3\n        /* \"#utility.yul\":25519:25556   */\n      tag_381\n      jump\t// in\n    tag_694:\n        /* \"#utility.yul\":25621:25639   */\n      0xffffffffffffffff\n        /* \"#utility.yul\":25613:25619   */\n      dup2\n        /* \"#utility.yul\":25610:25640   */\n      gt\n        /* \"#utility.yul\":25607:25663   */\n      iszero\n      tag_695\n      jumpi\n        /* \"#utility.yul\":25643:25661   */\n      tag_696\n      tag_226\n      jump\t// in\n    tag_696:\n        /* \"#utility.yul\":25607:25663   */\n    tag_695:\n        /* \"#utility.yul\":25687:25725   */\n      tag_697\n        /* \"#utility.yul\":25719:25723   */\n      dup3\n        /* \"#utility.yul\":25713:25724   */\n      sload\n        /* \"#utility.yul\":25687:25725   */\n      tag_69\n      jump\t// in\n    tag_697:\n        /* \"#utility.yul\":25772:25839   */\n      tag_698\n        /* \"#utility.yul\":25832:25838   */\n      dup3\n        /* \"#utility.yul\":25824:25830   */\n      dup3\n        /* \"#utility.yul\":25818:25822   */\n      dup6\n        /* \"#utility.yul\":25772:25839   */\n      tag_440\n      jump\t// in\n    tag_698:\n        /* \"#utility.yul\":25866:25867   */\n      0x00\n        /* \"#utility.yul\":25890:25894   */\n      0x20\n        /* \"#utility.yul\":25877:25894   */\n      swap1\n      pop\n        /* \"#utility.yul\":25922:25924   */\n      0x1f\n        /* \"#utility.yul\":25914:25920   */\n      dup4\n        /* \"#utility.yul\":25911:25925   */\n      gt\n        /* \"#utility.yul\":25939:25940   */\n      0x01\n        /* \"#utility.yul\":25934:26552   */\n      dup2\n      eq\n      tag_700\n      jumpi\n        /* \"#utility.yul\":26596:26597   */\n      0x00\n        /* \"#utility.yul\":26613:26619   */\n      dup5\n        /* \"#utility.yul\":26610:26687   */\n      iszero\n      tag_701\n      jumpi\n        /* \"#utility.yul\":26662:26671   */\n      dup3\n        /* \"#utility.yul\":26657:26660   */\n      dup8\n        /* \"#utility.yul\":26653:26672   */\n      add\n        /* \"#utility.yul\":26647:26673   */\n      mload\n        /* \"#utility.yul\":26638:26673   */\n      swap1\n      pop\n        /* \"#utility.yul\":26610:26687   */\n    tag_701:\n        /* \"#utility.yul\":26713:26780   */\n      tag_702\n        /* \"#utility.yul\":26773:26779   */\n      dup6\n        /* \"#utility.yul\":26766:26771   */\n      dup3\n        /* \"#utility.yul\":26713:26780   */\n      tag_443\n      jump\t// in\n    tag_702:\n        /* \"#utility.yul\":26707:26711   */\n      dup7\n        /* \"#utility.yul\":26700:26781   */\n      sstore\n        /* \"#utility.yul\":26569:26791   */\n      pop\n        /* \"#utility.yul\":25904:26791   */\n      jump(tag_699)\n        /* \"#utility.yul\":25934:26552   */\n    tag_700:\n        /* \"#utility.yul\":25986:25990   */\n      0x1f\n        /* \"#utility.yul\":25982:25991   */\n      not\n        /* \"#utility.yul\":25974:25980   */\n      dup5\n        /* \"#utility.yul\":25970:25992   */\n      and\n        /* \"#utility.yul\":26020:26057   */\n      tag_703\n        /* \"#utility.yul\":26052:26056   */\n      dup7\n        /* \"#utility.yul\":26020:26057   */\n      tag_429\n      jump\t// in\n    tag_703:\n        /* \"#utility.yul\":26079:26080   */\n      0x00\n        /* \"#utility.yul\":26093:26301   */\n    tag_704:\n        /* \"#utility.yul\":26107:26114   */\n      dup3\n        /* \"#utility.yul\":26104:26105   */\n      dup2\n        /* \"#utility.yul\":26101:26115   */\n      lt\n        /* \"#utility.yul\":26093:26301   */\n      iszero\n      tag_706\n      jumpi\n        /* \"#utility.yul\":26186:26195   */\n      dup5\n        /* \"#utility.yul\":26181:26184   */\n      dup10\n        /* \"#utility.yul\":26177:26196   */\n      add\n        /* \"#utility.yul\":26171:26197   */\n      mload\n        /* \"#utility.yul\":26163:26169   */\n      dup3\n        /* \"#utility.yul\":26156:26198   */\n      sstore\n        /* \"#utility.yul\":26237:26238   */\n      0x01\n        /* \"#utility.yul\":26229:26235   */\n      dup3\n        /* \"#utility.yul\":26225:26239   */\n      add\n        /* \"#utility.yul\":26215:26239   */\n      swap2\n      pop\n        /* \"#utility.yul\":26284:26286   */\n      0x20\n        /* \"#utility.yul\":26273:26282   */\n      dup6\n        /* \"#utility.yul\":26269:26287   */\n      add\n        /* \"#utility.yul\":26256:26287   */\n      swap5\n      pop\n        /* \"#utility.yul\":26130:26134   */\n      0x20\n        /* \"#utility.yul\":26127:26128   */\n      dup2\n        /* \"#utility.yul\":26123:26135   */\n      add\n        /* \"#utility.yul\":26118:26135   */\n      swap1\n      pop\n        /* \"#utility.yul\":26093:26301   */\n      jump(tag_704)\n    tag_706:\n        /* \"#utility.yul\":26329:26335   */\n      dup7\n        /* \"#utility.yul\":26320:26327   */\n      dup4\n        /* \"#utility.yul\":26317:26336   */\n      lt\n        /* \"#utility.yul\":26314:26493   */\n      iszero\n      tag_707\n      jumpi\n        /* \"#utility.yul\":26387:26396   */\n      dup5\n        /* \"#utility.yul\":26382:26385   */\n      dup10\n        /* \"#utility.yul\":26378:26397   */\n      add\n        /* \"#utility.yul\":26372:26398   */\n      mload\n        /* \"#utility.yul\":26430:26478   */\n      tag_708\n        /* \"#utility.yul\":26472:26476   */\n      0x1f\n        /* \"#utility.yul\":26464:26470   */\n      dup10\n        /* \"#utility.yul\":26460:26477   */\n      and\n        /* \"#utility.yul\":26449:26458   */\n      dup3\n        /* \"#utility.yul\":26430:26478   */\n      tag_442\n      jump\t// in\n    tag_708:\n        /* \"#utility.yul\":26422:26428   */\n      dup4\n        /* \"#utility.yul\":26415:26479   */\n      sstore\n        /* \"#utility.yul\":26337:26493   */\n      pop\n        /* \"#utility.yul\":26314:26493   */\n    tag_707:\n        /* \"#utility.yul\":26539:26540   */\n      0x01\n        /* \"#utility.yul\":26535:26536   */\n      0x02\n        /* \"#utility.yul\":26527:26533   */\n      dup9\n        /* \"#utility.yul\":26523:26537   */\n      mul\n        /* \"#utility.yul\":26519:26541   */\n      add\n        /* \"#utility.yul\":26513:26517   */\n      dup9\n        /* \"#utility.yul\":26506:26542   */\n      sstore\n        /* \"#utility.yul\":25941:26552   */\n      pop\n      pop\n      pop\n        /* \"#utility.yul\":25904:26791   */\n    tag_699:\n      pop\n        /* \"#utility.yul\":25494:26797   */\n      pop\n      pop\n      pop\n        /* \"#utility.yul\":25402:26797   */\n      pop\n      pop\n      jump\t// out\n        /* \"#utility.yul\":26803:26882   */\n    tag_444:\n        /* \"#utility.yul\":26842:26849   */\n      0x00\n        /* \"#utility.yul\":26871:26876   */\n      dup2\n        /* \"#utility.yul\":26860:26876   */\n      swap1\n      pop\n        /* \"#utility.yul\":26803:26882   */\n      swap2\n      swap1\n      pop\n      jump\t// out\n        /* \"#utility.yul\":26888:27045   */\n    tag_445:\n        /* \"#utility.yul\":26993:27038   */\n      tag_711\n        /* \"#utility.yul\":27013:27037   */\n      tag_712\n        /* \"#utility.yul\":27031:27036   */\n      dup3\n        /* \"#utility.yul\":27013:27037   */\n      tag_378\n      jump\t// in\n    tag_712:\n        /* \"#utility.yul\":26993:27038   */\n      tag_444\n      jump\t// in\n    tag_711:\n        /* \"#utility.yul\":26988:26991   */\n      dup3\n        /* \"#utility.yul\":26981:27039   */\n      mstore\n        /* \"#utility.yul\":26888:27045   */\n      pop\n      pop\n      jump\t// out\n        /* \"#utility.yul\":27051:27177   */\n    tag_446:\n        /* \"#utility.yul\":27088:27095   */\n      0x00\n        /* \"#utility.yul\":27128:27170   */\n      0xffffffffffffffffffffffffffffffffffffffff\n        /* \"#utility.yul\":27121:27126   */\n      dup3\n        /* \"#utility.yul\":27117:27171   */\n      and\n        /* \"#utility.yul\":27106:27171   */\n      swap1\n      pop\n        /* \"#utility.yul\":27051:27177   */\n      swap2\n      swap1\n      pop\n      jump\t// out\n        /* \"#utility.yul\":27183:27279   */\n    tag_447:\n        /* \"#utility.yul\":27220:27227   */\n      0x00\n        /* \"#utility.yul\":27249:27273   */\n      tag_715\n        /* \"#utility.yul\":27267:27272   */\n      dup3\n        /* \"#utility.yul\":27249:27273   */\n      tag_446\n      jump\t// in\n    tag_715:\n        /* \"#utility.yul\":27238:27273   */\n      swap1\n      pop\n        /* \"#utility.yul\":27183:27279   */\n      swap2\n      swap1\n      pop\n      jump\t// out\n        /* \"#utility.yul\":27285:27379   */\n    tag_448:\n        /* \"#utility.yul\":27318:27326   */\n      0x00\n        /* \"#utility.yul\":27366:27371   */\n      dup2\n        /* \"#utility.yul\":27362:27364   */\n      0x60\n        /* \"#utility.yul\":27358:27372   */\n      shl\n        /* \"#utility.yul\":27337:27372   */\n      swap1\n      pop\n        /* \"#utility.yul\":27285:27379   */\n      swap2\n      swap1\n      pop\n      jump\t// out\n        /* \"#utility.yul\":27385:27479   */\n    tag_449:\n        /* \"#utility.yul\":27424:27431   */\n      0x00\n        /* \"#utility.yul\":27453:27473   */\n      tag_718\n        /* \"#utility.yul\":27467:27472   */\n      dup3\n        /* \"#utility.yul\":27453:27473   */\n      tag_448\n      jump\t// in\n    tag_718:\n        /* \"#utility.yul\":27442:27473   */\n      swap1\n      pop\n        /* \"#utility.yul\":27385:27479   */\n      swap2\n      swap1\n      pop\n      jump\t// out\n        /* \"#utility.yul\":27485:27585   */\n    tag_450:\n        /* \"#utility.yul\":27524:27531   */\n      0x00\n        /* \"#utility.yul\":27553:27579   */\n      tag_720\n        /* \"#utility.yul\":27573:27578   */\n      dup3\n        /* \"#utility.yul\":27553:27579   */\n      tag_449\n      jump\t// in\n    tag_720:\n        /* \"#utility.yul\":27542:27579   */\n      swap1\n      pop\n        /* \"#utility.yul\":27485:27585   */\n      swap2\n      swap1\n      pop\n      jump\t// out\n        /* \"#utility.yul\":27591:27748   */\n    tag_451:\n        /* \"#utility.yul\":27696:27741   */\n      tag_722\n        /* \"#utility.yul\":27716:27740   */\n      tag_723\n        /* \"#utility.yul\":27734:27739   */\n      dup3\n        /* \"#utility.yul\":27716:27740   */\n      tag_447\n      jump\t// in\n    tag_723:\n        /* \"#utility.yul\":27696:27741   */\n      tag_450\n      jump\t// in\n    tag_722:\n        /* \"#utility.yul\":27691:27694   */\n      dup3\n        /* \"#utility.yul\":27684:27742   */\n      mstore\n        /* \"#utility.yul\":27591:27748   */\n      pop\n      pop\n      jump\t// out\n        /* \"#utility.yul\":27754:28151   */\n    tag_215:\n        /* \"#utility.yul\":27894:27897   */\n      0x00\n        /* \"#utility.yul\":27909:27984   */\n      tag_725\n        /* \"#utility.yul\":27980:27983   */\n      dup3\n        /* \"#utility.yul\":27971:27977   */\n      dup6\n        /* \"#utility.yul\":27909:27984   */\n      tag_445\n      jump\t// in\n    tag_725:\n        /* \"#utility.yul\":28009:28011   */\n      0x20\n        /* \"#utility.yul\":28004:28007   */\n      dup3\n        /* \"#utility.yul\":28000:28012   */\n      add\n        /* \"#utility.yul\":27993:28012   */\n      swap2\n      pop\n        /* \"#utility.yul\":28022:28097   */\n      tag_726\n        /* \"#utility.yul\":28093:28096   */\n      dup3\n        /* \"#utility.yul\":28084:28090   */\n      dup5\n        /* \"#utility.yul\":28022:28097   */\n      tag_451\n      jump\t// in\n    tag_726:\n        /* \"#utility.yul\":28122:28124   */\n      0x14\n        /* \"#utility.yul\":28117:28120   */\n      dup3\n        /* \"#utility.yul\":28113:28125   */\n      add\n        /* \"#utility.yul\":28106:28125   */\n      swap2\n      pop\n        /* \"#utility.yul\":28142:28145   */\n      dup2\n        /* \"#utility.yul\":28135:28145   */\n      swap1\n      pop\n        /* \"#utility.yul\":27754:28151   */\n      swap4\n      swap3\n      pop\n      pop\n      pop\n      jump\t// out\n        /* \"#utility.yul\":28157:28337   */\n    tag_452:\n        /* \"#utility.yul\":28205:28282   */\n      0x4e487b7100000000000000000000000000000000000000000000000000000000\n        /* \"#utility.yul\":28202:28203   */\n      0x00\n        /* \"#utility.yul\":28195:28283   */\n      mstore\n        /* \"#utility.yul\":28302:28306   */\n      0x12\n        /* \"#utility.yul\":28299:28300   */\n      0x04\n        /* \"#utility.yul\":28292:28307   */\n      mstore\n        /* \"#utility.yul\":28326:28330   */\n      0x24\n        /* \"#utility.yul\":28323:28324   */\n      0x00\n        /* \"#utility.yul\":28316:28331   */\n      revert\n        /* \"#utility.yul\":28343:28519   */\n    tag_217:\n        /* \"#utility.yul\":28375:28376   */\n      0x00\n        /* \"#utility.yul\":28392:28412   */\n      tag_729\n        /* \"#utility.yul\":28410:28411   */\n      dup3\n        /* \"#utility.yul\":28392:28412   */\n      tag_378\n      jump\t// in\n    tag_729:\n        /* \"#utility.yul\":28387:28412   */\n      swap2\n      pop\n        /* \"#utility.yul\":28426:28446   */\n      tag_730\n        /* \"#utility.yul\":28444:28445   */\n      dup4\n        /* \"#utility.yul\":28426:28446   */\n      tag_378\n      jump\t// in\n    tag_730:\n        /* \"#utility.yul\":28421:28446   */\n      swap3\n      pop\n        /* \"#utility.yul\":28465:28466   */\n      dup3\n        /* \"#utility.yul\":28455:28490   */\n      tag_731\n      jumpi\n        /* \"#utility.yul\":28470:28488   */\n      tag_732\n      tag_452\n      jump\t// in\n    tag_732:\n        /* \"#utility.yul\":28455:28490   */\n    tag_731:\n        /* \"#utility.yul\":28511:28512   */\n      dup3\n        /* \"#utility.yul\":28508:28509   */\n      dup3\n        /* \"#utility.yul\":28504:28513   */\n      mod\n        /* \"#utility.yul\":28499:28513   */\n      swap1\n      pop\n        /* \"#utility.yul\":28343:28519   */\n      swap3\n      swap2\n      pop\n      pop\n      jump\t// out\n        /* \"#utility.yul\":28525:28678   */\n    tag_453:\n        /* \"#utility.yul\":28578:28584   */\n      0x00\n        /* \"#utility.yul\":28612:28617   */\n      dup2\n        /* \"#utility.yul\":28606:28618   */\n      sload\n        /* \"#utility.yul\":28596:28618   */\n      swap1\n      pop\n        /* \"#utility.yul\":28638:28671   */\n      tag_734\n        /* \"#utility.yul\":28664:28670   */\n      dup2\n        /* \"#utility.yul\":28638:28671   */\n      tag_69\n      jump\t// in\n    tag_734:\n        /* \"#utility.yul\":28628:28671   */\n      swap1\n      pop\n        /* \"#utility.yul\":28525:28678   */\n      swap2\n      swap1\n      pop\n      jump\t// out\n        /* \"#utility.yul\":28684:28829   */\n    tag_454:\n        /* \"#utility.yul\":28737:28741   */\n      0x00\n        /* \"#utility.yul\":28760:28763   */\n      dup2\n        /* \"#utility.yul\":28752:28763   */\n      swap1\n      pop\n        /* \"#utility.yul\":28783:28786   */\n      dup2\n        /* \"#utility.yul\":28780:28781   */\n      0x00\n        /* \"#utility.yul\":28773:28787   */\n      mstore\n        /* \"#utility.yul\":28817:28821   */\n      0x20\n        /* \"#utility.yul\":28814:28815   */\n      0x00\n        /* \"#utility.yul\":28804:28822   */\n      keccak256\n        /* \"#utility.yul\":28796:28822   */\n      swap1\n      pop\n        /* \"#utility.yul\":28684:28829   */\n      swap2\n      swap1\n      pop\n      jump\t// out\n        /* \"#utility.yul\":28835:30298   */\n    tag_222:\n        /* \"#utility.yul\":28950:28953   */\n      dup2\n        /* \"#utility.yul\":28944:28948   */\n      dup2\n        /* \"#utility.yul\":28941:28954   */\n      sub\n        /* \"#utility.yul\":28938:28964   */\n      tag_737\n      jumpi\n        /* \"#utility.yul\":28957:28962   */\n      pop\n      pop\n      jump(tag_736)\n        /* \"#utility.yul\":28938:28964   */\n    tag_737:\n        /* \"#utility.yul\":28988:29026   */\n      tag_738\n        /* \"#utility.yul\":29022:29025   */\n      dup3\n        /* \"#utility.yul\":28988:29026   */\n      tag_453\n      jump\t// in\n    tag_738:\n        /* \"#utility.yul\":29091:29109   */\n      0xffffffffffffffff\n        /* \"#utility.yul\":29083:29089   */\n      dup2\n        /* \"#utility.yul\":29080:29110   */\n      gt\n        /* \"#utility.yul\":29077:29133   */\n      iszero\n      tag_739\n      jumpi\n        /* \"#utility.yul\":29113:29131   */\n      tag_740\n      tag_226\n      jump\t// in\n    tag_740:\n        /* \"#utility.yul\":29077:29133   */\n    tag_739:\n        /* \"#utility.yul\":29157:29195   */\n      tag_741\n        /* \"#utility.yul\":29189:29193   */\n      dup3\n        /* \"#utility.yul\":29183:29194   */\n      sload\n        /* \"#utility.yul\":29157:29195   */\n      tag_69\n      jump\t// in\n    tag_741:\n        /* \"#utility.yul\":29242:29309   */\n      tag_742\n        /* \"#utility.yul\":29302:29308   */\n      dup3\n        /* \"#utility.yul\":29294:29300   */\n      dup3\n        /* \"#utility.yul\":29288:29292   */\n      dup6\n        /* \"#utility.yul\":29242:29309   */\n      tag_440\n      jump\t// in\n    tag_742:\n        /* \"#utility.yul\":29336:29337   */\n      0x00\n        /* \"#utility.yul\":29365:29367   */\n      0x1f\n        /* \"#utility.yul\":29357:29363   */\n      dup4\n        /* \"#utility.yul\":29354:29368   */\n      gt\n        /* \"#utility.yul\":29382:29383   */\n      0x01\n        /* \"#utility.yul\":29377:30053   */\n      dup2\n      eq\n      tag_744\n      jumpi\n        /* \"#utility.yul\":30097:30098   */\n      0x00\n        /* \"#utility.yul\":30114:30120   */\n      dup5\n        /* \"#utility.yul\":30111:30188   */\n      iszero\n      tag_745\n      jumpi\n        /* \"#utility.yul\":30163:30172   */\n      dup3\n        /* \"#utility.yul\":30158:30161   */\n      dup8\n        /* \"#utility.yul\":30154:30173   */\n      add\n        /* \"#utility.yul\":30148:30174   */\n      sload\n        /* \"#utility.yul\":30139:30174   */\n      swap1\n      pop\n        /* \"#utility.yul\":30111:30188   */\n    tag_745:\n        /* \"#utility.yul\":30214:30281   */\n      tag_746\n        /* \"#utility.yul\":30274:30280   */\n      dup6\n        /* \"#utility.yul\":30267:30272   */\n      dup3\n        /* \"#utility.yul\":30214:30281   */\n      tag_443\n      jump\t// in\n    tag_746:\n        /* \"#utility.yul\":30208:30212   */\n      dup7\n        /* \"#utility.yul\":30201:30282   */\n      sstore\n        /* \"#utility.yul\":30070:30292   */\n      pop\n        /* \"#utility.yul\":29347:30292   */\n      jump(tag_743)\n        /* \"#utility.yul\":29377:30053   */\n    tag_744:\n        /* \"#utility.yul\":29429:29433   */\n      0x1f\n        /* \"#utility.yul\":29425:29434   */\n      not\n        /* \"#utility.yul\":29417:29423   */\n      dup5\n        /* \"#utility.yul\":29413:29435   */\n      and\n        /* \"#utility.yul\":29455:29495   */\n      tag_747\n        /* \"#utility.yul\":29491:29494   */\n      dup8\n        /* \"#utility.yul\":29455:29495   */\n      tag_454\n      jump\t// in\n    tag_747:\n        /* \"#utility.yul\":29448:29495   */\n      swap7\n      pop\n        /* \"#utility.yul\":29522:29559   */\n      tag_748\n        /* \"#utility.yul\":29554:29558   */\n      dup7\n        /* \"#utility.yul\":29522:29559   */\n      tag_429\n      jump\t// in\n    tag_748:\n        /* \"#utility.yul\":29581:29582   */\n      0x00\n        /* \"#utility.yul\":29595:29802   */\n    tag_749:\n        /* \"#utility.yul\":29609:29616   */\n      dup3\n        /* \"#utility.yul\":29606:29607   */\n      dup2\n        /* \"#utility.yul\":29603:29617   */\n      lt\n        /* \"#utility.yul\":29595:29802   */\n      iszero\n      tag_751\n      jumpi\n        /* \"#utility.yul\":29688:29697   */\n      dup5\n        /* \"#utility.yul\":29683:29686   */\n      dup10\n        /* \"#utility.yul\":29679:29698   */\n      add\n        /* \"#utility.yul\":29673:29699   */\n      sload\n        /* \"#utility.yul\":29665:29671   */\n      dup3\n        /* \"#utility.yul\":29658:29700   */\n      sstore\n        /* \"#utility.yul\":29739:29740   */\n      0x01\n        /* \"#utility.yul\":29731:29737   */\n      dup3\n        /* \"#utility.yul\":29727:29741   */\n      add\n        /* \"#utility.yul\":29717:29741   */\n      swap2\n      pop\n        /* \"#utility.yul\":29786:29787   */\n      0x01\n        /* \"#utility.yul\":29775:29784   */\n      dup6\n        /* \"#utility.yul\":29771:29788   */\n      add\n        /* \"#utility.yul\":29758:29788   */\n      swap5\n      pop\n        /* \"#utility.yul\":29632:29636   */\n      0x20\n        /* \"#utility.yul\":29629:29630   */\n      dup2\n        /* \"#utility.yul\":29625:29637   */\n      add\n        /* \"#utility.yul\":29620:29637   */\n      swap1\n      pop\n        /* \"#utility.yul\":29595:29802   */\n      jump(tag_749)\n    tag_751:\n        /* \"#utility.yul\":29830:29836   */\n      dup7\n        /* \"#utility.yul\":29821:29828   */\n      dup4\n        /* \"#utility.yul\":29818:29837   */\n      lt\n        /* \"#utility.yul\":29815:29994   */\n      iszero\n      tag_752\n      jumpi\n        /* \"#utility.yul\":29888:29897   */\n      dup5\n        /* \"#utility.yul\":29883:29886   */\n      dup10\n        /* \"#utility.yul\":29879:29898   */\n      add\n        /* \"#utility.yul\":29873:29899   */\n      sload\n        /* \"#utility.yul\":29931:29979   */\n      tag_753\n        /* \"#utility.yul\":29973:29977   */\n      0x1f\n        /* \"#utility.yul\":29965:29971   */\n      dup10\n        /* \"#utility.yul\":29961:29978   */\n      and\n        /* \"#utility.yul\":29950:29959   */\n      dup3\n        /* \"#utility.yul\":29931:29979   */\n      tag_442\n      jump\t// in\n    tag_753:\n        /* \"#utility.yul\":29923:29929   */\n      dup4\n        /* \"#utility.yul\":29916:29980   */\n      sstore\n        /* \"#utility.yul\":29838:29994   */\n      pop\n        /* \"#utility.yul\":29815:29994   */\n    tag_752:\n        /* \"#utility.yul\":30040:30041   */\n      0x01\n        /* \"#utility.yul\":30036:30037   */\n      0x02\n        /* \"#utility.yul\":30028:30034   */\n      dup9\n        /* \"#utility.yul\":30024:30038   */\n      mul\n        /* \"#utility.yul\":30020:30042   */\n      add\n        /* \"#utility.yul\":30014:30018   */\n      dup9\n        /* \"#utility.yul\":30007:30043   */\n      sstore\n        /* \"#utility.yul\":29384:30053   */\n      pop\n      pop\n      pop\n        /* \"#utility.yul\":29347:30292   */\n    tag_743:\n      pop\n        /* \"#utility.yul\":28928:30298   */\n      pop\n      pop\n      pop\n        /* \"#utility.yul\":28835:30298   */\n      pop\n      pop\n    tag_736:\n      jump\t// out\n        /* \"#utility.yul\":30304:30492   */\n    tag_240:\n        /* \"#utility.yul\":30342:30345   */\n      0x00\n        /* \"#utility.yul\":30361:30379   */\n      tag_755\n        /* \"#utility.yul\":30377:30378   */\n      dup3\n        /* \"#utility.yul\":30361:30379   */\n      tag_394\n      jump\t// in\n    tag_755:\n        /* \"#utility.yul\":30356:30379   */\n      swap2\n      pop\n        /* \"#utility.yul\":30393:30411   */\n      tag_756\n        /* \"#utility.yul\":30409:30410   */\n      dup4\n        /* \"#utility.yul\":30393:30411   */\n      tag_394\n      jump\t// in\n    tag_756:\n        /* \"#utility.yul\":30388:30411   */\n      swap3\n      pop\n        /* \"#utility.yul\":30434:30435   */\n      dup3\n        /* \"#utility.yul\":30431:30432   */\n      dup3\n        /* \"#utility.yul\":30427:30436   */\n      add\n        /* \"#utility.yul\":30420:30436   */\n      swap1\n      pop\n        /* \"#utility.yul\":30457:30461   */\n      0xff\n        /* \"#utility.yul\":30452:30455   */\n      dup2\n        /* \"#utility.yul\":30449:30462   */\n      gt\n        /* \"#utility.yul\":30446:30485   */\n      iszero\n      tag_757\n      jumpi\n        /* \"#utility.yul\":30465:30483   */\n      tag_758\n      tag_404\n      jump\t// in\n    tag_758:\n        /* \"#utility.yul\":30446:30485   */\n    tag_757:\n        /* \"#utility.yul\":30304:30492   */\n      swap3\n      swap2\n      pop\n      pop\n      jump\t// out\n        /* \"#utility.yul\":30522:31404   */\n    tag_455:\n        /* \"#utility.yul\":30629:30632   */\n      0x00\n        /* \"#utility.yul\":30666:30671   */\n      dup2\n        /* \"#utility.yul\":30660:30672   */\n      sload\n        /* \"#utility.yul\":30695:30731   */\n      tag_760\n        /* \"#utility.yul\":30721:30730   */\n      dup2\n        /* \"#utility.yul\":30695:30731   */\n      tag_69\n      jump\t// in\n    tag_760:\n        /* \"#utility.yul\":30747:30836   */\n      tag_761\n        /* \"#utility.yul\":30829:30835   */\n      dup2\n        /* \"#utility.yul\":30824:30827   */\n      dup7\n        /* \"#utility.yul\":30747:30836   */\n      tag_400\n      jump\t// in\n    tag_761:\n        /* \"#utility.yul\":30740:30836   */\n      swap5\n      pop\n        /* \"#utility.yul\":30867:30868   */\n      0x01\n        /* \"#utility.yul\":30856:30865   */\n      dup3\n        /* \"#utility.yul\":30852:30869   */\n      and\n        /* \"#utility.yul\":30883:30884   */\n      0x00\n        /* \"#utility.yul\":30878:31044   */\n      dup2\n      eq\n      tag_763\n      jumpi\n        /* \"#utility.yul\":31058:31059   */\n      0x01\n        /* \"#utility.yul\":31053:31398   */\n      dup2\n      eq\n      tag_764\n      jumpi\n        /* \"#utility.yul\":30845:31398   */\n      jump(tag_762)\n        /* \"#utility.yul\":30878:31044   */\n    tag_763:\n        /* \"#utility.yul\":30962:30966   */\n      0xff\n        /* \"#utility.yul\":30958:30967   */\n      not\n        /* \"#utility.yul\":30947:30956   */\n      dup4\n        /* \"#utility.yul\":30943:30968   */\n      and\n        /* \"#utility.yul\":30938:30941   */\n      dup7\n        /* \"#utility.yul\":30931:30969   */\n      mstore\n        /* \"#utility.yul\":31024:31030   */\n      dup2\n        /* \"#utility.yul\":31017:31031   */\n      iszero\n        /* \"#utility.yul\":31010:31032   */\n      iszero\n        /* \"#utility.yul\":31002:31008   */\n      dup3\n        /* \"#utility.yul\":30998:31033   */\n      mul\n        /* \"#utility.yul\":30993:30996   */\n      dup7\n        /* \"#utility.yul\":30989:31034   */\n      add\n        /* \"#utility.yul\":30982:31034   */\n      swap4\n      pop\n        /* \"#utility.yul\":30878:31044   */\n      jump(tag_762)\n        /* \"#utility.yul\":31053:31398   */\n    tag_764:\n        /* \"#utility.yul\":31120:31162   */\n      tag_765\n        /* \"#utility.yul\":31156:31161   */\n      dup6\n        /* \"#utility.yul\":31120:31162   */\n      tag_454\n      jump\t// in\n    tag_765:\n        /* \"#utility.yul\":31184:31185   */\n      0x00\n        /* \"#utility.yul\":31198:31352   */\n    tag_766:\n        /* \"#utility.yul\":31212:31218   */\n      dup4\n        /* \"#utility.yul\":31209:31210   */\n      dup2\n        /* \"#utility.yul\":31206:31219   */\n      lt\n        /* \"#utility.yul\":31198:31352   */\n      iszero\n      tag_768\n      jumpi\n        /* \"#utility.yul\":31286:31293   */\n      dup2\n        /* \"#utility.yul\":31280:31294   */\n      sload\n        /* \"#utility.yul\":31276:31277   */\n      dup2\n        /* \"#utility.yul\":31271:31274   */\n      dup10\n        /* \"#utility.yul\":31267:31278   */\n      add\n        /* \"#utility.yul\":31260:31295   */\n      mstore\n        /* \"#utility.yul\":31336:31337   */\n      0x01\n        /* \"#utility.yul\":31327:31334   */\n      dup3\n        /* \"#utility.yul\":31323:31338   */\n      add\n        /* \"#utility.yul\":31312:31338   */\n      swap2\n      pop\n        /* \"#utility.yul\":31234:31238   */\n      0x20\n        /* \"#utility.yul\":31231:31232   */\n      dup2\n        /* \"#utility.yul\":31227:31239   */\n      add\n        /* \"#utility.yul\":31222:31239   */\n      swap1\n      pop\n        /* \"#utility.yul\":31198:31352   */\n      jump(tag_766)\n    tag_768:\n        /* \"#utility.yul\":31381:31387   */\n      dup4\n        /* \"#utility.yul\":31376:31379   */\n      dup9\n        /* \"#utility.yul\":31372:31388   */\n      add\n        /* \"#utility.yul\":31365:31388   */\n      swap6\n      pop\n        /* \"#utility.yul\":31060:31398   */\n      pop\n      pop\n        /* \"#utility.yul\":30845:31398   */\n    tag_762:\n      pop\n        /* \"#utility.yul\":30633:31404   */\n      pop\n      pop\n        /* \"#utility.yul\":30522:31404   */\n      swap3\n      swap2\n      pop\n      pop\n      jump\t// out\n        /* \"#utility.yul\":31410:31687   */\n    tag_244:\n        /* \"#utility.yul\":31543:31546   */\n      0x00\n        /* \"#utility.yul\":31565:31661   */\n      tag_770\n        /* \"#utility.yul\":31657:31660   */\n      dup3\n        /* \"#utility.yul\":31648:31654   */\n      dup5\n        /* \"#utility.yul\":31565:31661   */\n      tag_455\n      jump\t// in\n    tag_770:\n        /* \"#utility.yul\":31558:31661   */\n      swap2\n      pop\n        /* \"#utility.yul\":31678:31681   */\n      dup2\n        /* \"#utility.yul\":31671:31681   */\n      swap1\n      pop\n        /* \"#utility.yul\":31410:31687   */\n      swap3\n      swap2\n      pop\n      pop\n      jump\t// out\n        /* \"#utility.yul\":31717:32556   */\n    tag_456:\n        /* \"#utility.yul\":31806:31809   */\n      0x00\n        /* \"#utility.yul\":31843:31848   */\n      dup2\n        /* \"#utility.yul\":31837:31849   */\n      sload\n        /* \"#utility.yul\":31872:31908   */\n      tag_772\n        /* \"#utility.yul\":31898:31907   */\n      dup2\n        /* \"#utility.yul\":31872:31908   */\n      tag_69\n      jump\t// in\n    tag_772:\n        /* \"#utility.yul\":31924:31995   */\n      tag_773\n        /* \"#utility.yul\":31988:31994   */\n      dup2\n        /* \"#utility.yul\":31983:31986   */\n      dup7\n        /* \"#utility.yul\":31924:31995   */\n      tag_382\n      jump\t// in\n    tag_773:\n        /* \"#utility.yul\":31917:31995   */\n      swap5\n      pop\n        /* \"#utility.yul\":32026:32027   */\n      0x01\n        /* \"#utility.yul\":32015:32024   */\n      dup3\n        /* \"#utility.yul\":32011:32028   */\n      and\n        /* \"#utility.yul\":32042:32043   */\n      0x00\n        /* \"#utility.yul\":32037:32201   */\n      dup2\n      eq\n      tag_775\n      jumpi\n        /* \"#utility.yul\":32215:32216   */\n      0x01\n        /* \"#utility.yul\":32210:32550   */\n      dup2\n      eq\n      tag_776\n      jumpi\n        /* \"#utility.yul\":32004:32550   */\n      jump(tag_774)\n        /* \"#utility.yul\":32037:32201   */\n    tag_775:\n        /* \"#utility.yul\":32121:32125   */\n      0xff\n        /* \"#utility.yul\":32117:32126   */\n      not\n        /* \"#utility.yul\":32106:32115   */\n      dup4\n        /* \"#utility.yul\":32102:32127   */\n      and\n        /* \"#utility.yul\":32097:32100   */\n      dup7\n        /* \"#utility.yul\":32090:32128   */\n      mstore\n        /* \"#utility.yul\":32181:32187   */\n      dup2\n        /* \"#utility.yul\":32174:32188   */\n      iszero\n        /* \"#utility.yul\":32167:32189   */\n      iszero\n        /* \"#utility.yul\":32161:32165   */\n      0x20\n        /* \"#utility.yul\":32157:32190   */\n      mul\n        /* \"#utility.yul\":32152:32155   */\n      dup7\n        /* \"#utility.yul\":32148:32191   */\n      add\n        /* \"#utility.yul\":32141:32191   */\n      swap4\n      pop\n        /* \"#utility.yul\":32037:32201   */\n      jump(tag_774)\n        /* \"#utility.yul\":32210:32550   */\n    tag_776:\n        /* \"#utility.yul\":32277:32319   */\n      tag_777\n        /* \"#utility.yul\":32313:32318   */\n      dup6\n        /* \"#utility.yul\":32277:32319   */\n      tag_454\n      jump\t// in\n    tag_777:\n        /* \"#utility.yul\":32341:32342   */\n      0x00\n        /* \"#utility.yul\":32355:32509   */\n    tag_778:\n        /* \"#utility.yul\":32369:32375   */\n      dup4\n        /* \"#utility.yul\":32366:32367   */\n      dup2\n        /* \"#utility.yul\":32363:32376   */\n      lt\n        /* \"#utility.yul\":32355:32509   */\n      iszero\n      tag_780\n      jumpi\n        /* \"#utility.yul\":32443:32450   */\n      dup2\n        /* \"#utility.yul\":32437:32451   */\n      sload\n        /* \"#utility.yul\":32433:32434   */\n      dup2\n        /* \"#utility.yul\":32428:32431   */\n      dup10\n        /* \"#utility.yul\":32424:32435   */\n      add\n        /* \"#utility.yul\":32417:32452   */\n      mstore\n        /* \"#utility.yul\":32493:32494   */\n      0x01\n        /* \"#utility.yul\":32484:32491   */\n      dup3\n        /* \"#utility.yul\":32480:32495   */\n      add\n        /* \"#utility.yul\":32469:32495   */\n      swap2\n      pop\n        /* \"#utility.yul\":32391:32395   */\n      0x20\n        /* \"#utility.yul\":32388:32389   */\n      dup2\n        /* \"#utility.yul\":32384:32396   */\n      add\n        /* \"#utility.yul\":32379:32396   */\n      swap1\n      pop\n        /* \"#utility.yul\":32355:32509   */\n      jump(tag_778)\n    tag_780:\n        /* \"#utility.yul\":32538:32539   */\n      dup1\n        /* \"#utility.yul\":32533:32536   */\n      dup9\n        /* \"#utility.yul\":32529:32540   */\n      add\n        /* \"#utility.yul\":32522:32540   */\n      swap6\n      pop\n        /* \"#utility.yul\":32217:32550   */\n      pop\n      pop\n        /* \"#utility.yul\":32004:32550   */\n    tag_774:\n      pop\n        /* \"#utility.yul\":31810:32556   */\n      pop\n      pop\n        /* \"#utility.yul\":31717:32556   */\n      swap3\n      swap2\n      pop\n      pop\n      jump\t// out\n        /* \"#utility.yul\":32562:32711   */\n    tag_457:\n        /* \"#utility.yul\":32598:32605   */\n      0x00\n        /* \"#utility.yul\":32638:32704   */\n      0xff00000000000000000000000000000000000000000000000000000000000000\n        /* \"#utility.yul\":32631:32636   */\n      dup3\n        /* \"#utility.yul\":32627:32705   */\n      and\n        /* \"#utility.yul\":32616:32705   */\n      swap1\n      pop\n        /* \"#utility.yul\":32562:32711   */\n      swap2\n      swap1\n      pop\n      jump\t// out\n        /* \"#utility.yul\":32717:32832   */\n    tag_458:\n        /* \"#utility.yul\":32802:32825   */\n      tag_783\n        /* \"#utility.yul\":32819:32824   */\n      dup2\n        /* \"#utility.yul\":32802:32825   */\n      tag_457\n      jump\t// in\n    tag_783:\n        /* \"#utility.yul\":32797:32800   */\n      dup3\n        /* \"#utility.yul\":32790:32826   */\n      mstore\n        /* \"#utility.yul\":32717:32832   */\n      pop\n      pop\n      jump\t// out\n        /* \"#utility.yul\":32838:33259   */\n    tag_246:\n        /* \"#utility.yul\":32978:32982   */\n      0x00\n        /* \"#utility.yul\":33016:33018   */\n      0x40\n        /* \"#utility.yul\":33005:33014   */\n      dup3\n        /* \"#utility.yul\":33001:33019   */\n      add\n        /* \"#utility.yul\":32993:33019   */\n      swap1\n      pop\n        /* \"#utility.yul\":33065:33074   */\n      dup2\n        /* \"#utility.yul\":33059:33063   */\n      dup2\n        /* \"#utility.yul\":33055:33075   */\n      sub\n        /* \"#utility.yul\":33051:33052   */\n      0x00\n        /* \"#utility.yul\":33040:33049   */\n      dup4\n        /* \"#utility.yul\":33036:33053   */\n      add\n        /* \"#utility.yul\":33029:33076   */\n      mstore\n        /* \"#utility.yul\":33093:33172   */\n      tag_785\n        /* \"#utility.yul\":33167:33171   */\n      dup2\n        /* \"#utility.yul\":33158:33164   */\n      dup6\n        /* \"#utility.yul\":33093:33172   */\n      tag_456\n      jump\t// in\n    tag_785:\n        /* \"#utility.yul\":33085:33172   */\n      swap1\n      pop\n        /* \"#utility.yul\":33182:33252   */\n      tag_786\n        /* \"#utility.yul\":33248:33250   */\n      0x20\n        /* \"#utility.yul\":33237:33246   */\n      dup4\n        /* \"#utility.yul\":33233:33251   */\n      add\n        /* \"#utility.yul\":33224:33230   */\n      dup5\n        /* \"#utility.yul\":33182:33252   */\n      tag_458\n      jump\t// in\n    tag_786:\n        /* \"#utility.yul\":32838:33259   */\n      swap4\n      swap3\n      pop\n      pop\n      pop\n      jump\t// out\n        /* \"#utility.yul\":33289:34163   */\n    tag_459:\n        /* \"#utility.yul\":33392:33395   */\n      0x00\n        /* \"#utility.yul\":33429:33434   */\n      dup2\n        /* \"#utility.yul\":33423:33435   */\n      sload\n        /* \"#utility.yul\":33458:33494   */\n      tag_788\n        /* \"#utility.yul\":33484:33493   */\n      dup2\n        /* \"#utility.yul\":33458:33494   */\n      tag_69\n      jump\t// in\n    tag_788:\n        /* \"#utility.yul\":33510:33599   */\n      tag_789\n        /* \"#utility.yul\":33592:33598   */\n      dup2\n        /* \"#utility.yul\":33587:33590   */\n      dup7\n        /* \"#utility.yul\":33510:33599   */\n      tag_400\n      jump\t// in\n    tag_789:\n        /* \"#utility.yul\":33503:33599   */\n      swap5\n      pop\n        /* \"#utility.yul\":33630:33631   */\n      0x01\n        /* \"#utility.yul\":33619:33628   */\n      dup3\n        /* \"#utility.yul\":33615:33632   */\n      and\n        /* \"#utility.yul\":33646:33647   */\n      0x00\n        /* \"#utility.yul\":33641:33807   */\n      dup2\n      eq\n      tag_791\n      jumpi\n        /* \"#utility.yul\":33821:33822   */\n      0x01\n        /* \"#utility.yul\":33816:34157   */\n      dup2\n      eq\n      tag_792\n      jumpi\n        /* \"#utility.yul\":33608:34157   */\n      jump(tag_790)\n        /* \"#utility.yul\":33641:33807   */\n    tag_791:\n        /* \"#utility.yul\":33725:33729   */\n      0xff\n        /* \"#utility.yul\":33721:33730   */\n      not\n        /* \"#utility.yul\":33710:33719   */\n      dup4\n        /* \"#utility.yul\":33706:33731   */\n      and\n        /* \"#utility.yul\":33701:33704   */\n      dup7\n        /* \"#utility.yul\":33694:33732   */\n      mstore\n        /* \"#utility.yul\":33787:33793   */\n      dup2\n        /* \"#utility.yul\":33780:33794   */\n      iszero\n        /* \"#utility.yul\":33773:33795   */\n      iszero\n        /* \"#utility.yul\":33765:33771   */\n      dup3\n        /* \"#utility.yul\":33761:33796   */\n      mul\n        /* \"#utility.yul\":33756:33759   */\n      dup7\n        /* \"#utility.yul\":33752:33797   */\n      add\n        /* \"#utility.yul\":33745:33797   */\n      swap4\n      pop\n        /* \"#utility.yul\":33641:33807   */\n      jump(tag_790)\n        /* \"#utility.yul\":33816:34157   */\n    tag_792:\n        /* \"#utility.yul\":33883:33921   */\n      tag_793\n        /* \"#utility.yul\":33915:33920   */\n      dup6\n        /* \"#utility.yul\":33883:33921   */\n      tag_429\n      jump\t// in\n    tag_793:\n        /* \"#utility.yul\":33943:33944   */\n      0x00\n        /* \"#utility.yul\":33957:34111   */\n    tag_794:\n        /* \"#utility.yul\":33971:33977   */\n      dup4\n        /* \"#utility.yul\":33968:33969   */\n      dup2\n        /* \"#utility.yul\":33965:33978   */\n      lt\n        /* \"#utility.yul\":33957:34111   */\n      iszero\n      tag_796\n      jumpi\n        /* \"#utility.yul\":34045:34052   */\n      dup2\n        /* \"#utility.yul\":34039:34053   */\n      sload\n        /* \"#utility.yul\":34035:34036   */\n      dup2\n        /* \"#utility.yul\":34030:34033   */\n      dup10\n        /* \"#utility.yul\":34026:34037   */\n      add\n        /* \"#utility.yul\":34019:34054   */\n      mstore\n        /* \"#utility.yul\":34095:34096   */\n      0x01\n        /* \"#utility.yul\":34086:34093   */\n      dup3\n        /* \"#utility.yul\":34082:34097   */\n      add\n        /* \"#utility.yul\":34071:34097   */\n      swap2\n      pop\n        /* \"#utility.yul\":33993:33997   */\n      0x20\n        /* \"#utility.yul\":33990:33991   */\n      dup2\n        /* \"#utility.yul\":33986:33998   */\n      add\n        /* \"#utility.yul\":33981:33998   */\n      swap1\n      pop\n        /* \"#utility.yul\":33957:34111   */\n      jump(tag_794)\n    tag_796:\n        /* \"#utility.yul\":34140:34146   */\n      dup4\n        /* \"#utility.yul\":34135:34138   */\n      dup9\n        /* \"#utility.yul\":34131:34147   */\n      add\n        /* \"#utility.yul\":34124:34147   */\n      swap6\n      pop\n        /* \"#utility.yul\":33823:34157   */\n      pop\n      pop\n        /* \"#utility.yul\":33608:34157   */\n    tag_790:\n      pop\n        /* \"#utility.yul\":33396:34163   */\n      pop\n      pop\n        /* \"#utility.yul\":33289:34163   */\n      swap3\n      swap2\n      pop\n      pop\n      jump\t// out\n        /* \"#utility.yul\":34169:34438   */\n    tag_279:\n        /* \"#utility.yul\":34298:34301   */\n      0x00\n        /* \"#utility.yul\":34320:34412   */\n      tag_798\n        /* \"#utility.yul\":34408:34411   */\n      dup3\n        /* \"#utility.yul\":34399:34405   */\n      dup5\n        /* \"#utility.yul\":34320:34412   */\n      tag_459\n      jump\t// in\n    tag_798:\n        /* \"#utility.yul\":34313:34412   */\n      swap2\n      pop\n        /* \"#utility.yul\":34429:34432   */\n      dup2\n        /* \"#utility.yul\":34422:34432   */\n      swap1\n      pop\n        /* \"#utility.yul\":34169:34438   */\n      swap3\n      swap2\n      pop\n      pop\n      jump\t// out\n        /* \"#utility.yul\":34444:34534   */\n    tag_460:\n        /* \"#utility.yul\":34478:34485   */\n      0x00\n        /* \"#utility.yul\":34521:34526   */\n      dup2\n        /* \"#utility.yul\":34514:34527   */\n      iszero\n        /* \"#utility.yul\":34507:34528   */\n      iszero\n        /* \"#utility.yul\":34496:34528   */\n      swap1\n      pop\n        /* \"#utility.yul\":34444:34534   */\n      swap2\n      swap1\n      pop\n      jump\t// out\n        /* \"#utility.yul\":34540:34649   */\n    tag_461:\n        /* \"#utility.yul\":34621:34642   */\n      tag_801\n        /* \"#utility.yul\":34636:34641   */\n      dup2\n        /* \"#utility.yul\":34621:34642   */\n      tag_460\n      jump\t// in\n    tag_801:\n        /* \"#utility.yul\":34616:34619   */\n      dup3\n        /* \"#utility.yul\":34609:34643   */\n      mstore\n        /* \"#utility.yul\":34540:34649   */\n      pop\n      pop\n      jump\t// out\n        /* \"#utility.yul\":34655:35172   */\n    tag_281:\n        /* \"#utility.yul\":34816:34820   */\n      0x00\n        /* \"#utility.yul\":34854:34856   */\n      0x60\n        /* \"#utility.yul\":34843:34852   */\n      dup3\n        /* \"#utility.yul\":34839:34857   */\n      add\n        /* \"#utility.yul\":34831:34857   */\n      swap1\n      pop\n        /* \"#utility.yul\":34867:34936   */\n      tag_803\n        /* \"#utility.yul\":34933:34934   */\n      0x00\n        /* \"#utility.yul\":34922:34931   */\n      dup4\n        /* \"#utility.yul\":34918:34935   */\n      add\n        /* \"#utility.yul\":34909:34915   */\n      dup7\n        /* \"#utility.yul\":34867:34936   */\n      tag_458\n      jump\t// in\n    tag_803:\n        /* \"#utility.yul\":34983:34992   */\n      dup2\n        /* \"#utility.yul\":34977:34981   */\n      dup2\n        /* \"#utility.yul\":34973:34993   */\n      sub\n        /* \"#utility.yul\":34968:34970   */\n      0x20\n        /* \"#utility.yul\":34957:34966   */\n      dup4\n        /* \"#utility.yul\":34953:34971   */\n      add\n        /* \"#utility.yul\":34946:34994   */\n      mstore\n        /* \"#utility.yul\":35011:35089   */\n      tag_804\n        /* \"#utility.yul\":35084:35088   */\n      dup2\n        /* \"#utility.yul\":35075:35081   */\n      dup6\n        /* \"#utility.yul\":35011:35089   */\n      tag_385\n      jump\t// in\n    tag_804:\n        /* \"#utility.yul\":35003:35089   */\n      swap1\n      pop\n        /* \"#utility.yul\":35099:35165   */\n      tag_805\n        /* \"#utility.yul\":35161:35163   */\n      0x40\n        /* \"#utility.yul\":35150:35159   */\n      dup4\n        /* \"#utility.yul\":35146:35164   */\n      add\n        /* \"#utility.yul\":35137:35143   */\n      dup5\n        /* \"#utility.yul\":35099:35165   */\n      tag_461\n      jump\t// in\n    tag_805:\n        /* \"#utility.yul\":34655:35172   */\n      swap5\n      swap4\n      pop\n      pop\n      pop\n      pop\n      jump\t// out\n        /* \"#utility.yul\":35178:35358   */\n    tag_462:\n        /* \"#utility.yul\":35226:35303   */\n      0x4e487b7100000000000000000000000000000000000000000000000000000000\n        /* \"#utility.yul\":35223:35224   */\n      0x00\n        /* \"#utility.yul\":35216:35304   */\n      mstore\n        /* \"#utility.yul\":35323:35327   */\n      0x21\n        /* \"#utility.yul\":35320:35321   */\n      0x04\n        /* \"#utility.yul\":35313:35328   */\n      mstore\n        /* \"#utility.yul\":35347:35351   */\n      0x24\n        /* \"#utility.yul\":35344:35345   */\n      0x00\n        /* \"#utility.yul\":35337:35352   */\n      revert\n        /* \"#utility.yul\":35364:35482   */\n    tag_463:\n        /* \"#utility.yul\":35450:35451   */\n      0x03\n        /* \"#utility.yul\":35443:35448   */\n      dup2\n        /* \"#utility.yul\":35440:35452   */\n      lt\n        /* \"#utility.yul\":35430:35476   */\n      tag_808\n      jumpi\n        /* \"#utility.yul\":35456:35474   */\n      tag_809\n      tag_462\n      jump\t// in\n    tag_809:\n        /* \"#utility.yul\":35430:35476   */\n    tag_808:\n        /* \"#utility.yul\":35364:35482   */\n      pop\n      jump\t// out\n        /* \"#utility.yul\":35488:35625   */\n    tag_464:\n        /* \"#utility.yul\":35538:35545   */\n      0x00\n        /* \"#utility.yul\":35567:35572   */\n      dup2\n        /* \"#utility.yul\":35556:35572   */\n      swap1\n      pop\n        /* \"#utility.yul\":35573:35619   */\n      tag_811\n        /* \"#utility.yul\":35613:35618   */\n      dup3\n        /* \"#utility.yul\":35573:35619   */\n      tag_463\n      jump\t// in\n    tag_811:\n        /* \"#utility.yul\":35488:35625   */\n      swap2\n      swap1\n      pop\n      jump\t// out\n        /* \"#utility.yul\":35631:35768   */\n    tag_465:\n        /* \"#utility.yul\":35692:35701   */\n      0x00\n        /* \"#utility.yul\":35725:35762   */\n      tag_813\n        /* \"#utility.yul\":35756:35761   */\n      dup3\n        /* \"#utility.yul\":35725:35762   */\n      tag_464\n      jump\t// in\n    tag_813:\n        /* \"#utility.yul\":35712:35762   */\n      swap1\n      pop\n        /* \"#utility.yul\":35631:35768   */\n      swap2\n      swap1\n      pop\n      jump\t// out\n        /* \"#utility.yul\":35774:35927   */\n    tag_466:\n        /* \"#utility.yul\":35872:35920   */\n      tag_815\n        /* \"#utility.yul\":35914:35919   */\n      dup2\n        /* \"#utility.yul\":35872:35920   */\n      tag_465\n      jump\t// in\n    tag_815:\n        /* \"#utility.yul\":35867:35870   */\n      dup3\n        /* \"#utility.yul\":35860:35921   */\n      mstore\n        /* \"#utility.yul\":35774:35927   */\n      pop\n      pop\n      jump\t// out\n        /* \"#utility.yul\":35957:36788   */\n    tag_467:\n        /* \"#utility.yul\":36042:36045   */\n      0x00\n        /* \"#utility.yul\":36079:36084   */\n      dup2\n        /* \"#utility.yul\":36073:36085   */\n      sload\n        /* \"#utility.yul\":36108:36144   */\n      tag_817\n        /* \"#utility.yul\":36134:36143   */\n      dup2\n        /* \"#utility.yul\":36108:36144   */\n      tag_69\n      jump\t// in\n    tag_817:\n        /* \"#utility.yul\":36160:36231   */\n      tag_818\n        /* \"#utility.yul\":36224:36230   */\n      dup2\n        /* \"#utility.yul\":36219:36222   */\n      dup7\n        /* \"#utility.yul\":36160:36231   */\n      tag_382\n      jump\t// in\n    tag_818:\n        /* \"#utility.yul\":36153:36231   */\n      swap5\n      pop\n        /* \"#utility.yul\":36262:36263   */\n      0x01\n        /* \"#utility.yul\":36251:36260   */\n      dup3\n        /* \"#utility.yul\":36247:36264   */\n      and\n        /* \"#utility.yul\":36278:36279   */\n      0x00\n        /* \"#utility.yul\":36273:36437   */\n      dup2\n      eq\n      tag_820\n      jumpi\n        /* \"#utility.yul\":36451:36452   */\n      0x01\n        /* \"#utility.yul\":36446:36782   */\n      dup2\n      eq\n      tag_821\n      jumpi\n        /* \"#utility.yul\":36240:36782   */\n      jump(tag_819)\n        /* \"#utility.yul\":36273:36437   */\n    tag_820:\n        /* \"#utility.yul\":36357:36361   */\n      0xff\n        /* \"#utility.yul\":36353:36362   */\n      not\n        /* \"#utility.yul\":36342:36351   */\n      dup4\n        /* \"#utility.yul\":36338:36363   */\n      and\n        /* \"#utility.yul\":36333:36336   */\n      dup7\n        /* \"#utility.yul\":36326:36364   */\n      mstore\n        /* \"#utility.yul\":36417:36423   */\n      dup2\n        /* \"#utility.yul\":36410:36424   */\n      iszero\n        /* \"#utility.yul\":36403:36425   */\n      iszero\n        /* \"#utility.yul\":36397:36401   */\n      0x20\n        /* \"#utility.yul\":36393:36426   */\n      mul\n        /* \"#utility.yul\":36388:36391   */\n      dup7\n        /* \"#utility.yul\":36384:36427   */\n      add\n        /* \"#utility.yul\":36377:36427   */\n      swap4\n      pop\n        /* \"#utility.yul\":36273:36437   */\n      jump(tag_819)\n        /* \"#utility.yul\":36446:36782   */\n    tag_821:\n        /* \"#utility.yul\":36513:36551   */\n      tag_822\n        /* \"#utility.yul\":36545:36550   */\n      dup6\n        /* \"#utility.yul\":36513:36551   */\n      tag_429\n      jump\t// in\n    tag_822:\n        /* \"#utility.yul\":36573:36574   */\n      0x00\n        /* \"#utility.yul\":36587:36741   */\n    tag_823:\n        /* \"#utility.yul\":36601:36607   */\n      dup4\n        /* \"#utility.yul\":36598:36599   */\n      dup2\n        /* \"#utility.yul\":36595:36608   */\n      lt\n        /* \"#utility.yul\":36587:36741   */\n      iszero\n      tag_825\n      jumpi\n        /* \"#utility.yul\":36675:36682   */\n      dup2\n        /* \"#utility.yul\":36669:36683   */\n      sload\n        /* \"#utility.yul\":36665:36666   */\n      dup2\n        /* \"#utility.yul\":36660:36663   */\n      dup10\n        /* \"#utility.yul\":36656:36667   */\n      add\n        /* \"#utility.yul\":36649:36684   */\n      mstore\n        /* \"#utility.yul\":36725:36726   */\n      0x01\n        /* \"#utility.yul\":36716:36723   */\n      dup3\n        /* \"#utility.yul\":36712:36727   */\n      add\n        /* \"#utility.yul\":36701:36727   */\n      swap2\n      pop\n        /* \"#utility.yul\":36623:36627   */\n      0x20\n        /* \"#utility.yul\":36620:36621   */\n      dup2\n        /* \"#utility.yul\":36616:36628   */\n      add\n        /* \"#utility.yul\":36611:36628   */\n      swap1\n      pop\n        /* \"#utility.yul\":36587:36741   */\n      jump(tag_823)\n    tag_825:\n        /* \"#utility.yul\":36770:36771   */\n      dup1\n        /* \"#utility.yul\":36765:36768   */\n      dup9\n        /* \"#utility.yul\":36761:36772   */\n      add\n        /* \"#utility.yul\":36754:36772   */\n      swap6\n      pop\n        /* \"#utility.yul\":36453:36782   */\n      pop\n      pop\n        /* \"#utility.yul\":36240:36782   */\n    tag_819:\n      pop\n        /* \"#utility.yul\":36046:36788   */\n      pop\n      pop\n        /* \"#utility.yul\":35957:36788   */\n      swap3\n      swap2\n      pop\n      pop\n      jump\t// out\n        /* \"#utility.yul\":36794:37233   */\n    tag_301:\n        /* \"#utility.yul\":36943:36947   */\n      0x00\n        /* \"#utility.yul\":36981:36983   */\n      0x40\n        /* \"#utility.yul\":36970:36979   */\n      dup3\n        /* \"#utility.yul\":36966:36984   */\n      add\n        /* \"#utility.yul\":36958:36984   */\n      swap1\n      pop\n        /* \"#utility.yul\":36994:37076   */\n      tag_827\n        /* \"#utility.yul\":37073:37074   */\n      0x00\n        /* \"#utility.yul\":37062:37071   */\n      dup4\n        /* \"#utility.yul\":37058:37075   */\n      add\n        /* \"#utility.yul\":37049:37055   */\n      dup6\n        /* \"#utility.yul\":36994:37076   */\n      tag_466\n      jump\t// in\n    tag_827:\n        /* \"#utility.yul\":37123:37132   */\n      dup2\n        /* \"#utility.yul\":37117:37121   */\n      dup2\n        /* \"#utility.yul\":37113:37133   */\n      sub\n        /* \"#utility.yul\":37108:37110   */\n      0x20\n        /* \"#utility.yul\":37097:37106   */\n      dup4\n        /* \"#utility.yul\":37093:37111   */\n      add\n        /* \"#utility.yul\":37086:37134   */\n      mstore\n        /* \"#utility.yul\":37151:37226   */\n      tag_828\n        /* \"#utility.yul\":37221:37225   */\n      dup2\n        /* \"#utility.yul\":37212:37218   */\n      dup5\n        /* \"#utility.yul\":37151:37226   */\n      tag_467\n      jump\t// in\n    tag_828:\n        /* \"#utility.yul\":37143:37226   */\n      swap1\n      pop\n        /* \"#utility.yul\":36794:37233   */\n      swap4\n      swap3\n      pop\n      pop\n      pop\n      jump\t// out\n        /* \"#utility.yul\":37239:37406   */\n    tag_329:\n        /* \"#utility.yul\":37276:37279   */\n      0x00\n        /* \"#utility.yul\":37299:37321   */\n      tag_830\n        /* \"#utility.yul\":37315:37320   */\n      dup3\n        /* \"#utility.yul\":37299:37321   */\n      tag_394\n      jump\t// in\n    tag_830:\n        /* \"#utility.yul\":37290:37321   */\n      swap2\n      pop\n        /* \"#utility.yul\":37343:37347   */\n      0xff\n        /* \"#utility.yul\":37336:37341   */\n      dup3\n        /* \"#utility.yul\":37333:37348   */\n      sub\n        /* \"#utility.yul\":37330:37371   */\n      tag_831\n      jumpi\n        /* \"#utility.yul\":37351:37369   */\n      tag_832\n      tag_404\n      jump\t// in\n    tag_832:\n        /* \"#utility.yul\":37330:37371   */\n    tag_831:\n        /* \"#utility.yul\":37398:37399   */\n      0x01\n        /* \"#utility.yul\":37391:37396   */\n      dup3\n        /* \"#utility.yul\":37387:37400   */\n      add\n        /* \"#utility.yul\":37380:37400   */\n      swap1\n      pop\n        /* \"#utility.yul\":37239:37406   */\n      swap2\n      swap1\n      pop\n      jump\t// out\n\n    auxdata: 0xa26469706673582212206f247534f263093368dca45aaf4283d5323bd3bcd6046ec2a64b808844757aaf64736f6c634300081a0033\n}\n",
				"bytecode": {
					"linkReferences": {},
					"object": "60806040526040518060a001604052806040518060400160405280600581526020017f4170706c6500000000000000000000000000000000000000000000000000000081525081526020016040518060400160405280600681526020017f42616e616e61000000000000000000000000000000000000000000000000000081525081526020016040518060400160405280600681526020017f436865727279000000000000000000000000000000000000000000000000000081525081526020016040518060400160405280600681526020017f44757269616e000000000000000000000000000000000000000000000000000081525081526020016040518060400160405280600a81526020017f456c6465726265727279000000000000000000000000000000000000000000008152508152505f906005610143929190610155565b5034801561014f575f80fd5b50610530565b828054828255905f5260205f2090810192821561019b579160200282015b8281111561019a57825182908161018a9190610461565b5091602001919060010190610173565b5b5090506101a891906101ac565b5090565b5b808211156101cb575f81816101c291906101cf565b506001016101ad565b5090565b5080546101db9061028b565b5f825580601f106101ec5750610209565b601f0160209004905f5260205f2090810190610208919061020c565b5b50565b5b80821115610223575f815f90555060010161020d565b5090565b5f81519050919050565b7f4e487b71000000000000000000000000000000000000000000000000000000005f52604160045260245ffd5b7f4e487b71000000000000000000000000000000000000000000000000000000005f52602260045260245ffd5b5f60028204905060018216806102a257607f821691505b6020821081036102b5576102b461025e565b5b50919050565b5f819050815f5260205f209050919050565b5f6020601f8301049050919050565b5f82821b905092915050565b5f600883026103177fffffffffffffffffffffffffffffffffffffffffffffffffffffffffffffffff826102dc565b61032186836102dc565b95508019841693508086168417925050509392505050565b5f819050919050565b5f819050919050565b5f61036561036061035b84610339565b610342565b610339565b9050919050565b5f819050919050565b61037e8361034b565b61039261038a8261036c565b8484546102e8565b825550505050565b5f90565b6103a661039a565b6103b1818484610375565b505050565b5b818110156103d4576103c95f8261039e565b6001810190506103b7565b5050565b601f821115610419576103ea816102bb565b6103f3846102cd565b81016020851015610402578190505b61041661040e856102cd565b8301826103b6565b50505b505050565b5f82821c905092915050565b5f6104395f198460080261041e565b1980831691505092915050565b5f610451838361042a565b9150826002028217905092915050565b61046a82610227565b67ffffffffffffffff81111561048357610482610231565b5b61048d825461028b565b6104988282856103d8565b5f60209050601f8311600181146104c9575f84156104b7578287015190505b6104c18582610446565b865550610528565b601f1984166104d7866102bb565b5f5b828110156104fe578489015182556001820191506020850194506020810190506104d9565b8683101561051b5784890151610517601f89168261042a565b8355505b6001600288020188555050505b505050505050565b6138988061053d5f395ff3fe608060405234801561000f575f80fd5b50600436106100cd575f3560e01c8063a8010c4e1161008a578063c22a95f111610064578063c22a95f1146101ff578063d19e39f01461021b578063d5c68ab214610237578063e565c83514610253576100cd565b8063a8010c4e14610195578063aa4103e2146101c5578063b3914f32146101e3576100cd565b80630f1ad663146100d15780633d536a2e146101015780634411b3eb1461011d5780634fd019131461013b578063684d467814610159578063a438d20814610177575b5f80fd5b6100eb60048036038101906100e69190612512565b61026f565b6040516100f891906125ad565b60405180910390f35b61011b600480360381019061011691906126f9565b610314565b005b610125610582565b604051610132919061275b565b60405180910390f35b610143610587565b604051610150919061275b565b60405180910390f35b61016161058c565b60405161016e919061275b565b60405180910390f35b61017f610591565b60405161018c9190612783565b60405180910390f35b6101af60048036038101906101aa91906126f9565b610597565b6040516101bc919061275b565b60405180910390f35b6101cd6105cc565b6040516101da9190612783565b60405180910390f35b6101fd60048036038101906101f8919061279c565b6105d2565b005b610219600480360381019061021491906126f9565b610b79565b005b610235600480360381019061023091906126f9565b610d4e565b005b610251600480360381019061024c91906126f9565b610ec9565b005b61026d6004803603810190610268919061283c565b611086565b005b5f818154811061027d575f80fd5b905f5260205f20015f915090508054610295906128c3565b80601f01602080910402602001604051908101604052809291908181526020018280546102c1906128c3565b801561030c5780601f106102e35761010080835404028352916020019161030c565b820191905f5260205f20905b8154815290600101906020018083116102ef57829003601f168201915b505050505081565b805f605b82604051610326919061292d565b90815260200160405180910390205f9054906101000a900460ff1660ff1603610384576040517f08c379a000000000000000000000000000000000000000000000000000000000815260040161037b9061298d565b60405180910390fd5b5f600180605b85604051610398919061292d565b90815260200160405180910390205f9054906101000a900460ff166103bd91906129d8565b60ff16600581106103d1576103d0612a0c565b5b6012020190508060010160149054906101000a900460ff1660ff168160010160159054906101000a900460ff1660ff1610610441576040517f08c379a000000000000000000000000000000000000000000000000000000000815260040161043890612a83565b60405180910390fd5b806002015f3373ffffffffffffffffffffffffffffffffffffffff1673ffffffffffffffffffffffffffffffffffffffff1681526020019081526020015f205f9054906101000a900460ff16156104cd576040517f08c379a00000000000000000000000000000000000000000000000000000000081526004016104c490612aeb565b60405180910390fd5b6001816002015f3373ffffffffffffffffffffffffffffffffffffffff1673ffffffffffffffffffffffffffffffffffffffff1681526020019081526020015f205f6101000a81548160ff0219169083151502179055503373ffffffffffffffffffffffffffffffffffffffff1683604051610549919061292d565b60405180910390207f6426ed08b4816b27e58d721b4ff6fb44e6696b9d5ca257dcbd4b0576eb4dc53960405160405180910390a3505050565b600581565b600581565b600681565b61012c81565b605b818051602081018201805184825260208301602085012081835280955050505050505f915054906101000a900460ff1681565b61038481565b815f605b826040516105e4919061292d565b90815260200160405180910390205f9054906101000a900460ff1660ff1603610642576040517f08c379a00000000000000000000000000000000000000000000000000000000081526004016106399061298d565b60405180910390fd5b82600180605b83604051610656919061292d565b90815260200160405180910390205f9054906101000a900460ff1661067b91906129d8565b60ff166005811061068f5761068e612a0c565b5b601202016002015f3373ffffffffffffffffffffffffffffffffffffffff1673ffffffffffffffffffffffffffffffffffffffff1681526020019081526020015f205f9054906101000a900460ff1661071d576040517f08c379a000000000000000000000000000000000000000000000000000000000815260040161071490612b79565b60405180910390fd5b5f835f8151811061073157610730612a0c565b5b602001015160f81c60f81b90505f600180605b88604051610752919061292d565b90815260200160405180910390205f9054906101000a900460ff1661077791906129d8565b60ff166005811061078b5761078a612a0c565b5b6012020190505f8160080190505f60f81b816008015f3373ffffffffffffffffffffffffffffffffffffffff1673ffffffffffffffffffffffffffffffffffffffff1681526020019081526020015f205f9054906101000a900460f81b7effffffffffffffffffffffffffffffffffffffffffffffffffffffffffffff19161461084a576040517f08c379a000000000000000000000000000000000000000000000000000000000815260040161084190612be1565b60405180910390fd5b5f7f41000000000000000000000000000000000000000000000000000000000000007effffffffffffffffffffffffffffffffffffffffffffffffffffffffffffff1916847effffffffffffffffffffffffffffffffffffffffffffffffffffffffffffff19161015801561092357507f5a000000000000000000000000000000000000000000000000000000000000007effffffffffffffffffffffffffffffffffffffffffffffffffffffffffffff1916847effffffffffffffffffffffffffffffffffffffffffffffffffffffffffffff191610155b90508080610a0557507f61000000000000000000000000000000000000000000000000000000000000007effffffffffffffffffffffffffffffffffffffffffffffffffffffffffffff1916847effffffffffffffffffffffffffffffffffffffffffffffffffffffffffffff191610158015610a0457507f7a000000000000000000000000000000000000000000000000000000000000007effffffffffffffffffffffffffffffffffffffffffffffffffffffffffffff1916847effffffffffffffffffffffffffffffffffffffffffffffffffffffffffffff191610155b5b610a44576040517f08c379a0000000000000000000000000000000000000000000000000000000008152600401610a3b90612c49565b60405180910390fd5b8015610a605760208460f81c610a5a91906129d8565b60f81b93505b826006015f857effffffffffffffffffffffffffffffffffffffffffffffffffffffffffffff19167effffffffffffffffffffffffffffffffffffffffffffffffffffffffffffff191681526020019081526020015f205f9054906101000a900460ff1615610b04576040517f08c379a0000000000000000000000000000000000000000000000000000000008152600401610afb90612cb1565b60405180910390fd5b610b12835f018333876113ad565b42836007018190555061012c826001015442610b2e9190612ccf565b1180610b6057508260010160159054906101000a900460ff1660ff16826002015f9054906101000a900460ff1660ff16145b15610b6f57610b6e83611600565b5b5050505050505050565b805f605b82604051610b8b919061292d565b90815260200160405180910390205f9054906101000a900460ff1660ff1603610be9576040517f08c379a0000000000000000000000000000000000000000000000000000000008152600401610be09061298d565b60405180910390fd5b81600180605b83604051610bfd919061292d565b90815260200160405180910390205f9054906101000a900460ff16610c2291906129d8565b60ff1660058110610c3657610c35612a0c565b5b601202016002015f3373ffffffffffffffffffffffffffffffffffffffff1673ffffffffffffffffffffffffffffffffffffffff1681526020019081526020015f205f9054906101000a900460ff16610cc4576040517f08c379a0000000000000000000000000000000000000000000000000000000008152600401610cbb90612b79565b60405180910390fd5b5f600180605b86604051610cd8919061292d565b90815260200160405180910390205f9054906101000a900460ff16610cfd91906129d8565b60ff1660058110610d1157610d10612a0c565b5b601202019050610d218133611ac2565b5f8160010160159054906101000a900460ff1660ff1603610d4857610d47816002611d0f565b5b50505050565b805f605b82604051610d60919061292d565b90815260200160405180910390205f9054906101000a900460ff1660ff1603610dbe576040517f08c379a0000000000000000000000000000000000000000000000000000000008152600401610db59061298d565b60405180910390fd5b5f600180605b85604051610dd2919061292d565b90815260200160405180910390205f9054906101000a900460ff16610df791906129d8565b60ff1660058110610e0b57610e0a612a0c565b5b6012020190505f816008019050805f015f9054906101000a900460ff16610e67576040517f08c379a0000000000000000000000000000000000000000000000000000000008152600401610e5e90612d4c565b60405180910390fd5b61012c816001015442610e7a9190612ccf565b11610eba576040517f08c379a0000000000000000000000000000000000000000000000000000000008152600401610eb190612db4565b60405180910390fd5b610ec382611600565b50505050565b805f605b82604051610edb919061292d565b90815260200160405180910390205f9054906101000a900460ff1660ff1603610f39576040517f08c379a0000000000000000000000000000000000000000000000000000000008152600401610f309061298d565b60405180910390fd5b5f600180605b85604051610f4d919061292d565b90815260200160405180910390205f9054906101000a900460ff16610f7291906129d8565b60ff1660058110610f8657610f85612a0c565b5b6012020190503373ffffffffffffffffffffffffffffffffffffffff16816001015f9054906101000a900473ffffffffffffffffffffffffffffffffffffffff1673ffffffffffffffffffffffffffffffffffffffff16148061103757505f73ffffffffffffffffffffffffffffffffffffffff16816001015f9054906101000a900473ffffffffffffffffffffffffffffffffffffffff1673ffffffffffffffffffffffffffffffffffffffff16145b611076576040517f08c379a000000000000000000000000000000000000000000000000000000000815260040161106d90612e42565b60405180910390fd5b611081816002611d0f565b505050565b5f605b83604051611097919061292d565b90815260200160405180910390205f9054906101000a900460ff1660ff16146110f5576040517f08c379a00000000000000000000000000000000000000000000000000000000081526004016110ec90612ed0565b60405180910390fd5b5f8160ff1611801561110e5750600560ff168160ff1611155b61114d576040517f08c379a000000000000000000000000000000000000000000000000000000000815260040161114490612f5e565b60405180910390fd5b5f611156611ec6565b90505f8160ff161161119d576040517f08c379a000000000000000000000000000000000000000000000000000000000815260040161119490612fc6565b60405180910390fd5b5f600180836111ac91906129d8565b60ff16600581106111c0576111bf612a0c565b5b60120201905083815f0190816111d69190613181565b5033816001015f6101000a81548173ffffffffffffffffffffffffffffffffffffffff021916908373ffffffffffffffffffffffffffffffffffffffff160217905550828160010160146101000a81548160ff021916908360ff1602179055505f423360405160200161124a9291906132e5565b604051602081830303815290604052805190602001205f1c90505f808054905082611275919061333d565b8154811061128657611285612a0c565b5b905f5260205f200182600301908161129e9190613394565b508160030180546112ae906128c3565b905067ffffffffffffffff8111156112c9576112c86125d5565b5b6040519080825280602002602001820160405280156112f75781602001602082028036833780820191505090505b5082600401908051906020019061130f929190612392565b5042826007018190555082605b8660405161132a919061292d565b90815260200160405180910390205f6101000a81548160ff021916908360ff1602179055508460405161135d919061292d565b60405180910390207f0a0048d71a81bd0849ad071dd103d646a72b493a92a1cdf4cb7c13cf30f577df85604051611394919061275b565b60405180910390a26113a68233611f98565b5050505050565b8183600301846002015f9054906101000a900460ff1660ff16600581106113d7576113d6612a0c565b5b015f6101000a81548173ffffffffffffffffffffffffffffffffffffffff021916908373ffffffffffffffffffffffffffffffffffffffff16021790555080836008015f8473ffffffffffffffffffffffffffffffffffffffff1673ffffffffffffffffffffffffffffffffffffffff1681526020019081526020015f205f6101000a81548160ff021916908360f81c02179055506001836009015f837effffffffffffffffffffffffffffffffffffffffffffffffffffffffffffff19167effffffffffffffffffffffffffffffffffffffffffffffffffffffffffffff191681526020019081526020015f205f8282829054906101000a900460ff166114df9190613479565b92506101000a81548160ff021916908360ff1602179055506001836002015f8282829054906101000a900460ff166115179190613479565b92506101000a81548160ff021916908360ff160217905550825f015f9054906101000a900460ff166115aa576001835f015f6101000a81548160ff02191690831515021790555042836001018190555083604051611575919061352d565b60405180910390207fc39eb03dc11d6bbeb3b818b739e4478f7874c1f803d2e603cc7d7a45045cb68d60405160405180910390a25b8173ffffffffffffffffffffffffffffffffffffffff167fe1be499d3000b42a54f5be9b908b831fbed5da7f8431ee79b82a3fa6d092781e85836040516115f29291906135fe565b60405180910390a250505050565b5f8160080190505f8060f81b90505f600190505f805f5b856002015f9054906101000a900460ff1660ff1681101561173f575f866008015f88600301846005811061164e5761164d612a0c565b5b015f9054906101000a900473ffffffffffffffffffffffffffffffffffffffff1673ffffffffffffffffffffffffffffffffffffffff1673ffffffffffffffffffffffffffffffffffffffff1681526020019081526020015f205f9054906101000a900460f81b90505f876009015f837effffffffffffffffffffffffffffffffffffffffffffffffffffffffffffff19167effffffffffffffffffffffffffffffffffffffffffffffffffffffffffffff191681526020019081526020015f205f9054906101000a900460ff1690508360ff168160ff161115611730578196505b50508080600101915050611617565b505f866003018054611750906128c3565b80601f016020809104026020016040519081016040528092919081815260200182805461177c906128c3565b80156117c75780601f1061179e576101008083540402835291602001916117c7565b820191905f5260205f20905b8154815290600101906020018083116117aa57829003601f168201915b505050505090505f5b81518110156119a457857effffffffffffffffffffffffffffffffffffffffffffffffffffffffffffff191682828151811061180f5761180e612a0c565b5b602001015160f81c60f81b7effffffffffffffffffffffffffffffffffffffffffffffffffffffffffffff1916036118f8576001886006015f887effffffffffffffffffffffffffffffffffffffffffffffffffffffffffffff19167effffffffffffffffffffffffffffffffffffffffffffffffffffffffffffff191681526020019081526020015f205f6101000a81548160ff02191690831515021790555060018860040182815481106118c8576118c7612a0c565b5b905f5260205f2090602091828204019190066101000a81548160ff02191690831515021790555060019350611997565b87600401818154811061190e5761190d612a0c565b5b905f5260205f2090602091828204019190069054906101000a900460ff16611996577f5f0000000000000000000000000000000000000000000000000000000000000082828151811061196457611963612a0c565b5b60200101907effffffffffffffffffffffffffffffffffffffffffffffffffffffffffffff191690815f1a9053505f94505b5b80806001019150506117d0565b50866008015f8082015f6101000a81549060ff0219169055600182015f9055600282015f6101000a81549060ff0219169055600382015f6119e59190612433565b5050865f016040516119f791906136ac565b60405180910390207f93484660649cf971864763c1bc0e0d0f5d7fdceeb388472825d299f8283268de86838615604051611a33939291906136dc565b60405180910390a282611aa7576001876005015f8282829054906101000a900460ff16611a609190613479565b92506101000a81548160ff021916908360ff160217905550600660ff16876005015f9054906101000a900460ff1660ff1603611aa257611aa1876001611d0f565b5b611ab9565b8315611ab857611ab7875f611d0f565b5b5b50505050505050565b5f826002015f8373ffffffffffffffffffffffffffffffffffffffff1673ffffffffffffffffffffffffffffffffffffffff1681526020019081526020015f205f6101000a81548160ff02191690831515021790555060018260010160158282829054906101000a900460ff16611b3991906129d8565b92506101000a81548160ff021916908360ff1602179055505f8260080190505f8360010160159054906101000a900460ff1660ff16118015611b875750805f015f9054906101000a900460ff165b8015611c0357505f60f81b816008015f8473ffffffffffffffffffffffffffffffffffffffff1673ffffffffffffffffffffffffffffffffffffffff1681526020019081526020015f205f9054906101000a900460f81b7effffffffffffffffffffffffffffffffffffffffffffffffffffffffffffff191614155b15611c1657611c15835f01828461202c565b5b8173ffffffffffffffffffffffffffffffffffffffff16836001015f9054906101000a900473ffffffffffffffffffffffffffffffffffffffff1673ffffffffffffffffffffffffffffffffffffffff1603611caf575f836001015f6101000a81548173ffffffffffffffffffffffffffffffffffffffff021916908373ffffffffffffffffffffffffffffffffffffffff1602179055505b8173ffffffffffffffffffffffffffffffffffffffff16835f01604051611cd691906136ac565b60405180910390207fe3c5754d381588d73abe5a3ea491352ae6599bc3517832567c983a64f1fcb85b60405160405180910390a3505050565b815f01604051611d1f91906136ac565b60405180910390207f3d40bf146111cf2fb1681f012b4ced47c0260037f37ac76366766d0d20e1689d8284600301604051611d5b92919061380c565b60405180910390a25f605b835f01604051611d7691906136ac565b90815260200160405180910390205f9054906101000a900460ff169050605b835f01604051611da591906136ac565b90815260200160405180910390205f6101000a81549060ff021916905560018082611dd091906129d8565b60ff1660058110611de457611de3612a0c565b5b601202015f8082015f611df79190612451565b600182015f6101000a81549073ffffffffffffffffffffffffffffffffffffffff02191690556001820160146101000a81549060ff02191690556001820160156101000a81549060ff0219169055600382015f611e549190612451565b600482015f611e63919061248e565b600582015f6101000a81549060ff0219169055600782015f9055600882015f8082015f6101000a81549060ff0219169055600182015f9055600282015f6101000a81549060ff0219169055600382015f611ebd9190612433565b50505050505050565b5f805f90505b60058160ff161015611f90575f60018260ff1660058110611ef057611eef612a0c565b5b6012020190505f605b825f01604051611f0991906136ac565b90815260200160405180910390205f9054906101000a900460ff1660ff1603611f4257600182611f399190613479565b92505050611f95565b610384816007015442611f559190612ccf565b1115611f7c57611f66816002611d0f565b600182611f739190613479565b92505050611f95565b508080611f889061383a565b915050611ecc565b505f90505b90565b6001826002015f8373ffffffffffffffffffffffffffffffffffffffff1673ffffffffffffffffffffffffffffffffffffffff1681526020019081526020015f205f6101000a81548160ff02191690831515021790555060018260010160158282829054906101000a900460ff166120109190613479565b92506101000a81548160ff021916908360ff1602179055505050565b5f826008015f8373ffffffffffffffffffffffffffffffffffffffff1673ffffffffffffffffffffffffffffffffffffffff1681526020019081526020015f205f9054906101000a900460f81b90505f60f81b836008015f8473ffffffffffffffffffffffffffffffffffffffff1673ffffffffffffffffffffffffffffffffffffffff1681526020019081526020015f205f6101000a81548160ff021916908360f81c02179055505f805b846002015f9054906101000a900460ff1660ff16811015612302578373ffffffffffffffffffffffffffffffffffffffff168560030182600581106121205761211f612a0c565b5b015f9054906101000a900473ffffffffffffffffffffffffffffffffffffffff1673ffffffffffffffffffffffffffffffffffffffff16036121ba575f85600301826005811061217357612172612a0c565b5b015f6101000a81548173ffffffffffffffffffffffffffffffffffffffff021916908373ffffffffffffffffffffffffffffffffffffffff160217905550600191506122f5565b81156122f4575f856003016001836121d29190612ccf565b600581106121e3576121e2612a0c565b5b015f9054906101000a900473ffffffffffffffffffffffffffffffffffffffff16905085600301826005811061221c5761221b612a0c565b5b015f9054906101000a900473ffffffffffffffffffffffffffffffffffffffff168660030160018461224e9190612ccf565b6005811061225f5761225e612a0c565b5b015f6101000a81548173ffffffffffffffffffffffffffffffffffffffff021916908373ffffffffffffffffffffffffffffffffffffffff160217905550808660030183600581106122b4576122b3612a0c565b5b015f6101000a81548173ffffffffffffffffffffffffffffffffffffffff021916908373ffffffffffffffffffffffffffffffffffffffff160217905550505b5b80806001019150506120d8565b506001846002015f8282829054906101000a900460ff1661232391906129d8565b92506101000a81548160ff021916908360ff1602179055508273ffffffffffffffffffffffffffffffffffffffff167fe11e7b01cdd17c8c7ab41ed7897874e6a229485a77cc445646517fdac64e75bc86846040516123839291906135fe565b60405180910390a25050505050565b828054828255905f5260205f2090601f01602090048101928215612422579160200282015f5b838211156123f457835183826101000a81548160ff02191690831515021790555092602001926001016020815f010492830192600103026123b8565b80156124205782816101000a81549060ff02191690556001016020815f010492830192600103026123f4565b505b50905061242f91906124b3565b5090565b505f81556001015f81556001015f81556001015f81556001015f9055565b50805461245d906128c3565b5f825580601f1061246e575061248b565b601f0160209004905f5260205f209081019061248a91906124b3565b5b50565b5080545f8255601f0160209004905f5260205f20908101906124b091906124b3565b50565b5b808211156124ca575f815f9055506001016124b4565b5090565b5f604051905090565b5f80fd5b5f80fd5b5f819050919050565b6124f1816124df565b81146124fb575f80fd5b50565b5f8135905061250c816124e8565b92915050565b5f60208284031215612527576125266124d7565b5b5f612534848285016124fe565b91505092915050565b5f81519050919050565b5f82825260208201905092915050565b8281835e5f83830152505050565b5f601f19601f8301169050919050565b5f61257f8261253d565b6125898185612547565b9350612599818560208601612557565b6125a281612565565b840191505092915050565b5f6020820190508181035f8301526125c58184612575565b905092915050565b5f80fd5b5f80fd5b7f4e487b71000000000000000000000000000000000000000000000000000000005f52604160045260245ffd5b61260b82612565565b810181811067ffffffffffffffff8211171561262a576126296125d5565b5b80604052505050565b5f61263c6124ce565b90506126488282612602565b919050565b5f67ffffffffffffffff821115612667576126666125d5565b5b61267082612565565b9050602081019050919050565b828183375f83830152505050565b5f61269d6126988461264d565b612633565b9050828152602081018484840111156126b9576126b86125d1565b5b6126c484828561267d565b509392505050565b5f82601f8301126126e0576126df6125cd565b5b81356126f084826020860161268b565b91505092915050565b5f6020828403121561270e5761270d6124d7565b5b5f82013567ffffffffffffffff81111561272b5761272a6124db565b5b612737848285016126cc565b91505092915050565b5f60ff82169050919050565b61275581612740565b82525050565b5f60208201905061276e5f83018461274c565b92915050565b61277d816124df565b82525050565b5f6020820190506127965f830184612774565b92915050565b5f80604083850312156127b2576127b16124d7565b5b5f83013567ffffffffffffffff8111156127cf576127ce6124db565b5b6127db858286016126cc565b925050602083013567ffffffffffffffff8111156127fc576127fb6124db565b5b612808858286016126cc565b9150509250929050565b61281b81612740565b8114612825575f80fd5b50565b5f8135905061283681612812565b92915050565b5f8060408385031215612852576128516124d7565b5b5f83013567ffffffffffffffff81111561286f5761286e6124db565b5b61287b858286016126cc565b925050602061288c85828601612828565b9150509250929050565b7f4e487b71000000000000000000000000000000000000000000000000000000005f52602260045260245ffd5b5f60028204905060018216806128da57607f821691505b6020821081036128ed576128ec612896565b5b50919050565b5f81905092915050565b5f6129078261253d565b61291181856128f3565b9350612921818560208601612557565b80840191505092915050565b5f61293882846128fd565b915081905092915050565b7f47616d6573206973206e6f7420616374697665000000000000000000000000005f82015250565b5f612977601383612547565b915061298282612943565b602082019050919050565b5f6020820190508181035f8301526129a48161296b565b9050919050565b7f4e487b71000000000000000000000000000000000000000000000000000000005f52601160045260245ffd5b5f6129e282612740565b91506129ed83612740565b9250828203905060ff811115612a0657612a056129ab565b5b92915050565b7f4e487b71000000000000000000000000000000000000000000000000000000005f52603260045260245ffd5b7f4e6f206d6f726520706c617965727320736c6f747320617661696c61626c65005f82015250565b5f612a6d601f83612547565b9150612a7882612a39565b602082019050919050565b5f6020820190508181035f830152612a9a81612a61565b9050919050565b7f416c726561647920696e207468652067616d65000000000000000000000000005f82015250565b5f612ad5601383612547565b9150612ae082612aa1565b602082019050919050565b5f6020820190508181035f830152612b0281612ac9565b9050919050565b7f596f7520617265206e6f74206120706c61796572206f6620746869732067616d5f8201527f6500000000000000000000000000000000000000000000000000000000000000602082015250565b5f612b63602183612547565b9150612b6e82612b09565b604082019050919050565b5f6020820190508181035f830152612b9081612b57565b9050919050565b7f596f7520616c726561647920766f7465640000000000000000000000000000005f82015250565b5f612bcb601183612547565b9150612bd682612b97565b602082019050919050565b5f6020820190508181035f830152612bf881612bbf565b9050919050565b7f4c6574746572206d75737420626520696e20412d5a20612d7a000000000000005f82015250565b5f612c33601983612547565b9150612c3e82612bff565b602082019050919050565b5f6020820190508181035f830152612c6081612c27565b9050919050565b7f4c65747465722068617320616c7265616479206265656e2067756573736564005f82015250565b5f612c9b601f83612547565b9150612ca682612c67565b602082019050919050565b5f6020820190508181035f830152612cc881612c8f565b9050919050565b5f612cd9826124df565b9150612ce4836124df565b9250828203905081811115612cfc57612cfb6129ab565b5b92915050565b7f4e6f2061637469766520766f74650000000000000000000000000000000000005f82015250565b5f612d36600e83612547565b9150612d4182612d02565b602082019050919050565b5f6020820190508181035f830152612d6381612d2a565b9050919050565b7f566f7465206475726174696f6e20686173206e6f7420656c61707365640000005f82015250565b5f612d9e601d83612547565b9150612da982612d6a565b602082019050919050565b5f6020820190508181035f830152612dcb81612d92565b9050919050565b7f4f6e6c792067616d652063726561746f722063616e2064656c657465207468655f8201527f2067616d65000000000000000000000000000000000000000000000000000000602082015250565b5f612e2c602583612547565b9150612e3782612dd2565b604082019050919050565b5f6020820190508181035f830152612e5981612e20565b9050919050565b7f412067616d652077697468207468652063686f73656e20494420616c726561645f8201527f7920657869737473000000000000000000000000000000000000000000000000602082015250565b5f612eba602883612547565b9150612ec582612e60565b604082019050919050565b5f6020820190508181035f830152612ee781612eae565b9050919050565b7f4174206c65617374206f6e6520706c6179657220726571756972656420616e645f8201527f206174206d6f7374204d41585f504c415945525320616c6c6f77656400000000602082015250565b5f612f48603c83612547565b9150612f5382612eee565b604082019050919050565b5f6020820190508181035f830152612f7581612f3c565b9050919050565b7f4e6f20667265652067616d6520736c6f7420617661696c61626c6500000000005f82015250565b5f612fb0601b83612547565b9150612fbb82612f7c565b602082019050919050565b5f6020820190508181035f830152612fdd81612fa4565b9050919050565b5f819050815f5260205f209050919050565b5f6020601f8301049050919050565b5f82821b905092915050565b5f600883026130407fffffffffffffffffffffffffffffffffffffffffffffffffffffffffffffffff82613005565b61304a8683613005565b95508019841693508086168417925050509392505050565b5f819050919050565b5f61308561308061307b846124df565b613062565b6124df565b9050919050565b5f819050919050565b61309e8361306b565b6130b26130aa8261308c565b848454613011565b825550505050565b5f90565b6130c66130ba565b6130d1818484613095565b505050565b5b818110156130f4576130e95f826130be565b6001810190506130d7565b5050565b601f8211156131395761310a81612fe4565b61311384612ff6565b81016020851015613122578190505b61313661312e85612ff6565b8301826130d6565b50505b505050565b5f82821c905092915050565b5f6131595f198460080261313e565b1980831691505092915050565b5f613171838361314a565b9150826002028217905092915050565b61318a8261253d565b67ffffffffffffffff8111156131a3576131a26125d5565b5b6131ad82546128c3565b6131b88282856130f8565b5f60209050601f8311600181146131e9575f84156131d7578287015190505b6131e18582613166565b865550613248565b601f1984166131f786612fe4565b5f5b8281101561321e578489015182556001820191506020850194506020810190506131f9565b8683101561323b5784890151613237601f89168261314a565b8355505b6001600288020188555050505b505050505050565b5f819050919050565b61326a613265826124df565b613250565b82525050565b5f73ffffffffffffffffffffffffffffffffffffffff82169050919050565b5f61329982613270565b9050919050565b5f8160601b9050919050565b5f6132b6826132a0565b9050919050565b5f6132c7826132ac565b9050919050565b6132df6132da8261328f565b6132bd565b82525050565b5f6132f08285613259565b60208201915061330082846132ce565b6014820191508190509392505050565b7f4e487b71000000000000000000000000000000000000000000000000000000005f52601260045260245ffd5b5f613347826124df565b9150613352836124df565b92508261336257613361613310565b5b828206905092915050565b5f8154905061337b816128c3565b9050919050565b5f819050815f5260205f209050919050565b8181036133a2575050613477565b6133ab8261336d565b67ffffffffffffffff8111156133c4576133c36125d5565b5b6133ce82546128c3565b6133d98282856130f8565b5f601f831160018114613406575f84156133f4578287015490505b6133fe8582613166565b865550613470565b601f19841661341487613382565b965061341f86612fe4565b5f5b8281101561344657848901548255600182019150600185019450602081019050613421565b86831015613463578489015461345f601f89168261314a565b8355505b6001600288020188555050505b5050505050505b565b5f61348382612740565b915061348e83612740565b9250828201905060ff8111156134a7576134a66129ab565b5b92915050565b5f81546134b9816128c3565b6134c381866128f3565b9450600182165f81146134dd57600181146134f257613524565b60ff1983168652811515820286019350613524565b6134fb85613382565b5f5b8381101561351c578154818901526001820191506020810190506134fd565b838801955050505b50505092915050565b5f61353882846134ad565b915081905092915050565b5f815461354f816128c3565b6135598186612547565b9450600182165f81146135735760018114613589576135bb565b60ff1983168652811515602002860193506135bb565b61359285613382565b5f5b838110156135b357815481890152600182019150602081019050613594565b808801955050505b50505092915050565b5f7fff0000000000000000000000000000000000000000000000000000000000000082169050919050565b6135f8816135c4565b82525050565b5f6040820190508181035f8301526136168185613543565b905061362560208301846135ef565b9392505050565b5f8154613638816128c3565b61364281866128f3565b9450600182165f811461365c5760018114613671576136a3565b60ff19831686528115158202860193506136a3565b61367a85612fe4565b5f5b8381101561369b5781548189015260018201915060208101905061367c565b838801955050505b50505092915050565b5f6136b7828461362c565b915081905092915050565b5f8115159050919050565b6136d6816136c2565b82525050565b5f6060820190506136ef5f8301866135ef565b81810360208301526137018185612575565b905061371060408301846136cd565b949350505050565b7f4e487b71000000000000000000000000000000000000000000000000000000005f52602160045260245ffd5b6003811061375657613755613718565b5b50565b5f81905061376682613745565b919050565b5f61377582613759565b9050919050565b6137858161376b565b82525050565b5f8154613797816128c3565b6137a18186612547565b9450600182165f81146137bb57600181146137d157613803565b60ff198316865281151560200286019350613803565b6137da85612fe4565b5f5b838110156137fb578154818901526001820191506020810190506137dc565b808801955050505b50505092915050565b5f60408201905061381f5f83018561377c565b8181036020830152613831818461378b565b90509392505050565b5f61384482612740565b915060ff8203613857576138566129ab565b5b60018201905091905056fea26469706673582212206f247534f263093368dca45aaf4283d5323bd3bcd6046ec2a64b808844757aaf64736f6c634300081a0033",
					"opcodes": "PUSH1 0x80 PUSH1 0x40 MSTORE PUSH1 0x40 MLOAD DUP1 PUSH1 0xA0 ADD PUSH1 0x40 MSTORE DUP1 PUSH1 0x40 MLOAD DUP1 PUSH1 0x40 ADD PUSH1 0x40 MSTORE DUP1 PUSH1 0x5 DUP2 MSTORE PUSH1 0x20 ADD PUSH32 0x4170706C65000000000000000000000000000000000000000000000000000000 DUP2 MSTORE POP DUP2 MSTORE PUSH1 0x20 ADD PUSH1 0x40 MLOAD DUP1 PUSH1 0x40 ADD PUSH1 0x40 MSTORE DUP1 PUSH1 0x6 DUP2 MSTORE PUSH1 0x20 ADD PUSH32 0x42616E616E610000000000000000000000000000000000000000000000000000 DUP2 MSTORE POP DUP2 MSTORE PUSH1 0x20 ADD PUSH1 0x40 MLOAD DUP1 PUSH1 0x40 ADD PUSH1 0x40 MSTORE DUP1 PUSH1 0x6 DUP2 MSTORE PUSH1 0x20 ADD PUSH32 0x4368657272790000000000000000000000000000000000000000000000000000 DUP2 MSTORE POP DUP2 MSTORE PUSH1 0x20 ADD PUSH1 0x40 MLOAD DUP1 PUSH1 0x40 ADD PUSH1 0x40 MSTORE DUP1 PUSH1 0x6 DUP2 MSTORE PUSH1 0x20 ADD PUSH32 0x44757269616E0000000000000000000000000000000000000000000000000000 DUP2 MSTORE POP DUP2 MSTORE PUSH1 0x20 ADD PUSH1 0x40 MLOAD DUP1 PUSH1 0x40 ADD PUSH1 0x40 MSTORE DUP1 PUSH1 0xA DUP2 MSTORE PUSH1 0x20 ADD PUSH32 0x456C646572626572727900000000000000000000000000000000000000000000 DUP2 MSTORE POP DUP2 MSTORE POP PUSH0 SWAP1 PUSH1 0x5 PUSH2 0x143 SWAP3 SWAP2 SWAP1 PUSH2 0x155 JUMP JUMPDEST POP CALLVALUE DUP1 ISZERO PUSH2 0x14F JUMPI PUSH0 DUP1 REVERT JUMPDEST POP PUSH2 0x530 JUMP JUMPDEST DUP3 DUP1 SLOAD DUP3 DUP3 SSTORE SWAP1 PUSH0 MSTORE PUSH1 0x20 PUSH0 KECCAK256 SWAP1 DUP2 ADD SWAP3 DUP3 ISZERO PUSH2 0x19B JUMPI SWAP2 PUSH1 0x20 MUL DUP3 ADD JUMPDEST DUP3 DUP2 GT ISZERO PUSH2 0x19A JUMPI DUP3 MLOAD DUP3 SWAP1 DUP2 PUSH2 0x18A SWAP2 SWAP1 PUSH2 0x461 JUMP JUMPDEST POP SWAP2 PUSH1 0x20 ADD SWAP2 SWAP1 PUSH1 0x1 ADD SWAP1 PUSH2 0x173 JUMP JUMPDEST JUMPDEST POP SWAP1 POP PUSH2 0x1A8 SWAP2 SWAP1 PUSH2 0x1AC JUMP JUMPDEST POP SWAP1 JUMP JUMPDEST JUMPDEST DUP1 DUP3 GT ISZERO PUSH2 0x1CB JUMPI PUSH0 DUP2 DUP2 PUSH2 0x1C2 SWAP2 SWAP1 PUSH2 0x1CF JUMP JUMPDEST POP PUSH1 0x1 ADD PUSH2 0x1AD JUMP JUMPDEST POP SWAP1 JUMP JUMPDEST POP DUP1 SLOAD PUSH2 0x1DB SWAP1 PUSH2 0x28B JUMP JUMPDEST PUSH0 DUP3 SSTORE DUP1 PUSH1 0x1F LT PUSH2 0x1EC JUMPI POP PUSH2 0x209 JUMP JUMPDEST PUSH1 0x1F ADD PUSH1 0x20 SWAP1 DIV SWAP1 PUSH0 MSTORE PUSH1 0x20 PUSH0 KECCAK256 SWAP1 DUP2 ADD SWAP1 PUSH2 0x208 SWAP2 SWAP1 PUSH2 0x20C JUMP JUMPDEST JUMPDEST POP JUMP JUMPDEST JUMPDEST DUP1 DUP3 GT ISZERO PUSH2 0x223 JUMPI PUSH0 DUP2 PUSH0 SWAP1 SSTORE POP PUSH1 0x1 ADD PUSH2 0x20D JUMP JUMPDEST POP SWAP1 JUMP JUMPDEST PUSH0 DUP2 MLOAD SWAP1 POP SWAP2 SWAP1 POP JUMP JUMPDEST PUSH32 0x4E487B7100000000000000000000000000000000000000000000000000000000 PUSH0 MSTORE PUSH1 0x41 PUSH1 0x4 MSTORE PUSH1 0x24 PUSH0 REVERT JUMPDEST PUSH32 0x4E487B7100000000000000000000000000000000000000000000000000000000 PUSH0 MSTORE PUSH1 0x22 PUSH1 0x4 MSTORE PUSH1 0x24 PUSH0 REVERT JUMPDEST PUSH0 PUSH1 0x2 DUP3 DIV SWAP1 POP PUSH1 0x1 DUP3 AND DUP1 PUSH2 0x2A2 JUMPI PUSH1 0x7F DUP3 AND SWAP2 POP JUMPDEST PUSH1 0x20 DUP3 LT DUP2 SUB PUSH2 0x2B5 JUMPI PUSH2 0x2B4 PUSH2 0x25E JUMP JUMPDEST JUMPDEST POP SWAP2 SWAP1 POP JUMP JUMPDEST PUSH0 DUP2 SWAP1 POP DUP2 PUSH0 MSTORE PUSH1 0x20 PUSH0 KECCAK256 SWAP1 POP SWAP2 SWAP1 POP JUMP JUMPDEST PUSH0 PUSH1 0x20 PUSH1 0x1F DUP4 ADD DIV SWAP1 POP SWAP2 SWAP1 POP JUMP JUMPDEST PUSH0 DUP3 DUP3 SHL SWAP1 POP SWAP3 SWAP2 POP POP JUMP JUMPDEST PUSH0 PUSH1 0x8 DUP4 MUL PUSH2 0x317 PUSH32 0xFFFFFFFFFFFFFFFFFFFFFFFFFFFFFFFFFFFFFFFFFFFFFFFFFFFFFFFFFFFFFFFF DUP3 PUSH2 0x2DC JUMP JUMPDEST PUSH2 0x321 DUP7 DUP4 PUSH2 0x2DC JUMP JUMPDEST SWAP6 POP DUP1 NOT DUP5 AND SWAP4 POP DUP1 DUP7 AND DUP5 OR SWAP3 POP POP POP SWAP4 SWAP3 POP POP POP JUMP JUMPDEST PUSH0 DUP2 SWAP1 POP SWAP2 SWAP1 POP JUMP JUMPDEST PUSH0 DUP2 SWAP1 POP SWAP2 SWAP1 POP JUMP JUMPDEST PUSH0 PUSH2 0x365 PUSH2 0x360 PUSH2 0x35B DUP5 PUSH2 0x339 JUMP JUMPDEST PUSH2 0x342 JUMP JUMPDEST PUSH2 0x339 JUMP JUMPDEST SWAP1 POP SWAP2 SWAP1 POP JUMP JUMPDEST PUSH0 DUP2 SWAP1 POP SWAP2 SWAP1 POP JUMP JUMPDEST PUSH2 0x37E DUP4 PUSH2 0x34B JUMP JUMPDEST PUSH2 0x392 PUSH2 0x38A DUP3 PUSH2 0x36C JUMP JUMPDEST DUP5 DUP5 SLOAD PUSH2 0x2E8 JUMP JUMPDEST DUP3 SSTORE POP POP POP POP JUMP JUMPDEST PUSH0 SWAP1 JUMP JUMPDEST PUSH2 0x3A6 PUSH2 0x39A JUMP JUMPDEST PUSH2 0x3B1 DUP2 DUP5 DUP5 PUSH2 0x375 JUMP JUMPDEST POP POP POP JUMP JUMPDEST JUMPDEST DUP2 DUP2 LT ISZERO PUSH2 0x3D4 JUMPI PUSH2 0x3C9 PUSH0 DUP3 PUSH2 0x39E JUMP JUMPDEST PUSH1 0x1 DUP2 ADD SWAP1 POP PUSH2 0x3B7 JUMP JUMPDEST POP POP JUMP JUMPDEST PUSH1 0x1F DUP3 GT ISZERO PUSH2 0x419 JUMPI PUSH2 0x3EA DUP2 PUSH2 0x2BB JUMP JUMPDEST PUSH2 0x3F3 DUP5 PUSH2 0x2CD JUMP JUMPDEST DUP2 ADD PUSH1 0x20 DUP6 LT ISZERO PUSH2 0x402 JUMPI DUP2 SWAP1 POP JUMPDEST PUSH2 0x416 PUSH2 0x40E DUP6 PUSH2 0x2CD JUMP JUMPDEST DUP4 ADD DUP3 PUSH2 0x3B6 JUMP JUMPDEST POP POP JUMPDEST POP POP POP JUMP JUMPDEST PUSH0 DUP3 DUP3 SHR SWAP1 POP SWAP3 SWAP2 POP POP JUMP JUMPDEST PUSH0 PUSH2 0x439 PUSH0 NOT DUP5 PUSH1 0x8 MUL PUSH2 0x41E JUMP JUMPDEST NOT DUP1 DUP4 AND SWAP2 POP POP SWAP3 SWAP2 POP POP JUMP JUMPDEST PUSH0 PUSH2 0x451 DUP4 DUP4 PUSH2 0x42A JUMP JUMPDEST SWAP2 POP DUP3 PUSH1 0x2 MUL DUP3 OR SWAP1 POP SWAP3 SWAP2 POP POP JUMP JUMPDEST PUSH2 0x46A DUP3 PUSH2 0x227 JUMP JUMPDEST PUSH8 0xFFFFFFFFFFFFFFFF DUP2 GT ISZERO PUSH2 0x483 JUMPI PUSH2 0x482 PUSH2 0x231 JUMP JUMPDEST JUMPDEST PUSH2 0x48D DUP3 SLOAD PUSH2 0x28B JUMP JUMPDEST PUSH2 0x498 DUP3 DUP3 DUP6 PUSH2 0x3D8 JUMP JUMPDEST PUSH0 PUSH1 0x20 SWAP1 POP PUSH1 0x1F DUP4 GT PUSH1 0x1 DUP2 EQ PUSH2 0x4C9 JUMPI PUSH0 DUP5 ISZERO PUSH2 0x4B7 JUMPI DUP3 DUP8 ADD MLOAD SWAP1 POP JUMPDEST PUSH2 0x4C1 DUP6 DUP3 PUSH2 0x446 JUMP JUMPDEST DUP7 SSTORE POP PUSH2 0x528 JUMP JUMPDEST PUSH1 0x1F NOT DUP5 AND PUSH2 0x4D7 DUP7 PUSH2 0x2BB JUMP JUMPDEST PUSH0 JUMPDEST DUP3 DUP2 LT ISZERO PUSH2 0x4FE JUMPI DUP5 DUP10 ADD MLOAD DUP3 SSTORE PUSH1 0x1 DUP3 ADD SWAP2 POP PUSH1 0x20 DUP6 ADD SWAP5 POP PUSH1 0x20 DUP2 ADD SWAP1 POP PUSH2 0x4D9 JUMP JUMPDEST DUP7 DUP4 LT ISZERO PUSH2 0x51B JUMPI DUP5 DUP10 ADD MLOAD PUSH2 0x517 PUSH1 0x1F DUP10 AND DUP3 PUSH2 0x42A JUMP JUMPDEST DUP4 SSTORE POP JUMPDEST PUSH1 0x1 PUSH1 0x2 DUP9 MUL ADD DUP9 SSTORE POP POP POP JUMPDEST POP POP POP POP POP POP JUMP JUMPDEST PUSH2 0x3898 DUP1 PUSH2 0x53D PUSH0 CODECOPY PUSH0 RETURN INVALID PUSH1 0x80 PUSH1 0x40 MSTORE CALLVALUE DUP1 ISZERO PUSH2 0xF JUMPI PUSH0 DUP1 REVERT JUMPDEST POP PUSH1 0x4 CALLDATASIZE LT PUSH2 0xCD JUMPI PUSH0 CALLDATALOAD PUSH1 0xE0 SHR DUP1 PUSH4 0xA8010C4E GT PUSH2 0x8A JUMPI DUP1 PUSH4 0xC22A95F1 GT PUSH2 0x64 JUMPI DUP1 PUSH4 0xC22A95F1 EQ PUSH2 0x1FF JUMPI DUP1 PUSH4 0xD19E39F0 EQ PUSH2 0x21B JUMPI DUP1 PUSH4 0xD5C68AB2 EQ PUSH2 0x237 JUMPI DUP1 PUSH4 0xE565C835 EQ PUSH2 0x253 JUMPI PUSH2 0xCD JUMP JUMPDEST DUP1 PUSH4 0xA8010C4E EQ PUSH2 0x195 JUMPI DUP1 PUSH4 0xAA4103E2 EQ PUSH2 0x1C5 JUMPI DUP1 PUSH4 0xB3914F32 EQ PUSH2 0x1E3 JUMPI PUSH2 0xCD JUMP JUMPDEST DUP1 PUSH4 0xF1AD663 EQ PUSH2 0xD1 JUMPI DUP1 PUSH4 0x3D536A2E EQ PUSH2 0x101 JUMPI DUP1 PUSH4 0x4411B3EB EQ PUSH2 0x11D JUMPI DUP1 PUSH4 0x4FD01913 EQ PUSH2 0x13B JUMPI DUP1 PUSH4 0x684D4678 EQ PUSH2 0x159 JUMPI DUP1 PUSH4 0xA438D208 EQ PUSH2 0x177 JUMPI JUMPDEST PUSH0 DUP1 REVERT JUMPDEST PUSH2 0xEB PUSH1 0x4 DUP1 CALLDATASIZE SUB DUP2 ADD SWAP1 PUSH2 0xE6 SWAP2 SWAP1 PUSH2 0x2512 JUMP JUMPDEST PUSH2 0x26F JUMP JUMPDEST PUSH1 0x40 MLOAD PUSH2 0xF8 SWAP2 SWAP1 PUSH2 0x25AD JUMP JUMPDEST PUSH1 0x40 MLOAD DUP1 SWAP2 SUB SWAP1 RETURN JUMPDEST PUSH2 0x11B PUSH1 0x4 DUP1 CALLDATASIZE SUB DUP2 ADD SWAP1 PUSH2 0x116 SWAP2 SWAP1 PUSH2 0x26F9 JUMP JUMPDEST PUSH2 0x314 JUMP JUMPDEST STOP JUMPDEST PUSH2 0x125 PUSH2 0x582 JUMP JUMPDEST PUSH1 0x40 MLOAD PUSH2 0x132 SWAP2 SWAP1 PUSH2 0x275B JUMP JUMPDEST PUSH1 0x40 MLOAD DUP1 SWAP2 SUB SWAP1 RETURN JUMPDEST PUSH2 0x143 PUSH2 0x587 JUMP JUMPDEST PUSH1 0x40 MLOAD PUSH2 0x150 SWAP2 SWAP1 PUSH2 0x275B JUMP JUMPDEST PUSH1 0x40 MLOAD DUP1 SWAP2 SUB SWAP1 RETURN JUMPDEST PUSH2 0x161 PUSH2 0x58C JUMP JUMPDEST PUSH1 0x40 MLOAD PUSH2 0x16E SWAP2 SWAP1 PUSH2 0x275B JUMP JUMPDEST PUSH1 0x40 MLOAD DUP1 SWAP2 SUB SWAP1 RETURN JUMPDEST PUSH2 0x17F PUSH2 0x591 JUMP JUMPDEST PUSH1 0x40 MLOAD PUSH2 0x18C SWAP2 SWAP1 PUSH2 0x2783 JUMP JUMPDEST PUSH1 0x40 MLOAD DUP1 SWAP2 SUB SWAP1 RETURN JUMPDEST PUSH2 0x1AF PUSH1 0x4 DUP1 CALLDATASIZE SUB DUP2 ADD SWAP1 PUSH2 0x1AA SWAP2 SWAP1 PUSH2 0x26F9 JUMP JUMPDEST PUSH2 0x597 JUMP JUMPDEST PUSH1 0x40 MLOAD PUSH2 0x1BC SWAP2 SWAP1 PUSH2 0x275B JUMP JUMPDEST PUSH1 0x40 MLOAD DUP1 SWAP2 SUB SWAP1 RETURN JUMPDEST PUSH2 0x1CD PUSH2 0x5CC JUMP JUMPDEST PUSH1 0x40 MLOAD PUSH2 0x1DA SWAP2 SWAP1 PUSH2 0x2783 JUMP JUMPDEST PUSH1 0x40 MLOAD DUP1 SWAP2 SUB SWAP1 RETURN JUMPDEST PUSH2 0x1FD PUSH1 0x4 DUP1 CALLDATASIZE SUB DUP2 ADD SWAP1 PUSH2 0x1F8 SWAP2 SWAP1 PUSH2 0x279C JUMP JUMPDEST PUSH2 0x5D2 JUMP JUMPDEST STOP JUMPDEST PUSH2 0x219 PUSH1 0x4 DUP1 CALLDATASIZE SUB DUP2 ADD SWAP1 PUSH2 0x214 SWAP2 SWAP1 PUSH2 0x26F9 JUMP JUMPDEST PUSH2 0xB79 JUMP JUMPDEST STOP JUMPDEST PUSH2 0x235 PUSH1 0x4 DUP1 CALLDATASIZE SUB DUP2 ADD SWAP1 PUSH2 0x230 SWAP2 SWAP1 PUSH2 0x26F9 JUMP JUMPDEST PUSH2 0xD4E JUMP JUMPDEST STOP JUMPDEST PUSH2 0x251 PUSH1 0x4 DUP1 CALLDATASIZE SUB DUP2 ADD SWAP1 PUSH2 0x24C SWAP2 SWAP1 PUSH2 0x26F9 JUMP JUMPDEST PUSH2 0xEC9 JUMP JUMPDEST STOP JUMPDEST PUSH2 0x26D PUSH1 0x4 DUP1 CALLDATASIZE SUB DUP2 ADD SWAP1 PUSH2 0x268 SWAP2 SWAP1 PUSH2 0x283C JUMP JUMPDEST PUSH2 0x1086 JUMP JUMPDEST STOP JUMPDEST PUSH0 DUP2 DUP2 SLOAD DUP2 LT PUSH2 0x27D JUMPI PUSH0 DUP1 REVERT JUMPDEST SWAP1 PUSH0 MSTORE PUSH1 0x20 PUSH0 KECCAK256 ADD PUSH0 SWAP2 POP SWAP1 POP DUP1 SLOAD PUSH2 0x295 SWAP1 PUSH2 0x28C3 JUMP JUMPDEST DUP1 PUSH1 0x1F ADD PUSH1 0x20 DUP1 SWAP2 DIV MUL PUSH1 0x20 ADD PUSH1 0x40 MLOAD SWAP1 DUP2 ADD PUSH1 0x40 MSTORE DUP1 SWAP3 SWAP2 SWAP1 DUP2 DUP2 MSTORE PUSH1 0x20 ADD DUP3 DUP1 SLOAD PUSH2 0x2C1 SWAP1 PUSH2 0x28C3 JUMP JUMPDEST DUP1 ISZERO PUSH2 0x30C JUMPI DUP1 PUSH1 0x1F LT PUSH2 0x2E3 JUMPI PUSH2 0x100 DUP1 DUP4 SLOAD DIV MUL DUP4 MSTORE SWAP2 PUSH1 0x20 ADD SWAP2 PUSH2 0x30C JUMP JUMPDEST DUP3 ADD SWAP2 SWAP1 PUSH0 MSTORE PUSH1 0x20 PUSH0 KECCAK256 SWAP1 JUMPDEST DUP2 SLOAD DUP2 MSTORE SWAP1 PUSH1 0x1 ADD SWAP1 PUSH1 0x20 ADD DUP1 DUP4 GT PUSH2 0x2EF JUMPI DUP3 SWAP1 SUB PUSH1 0x1F AND DUP3 ADD SWAP2 JUMPDEST POP POP POP POP POP DUP2 JUMP JUMPDEST DUP1 PUSH0 PUSH1 0x5B DUP3 PUSH1 0x40 MLOAD PUSH2 0x326 SWAP2 SWAP1 PUSH2 0x292D JUMP JUMPDEST SWAP1 DUP2 MSTORE PUSH1 0x20 ADD PUSH1 0x40 MLOAD DUP1 SWAP2 SUB SWAP1 KECCAK256 PUSH0 SWAP1 SLOAD SWAP1 PUSH2 0x100 EXP SWAP1 DIV PUSH1 0xFF AND PUSH1 0xFF AND SUB PUSH2 0x384 JUMPI PUSH1 0x40 MLOAD PUSH32 0x8C379A000000000000000000000000000000000000000000000000000000000 DUP2 MSTORE PUSH1 0x4 ADD PUSH2 0x37B SWAP1 PUSH2 0x298D JUMP JUMPDEST PUSH1 0x40 MLOAD DUP1 SWAP2 SUB SWAP1 REVERT JUMPDEST PUSH0 PUSH1 0x1 DUP1 PUSH1 0x5B DUP6 PUSH1 0x40 MLOAD PUSH2 0x398 SWAP2 SWAP1 PUSH2 0x292D JUMP JUMPDEST SWAP1 DUP2 MSTORE PUSH1 0x20 ADD PUSH1 0x40 MLOAD DUP1 SWAP2 SUB SWAP1 KECCAK256 PUSH0 SWAP1 SLOAD SWAP1 PUSH2 0x100 EXP SWAP1 DIV PUSH1 0xFF AND PUSH2 0x3BD SWAP2 SWAP1 PUSH2 0x29D8 JUMP JUMPDEST PUSH1 0xFF AND PUSH1 0x5 DUP2 LT PUSH2 0x3D1 JUMPI PUSH2 0x3D0 PUSH2 0x2A0C JUMP JUMPDEST JUMPDEST PUSH1 0x12 MUL ADD SWAP1 POP DUP1 PUSH1 0x1 ADD PUSH1 0x14 SWAP1 SLOAD SWAP1 PUSH2 0x100 EXP SWAP1 DIV PUSH1 0xFF AND PUSH1 0xFF AND DUP2 PUSH1 0x1 ADD PUSH1 0x15 SWAP1 SLOAD SWAP1 PUSH2 0x100 EXP SWAP1 DIV PUSH1 0xFF AND PUSH1 0xFF AND LT PUSH2 0x441 JUMPI PUSH1 0x40 MLOAD PUSH32 0x8C379A000000000000000000000000000000000000000000000000000000000 DUP2 MSTORE PUSH1 0x4 ADD PUSH2 0x438 SWAP1 PUSH2 0x2A83 JUMP JUMPDEST PUSH1 0x40 MLOAD DUP1 SWAP2 SUB SWAP1 REVERT JUMPDEST DUP1 PUSH1 0x2 ADD PUSH0 CALLER PUSH20 0xFFFFFFFFFFFFFFFFFFFFFFFFFFFFFFFFFFFFFFFF AND PUSH20 0xFFFFFFFFFFFFFFFFFFFFFFFFFFFFFFFFFFFFFFFF AND DUP2 MSTORE PUSH1 0x20 ADD SWAP1 DUP2 MSTORE PUSH1 0x20 ADD PUSH0 KECCAK256 PUSH0 SWAP1 SLOAD SWAP1 PUSH2 0x100 EXP SWAP1 DIV PUSH1 0xFF AND ISZERO PUSH2 0x4CD JUMPI PUSH1 0x40 MLOAD PUSH32 0x8C379A000000000000000000000000000000000000000000000000000000000 DUP2 MSTORE PUSH1 0x4 ADD PUSH2 0x4C4 SWAP1 PUSH2 0x2AEB JUMP JUMPDEST PUSH1 0x40 MLOAD DUP1 SWAP2 SUB SWAP1 REVERT JUMPDEST PUSH1 0x1 DUP2 PUSH1 0x2 ADD PUSH0 CALLER PUSH20 0xFFFFFFFFFFFFFFFFFFFFFFFFFFFFFFFFFFFFFFFF AND PUSH20 0xFFFFFFFFFFFFFFFFFFFFFFFFFFFFFFFFFFFFFFFF AND DUP2 MSTORE PUSH1 0x20 ADD SWAP1 DUP2 MSTORE PUSH1 0x20 ADD PUSH0 KECCAK256 PUSH0 PUSH2 0x100 EXP DUP2 SLOAD DUP2 PUSH1 0xFF MUL NOT AND SWAP1 DUP4 ISZERO ISZERO MUL OR SWAP1 SSTORE POP CALLER PUSH20 0xFFFFFFFFFFFFFFFFFFFFFFFFFFFFFFFFFFFFFFFF AND DUP4 PUSH1 0x40 MLOAD PUSH2 0x549 SWAP2 SWAP1 PUSH2 0x292D JUMP JUMPDEST PUSH1 0x40 MLOAD DUP1 SWAP2 SUB SWAP1 KECCAK256 PUSH32 0x6426ED08B4816B27E58D721B4FF6FB44E6696B9D5CA257DCBD4B0576EB4DC539 PUSH1 0x40 MLOAD PUSH1 0x40 MLOAD DUP1 SWAP2 SUB SWAP1 LOG3 POP POP POP JUMP JUMPDEST PUSH1 0x5 DUP2 JUMP JUMPDEST PUSH1 0x5 DUP2 JUMP JUMPDEST PUSH1 0x6 DUP2 JUMP JUMPDEST PUSH2 0x12C DUP2 JUMP JUMPDEST PUSH1 0x5B DUP2 DUP1 MLOAD PUSH1 0x20 DUP2 ADD DUP3 ADD DUP1 MLOAD DUP5 DUP3 MSTORE PUSH1 0x20 DUP4 ADD PUSH1 0x20 DUP6 ADD KECCAK256 DUP2 DUP4 MSTORE DUP1 SWAP6 POP POP POP POP POP POP PUSH0 SWAP2 POP SLOAD SWAP1 PUSH2 0x100 EXP SWAP1 DIV PUSH1 0xFF AND DUP2 JUMP JUMPDEST PUSH2 0x384 DUP2 JUMP JUMPDEST DUP2 PUSH0 PUSH1 0x5B DUP3 PUSH1 0x40 MLOAD PUSH2 0x5E4 SWAP2 SWAP1 PUSH2 0x292D JUMP JUMPDEST SWAP1 DUP2 MSTORE PUSH1 0x20 ADD PUSH1 0x40 MLOAD DUP1 SWAP2 SUB SWAP1 KECCAK256 PUSH0 SWAP1 SLOAD SWAP1 PUSH2 0x100 EXP SWAP1 DIV PUSH1 0xFF AND PUSH1 0xFF AND SUB PUSH2 0x642 JUMPI PUSH1 0x40 MLOAD PUSH32 0x8C379A000000000000000000000000000000000000000000000000000000000 DUP2 MSTORE PUSH1 0x4 ADD PUSH2 0x639 SWAP1 PUSH2 0x298D JUMP JUMPDEST PUSH1 0x40 MLOAD DUP1 SWAP2 SUB SWAP1 REVERT JUMPDEST DUP3 PUSH1 0x1 DUP1 PUSH1 0x5B DUP4 PUSH1 0x40 MLOAD PUSH2 0x656 SWAP2 SWAP1 PUSH2 0x292D JUMP JUMPDEST SWAP1 DUP2 MSTORE PUSH1 0x20 ADD PUSH1 0x40 MLOAD DUP1 SWAP2 SUB SWAP1 KECCAK256 PUSH0 SWAP1 SLOAD SWAP1 PUSH2 0x100 EXP SWAP1 DIV PUSH1 0xFF AND PUSH2 0x67B SWAP2 SWAP1 PUSH2 0x29D8 JUMP JUMPDEST PUSH1 0xFF AND PUSH1 0x5 DUP2 LT PUSH2 0x68F JUMPI PUSH2 0x68E PUSH2 0x2A0C JUMP JUMPDEST JUMPDEST PUSH1 0x12 MUL ADD PUSH1 0x2 ADD PUSH0 CALLER PUSH20 0xFFFFFFFFFFFFFFFFFFFFFFFFFFFFFFFFFFFFFFFF AND PUSH20 0xFFFFFFFFFFFFFFFFFFFFFFFFFFFFFFFFFFFFFFFF AND DUP2 MSTORE PUSH1 0x20 ADD SWAP1 DUP2 MSTORE PUSH1 0x20 ADD PUSH0 KECCAK256 PUSH0 SWAP1 SLOAD SWAP1 PUSH2 0x100 EXP SWAP1 DIV PUSH1 0xFF AND PUSH2 0x71D JUMPI PUSH1 0x40 MLOAD PUSH32 0x8C379A000000000000000000000000000000000000000000000000000000000 DUP2 MSTORE PUSH1 0x4 ADD PUSH2 0x714 SWAP1 PUSH2 0x2B79 JUMP JUMPDEST PUSH1 0x40 MLOAD DUP1 SWAP2 SUB SWAP1 REVERT JUMPDEST PUSH0 DUP4 PUSH0 DUP2 MLOAD DUP2 LT PUSH2 0x731 JUMPI PUSH2 0x730 PUSH2 0x2A0C JUMP JUMPDEST JUMPDEST PUSH1 0x20 ADD ADD MLOAD PUSH1 0xF8 SHR PUSH1 0xF8 SHL SWAP1 POP PUSH0 PUSH1 0x1 DUP1 PUSH1 0x5B DUP9 PUSH1 0x40 MLOAD PUSH2 0x752 SWAP2 SWAP1 PUSH2 0x292D JUMP JUMPDEST SWAP1 DUP2 MSTORE PUSH1 0x20 ADD PUSH1 0x40 MLOAD DUP1 SWAP2 SUB SWAP1 KECCAK256 PUSH0 SWAP1 SLOAD SWAP1 PUSH2 0x100 EXP SWAP1 DIV PUSH1 0xFF AND PUSH2 0x777 SWAP2 SWAP1 PUSH2 0x29D8 JUMP JUMPDEST PUSH1 0xFF AND PUSH1 0x5 DUP2 LT PUSH2 0x78B JUMPI PUSH2 0x78A PUSH2 0x2A0C JUMP JUMPDEST JUMPDEST PUSH1 0x12 MUL ADD SWAP1 POP PUSH0 DUP2 PUSH1 0x8 ADD SWAP1 POP PUSH0 PUSH1 0xF8 SHL DUP2 PUSH1 0x8 ADD PUSH0 CALLER PUSH20 0xFFFFFFFFFFFFFFFFFFFFFFFFFFFFFFFFFFFFFFFF AND PUSH20 0xFFFFFFFFFFFFFFFFFFFFFFFFFFFFFFFFFFFFFFFF AND DUP2 MSTORE PUSH1 0x20 ADD SWAP1 DUP2 MSTORE PUSH1 0x20 ADD PUSH0 KECCAK256 PUSH0 SWAP1 SLOAD SWAP1 PUSH2 0x100 EXP SWAP1 DIV PUSH1 0xF8 SHL PUSH31 0xFFFFFFFFFFFFFFFFFFFFFFFFFFFFFFFFFFFFFFFFFFFFFFFFFFFFFFFFFFFFFF NOT AND EQ PUSH2 0x84A JUMPI PUSH1 0x40 MLOAD PUSH32 0x8C379A000000000000000000000000000000000000000000000000000000000 DUP2 MSTORE PUSH1 0x4 ADD PUSH2 0x841 SWAP1 PUSH2 0x2BE1 JUMP JUMPDEST PUSH1 0x40 MLOAD DUP1 SWAP2 SUB SWAP1 REVERT JUMPDEST PUSH0 PUSH32 0x4100000000000000000000000000000000000000000000000000000000000000 PUSH31 0xFFFFFFFFFFFFFFFFFFFFFFFFFFFFFFFFFFFFFFFFFFFFFFFFFFFFFFFFFFFFFF NOT AND DUP5 PUSH31 0xFFFFFFFFFFFFFFFFFFFFFFFFFFFFFFFFFFFFFFFFFFFFFFFFFFFFFFFFFFFFFF NOT AND LT ISZERO DUP1 ISZERO PUSH2 0x923 JUMPI POP PUSH32 0x5A00000000000000000000000000000000000000000000000000000000000000 PUSH31 0xFFFFFFFFFFFFFFFFFFFFFFFFFFFFFFFFFFFFFFFFFFFFFFFFFFFFFFFFFFFFFF NOT AND DUP5 PUSH31 0xFFFFFFFFFFFFFFFFFFFFFFFFFFFFFFFFFFFFFFFFFFFFFFFFFFFFFFFFFFFFFF NOT AND LT ISZERO JUMPDEST SWAP1 POP DUP1 DUP1 PUSH2 0xA05 JUMPI POP PUSH32 0x6100000000000000000000000000000000000000000000000000000000000000 PUSH31 0xFFFFFFFFFFFFFFFFFFFFFFFFFFFFFFFFFFFFFFFFFFFFFFFFFFFFFFFFFFFFFF NOT AND DUP5 PUSH31 0xFFFFFFFFFFFFFFFFFFFFFFFFFFFFFFFFFFFFFFFFFFFFFFFFFFFFFFFFFFFFFF NOT AND LT ISZERO DUP1 ISZERO PUSH2 0xA04 JUMPI POP PUSH32 0x7A00000000000000000000000000000000000000000000000000000000000000 PUSH31 0xFFFFFFFFFFFFFFFFFFFFFFFFFFFFFFFFFFFFFFFFFFFFFFFFFFFFFFFFFFFFFF NOT AND DUP5 PUSH31 0xFFFFFFFFFFFFFFFFFFFFFFFFFFFFFFFFFFFFFFFFFFFFFFFFFFFFFFFFFFFFFF NOT AND LT ISZERO JUMPDEST JUMPDEST PUSH2 0xA44 JUMPI PUSH1 0x40 MLOAD PUSH32 0x8C379A000000000000000000000000000000000000000000000000000000000 DUP2 MSTORE PUSH1 0x4 ADD PUSH2 0xA3B SWAP1 PUSH2 0x2C49 JUMP JUMPDEST PUSH1 0x40 MLOAD DUP1 SWAP2 SUB SWAP1 REVERT JUMPDEST DUP1 ISZERO PUSH2 0xA60 JUMPI PUSH1 0x20 DUP5 PUSH1 0xF8 SHR PUSH2 0xA5A SWAP2 SWAP1 PUSH2 0x29D8 JUMP JUMPDEST PUSH1 0xF8 SHL SWAP4 POP JUMPDEST DUP3 PUSH1 0x6 ADD PUSH0 DUP6 PUSH31 0xFFFFFFFFFFFFFFFFFFFFFFFFFFFFFFFFFFFFFFFFFFFFFFFFFFFFFFFFFFFFFF NOT AND PUSH31 0xFFFFFFFFFFFFFFFFFFFFFFFFFFFFFFFFFFFFFFFFFFFFFFFFFFFFFFFFFFFFFF NOT AND DUP2 MSTORE PUSH1 0x20 ADD SWAP1 DUP2 MSTORE PUSH1 0x20 ADD PUSH0 KECCAK256 PUSH0 SWAP1 SLOAD SWAP1 PUSH2 0x100 EXP SWAP1 DIV PUSH1 0xFF AND ISZERO PUSH2 0xB04 JUMPI PUSH1 0x40 MLOAD PUSH32 0x8C379A000000000000000000000000000000000000000000000000000000000 DUP2 MSTORE PUSH1 0x4 ADD PUSH2 0xAFB SWAP1 PUSH2 0x2CB1 JUMP JUMPDEST PUSH1 0x40 MLOAD DUP1 SWAP2 SUB SWAP1 REVERT JUMPDEST PUSH2 0xB12 DUP4 PUSH0 ADD DUP4 CALLER DUP8 PUSH2 0x13AD JUMP JUMPDEST TIMESTAMP DUP4 PUSH1 0x7 ADD DUP2 SWAP1 SSTORE POP PUSH2 0x12C DUP3 PUSH1 0x1 ADD SLOAD TIMESTAMP PUSH2 0xB2E SWAP2 SWAP1 PUSH2 0x2CCF JUMP JUMPDEST GT DUP1 PUSH2 0xB60 JUMPI POP DUP3 PUSH1 0x1 ADD PUSH1 0x15 SWAP1 SLOAD SWAP1 PUSH2 0x100 EXP SWAP1 DIV PUSH1 0xFF AND PUSH1 0xFF AND DUP3 PUSH1 0x2 ADD PUSH0 SWAP1 SLOAD SWAP1 PUSH2 0x100 EXP SWAP1 DIV PUSH1 0xFF AND PUSH1 0xFF AND EQ JUMPDEST ISZERO PUSH2 0xB6F JUMPI PUSH2 0xB6E DUP4 PUSH2 0x1600 JUMP JUMPDEST JUMPDEST POP POP POP POP POP POP POP POP JUMP JUMPDEST DUP1 PUSH0 PUSH1 0x5B DUP3 PUSH1 0x40 MLOAD PUSH2 0xB8B SWAP2 SWAP1 PUSH2 0x292D JUMP JUMPDEST SWAP1 DUP2 MSTORE PUSH1 0x20 ADD PUSH1 0x40 MLOAD DUP1 SWAP2 SUB SWAP1 KECCAK256 PUSH0 SWAP1 SLOAD SWAP1 PUSH2 0x100 EXP SWAP1 DIV PUSH1 0xFF AND PUSH1 0xFF AND SUB PUSH2 0xBE9 JUMPI PUSH1 0x40 MLOAD PUSH32 0x8C379A000000000000000000000000000000000000000000000000000000000 DUP2 MSTORE PUSH1 0x4 ADD PUSH2 0xBE0 SWAP1 PUSH2 0x298D JUMP JUMPDEST PUSH1 0x40 MLOAD DUP1 SWAP2 SUB SWAP1 REVERT JUMPDEST DUP2 PUSH1 0x1 DUP1 PUSH1 0x5B DUP4 PUSH1 0x40 MLOAD PUSH2 0xBFD SWAP2 SWAP1 PUSH2 0x292D JUMP JUMPDEST SWAP1 DUP2 MSTORE PUSH1 0x20 ADD PUSH1 0x40 MLOAD DUP1 SWAP2 SUB SWAP1 KECCAK256 PUSH0 SWAP1 SLOAD SWAP1 PUSH2 0x100 EXP SWAP1 DIV PUSH1 0xFF AND PUSH2 0xC22 SWAP2 SWAP1 PUSH2 0x29D8 JUMP JUMPDEST PUSH1 0xFF AND PUSH1 0x5 DUP2 LT PUSH2 0xC36 JUMPI PUSH2 0xC35 PUSH2 0x2A0C JUMP JUMPDEST JUMPDEST PUSH1 0x12 MUL ADD PUSH1 0x2 ADD PUSH0 CALLER PUSH20 0xFFFFFFFFFFFFFFFFFFFFFFFFFFFFFFFFFFFFFFFF AND PUSH20 0xFFFFFFFFFFFFFFFFFFFFFFFFFFFFFFFFFFFFFFFF AND DUP2 MSTORE PUSH1 0x20 ADD SWAP1 DUP2 MSTORE PUSH1 0x20 ADD PUSH0 KECCAK256 PUSH0 SWAP1 SLOAD SWAP1 PUSH2 0x100 EXP SWAP1 DIV PUSH1 0xFF AND PUSH2 0xCC4 JUMPI PUSH1 0x40 MLOAD PUSH32 0x8C379A000000000000000000000000000000000000000000000000000000000 DUP2 MSTORE PUSH1 0x4 ADD PUSH2 0xCBB SWAP1 PUSH2 0x2B79 JUMP JUMPDEST PUSH1 0x40 MLOAD DUP1 SWAP2 SUB SWAP1 REVERT JUMPDEST PUSH0 PUSH1 0x1 DUP1 PUSH1 0x5B DUP7 PUSH1 0x40 MLOAD PUSH2 0xCD8 SWAP2 SWAP1 PUSH2 0x292D JUMP JUMPDEST SWAP1 DUP2 MSTORE PUSH1 0x20 ADD PUSH1 0x40 MLOAD DUP1 SWAP2 SUB SWAP1 KECCAK256 PUSH0 SWAP1 SLOAD SWAP1 PUSH2 0x100 EXP SWAP1 DIV PUSH1 0xFF AND PUSH2 0xCFD SWAP2 SWAP1 PUSH2 0x29D8 JUMP JUMPDEST PUSH1 0xFF AND PUSH1 0x5 DUP2 LT PUSH2 0xD11 JUMPI PUSH2 0xD10 PUSH2 0x2A0C JUMP JUMPDEST JUMPDEST PUSH1 0x12 MUL ADD SWAP1 POP PUSH2 0xD21 DUP2 CALLER PUSH2 0x1AC2 JUMP JUMPDEST PUSH0 DUP2 PUSH1 0x1 ADD PUSH1 0x15 SWAP1 SLOAD SWAP1 PUSH2 0x100 EXP SWAP1 DIV PUSH1 0xFF AND PUSH1 0xFF AND SUB PUSH2 0xD48 JUMPI PUSH2 0xD47 DUP2 PUSH1 0x2 PUSH2 0x1D0F JUMP JUMPDEST JUMPDEST POP POP POP POP JUMP JUMPDEST DUP1 PUSH0 PUSH1 0x5B DUP3 PUSH1 0x40 MLOAD PUSH2 0xD60 SWAP2 SWAP1 PUSH2 0x292D JUMP JUMPDEST SWAP1 DUP2 MSTORE PUSH1 0x20 ADD PUSH1 0x40 MLOAD DUP1 SWAP2 SUB SWAP1 KECCAK256 PUSH0 SWAP1 SLOAD SWAP1 PUSH2 0x100 EXP SWAP1 DIV PUSH1 0xFF AND PUSH1 0xFF AND SUB PUSH2 0xDBE JUMPI PUSH1 0x40 MLOAD PUSH32 0x8C379A000000000000000000000000000000000000000000000000000000000 DUP2 MSTORE PUSH1 0x4 ADD PUSH2 0xDB5 SWAP1 PUSH2 0x298D JUMP JUMPDEST PUSH1 0x40 MLOAD DUP1 SWAP2 SUB SWAP1 REVERT JUMPDEST PUSH0 PUSH1 0x1 DUP1 PUSH1 0x5B DUP6 PUSH1 0x40 MLOAD PUSH2 0xDD2 SWAP2 SWAP1 PUSH2 0x292D JUMP JUMPDEST SWAP1 DUP2 MSTORE PUSH1 0x20 ADD PUSH1 0x40 MLOAD DUP1 SWAP2 SUB SWAP1 KECCAK256 PUSH0 SWAP1 SLOAD SWAP1 PUSH2 0x100 EXP SWAP1 DIV PUSH1 0xFF AND PUSH2 0xDF7 SWAP2 SWAP1 PUSH2 0x29D8 JUMP JUMPDEST PUSH1 0xFF AND PUSH1 0x5 DUP2 LT PUSH2 0xE0B JUMPI PUSH2 0xE0A PUSH2 0x2A0C JUMP JUMPDEST JUMPDEST PUSH1 0x12 MUL ADD SWAP1 POP PUSH0 DUP2 PUSH1 0x8 ADD SWAP1 POP DUP1 PUSH0 ADD PUSH0 SWAP1 SLOAD SWAP1 PUSH2 0x100 EXP SWAP1 DIV PUSH1 0xFF AND PUSH2 0xE67 JUMPI PUSH1 0x40 MLOAD PUSH32 0x8C379A000000000000000000000000000000000000000000000000000000000 DUP2 MSTORE PUSH1 0x4 ADD PUSH2 0xE5E SWAP1 PUSH2 0x2D4C JUMP JUMPDEST PUSH1 0x40 MLOAD DUP1 SWAP2 SUB SWAP1 REVERT JUMPDEST PUSH2 0x12C DUP2 PUSH1 0x1 ADD SLOAD TIMESTAMP PUSH2 0xE7A SWAP2 SWAP1 PUSH2 0x2CCF JUMP JUMPDEST GT PUSH2 0xEBA JUMPI PUSH1 0x40 MLOAD PUSH32 0x8C379A000000000000000000000000000000000000000000000000000000000 DUP2 MSTORE PUSH1 0x4 ADD PUSH2 0xEB1 SWAP1 PUSH2 0x2DB4 JUMP JUMPDEST PUSH1 0x40 MLOAD DUP1 SWAP2 SUB SWAP1 REVERT JUMPDEST PUSH2 0xEC3 DUP3 PUSH2 0x1600 JUMP JUMPDEST POP POP POP POP JUMP JUMPDEST DUP1 PUSH0 PUSH1 0x5B DUP3 PUSH1 0x40 MLOAD PUSH2 0xEDB SWAP2 SWAP1 PUSH2 0x292D JUMP JUMPDEST SWAP1 DUP2 MSTORE PUSH1 0x20 ADD PUSH1 0x40 MLOAD DUP1 SWAP2 SUB SWAP1 KECCAK256 PUSH0 SWAP1 SLOAD SWAP1 PUSH2 0x100 EXP SWAP1 DIV PUSH1 0xFF AND PUSH1 0xFF AND SUB PUSH2 0xF39 JUMPI PUSH1 0x40 MLOAD PUSH32 0x8C379A000000000000000000000000000000000000000000000000000000000 DUP2 MSTORE PUSH1 0x4 ADD PUSH2 0xF30 SWAP1 PUSH2 0x298D JUMP JUMPDEST PUSH1 0x40 MLOAD DUP1 SWAP2 SUB SWAP1 REVERT JUMPDEST PUSH0 PUSH1 0x1 DUP1 PUSH1 0x5B DUP6 PUSH1 0x40 MLOAD PUSH2 0xF4D SWAP2 SWAP1 PUSH2 0x292D JUMP JUMPDEST SWAP1 DUP2 MSTORE PUSH1 0x20 ADD PUSH1 0x40 MLOAD DUP1 SWAP2 SUB SWAP1 KECCAK256 PUSH0 SWAP1 SLOAD SWAP1 PUSH2 0x100 EXP SWAP1 DIV PUSH1 0xFF AND PUSH2 0xF72 SWAP2 SWAP1 PUSH2 0x29D8 JUMP JUMPDEST PUSH1 0xFF AND PUSH1 0x5 DUP2 LT PUSH2 0xF86 JUMPI PUSH2 0xF85 PUSH2 0x2A0C JUMP JUMPDEST JUMPDEST PUSH1 0x12 MUL ADD SWAP1 POP CALLER PUSH20 0xFFFFFFFFFFFFFFFFFFFFFFFFFFFFFFFFFFFFFFFF AND DUP2 PUSH1 0x1 ADD PUSH0 SWAP1 SLOAD SWAP1 PUSH2 0x100 EXP SWAP1 DIV PUSH20 0xFFFFFFFFFFFFFFFFFFFFFFFFFFFFFFFFFFFFFFFF AND PUSH20 0xFFFFFFFFFFFFFFFFFFFFFFFFFFFFFFFFFFFFFFFF AND EQ DUP1 PUSH2 0x1037 JUMPI POP PUSH0 PUSH20 0xFFFFFFFFFFFFFFFFFFFFFFFFFFFFFFFFFFFFFFFF AND DUP2 PUSH1 0x1 ADD PUSH0 SWAP1 SLOAD SWAP1 PUSH2 0x100 EXP SWAP1 DIV PUSH20 0xFFFFFFFFFFFFFFFFFFFFFFFFFFFFFFFFFFFFFFFF AND PUSH20 0xFFFFFFFFFFFFFFFFFFFFFFFFFFFFFFFFFFFFFFFF AND EQ JUMPDEST PUSH2 0x1076 JUMPI PUSH1 0x40 MLOAD PUSH32 0x8C379A000000000000000000000000000000000000000000000000000000000 DUP2 MSTORE PUSH1 0x4 ADD PUSH2 0x106D SWAP1 PUSH2 0x2E42 JUMP JUMPDEST PUSH1 0x40 MLOAD DUP1 SWAP2 SUB SWAP1 REVERT JUMPDEST PUSH2 0x1081 DUP2 PUSH1 0x2 PUSH2 0x1D0F JUMP JUMPDEST POP POP POP JUMP JUMPDEST PUSH0 PUSH1 0x5B DUP4 PUSH1 0x40 MLOAD PUSH2 0x1097 SWAP2 SWAP1 PUSH2 0x292D JUMP JUMPDEST SWAP1 DUP2 MSTORE PUSH1 0x20 ADD PUSH1 0x40 MLOAD DUP1 SWAP2 SUB SWAP1 KECCAK256 PUSH0 SWAP1 SLOAD SWAP1 PUSH2 0x100 EXP SWAP1 DIV PUSH1 0xFF AND PUSH1 0xFF AND EQ PUSH2 0x10F5 JUMPI PUSH1 0x40 MLOAD PUSH32 0x8C379A000000000000000000000000000000000000000000000000000000000 DUP2 MSTORE PUSH1 0x4 ADD PUSH2 0x10EC SWAP1 PUSH2 0x2ED0 JUMP JUMPDEST PUSH1 0x40 MLOAD DUP1 SWAP2 SUB SWAP1 REVERT JUMPDEST PUSH0 DUP2 PUSH1 0xFF AND GT DUP1 ISZERO PUSH2 0x110E JUMPI POP PUSH1 0x5 PUSH1 0xFF AND DUP2 PUSH1 0xFF AND GT ISZERO JUMPDEST PUSH2 0x114D JUMPI PUSH1 0x40 MLOAD PUSH32 0x8C379A000000000000000000000000000000000000000000000000000000000 DUP2 MSTORE PUSH1 0x4 ADD PUSH2 0x1144 SWAP1 PUSH2 0x2F5E JUMP JUMPDEST PUSH1 0x40 MLOAD DUP1 SWAP2 SUB SWAP1 REVERT JUMPDEST PUSH0 PUSH2 0x1156 PUSH2 0x1EC6 JUMP JUMPDEST SWAP1 POP PUSH0 DUP2 PUSH1 0xFF AND GT PUSH2 0x119D JUMPI PUSH1 0x40 MLOAD PUSH32 0x8C379A000000000000000000000000000000000000000000000000000000000 DUP2 MSTORE PUSH1 0x4 ADD PUSH2 0x1194 SWAP1 PUSH2 0x2FC6 JUMP JUMPDEST PUSH1 0x40 MLOAD DUP1 SWAP2 SUB SWAP1 REVERT JUMPDEST PUSH0 PUSH1 0x1 DUP1 DUP4 PUSH2 0x11AC SWAP2 SWAP1 PUSH2 0x29D8 JUMP JUMPDEST PUSH1 0xFF AND PUSH1 0x5 DUP2 LT PUSH2 0x11C0 JUMPI PUSH2 0x11BF PUSH2 0x2A0C JUMP JUMPDEST JUMPDEST PUSH1 0x12 MUL ADD SWAP1 POP DUP4 DUP2 PUSH0 ADD SWAP1 DUP2 PUSH2 0x11D6 SWAP2 SWAP1 PUSH2 0x3181 JUMP JUMPDEST POP CALLER DUP2 PUSH1 0x1 ADD PUSH0 PUSH2 0x100 EXP DUP2 SLOAD DUP2 PUSH20 0xFFFFFFFFFFFFFFFFFFFFFFFFFFFFFFFFFFFFFFFF MUL NOT AND SWAP1 DUP4 PUSH20 0xFFFFFFFFFFFFFFFFFFFFFFFFFFFFFFFFFFFFFFFF AND MUL OR SWAP1 SSTORE POP DUP3 DUP2 PUSH1 0x1 ADD PUSH1 0x14 PUSH2 0x100 EXP DUP2 SLOAD DUP2 PUSH1 0xFF MUL NOT AND SWAP1 DUP4 PUSH1 0xFF AND MUL OR SWAP1 SSTORE POP PUSH0 TIMESTAMP CALLER PUSH1 0x40 MLOAD PUSH1 0x20 ADD PUSH2 0x124A SWAP3 SWAP2 SWAP1 PUSH2 0x32E5 JUMP JUMPDEST PUSH1 0x40 MLOAD PUSH1 0x20 DUP2 DUP4 SUB SUB DUP2 MSTORE SWAP1 PUSH1 0x40 MSTORE DUP1 MLOAD SWAP1 PUSH1 0x20 ADD KECCAK256 PUSH0 SHR SWAP1 POP PUSH0 DUP1 DUP1 SLOAD SWAP1 POP DUP3 PUSH2 0x1275 SWAP2 SWAP1 PUSH2 0x333D JUMP JUMPDEST DUP2 SLOAD DUP2 LT PUSH2 0x1286 JUMPI PUSH2 0x1285 PUSH2 0x2A0C JUMP JUMPDEST JUMPDEST SWAP1 PUSH0 MSTORE PUSH1 0x20 PUSH0 KECCAK256 ADD DUP3 PUSH1 0x3 ADD SWAP1 DUP2 PUSH2 0x129E SWAP2 SWAP1 PUSH2 0x3394 JUMP JUMPDEST POP DUP2 PUSH1 0x3 ADD DUP1 SLOAD PUSH2 0x12AE SWAP1 PUSH2 0x28C3 JUMP JUMPDEST SWAP1 POP PUSH8 0xFFFFFFFFFFFFFFFF DUP2 GT ISZERO PUSH2 0x12C9 JUMPI PUSH2 0x12C8 PUSH2 0x25D5 JUMP JUMPDEST JUMPDEST PUSH1 0x40 MLOAD SWAP1 DUP1 DUP3 MSTORE DUP1 PUSH1 0x20 MUL PUSH1 0x20 ADD DUP3 ADD PUSH1 0x40 MSTORE DUP1 ISZERO PUSH2 0x12F7 JUMPI DUP2 PUSH1 0x20 ADD PUSH1 0x20 DUP3 MUL DUP1 CALLDATASIZE DUP4 CALLDATACOPY DUP1 DUP3 ADD SWAP2 POP POP SWAP1 POP JUMPDEST POP DUP3 PUSH1 0x4 ADD SWAP1 DUP1 MLOAD SWAP1 PUSH1 0x20 ADD SWAP1 PUSH2 0x130F SWAP3 SWAP2 SWAP1 PUSH2 0x2392 JUMP JUMPDEST POP TIMESTAMP DUP3 PUSH1 0x7 ADD DUP2 SWAP1 SSTORE POP DUP3 PUSH1 0x5B DUP7 PUSH1 0x40 MLOAD PUSH2 0x132A SWAP2 SWAP1 PUSH2 0x292D JUMP JUMPDEST SWAP1 DUP2 MSTORE PUSH1 0x20 ADD PUSH1 0x40 MLOAD DUP1 SWAP2 SUB SWAP1 KECCAK256 PUSH0 PUSH2 0x100 EXP DUP2 SLOAD DUP2 PUSH1 0xFF MUL NOT AND SWAP1 DUP4 PUSH1 0xFF AND MUL OR SWAP1 SSTORE POP DUP5 PUSH1 0x40 MLOAD PUSH2 0x135D SWAP2 SWAP1 PUSH2 0x292D JUMP JUMPDEST PUSH1 0x40 MLOAD DUP1 SWAP2 SUB SWAP1 KECCAK256 PUSH32 0xA0048D71A81BD0849AD071DD103D646A72B493A92A1CDF4CB7C13CF30F577DF DUP6 PUSH1 0x40 MLOAD PUSH2 0x1394 SWAP2 SWAP1 PUSH2 0x275B JUMP JUMPDEST PUSH1 0x40 MLOAD DUP1 SWAP2 SUB SWAP1 LOG2 PUSH2 0x13A6 DUP3 CALLER PUSH2 0x1F98 JUMP JUMPDEST POP POP POP POP POP JUMP JUMPDEST DUP2 DUP4 PUSH1 0x3 ADD DUP5 PUSH1 0x2 ADD PUSH0 SWAP1 SLOAD SWAP1 PUSH2 0x100 EXP SWAP1 DIV PUSH1 0xFF AND PUSH1 0xFF AND PUSH1 0x5 DUP2 LT PUSH2 0x13D7 JUMPI PUSH2 0x13D6 PUSH2 0x2A0C JUMP JUMPDEST JUMPDEST ADD PUSH0 PUSH2 0x100 EXP DUP2 SLOAD DUP2 PUSH20 0xFFFFFFFFFFFFFFFFFFFFFFFFFFFFFFFFFFFFFFFF MUL NOT AND SWAP1 DUP4 PUSH20 0xFFFFFFFFFFFFFFFFFFFFFFFFFFFFFFFFFFFFFFFF AND MUL OR SWAP1 SSTORE POP DUP1 DUP4 PUSH1 0x8 ADD PUSH0 DUP5 PUSH20 0xFFFFFFFFFFFFFFFFFFFFFFFFFFFFFFFFFFFFFFFF AND PUSH20 0xFFFFFFFFFFFFFFFFFFFFFFFFFFFFFFFFFFFFFFFF AND DUP2 MSTORE PUSH1 0x20 ADD SWAP1 DUP2 MSTORE PUSH1 0x20 ADD PUSH0 KECCAK256 PUSH0 PUSH2 0x100 EXP DUP2 SLOAD DUP2 PUSH1 0xFF MUL NOT AND SWAP1 DUP4 PUSH1 0xF8 SHR MUL OR SWAP1 SSTORE POP PUSH1 0x1 DUP4 PUSH1 0x9 ADD PUSH0 DUP4 PUSH31 0xFFFFFFFFFFFFFFFFFFFFFFFFFFFFFFFFFFFFFFFFFFFFFFFFFFFFFFFFFFFFFF NOT AND PUSH31 0xFFFFFFFFFFFFFFFFFFFFFFFFFFFFFFFFFFFFFFFFFFFFFFFFFFFFFFFFFFFFFF NOT AND DUP2 MSTORE PUSH1 0x20 ADD SWAP1 DUP2 MSTORE PUSH1 0x20 ADD PUSH0 KECCAK256 PUSH0 DUP3 DUP3 DUP3 SWAP1 SLOAD SWAP1 PUSH2 0x100 EXP SWAP1 DIV PUSH1 0xFF AND PUSH2 0x14DF SWAP2 SWAP1 PUSH2 0x3479 JUMP JUMPDEST SWAP3 POP PUSH2 0x100 EXP DUP2 SLOAD DUP2 PUSH1 0xFF MUL NOT AND SWAP1 DUP4 PUSH1 0xFF AND MUL OR SWAP1 SSTORE POP PUSH1 0x1 DUP4 PUSH1 0x2 ADD PUSH0 DUP3 DUP3 DUP3 SWAP1 SLOAD SWAP1 PUSH2 0x100 EXP SWAP1 DIV PUSH1 0xFF AND PUSH2 0x1517 SWAP2 SWAP1 PUSH2 0x3479 JUMP JUMPDEST SWAP3 POP PUSH2 0x100 EXP DUP2 SLOAD DUP2 PUSH1 0xFF MUL NOT AND SWAP1 DUP4 PUSH1 0xFF AND MUL OR SWAP1 SSTORE POP DUP3 PUSH0 ADD PUSH0 SWAP1 SLOAD SWAP1 PUSH2 0x100 EXP SWAP1 DIV PUSH1 0xFF AND PUSH2 0x15AA JUMPI PUSH1 0x1 DUP4 PUSH0 ADD PUSH0 PUSH2 0x100 EXP DUP2 SLOAD DUP2 PUSH1 0xFF MUL NOT AND SWAP1 DUP4 ISZERO ISZERO MUL OR SWAP1 SSTORE POP TIMESTAMP DUP4 PUSH1 0x1 ADD DUP2 SWAP1 SSTORE POP DUP4 PUSH1 0x40 MLOAD PUSH2 0x1575 SWAP2 SWAP1 PUSH2 0x352D JUMP JUMPDEST PUSH1 0x40 MLOAD DUP1 SWAP2 SUB SWAP1 KECCAK256 PUSH32 0xC39EB03DC11D6BBEB3B818B739E4478F7874C1F803D2E603CC7D7A45045CB68D PUSH1 0x40 MLOAD PUSH1 0x40 MLOAD DUP1 SWAP2 SUB SWAP1 LOG2 JUMPDEST DUP2 PUSH20 0xFFFFFFFFFFFFFFFFFFFFFFFFFFFFFFFFFFFFFFFF AND PUSH32 0xE1BE499D3000B42A54F5BE9B908B831FBED5DA7F8431EE79B82A3FA6D092781E DUP6 DUP4 PUSH1 0x40 MLOAD PUSH2 0x15F2 SWAP3 SWAP2 SWAP1 PUSH2 0x35FE JUMP JUMPDEST PUSH1 0x40 MLOAD DUP1 SWAP2 SUB SWAP1 LOG2 POP POP POP POP JUMP JUMPDEST PUSH0 DUP2 PUSH1 0x8 ADD SWAP1 POP PUSH0 DUP1 PUSH1 0xF8 SHL SWAP1 POP PUSH0 PUSH1 0x1 SWAP1 POP PUSH0 DUP1 PUSH0 JUMPDEST DUP6 PUSH1 0x2 ADD PUSH0 SWAP1 SLOAD SWAP1 PUSH2 0x100 EXP SWAP1 DIV PUSH1 0xFF AND PUSH1 0xFF AND DUP2 LT ISZERO PUSH2 0x173F JUMPI PUSH0 DUP7 PUSH1 0x8 ADD PUSH0 DUP9 PUSH1 0x3 ADD DUP5 PUSH1 0x5 DUP2 LT PUSH2 0x164E JUMPI PUSH2 0x164D PUSH2 0x2A0C JUMP JUMPDEST JUMPDEST ADD PUSH0 SWAP1 SLOAD SWAP1 PUSH2 0x100 EXP SWAP1 DIV PUSH20 0xFFFFFFFFFFFFFFFFFFFFFFFFFFFFFFFFFFFFFFFF AND PUSH20 0xFFFFFFFFFFFFFFFFFFFFFFFFFFFFFFFFFFFFFFFF AND PUSH20 0xFFFFFFFFFFFFFFFFFFFFFFFFFFFFFFFFFFFFFFFF AND DUP2 MSTORE PUSH1 0x20 ADD SWAP1 DUP2 MSTORE PUSH1 0x20 ADD PUSH0 KECCAK256 PUSH0 SWAP1 SLOAD SWAP1 PUSH2 0x100 EXP SWAP1 DIV PUSH1 0xF8 SHL SWAP1 POP PUSH0 DUP8 PUSH1 0x9 ADD PUSH0 DUP4 PUSH31 0xFFFFFFFFFFFFFFFFFFFFFFFFFFFFFFFFFFFFFFFFFFFFFFFFFFFFFFFFFFFFFF NOT AND PUSH31 0xFFFFFFFFFFFFFFFFFFFFFFFFFFFFFFFFFFFFFFFFFFFFFFFFFFFFFFFFFFFFFF NOT AND DUP2 MSTORE PUSH1 0x20 ADD SWAP1 DUP2 MSTORE PUSH1 0x20 ADD PUSH0 KECCAK256 PUSH0 SWAP1 SLOAD SWAP1 PUSH2 0x100 EXP SWAP1 DIV PUSH1 0xFF AND SWAP1 POP DUP4 PUSH1 0xFF AND DUP2 PUSH1 0xFF AND GT ISZERO PUSH2 0x1730 JUMPI DUP2 SWAP7 POP JUMPDEST POP POP DUP1 DUP1 PUSH1 0x1 ADD SWAP2 POP POP PUSH2 0x1617 JUMP JUMPDEST POP PUSH0 DUP7 PUSH1 0x3 ADD DUP1 SLOAD PUSH2 0x1750 SWAP1 PUSH2 0x28C3 JUMP JUMPDEST DUP1 PUSH1 0x1F ADD PUSH1 0x20 DUP1 SWAP2 DIV MUL PUSH1 0x20 ADD PUSH1 0x40 MLOAD SWAP1 DUP2 ADD PUSH1 0x40 MSTORE DUP1 SWAP3 SWAP2 SWAP1 DUP2 DUP2 MSTORE PUSH1 0x20 ADD DUP3 DUP1 SLOAD PUSH2 0x177C SWAP1 PUSH2 0x28C3 JUMP JUMPDEST DUP1 ISZERO PUSH2 0x17C7 JUMPI DUP1 PUSH1 0x1F LT PUSH2 0x179E JUMPI PUSH2 0x100 DUP1 DUP4 SLOAD DIV MUL DUP4 MSTORE SWAP2 PUSH1 0x20 ADD SWAP2 PUSH2 0x17C7 JUMP JUMPDEST DUP3 ADD SWAP2 SWAP1 PUSH0 MSTORE PUSH1 0x20 PUSH0 KECCAK256 SWAP1 JUMPDEST DUP2 SLOAD DUP2 MSTORE SWAP1 PUSH1 0x1 ADD SWAP1 PUSH1 0x20 ADD DUP1 DUP4 GT PUSH2 0x17AA JUMPI DUP3 SWAP1 SUB PUSH1 0x1F AND DUP3 ADD SWAP2 JUMPDEST POP POP POP POP POP SWAP1 POP PUSH0 JUMPDEST DUP2 MLOAD DUP2 LT ISZERO PUSH2 0x19A4 JUMPI DUP6 PUSH31 0xFFFFFFFFFFFFFFFFFFFFFFFFFFFFFFFFFFFFFFFFFFFFFFFFFFFFFFFFFFFFFF NOT AND DUP3 DUP3 DUP2 MLOAD DUP2 LT PUSH2 0x180F JUMPI PUSH2 0x180E PUSH2 0x2A0C JUMP JUMPDEST JUMPDEST PUSH1 0x20 ADD ADD MLOAD PUSH1 0xF8 SHR PUSH1 0xF8 SHL PUSH31 0xFFFFFFFFFFFFFFFFFFFFFFFFFFFFFFFFFFFFFFFFFFFFFFFFFFFFFFFFFFFFFF NOT AND SUB PUSH2 0x18F8 JUMPI PUSH1 0x1 DUP9 PUSH1 0x6 ADD PUSH0 DUP9 PUSH31 0xFFFFFFFFFFFFFFFFFFFFFFFFFFFFFFFFFFFFFFFFFFFFFFFFFFFFFFFFFFFFFF NOT AND PUSH31 0xFFFFFFFFFFFFFFFFFFFFFFFFFFFFFFFFFFFFFFFFFFFFFFFFFFFFFFFFFFFFFF NOT AND DUP2 MSTORE PUSH1 0x20 ADD SWAP1 DUP2 MSTORE PUSH1 0x20 ADD PUSH0 KECCAK256 PUSH0 PUSH2 0x100 EXP DUP2 SLOAD DUP2 PUSH1 0xFF MUL NOT AND SWAP1 DUP4 ISZERO ISZERO MUL OR SWAP1 SSTORE POP PUSH1 0x1 DUP9 PUSH1 0x4 ADD DUP3 DUP2 SLOAD DUP2 LT PUSH2 0x18C8 JUMPI PUSH2 0x18C7 PUSH2 0x2A0C JUMP JUMPDEST JUMPDEST SWAP1 PUSH0 MSTORE PUSH1 0x20 PUSH0 KECCAK256 SWAP1 PUSH1 0x20 SWAP2 DUP3 DUP3 DIV ADD SWAP2 SWAP1 MOD PUSH2 0x100 EXP DUP2 SLOAD DUP2 PUSH1 0xFF MUL NOT AND SWAP1 DUP4 ISZERO ISZERO MUL OR SWAP1 SSTORE POP PUSH1 0x1 SWAP4 POP PUSH2 0x1997 JUMP JUMPDEST DUP8 PUSH1 0x4 ADD DUP2 DUP2 SLOAD DUP2 LT PUSH2 0x190E JUMPI PUSH2 0x190D PUSH2 0x2A0C JUMP JUMPDEST JUMPDEST SWAP1 PUSH0 MSTORE PUSH1 0x20 PUSH0 KECCAK256 SWAP1 PUSH1 0x20 SWAP2 DUP3 DUP3 DIV ADD SWAP2 SWAP1 MOD SWAP1 SLOAD SWAP1 PUSH2 0x100 EXP SWAP1 DIV PUSH1 0xFF AND PUSH2 0x1996 JUMPI PUSH32 0x5F00000000000000000000000000000000000000000000000000000000000000 DUP3 DUP3 DUP2 MLOAD DUP2 LT PUSH2 0x1964 JUMPI PUSH2 0x1963 PUSH2 0x2A0C JUMP JUMPDEST JUMPDEST PUSH1 0x20 ADD ADD SWAP1 PUSH31 0xFFFFFFFFFFFFFFFFFFFFFFFFFFFFFFFFFFFFFFFFFFFFFFFFFFFFFFFFFFFFFF NOT AND SWAP1 DUP2 PUSH0 BYTE SWAP1 MSTORE8 POP PUSH0 SWAP5 POP JUMPDEST JUMPDEST DUP1 DUP1 PUSH1 0x1 ADD SWAP2 POP POP PUSH2 0x17D0 JUMP JUMPDEST POP DUP7 PUSH1 0x8 ADD PUSH0 DUP1 DUP3 ADD PUSH0 PUSH2 0x100 EXP DUP2 SLOAD SWAP1 PUSH1 0xFF MUL NOT AND SWAP1 SSTORE PUSH1 0x1 DUP3 ADD PUSH0 SWAP1 SSTORE PUSH1 0x2 DUP3 ADD PUSH0 PUSH2 0x100 EXP DUP2 SLOAD SWAP1 PUSH1 0xFF MUL NOT AND SWAP1 SSTORE PUSH1 0x3 DUP3 ADD PUSH0 PUSH2 0x19E5 SWAP2 SWAP1 PUSH2 0x2433 JUMP JUMPDEST POP POP DUP7 PUSH0 ADD PUSH1 0x40 MLOAD PUSH2 0x19F7 SWAP2 SWAP1 PUSH2 0x36AC JUMP JUMPDEST PUSH1 0x40 MLOAD DUP1 SWAP2 SUB SWAP1 KECCAK256 PUSH32 0x93484660649CF971864763C1BC0E0D0F5D7FDCEEB388472825D299F8283268DE DUP7 DUP4 DUP7 ISZERO PUSH1 0x40 MLOAD PUSH2 0x1A33 SWAP4 SWAP3 SWAP2 SWAP1 PUSH2 0x36DC JUMP JUMPDEST PUSH1 0x40 MLOAD DUP1 SWAP2 SUB SWAP1 LOG2 DUP3 PUSH2 0x1AA7 JUMPI PUSH1 0x1 DUP8 PUSH1 0x5 ADD PUSH0 DUP3 DUP3 DUP3 SWAP1 SLOAD SWAP1 PUSH2 0x100 EXP SWAP1 DIV PUSH1 0xFF AND PUSH2 0x1A60 SWAP2 SWAP1 PUSH2 0x3479 JUMP JUMPDEST SWAP3 POP PUSH2 0x100 EXP DUP2 SLOAD DUP2 PUSH1 0xFF MUL NOT AND SWAP1 DUP4 PUSH1 0xFF AND MUL OR SWAP1 SSTORE POP PUSH1 0x6 PUSH1 0xFF AND DUP8 PUSH1 0x5 ADD PUSH0 SWAP1 SLOAD SWAP1 PUSH2 0x100 EXP SWAP1 DIV PUSH1 0xFF AND PUSH1 0xFF AND SUB PUSH2 0x1AA2 JUMPI PUSH2 0x1AA1 DUP8 PUSH1 0x1 PUSH2 0x1D0F JUMP JUMPDEST JUMPDEST PUSH2 0x1AB9 JUMP JUMPDEST DUP4 ISZERO PUSH2 0x1AB8 JUMPI PUSH2 0x1AB7 DUP8 PUSH0 PUSH2 0x1D0F JUMP JUMPDEST JUMPDEST JUMPDEST POP POP POP POP POP POP POP JUMP JUMPDEST PUSH0 DUP3 PUSH1 0x2 ADD PUSH0 DUP4 PUSH20 0xFFFFFFFFFFFFFFFFFFFFFFFFFFFFFFFFFFFFFFFF AND PUSH20 0xFFFFFFFFFFFFFFFFFFFFFFFFFFFFFFFFFFFFFFFF AND DUP2 MSTORE PUSH1 0x20 ADD SWAP1 DUP2 MSTORE PUSH1 0x20 ADD PUSH0 KECCAK256 PUSH0 PUSH2 0x100 EXP DUP2 SLOAD DUP2 PUSH1 0xFF MUL NOT AND SWAP1 DUP4 ISZERO ISZERO MUL OR SWAP1 SSTORE POP PUSH1 0x1 DUP3 PUSH1 0x1 ADD PUSH1 0x15 DUP3 DUP3 DUP3 SWAP1 SLOAD SWAP1 PUSH2 0x100 EXP SWAP1 DIV PUSH1 0xFF AND PUSH2 0x1B39 SWAP2 SWAP1 PUSH2 0x29D8 JUMP JUMPDEST SWAP3 POP PUSH2 0x100 EXP DUP2 SLOAD DUP2 PUSH1 0xFF MUL NOT AND SWAP1 DUP4 PUSH1 0xFF AND MUL OR SWAP1 SSTORE POP PUSH0 DUP3 PUSH1 0x8 ADD SWAP1 POP PUSH0 DUP4 PUSH1 0x1 ADD PUSH1 0x15 SWAP1 SLOAD SWAP1 PUSH2 0x100 EXP SWAP1 DIV PUSH1 0xFF AND PUSH1 0xFF AND GT DUP1 ISZERO PUSH2 0x1B87 JUMPI POP DUP1 PUSH0 ADD PUSH0 SWAP1 SLOAD SWAP1 PUSH2 0x100 EXP SWAP1 DIV PUSH1 0xFF AND JUMPDEST DUP1 ISZERO PUSH2 0x1C03 JUMPI POP PUSH0 PUSH1 0xF8 SHL DUP2 PUSH1 0x8 ADD PUSH0 DUP5 PUSH20 0xFFFFFFFFFFFFFFFFFFFFFFFFFFFFFFFFFFFFFFFF AND PUSH20 0xFFFFFFFFFFFFFFFFFFFFFFFFFFFFFFFFFFFFFFFF AND DUP2 MSTORE PUSH1 0x20 ADD SWAP1 DUP2 MSTORE PUSH1 0x20 ADD PUSH0 KECCAK256 PUSH0 SWAP1 SLOAD SWAP1 PUSH2 0x100 EXP SWAP1 DIV PUSH1 0xF8 SHL PUSH31 0xFFFFFFFFFFFFFFFFFFFFFFFFFFFFFFFFFFFFFFFFFFFFFFFFFFFFFFFFFFFFFF NOT AND EQ ISZERO JUMPDEST ISZERO PUSH2 0x1C16 JUMPI PUSH2 0x1C15 DUP4 PUSH0 ADD DUP3 DUP5 PUSH2 0x202C JUMP JUMPDEST JUMPDEST DUP2 PUSH20 0xFFFFFFFFFFFFFFFFFFFFFFFFFFFFFFFFFFFFFFFF AND DUP4 PUSH1 0x1 ADD PUSH0 SWAP1 SLOAD SWAP1 PUSH2 0x100 EXP SWAP1 DIV PUSH20 0xFFFFFFFFFFFFFFFFFFFFFFFFFFFFFFFFFFFFFFFF AND PUSH20 0xFFFFFFFFFFFFFFFFFFFFFFFFFFFFFFFFFFFFFFFF AND SUB PUSH2 0x1CAF JUMPI PUSH0 DUP4 PUSH1 0x1 ADD PUSH0 PUSH2 0x100 EXP DUP2 SLOAD DUP2 PUSH20 0xFFFFFFFFFFFFFFFFFFFFFFFFFFFFFFFFFFFFFFFF MUL NOT AND SWAP1 DUP4 PUSH20 0xFFFFFFFFFFFFFFFFFFFFFFFFFFFFFFFFFFFFFFFF AND MUL OR SWAP1 SSTORE POP JUMPDEST DUP2 PUSH20 0xFFFFFFFFFFFFFFFFFFFFFFFFFFFFFFFFFFFFFFFF AND DUP4 PUSH0 ADD PUSH1 0x40 MLOAD PUSH2 0x1CD6 SWAP2 SWAP1 PUSH2 0x36AC JUMP JUMPDEST PUSH1 0x40 MLOAD DUP1 SWAP2 SUB SWAP1 KECCAK256 PUSH32 0xE3C5754D381588D73ABE5A3EA491352AE6599BC3517832567C983A64F1FCB85B PUSH1 0x40 MLOAD PUSH1 0x40 MLOAD DUP1 SWAP2 SUB SWAP1 LOG3 POP POP POP JUMP JUMPDEST DUP2 PUSH0 ADD PUSH1 0x40 MLOAD PUSH2 0x1D1F SWAP2 SWAP1 PUSH2 0x36AC JUMP JUMPDEST PUSH1 0x40 MLOAD DUP1 SWAP2 SUB SWAP1 KECCAK256 PUSH32 0x3D40BF146111CF2FB1681F012B4CED47C0260037F37AC76366766D0D20E1689D DUP3 DUP5 PUSH1 0x3 ADD PUSH1 0x40 MLOAD PUSH2 0x1D5B SWAP3 SWAP2 SWAP1 PUSH2 0x380C JUMP JUMPDEST PUSH1 0x40 MLOAD DUP1 SWAP2 SUB SWAP1 LOG2 PUSH0 PUSH1 0x5B DUP4 PUSH0 ADD PUSH1 0x40 MLOAD PUSH2 0x1D76 SWAP2 SWAP1 PUSH2 0x36AC JUMP JUMPDEST SWAP1 DUP2 MSTORE PUSH1 0x20 ADD PUSH1 0x40 MLOAD DUP1 SWAP2 SUB SWAP1 KECCAK256 PUSH0 SWAP1 SLOAD SWAP1 PUSH2 0x100 EXP SWAP1 DIV PUSH1 0xFF AND SWAP1 POP PUSH1 0x5B DUP4 PUSH0 ADD PUSH1 0x40 MLOAD PUSH2 0x1DA5 SWAP2 SWAP1 PUSH2 0x36AC JUMP JUMPDEST SWAP1 DUP2 MSTORE PUSH1 0x20 ADD PUSH1 0x40 MLOAD DUP1 SWAP2 SUB SWAP1 KECCAK256 PUSH0 PUSH2 0x100 EXP DUP2 SLOAD SWAP1 PUSH1 0xFF MUL NOT AND SWAP1 SSTORE PUSH1 0x1 DUP1 DUP3 PUSH2 0x1DD0 SWAP2 SWAP1 PUSH2 0x29D8 JUMP JUMPDEST PUSH1 0xFF AND PUSH1 0x5 DUP2 LT PUSH2 0x1DE4 JUMPI PUSH2 0x1DE3 PUSH2 0x2A0C JUMP JUMPDEST JUMPDEST PUSH1 0x12 MUL ADD PUSH0 DUP1 DUP3 ADD PUSH0 PUSH2 0x1DF7 SWAP2 SWAP1 PUSH2 0x2451 JUMP JUMPDEST PUSH1 0x1 DUP3 ADD PUSH0 PUSH2 0x100 EXP DUP2 SLOAD SWAP1 PUSH20 0xFFFFFFFFFFFFFFFFFFFFFFFFFFFFFFFFFFFFFFFF MUL NOT AND SWAP1 SSTORE PUSH1 0x1 DUP3 ADD PUSH1 0x14 PUSH2 0x100 EXP DUP2 SLOAD SWAP1 PUSH1 0xFF MUL NOT AND SWAP1 SSTORE PUSH1 0x1 DUP3 ADD PUSH1 0x15 PUSH2 0x100 EXP DUP2 SLOAD SWAP1 PUSH1 0xFF MUL NOT AND SWAP1 SSTORE PUSH1 0x3 DUP3 ADD PUSH0 PUSH2 0x1E54 SWAP2 SWAP1 PUSH2 0x2451 JUMP JUMPDEST PUSH1 0x4 DUP3 ADD PUSH0 PUSH2 0x1E63 SWAP2 SWAP1 PUSH2 0x248E JUMP JUMPDEST PUSH1 0x5 DUP3 ADD PUSH0 PUSH2 0x100 EXP DUP2 SLOAD SWAP1 PUSH1 0xFF MUL NOT AND SWAP1 SSTORE PUSH1 0x7 DUP3 ADD PUSH0 SWAP1 SSTORE PUSH1 0x8 DUP3 ADD PUSH0 DUP1 DUP3 ADD PUSH0 PUSH2 0x100 EXP DUP2 SLOAD SWAP1 PUSH1 0xFF MUL NOT AND SWAP1 SSTORE PUSH1 0x1 DUP3 ADD PUSH0 SWAP1 SSTORE PUSH1 0x2 DUP3 ADD PUSH0 PUSH2 0x100 EXP DUP2 SLOAD SWAP1 PUSH1 0xFF MUL NOT AND SWAP1 SSTORE PUSH1 0x3 DUP3 ADD PUSH0 PUSH2 0x1EBD SWAP2 SWAP1 PUSH2 0x2433 JUMP JUMPDEST POP POP POP POP POP POP POP JUMP JUMPDEST PUSH0 DUP1 PUSH0 SWAP1 POP JUMPDEST PUSH1 0x5 DUP2 PUSH1 0xFF AND LT ISZERO PUSH2 0x1F90 JUMPI PUSH0 PUSH1 0x1 DUP3 PUSH1 0xFF AND PUSH1 0x5 DUP2 LT PUSH2 0x1EF0 JUMPI PUSH2 0x1EEF PUSH2 0x2A0C JUMP JUMPDEST JUMPDEST PUSH1 0x12 MUL ADD SWAP1 POP PUSH0 PUSH1 0x5B DUP3 PUSH0 ADD PUSH1 0x40 MLOAD PUSH2 0x1F09 SWAP2 SWAP1 PUSH2 0x36AC JUMP JUMPDEST SWAP1 DUP2 MSTORE PUSH1 0x20 ADD PUSH1 0x40 MLOAD DUP1 SWAP2 SUB SWAP1 KECCAK256 PUSH0 SWAP1 SLOAD SWAP1 PUSH2 0x100 EXP SWAP1 DIV PUSH1 0xFF AND PUSH1 0xFF AND SUB PUSH2 0x1F42 JUMPI PUSH1 0x1 DUP3 PUSH2 0x1F39 SWAP2 SWAP1 PUSH2 0x3479 JUMP JUMPDEST SWAP3 POP POP POP PUSH2 0x1F95 JUMP JUMPDEST PUSH2 0x384 DUP2 PUSH1 0x7 ADD SLOAD TIMESTAMP PUSH2 0x1F55 SWAP2 SWAP1 PUSH2 0x2CCF JUMP JUMPDEST GT ISZERO PUSH2 0x1F7C JUMPI PUSH2 0x1F66 DUP2 PUSH1 0x2 PUSH2 0x1D0F JUMP JUMPDEST PUSH1 0x1 DUP3 PUSH2 0x1F73 SWAP2 SWAP1 PUSH2 0x3479 JUMP JUMPDEST SWAP3 POP POP POP PUSH2 0x1F95 JUMP JUMPDEST POP DUP1 DUP1 PUSH2 0x1F88 SWAP1 PUSH2 0x383A JUMP JUMPDEST SWAP2 POP POP PUSH2 0x1ECC JUMP JUMPDEST POP PUSH0 SWAP1 POP JUMPDEST SWAP1 JUMP JUMPDEST PUSH1 0x1 DUP3 PUSH1 0x2 ADD PUSH0 DUP4 PUSH20 0xFFFFFFFFFFFFFFFFFFFFFFFFFFFFFFFFFFFFFFFF AND PUSH20 0xFFFFFFFFFFFFFFFFFFFFFFFFFFFFFFFFFFFFFFFF AND DUP2 MSTORE PUSH1 0x20 ADD SWAP1 DUP2 MSTORE PUSH1 0x20 ADD PUSH0 KECCAK256 PUSH0 PUSH2 0x100 EXP DUP2 SLOAD DUP2 PUSH1 0xFF MUL NOT AND SWAP1 DUP4 ISZERO ISZERO MUL OR SWAP1 SSTORE POP PUSH1 0x1 DUP3 PUSH1 0x1 ADD PUSH1 0x15 DUP3 DUP3 DUP3 SWAP1 SLOAD SWAP1 PUSH2 0x100 EXP SWAP1 DIV PUSH1 0xFF AND PUSH2 0x2010 SWAP2 SWAP1 PUSH2 0x3479 JUMP JUMPDEST SWAP3 POP PUSH2 0x100 EXP DUP2 SLOAD DUP2 PUSH1 0xFF MUL NOT AND SWAP1 DUP4 PUSH1 0xFF AND MUL OR SWAP1 SSTORE POP POP POP JUMP JUMPDEST PUSH0 DUP3 PUSH1 0x8 ADD PUSH0 DUP4 PUSH20 0xFFFFFFFFFFFFFFFFFFFFFFFFFFFFFFFFFFFFFFFF AND PUSH20 0xFFFFFFFFFFFFFFFFFFFFFFFFFFFFFFFFFFFFFFFF AND DUP2 MSTORE PUSH1 0x20 ADD SWAP1 DUP2 MSTORE PUSH1 0x20 ADD PUSH0 KECCAK256 PUSH0 SWAP1 SLOAD SWAP1 PUSH2 0x100 EXP SWAP1 DIV PUSH1 0xF8 SHL SWAP1 POP PUSH0 PUSH1 0xF8 SHL DUP4 PUSH1 0x8 ADD PUSH0 DUP5 PUSH20 0xFFFFFFFFFFFFFFFFFFFFFFFFFFFFFFFFFFFFFFFF AND PUSH20 0xFFFFFFFFFFFFFFFFFFFFFFFFFFFFFFFFFFFFFFFF AND DUP2 MSTORE PUSH1 0x20 ADD SWAP1 DUP2 MSTORE PUSH1 0x20 ADD PUSH0 KECCAK256 PUSH0 PUSH2 0x100 EXP DUP2 SLOAD DUP2 PUSH1 0xFF MUL NOT AND SWAP1 DUP4 PUSH1 0xF8 SHR MUL OR SWAP1 SSTORE POP PUSH0 DUP1 JUMPDEST DUP5 PUSH1 0x2 ADD PUSH0 SWAP1 SLOAD SWAP1 PUSH2 0x100 EXP SWAP1 DIV PUSH1 0xFF AND PUSH1 0xFF AND DUP2 LT ISZERO PUSH2 0x2302 JUMPI DUP4 PUSH20 0xFFFFFFFFFFFFFFFFFFFFFFFFFFFFFFFFFFFFFFFF AND DUP6 PUSH1 0x3 ADD DUP3 PUSH1 0x5 DUP2 LT PUSH2 0x2120 JUMPI PUSH2 0x211F PUSH2 0x2A0C JUMP JUMPDEST JUMPDEST ADD PUSH0 SWAP1 SLOAD SWAP1 PUSH2 0x100 EXP SWAP1 DIV PUSH20 0xFFFFFFFFFFFFFFFFFFFFFFFFFFFFFFFFFFFFFFFF AND PUSH20 0xFFFFFFFFFFFFFFFFFFFFFFFFFFFFFFFFFFFFFFFF AND SUB PUSH2 0x21BA JUMPI PUSH0 DUP6 PUSH1 0x3 ADD DUP3 PUSH1 0x5 DUP2 LT PUSH2 0x2173 JUMPI PUSH2 0x2172 PUSH2 0x2A0C JUMP JUMPDEST JUMPDEST ADD PUSH0 PUSH2 0x100 EXP DUP2 SLOAD DUP2 PUSH20 0xFFFFFFFFFFFFFFFFFFFFFFFFFFFFFFFFFFFFFFFF MUL NOT AND SWAP1 DUP4 PUSH20 0xFFFFFFFFFFFFFFFFFFFFFFFFFFFFFFFFFFFFFFFF AND MUL OR SWAP1 SSTORE POP PUSH1 0x1 SWAP2 POP PUSH2 0x22F5 JUMP JUMPDEST DUP2 ISZERO PUSH2 0x22F4 JUMPI PUSH0 DUP6 PUSH1 0x3 ADD PUSH1 0x1 DUP4 PUSH2 0x21D2 SWAP2 SWAP1 PUSH2 0x2CCF JUMP JUMPDEST PUSH1 0x5 DUP2 LT PUSH2 0x21E3 JUMPI PUSH2 0x21E2 PUSH2 0x2A0C JUMP JUMPDEST JUMPDEST ADD PUSH0 SWAP1 SLOAD SWAP1 PUSH2 0x100 EXP SWAP1 DIV PUSH20 0xFFFFFFFFFFFFFFFFFFFFFFFFFFFFFFFFFFFFFFFF AND SWAP1 POP DUP6 PUSH1 0x3 ADD DUP3 PUSH1 0x5 DUP2 LT PUSH2 0x221C JUMPI PUSH2 0x221B PUSH2 0x2A0C JUMP JUMPDEST JUMPDEST ADD PUSH0 SWAP1 SLOAD SWAP1 PUSH2 0x100 EXP SWAP1 DIV PUSH20 0xFFFFFFFFFFFFFFFFFFFFFFFFFFFFFFFFFFFFFFFF AND DUP7 PUSH1 0x3 ADD PUSH1 0x1 DUP5 PUSH2 0x224E SWAP2 SWAP1 PUSH2 0x2CCF JUMP JUMPDEST PUSH1 0x5 DUP2 LT PUSH2 0x225F JUMPI PUSH2 0x225E PUSH2 0x2A0C JUMP JUMPDEST JUMPDEST ADD PUSH0 PUSH2 0x100 EXP DUP2 SLOAD DUP2 PUSH20 0xFFFFFFFFFFFFFFFFFFFFFFFFFFFFFFFFFFFFFFFF MUL NOT AND SWAP1 DUP4 PUSH20 0xFFFFFFFFFFFFFFFFFFFFFFFFFFFFFFFFFFFFFFFF AND MUL OR SWAP1 SSTORE POP DUP1 DUP7 PUSH1 0x3 ADD DUP4 PUSH1 0x5 DUP2 LT PUSH2 0x22B4 JUMPI PUSH2 0x22B3 PUSH2 0x2A0C JUMP JUMPDEST JUMPDEST ADD PUSH0 PUSH2 0x100 EXP DUP2 SLOAD DUP2 PUSH20 0xFFFFFFFFFFFFFFFFFFFFFFFFFFFFFFFFFFFFFFFF MUL NOT AND SWAP1 DUP4 PUSH20 0xFFFFFFFFFFFFFFFFFFFFFFFFFFFFFFFFFFFFFFFF AND MUL OR SWAP1 SSTORE POP POP JUMPDEST JUMPDEST DUP1 DUP1 PUSH1 0x1 ADD SWAP2 POP POP PUSH2 0x20D8 JUMP JUMPDEST POP PUSH1 0x1 DUP5 PUSH1 0x2 ADD PUSH0 DUP3 DUP3 DUP3 SWAP1 SLOAD SWAP1 PUSH2 0x100 EXP SWAP1 DIV PUSH1 0xFF AND PUSH2 0x2323 SWAP2 SWAP1 PUSH2 0x29D8 JUMP JUMPDEST SWAP3 POP PUSH2 0x100 EXP DUP2 SLOAD DUP2 PUSH1 0xFF MUL NOT AND SWAP1 DUP4 PUSH1 0xFF AND MUL OR SWAP1 SSTORE POP DUP3 PUSH20 0xFFFFFFFFFFFFFFFFFFFFFFFFFFFFFFFFFFFFFFFF AND PUSH32 0xE11E7B01CDD17C8C7AB41ED7897874E6A229485A77CC445646517FDAC64E75BC DUP7 DUP5 PUSH1 0x40 MLOAD PUSH2 0x2383 SWAP3 SWAP2 SWAP1 PUSH2 0x35FE JUMP JUMPDEST PUSH1 0x40 MLOAD DUP1 SWAP2 SUB SWAP1 LOG2 POP POP POP POP POP JUMP JUMPDEST DUP3 DUP1 SLOAD DUP3 DUP3 SSTORE SWAP1 PUSH0 MSTORE PUSH1 0x20 PUSH0 KECCAK256 SWAP1 PUSH1 0x1F ADD PUSH1 0x20 SWAP1 DIV DUP2 ADD SWAP3 DUP3 ISZERO PUSH2 0x2422 JUMPI SWAP2 PUSH1 0x20 MUL DUP3 ADD PUSH0 JUMPDEST DUP4 DUP3 GT ISZERO PUSH2 0x23F4 JUMPI DUP4 MLOAD DUP4 DUP3 PUSH2 0x100 EXP DUP2 SLOAD DUP2 PUSH1 0xFF MUL NOT AND SWAP1 DUP4 ISZERO ISZERO MUL OR SWAP1 SSTORE POP SWAP3 PUSH1 0x20 ADD SWAP3 PUSH1 0x1 ADD PUSH1 0x20 DUP2 PUSH0 ADD DIV SWAP3 DUP4 ADD SWAP3 PUSH1 0x1 SUB MUL PUSH2 0x23B8 JUMP JUMPDEST DUP1 ISZERO PUSH2 0x2420 JUMPI DUP3 DUP2 PUSH2 0x100 EXP DUP2 SLOAD SWAP1 PUSH1 0xFF MUL NOT AND SWAP1 SSTORE PUSH1 0x1 ADD PUSH1 0x20 DUP2 PUSH0 ADD DIV SWAP3 DUP4 ADD SWAP3 PUSH1 0x1 SUB MUL PUSH2 0x23F4 JUMP JUMPDEST POP JUMPDEST POP SWAP1 POP PUSH2 0x242F SWAP2 SWAP1 PUSH2 0x24B3 JUMP JUMPDEST POP SWAP1 JUMP JUMPDEST POP PUSH0 DUP2 SSTORE PUSH1 0x1 ADD PUSH0 DUP2 SSTORE PUSH1 0x1 ADD PUSH0 DUP2 SSTORE PUSH1 0x1 ADD PUSH0 DUP2 SSTORE PUSH1 0x1 ADD PUSH0 SWAP1 SSTORE JUMP JUMPDEST POP DUP1 SLOAD PUSH2 0x245D SWAP1 PUSH2 0x28C3 JUMP JUMPDEST PUSH0 DUP3 SSTORE DUP1 PUSH1 0x1F LT PUSH2 0x246E JUMPI POP PUSH2 0x248B JUMP JUMPDEST PUSH1 0x1F ADD PUSH1 0x20 SWAP1 DIV SWAP1 PUSH0 MSTORE PUSH1 0x20 PUSH0 KECCAK256 SWAP1 DUP2 ADD SWAP1 PUSH2 0x248A SWAP2 SWAP1 PUSH2 0x24B3 JUMP JUMPDEST JUMPDEST POP JUMP JUMPDEST POP DUP1 SLOAD PUSH0 DUP3 SSTORE PUSH1 0x1F ADD PUSH1 0x20 SWAP1 DIV SWAP1 PUSH0 MSTORE PUSH1 0x20 PUSH0 KECCAK256 SWAP1 DUP2 ADD SWAP1 PUSH2 0x24B0 SWAP2 SWAP1 PUSH2 0x24B3 JUMP JUMPDEST POP JUMP JUMPDEST JUMPDEST DUP1 DUP3 GT ISZERO PUSH2 0x24CA JUMPI PUSH0 DUP2 PUSH0 SWAP1 SSTORE POP PUSH1 0x1 ADD PUSH2 0x24B4 JUMP JUMPDEST POP SWAP1 JUMP JUMPDEST PUSH0 PUSH1 0x40 MLOAD SWAP1 POP SWAP1 JUMP JUMPDEST PUSH0 DUP1 REVERT JUMPDEST PUSH0 DUP1 REVERT JUMPDEST PUSH0 DUP2 SWAP1 POP SWAP2 SWAP1 POP JUMP JUMPDEST PUSH2 0x24F1 DUP2 PUSH2 0x24DF JUMP JUMPDEST DUP2 EQ PUSH2 0x24FB JUMPI PUSH0 DUP1 REVERT JUMPDEST POP JUMP JUMPDEST PUSH0 DUP2 CALLDATALOAD SWAP1 POP PUSH2 0x250C DUP2 PUSH2 0x24E8 JUMP JUMPDEST SWAP3 SWAP2 POP POP JUMP JUMPDEST PUSH0 PUSH1 0x20 DUP3 DUP5 SUB SLT ISZERO PUSH2 0x2527 JUMPI PUSH2 0x2526 PUSH2 0x24D7 JUMP JUMPDEST JUMPDEST PUSH0 PUSH2 0x2534 DUP5 DUP3 DUP6 ADD PUSH2 0x24FE JUMP JUMPDEST SWAP2 POP POP SWAP3 SWAP2 POP POP JUMP JUMPDEST PUSH0 DUP2 MLOAD SWAP1 POP SWAP2 SWAP1 POP JUMP JUMPDEST PUSH0 DUP3 DUP3 MSTORE PUSH1 0x20 DUP3 ADD SWAP1 POP SWAP3 SWAP2 POP POP JUMP JUMPDEST DUP3 DUP2 DUP4 MCOPY PUSH0 DUP4 DUP4 ADD MSTORE POP POP POP JUMP JUMPDEST PUSH0 PUSH1 0x1F NOT PUSH1 0x1F DUP4 ADD AND SWAP1 POP SWAP2 SWAP1 POP JUMP JUMPDEST PUSH0 PUSH2 0x257F DUP3 PUSH2 0x253D JUMP JUMPDEST PUSH2 0x2589 DUP2 DUP6 PUSH2 0x2547 JUMP JUMPDEST SWAP4 POP PUSH2 0x2599 DUP2 DUP6 PUSH1 0x20 DUP7 ADD PUSH2 0x2557 JUMP JUMPDEST PUSH2 0x25A2 DUP2 PUSH2 0x2565 JUMP JUMPDEST DUP5 ADD SWAP2 POP POP SWAP3 SWAP2 POP POP JUMP JUMPDEST PUSH0 PUSH1 0x20 DUP3 ADD SWAP1 POP DUP2 DUP2 SUB PUSH0 DUP4 ADD MSTORE PUSH2 0x25C5 DUP2 DUP5 PUSH2 0x2575 JUMP JUMPDEST SWAP1 POP SWAP3 SWAP2 POP POP JUMP JUMPDEST PUSH0 DUP1 REVERT JUMPDEST PUSH0 DUP1 REVERT JUMPDEST PUSH32 0x4E487B7100000000000000000000000000000000000000000000000000000000 PUSH0 MSTORE PUSH1 0x41 PUSH1 0x4 MSTORE PUSH1 0x24 PUSH0 REVERT JUMPDEST PUSH2 0x260B DUP3 PUSH2 0x2565 JUMP JUMPDEST DUP2 ADD DUP2 DUP2 LT PUSH8 0xFFFFFFFFFFFFFFFF DUP3 GT OR ISZERO PUSH2 0x262A JUMPI PUSH2 0x2629 PUSH2 0x25D5 JUMP JUMPDEST JUMPDEST DUP1 PUSH1 0x40 MSTORE POP POP POP JUMP JUMPDEST PUSH0 PUSH2 0x263C PUSH2 0x24CE JUMP JUMPDEST SWAP1 POP PUSH2 0x2648 DUP3 DUP3 PUSH2 0x2602 JUMP JUMPDEST SWAP2 SWAP1 POP JUMP JUMPDEST PUSH0 PUSH8 0xFFFFFFFFFFFFFFFF DUP3 GT ISZERO PUSH2 0x2667 JUMPI PUSH2 0x2666 PUSH2 0x25D5 JUMP JUMPDEST JUMPDEST PUSH2 0x2670 DUP3 PUSH2 0x2565 JUMP JUMPDEST SWAP1 POP PUSH1 0x20 DUP2 ADD SWAP1 POP SWAP2 SWAP1 POP JUMP JUMPDEST DUP3 DUP2 DUP4 CALLDATACOPY PUSH0 DUP4 DUP4 ADD MSTORE POP POP POP JUMP JUMPDEST PUSH0 PUSH2 0x269D PUSH2 0x2698 DUP5 PUSH2 0x264D JUMP JUMPDEST PUSH2 0x2633 JUMP JUMPDEST SWAP1 POP DUP3 DUP2 MSTORE PUSH1 0x20 DUP2 ADD DUP5 DUP5 DUP5 ADD GT ISZERO PUSH2 0x26B9 JUMPI PUSH2 0x26B8 PUSH2 0x25D1 JUMP JUMPDEST JUMPDEST PUSH2 0x26C4 DUP5 DUP3 DUP6 PUSH2 0x267D JUMP JUMPDEST POP SWAP4 SWAP3 POP POP POP JUMP JUMPDEST PUSH0 DUP3 PUSH1 0x1F DUP4 ADD SLT PUSH2 0x26E0 JUMPI PUSH2 0x26DF PUSH2 0x25CD JUMP JUMPDEST JUMPDEST DUP2 CALLDATALOAD PUSH2 0x26F0 DUP5 DUP3 PUSH1 0x20 DUP7 ADD PUSH2 0x268B JUMP JUMPDEST SWAP2 POP POP SWAP3 SWAP2 POP POP JUMP JUMPDEST PUSH0 PUSH1 0x20 DUP3 DUP5 SUB SLT ISZERO PUSH2 0x270E JUMPI PUSH2 0x270D PUSH2 0x24D7 JUMP JUMPDEST JUMPDEST PUSH0 DUP3 ADD CALLDATALOAD PUSH8 0xFFFFFFFFFFFFFFFF DUP2 GT ISZERO PUSH2 0x272B JUMPI PUSH2 0x272A PUSH2 0x24DB JUMP JUMPDEST JUMPDEST PUSH2 0x2737 DUP5 DUP3 DUP6 ADD PUSH2 0x26CC JUMP JUMPDEST SWAP2 POP POP SWAP3 SWAP2 POP POP JUMP JUMPDEST PUSH0 PUSH1 0xFF DUP3 AND SWAP1 POP SWAP2 SWAP1 POP JUMP JUMPDEST PUSH2 0x2755 DUP2 PUSH2 0x2740 JUMP JUMPDEST DUP3 MSTORE POP POP JUMP JUMPDEST PUSH0 PUSH1 0x20 DUP3 ADD SWAP1 POP PUSH2 0x276E PUSH0 DUP4 ADD DUP5 PUSH2 0x274C JUMP JUMPDEST SWAP3 SWAP2 POP POP JUMP JUMPDEST PUSH2 0x277D DUP2 PUSH2 0x24DF JUMP JUMPDEST DUP3 MSTORE POP POP JUMP JUMPDEST PUSH0 PUSH1 0x20 DUP3 ADD SWAP1 POP PUSH2 0x2796 PUSH0 DUP4 ADD DUP5 PUSH2 0x2774 JUMP JUMPDEST SWAP3 SWAP2 POP POP JUMP JUMPDEST PUSH0 DUP1 PUSH1 0x40 DUP4 DUP6 SUB SLT ISZERO PUSH2 0x27B2 JUMPI PUSH2 0x27B1 PUSH2 0x24D7 JUMP JUMPDEST JUMPDEST PUSH0 DUP4 ADD CALLDATALOAD PUSH8 0xFFFFFFFFFFFFFFFF DUP2 GT ISZERO PUSH2 0x27CF JUMPI PUSH2 0x27CE PUSH2 0x24DB JUMP JUMPDEST JUMPDEST PUSH2 0x27DB DUP6 DUP3 DUP7 ADD PUSH2 0x26CC JUMP JUMPDEST SWAP3 POP POP PUSH1 0x20 DUP4 ADD CALLDATALOAD PUSH8 0xFFFFFFFFFFFFFFFF DUP2 GT ISZERO PUSH2 0x27FC JUMPI PUSH2 0x27FB PUSH2 0x24DB JUMP JUMPDEST JUMPDEST PUSH2 0x2808 DUP6 DUP3 DUP7 ADD PUSH2 0x26CC JUMP JUMPDEST SWAP2 POP POP SWAP3 POP SWAP3 SWAP1 POP JUMP JUMPDEST PUSH2 0x281B DUP2 PUSH2 0x2740 JUMP JUMPDEST DUP2 EQ PUSH2 0x2825 JUMPI PUSH0 DUP1 REVERT JUMPDEST POP JUMP JUMPDEST PUSH0 DUP2 CALLDATALOAD SWAP1 POP PUSH2 0x2836 DUP2 PUSH2 0x2812 JUMP JUMPDEST SWAP3 SWAP2 POP POP JUMP JUMPDEST PUSH0 DUP1 PUSH1 0x40 DUP4 DUP6 SUB SLT ISZERO PUSH2 0x2852 JUMPI PUSH2 0x2851 PUSH2 0x24D7 JUMP JUMPDEST JUMPDEST PUSH0 DUP4 ADD CALLDATALOAD PUSH8 0xFFFFFFFFFFFFFFFF DUP2 GT ISZERO PUSH2 0x286F JUMPI PUSH2 0x286E PUSH2 0x24DB JUMP JUMPDEST JUMPDEST PUSH2 0x287B DUP6 DUP3 DUP7 ADD PUSH2 0x26CC JUMP JUMPDEST SWAP3 POP POP PUSH1 0x20 PUSH2 0x288C DUP6 DUP3 DUP7 ADD PUSH2 0x2828 JUMP JUMPDEST SWAP2 POP POP SWAP3 POP SWAP3 SWAP1 POP JUMP JUMPDEST PUSH32 0x4E487B7100000000000000000000000000000000000000000000000000000000 PUSH0 MSTORE PUSH1 0x22 PUSH1 0x4 MSTORE PUSH1 0x24 PUSH0 REVERT JUMPDEST PUSH0 PUSH1 0x2 DUP3 DIV SWAP1 POP PUSH1 0x1 DUP3 AND DUP1 PUSH2 0x28DA JUMPI PUSH1 0x7F DUP3 AND SWAP2 POP JUMPDEST PUSH1 0x20 DUP3 LT DUP2 SUB PUSH2 0x28ED JUMPI PUSH2 0x28EC PUSH2 0x2896 JUMP JUMPDEST JUMPDEST POP SWAP2 SWAP1 POP JUMP JUMPDEST PUSH0 DUP2 SWAP1 POP SWAP3 SWAP2 POP POP JUMP JUMPDEST PUSH0 PUSH2 0x2907 DUP3 PUSH2 0x253D JUMP JUMPDEST PUSH2 0x2911 DUP2 DUP6 PUSH2 0x28F3 JUMP JUMPDEST SWAP4 POP PUSH2 0x2921 DUP2 DUP6 PUSH1 0x20 DUP7 ADD PUSH2 0x2557 JUMP JUMPDEST DUP1 DUP5 ADD SWAP2 POP POP SWAP3 SWAP2 POP POP JUMP JUMPDEST PUSH0 PUSH2 0x2938 DUP3 DUP5 PUSH2 0x28FD JUMP JUMPDEST SWAP2 POP DUP2 SWAP1 POP SWAP3 SWAP2 POP POP JUMP JUMPDEST PUSH32 0x47616D6573206973206E6F742061637469766500000000000000000000000000 PUSH0 DUP3 ADD MSTORE POP JUMP JUMPDEST PUSH0 PUSH2 0x2977 PUSH1 0x13 DUP4 PUSH2 0x2547 JUMP JUMPDEST SWAP2 POP PUSH2 0x2982 DUP3 PUSH2 0x2943 JUMP JUMPDEST PUSH1 0x20 DUP3 ADD SWAP1 POP SWAP2 SWAP1 POP JUMP JUMPDEST PUSH0 PUSH1 0x20 DUP3 ADD SWAP1 POP DUP2 DUP2 SUB PUSH0 DUP4 ADD MSTORE PUSH2 0x29A4 DUP2 PUSH2 0x296B JUMP JUMPDEST SWAP1 POP SWAP2 SWAP1 POP JUMP JUMPDEST PUSH32 0x4E487B7100000000000000000000000000000000000000000000000000000000 PUSH0 MSTORE PUSH1 0x11 PUSH1 0x4 MSTORE PUSH1 0x24 PUSH0 REVERT JUMPDEST PUSH0 PUSH2 0x29E2 DUP3 PUSH2 0x2740 JUMP JUMPDEST SWAP2 POP PUSH2 0x29ED DUP4 PUSH2 0x2740 JUMP JUMPDEST SWAP3 POP DUP3 DUP3 SUB SWAP1 POP PUSH1 0xFF DUP2 GT ISZERO PUSH2 0x2A06 JUMPI PUSH2 0x2A05 PUSH2 0x29AB JUMP JUMPDEST JUMPDEST SWAP3 SWAP2 POP POP JUMP JUMPDEST PUSH32 0x4E487B7100000000000000000000000000000000000000000000000000000000 PUSH0 MSTORE PUSH1 0x32 PUSH1 0x4 MSTORE PUSH1 0x24 PUSH0 REVERT JUMPDEST PUSH32 0x4E6F206D6F726520706C617965727320736C6F747320617661696C61626C6500 PUSH0 DUP3 ADD MSTORE POP JUMP JUMPDEST PUSH0 PUSH2 0x2A6D PUSH1 0x1F DUP4 PUSH2 0x2547 JUMP JUMPDEST SWAP2 POP PUSH2 0x2A78 DUP3 PUSH2 0x2A39 JUMP JUMPDEST PUSH1 0x20 DUP3 ADD SWAP1 POP SWAP2 SWAP1 POP JUMP JUMPDEST PUSH0 PUSH1 0x20 DUP3 ADD SWAP1 POP DUP2 DUP2 SUB PUSH0 DUP4 ADD MSTORE PUSH2 0x2A9A DUP2 PUSH2 0x2A61 JUMP JUMPDEST SWAP1 POP SWAP2 SWAP1 POP JUMP JUMPDEST PUSH32 0x416C726561647920696E207468652067616D6500000000000000000000000000 PUSH0 DUP3 ADD MSTORE POP JUMP JUMPDEST PUSH0 PUSH2 0x2AD5 PUSH1 0x13 DUP4 PUSH2 0x2547 JUMP JUMPDEST SWAP2 POP PUSH2 0x2AE0 DUP3 PUSH2 0x2AA1 JUMP JUMPDEST PUSH1 0x20 DUP3 ADD SWAP1 POP SWAP2 SWAP1 POP JUMP JUMPDEST PUSH0 PUSH1 0x20 DUP3 ADD SWAP1 POP DUP2 DUP2 SUB PUSH0 DUP4 ADD MSTORE PUSH2 0x2B02 DUP2 PUSH2 0x2AC9 JUMP JUMPDEST SWAP1 POP SWAP2 SWAP1 POP JUMP JUMPDEST PUSH32 0x596F7520617265206E6F74206120706C61796572206F6620746869732067616D PUSH0 DUP3 ADD MSTORE PUSH32 0x6500000000000000000000000000000000000000000000000000000000000000 PUSH1 0x20 DUP3 ADD MSTORE POP JUMP JUMPDEST PUSH0 PUSH2 0x2B63 PUSH1 0x21 DUP4 PUSH2 0x2547 JUMP JUMPDEST SWAP2 POP PUSH2 0x2B6E DUP3 PUSH2 0x2B09 JUMP JUMPDEST PUSH1 0x40 DUP3 ADD SWAP1 POP SWAP2 SWAP1 POP JUMP JUMPDEST PUSH0 PUSH1 0x20 DUP3 ADD SWAP1 POP DUP2 DUP2 SUB PUSH0 DUP4 ADD MSTORE PUSH2 0x2B90 DUP2 PUSH2 0x2B57 JUMP JUMPDEST SWAP1 POP SWAP2 SWAP1 POP JUMP JUMPDEST PUSH32 0x596F7520616C726561647920766F746564000000000000000000000000000000 PUSH0 DUP3 ADD MSTORE POP JUMP JUMPDEST PUSH0 PUSH2 0x2BCB PUSH1 0x11 DUP4 PUSH2 0x2547 JUMP JUMPDEST SWAP2 POP PUSH2 0x2BD6 DUP3 PUSH2 0x2B97 JUMP JUMPDEST PUSH1 0x20 DUP3 ADD SWAP1 POP SWAP2 SWAP1 POP JUMP JUMPDEST PUSH0 PUSH1 0x20 DUP3 ADD SWAP1 POP DUP2 DUP2 SUB PUSH0 DUP4 ADD MSTORE PUSH2 0x2BF8 DUP2 PUSH2 0x2BBF JUMP JUMPDEST SWAP1 POP SWAP2 SWAP1 POP JUMP JUMPDEST PUSH32 0x4C6574746572206D75737420626520696E20412D5A20612D7A00000000000000 PUSH0 DUP3 ADD MSTORE POP JUMP JUMPDEST PUSH0 PUSH2 0x2C33 PUSH1 0x19 DUP4 PUSH2 0x2547 JUMP JUMPDEST SWAP2 POP PUSH2 0x2C3E DUP3 PUSH2 0x2BFF JUMP JUMPDEST PUSH1 0x20 DUP3 ADD SWAP1 POP SWAP2 SWAP1 POP JUMP JUMPDEST PUSH0 PUSH1 0x20 DUP3 ADD SWAP1 POP DUP2 DUP2 SUB PUSH0 DUP4 ADD MSTORE PUSH2 0x2C60 DUP2 PUSH2 0x2C27 JUMP JUMPDEST SWAP1 POP SWAP2 SWAP1 POP JUMP JUMPDEST PUSH32 0x4C65747465722068617320616C7265616479206265656E206775657373656400 PUSH0 DUP3 ADD MSTORE POP JUMP JUMPDEST PUSH0 PUSH2 0x2C9B PUSH1 0x1F DUP4 PUSH2 0x2547 JUMP JUMPDEST SWAP2 POP PUSH2 0x2CA6 DUP3 PUSH2 0x2C67 JUMP JUMPDEST PUSH1 0x20 DUP3 ADD SWAP1 POP SWAP2 SWAP1 POP JUMP JUMPDEST PUSH0 PUSH1 0x20 DUP3 ADD SWAP1 POP DUP2 DUP2 SUB PUSH0 DUP4 ADD MSTORE PUSH2 0x2CC8 DUP2 PUSH2 0x2C8F JUMP JUMPDEST SWAP1 POP SWAP2 SWAP1 POP JUMP JUMPDEST PUSH0 PUSH2 0x2CD9 DUP3 PUSH2 0x24DF JUMP JUMPDEST SWAP2 POP PUSH2 0x2CE4 DUP4 PUSH2 0x24DF JUMP JUMPDEST SWAP3 POP DUP3 DUP3 SUB SWAP1 POP DUP2 DUP2 GT ISZERO PUSH2 0x2CFC JUMPI PUSH2 0x2CFB PUSH2 0x29AB JUMP JUMPDEST JUMPDEST SWAP3 SWAP2 POP POP JUMP JUMPDEST PUSH32 0x4E6F2061637469766520766F7465000000000000000000000000000000000000 PUSH0 DUP3 ADD MSTORE POP JUMP JUMPDEST PUSH0 PUSH2 0x2D36 PUSH1 0xE DUP4 PUSH2 0x2547 JUMP JUMPDEST SWAP2 POP PUSH2 0x2D41 DUP3 PUSH2 0x2D02 JUMP JUMPDEST PUSH1 0x20 DUP3 ADD SWAP1 POP SWAP2 SWAP1 POP JUMP JUMPDEST PUSH0 PUSH1 0x20 DUP3 ADD SWAP1 POP DUP2 DUP2 SUB PUSH0 DUP4 ADD MSTORE PUSH2 0x2D63 DUP2 PUSH2 0x2D2A JUMP JUMPDEST SWAP1 POP SWAP2 SWAP1 POP JUMP JUMPDEST PUSH32 0x566F7465206475726174696F6E20686173206E6F7420656C6170736564000000 PUSH0 DUP3 ADD MSTORE POP JUMP JUMPDEST PUSH0 PUSH2 0x2D9E PUSH1 0x1D DUP4 PUSH2 0x2547 JUMP JUMPDEST SWAP2 POP PUSH2 0x2DA9 DUP3 PUSH2 0x2D6A JUMP JUMPDEST PUSH1 0x20 DUP3 ADD SWAP1 POP SWAP2 SWAP1 POP JUMP JUMPDEST PUSH0 PUSH1 0x20 DUP3 ADD SWAP1 POP DUP2 DUP2 SUB PUSH0 DUP4 ADD MSTORE PUSH2 0x2DCB DUP2 PUSH2 0x2D92 JUMP JUMPDEST SWAP1 POP SWAP2 SWAP1 POP JUMP JUMPDEST PUSH32 0x4F6E6C792067616D652063726561746F722063616E2064656C65746520746865 PUSH0 DUP3 ADD MSTORE PUSH32 0x2067616D65000000000000000000000000000000000000000000000000000000 PUSH1 0x20 DUP3 ADD MSTORE POP JUMP JUMPDEST PUSH0 PUSH2 0x2E2C PUSH1 0x25 DUP4 PUSH2 0x2547 JUMP JUMPDEST SWAP2 POP PUSH2 0x2E37 DUP3 PUSH2 0x2DD2 JUMP JUMPDEST PUSH1 0x40 DUP3 ADD SWAP1 POP SWAP2 SWAP1 POP JUMP JUMPDEST PUSH0 PUSH1 0x20 DUP3 ADD SWAP1 POP DUP2 DUP2 SUB PUSH0 DUP4 ADD MSTORE PUSH2 0x2E59 DUP2 PUSH2 0x2E20 JUMP JUMPDEST SWAP1 POP SWAP2 SWAP1 POP JUMP JUMPDEST PUSH32 0x412067616D652077697468207468652063686F73656E20494420616C72656164 PUSH0 DUP3 ADD MSTORE PUSH32 0x7920657869737473000000000000000000000000000000000000000000000000 PUSH1 0x20 DUP3 ADD MSTORE POP JUMP JUMPDEST PUSH0 PUSH2 0x2EBA PUSH1 0x28 DUP4 PUSH2 0x2547 JUMP JUMPDEST SWAP2 POP PUSH2 0x2EC5 DUP3 PUSH2 0x2E60 JUMP JUMPDEST PUSH1 0x40 DUP3 ADD SWAP1 POP SWAP2 SWAP1 POP JUMP JUMPDEST PUSH0 PUSH1 0x20 DUP3 ADD SWAP1 POP DUP2 DUP2 SUB PUSH0 DUP4 ADD MSTORE PUSH2 0x2EE7 DUP2 PUSH2 0x2EAE JUMP JUMPDEST SWAP1 POP SWAP2 SWAP1 POP JUMP JUMPDEST PUSH32 0x4174206C65617374206F6E6520706C6179657220726571756972656420616E64 PUSH0 DUP3 ADD MSTORE PUSH32 0x206174206D6F7374204D41585F504C415945525320616C6C6F77656400000000 PUSH1 0x20 DUP3 ADD MSTORE POP JUMP JUMPDEST PUSH0 PUSH2 0x2F48 PUSH1 0x3C DUP4 PUSH2 0x2547 JUMP JUMPDEST SWAP2 POP PUSH2 0x2F53 DUP3 PUSH2 0x2EEE JUMP JUMPDEST PUSH1 0x40 DUP3 ADD SWAP1 POP SWAP2 SWAP1 POP JUMP JUMPDEST PUSH0 PUSH1 0x20 DUP3 ADD SWAP1 POP DUP2 DUP2 SUB PUSH0 DUP4 ADD MSTORE PUSH2 0x2F75 DUP2 PUSH2 0x2F3C JUMP JUMPDEST SWAP1 POP SWAP2 SWAP1 POP JUMP JUMPDEST PUSH32 0x4E6F20667265652067616D6520736C6F7420617661696C61626C650000000000 PUSH0 DUP3 ADD MSTORE POP JUMP JUMPDEST PUSH0 PUSH2 0x2FB0 PUSH1 0x1B DUP4 PUSH2 0x2547 JUMP JUMPDEST SWAP2 POP PUSH2 0x2FBB DUP3 PUSH2 0x2F7C JUMP JUMPDEST PUSH1 0x20 DUP3 ADD SWAP1 POP SWAP2 SWAP1 POP JUMP JUMPDEST PUSH0 PUSH1 0x20 DUP3 ADD SWAP1 POP DUP2 DUP2 SUB PUSH0 DUP4 ADD MSTORE PUSH2 0x2FDD DUP2 PUSH2 0x2FA4 JUMP JUMPDEST SWAP1 POP SWAP2 SWAP1 POP JUMP JUMPDEST PUSH0 DUP2 SWAP1 POP DUP2 PUSH0 MSTORE PUSH1 0x20 PUSH0 KECCAK256 SWAP1 POP SWAP2 SWAP1 POP JUMP JUMPDEST PUSH0 PUSH1 0x20 PUSH1 0x1F DUP4 ADD DIV SWAP1 POP SWAP2 SWAP1 POP JUMP JUMPDEST PUSH0 DUP3 DUP3 SHL SWAP1 POP SWAP3 SWAP2 POP POP JUMP JUMPDEST PUSH0 PUSH1 0x8 DUP4 MUL PUSH2 0x3040 PUSH32 0xFFFFFFFFFFFFFFFFFFFFFFFFFFFFFFFFFFFFFFFFFFFFFFFFFFFFFFFFFFFFFFFF DUP3 PUSH2 0x3005 JUMP JUMPDEST PUSH2 0x304A DUP7 DUP4 PUSH2 0x3005 JUMP JUMPDEST SWAP6 POP DUP1 NOT DUP5 AND SWAP4 POP DUP1 DUP7 AND DUP5 OR SWAP3 POP POP POP SWAP4 SWAP3 POP POP POP JUMP JUMPDEST PUSH0 DUP2 SWAP1 POP SWAP2 SWAP1 POP JUMP JUMPDEST PUSH0 PUSH2 0x3085 PUSH2 0x3080 PUSH2 0x307B DUP5 PUSH2 0x24DF JUMP JUMPDEST PUSH2 0x3062 JUMP JUMPDEST PUSH2 0x24DF JUMP JUMPDEST SWAP1 POP SWAP2 SWAP1 POP JUMP JUMPDEST PUSH0 DUP2 SWAP1 POP SWAP2 SWAP1 POP JUMP JUMPDEST PUSH2 0x309E DUP4 PUSH2 0x306B JUMP JUMPDEST PUSH2 0x30B2 PUSH2 0x30AA DUP3 PUSH2 0x308C JUMP JUMPDEST DUP5 DUP5 SLOAD PUSH2 0x3011 JUMP JUMPDEST DUP3 SSTORE POP POP POP POP JUMP JUMPDEST PUSH0 SWAP1 JUMP JUMPDEST PUSH2 0x30C6 PUSH2 0x30BA JUMP JUMPDEST PUSH2 0x30D1 DUP2 DUP5 DUP5 PUSH2 0x3095 JUMP JUMPDEST POP POP POP JUMP JUMPDEST JUMPDEST DUP2 DUP2 LT ISZERO PUSH2 0x30F4 JUMPI PUSH2 0x30E9 PUSH0 DUP3 PUSH2 0x30BE JUMP JUMPDEST PUSH1 0x1 DUP2 ADD SWAP1 POP PUSH2 0x30D7 JUMP JUMPDEST POP POP JUMP JUMPDEST PUSH1 0x1F DUP3 GT ISZERO PUSH2 0x3139 JUMPI PUSH2 0x310A DUP2 PUSH2 0x2FE4 JUMP JUMPDEST PUSH2 0x3113 DUP5 PUSH2 0x2FF6 JUMP JUMPDEST DUP2 ADD PUSH1 0x20 DUP6 LT ISZERO PUSH2 0x3122 JUMPI DUP2 SWAP1 POP JUMPDEST PUSH2 0x3136 PUSH2 0x312E DUP6 PUSH2 0x2FF6 JUMP JUMPDEST DUP4 ADD DUP3 PUSH2 0x30D6 JUMP JUMPDEST POP POP JUMPDEST POP POP POP JUMP JUMPDEST PUSH0 DUP3 DUP3 SHR SWAP1 POP SWAP3 SWAP2 POP POP JUMP JUMPDEST PUSH0 PUSH2 0x3159 PUSH0 NOT DUP5 PUSH1 0x8 MUL PUSH2 0x313E JUMP JUMPDEST NOT DUP1 DUP4 AND SWAP2 POP POP SWAP3 SWAP2 POP POP JUMP JUMPDEST PUSH0 PUSH2 0x3171 DUP4 DUP4 PUSH2 0x314A JUMP JUMPDEST SWAP2 POP DUP3 PUSH1 0x2 MUL DUP3 OR SWAP1 POP SWAP3 SWAP2 POP POP JUMP JUMPDEST PUSH2 0x318A DUP3 PUSH2 0x253D JUMP JUMPDEST PUSH8 0xFFFFFFFFFFFFFFFF DUP2 GT ISZERO PUSH2 0x31A3 JUMPI PUSH2 0x31A2 PUSH2 0x25D5 JUMP JUMPDEST JUMPDEST PUSH2 0x31AD DUP3 SLOAD PUSH2 0x28C3 JUMP JUMPDEST PUSH2 0x31B8 DUP3 DUP3 DUP6 PUSH2 0x30F8 JUMP JUMPDEST PUSH0 PUSH1 0x20 SWAP1 POP PUSH1 0x1F DUP4 GT PUSH1 0x1 DUP2 EQ PUSH2 0x31E9 JUMPI PUSH0 DUP5 ISZERO PUSH2 0x31D7 JUMPI DUP3 DUP8 ADD MLOAD SWAP1 POP JUMPDEST PUSH2 0x31E1 DUP6 DUP3 PUSH2 0x3166 JUMP JUMPDEST DUP7 SSTORE POP PUSH2 0x3248 JUMP JUMPDEST PUSH1 0x1F NOT DUP5 AND PUSH2 0x31F7 DUP7 PUSH2 0x2FE4 JUMP JUMPDEST PUSH0 JUMPDEST DUP3 DUP2 LT ISZERO PUSH2 0x321E JUMPI DUP5 DUP10 ADD MLOAD DUP3 SSTORE PUSH1 0x1 DUP3 ADD SWAP2 POP PUSH1 0x20 DUP6 ADD SWAP5 POP PUSH1 0x20 DUP2 ADD SWAP1 POP PUSH2 0x31F9 JUMP JUMPDEST DUP7 DUP4 LT ISZERO PUSH2 0x323B JUMPI DUP5 DUP10 ADD MLOAD PUSH2 0x3237 PUSH1 0x1F DUP10 AND DUP3 PUSH2 0x314A JUMP JUMPDEST DUP4 SSTORE POP JUMPDEST PUSH1 0x1 PUSH1 0x2 DUP9 MUL ADD DUP9 SSTORE POP POP POP JUMPDEST POP POP POP POP POP POP JUMP JUMPDEST PUSH0 DUP2 SWAP1 POP SWAP2 SWAP1 POP JUMP JUMPDEST PUSH2 0x326A PUSH2 0x3265 DUP3 PUSH2 0x24DF JUMP JUMPDEST PUSH2 0x3250 JUMP JUMPDEST DUP3 MSTORE POP POP JUMP JUMPDEST PUSH0 PUSH20 0xFFFFFFFFFFFFFFFFFFFFFFFFFFFFFFFFFFFFFFFF DUP3 AND SWAP1 POP SWAP2 SWAP1 POP JUMP JUMPDEST PUSH0 PUSH2 0x3299 DUP3 PUSH2 0x3270 JUMP JUMPDEST SWAP1 POP SWAP2 SWAP1 POP JUMP JUMPDEST PUSH0 DUP2 PUSH1 0x60 SHL SWAP1 POP SWAP2 SWAP1 POP JUMP JUMPDEST PUSH0 PUSH2 0x32B6 DUP3 PUSH2 0x32A0 JUMP JUMPDEST SWAP1 POP SWAP2 SWAP1 POP JUMP JUMPDEST PUSH0 PUSH2 0x32C7 DUP3 PUSH2 0x32AC JUMP JUMPDEST SWAP1 POP SWAP2 SWAP1 POP JUMP JUMPDEST PUSH2 0x32DF PUSH2 0x32DA DUP3 PUSH2 0x328F JUMP JUMPDEST PUSH2 0x32BD JUMP JUMPDEST DUP3 MSTORE POP POP JUMP JUMPDEST PUSH0 PUSH2 0x32F0 DUP3 DUP6 PUSH2 0x3259 JUMP JUMPDEST PUSH1 0x20 DUP3 ADD SWAP2 POP PUSH2 0x3300 DUP3 DUP5 PUSH2 0x32CE JUMP JUMPDEST PUSH1 0x14 DUP3 ADD SWAP2 POP DUP2 SWAP1 POP SWAP4 SWAP3 POP POP POP JUMP JUMPDEST PUSH32 0x4E487B7100000000000000000000000000000000000000000000000000000000 PUSH0 MSTORE PUSH1 0x12 PUSH1 0x4 MSTORE PUSH1 0x24 PUSH0 REVERT JUMPDEST PUSH0 PUSH2 0x3347 DUP3 PUSH2 0x24DF JUMP JUMPDEST SWAP2 POP PUSH2 0x3352 DUP4 PUSH2 0x24DF JUMP JUMPDEST SWAP3 POP DUP3 PUSH2 0x3362 JUMPI PUSH2 0x3361 PUSH2 0x3310 JUMP JUMPDEST JUMPDEST DUP3 DUP3 MOD SWAP1 POP SWAP3 SWAP2 POP POP JUMP JUMPDEST PUSH0 DUP2 SLOAD SWAP1 POP PUSH2 0x337B DUP2 PUSH2 0x28C3 JUMP JUMPDEST SWAP1 POP SWAP2 SWAP1 POP JUMP JUMPDEST PUSH0 DUP2 SWAP1 POP DUP2 PUSH0 MSTORE PUSH1 0x20 PUSH0 KECCAK256 SWAP1 POP SWAP2 SWAP1 POP JUMP JUMPDEST DUP2 DUP2 SUB PUSH2 0x33A2 JUMPI POP POP PUSH2 0x3477 JUMP JUMPDEST PUSH2 0x33AB DUP3 PUSH2 0x336D JUMP JUMPDEST PUSH8 0xFFFFFFFFFFFFFFFF DUP2 GT ISZERO PUSH2 0x33C4 JUMPI PUSH2 0x33C3 PUSH2 0x25D5 JUMP JUMPDEST JUMPDEST PUSH2 0x33CE DUP3 SLOAD PUSH2 0x28C3 JUMP JUMPDEST PUSH2 0x33D9 DUP3 DUP3 DUP6 PUSH2 0x30F8 JUMP JUMPDEST PUSH0 PUSH1 0x1F DUP4 GT PUSH1 0x1 DUP2 EQ PUSH2 0x3406 JUMPI PUSH0 DUP5 ISZERO PUSH2 0x33F4 JUMPI DUP3 DUP8 ADD SLOAD SWAP1 POP JUMPDEST PUSH2 0x33FE DUP6 DUP3 PUSH2 0x3166 JUMP JUMPDEST DUP7 SSTORE POP PUSH2 0x3470 JUMP JUMPDEST PUSH1 0x1F NOT DUP5 AND PUSH2 0x3414 DUP8 PUSH2 0x3382 JUMP JUMPDEST SWAP7 POP PUSH2 0x341F DUP7 PUSH2 0x2FE4 JUMP JUMPDEST PUSH0 JUMPDEST DUP3 DUP2 LT ISZERO PUSH2 0x3446 JUMPI DUP5 DUP10 ADD SLOAD DUP3 SSTORE PUSH1 0x1 DUP3 ADD SWAP2 POP PUSH1 0x1 DUP6 ADD SWAP5 POP PUSH1 0x20 DUP2 ADD SWAP1 POP PUSH2 0x3421 JUMP JUMPDEST DUP7 DUP4 LT ISZERO PUSH2 0x3463 JUMPI DUP5 DUP10 ADD SLOAD PUSH2 0x345F PUSH1 0x1F DUP10 AND DUP3 PUSH2 0x314A JUMP JUMPDEST DUP4 SSTORE POP JUMPDEST PUSH1 0x1 PUSH1 0x2 DUP9 MUL ADD DUP9 SSTORE POP POP POP JUMPDEST POP POP POP POP POP POP JUMPDEST JUMP JUMPDEST PUSH0 PUSH2 0x3483 DUP3 PUSH2 0x2740 JUMP JUMPDEST SWAP2 POP PUSH2 0x348E DUP4 PUSH2 0x2740 JUMP JUMPDEST SWAP3 POP DUP3 DUP3 ADD SWAP1 POP PUSH1 0xFF DUP2 GT ISZERO PUSH2 0x34A7 JUMPI PUSH2 0x34A6 PUSH2 0x29AB JUMP JUMPDEST JUMPDEST SWAP3 SWAP2 POP POP JUMP JUMPDEST PUSH0 DUP2 SLOAD PUSH2 0x34B9 DUP2 PUSH2 0x28C3 JUMP JUMPDEST PUSH2 0x34C3 DUP2 DUP7 PUSH2 0x28F3 JUMP JUMPDEST SWAP5 POP PUSH1 0x1 DUP3 AND PUSH0 DUP2 EQ PUSH2 0x34DD JUMPI PUSH1 0x1 DUP2 EQ PUSH2 0x34F2 JUMPI PUSH2 0x3524 JUMP JUMPDEST PUSH1 0xFF NOT DUP4 AND DUP7 MSTORE DUP2 ISZERO ISZERO DUP3 MUL DUP7 ADD SWAP4 POP PUSH2 0x3524 JUMP JUMPDEST PUSH2 0x34FB DUP6 PUSH2 0x3382 JUMP JUMPDEST PUSH0 JUMPDEST DUP4 DUP2 LT ISZERO PUSH2 0x351C JUMPI DUP2 SLOAD DUP2 DUP10 ADD MSTORE PUSH1 0x1 DUP3 ADD SWAP2 POP PUSH1 0x20 DUP2 ADD SWAP1 POP PUSH2 0x34FD JUMP JUMPDEST DUP4 DUP9 ADD SWAP6 POP POP POP JUMPDEST POP POP POP SWAP3 SWAP2 POP POP JUMP JUMPDEST PUSH0 PUSH2 0x3538 DUP3 DUP5 PUSH2 0x34AD JUMP JUMPDEST SWAP2 POP DUP2 SWAP1 POP SWAP3 SWAP2 POP POP JUMP JUMPDEST PUSH0 DUP2 SLOAD PUSH2 0x354F DUP2 PUSH2 0x28C3 JUMP JUMPDEST PUSH2 0x3559 DUP2 DUP7 PUSH2 0x2547 JUMP JUMPDEST SWAP5 POP PUSH1 0x1 DUP3 AND PUSH0 DUP2 EQ PUSH2 0x3573 JUMPI PUSH1 0x1 DUP2 EQ PUSH2 0x3589 JUMPI PUSH2 0x35BB JUMP JUMPDEST PUSH1 0xFF NOT DUP4 AND DUP7 MSTORE DUP2 ISZERO ISZERO PUSH1 0x20 MUL DUP7 ADD SWAP4 POP PUSH2 0x35BB JUMP JUMPDEST PUSH2 0x3592 DUP6 PUSH2 0x3382 JUMP JUMPDEST PUSH0 JUMPDEST DUP4 DUP2 LT ISZERO PUSH2 0x35B3 JUMPI DUP2 SLOAD DUP2 DUP10 ADD MSTORE PUSH1 0x1 DUP3 ADD SWAP2 POP PUSH1 0x20 DUP2 ADD SWAP1 POP PUSH2 0x3594 JUMP JUMPDEST DUP1 DUP9 ADD SWAP6 POP POP POP JUMPDEST POP POP POP SWAP3 SWAP2 POP POP JUMP JUMPDEST PUSH0 PUSH32 0xFF00000000000000000000000000000000000000000000000000000000000000 DUP3 AND SWAP1 POP SWAP2 SWAP1 POP JUMP JUMPDEST PUSH2 0x35F8 DUP2 PUSH2 0x35C4 JUMP JUMPDEST DUP3 MSTORE POP POP JUMP JUMPDEST PUSH0 PUSH1 0x40 DUP3 ADD SWAP1 POP DUP2 DUP2 SUB PUSH0 DUP4 ADD MSTORE PUSH2 0x3616 DUP2 DUP6 PUSH2 0x3543 JUMP JUMPDEST SWAP1 POP PUSH2 0x3625 PUSH1 0x20 DUP4 ADD DUP5 PUSH2 0x35EF JUMP JUMPDEST SWAP4 SWAP3 POP POP POP JUMP JUMPDEST PUSH0 DUP2 SLOAD PUSH2 0x3638 DUP2 PUSH2 0x28C3 JUMP JUMPDEST PUSH2 0x3642 DUP2 DUP7 PUSH2 0x28F3 JUMP JUMPDEST SWAP5 POP PUSH1 0x1 DUP3 AND PUSH0 DUP2 EQ PUSH2 0x365C JUMPI PUSH1 0x1 DUP2 EQ PUSH2 0x3671 JUMPI PUSH2 0x36A3 JUMP JUMPDEST PUSH1 0xFF NOT DUP4 AND DUP7 MSTORE DUP2 ISZERO ISZERO DUP3 MUL DUP7 ADD SWAP4 POP PUSH2 0x36A3 JUMP JUMPDEST PUSH2 0x367A DUP6 PUSH2 0x2FE4 JUMP JUMPDEST PUSH0 JUMPDEST DUP4 DUP2 LT ISZERO PUSH2 0x369B JUMPI DUP2 SLOAD DUP2 DUP10 ADD MSTORE PUSH1 0x1 DUP3 ADD SWAP2 POP PUSH1 0x20 DUP2 ADD SWAP1 POP PUSH2 0x367C JUMP JUMPDEST DUP4 DUP9 ADD SWAP6 POP POP POP JUMPDEST POP POP POP SWAP3 SWAP2 POP POP JUMP JUMPDEST PUSH0 PUSH2 0x36B7 DUP3 DUP5 PUSH2 0x362C JUMP JUMPDEST SWAP2 POP DUP2 SWAP1 POP SWAP3 SWAP2 POP POP JUMP JUMPDEST PUSH0 DUP2 ISZERO ISZERO SWAP1 POP SWAP2 SWAP1 POP JUMP JUMPDEST PUSH2 0x36D6 DUP2 PUSH2 0x36C2 JUMP JUMPDEST DUP3 MSTORE POP POP JUMP JUMPDEST PUSH0 PUSH1 0x60 DUP3 ADD SWAP1 POP PUSH2 0x36EF PUSH0 DUP4 ADD DUP7 PUSH2 0x35EF JUMP JUMPDEST DUP2 DUP2 SUB PUSH1 0x20 DUP4 ADD MSTORE PUSH2 0x3701 DUP2 DUP6 PUSH2 0x2575 JUMP JUMPDEST SWAP1 POP PUSH2 0x3710 PUSH1 0x40 DUP4 ADD DUP5 PUSH2 0x36CD JUMP JUMPDEST SWAP5 SWAP4 POP POP POP POP JUMP JUMPDEST PUSH32 0x4E487B7100000000000000000000000000000000000000000000000000000000 PUSH0 MSTORE PUSH1 0x21 PUSH1 0x4 MSTORE PUSH1 0x24 PUSH0 REVERT JUMPDEST PUSH1 0x3 DUP2 LT PUSH2 0x3756 JUMPI PUSH2 0x3755 PUSH2 0x3718 JUMP JUMPDEST JUMPDEST POP JUMP JUMPDEST PUSH0 DUP2 SWAP1 POP PUSH2 0x3766 DUP3 PUSH2 0x3745 JUMP JUMPDEST SWAP2 SWAP1 POP JUMP JUMPDEST PUSH0 PUSH2 0x3775 DUP3 PUSH2 0x3759 JUMP JUMPDEST SWAP1 POP SWAP2 SWAP1 POP JUMP JUMPDEST PUSH2 0x3785 DUP2 PUSH2 0x376B JUMP JUMPDEST DUP3 MSTORE POP POP JUMP JUMPDEST PUSH0 DUP2 SLOAD PUSH2 0x3797 DUP2 PUSH2 0x28C3 JUMP JUMPDEST PUSH2 0x37A1 DUP2 DUP7 PUSH2 0x2547 JUMP JUMPDEST SWAP5 POP PUSH1 0x1 DUP3 AND PUSH0 DUP2 EQ PUSH2 0x37BB JUMPI PUSH1 0x1 DUP2 EQ PUSH2 0x37D1 JUMPI PUSH2 0x3803 JUMP JUMPDEST PUSH1 0xFF NOT DUP4 AND DUP7 MSTORE DUP2 ISZERO ISZERO PUSH1 0x20 MUL DUP7 ADD SWAP4 POP PUSH2 0x3803 JUMP JUMPDEST PUSH2 0x37DA DUP6 PUSH2 0x2FE4 JUMP JUMPDEST PUSH0 JUMPDEST DUP4 DUP2 LT ISZERO PUSH2 0x37FB JUMPI DUP2 SLOAD DUP2 DUP10 ADD MSTORE PUSH1 0x1 DUP3 ADD SWAP2 POP PUSH1 0x20 DUP2 ADD SWAP1 POP PUSH2 0x37DC JUMP JUMPDEST DUP1 DUP9 ADD SWAP6 POP POP POP JUMPDEST POP POP POP SWAP3 SWAP2 POP POP JUMP JUMPDEST PUSH0 PUSH1 0x40 DUP3 ADD SWAP1 POP PUSH2 0x381F PUSH0 DUP4 ADD DUP6 PUSH2 0x377C JUMP JUMPDEST DUP2 DUP2 SUB PUSH1 0x20 DUP4 ADD MSTORE PUSH2 0x3831 DUP2 DUP5 PUSH2 0x378B JUMP JUMPDEST SWAP1 POP SWAP4 SWAP3 POP POP POP JUMP JUMPDEST PUSH0 PUSH2 0x3844 DUP3 PUSH2 0x2740 JUMP JUMPDEST SWAP2 POP PUSH1 0xFF DUP3 SUB PUSH2 0x3857 JUMPI PUSH2 0x3856 PUSH2 0x29AB JUMP JUMPDEST JUMPDEST PUSH1 0x1 DUP3 ADD SWAP1 POP SWAP2 SWAP1 POP JUMP INVALID LOG2 PUSH5 0x6970667358 0x22 SLT KECCAK256 PUSH16 0x247534F263093368DCA45AAF4283D532 EXTCODESIZE 0xD3 0xBC 0xD6 DIV PUSH15 0xC2A64B808844757AAF64736F6C6343 STOP ADDMOD BYTE STOP CALLER "
				},
				"gasEstimates": {
					"creation": {
						"codeDepositCost": "2897600",
						"executionCost": "infinite",
						"totalCost": "infinite"
					},
					"external": {
						"INACTIVITY_THRESHOLD()": "370",
						"MAX_GAMES()": "398",
						"MAX_GUESSES()": "420",
						"MAX_PLAYERS()": "376",
						"VOTING_DURATION()": "436",
						"WORDS(uint256)": "infinite",
						"createGame(string,uint8)": "infinite",
						"deleteGame(string)": "infinite",
						"endVote(string)": "infinite",
						"getGameIndex(string)": "infinite",
						"joinGame(string)": "infinite",
						"leaveGame(string)": "infinite",
						"voteForLetter(string,string)": "infinite"
					},
					"internal": {
						"_addPlayerToGame(struct Hangman.Game storage pointer,address)": "infinite",
						"_allocateGame()": "infinite",
						"_endGame(struct Hangman.Game storage pointer,enum Hangman.GameResult)": "infinite",
						"_endVote(struct Hangman.Game storage pointer)": "infinite",
						"_registerVote(string storage pointer,struct Hangman.Vote storage pointer,address,bytes1)": "infinite",
						"_removePlayerFromGame(struct Hangman.Game storage pointer,address)": "infinite",
						"_unregisterVote(string storage pointer,struct Hangman.Vote storage pointer,address)": "infinite"
					}
				},
				"methodIdentifiers": {
					"INACTIVITY_THRESHOLD()": "aa4103e2",
					"MAX_GAMES()": "4fd01913",
					"MAX_GUESSES()": "684d4678",
					"MAX_PLAYERS()": "4411b3eb",
					"VOTING_DURATION()": "a438d208",
					"WORDS(uint256)": "0f1ad663",
					"createGame(string,uint8)": "e565c835",
					"deleteGame(string)": "d5c68ab2",
					"endVote(string)": "d19e39f0",
					"getGameIndex(string)": "a8010c4e",
					"joinGame(string)": "3d536a2e",
					"leaveGame(string)": "c22a95f1",
					"voteForLetter(string,string)": "b3914f32"
				}
			},
			"storageLayout": {
				"storage": [
					{
						"astId": 25,
						"contract": "contracts/hangman.sol:Hangman",
						"label": "WORDS",
						"offset": 0,
						"slot": "0",
						"type": "t_array(t_string_storage)dyn_storage"
					},
					{
						"astId": 82,
						"contract": "contracts/hangman.sol:Hangman",
						"label": "games",
						"offset": 0,
						"slot": "1",
						"type": "t_array(t_struct(Game)54_storage)5_storage"
					},
					{
						"astId": 86,
						"contract": "contracts/hangman.sol:Hangman",
						"label": "getGameIndex",
						"offset": 0,
						"slot": "91",
						"type": "t_mapping(t_string_memory_ptr,t_uint8)"
					}
				],
				"types": {
					"t_address": {
						"encoding": "inplace",
						"label": "address",
						"numberOfBytes": "20"
					},
					"t_array(t_address)5_storage": {
						"base": "t_address",
						"encoding": "inplace",
						"label": "address[5]",
						"numberOfBytes": "160"
					},
					"t_array(t_bool)dyn_storage": {
						"base": "t_bool",
						"encoding": "dynamic_array",
						"label": "bool[]",
						"numberOfBytes": "32"
					},
					"t_array(t_string_storage)dyn_storage": {
						"base": "t_string_storage",
						"encoding": "dynamic_array",
						"label": "string[]",
						"numberOfBytes": "32"
					},
					"t_array(t_struct(Game)54_storage)5_storage": {
						"base": "t_struct(Game)54_storage",
						"encoding": "inplace",
						"label": "struct Hangman.Game[5]",
						"numberOfBytes": "2880"
					},
					"t_bool": {
						"encoding": "inplace",
						"label": "bool",
						"numberOfBytes": "1"
					},
					"t_bytes1": {
						"encoding": "inplace",
						"label": "bytes1",
						"numberOfBytes": "1"
					},
					"t_mapping(t_address,t_bool)": {
						"encoding": "mapping",
						"key": "t_address",
						"label": "mapping(address => bool)",
						"numberOfBytes": "32",
						"value": "t_bool"
					},
					"t_mapping(t_address,t_bytes1)": {
						"encoding": "mapping",
						"key": "t_address",
						"label": "mapping(address => bytes1)",
						"numberOfBytes": "32",
						"value": "t_bytes1"
					},
					"t_mapping(t_bytes1,t_bool)": {
						"encoding": "mapping",
						"key": "t_bytes1",
						"label": "mapping(bytes1 => bool)",
						"numberOfBytes": "32",
						"value": "t_bool"
					},
					"t_mapping(t_bytes1,t_uint8)": {
						"encoding": "mapping",
						"key": "t_bytes1",
						"label": "mapping(bytes1 => uint8)",
						"numberOfBytes": "32",
						"value": "t_uint8"
					},
					"t_mapping(t_string_memory_ptr,t_uint8)": {
						"encoding": "mapping",
						"key": "t_string_memory_ptr",
						"label": "mapping(string => uint8)",
						"numberOfBytes": "32",
						"value": "t_uint8"
					},
					"t_string_memory_ptr": {
						"encoding": "bytes",
						"label": "string",
						"numberOfBytes": "32"
					},
					"t_string_storage": {
						"encoding": "bytes",
						"label": "string",
						"numberOfBytes": "32"
					},
					"t_struct(Game)54_storage": {
						"encoding": "inplace",
						"label": "struct Hangman.Game",
						"members": [
							{
								"astId": 27,
								"contract": "contracts/hangman.sol:Hangman",
								"label": "gameID",
								"offset": 0,
								"slot": "0",
								"type": "t_string_storage"
							},
							{
								"astId": 29,
								"contract": "contracts/hangman.sol:Hangman",
								"label": "creator",
								"offset": 0,
								"slot": "1",
								"type": "t_address"
							},
							{
								"astId": 31,
								"contract": "contracts/hangman.sol:Hangman",
								"label": "maxPlayers",
								"offset": 20,
								"slot": "1",
								"type": "t_uint8"
							},
							{
								"astId": 33,
								"contract": "contracts/hangman.sol:Hangman",
								"label": "currentPlayers",
								"offset": 21,
								"slot": "1",
								"type": "t_uint8"
							},
							{
								"astId": 37,
								"contract": "contracts/hangman.sol:Hangman",
								"label": "isPlayer",
								"offset": 0,
								"slot": "2",
								"type": "t_mapping(t_address,t_bool)"
							},
							{
								"astId": 39,
								"contract": "contracts/hangman.sol:Hangman",
								"label": "hiddenWord",
								"offset": 0,
								"slot": "3",
								"type": "t_string_storage"
							},
							{
								"astId": 42,
								"contract": "contracts/hangman.sol:Hangman",
								"label": "revealedLetters",
								"offset": 0,
								"slot": "4",
								"type": "t_array(t_bool)dyn_storage"
							},
							{
								"astId": 44,
								"contract": "contracts/hangman.sol:Hangman",
								"label": "guessCount",
								"offset": 0,
								"slot": "5",
								"type": "t_uint8"
							},
							{
								"astId": 48,
								"contract": "contracts/hangman.sol:Hangman",
								"label": "guessedLetters",
								"offset": 0,
								"slot": "6",
								"type": "t_mapping(t_bytes1,t_bool)"
							},
							{
								"astId": 50,
								"contract": "contracts/hangman.sol:Hangman",
								"label": "lastActionTimestamp",
								"offset": 0,
								"slot": "7",
								"type": "t_uint256"
							},
							{
								"astId": 53,
								"contract": "contracts/hangman.sol:Hangman",
								"label": "vote",
								"offset": 0,
								"slot": "8",
								"type": "t_struct(Vote)73_storage"
							}
						],
						"numberOfBytes": "576"
					},
					"t_struct(Vote)73_storage": {
						"encoding": "inplace",
						"label": "struct Hangman.Vote",
						"members": [
							{
								"astId": 56,
								"contract": "contracts/hangman.sol:Hangman",
								"label": "votingActive",
								"offset": 0,
								"slot": "0",
								"type": "t_bool"
							},
							{
								"astId": 58,
								"contract": "contracts/hangman.sol:Hangman",
								"label": "voteStartTimestamp",
								"offset": 0,
								"slot": "1",
								"type": "t_uint256"
							},
							{
								"astId": 60,
								"contract": "contracts/hangman.sol:Hangman",
								"label": "voteCount",
								"offset": 0,
								"slot": "2",
								"type": "t_uint8"
							},
							{
								"astId": 64,
								"contract": "contracts/hangman.sol:Hangman",
								"label": "playersVoted",
								"offset": 0,
								"slot": "3",
								"type": "t_array(t_address)5_storage"
							},
							{
								"astId": 68,
								"contract": "contracts/hangman.sol:Hangman",
								"label": "playerVotes",
								"offset": 0,
								"slot": "8",
								"type": "t_mapping(t_address,t_bytes1)"
							},
							{
								"astId": 72,
								"contract": "contracts/hangman.sol:Hangman",
								"label": "letterCounts",
								"offset": 0,
								"slot": "9",
								"type": "t_mapping(t_bytes1,t_uint8)"
							}
						],
						"numberOfBytes": "320"
					},
					"t_uint256": {
						"encoding": "inplace",
						"label": "uint256",
						"numberOfBytes": "32"
					},
					"t_uint8": {
						"encoding": "inplace",
						"label": "uint8",
						"numberOfBytes": "1"
					}
				}
			},
			"userdoc": {
				"kind": "user",
				"methods": {
					"createGame(string,uint8)": {
						"notice": "Create a new game, if there is space in the games array."
					},
					"deleteGame(string)": {
						"notice": "Deletes an existing game."
					},
					"endVote(string)": {
						"notice": "End a vote in case some players are not voting"
					},
					"joinGame(string)": {
						"notice": "Join an active game."
					},
					"leaveGame(string)": {
						"notice": "Leave the game at any time while its active."
					},
					"voteForLetter(string,string)": {
						"notice": "Vote for a letter in the hangman game."
					}
				},
				"version": 1
			}
		}
	}
}