{
	"data": {
		"bytecode": {
			"linkReferences": {},
			"object": "60806040526040518060a001604052806040518060400160405280600581526020017f4170706c6500000000000000000000000000000000000000000000000000000081525081526020016040518060400160405280600681526020017f42616e616e61000000000000000000000000000000000000000000000000000081525081526020016040518060400160405280600681526020017f436865727279000000000000000000000000000000000000000000000000000081525081526020016040518060400160405280600681526020017f44757269616e000000000000000000000000000000000000000000000000000081525081526020016040518060400160405280600a81526020017f456c6465726265727279000000000000000000000000000000000000000000008152508152505f906005610143929190610155565b5034801561014f575f80fd5b50610530565b828054828255905f5260205f2090810192821561019b579160200282015b8281111561019a57825182908161018a9190610461565b5091602001919060010190610173565b5b5090506101a891906101ac565b5090565b5b808211156101cb575f81816101c291906101cf565b506001016101ad565b5090565b5080546101db9061028b565b5f825580601f106101ec5750610209565b601f0160209004905f5260205f2090810190610208919061020c565b5b50565b5b80821115610223575f815f90555060010161020d565b5090565b5f81519050919050565b7f4e487b71000000000000000000000000000000000000000000000000000000005f52604160045260245ffd5b7f4e487b71000000000000000000000000000000000000000000000000000000005f52602260045260245ffd5b5f60028204905060018216806102a257607f821691505b6020821081036102b5576102b461025e565b5b50919050565b5f819050815f5260205f209050919050565b5f6020601f8301049050919050565b5f82821b905092915050565b5f600883026103177fffffffffffffffffffffffffffffffffffffffffffffffffffffffffffffffff826102dc565b61032186836102dc565b95508019841693508086168417925050509392505050565b5f819050919050565b5f819050919050565b5f61036561036061035b84610339565b610342565b610339565b9050919050565b5f819050919050565b61037e8361034b565b61039261038a8261036c565b8484546102e8565b825550505050565b5f90565b6103a661039a565b6103b1818484610375565b505050565b5b818110156103d4576103c95f8261039e565b6001810190506103b7565b5050565b601f821115610419576103ea816102bb565b6103f3846102cd565b81016020851015610402578190505b61041661040e856102cd565b8301826103b6565b50505b505050565b5f82821c905092915050565b5f6104395f198460080261041e565b1980831691505092915050565b5f610451838361042a565b9150826002028217905092915050565b61046a82610227565b67ffffffffffffffff81111561048357610482610231565b5b61048d825461028b565b6104988282856103d8565b5f60209050601f8311600181146104c9575f84156104b7578287015190505b6104c18582610446565b865550610528565b601f1984166104d7866102bb565b5f5b828110156104fe578489015182556001820191506020850194506020810190506104d9565b8683101561051b5784890151610517601f89168261042a565b8355505b6001600288020188555050505b505050505050565b61365b8061053d5f395ff3fe608060405234801561000f575f80fd5b50600436106100b2575f3560e01c8063a438d2081161006f578063a438d20814610178578063aa4103e214610196578063c22a95f1146101b4578063d19e39f0146101d0578063d5c68ab2146101ec578063e565c83514610208576100b2565b80630f1ad663146100b65780631616c521146100e65780633d536a2e146101025780634411b3eb1461011e5780634fd019131461013c578063684d46781461015a575b5f80fd5b6100d060048036038101906100cb91906122c7565b610224565b6040516100dd9190612362565b60405180910390f35b61010060048036038101906100fb9190612503565b6102c9565b005b61011c6004803603810190610117919061255d565b6107f0565b005b610126610a32565b60405161013391906125bf565b60405180910390f35b610144610a37565b60405161015191906125bf565b60405180910390f35b610162610a3c565b60405161016f91906125bf565b60405180910390f35b610180610a41565b60405161018d91906125e7565b60405180910390f35b61019e610a47565b6040516101ab91906125e7565b60405180910390f35b6101ce60048036038101906101c9919061255d565b610a4d565b005b6101ea60048036038101906101e5919061255d565b610bc4565b005b6102066004803603810190610201919061255d565b610d13565b005b610222600480360381019061021d919061262a565b610ea6565b005b5f8181548110610232575f80fd5b905f5260205f20015f91509050805461024a906126b1565b80601f0160208091040260200160405190810160405280929190818152602001828054610276906126b1565b80156102c15780601f10610298576101008083540402835291602001916102c1565b820191905f5260205f20905b8154815290600101906020018083116102a457829003601f168201915b505050505081565b8160011515605b826040516102de919061271b565b908152602001604051809103902060010160019054906101000a900460ff1615151461033f576040517f08c379a00000000000000000000000000000000000000000000000000000000081526004016103369061277b565b60405180910390fd5b82605b81604051610350919061271b565b90815260200160405180910390206002015f3373ffffffffffffffffffffffffffffffffffffffff1673ffffffffffffffffffffffffffffffffffffffff1681526020019081526020015f205f9054906101000a900460ff166103e8576040517f08c379a00000000000000000000000000000000000000000000000000000000081526004016103df90612809565b60405180910390fd5b5f605b856040516103f9919061271b565b908152602001604051809103902090505f8160080190505f60f81b816008015f3373ffffffffffffffffffffffffffffffffffffffff1673ffffffffffffffffffffffffffffffffffffffff1681526020019081526020015f205f9054906101000a900460f81b7effffffffffffffffffffffffffffffffffffffffffffffffffffffffffffff1916146104c2576040517f08c379a00000000000000000000000000000000000000000000000000000000081526004016104b990612871565b60405180910390fd5b5f7f41000000000000000000000000000000000000000000000000000000000000007effffffffffffffffffffffffffffffffffffffffffffffffffffffffffffff1916867effffffffffffffffffffffffffffffffffffffffffffffffffffffffffffff19161015801561059b57507f5a000000000000000000000000000000000000000000000000000000000000007effffffffffffffffffffffffffffffffffffffffffffffffffffffffffffff1916867effffffffffffffffffffffffffffffffffffffffffffffffffffffffffffff191610155b9050808061067d57507f61000000000000000000000000000000000000000000000000000000000000007effffffffffffffffffffffffffffffffffffffffffffffffffffffffffffff1916867effffffffffffffffffffffffffffffffffffffffffffffffffffffffffffff19161015801561067c57507f7a000000000000000000000000000000000000000000000000000000000000007effffffffffffffffffffffffffffffffffffffffffffffffffffffffffffff1916867effffffffffffffffffffffffffffffffffffffffffffffffffffffffffffff191610155b5b6106bc576040517f08c379a00000000000000000000000000000000000000000000000000000000081526004016106b3906128d9565b60405180910390fd5b80156106d85760208660f81c6106d29190612924565b60f81b95505b826006015f877effffffffffffffffffffffffffffffffffffffffffffffffffffffffffffff19167effffffffffffffffffffffffffffffffffffffffffffffffffffffffffffff191681526020019081526020015f205f9054906101000a900460ff161561077c576040517f08c379a0000000000000000000000000000000000000000000000000000000008152600401610773906129a2565b60405180910390fd5b61078a835f018333896111ca565b42836007018190555061012c8260010154426107a691906129c0565b11806107d857508260010160179054906101000a900460ff1660ff16826002015f9054906101000a900460ff1660ff16145b156107e7576107e68361141d565b5b50505050505050565b8060011515605b82604051610805919061271b565b908152602001604051809103902060010160019054906101000a900460ff16151514610866576040517f08c379a000000000000000000000000000000000000000000000000000000000815260040161085d9061277b565b60405180910390fd5b5f605b83604051610877919061271b565b908152602001604051809103902090508060010160169054906101000a900460ff1660ff168160010160179054906101000a900460ff1660ff16106108f1576040517f08c379a00000000000000000000000000000000000000000000000000000000081526004016108e890612a3d565b60405180910390fd5b806002015f3373ffffffffffffffffffffffffffffffffffffffff1673ffffffffffffffffffffffffffffffffffffffff1681526020019081526020015f205f9054906101000a900460ff161561097d576040517f08c379a000000000000000000000000000000000000000000000000000000000815260040161097490612aa5565b60405180910390fd5b6001816002015f3373ffffffffffffffffffffffffffffffffffffffff1673ffffffffffffffffffffffffffffffffffffffff1681526020019081526020015f205f6101000a81548160ff0219169083151502179055503373ffffffffffffffffffffffffffffffffffffffff16836040516109f9919061271b565b60405180910390207f6426ed08b4816b27e58d721b4ff6fb44e6696b9d5ca257dcbd4b0576eb4dc53960405160405180910390a3505050565b600581565b600581565b600681565b61012c81565b61038481565b8060011515605b82604051610a62919061271b565b908152602001604051809103902060010160019054906101000a900460ff16151514610ac3576040517f08c379a0000000000000000000000000000000000000000000000000000000008152600401610aba9061277b565b60405180910390fd5b81605b81604051610ad4919061271b565b90815260200160405180910390206002015f3373ffffffffffffffffffffffffffffffffffffffff1673ffffffffffffffffffffffffffffffffffffffff1681526020019081526020015f205f9054906101000a900460ff16610b6c576040517f08c379a0000000000000000000000000000000000000000000000000000000008152600401610b6390612809565b60405180910390fd5b5f605b84604051610b7d919061271b565b90815260200160405180910390209050610b9781336118df565b5f8160010160179054906101000a900460ff1660ff1603610bbe57610bbd816002611b2e565b5b50505050565b8060011515605b82604051610bd9919061271b565b908152602001604051809103902060010160019054906101000a900460ff16151514610c3a576040517f08c379a0000000000000000000000000000000000000000000000000000000008152600401610c319061277b565b60405180910390fd5b5f605b83604051610c4b919061271b565b908152602001604051809103902090505f816008019050805f015f9054906101000a900460ff16610cb1576040517f08c379a0000000000000000000000000000000000000000000000000000000008152600401610ca890612b0d565b60405180910390fd5b61012c816001015442610cc491906129c0565b11610d04576040517f08c379a0000000000000000000000000000000000000000000000000000000008152600401610cfb90612b75565b60405180910390fd5b610d0d8261141d565b50505050565b8060011515605b82604051610d28919061271b565b908152602001604051809103902060010160019054906101000a900460ff16151514610d89576040517f08c379a0000000000000000000000000000000000000000000000000000000008152600401610d809061277b565b60405180910390fd5b5f605b83604051610d9a919061271b565b908152602001604051809103902090503373ffffffffffffffffffffffffffffffffffffffff168160010160029054906101000a900473ffffffffffffffffffffffffffffffffffffffff1673ffffffffffffffffffffffffffffffffffffffff161480610e5757505f73ffffffffffffffffffffffffffffffffffffffff168160010160029054906101000a900473ffffffffffffffffffffffffffffffffffffffff1673ffffffffffffffffffffffffffffffffffffffff16145b610e96576040517f08c379a0000000000000000000000000000000000000000000000000000000008152600401610e8d90612c03565b60405180910390fd5b610ea1816002611b2e565b505050565b605b82604051610eb6919061271b565b908152602001604051809103902060010160019054906101000a900460ff1615610f15576040517f08c379a0000000000000000000000000000000000000000000000000000000008152600401610f0c90612c91565b60405180910390fd5b5f8160ff16118015610f2e5750600560ff168160ff1611155b610f6d576040517f08c379a0000000000000000000000000000000000000000000000000000000008152600401610f6490612d1f565b60405180910390fd5b5f610f76611cb2565b9050600560ff168160ff1610610fc1576040517f08c379a0000000000000000000000000000000000000000000000000000000008152600401610fb890612d87565b60405180910390fd5b5f60018260ff1660058110610fd957610fd8612da5565b5b60120201905083815f019081610fef9190612f6f565b5081816001015f6101000a81548160ff021916908360ff160217905550338160010160026101000a81548173ffffffffffffffffffffffffffffffffffffffff021916908373ffffffffffffffffffffffffffffffffffffffff160217905550828160010160166101000a81548160ff021916908360ff1602179055505f42336040516020016110809291906130d3565b604051602081830303815290604052805190602001205f1c90505f8080549050826110ab919061312b565b815481106110bc576110bb612da5565b5b905f5260205f20018260030190816110d49190613182565b508160030180546110e4906126b1565b905067ffffffffffffffff8111156110ff576110fe61238a565b5b60405190808252806020026020018201604052801561112d5781602001602082028036833780820191505090505b50826004019080519060200190611145929190612147565b5042826007018190555060018260010160016101000a81548160ff0219169083151502179055508460405161117a919061271b565b60405180910390207f0a0048d71a81bd0849ad071dd103d646a72b493a92a1cdf4cb7c13cf30f577df856040516111b191906125bf565b60405180910390a26111c38233611d4d565b5050505050565b8183600301846002015f9054906101000a900460ff1660ff16600581106111f4576111f3612da5565b5b015f6101000a81548173ffffffffffffffffffffffffffffffffffffffff021916908373ffffffffffffffffffffffffffffffffffffffff16021790555080836008015f8473ffffffffffffffffffffffffffffffffffffffff1673ffffffffffffffffffffffffffffffffffffffff1681526020019081526020015f205f6101000a81548160ff021916908360f81c02179055506001836009015f837effffffffffffffffffffffffffffffffffffffffffffffffffffffffffffff19167effffffffffffffffffffffffffffffffffffffffffffffffffffffffffffff191681526020019081526020015f205f8282829054906101000a900460ff166112fc9190613267565b92506101000a81548160ff021916908360ff1602179055506001836002015f8282829054906101000a900460ff166113349190613267565b92506101000a81548160ff021916908360ff160217905550825f015f9054906101000a900460ff166113c7576001835f015f6101000a81548160ff02191690831515021790555042836001018190555083604051611392919061331b565b60405180910390207fc39eb03dc11d6bbeb3b818b739e4478f7874c1f803d2e603cc7d7a45045cb68d60405160405180910390a25b8173ffffffffffffffffffffffffffffffffffffffff167fe1be499d3000b42a54f5be9b908b831fbed5da7f8431ee79b82a3fa6d092781e858360405161140f9291906133c1565b60405180910390a250505050565b5f8160080190505f8060f81b90505f600190505f805f5b856002015f9054906101000a900460ff1660ff1681101561155c575f866008015f88600301846005811061146b5761146a612da5565b5b015f9054906101000a900473ffffffffffffffffffffffffffffffffffffffff1673ffffffffffffffffffffffffffffffffffffffff1673ffffffffffffffffffffffffffffffffffffffff1681526020019081526020015f205f9054906101000a900460f81b90505f876009015f837effffffffffffffffffffffffffffffffffffffffffffffffffffffffffffff19167effffffffffffffffffffffffffffffffffffffffffffffffffffffffffffff191681526020019081526020015f205f9054906101000a900460ff1690508360ff168160ff16111561154d578196505b50508080600101915050611434565b505f86600301805461156d906126b1565b80601f0160208091040260200160405190810160405280929190818152602001828054611599906126b1565b80156115e45780601f106115bb576101008083540402835291602001916115e4565b820191905f5260205f20905b8154815290600101906020018083116115c757829003601f168201915b505050505090505f5b81518110156117c157857effffffffffffffffffffffffffffffffffffffffffffffffffffffffffffff191682828151811061162c5761162b612da5565b5b602001015160f81c60f81b7effffffffffffffffffffffffffffffffffffffffffffffffffffffffffffff191603611715576001886006015f887effffffffffffffffffffffffffffffffffffffffffffffffffffffffffffff19167effffffffffffffffffffffffffffffffffffffffffffffffffffffffffffff191681526020019081526020015f205f6101000a81548160ff02191690831515021790555060018860040182815481106116e5576116e4612da5565b5b905f5260205f2090602091828204019190066101000a81548160ff021916908315150217905550600193506117b4565b87600401818154811061172b5761172a612da5565b5b905f5260205f2090602091828204019190069054906101000a900460ff166117b3577f5f0000000000000000000000000000000000000000000000000000000000000082828151811061178157611780612da5565b5b60200101907effffffffffffffffffffffffffffffffffffffffffffffffffffffffffffff191690815f1a9053505f94505b5b80806001019150506115ed565b50866008015f8082015f6101000a81549060ff0219169055600182015f9055600282015f6101000a81549060ff0219169055600382015f61180291906121e8565b5050865f01604051611814919061346f565b60405180910390207f93484660649cf971864763c1bc0e0d0f5d7fdceeb388472825d299f8283268de868386156040516118509392919061349f565b60405180910390a2826118c4576001876005015f8282829054906101000a900460ff1661187d9190613267565b92506101000a81548160ff021916908360ff160217905550600660ff16876005015f9054906101000a900460ff1660ff16036118bf576118be876001611b2e565b5b6118d6565b83156118d5576118d4875f611b2e565b5b5b50505050505050565b5f826002015f8373ffffffffffffffffffffffffffffffffffffffff1673ffffffffffffffffffffffffffffffffffffffff1681526020019081526020015f205f6101000a81548160ff02191690831515021790555060018260010160178282829054906101000a900460ff166119569190612924565b92506101000a81548160ff021916908360ff1602179055505f8260080190505f8360010160179054906101000a900460ff1660ff161180156119a45750805f015f9054906101000a900460ff165b8015611a2057505f60f81b816008015f8473ffffffffffffffffffffffffffffffffffffffff1673ffffffffffffffffffffffffffffffffffffffff1681526020019081526020015f205f9054906101000a900460f81b7effffffffffffffffffffffffffffffffffffffffffffffffffffffffffffff191614155b15611a3357611a32835f018284611de1565b5b8173ffffffffffffffffffffffffffffffffffffffff168360010160029054906101000a900473ffffffffffffffffffffffffffffffffffffffff1673ffffffffffffffffffffffffffffffffffffffff1603611ace575f8360010160026101000a81548173ffffffffffffffffffffffffffffffffffffffff021916908373ffffffffffffffffffffffffffffffffffffffff1602179055505b8173ffffffffffffffffffffffffffffffffffffffff16835f01604051611af5919061346f565b60405180910390207fe3c5754d381588d73abe5a3ea491352ae6599bc3517832567c983a64f1fcb85b60405160405180910390a3505050565b815f01604051611b3e919061346f565b60405180910390207f3d40bf146111cf2fb1681f012b4ced47c0260037f37ac76366766d0d20e1689d8284600301604051611b7a9291906135cf565b60405180910390a26001826001015f9054906101000a900460ff1660ff1660058110611ba957611ba8612da5565b5b601202015f8082015f611bbc9190612206565b600182015f6101000a81549060ff02191690556001820160016101000a81549060ff02191690556001820160026101000a81549073ffffffffffffffffffffffffffffffffffffffff02191690556001820160166101000a81549060ff02191690556001820160176101000a81549060ff0219169055600382015f611c419190612206565b600482015f611c509190612243565b600582015f6101000a81549060ff0219169055600782015f9055600882015f8082015f6101000a81549060ff0219169055600182015f9055600282015f6101000a81549060ff0219169055600382015f611caa91906121e8565b505050505050565b5f805f90505b60058160ff161015611d44575f60018260ff1660058110611cdc57611cdb612da5565b5b6012020190508060010160019054906101000a900460ff16611d02578192505050611d4a565b610384816007015442611d1591906129c0565b1115611d3057611d26816002611b2e565b8192505050611d4a565b508080611d3c906135fd565b915050611cb8565b50600590505b90565b6001826002015f8373ffffffffffffffffffffffffffffffffffffffff1673ffffffffffffffffffffffffffffffffffffffff1681526020019081526020015f205f6101000a81548160ff02191690831515021790555060018260010160178282829054906101000a900460ff16611dc59190613267565b92506101000a81548160ff021916908360ff1602179055505050565b5f826008015f8373ffffffffffffffffffffffffffffffffffffffff1673ffffffffffffffffffffffffffffffffffffffff1681526020019081526020015f205f9054906101000a900460f81b90505f60f81b836008015f8473ffffffffffffffffffffffffffffffffffffffff1673ffffffffffffffffffffffffffffffffffffffff1681526020019081526020015f205f6101000a81548160ff021916908360f81c02179055505f805b846002015f9054906101000a900460ff1660ff168110156120b7578373ffffffffffffffffffffffffffffffffffffffff16856003018260058110611ed557611ed4612da5565b5b015f9054906101000a900473ffffffffffffffffffffffffffffffffffffffff1673ffffffffffffffffffffffffffffffffffffffff1603611f6f575f856003018260058110611f2857611f27612da5565b5b015f6101000a81548173ffffffffffffffffffffffffffffffffffffffff021916908373ffffffffffffffffffffffffffffffffffffffff160217905550600191506120aa565b81156120a9575f85600301600183611f8791906129c0565b60058110611f9857611f97612da5565b5b015f9054906101000a900473ffffffffffffffffffffffffffffffffffffffff169050856003018260058110611fd157611fd0612da5565b5b015f9054906101000a900473ffffffffffffffffffffffffffffffffffffffff168660030160018461200391906129c0565b6005811061201457612013612da5565b5b015f6101000a81548173ffffffffffffffffffffffffffffffffffffffff021916908373ffffffffffffffffffffffffffffffffffffffff1602179055508086600301836005811061206957612068612da5565b5b015f6101000a81548173ffffffffffffffffffffffffffffffffffffffff021916908373ffffffffffffffffffffffffffffffffffffffff160217905550505b5b8080600101915050611e8d565b506001846002015f8282829054906101000a900460ff166120d89190612924565b92506101000a81548160ff021916908360ff1602179055508273ffffffffffffffffffffffffffffffffffffffff167fe11e7b01cdd17c8c7ab41ed7897874e6a229485a77cc445646517fdac64e75bc86846040516121389291906133c1565b60405180910390a25050505050565b828054828255905f5260205f2090601f016020900481019282156121d7579160200282015f5b838211156121a957835183826101000a81548160ff02191690831515021790555092602001926001016020815f0104928301926001030261216d565b80156121d55782816101000a81549060ff02191690556001016020815f010492830192600103026121a9565b505b5090506121e49190612268565b5090565b505f81556001015f81556001015f81556001015f81556001015f9055565b508054612212906126b1565b5f825580601f106122235750612240565b601f0160209004905f5260205f209081019061223f9190612268565b5b50565b5080545f8255601f0160209004905f5260205f20908101906122659190612268565b50565b5b8082111561227f575f815f905550600101612269565b5090565b5f604051905090565b5f80fd5b5f80fd5b5f819050919050565b6122a681612294565b81146122b0575f80fd5b50565b5f813590506122c18161229d565b92915050565b5f602082840312156122dc576122db61228c565b5b5f6122e9848285016122b3565b91505092915050565b5f81519050919050565b5f82825260208201905092915050565b8281835e5f83830152505050565b5f601f19601f8301169050919050565b5f612334826122f2565b61233e81856122fc565b935061234e81856020860161230c565b6123578161231a565b840191505092915050565b5f6020820190508181035f83015261237a818461232a565b905092915050565b5f80fd5b5f80fd5b7f4e487b71000000000000000000000000000000000000000000000000000000005f52604160045260245ffd5b6123c08261231a565b810181811067ffffffffffffffff821117156123df576123de61238a565b5b80604052505050565b5f6123f1612283565b90506123fd82826123b7565b919050565b5f67ffffffffffffffff82111561241c5761241b61238a565b5b6124258261231a565b9050602081019050919050565b828183375f83830152505050565b5f61245261244d84612402565b6123e8565b90508281526020810184848401111561246e5761246d612386565b5b612479848285612432565b509392505050565b5f82601f83011261249557612494612382565b5b81356124a5848260208601612440565b91505092915050565b5f7fff0000000000000000000000000000000000000000000000000000000000000082169050919050565b6124e2816124ae565b81146124ec575f80fd5b50565b5f813590506124fd816124d9565b92915050565b5f80604083850312156125195761251861228c565b5b5f83013567ffffffffffffffff81111561253657612535612290565b5b61254285828601612481565b9250506020612553858286016124ef565b9150509250929050565b5f602082840312156125725761257161228c565b5b5f82013567ffffffffffffffff81111561258f5761258e612290565b5b61259b84828501612481565b91505092915050565b5f60ff82169050919050565b6125b9816125a4565b82525050565b5f6020820190506125d25f8301846125b0565b92915050565b6125e181612294565b82525050565b5f6020820190506125fa5f8301846125d8565b92915050565b612609816125a4565b8114612613575f80fd5b50565b5f8135905061262481612600565b92915050565b5f80604083850312156126405761263f61228c565b5b5f83013567ffffffffffffffff81111561265d5761265c612290565b5b61266985828601612481565b925050602061267a85828601612616565b9150509250929050565b7f4e487b71000000000000000000000000000000000000000000000000000000005f52602260045260245ffd5b5f60028204905060018216806126c857607f821691505b6020821081036126db576126da612684565b5b50919050565b5f81905092915050565b5f6126f5826122f2565b6126ff81856126e1565b935061270f81856020860161230c565b80840191505092915050565b5f61272682846126eb565b915081905092915050565b7f47616d6573206973206e6f7420616374697665000000000000000000000000005f82015250565b5f6127656013836122fc565b915061277082612731565b602082019050919050565b5f6020820190508181035f83015261279281612759565b9050919050565b7f596f7520617265206e6f74206120706c61796572206f6620746869732067616d5f8201527f6500000000000000000000000000000000000000000000000000000000000000602082015250565b5f6127f36021836122fc565b91506127fe82612799565b604082019050919050565b5f6020820190508181035f830152612820816127e7565b9050919050565b7f596f7520616c726561647920766f7465640000000000000000000000000000005f82015250565b5f61285b6011836122fc565b915061286682612827565b602082019050919050565b5f6020820190508181035f8301526128888161284f565b9050919050565b7f4c6574746572206d75737420626520696e20412d5a20612d7a000000000000005f82015250565b5f6128c36019836122fc565b91506128ce8261288f565b602082019050919050565b5f6020820190508181035f8301526128f0816128b7565b9050919050565b7f4e487b71000000000000000000000000000000000000000000000000000000005f52601160045260245ffd5b5f61292e826125a4565b9150612939836125a4565b9250828203905060ff811115612952576129516128f7565b5b92915050565b7f4c65747465722068617320616c7265616479206265656e2067756573736564005f82015250565b5f61298c601f836122fc565b915061299782612958565b602082019050919050565b5f6020820190508181035f8301526129b981612980565b9050919050565b5f6129ca82612294565b91506129d583612294565b92508282039050818111156129ed576129ec6128f7565b5b92915050565b7f4e6f206d6f726520706c617965727320736c6f747320617661696c61626c65005f82015250565b5f612a27601f836122fc565b9150612a32826129f3565b602082019050919050565b5f6020820190508181035f830152612a5481612a1b565b9050919050565b7f416c726561647920696e207468652067616d65000000000000000000000000005f82015250565b5f612a8f6013836122fc565b9150612a9a82612a5b565b602082019050919050565b5f6020820190508181035f830152612abc81612a83565b9050919050565b7f4e6f2061637469766520766f74650000000000000000000000000000000000005f82015250565b5f612af7600e836122fc565b9150612b0282612ac3565b602082019050919050565b5f6020820190508181035f830152612b2481612aeb565b9050919050565b7f566f7465206475726174696f6e20686173206e6f7420656c61707365640000005f82015250565b5f612b5f601d836122fc565b9150612b6a82612b2b565b602082019050919050565b5f6020820190508181035f830152612b8c81612b53565b9050919050565b7f4f6e6c792067616d652063726561746f722063616e2064656c657465207468655f8201527f2067616d65000000000000000000000000000000000000000000000000000000602082015250565b5f612bed6025836122fc565b9150612bf882612b93565b604082019050919050565b5f6020820190508181035f830152612c1a81612be1565b9050919050565b7f412067616d652077697468207468652063686f73656e20494420616c726561645f8201527f7920657869737473000000000000000000000000000000000000000000000000602082015250565b5f612c7b6028836122fc565b9150612c8682612c21565b604082019050919050565b5f6020820190508181035f830152612ca881612c6f565b9050919050565b7f4174206c65617374206f6e6520706c6179657220726571756972656420616e645f8201527f206174206d6f7374204d41585f504c415945525320616c6c6f77656400000000602082015250565b5f612d09603c836122fc565b9150612d1482612caf565b604082019050919050565b5f6020820190508181035f830152612d3681612cfd565b9050919050565b7f4e6f20667265652067616d6520736c6f7420617661696c61626c6500000000005f82015250565b5f612d71601b836122fc565b9150612d7c82612d3d565b602082019050919050565b5f6020820190508181035f830152612d9e81612d65565b9050919050565b7f4e487b71000000000000000000000000000000000000000000000000000000005f52603260045260245ffd5b5f819050815f5260205f209050919050565b5f6020601f8301049050919050565b5f82821b905092915050565b5f60088302612e2e7fffffffffffffffffffffffffffffffffffffffffffffffffffffffffffffffff82612df3565b612e388683612df3565b95508019841693508086168417925050509392505050565b5f819050919050565b5f612e73612e6e612e6984612294565b612e50565b612294565b9050919050565b5f819050919050565b612e8c83612e59565b612ea0612e9882612e7a565b848454612dff565b825550505050565b5f90565b612eb4612ea8565b612ebf818484612e83565b505050565b5b81811015612ee257612ed75f82612eac565b600181019050612ec5565b5050565b601f821115612f2757612ef881612dd2565b612f0184612de4565b81016020851015612f10578190505b612f24612f1c85612de4565b830182612ec4565b50505b505050565b5f82821c905092915050565b5f612f475f1984600802612f2c565b1980831691505092915050565b5f612f5f8383612f38565b9150826002028217905092915050565b612f78826122f2565b67ffffffffffffffff811115612f9157612f9061238a565b5b612f9b82546126b1565b612fa6828285612ee6565b5f60209050601f831160018114612fd7575f8415612fc5578287015190505b612fcf8582612f54565b865550613036565b601f198416612fe586612dd2565b5f5b8281101561300c57848901518255600182019150602085019450602081019050612fe7565b868310156130295784890151613025601f891682612f38565b8355505b6001600288020188555050505b505050505050565b5f819050919050565b61305861305382612294565b61303e565b82525050565b5f73ffffffffffffffffffffffffffffffffffffffff82169050919050565b5f6130878261305e565b9050919050565b5f8160601b9050919050565b5f6130a48261308e565b9050919050565b5f6130b58261309a565b9050919050565b6130cd6130c88261307d565b6130ab565b82525050565b5f6130de8285613047565b6020820191506130ee82846130bc565b6014820191508190509392505050565b7f4e487b71000000000000000000000000000000000000000000000000000000005f52601260045260245ffd5b5f61313582612294565b915061314083612294565b9250826131505761314f6130fe565b5b828206905092915050565b5f81549050613169816126b1565b9050919050565b5f819050815f5260205f209050919050565b818103613190575050613265565b6131998261315b565b67ffffffffffffffff8111156131b2576131b161238a565b5b6131bc82546126b1565b6131c7828285612ee6565b5f601f8311600181146131f4575f84156131e2578287015490505b6131ec8582612f54565b86555061325e565b601f19841661320287613170565b965061320d86612dd2565b5f5b828110156132345784890154825560018201915060018501945060208101905061320f565b86831015613251578489015461324d601f891682612f38565b8355505b6001600288020188555050505b5050505050505b565b5f613271826125a4565b915061327c836125a4565b9250828201905060ff811115613295576132946128f7565b5b92915050565b5f81546132a7816126b1565b6132b181866126e1565b9450600182165f81146132cb57600181146132e057613312565b60ff1983168652811515820286019350613312565b6132e985613170565b5f5b8381101561330a578154818901526001820191506020810190506132eb565b838801955050505b50505092915050565b5f613326828461329b565b915081905092915050565b5f815461333d816126b1565b61334781866122fc565b9450600182165f81146133615760018114613377576133a9565b60ff1983168652811515602002860193506133a9565b61338085613170565b5f5b838110156133a157815481890152600182019150602081019050613382565b808801955050505b50505092915050565b6133bb816124ae565b82525050565b5f6040820190508181035f8301526133d98185613331565b90506133e860208301846133b2565b9392505050565b5f81546133fb816126b1565b61340581866126e1565b9450600182165f811461341f576001811461343457613466565b60ff1983168652811515820286019350613466565b61343d85612dd2565b5f5b8381101561345e5781548189015260018201915060208101905061343f565b838801955050505b50505092915050565b5f61347a82846133ef565b915081905092915050565b5f8115159050919050565b61349981613485565b82525050565b5f6060820190506134b25f8301866133b2565b81810360208301526134c4818561232a565b90506134d36040830184613490565b949350505050565b7f4e487b71000000000000000000000000000000000000000000000000000000005f52602160045260245ffd5b60038110613519576135186134db565b5b50565b5f81905061352982613508565b919050565b5f6135388261351c565b9050919050565b6135488161352e565b82525050565b5f815461355a816126b1565b61356481866122fc565b9450600182165f811461357e5760018114613594576135c6565b60ff1983168652811515602002860193506135c6565b61359d85612dd2565b5f5b838110156135be5781548189015260018201915060208101905061359f565b808801955050505b50505092915050565b5f6040820190506135e25f83018561353f565b81810360208301526135f4818461354e565b90509392505050565b5f613607826125a4565b915060ff820361361a576136196128f7565b5b60018201905091905056fea2646970667358221220656cb417c02d64a092b908da7a28d61662b7bd51d15d5178bf3472a5fb95906a64736f6c634300081a0033",
			"opcodes": "PUSH1 0x80 PUSH1 0x40 MSTORE PUSH1 0x40 MLOAD DUP1 PUSH1 0xA0 ADD PUSH1 0x40 MSTORE DUP1 PUSH1 0x40 MLOAD DUP1 PUSH1 0x40 ADD PUSH1 0x40 MSTORE DUP1 PUSH1 0x5 DUP2 MSTORE PUSH1 0x20 ADD PUSH32 0x4170706C65000000000000000000000000000000000000000000000000000000 DUP2 MSTORE POP DUP2 MSTORE PUSH1 0x20 ADD PUSH1 0x40 MLOAD DUP1 PUSH1 0x40 ADD PUSH1 0x40 MSTORE DUP1 PUSH1 0x6 DUP2 MSTORE PUSH1 0x20 ADD PUSH32 0x42616E616E610000000000000000000000000000000000000000000000000000 DUP2 MSTORE POP DUP2 MSTORE PUSH1 0x20 ADD PUSH1 0x40 MLOAD DUP1 PUSH1 0x40 ADD PUSH1 0x40 MSTORE DUP1 PUSH1 0x6 DUP2 MSTORE PUSH1 0x20 ADD PUSH32 0x4368657272790000000000000000000000000000000000000000000000000000 DUP2 MSTORE POP DUP2 MSTORE PUSH1 0x20 ADD PUSH1 0x40 MLOAD DUP1 PUSH1 0x40 ADD PUSH1 0x40 MSTORE DUP1 PUSH1 0x6 DUP2 MSTORE PUSH1 0x20 ADD PUSH32 0x44757269616E0000000000000000000000000000000000000000000000000000 DUP2 MSTORE POP DUP2 MSTORE PUSH1 0x20 ADD PUSH1 0x40 MLOAD DUP1 PUSH1 0x40 ADD PUSH1 0x40 MSTORE DUP1 PUSH1 0xA DUP2 MSTORE PUSH1 0x20 ADD PUSH32 0x456C646572626572727900000000000000000000000000000000000000000000 DUP2 MSTORE POP DUP2 MSTORE POP PUSH0 SWAP1 PUSH1 0x5 PUSH2 0x143 SWAP3 SWAP2 SWAP1 PUSH2 0x155 JUMP JUMPDEST POP CALLVALUE DUP1 ISZERO PUSH2 0x14F JUMPI PUSH0 DUP1 REVERT JUMPDEST POP PUSH2 0x530 JUMP JUMPDEST DUP3 DUP1 SLOAD DUP3 DUP3 SSTORE SWAP1 PUSH0 MSTORE PUSH1 0x20 PUSH0 KECCAK256 SWAP1 DUP2 ADD SWAP3 DUP3 ISZERO PUSH2 0x19B JUMPI SWAP2 PUSH1 0x20 MUL DUP3 ADD JUMPDEST DUP3 DUP2 GT ISZERO PUSH2 0x19A JUMPI DUP3 MLOAD DUP3 SWAP1 DUP2 PUSH2 0x18A SWAP2 SWAP1 PUSH2 0x461 JUMP JUMPDEST POP SWAP2 PUSH1 0x20 ADD SWAP2 SWAP1 PUSH1 0x1 ADD SWAP1 PUSH2 0x173 JUMP JUMPDEST JUMPDEST POP SWAP1 POP PUSH2 0x1A8 SWAP2 SWAP1 PUSH2 0x1AC JUMP JUMPDEST POP SWAP1 JUMP JUMPDEST JUMPDEST DUP1 DUP3 GT ISZERO PUSH2 0x1CB JUMPI PUSH0 DUP2 DUP2 PUSH2 0x1C2 SWAP2 SWAP1 PUSH2 0x1CF JUMP JUMPDEST POP PUSH1 0x1 ADD PUSH2 0x1AD JUMP JUMPDEST POP SWAP1 JUMP JUMPDEST POP DUP1 SLOAD PUSH2 0x1DB SWAP1 PUSH2 0x28B JUMP JUMPDEST PUSH0 DUP3 SSTORE DUP1 PUSH1 0x1F LT PUSH2 0x1EC JUMPI POP PUSH2 0x209 JUMP JUMPDEST PUSH1 0x1F ADD PUSH1 0x20 SWAP1 DIV SWAP1 PUSH0 MSTORE PUSH1 0x20 PUSH0 KECCAK256 SWAP1 DUP2 ADD SWAP1 PUSH2 0x208 SWAP2 SWAP1 PUSH2 0x20C JUMP JUMPDEST JUMPDEST POP JUMP JUMPDEST JUMPDEST DUP1 DUP3 GT ISZERO PUSH2 0x223 JUMPI PUSH0 DUP2 PUSH0 SWAP1 SSTORE POP PUSH1 0x1 ADD PUSH2 0x20D JUMP JUMPDEST POP SWAP1 JUMP JUMPDEST PUSH0 DUP2 MLOAD SWAP1 POP SWAP2 SWAP1 POP JUMP JUMPDEST PUSH32 0x4E487B7100000000000000000000000000000000000000000000000000000000 PUSH0 MSTORE PUSH1 0x41 PUSH1 0x4 MSTORE PUSH1 0x24 PUSH0 REVERT JUMPDEST PUSH32 0x4E487B7100000000000000000000000000000000000000000000000000000000 PUSH0 MSTORE PUSH1 0x22 PUSH1 0x4 MSTORE PUSH1 0x24 PUSH0 REVERT JUMPDEST PUSH0 PUSH1 0x2 DUP3 DIV SWAP1 POP PUSH1 0x1 DUP3 AND DUP1 PUSH2 0x2A2 JUMPI PUSH1 0x7F DUP3 AND SWAP2 POP JUMPDEST PUSH1 0x20 DUP3 LT DUP2 SUB PUSH2 0x2B5 JUMPI PUSH2 0x2B4 PUSH2 0x25E JUMP JUMPDEST JUMPDEST POP SWAP2 SWAP1 POP JUMP JUMPDEST PUSH0 DUP2 SWAP1 POP DUP2 PUSH0 MSTORE PUSH1 0x20 PUSH0 KECCAK256 SWAP1 POP SWAP2 SWAP1 POP JUMP JUMPDEST PUSH0 PUSH1 0x20 PUSH1 0x1F DUP4 ADD DIV SWAP1 POP SWAP2 SWAP1 POP JUMP JUMPDEST PUSH0 DUP3 DUP3 SHL SWAP1 POP SWAP3 SWAP2 POP POP JUMP JUMPDEST PUSH0 PUSH1 0x8 DUP4 MUL PUSH2 0x317 PUSH32 0xFFFFFFFFFFFFFFFFFFFFFFFFFFFFFFFFFFFFFFFFFFFFFFFFFFFFFFFFFFFFFFFF DUP3 PUSH2 0x2DC JUMP JUMPDEST PUSH2 0x321 DUP7 DUP4 PUSH2 0x2DC JUMP JUMPDEST SWAP6 POP DUP1 NOT DUP5 AND SWAP4 POP DUP1 DUP7 AND DUP5 OR SWAP3 POP POP POP SWAP4 SWAP3 POP POP POP JUMP JUMPDEST PUSH0 DUP2 SWAP1 POP SWAP2 SWAP1 POP JUMP JUMPDEST PUSH0 DUP2 SWAP1 POP SWAP2 SWAP1 POP JUMP JUMPDEST PUSH0 PUSH2 0x365 PUSH2 0x360 PUSH2 0x35B DUP5 PUSH2 0x339 JUMP JUMPDEST PUSH2 0x342 JUMP JUMPDEST PUSH2 0x339 JUMP JUMPDEST SWAP1 POP SWAP2 SWAP1 POP JUMP JUMPDEST PUSH0 DUP2 SWAP1 POP SWAP2 SWAP1 POP JUMP JUMPDEST PUSH2 0x37E DUP4 PUSH2 0x34B JUMP JUMPDEST PUSH2 0x392 PUSH2 0x38A DUP3 PUSH2 0x36C JUMP JUMPDEST DUP5 DUP5 SLOAD PUSH2 0x2E8 JUMP JUMPDEST DUP3 SSTORE POP POP POP POP JUMP JUMPDEST PUSH0 SWAP1 JUMP JUMPDEST PUSH2 0x3A6 PUSH2 0x39A JUMP JUMPDEST PUSH2 0x3B1 DUP2 DUP5 DUP5 PUSH2 0x375 JUMP JUMPDEST POP POP POP JUMP JUMPDEST JUMPDEST DUP2 DUP2 LT ISZERO PUSH2 0x3D4 JUMPI PUSH2 0x3C9 PUSH0 DUP3 PUSH2 0x39E JUMP JUMPDEST PUSH1 0x1 DUP2 ADD SWAP1 POP PUSH2 0x3B7 JUMP JUMPDEST POP POP JUMP JUMPDEST PUSH1 0x1F DUP3 GT ISZERO PUSH2 0x419 JUMPI PUSH2 0x3EA DUP2 PUSH2 0x2BB JUMP JUMPDEST PUSH2 0x3F3 DUP5 PUSH2 0x2CD JUMP JUMPDEST DUP2 ADD PUSH1 0x20 DUP6 LT ISZERO PUSH2 0x402 JUMPI DUP2 SWAP1 POP JUMPDEST PUSH2 0x416 PUSH2 0x40E DUP6 PUSH2 0x2CD JUMP JUMPDEST DUP4 ADD DUP3 PUSH2 0x3B6 JUMP JUMPDEST POP POP JUMPDEST POP POP POP JUMP JUMPDEST PUSH0 DUP3 DUP3 SHR SWAP1 POP SWAP3 SWAP2 POP POP JUMP JUMPDEST PUSH0 PUSH2 0x439 PUSH0 NOT DUP5 PUSH1 0x8 MUL PUSH2 0x41E JUMP JUMPDEST NOT DUP1 DUP4 AND SWAP2 POP POP SWAP3 SWAP2 POP POP JUMP JUMPDEST PUSH0 PUSH2 0x451 DUP4 DUP4 PUSH2 0x42A JUMP JUMPDEST SWAP2 POP DUP3 PUSH1 0x2 MUL DUP3 OR SWAP1 POP SWAP3 SWAP2 POP POP JUMP JUMPDEST PUSH2 0x46A DUP3 PUSH2 0x227 JUMP JUMPDEST PUSH8 0xFFFFFFFFFFFFFFFF DUP2 GT ISZERO PUSH2 0x483 JUMPI PUSH2 0x482 PUSH2 0x231 JUMP JUMPDEST JUMPDEST PUSH2 0x48D DUP3 SLOAD PUSH2 0x28B JUMP JUMPDEST PUSH2 0x498 DUP3 DUP3 DUP6 PUSH2 0x3D8 JUMP JUMPDEST PUSH0 PUSH1 0x20 SWAP1 POP PUSH1 0x1F DUP4 GT PUSH1 0x1 DUP2 EQ PUSH2 0x4C9 JUMPI PUSH0 DUP5 ISZERO PUSH2 0x4B7 JUMPI DUP3 DUP8 ADD MLOAD SWAP1 POP JUMPDEST PUSH2 0x4C1 DUP6 DUP3 PUSH2 0x446 JUMP JUMPDEST DUP7 SSTORE POP PUSH2 0x528 JUMP JUMPDEST PUSH1 0x1F NOT DUP5 AND PUSH2 0x4D7 DUP7 PUSH2 0x2BB JUMP JUMPDEST PUSH0 JUMPDEST DUP3 DUP2 LT ISZERO PUSH2 0x4FE JUMPI DUP5 DUP10 ADD MLOAD DUP3 SSTORE PUSH1 0x1 DUP3 ADD SWAP2 POP PUSH1 0x20 DUP6 ADD SWAP5 POP PUSH1 0x20 DUP2 ADD SWAP1 POP PUSH2 0x4D9 JUMP JUMPDEST DUP7 DUP4 LT ISZERO PUSH2 0x51B JUMPI DUP5 DUP10 ADD MLOAD PUSH2 0x517 PUSH1 0x1F DUP10 AND DUP3 PUSH2 0x42A JUMP JUMPDEST DUP4 SSTORE POP JUMPDEST PUSH1 0x1 PUSH1 0x2 DUP9 MUL ADD DUP9 SSTORE POP POP POP JUMPDEST POP POP POP POP POP POP JUMP JUMPDEST PUSH2 0x365B DUP1 PUSH2 0x53D PUSH0 CODECOPY PUSH0 RETURN INVALID PUSH1 0x80 PUSH1 0x40 MSTORE CALLVALUE DUP1 ISZERO PUSH2 0xF JUMPI PUSH0 DUP1 REVERT JUMPDEST POP PUSH1 0x4 CALLDATASIZE LT PUSH2 0xB2 JUMPI PUSH0 CALLDATALOAD PUSH1 0xE0 SHR DUP1 PUSH4 0xA438D208 GT PUSH2 0x6F JUMPI DUP1 PUSH4 0xA438D208 EQ PUSH2 0x178 JUMPI DUP1 PUSH4 0xAA4103E2 EQ PUSH2 0x196 JUMPI DUP1 PUSH4 0xC22A95F1 EQ PUSH2 0x1B4 JUMPI DUP1 PUSH4 0xD19E39F0 EQ PUSH2 0x1D0 JUMPI DUP1 PUSH4 0xD5C68AB2 EQ PUSH2 0x1EC JUMPI DUP1 PUSH4 0xE565C835 EQ PUSH2 0x208 JUMPI PUSH2 0xB2 JUMP JUMPDEST DUP1 PUSH4 0xF1AD663 EQ PUSH2 0xB6 JUMPI DUP1 PUSH4 0x1616C521 EQ PUSH2 0xE6 JUMPI DUP1 PUSH4 0x3D536A2E EQ PUSH2 0x102 JUMPI DUP1 PUSH4 0x4411B3EB EQ PUSH2 0x11E JUMPI DUP1 PUSH4 0x4FD01913 EQ PUSH2 0x13C JUMPI DUP1 PUSH4 0x684D4678 EQ PUSH2 0x15A JUMPI JUMPDEST PUSH0 DUP1 REVERT JUMPDEST PUSH2 0xD0 PUSH1 0x4 DUP1 CALLDATASIZE SUB DUP2 ADD SWAP1 PUSH2 0xCB SWAP2 SWAP1 PUSH2 0x22C7 JUMP JUMPDEST PUSH2 0x224 JUMP JUMPDEST PUSH1 0x40 MLOAD PUSH2 0xDD SWAP2 SWAP1 PUSH2 0x2362 JUMP JUMPDEST PUSH1 0x40 MLOAD DUP1 SWAP2 SUB SWAP1 RETURN JUMPDEST PUSH2 0x100 PUSH1 0x4 DUP1 CALLDATASIZE SUB DUP2 ADD SWAP1 PUSH2 0xFB SWAP2 SWAP1 PUSH2 0x2503 JUMP JUMPDEST PUSH2 0x2C9 JUMP JUMPDEST STOP JUMPDEST PUSH2 0x11C PUSH1 0x4 DUP1 CALLDATASIZE SUB DUP2 ADD SWAP1 PUSH2 0x117 SWAP2 SWAP1 PUSH2 0x255D JUMP JUMPDEST PUSH2 0x7F0 JUMP JUMPDEST STOP JUMPDEST PUSH2 0x126 PUSH2 0xA32 JUMP JUMPDEST PUSH1 0x40 MLOAD PUSH2 0x133 SWAP2 SWAP1 PUSH2 0x25BF JUMP JUMPDEST PUSH1 0x40 MLOAD DUP1 SWAP2 SUB SWAP1 RETURN JUMPDEST PUSH2 0x144 PUSH2 0xA37 JUMP JUMPDEST PUSH1 0x40 MLOAD PUSH2 0x151 SWAP2 SWAP1 PUSH2 0x25BF JUMP JUMPDEST PUSH1 0x40 MLOAD DUP1 SWAP2 SUB SWAP1 RETURN JUMPDEST PUSH2 0x162 PUSH2 0xA3C JUMP JUMPDEST PUSH1 0x40 MLOAD PUSH2 0x16F SWAP2 SWAP1 PUSH2 0x25BF JUMP JUMPDEST PUSH1 0x40 MLOAD DUP1 SWAP2 SUB SWAP1 RETURN JUMPDEST PUSH2 0x180 PUSH2 0xA41 JUMP JUMPDEST PUSH1 0x40 MLOAD PUSH2 0x18D SWAP2 SWAP1 PUSH2 0x25E7 JUMP JUMPDEST PUSH1 0x40 MLOAD DUP1 SWAP2 SUB SWAP1 RETURN JUMPDEST PUSH2 0x19E PUSH2 0xA47 JUMP JUMPDEST PUSH1 0x40 MLOAD PUSH2 0x1AB SWAP2 SWAP1 PUSH2 0x25E7 JUMP JUMPDEST PUSH1 0x40 MLOAD DUP1 SWAP2 SUB SWAP1 RETURN JUMPDEST PUSH2 0x1CE PUSH1 0x4 DUP1 CALLDATASIZE SUB DUP2 ADD SWAP1 PUSH2 0x1C9 SWAP2 SWAP1 PUSH2 0x255D JUMP JUMPDEST PUSH2 0xA4D JUMP JUMPDEST STOP JUMPDEST PUSH2 0x1EA PUSH1 0x4 DUP1 CALLDATASIZE SUB DUP2 ADD SWAP1 PUSH2 0x1E5 SWAP2 SWAP1 PUSH2 0x255D JUMP JUMPDEST PUSH2 0xBC4 JUMP JUMPDEST STOP JUMPDEST PUSH2 0x206 PUSH1 0x4 DUP1 CALLDATASIZE SUB DUP2 ADD SWAP1 PUSH2 0x201 SWAP2 SWAP1 PUSH2 0x255D JUMP JUMPDEST PUSH2 0xD13 JUMP JUMPDEST STOP JUMPDEST PUSH2 0x222 PUSH1 0x4 DUP1 CALLDATASIZE SUB DUP2 ADD SWAP1 PUSH2 0x21D SWAP2 SWAP1 PUSH2 0x262A JUMP JUMPDEST PUSH2 0xEA6 JUMP JUMPDEST STOP JUMPDEST PUSH0 DUP2 DUP2 SLOAD DUP2 LT PUSH2 0x232 JUMPI PUSH0 DUP1 REVERT JUMPDEST SWAP1 PUSH0 MSTORE PUSH1 0x20 PUSH0 KECCAK256 ADD PUSH0 SWAP2 POP SWAP1 POP DUP1 SLOAD PUSH2 0x24A SWAP1 PUSH2 0x26B1 JUMP JUMPDEST DUP1 PUSH1 0x1F ADD PUSH1 0x20 DUP1 SWAP2 DIV MUL PUSH1 0x20 ADD PUSH1 0x40 MLOAD SWAP1 DUP2 ADD PUSH1 0x40 MSTORE DUP1 SWAP3 SWAP2 SWAP1 DUP2 DUP2 MSTORE PUSH1 0x20 ADD DUP3 DUP1 SLOAD PUSH2 0x276 SWAP1 PUSH2 0x26B1 JUMP JUMPDEST DUP1 ISZERO PUSH2 0x2C1 JUMPI DUP1 PUSH1 0x1F LT PUSH2 0x298 JUMPI PUSH2 0x100 DUP1 DUP4 SLOAD DIV MUL DUP4 MSTORE SWAP2 PUSH1 0x20 ADD SWAP2 PUSH2 0x2C1 JUMP JUMPDEST DUP3 ADD SWAP2 SWAP1 PUSH0 MSTORE PUSH1 0x20 PUSH0 KECCAK256 SWAP1 JUMPDEST DUP2 SLOAD DUP2 MSTORE SWAP1 PUSH1 0x1 ADD SWAP1 PUSH1 0x20 ADD DUP1 DUP4 GT PUSH2 0x2A4 JUMPI DUP3 SWAP1 SUB PUSH1 0x1F AND DUP3 ADD SWAP2 JUMPDEST POP POP POP POP POP DUP2 JUMP JUMPDEST DUP2 PUSH1 0x1 ISZERO ISZERO PUSH1 0x5B DUP3 PUSH1 0x40 MLOAD PUSH2 0x2DE SWAP2 SWAP1 PUSH2 0x271B JUMP JUMPDEST SWAP1 DUP2 MSTORE PUSH1 0x20 ADD PUSH1 0x40 MLOAD DUP1 SWAP2 SUB SWAP1 KECCAK256 PUSH1 0x1 ADD PUSH1 0x1 SWAP1 SLOAD SWAP1 PUSH2 0x100 EXP SWAP1 DIV PUSH1 0xFF AND ISZERO ISZERO EQ PUSH2 0x33F JUMPI PUSH1 0x40 MLOAD PUSH32 0x8C379A000000000000000000000000000000000000000000000000000000000 DUP2 MSTORE PUSH1 0x4 ADD PUSH2 0x336 SWAP1 PUSH2 0x277B JUMP JUMPDEST PUSH1 0x40 MLOAD DUP1 SWAP2 SUB SWAP1 REVERT JUMPDEST DUP3 PUSH1 0x5B DUP2 PUSH1 0x40 MLOAD PUSH2 0x350 SWAP2 SWAP1 PUSH2 0x271B JUMP JUMPDEST SWAP1 DUP2 MSTORE PUSH1 0x20 ADD PUSH1 0x40 MLOAD DUP1 SWAP2 SUB SWAP1 KECCAK256 PUSH1 0x2 ADD PUSH0 CALLER PUSH20 0xFFFFFFFFFFFFFFFFFFFFFFFFFFFFFFFFFFFFFFFF AND PUSH20 0xFFFFFFFFFFFFFFFFFFFFFFFFFFFFFFFFFFFFFFFF AND DUP2 MSTORE PUSH1 0x20 ADD SWAP1 DUP2 MSTORE PUSH1 0x20 ADD PUSH0 KECCAK256 PUSH0 SWAP1 SLOAD SWAP1 PUSH2 0x100 EXP SWAP1 DIV PUSH1 0xFF AND PUSH2 0x3E8 JUMPI PUSH1 0x40 MLOAD PUSH32 0x8C379A000000000000000000000000000000000000000000000000000000000 DUP2 MSTORE PUSH1 0x4 ADD PUSH2 0x3DF SWAP1 PUSH2 0x2809 JUMP JUMPDEST PUSH1 0x40 MLOAD DUP1 SWAP2 SUB SWAP1 REVERT JUMPDEST PUSH0 PUSH1 0x5B DUP6 PUSH1 0x40 MLOAD PUSH2 0x3F9 SWAP2 SWAP1 PUSH2 0x271B JUMP JUMPDEST SWAP1 DUP2 MSTORE PUSH1 0x20 ADD PUSH1 0x40 MLOAD DUP1 SWAP2 SUB SWAP1 KECCAK256 SWAP1 POP PUSH0 DUP2 PUSH1 0x8 ADD SWAP1 POP PUSH0 PUSH1 0xF8 SHL DUP2 PUSH1 0x8 ADD PUSH0 CALLER PUSH20 0xFFFFFFFFFFFFFFFFFFFFFFFFFFFFFFFFFFFFFFFF AND PUSH20 0xFFFFFFFFFFFFFFFFFFFFFFFFFFFFFFFFFFFFFFFF AND DUP2 MSTORE PUSH1 0x20 ADD SWAP1 DUP2 MSTORE PUSH1 0x20 ADD PUSH0 KECCAK256 PUSH0 SWAP1 SLOAD SWAP1 PUSH2 0x100 EXP SWAP1 DIV PUSH1 0xF8 SHL PUSH31 0xFFFFFFFFFFFFFFFFFFFFFFFFFFFFFFFFFFFFFFFFFFFFFFFFFFFFFFFFFFFFFF NOT AND EQ PUSH2 0x4C2 JUMPI PUSH1 0x40 MLOAD PUSH32 0x8C379A000000000000000000000000000000000000000000000000000000000 DUP2 MSTORE PUSH1 0x4 ADD PUSH2 0x4B9 SWAP1 PUSH2 0x2871 JUMP JUMPDEST PUSH1 0x40 MLOAD DUP1 SWAP2 SUB SWAP1 REVERT JUMPDEST PUSH0 PUSH32 0x4100000000000000000000000000000000000000000000000000000000000000 PUSH31 0xFFFFFFFFFFFFFFFFFFFFFFFFFFFFFFFFFFFFFFFFFFFFFFFFFFFFFFFFFFFFFF NOT AND DUP7 PUSH31 0xFFFFFFFFFFFFFFFFFFFFFFFFFFFFFFFFFFFFFFFFFFFFFFFFFFFFFFFFFFFFFF NOT AND LT ISZERO DUP1 ISZERO PUSH2 0x59B JUMPI POP PUSH32 0x5A00000000000000000000000000000000000000000000000000000000000000 PUSH31 0xFFFFFFFFFFFFFFFFFFFFFFFFFFFFFFFFFFFFFFFFFFFFFFFFFFFFFFFFFFFFFF NOT AND DUP7 PUSH31 0xFFFFFFFFFFFFFFFFFFFFFFFFFFFFFFFFFFFFFFFFFFFFFFFFFFFFFFFFFFFFFF NOT AND LT ISZERO JUMPDEST SWAP1 POP DUP1 DUP1 PUSH2 0x67D JUMPI POP PUSH32 0x6100000000000000000000000000000000000000000000000000000000000000 PUSH31 0xFFFFFFFFFFFFFFFFFFFFFFFFFFFFFFFFFFFFFFFFFFFFFFFFFFFFFFFFFFFFFF NOT AND DUP7 PUSH31 0xFFFFFFFFFFFFFFFFFFFFFFFFFFFFFFFFFFFFFFFFFFFFFFFFFFFFFFFFFFFFFF NOT AND LT ISZERO DUP1 ISZERO PUSH2 0x67C JUMPI POP PUSH32 0x7A00000000000000000000000000000000000000000000000000000000000000 PUSH31 0xFFFFFFFFFFFFFFFFFFFFFFFFFFFFFFFFFFFFFFFFFFFFFFFFFFFFFFFFFFFFFF NOT AND DUP7 PUSH31 0xFFFFFFFFFFFFFFFFFFFFFFFFFFFFFFFFFFFFFFFFFFFFFFFFFFFFFFFFFFFFFF NOT AND LT ISZERO JUMPDEST JUMPDEST PUSH2 0x6BC JUMPI PUSH1 0x40 MLOAD PUSH32 0x8C379A000000000000000000000000000000000000000000000000000000000 DUP2 MSTORE PUSH1 0x4 ADD PUSH2 0x6B3 SWAP1 PUSH2 0x28D9 JUMP JUMPDEST PUSH1 0x40 MLOAD DUP1 SWAP2 SUB SWAP1 REVERT JUMPDEST DUP1 ISZERO PUSH2 0x6D8 JUMPI PUSH1 0x20 DUP7 PUSH1 0xF8 SHR PUSH2 0x6D2 SWAP2 SWAP1 PUSH2 0x2924 JUMP JUMPDEST PUSH1 0xF8 SHL SWAP6 POP JUMPDEST DUP3 PUSH1 0x6 ADD PUSH0 DUP8 PUSH31 0xFFFFFFFFFFFFFFFFFFFFFFFFFFFFFFFFFFFFFFFFFFFFFFFFFFFFFFFFFFFFFF NOT AND PUSH31 0xFFFFFFFFFFFFFFFFFFFFFFFFFFFFFFFFFFFFFFFFFFFFFFFFFFFFFFFFFFFFFF NOT AND DUP2 MSTORE PUSH1 0x20 ADD SWAP1 DUP2 MSTORE PUSH1 0x20 ADD PUSH0 KECCAK256 PUSH0 SWAP1 SLOAD SWAP1 PUSH2 0x100 EXP SWAP1 DIV PUSH1 0xFF AND ISZERO PUSH2 0x77C JUMPI PUSH1 0x40 MLOAD PUSH32 0x8C379A000000000000000000000000000000000000000000000000000000000 DUP2 MSTORE PUSH1 0x4 ADD PUSH2 0x773 SWAP1 PUSH2 0x29A2 JUMP JUMPDEST PUSH1 0x40 MLOAD DUP1 SWAP2 SUB SWAP1 REVERT JUMPDEST PUSH2 0x78A DUP4 PUSH0 ADD DUP4 CALLER DUP10 PUSH2 0x11CA JUMP JUMPDEST TIMESTAMP DUP4 PUSH1 0x7 ADD DUP2 SWAP1 SSTORE POP PUSH2 0x12C DUP3 PUSH1 0x1 ADD SLOAD TIMESTAMP PUSH2 0x7A6 SWAP2 SWAP1 PUSH2 0x29C0 JUMP JUMPDEST GT DUP1 PUSH2 0x7D8 JUMPI POP DUP3 PUSH1 0x1 ADD PUSH1 0x17 SWAP1 SLOAD SWAP1 PUSH2 0x100 EXP SWAP1 DIV PUSH1 0xFF AND PUSH1 0xFF AND DUP3 PUSH1 0x2 ADD PUSH0 SWAP1 SLOAD SWAP1 PUSH2 0x100 EXP SWAP1 DIV PUSH1 0xFF AND PUSH1 0xFF AND EQ JUMPDEST ISZERO PUSH2 0x7E7 JUMPI PUSH2 0x7E6 DUP4 PUSH2 0x141D JUMP JUMPDEST JUMPDEST POP POP POP POP POP POP POP JUMP JUMPDEST DUP1 PUSH1 0x1 ISZERO ISZERO PUSH1 0x5B DUP3 PUSH1 0x40 MLOAD PUSH2 0x805 SWAP2 SWAP1 PUSH2 0x271B JUMP JUMPDEST SWAP1 DUP2 MSTORE PUSH1 0x20 ADD PUSH1 0x40 MLOAD DUP1 SWAP2 SUB SWAP1 KECCAK256 PUSH1 0x1 ADD PUSH1 0x1 SWAP1 SLOAD SWAP1 PUSH2 0x100 EXP SWAP1 DIV PUSH1 0xFF AND ISZERO ISZERO EQ PUSH2 0x866 JUMPI PUSH1 0x40 MLOAD PUSH32 0x8C379A000000000000000000000000000000000000000000000000000000000 DUP2 MSTORE PUSH1 0x4 ADD PUSH2 0x85D SWAP1 PUSH2 0x277B JUMP JUMPDEST PUSH1 0x40 MLOAD DUP1 SWAP2 SUB SWAP1 REVERT JUMPDEST PUSH0 PUSH1 0x5B DUP4 PUSH1 0x40 MLOAD PUSH2 0x877 SWAP2 SWAP1 PUSH2 0x271B JUMP JUMPDEST SWAP1 DUP2 MSTORE PUSH1 0x20 ADD PUSH1 0x40 MLOAD DUP1 SWAP2 SUB SWAP1 KECCAK256 SWAP1 POP DUP1 PUSH1 0x1 ADD PUSH1 0x16 SWAP1 SLOAD SWAP1 PUSH2 0x100 EXP SWAP1 DIV PUSH1 0xFF AND PUSH1 0xFF AND DUP2 PUSH1 0x1 ADD PUSH1 0x17 SWAP1 SLOAD SWAP1 PUSH2 0x100 EXP SWAP1 DIV PUSH1 0xFF AND PUSH1 0xFF AND LT PUSH2 0x8F1 JUMPI PUSH1 0x40 MLOAD PUSH32 0x8C379A000000000000000000000000000000000000000000000000000000000 DUP2 MSTORE PUSH1 0x4 ADD PUSH2 0x8E8 SWAP1 PUSH2 0x2A3D JUMP JUMPDEST PUSH1 0x40 MLOAD DUP1 SWAP2 SUB SWAP1 REVERT JUMPDEST DUP1 PUSH1 0x2 ADD PUSH0 CALLER PUSH20 0xFFFFFFFFFFFFFFFFFFFFFFFFFFFFFFFFFFFFFFFF AND PUSH20 0xFFFFFFFFFFFFFFFFFFFFFFFFFFFFFFFFFFFFFFFF AND DUP2 MSTORE PUSH1 0x20 ADD SWAP1 DUP2 MSTORE PUSH1 0x20 ADD PUSH0 KECCAK256 PUSH0 SWAP1 SLOAD SWAP1 PUSH2 0x100 EXP SWAP1 DIV PUSH1 0xFF AND ISZERO PUSH2 0x97D JUMPI PUSH1 0x40 MLOAD PUSH32 0x8C379A000000000000000000000000000000000000000000000000000000000 DUP2 MSTORE PUSH1 0x4 ADD PUSH2 0x974 SWAP1 PUSH2 0x2AA5 JUMP JUMPDEST PUSH1 0x40 MLOAD DUP1 SWAP2 SUB SWAP1 REVERT JUMPDEST PUSH1 0x1 DUP2 PUSH1 0x2 ADD PUSH0 CALLER PUSH20 0xFFFFFFFFFFFFFFFFFFFFFFFFFFFFFFFFFFFFFFFF AND PUSH20 0xFFFFFFFFFFFFFFFFFFFFFFFFFFFFFFFFFFFFFFFF AND DUP2 MSTORE PUSH1 0x20 ADD SWAP1 DUP2 MSTORE PUSH1 0x20 ADD PUSH0 KECCAK256 PUSH0 PUSH2 0x100 EXP DUP2 SLOAD DUP2 PUSH1 0xFF MUL NOT AND SWAP1 DUP4 ISZERO ISZERO MUL OR SWAP1 SSTORE POP CALLER PUSH20 0xFFFFFFFFFFFFFFFFFFFFFFFFFFFFFFFFFFFFFFFF AND DUP4 PUSH1 0x40 MLOAD PUSH2 0x9F9 SWAP2 SWAP1 PUSH2 0x271B JUMP JUMPDEST PUSH1 0x40 MLOAD DUP1 SWAP2 SUB SWAP1 KECCAK256 PUSH32 0x6426ED08B4816B27E58D721B4FF6FB44E6696B9D5CA257DCBD4B0576EB4DC539 PUSH1 0x40 MLOAD PUSH1 0x40 MLOAD DUP1 SWAP2 SUB SWAP1 LOG3 POP POP POP JUMP JUMPDEST PUSH1 0x5 DUP2 JUMP JUMPDEST PUSH1 0x5 DUP2 JUMP JUMPDEST PUSH1 0x6 DUP2 JUMP JUMPDEST PUSH2 0x12C DUP2 JUMP JUMPDEST PUSH2 0x384 DUP2 JUMP JUMPDEST DUP1 PUSH1 0x1 ISZERO ISZERO PUSH1 0x5B DUP3 PUSH1 0x40 MLOAD PUSH2 0xA62 SWAP2 SWAP1 PUSH2 0x271B JUMP JUMPDEST SWAP1 DUP2 MSTORE PUSH1 0x20 ADD PUSH1 0x40 MLOAD DUP1 SWAP2 SUB SWAP1 KECCAK256 PUSH1 0x1 ADD PUSH1 0x1 SWAP1 SLOAD SWAP1 PUSH2 0x100 EXP SWAP1 DIV PUSH1 0xFF AND ISZERO ISZERO EQ PUSH2 0xAC3 JUMPI PUSH1 0x40 MLOAD PUSH32 0x8C379A000000000000000000000000000000000000000000000000000000000 DUP2 MSTORE PUSH1 0x4 ADD PUSH2 0xABA SWAP1 PUSH2 0x277B JUMP JUMPDEST PUSH1 0x40 MLOAD DUP1 SWAP2 SUB SWAP1 REVERT JUMPDEST DUP2 PUSH1 0x5B DUP2 PUSH1 0x40 MLOAD PUSH2 0xAD4 SWAP2 SWAP1 PUSH2 0x271B JUMP JUMPDEST SWAP1 DUP2 MSTORE PUSH1 0x20 ADD PUSH1 0x40 MLOAD DUP1 SWAP2 SUB SWAP1 KECCAK256 PUSH1 0x2 ADD PUSH0 CALLER PUSH20 0xFFFFFFFFFFFFFFFFFFFFFFFFFFFFFFFFFFFFFFFF AND PUSH20 0xFFFFFFFFFFFFFFFFFFFFFFFFFFFFFFFFFFFFFFFF AND DUP2 MSTORE PUSH1 0x20 ADD SWAP1 DUP2 MSTORE PUSH1 0x20 ADD PUSH0 KECCAK256 PUSH0 SWAP1 SLOAD SWAP1 PUSH2 0x100 EXP SWAP1 DIV PUSH1 0xFF AND PUSH2 0xB6C JUMPI PUSH1 0x40 MLOAD PUSH32 0x8C379A000000000000000000000000000000000000000000000000000000000 DUP2 MSTORE PUSH1 0x4 ADD PUSH2 0xB63 SWAP1 PUSH2 0x2809 JUMP JUMPDEST PUSH1 0x40 MLOAD DUP1 SWAP2 SUB SWAP1 REVERT JUMPDEST PUSH0 PUSH1 0x5B DUP5 PUSH1 0x40 MLOAD PUSH2 0xB7D SWAP2 SWAP1 PUSH2 0x271B JUMP JUMPDEST SWAP1 DUP2 MSTORE PUSH1 0x20 ADD PUSH1 0x40 MLOAD DUP1 SWAP2 SUB SWAP1 KECCAK256 SWAP1 POP PUSH2 0xB97 DUP2 CALLER PUSH2 0x18DF JUMP JUMPDEST PUSH0 DUP2 PUSH1 0x1 ADD PUSH1 0x17 SWAP1 SLOAD SWAP1 PUSH2 0x100 EXP SWAP1 DIV PUSH1 0xFF AND PUSH1 0xFF AND SUB PUSH2 0xBBE JUMPI PUSH2 0xBBD DUP2 PUSH1 0x2 PUSH2 0x1B2E JUMP JUMPDEST JUMPDEST POP POP POP POP JUMP JUMPDEST DUP1 PUSH1 0x1 ISZERO ISZERO PUSH1 0x5B DUP3 PUSH1 0x40 MLOAD PUSH2 0xBD9 SWAP2 SWAP1 PUSH2 0x271B JUMP JUMPDEST SWAP1 DUP2 MSTORE PUSH1 0x20 ADD PUSH1 0x40 MLOAD DUP1 SWAP2 SUB SWAP1 KECCAK256 PUSH1 0x1 ADD PUSH1 0x1 SWAP1 SLOAD SWAP1 PUSH2 0x100 EXP SWAP1 DIV PUSH1 0xFF AND ISZERO ISZERO EQ PUSH2 0xC3A JUMPI PUSH1 0x40 MLOAD PUSH32 0x8C379A000000000000000000000000000000000000000000000000000000000 DUP2 MSTORE PUSH1 0x4 ADD PUSH2 0xC31 SWAP1 PUSH2 0x277B JUMP JUMPDEST PUSH1 0x40 MLOAD DUP1 SWAP2 SUB SWAP1 REVERT JUMPDEST PUSH0 PUSH1 0x5B DUP4 PUSH1 0x40 MLOAD PUSH2 0xC4B SWAP2 SWAP1 PUSH2 0x271B JUMP JUMPDEST SWAP1 DUP2 MSTORE PUSH1 0x20 ADD PUSH1 0x40 MLOAD DUP1 SWAP2 SUB SWAP1 KECCAK256 SWAP1 POP PUSH0 DUP2 PUSH1 0x8 ADD SWAP1 POP DUP1 PUSH0 ADD PUSH0 SWAP1 SLOAD SWAP1 PUSH2 0x100 EXP SWAP1 DIV PUSH1 0xFF AND PUSH2 0xCB1 JUMPI PUSH1 0x40 MLOAD PUSH32 0x8C379A000000000000000000000000000000000000000000000000000000000 DUP2 MSTORE PUSH1 0x4 ADD PUSH2 0xCA8 SWAP1 PUSH2 0x2B0D JUMP JUMPDEST PUSH1 0x40 MLOAD DUP1 SWAP2 SUB SWAP1 REVERT JUMPDEST PUSH2 0x12C DUP2 PUSH1 0x1 ADD SLOAD TIMESTAMP PUSH2 0xCC4 SWAP2 SWAP1 PUSH2 0x29C0 JUMP JUMPDEST GT PUSH2 0xD04 JUMPI PUSH1 0x40 MLOAD PUSH32 0x8C379A000000000000000000000000000000000000000000000000000000000 DUP2 MSTORE PUSH1 0x4 ADD PUSH2 0xCFB SWAP1 PUSH2 0x2B75 JUMP JUMPDEST PUSH1 0x40 MLOAD DUP1 SWAP2 SUB SWAP1 REVERT JUMPDEST PUSH2 0xD0D DUP3 PUSH2 0x141D JUMP JUMPDEST POP POP POP POP JUMP JUMPDEST DUP1 PUSH1 0x1 ISZERO ISZERO PUSH1 0x5B DUP3 PUSH1 0x40 MLOAD PUSH2 0xD28 SWAP2 SWAP1 PUSH2 0x271B JUMP JUMPDEST SWAP1 DUP2 MSTORE PUSH1 0x20 ADD PUSH1 0x40 MLOAD DUP1 SWAP2 SUB SWAP1 KECCAK256 PUSH1 0x1 ADD PUSH1 0x1 SWAP1 SLOAD SWAP1 PUSH2 0x100 EXP SWAP1 DIV PUSH1 0xFF AND ISZERO ISZERO EQ PUSH2 0xD89 JUMPI PUSH1 0x40 MLOAD PUSH32 0x8C379A000000000000000000000000000000000000000000000000000000000 DUP2 MSTORE PUSH1 0x4 ADD PUSH2 0xD80 SWAP1 PUSH2 0x277B JUMP JUMPDEST PUSH1 0x40 MLOAD DUP1 SWAP2 SUB SWAP1 REVERT JUMPDEST PUSH0 PUSH1 0x5B DUP4 PUSH1 0x40 MLOAD PUSH2 0xD9A SWAP2 SWAP1 PUSH2 0x271B JUMP JUMPDEST SWAP1 DUP2 MSTORE PUSH1 0x20 ADD PUSH1 0x40 MLOAD DUP1 SWAP2 SUB SWAP1 KECCAK256 SWAP1 POP CALLER PUSH20 0xFFFFFFFFFFFFFFFFFFFFFFFFFFFFFFFFFFFFFFFF AND DUP2 PUSH1 0x1 ADD PUSH1 0x2 SWAP1 SLOAD SWAP1 PUSH2 0x100 EXP SWAP1 DIV PUSH20 0xFFFFFFFFFFFFFFFFFFFFFFFFFFFFFFFFFFFFFFFF AND PUSH20 0xFFFFFFFFFFFFFFFFFFFFFFFFFFFFFFFFFFFFFFFF AND EQ DUP1 PUSH2 0xE57 JUMPI POP PUSH0 PUSH20 0xFFFFFFFFFFFFFFFFFFFFFFFFFFFFFFFFFFFFFFFF AND DUP2 PUSH1 0x1 ADD PUSH1 0x2 SWAP1 SLOAD SWAP1 PUSH2 0x100 EXP SWAP1 DIV PUSH20 0xFFFFFFFFFFFFFFFFFFFFFFFFFFFFFFFFFFFFFFFF AND PUSH20 0xFFFFFFFFFFFFFFFFFFFFFFFFFFFFFFFFFFFFFFFF AND EQ JUMPDEST PUSH2 0xE96 JUMPI PUSH1 0x40 MLOAD PUSH32 0x8C379A000000000000000000000000000000000000000000000000000000000 DUP2 MSTORE PUSH1 0x4 ADD PUSH2 0xE8D SWAP1 PUSH2 0x2C03 JUMP JUMPDEST PUSH1 0x40 MLOAD DUP1 SWAP2 SUB SWAP1 REVERT JUMPDEST PUSH2 0xEA1 DUP2 PUSH1 0x2 PUSH2 0x1B2E JUMP JUMPDEST POP POP POP JUMP JUMPDEST PUSH1 0x5B DUP3 PUSH1 0x40 MLOAD PUSH2 0xEB6 SWAP2 SWAP1 PUSH2 0x271B JUMP JUMPDEST SWAP1 DUP2 MSTORE PUSH1 0x20 ADD PUSH1 0x40 MLOAD DUP1 SWAP2 SUB SWAP1 KECCAK256 PUSH1 0x1 ADD PUSH1 0x1 SWAP1 SLOAD SWAP1 PUSH2 0x100 EXP SWAP1 DIV PUSH1 0xFF AND ISZERO PUSH2 0xF15 JUMPI PUSH1 0x40 MLOAD PUSH32 0x8C379A000000000000000000000000000000000000000000000000000000000 DUP2 MSTORE PUSH1 0x4 ADD PUSH2 0xF0C SWAP1 PUSH2 0x2C91 JUMP JUMPDEST PUSH1 0x40 MLOAD DUP1 SWAP2 SUB SWAP1 REVERT JUMPDEST PUSH0 DUP2 PUSH1 0xFF AND GT DUP1 ISZERO PUSH2 0xF2E JUMPI POP PUSH1 0x5 PUSH1 0xFF AND DUP2 PUSH1 0xFF AND GT ISZERO JUMPDEST PUSH2 0xF6D JUMPI PUSH1 0x40 MLOAD PUSH32 0x8C379A000000000000000000000000000000000000000000000000000000000 DUP2 MSTORE PUSH1 0x4 ADD PUSH2 0xF64 SWAP1 PUSH2 0x2D1F JUMP JUMPDEST PUSH1 0x40 MLOAD DUP1 SWAP2 SUB SWAP1 REVERT JUMPDEST PUSH0 PUSH2 0xF76 PUSH2 0x1CB2 JUMP JUMPDEST SWAP1 POP PUSH1 0x5 PUSH1 0xFF AND DUP2 PUSH1 0xFF AND LT PUSH2 0xFC1 JUMPI PUSH1 0x40 MLOAD PUSH32 0x8C379A000000000000000000000000000000000000000000000000000000000 DUP2 MSTORE PUSH1 0x4 ADD PUSH2 0xFB8 SWAP1 PUSH2 0x2D87 JUMP JUMPDEST PUSH1 0x40 MLOAD DUP1 SWAP2 SUB SWAP1 REVERT JUMPDEST PUSH0 PUSH1 0x1 DUP3 PUSH1 0xFF AND PUSH1 0x5 DUP2 LT PUSH2 0xFD9 JUMPI PUSH2 0xFD8 PUSH2 0x2DA5 JUMP JUMPDEST JUMPDEST PUSH1 0x12 MUL ADD SWAP1 POP DUP4 DUP2 PUSH0 ADD SWAP1 DUP2 PUSH2 0xFEF SWAP2 SWAP1 PUSH2 0x2F6F JUMP JUMPDEST POP DUP2 DUP2 PUSH1 0x1 ADD PUSH0 PUSH2 0x100 EXP DUP2 SLOAD DUP2 PUSH1 0xFF MUL NOT AND SWAP1 DUP4 PUSH1 0xFF AND MUL OR SWAP1 SSTORE POP CALLER DUP2 PUSH1 0x1 ADD PUSH1 0x2 PUSH2 0x100 EXP DUP2 SLOAD DUP2 PUSH20 0xFFFFFFFFFFFFFFFFFFFFFFFFFFFFFFFFFFFFFFFF MUL NOT AND SWAP1 DUP4 PUSH20 0xFFFFFFFFFFFFFFFFFFFFFFFFFFFFFFFFFFFFFFFF AND MUL OR SWAP1 SSTORE POP DUP3 DUP2 PUSH1 0x1 ADD PUSH1 0x16 PUSH2 0x100 EXP DUP2 SLOAD DUP2 PUSH1 0xFF MUL NOT AND SWAP1 DUP4 PUSH1 0xFF AND MUL OR SWAP1 SSTORE POP PUSH0 TIMESTAMP CALLER PUSH1 0x40 MLOAD PUSH1 0x20 ADD PUSH2 0x1080 SWAP3 SWAP2 SWAP1 PUSH2 0x30D3 JUMP JUMPDEST PUSH1 0x40 MLOAD PUSH1 0x20 DUP2 DUP4 SUB SUB DUP2 MSTORE SWAP1 PUSH1 0x40 MSTORE DUP1 MLOAD SWAP1 PUSH1 0x20 ADD KECCAK256 PUSH0 SHR SWAP1 POP PUSH0 DUP1 DUP1 SLOAD SWAP1 POP DUP3 PUSH2 0x10AB SWAP2 SWAP1 PUSH2 0x312B JUMP JUMPDEST DUP2 SLOAD DUP2 LT PUSH2 0x10BC JUMPI PUSH2 0x10BB PUSH2 0x2DA5 JUMP JUMPDEST JUMPDEST SWAP1 PUSH0 MSTORE PUSH1 0x20 PUSH0 KECCAK256 ADD DUP3 PUSH1 0x3 ADD SWAP1 DUP2 PUSH2 0x10D4 SWAP2 SWAP1 PUSH2 0x3182 JUMP JUMPDEST POP DUP2 PUSH1 0x3 ADD DUP1 SLOAD PUSH2 0x10E4 SWAP1 PUSH2 0x26B1 JUMP JUMPDEST SWAP1 POP PUSH8 0xFFFFFFFFFFFFFFFF DUP2 GT ISZERO PUSH2 0x10FF JUMPI PUSH2 0x10FE PUSH2 0x238A JUMP JUMPDEST JUMPDEST PUSH1 0x40 MLOAD SWAP1 DUP1 DUP3 MSTORE DUP1 PUSH1 0x20 MUL PUSH1 0x20 ADD DUP3 ADD PUSH1 0x40 MSTORE DUP1 ISZERO PUSH2 0x112D JUMPI DUP2 PUSH1 0x20 ADD PUSH1 0x20 DUP3 MUL DUP1 CALLDATASIZE DUP4 CALLDATACOPY DUP1 DUP3 ADD SWAP2 POP POP SWAP1 POP JUMPDEST POP DUP3 PUSH1 0x4 ADD SWAP1 DUP1 MLOAD SWAP1 PUSH1 0x20 ADD SWAP1 PUSH2 0x1145 SWAP3 SWAP2 SWAP1 PUSH2 0x2147 JUMP JUMPDEST POP TIMESTAMP DUP3 PUSH1 0x7 ADD DUP2 SWAP1 SSTORE POP PUSH1 0x1 DUP3 PUSH1 0x1 ADD PUSH1 0x1 PUSH2 0x100 EXP DUP2 SLOAD DUP2 PUSH1 0xFF MUL NOT AND SWAP1 DUP4 ISZERO ISZERO MUL OR SWAP1 SSTORE POP DUP5 PUSH1 0x40 MLOAD PUSH2 0x117A SWAP2 SWAP1 PUSH2 0x271B JUMP JUMPDEST PUSH1 0x40 MLOAD DUP1 SWAP2 SUB SWAP1 KECCAK256 PUSH32 0xA0048D71A81BD0849AD071DD103D646A72B493A92A1CDF4CB7C13CF30F577DF DUP6 PUSH1 0x40 MLOAD PUSH2 0x11B1 SWAP2 SWAP1 PUSH2 0x25BF JUMP JUMPDEST PUSH1 0x40 MLOAD DUP1 SWAP2 SUB SWAP1 LOG2 PUSH2 0x11C3 DUP3 CALLER PUSH2 0x1D4D JUMP JUMPDEST POP POP POP POP POP JUMP JUMPDEST DUP2 DUP4 PUSH1 0x3 ADD DUP5 PUSH1 0x2 ADD PUSH0 SWAP1 SLOAD SWAP1 PUSH2 0x100 EXP SWAP1 DIV PUSH1 0xFF AND PUSH1 0xFF AND PUSH1 0x5 DUP2 LT PUSH2 0x11F4 JUMPI PUSH2 0x11F3 PUSH2 0x2DA5 JUMP JUMPDEST JUMPDEST ADD PUSH0 PUSH2 0x100 EXP DUP2 SLOAD DUP2 PUSH20 0xFFFFFFFFFFFFFFFFFFFFFFFFFFFFFFFFFFFFFFFF MUL NOT AND SWAP1 DUP4 PUSH20 0xFFFFFFFFFFFFFFFFFFFFFFFFFFFFFFFFFFFFFFFF AND MUL OR SWAP1 SSTORE POP DUP1 DUP4 PUSH1 0x8 ADD PUSH0 DUP5 PUSH20 0xFFFFFFFFFFFFFFFFFFFFFFFFFFFFFFFFFFFFFFFF AND PUSH20 0xFFFFFFFFFFFFFFFFFFFFFFFFFFFFFFFFFFFFFFFF AND DUP2 MSTORE PUSH1 0x20 ADD SWAP1 DUP2 MSTORE PUSH1 0x20 ADD PUSH0 KECCAK256 PUSH0 PUSH2 0x100 EXP DUP2 SLOAD DUP2 PUSH1 0xFF MUL NOT AND SWAP1 DUP4 PUSH1 0xF8 SHR MUL OR SWAP1 SSTORE POP PUSH1 0x1 DUP4 PUSH1 0x9 ADD PUSH0 DUP4 PUSH31 0xFFFFFFFFFFFFFFFFFFFFFFFFFFFFFFFFFFFFFFFFFFFFFFFFFFFFFFFFFFFFFF NOT AND PUSH31 0xFFFFFFFFFFFFFFFFFFFFFFFFFFFFFFFFFFFFFFFFFFFFFFFFFFFFFFFFFFFFFF NOT AND DUP2 MSTORE PUSH1 0x20 ADD SWAP1 DUP2 MSTORE PUSH1 0x20 ADD PUSH0 KECCAK256 PUSH0 DUP3 DUP3 DUP3 SWAP1 SLOAD SWAP1 PUSH2 0x100 EXP SWAP1 DIV PUSH1 0xFF AND PUSH2 0x12FC SWAP2 SWAP1 PUSH2 0x3267 JUMP JUMPDEST SWAP3 POP PUSH2 0x100 EXP DUP2 SLOAD DUP2 PUSH1 0xFF MUL NOT AND SWAP1 DUP4 PUSH1 0xFF AND MUL OR SWAP1 SSTORE POP PUSH1 0x1 DUP4 PUSH1 0x2 ADD PUSH0 DUP3 DUP3 DUP3 SWAP1 SLOAD SWAP1 PUSH2 0x100 EXP SWAP1 DIV PUSH1 0xFF AND PUSH2 0x1334 SWAP2 SWAP1 PUSH2 0x3267 JUMP JUMPDEST SWAP3 POP PUSH2 0x100 EXP DUP2 SLOAD DUP2 PUSH1 0xFF MUL NOT AND SWAP1 DUP4 PUSH1 0xFF AND MUL OR SWAP1 SSTORE POP DUP3 PUSH0 ADD PUSH0 SWAP1 SLOAD SWAP1 PUSH2 0x100 EXP SWAP1 DIV PUSH1 0xFF AND PUSH2 0x13C7 JUMPI PUSH1 0x1 DUP4 PUSH0 ADD PUSH0 PUSH2 0x100 EXP DUP2 SLOAD DUP2 PUSH1 0xFF MUL NOT AND SWAP1 DUP4 ISZERO ISZERO MUL OR SWAP1 SSTORE POP TIMESTAMP DUP4 PUSH1 0x1 ADD DUP2 SWAP1 SSTORE POP DUP4 PUSH1 0x40 MLOAD PUSH2 0x1392 SWAP2 SWAP1 PUSH2 0x331B JUMP JUMPDEST PUSH1 0x40 MLOAD DUP1 SWAP2 SUB SWAP1 KECCAK256 PUSH32 0xC39EB03DC11D6BBEB3B818B739E4478F7874C1F803D2E603CC7D7A45045CB68D PUSH1 0x40 MLOAD PUSH1 0x40 MLOAD DUP1 SWAP2 SUB SWAP1 LOG2 JUMPDEST DUP2 PUSH20 0xFFFFFFFFFFFFFFFFFFFFFFFFFFFFFFFFFFFFFFFF AND PUSH32 0xE1BE499D3000B42A54F5BE9B908B831FBED5DA7F8431EE79B82A3FA6D092781E DUP6 DUP4 PUSH1 0x40 MLOAD PUSH2 0x140F SWAP3 SWAP2 SWAP1 PUSH2 0x33C1 JUMP JUMPDEST PUSH1 0x40 MLOAD DUP1 SWAP2 SUB SWAP1 LOG2 POP POP POP POP JUMP JUMPDEST PUSH0 DUP2 PUSH1 0x8 ADD SWAP1 POP PUSH0 DUP1 PUSH1 0xF8 SHL SWAP1 POP PUSH0 PUSH1 0x1 SWAP1 POP PUSH0 DUP1 PUSH0 JUMPDEST DUP6 PUSH1 0x2 ADD PUSH0 SWAP1 SLOAD SWAP1 PUSH2 0x100 EXP SWAP1 DIV PUSH1 0xFF AND PUSH1 0xFF AND DUP2 LT ISZERO PUSH2 0x155C JUMPI PUSH0 DUP7 PUSH1 0x8 ADD PUSH0 DUP9 PUSH1 0x3 ADD DUP5 PUSH1 0x5 DUP2 LT PUSH2 0x146B JUMPI PUSH2 0x146A PUSH2 0x2DA5 JUMP JUMPDEST JUMPDEST ADD PUSH0 SWAP1 SLOAD SWAP1 PUSH2 0x100 EXP SWAP1 DIV PUSH20 0xFFFFFFFFFFFFFFFFFFFFFFFFFFFFFFFFFFFFFFFF AND PUSH20 0xFFFFFFFFFFFFFFFFFFFFFFFFFFFFFFFFFFFFFFFF AND PUSH20 0xFFFFFFFFFFFFFFFFFFFFFFFFFFFFFFFFFFFFFFFF AND DUP2 MSTORE PUSH1 0x20 ADD SWAP1 DUP2 MSTORE PUSH1 0x20 ADD PUSH0 KECCAK256 PUSH0 SWAP1 SLOAD SWAP1 PUSH2 0x100 EXP SWAP1 DIV PUSH1 0xF8 SHL SWAP1 POP PUSH0 DUP8 PUSH1 0x9 ADD PUSH0 DUP4 PUSH31 0xFFFFFFFFFFFFFFFFFFFFFFFFFFFFFFFFFFFFFFFFFFFFFFFFFFFFFFFFFFFFFF NOT AND PUSH31 0xFFFFFFFFFFFFFFFFFFFFFFFFFFFFFFFFFFFFFFFFFFFFFFFFFFFFFFFFFFFFFF NOT AND DUP2 MSTORE PUSH1 0x20 ADD SWAP1 DUP2 MSTORE PUSH1 0x20 ADD PUSH0 KECCAK256 PUSH0 SWAP1 SLOAD SWAP1 PUSH2 0x100 EXP SWAP1 DIV PUSH1 0xFF AND SWAP1 POP DUP4 PUSH1 0xFF AND DUP2 PUSH1 0xFF AND GT ISZERO PUSH2 0x154D JUMPI DUP2 SWAP7 POP JUMPDEST POP POP DUP1 DUP1 PUSH1 0x1 ADD SWAP2 POP POP PUSH2 0x1434 JUMP JUMPDEST POP PUSH0 DUP7 PUSH1 0x3 ADD DUP1 SLOAD PUSH2 0x156D SWAP1 PUSH2 0x26B1 JUMP JUMPDEST DUP1 PUSH1 0x1F ADD PUSH1 0x20 DUP1 SWAP2 DIV MUL PUSH1 0x20 ADD PUSH1 0x40 MLOAD SWAP1 DUP2 ADD PUSH1 0x40 MSTORE DUP1 SWAP3 SWAP2 SWAP1 DUP2 DUP2 MSTORE PUSH1 0x20 ADD DUP3 DUP1 SLOAD PUSH2 0x1599 SWAP1 PUSH2 0x26B1 JUMP JUMPDEST DUP1 ISZERO PUSH2 0x15E4 JUMPI DUP1 PUSH1 0x1F LT PUSH2 0x15BB JUMPI PUSH2 0x100 DUP1 DUP4 SLOAD DIV MUL DUP4 MSTORE SWAP2 PUSH1 0x20 ADD SWAP2 PUSH2 0x15E4 JUMP JUMPDEST DUP3 ADD SWAP2 SWAP1 PUSH0 MSTORE PUSH1 0x20 PUSH0 KECCAK256 SWAP1 JUMPDEST DUP2 SLOAD DUP2 MSTORE SWAP1 PUSH1 0x1 ADD SWAP1 PUSH1 0x20 ADD DUP1 DUP4 GT PUSH2 0x15C7 JUMPI DUP3 SWAP1 SUB PUSH1 0x1F AND DUP3 ADD SWAP2 JUMPDEST POP POP POP POP POP SWAP1 POP PUSH0 JUMPDEST DUP2 MLOAD DUP2 LT ISZERO PUSH2 0x17C1 JUMPI DUP6 PUSH31 0xFFFFFFFFFFFFFFFFFFFFFFFFFFFFFFFFFFFFFFFFFFFFFFFFFFFFFFFFFFFFFF NOT AND DUP3 DUP3 DUP2 MLOAD DUP2 LT PUSH2 0x162C JUMPI PUSH2 0x162B PUSH2 0x2DA5 JUMP JUMPDEST JUMPDEST PUSH1 0x20 ADD ADD MLOAD PUSH1 0xF8 SHR PUSH1 0xF8 SHL PUSH31 0xFFFFFFFFFFFFFFFFFFFFFFFFFFFFFFFFFFFFFFFFFFFFFFFFFFFFFFFFFFFFFF NOT AND SUB PUSH2 0x1715 JUMPI PUSH1 0x1 DUP9 PUSH1 0x6 ADD PUSH0 DUP9 PUSH31 0xFFFFFFFFFFFFFFFFFFFFFFFFFFFFFFFFFFFFFFFFFFFFFFFFFFFFFFFFFFFFFF NOT AND PUSH31 0xFFFFFFFFFFFFFFFFFFFFFFFFFFFFFFFFFFFFFFFFFFFFFFFFFFFFFFFFFFFFFF NOT AND DUP2 MSTORE PUSH1 0x20 ADD SWAP1 DUP2 MSTORE PUSH1 0x20 ADD PUSH0 KECCAK256 PUSH0 PUSH2 0x100 EXP DUP2 SLOAD DUP2 PUSH1 0xFF MUL NOT AND SWAP1 DUP4 ISZERO ISZERO MUL OR SWAP1 SSTORE POP PUSH1 0x1 DUP9 PUSH1 0x4 ADD DUP3 DUP2 SLOAD DUP2 LT PUSH2 0x16E5 JUMPI PUSH2 0x16E4 PUSH2 0x2DA5 JUMP JUMPDEST JUMPDEST SWAP1 PUSH0 MSTORE PUSH1 0x20 PUSH0 KECCAK256 SWAP1 PUSH1 0x20 SWAP2 DUP3 DUP3 DIV ADD SWAP2 SWAP1 MOD PUSH2 0x100 EXP DUP2 SLOAD DUP2 PUSH1 0xFF MUL NOT AND SWAP1 DUP4 ISZERO ISZERO MUL OR SWAP1 SSTORE POP PUSH1 0x1 SWAP4 POP PUSH2 0x17B4 JUMP JUMPDEST DUP8 PUSH1 0x4 ADD DUP2 DUP2 SLOAD DUP2 LT PUSH2 0x172B JUMPI PUSH2 0x172A PUSH2 0x2DA5 JUMP JUMPDEST JUMPDEST SWAP1 PUSH0 MSTORE PUSH1 0x20 PUSH0 KECCAK256 SWAP1 PUSH1 0x20 SWAP2 DUP3 DUP3 DIV ADD SWAP2 SWAP1 MOD SWAP1 SLOAD SWAP1 PUSH2 0x100 EXP SWAP1 DIV PUSH1 0xFF AND PUSH2 0x17B3 JUMPI PUSH32 0x5F00000000000000000000000000000000000000000000000000000000000000 DUP3 DUP3 DUP2 MLOAD DUP2 LT PUSH2 0x1781 JUMPI PUSH2 0x1780 PUSH2 0x2DA5 JUMP JUMPDEST JUMPDEST PUSH1 0x20 ADD ADD SWAP1 PUSH31 0xFFFFFFFFFFFFFFFFFFFFFFFFFFFFFFFFFFFFFFFFFFFFFFFFFFFFFFFFFFFFFF NOT AND SWAP1 DUP2 PUSH0 BYTE SWAP1 MSTORE8 POP PUSH0 SWAP5 POP JUMPDEST JUMPDEST DUP1 DUP1 PUSH1 0x1 ADD SWAP2 POP POP PUSH2 0x15ED JUMP JUMPDEST POP DUP7 PUSH1 0x8 ADD PUSH0 DUP1 DUP3 ADD PUSH0 PUSH2 0x100 EXP DUP2 SLOAD SWAP1 PUSH1 0xFF MUL NOT AND SWAP1 SSTORE PUSH1 0x1 DUP3 ADD PUSH0 SWAP1 SSTORE PUSH1 0x2 DUP3 ADD PUSH0 PUSH2 0x100 EXP DUP2 SLOAD SWAP1 PUSH1 0xFF MUL NOT AND SWAP1 SSTORE PUSH1 0x3 DUP3 ADD PUSH0 PUSH2 0x1802 SWAP2 SWAP1 PUSH2 0x21E8 JUMP JUMPDEST POP POP DUP7 PUSH0 ADD PUSH1 0x40 MLOAD PUSH2 0x1814 SWAP2 SWAP1 PUSH2 0x346F JUMP JUMPDEST PUSH1 0x40 MLOAD DUP1 SWAP2 SUB SWAP1 KECCAK256 PUSH32 0x93484660649CF971864763C1BC0E0D0F5D7FDCEEB388472825D299F8283268DE DUP7 DUP4 DUP7 ISZERO PUSH1 0x40 MLOAD PUSH2 0x1850 SWAP4 SWAP3 SWAP2 SWAP1 PUSH2 0x349F JUMP JUMPDEST PUSH1 0x40 MLOAD DUP1 SWAP2 SUB SWAP1 LOG2 DUP3 PUSH2 0x18C4 JUMPI PUSH1 0x1 DUP8 PUSH1 0x5 ADD PUSH0 DUP3 DUP3 DUP3 SWAP1 SLOAD SWAP1 PUSH2 0x100 EXP SWAP1 DIV PUSH1 0xFF AND PUSH2 0x187D SWAP2 SWAP1 PUSH2 0x3267 JUMP JUMPDEST SWAP3 POP PUSH2 0x100 EXP DUP2 SLOAD DUP2 PUSH1 0xFF MUL NOT AND SWAP1 DUP4 PUSH1 0xFF AND MUL OR SWAP1 SSTORE POP PUSH1 0x6 PUSH1 0xFF AND DUP8 PUSH1 0x5 ADD PUSH0 SWAP1 SLOAD SWAP1 PUSH2 0x100 EXP SWAP1 DIV PUSH1 0xFF AND PUSH1 0xFF AND SUB PUSH2 0x18BF JUMPI PUSH2 0x18BE DUP8 PUSH1 0x1 PUSH2 0x1B2E JUMP JUMPDEST JUMPDEST PUSH2 0x18D6 JUMP JUMPDEST DUP4 ISZERO PUSH2 0x18D5 JUMPI PUSH2 0x18D4 DUP8 PUSH0 PUSH2 0x1B2E JUMP JUMPDEST JUMPDEST JUMPDEST POP POP POP POP POP POP POP JUMP JUMPDEST PUSH0 DUP3 PUSH1 0x2 ADD PUSH0 DUP4 PUSH20 0xFFFFFFFFFFFFFFFFFFFFFFFFFFFFFFFFFFFFFFFF AND PUSH20 0xFFFFFFFFFFFFFFFFFFFFFFFFFFFFFFFFFFFFFFFF AND DUP2 MSTORE PUSH1 0x20 ADD SWAP1 DUP2 MSTORE PUSH1 0x20 ADD PUSH0 KECCAK256 PUSH0 PUSH2 0x100 EXP DUP2 SLOAD DUP2 PUSH1 0xFF MUL NOT AND SWAP1 DUP4 ISZERO ISZERO MUL OR SWAP1 SSTORE POP PUSH1 0x1 DUP3 PUSH1 0x1 ADD PUSH1 0x17 DUP3 DUP3 DUP3 SWAP1 SLOAD SWAP1 PUSH2 0x100 EXP SWAP1 DIV PUSH1 0xFF AND PUSH2 0x1956 SWAP2 SWAP1 PUSH2 0x2924 JUMP JUMPDEST SWAP3 POP PUSH2 0x100 EXP DUP2 SLOAD DUP2 PUSH1 0xFF MUL NOT AND SWAP1 DUP4 PUSH1 0xFF AND MUL OR SWAP1 SSTORE POP PUSH0 DUP3 PUSH1 0x8 ADD SWAP1 POP PUSH0 DUP4 PUSH1 0x1 ADD PUSH1 0x17 SWAP1 SLOAD SWAP1 PUSH2 0x100 EXP SWAP1 DIV PUSH1 0xFF AND PUSH1 0xFF AND GT DUP1 ISZERO PUSH2 0x19A4 JUMPI POP DUP1 PUSH0 ADD PUSH0 SWAP1 SLOAD SWAP1 PUSH2 0x100 EXP SWAP1 DIV PUSH1 0xFF AND JUMPDEST DUP1 ISZERO PUSH2 0x1A20 JUMPI POP PUSH0 PUSH1 0xF8 SHL DUP2 PUSH1 0x8 ADD PUSH0 DUP5 PUSH20 0xFFFFFFFFFFFFFFFFFFFFFFFFFFFFFFFFFFFFFFFF AND PUSH20 0xFFFFFFFFFFFFFFFFFFFFFFFFFFFFFFFFFFFFFFFF AND DUP2 MSTORE PUSH1 0x20 ADD SWAP1 DUP2 MSTORE PUSH1 0x20 ADD PUSH0 KECCAK256 PUSH0 SWAP1 SLOAD SWAP1 PUSH2 0x100 EXP SWAP1 DIV PUSH1 0xF8 SHL PUSH31 0xFFFFFFFFFFFFFFFFFFFFFFFFFFFFFFFFFFFFFFFFFFFFFFFFFFFFFFFFFFFFFF NOT AND EQ ISZERO JUMPDEST ISZERO PUSH2 0x1A33 JUMPI PUSH2 0x1A32 DUP4 PUSH0 ADD DUP3 DUP5 PUSH2 0x1DE1 JUMP JUMPDEST JUMPDEST DUP2 PUSH20 0xFFFFFFFFFFFFFFFFFFFFFFFFFFFFFFFFFFFFFFFF AND DUP4 PUSH1 0x1 ADD PUSH1 0x2 SWAP1 SLOAD SWAP1 PUSH2 0x100 EXP SWAP1 DIV PUSH20 0xFFFFFFFFFFFFFFFFFFFFFFFFFFFFFFFFFFFFFFFF AND PUSH20 0xFFFFFFFFFFFFFFFFFFFFFFFFFFFFFFFFFFFFFFFF AND SUB PUSH2 0x1ACE JUMPI PUSH0 DUP4 PUSH1 0x1 ADD PUSH1 0x2 PUSH2 0x100 EXP DUP2 SLOAD DUP2 PUSH20 0xFFFFFFFFFFFFFFFFFFFFFFFFFFFFFFFFFFFFFFFF MUL NOT AND SWAP1 DUP4 PUSH20 0xFFFFFFFFFFFFFFFFFFFFFFFFFFFFFFFFFFFFFFFF AND MUL OR SWAP1 SSTORE POP JUMPDEST DUP2 PUSH20 0xFFFFFFFFFFFFFFFFFFFFFFFFFFFFFFFFFFFFFFFF AND DUP4 PUSH0 ADD PUSH1 0x40 MLOAD PUSH2 0x1AF5 SWAP2 SWAP1 PUSH2 0x346F JUMP JUMPDEST PUSH1 0x40 MLOAD DUP1 SWAP2 SUB SWAP1 KECCAK256 PUSH32 0xE3C5754D381588D73ABE5A3EA491352AE6599BC3517832567C983A64F1FCB85B PUSH1 0x40 MLOAD PUSH1 0x40 MLOAD DUP1 SWAP2 SUB SWAP1 LOG3 POP POP POP JUMP JUMPDEST DUP2 PUSH0 ADD PUSH1 0x40 MLOAD PUSH2 0x1B3E SWAP2 SWAP1 PUSH2 0x346F JUMP JUMPDEST PUSH1 0x40 MLOAD DUP1 SWAP2 SUB SWAP1 KECCAK256 PUSH32 0x3D40BF146111CF2FB1681F012B4CED47C0260037F37AC76366766D0D20E1689D DUP3 DUP5 PUSH1 0x3 ADD PUSH1 0x40 MLOAD PUSH2 0x1B7A SWAP3 SWAP2 SWAP1 PUSH2 0x35CF JUMP JUMPDEST PUSH1 0x40 MLOAD DUP1 SWAP2 SUB SWAP1 LOG2 PUSH1 0x1 DUP3 PUSH1 0x1 ADD PUSH0 SWAP1 SLOAD SWAP1 PUSH2 0x100 EXP SWAP1 DIV PUSH1 0xFF AND PUSH1 0xFF AND PUSH1 0x5 DUP2 LT PUSH2 0x1BA9 JUMPI PUSH2 0x1BA8 PUSH2 0x2DA5 JUMP JUMPDEST JUMPDEST PUSH1 0x12 MUL ADD PUSH0 DUP1 DUP3 ADD PUSH0 PUSH2 0x1BBC SWAP2 SWAP1 PUSH2 0x2206 JUMP JUMPDEST PUSH1 0x1 DUP3 ADD PUSH0 PUSH2 0x100 EXP DUP2 SLOAD SWAP1 PUSH1 0xFF MUL NOT AND SWAP1 SSTORE PUSH1 0x1 DUP3 ADD PUSH1 0x1 PUSH2 0x100 EXP DUP2 SLOAD SWAP1 PUSH1 0xFF MUL NOT AND SWAP1 SSTORE PUSH1 0x1 DUP3 ADD PUSH1 0x2 PUSH2 0x100 EXP DUP2 SLOAD SWAP1 PUSH20 0xFFFFFFFFFFFFFFFFFFFFFFFFFFFFFFFFFFFFFFFF MUL NOT AND SWAP1 SSTORE PUSH1 0x1 DUP3 ADD PUSH1 0x16 PUSH2 0x100 EXP DUP2 SLOAD SWAP1 PUSH1 0xFF MUL NOT AND SWAP1 SSTORE PUSH1 0x1 DUP3 ADD PUSH1 0x17 PUSH2 0x100 EXP DUP2 SLOAD SWAP1 PUSH1 0xFF MUL NOT AND SWAP1 SSTORE PUSH1 0x3 DUP3 ADD PUSH0 PUSH2 0x1C41 SWAP2 SWAP1 PUSH2 0x2206 JUMP JUMPDEST PUSH1 0x4 DUP3 ADD PUSH0 PUSH2 0x1C50 SWAP2 SWAP1 PUSH2 0x2243 JUMP JUMPDEST PUSH1 0x5 DUP3 ADD PUSH0 PUSH2 0x100 EXP DUP2 SLOAD SWAP1 PUSH1 0xFF MUL NOT AND SWAP1 SSTORE PUSH1 0x7 DUP3 ADD PUSH0 SWAP1 SSTORE PUSH1 0x8 DUP3 ADD PUSH0 DUP1 DUP3 ADD PUSH0 PUSH2 0x100 EXP DUP2 SLOAD SWAP1 PUSH1 0xFF MUL NOT AND SWAP1 SSTORE PUSH1 0x1 DUP3 ADD PUSH0 SWAP1 SSTORE PUSH1 0x2 DUP3 ADD PUSH0 PUSH2 0x100 EXP DUP2 SLOAD SWAP1 PUSH1 0xFF MUL NOT AND SWAP1 SSTORE PUSH1 0x3 DUP3 ADD PUSH0 PUSH2 0x1CAA SWAP2 SWAP1 PUSH2 0x21E8 JUMP JUMPDEST POP POP POP POP POP POP JUMP JUMPDEST PUSH0 DUP1 PUSH0 SWAP1 POP JUMPDEST PUSH1 0x5 DUP2 PUSH1 0xFF AND LT ISZERO PUSH2 0x1D44 JUMPI PUSH0 PUSH1 0x1 DUP3 PUSH1 0xFF AND PUSH1 0x5 DUP2 LT PUSH2 0x1CDC JUMPI PUSH2 0x1CDB PUSH2 0x2DA5 JUMP JUMPDEST JUMPDEST PUSH1 0x12 MUL ADD SWAP1 POP DUP1 PUSH1 0x1 ADD PUSH1 0x1 SWAP1 SLOAD SWAP1 PUSH2 0x100 EXP SWAP1 DIV PUSH1 0xFF AND PUSH2 0x1D02 JUMPI DUP2 SWAP3 POP POP POP PUSH2 0x1D4A JUMP JUMPDEST PUSH2 0x384 DUP2 PUSH1 0x7 ADD SLOAD TIMESTAMP PUSH2 0x1D15 SWAP2 SWAP1 PUSH2 0x29C0 JUMP JUMPDEST GT ISZERO PUSH2 0x1D30 JUMPI PUSH2 0x1D26 DUP2 PUSH1 0x2 PUSH2 0x1B2E JUMP JUMPDEST DUP2 SWAP3 POP POP POP PUSH2 0x1D4A JUMP JUMPDEST POP DUP1 DUP1 PUSH2 0x1D3C SWAP1 PUSH2 0x35FD JUMP JUMPDEST SWAP2 POP POP PUSH2 0x1CB8 JUMP JUMPDEST POP PUSH1 0x5 SWAP1 POP JUMPDEST SWAP1 JUMP JUMPDEST PUSH1 0x1 DUP3 PUSH1 0x2 ADD PUSH0 DUP4 PUSH20 0xFFFFFFFFFFFFFFFFFFFFFFFFFFFFFFFFFFFFFFFF AND PUSH20 0xFFFFFFFFFFFFFFFFFFFFFFFFFFFFFFFFFFFFFFFF AND DUP2 MSTORE PUSH1 0x20 ADD SWAP1 DUP2 MSTORE PUSH1 0x20 ADD PUSH0 KECCAK256 PUSH0 PUSH2 0x100 EXP DUP2 SLOAD DUP2 PUSH1 0xFF MUL NOT AND SWAP1 DUP4 ISZERO ISZERO MUL OR SWAP1 SSTORE POP PUSH1 0x1 DUP3 PUSH1 0x1 ADD PUSH1 0x17 DUP3 DUP3 DUP3 SWAP1 SLOAD SWAP1 PUSH2 0x100 EXP SWAP1 DIV PUSH1 0xFF AND PUSH2 0x1DC5 SWAP2 SWAP1 PUSH2 0x3267 JUMP JUMPDEST SWAP3 POP PUSH2 0x100 EXP DUP2 SLOAD DUP2 PUSH1 0xFF MUL NOT AND SWAP1 DUP4 PUSH1 0xFF AND MUL OR SWAP1 SSTORE POP POP POP JUMP JUMPDEST PUSH0 DUP3 PUSH1 0x8 ADD PUSH0 DUP4 PUSH20 0xFFFFFFFFFFFFFFFFFFFFFFFFFFFFFFFFFFFFFFFF AND PUSH20 0xFFFFFFFFFFFFFFFFFFFFFFFFFFFFFFFFFFFFFFFF AND DUP2 MSTORE PUSH1 0x20 ADD SWAP1 DUP2 MSTORE PUSH1 0x20 ADD PUSH0 KECCAK256 PUSH0 SWAP1 SLOAD SWAP1 PUSH2 0x100 EXP SWAP1 DIV PUSH1 0xF8 SHL SWAP1 POP PUSH0 PUSH1 0xF8 SHL DUP4 PUSH1 0x8 ADD PUSH0 DUP5 PUSH20 0xFFFFFFFFFFFFFFFFFFFFFFFFFFFFFFFFFFFFFFFF AND PUSH20 0xFFFFFFFFFFFFFFFFFFFFFFFFFFFFFFFFFFFFFFFF AND DUP2 MSTORE PUSH1 0x20 ADD SWAP1 DUP2 MSTORE PUSH1 0x20 ADD PUSH0 KECCAK256 PUSH0 PUSH2 0x100 EXP DUP2 SLOAD DUP2 PUSH1 0xFF MUL NOT AND SWAP1 DUP4 PUSH1 0xF8 SHR MUL OR SWAP1 SSTORE POP PUSH0 DUP1 JUMPDEST DUP5 PUSH1 0x2 ADD PUSH0 SWAP1 SLOAD SWAP1 PUSH2 0x100 EXP SWAP1 DIV PUSH1 0xFF AND PUSH1 0xFF AND DUP2 LT ISZERO PUSH2 0x20B7 JUMPI DUP4 PUSH20 0xFFFFFFFFFFFFFFFFFFFFFFFFFFFFFFFFFFFFFFFF AND DUP6 PUSH1 0x3 ADD DUP3 PUSH1 0x5 DUP2 LT PUSH2 0x1ED5 JUMPI PUSH2 0x1ED4 PUSH2 0x2DA5 JUMP JUMPDEST JUMPDEST ADD PUSH0 SWAP1 SLOAD SWAP1 PUSH2 0x100 EXP SWAP1 DIV PUSH20 0xFFFFFFFFFFFFFFFFFFFFFFFFFFFFFFFFFFFFFFFF AND PUSH20 0xFFFFFFFFFFFFFFFFFFFFFFFFFFFFFFFFFFFFFFFF AND SUB PUSH2 0x1F6F JUMPI PUSH0 DUP6 PUSH1 0x3 ADD DUP3 PUSH1 0x5 DUP2 LT PUSH2 0x1F28 JUMPI PUSH2 0x1F27 PUSH2 0x2DA5 JUMP JUMPDEST JUMPDEST ADD PUSH0 PUSH2 0x100 EXP DUP2 SLOAD DUP2 PUSH20 0xFFFFFFFFFFFFFFFFFFFFFFFFFFFFFFFFFFFFFFFF MUL NOT AND SWAP1 DUP4 PUSH20 0xFFFFFFFFFFFFFFFFFFFFFFFFFFFFFFFFFFFFFFFF AND MUL OR SWAP1 SSTORE POP PUSH1 0x1 SWAP2 POP PUSH2 0x20AA JUMP JUMPDEST DUP2 ISZERO PUSH2 0x20A9 JUMPI PUSH0 DUP6 PUSH1 0x3 ADD PUSH1 0x1 DUP4 PUSH2 0x1F87 SWAP2 SWAP1 PUSH2 0x29C0 JUMP JUMPDEST PUSH1 0x5 DUP2 LT PUSH2 0x1F98 JUMPI PUSH2 0x1F97 PUSH2 0x2DA5 JUMP JUMPDEST JUMPDEST ADD PUSH0 SWAP1 SLOAD SWAP1 PUSH2 0x100 EXP SWAP1 DIV PUSH20 0xFFFFFFFFFFFFFFFFFFFFFFFFFFFFFFFFFFFFFFFF AND SWAP1 POP DUP6 PUSH1 0x3 ADD DUP3 PUSH1 0x5 DUP2 LT PUSH2 0x1FD1 JUMPI PUSH2 0x1FD0 PUSH2 0x2DA5 JUMP JUMPDEST JUMPDEST ADD PUSH0 SWAP1 SLOAD SWAP1 PUSH2 0x100 EXP SWAP1 DIV PUSH20 0xFFFFFFFFFFFFFFFFFFFFFFFFFFFFFFFFFFFFFFFF AND DUP7 PUSH1 0x3 ADD PUSH1 0x1 DUP5 PUSH2 0x2003 SWAP2 SWAP1 PUSH2 0x29C0 JUMP JUMPDEST PUSH1 0x5 DUP2 LT PUSH2 0x2014 JUMPI PUSH2 0x2013 PUSH2 0x2DA5 JUMP JUMPDEST JUMPDEST ADD PUSH0 PUSH2 0x100 EXP DUP2 SLOAD DUP2 PUSH20 0xFFFFFFFFFFFFFFFFFFFFFFFFFFFFFFFFFFFFFFFF MUL NOT AND SWAP1 DUP4 PUSH20 0xFFFFFFFFFFFFFFFFFFFFFFFFFFFFFFFFFFFFFFFF AND MUL OR SWAP1 SSTORE POP DUP1 DUP7 PUSH1 0x3 ADD DUP4 PUSH1 0x5 DUP2 LT PUSH2 0x2069 JUMPI PUSH2 0x2068 PUSH2 0x2DA5 JUMP JUMPDEST JUMPDEST ADD PUSH0 PUSH2 0x100 EXP DUP2 SLOAD DUP2 PUSH20 0xFFFFFFFFFFFFFFFFFFFFFFFFFFFFFFFFFFFFFFFF MUL NOT AND SWAP1 DUP4 PUSH20 0xFFFFFFFFFFFFFFFFFFFFFFFFFFFFFFFFFFFFFFFF AND MUL OR SWAP1 SSTORE POP POP JUMPDEST JUMPDEST DUP1 DUP1 PUSH1 0x1 ADD SWAP2 POP POP PUSH2 0x1E8D JUMP JUMPDEST POP PUSH1 0x1 DUP5 PUSH1 0x2 ADD PUSH0 DUP3 DUP3 DUP3 SWAP1 SLOAD SWAP1 PUSH2 0x100 EXP SWAP1 DIV PUSH1 0xFF AND PUSH2 0x20D8 SWAP2 SWAP1 PUSH2 0x2924 JUMP JUMPDEST SWAP3 POP PUSH2 0x100 EXP DUP2 SLOAD DUP2 PUSH1 0xFF MUL NOT AND SWAP1 DUP4 PUSH1 0xFF AND MUL OR SWAP1 SSTORE POP DUP3 PUSH20 0xFFFFFFFFFFFFFFFFFFFFFFFFFFFFFFFFFFFFFFFF AND PUSH32 0xE11E7B01CDD17C8C7AB41ED7897874E6A229485A77CC445646517FDAC64E75BC DUP7 DUP5 PUSH1 0x40 MLOAD PUSH2 0x2138 SWAP3 SWAP2 SWAP1 PUSH2 0x33C1 JUMP JUMPDEST PUSH1 0x40 MLOAD DUP1 SWAP2 SUB SWAP1 LOG2 POP POP POP POP POP JUMP JUMPDEST DUP3 DUP1 SLOAD DUP3 DUP3 SSTORE SWAP1 PUSH0 MSTORE PUSH1 0x20 PUSH0 KECCAK256 SWAP1 PUSH1 0x1F ADD PUSH1 0x20 SWAP1 DIV DUP2 ADD SWAP3 DUP3 ISZERO PUSH2 0x21D7 JUMPI SWAP2 PUSH1 0x20 MUL DUP3 ADD PUSH0 JUMPDEST DUP4 DUP3 GT ISZERO PUSH2 0x21A9 JUMPI DUP4 MLOAD DUP4 DUP3 PUSH2 0x100 EXP DUP2 SLOAD DUP2 PUSH1 0xFF MUL NOT AND SWAP1 DUP4 ISZERO ISZERO MUL OR SWAP1 SSTORE POP SWAP3 PUSH1 0x20 ADD SWAP3 PUSH1 0x1 ADD PUSH1 0x20 DUP2 PUSH0 ADD DIV SWAP3 DUP4 ADD SWAP3 PUSH1 0x1 SUB MUL PUSH2 0x216D JUMP JUMPDEST DUP1 ISZERO PUSH2 0x21D5 JUMPI DUP3 DUP2 PUSH2 0x100 EXP DUP2 SLOAD SWAP1 PUSH1 0xFF MUL NOT AND SWAP1 SSTORE PUSH1 0x1 ADD PUSH1 0x20 DUP2 PUSH0 ADD DIV SWAP3 DUP4 ADD SWAP3 PUSH1 0x1 SUB MUL PUSH2 0x21A9 JUMP JUMPDEST POP JUMPDEST POP SWAP1 POP PUSH2 0x21E4 SWAP2 SWAP1 PUSH2 0x2268 JUMP JUMPDEST POP SWAP1 JUMP JUMPDEST POP PUSH0 DUP2 SSTORE PUSH1 0x1 ADD PUSH0 DUP2 SSTORE PUSH1 0x1 ADD PUSH0 DUP2 SSTORE PUSH1 0x1 ADD PUSH0 DUP2 SSTORE PUSH1 0x1 ADD PUSH0 SWAP1 SSTORE JUMP JUMPDEST POP DUP1 SLOAD PUSH2 0x2212 SWAP1 PUSH2 0x26B1 JUMP JUMPDEST PUSH0 DUP3 SSTORE DUP1 PUSH1 0x1F LT PUSH2 0x2223 JUMPI POP PUSH2 0x2240 JUMP JUMPDEST PUSH1 0x1F ADD PUSH1 0x20 SWAP1 DIV SWAP1 PUSH0 MSTORE PUSH1 0x20 PUSH0 KECCAK256 SWAP1 DUP2 ADD SWAP1 PUSH2 0x223F SWAP2 SWAP1 PUSH2 0x2268 JUMP JUMPDEST JUMPDEST POP JUMP JUMPDEST POP DUP1 SLOAD PUSH0 DUP3 SSTORE PUSH1 0x1F ADD PUSH1 0x20 SWAP1 DIV SWAP1 PUSH0 MSTORE PUSH1 0x20 PUSH0 KECCAK256 SWAP1 DUP2 ADD SWAP1 PUSH2 0x2265 SWAP2 SWAP1 PUSH2 0x2268 JUMP JUMPDEST POP JUMP JUMPDEST JUMPDEST DUP1 DUP3 GT ISZERO PUSH2 0x227F JUMPI PUSH0 DUP2 PUSH0 SWAP1 SSTORE POP PUSH1 0x1 ADD PUSH2 0x2269 JUMP JUMPDEST POP SWAP1 JUMP JUMPDEST PUSH0 PUSH1 0x40 MLOAD SWAP1 POP SWAP1 JUMP JUMPDEST PUSH0 DUP1 REVERT JUMPDEST PUSH0 DUP1 REVERT JUMPDEST PUSH0 DUP2 SWAP1 POP SWAP2 SWAP1 POP JUMP JUMPDEST PUSH2 0x22A6 DUP2 PUSH2 0x2294 JUMP JUMPDEST DUP2 EQ PUSH2 0x22B0 JUMPI PUSH0 DUP1 REVERT JUMPDEST POP JUMP JUMPDEST PUSH0 DUP2 CALLDATALOAD SWAP1 POP PUSH2 0x22C1 DUP2 PUSH2 0x229D JUMP JUMPDEST SWAP3 SWAP2 POP POP JUMP JUMPDEST PUSH0 PUSH1 0x20 DUP3 DUP5 SUB SLT ISZERO PUSH2 0x22DC JUMPI PUSH2 0x22DB PUSH2 0x228C JUMP JUMPDEST JUMPDEST PUSH0 PUSH2 0x22E9 DUP5 DUP3 DUP6 ADD PUSH2 0x22B3 JUMP JUMPDEST SWAP2 POP POP SWAP3 SWAP2 POP POP JUMP JUMPDEST PUSH0 DUP2 MLOAD SWAP1 POP SWAP2 SWAP1 POP JUMP JUMPDEST PUSH0 DUP3 DUP3 MSTORE PUSH1 0x20 DUP3 ADD SWAP1 POP SWAP3 SWAP2 POP POP JUMP JUMPDEST DUP3 DUP2 DUP4 MCOPY PUSH0 DUP4 DUP4 ADD MSTORE POP POP POP JUMP JUMPDEST PUSH0 PUSH1 0x1F NOT PUSH1 0x1F DUP4 ADD AND SWAP1 POP SWAP2 SWAP1 POP JUMP JUMPDEST PUSH0 PUSH2 0x2334 DUP3 PUSH2 0x22F2 JUMP JUMPDEST PUSH2 0x233E DUP2 DUP6 PUSH2 0x22FC JUMP JUMPDEST SWAP4 POP PUSH2 0x234E DUP2 DUP6 PUSH1 0x20 DUP7 ADD PUSH2 0x230C JUMP JUMPDEST PUSH2 0x2357 DUP2 PUSH2 0x231A JUMP JUMPDEST DUP5 ADD SWAP2 POP POP SWAP3 SWAP2 POP POP JUMP JUMPDEST PUSH0 PUSH1 0x20 DUP3 ADD SWAP1 POP DUP2 DUP2 SUB PUSH0 DUP4 ADD MSTORE PUSH2 0x237A DUP2 DUP5 PUSH2 0x232A JUMP JUMPDEST SWAP1 POP SWAP3 SWAP2 POP POP JUMP JUMPDEST PUSH0 DUP1 REVERT JUMPDEST PUSH0 DUP1 REVERT JUMPDEST PUSH32 0x4E487B7100000000000000000000000000000000000000000000000000000000 PUSH0 MSTORE PUSH1 0x41 PUSH1 0x4 MSTORE PUSH1 0x24 PUSH0 REVERT JUMPDEST PUSH2 0x23C0 DUP3 PUSH2 0x231A JUMP JUMPDEST DUP2 ADD DUP2 DUP2 LT PUSH8 0xFFFFFFFFFFFFFFFF DUP3 GT OR ISZERO PUSH2 0x23DF JUMPI PUSH2 0x23DE PUSH2 0x238A JUMP JUMPDEST JUMPDEST DUP1 PUSH1 0x40 MSTORE POP POP POP JUMP JUMPDEST PUSH0 PUSH2 0x23F1 PUSH2 0x2283 JUMP JUMPDEST SWAP1 POP PUSH2 0x23FD DUP3 DUP3 PUSH2 0x23B7 JUMP JUMPDEST SWAP2 SWAP1 POP JUMP JUMPDEST PUSH0 PUSH8 0xFFFFFFFFFFFFFFFF DUP3 GT ISZERO PUSH2 0x241C JUMPI PUSH2 0x241B PUSH2 0x238A JUMP JUMPDEST JUMPDEST PUSH2 0x2425 DUP3 PUSH2 0x231A JUMP JUMPDEST SWAP1 POP PUSH1 0x20 DUP2 ADD SWAP1 POP SWAP2 SWAP1 POP JUMP JUMPDEST DUP3 DUP2 DUP4 CALLDATACOPY PUSH0 DUP4 DUP4 ADD MSTORE POP POP POP JUMP JUMPDEST PUSH0 PUSH2 0x2452 PUSH2 0x244D DUP5 PUSH2 0x2402 JUMP JUMPDEST PUSH2 0x23E8 JUMP JUMPDEST SWAP1 POP DUP3 DUP2 MSTORE PUSH1 0x20 DUP2 ADD DUP5 DUP5 DUP5 ADD GT ISZERO PUSH2 0x246E JUMPI PUSH2 0x246D PUSH2 0x2386 JUMP JUMPDEST JUMPDEST PUSH2 0x2479 DUP5 DUP3 DUP6 PUSH2 0x2432 JUMP JUMPDEST POP SWAP4 SWAP3 POP POP POP JUMP JUMPDEST PUSH0 DUP3 PUSH1 0x1F DUP4 ADD SLT PUSH2 0x2495 JUMPI PUSH2 0x2494 PUSH2 0x2382 JUMP JUMPDEST JUMPDEST DUP2 CALLDATALOAD PUSH2 0x24A5 DUP5 DUP3 PUSH1 0x20 DUP7 ADD PUSH2 0x2440 JUMP JUMPDEST SWAP2 POP POP SWAP3 SWAP2 POP POP JUMP JUMPDEST PUSH0 PUSH32 0xFF00000000000000000000000000000000000000000000000000000000000000 DUP3 AND SWAP1 POP SWAP2 SWAP1 POP JUMP JUMPDEST PUSH2 0x24E2 DUP2 PUSH2 0x24AE JUMP JUMPDEST DUP2 EQ PUSH2 0x24EC JUMPI PUSH0 DUP1 REVERT JUMPDEST POP JUMP JUMPDEST PUSH0 DUP2 CALLDATALOAD SWAP1 POP PUSH2 0x24FD DUP2 PUSH2 0x24D9 JUMP JUMPDEST SWAP3 SWAP2 POP POP JUMP JUMPDEST PUSH0 DUP1 PUSH1 0x40 DUP4 DUP6 SUB SLT ISZERO PUSH2 0x2519 JUMPI PUSH2 0x2518 PUSH2 0x228C JUMP JUMPDEST JUMPDEST PUSH0 DUP4 ADD CALLDATALOAD PUSH8 0xFFFFFFFFFFFFFFFF DUP2 GT ISZERO PUSH2 0x2536 JUMPI PUSH2 0x2535 PUSH2 0x2290 JUMP JUMPDEST JUMPDEST PUSH2 0x2542 DUP6 DUP3 DUP7 ADD PUSH2 0x2481 JUMP JUMPDEST SWAP3 POP POP PUSH1 0x20 PUSH2 0x2553 DUP6 DUP3 DUP7 ADD PUSH2 0x24EF JUMP JUMPDEST SWAP2 POP POP SWAP3 POP SWAP3 SWAP1 POP JUMP JUMPDEST PUSH0 PUSH1 0x20 DUP3 DUP5 SUB SLT ISZERO PUSH2 0x2572 JUMPI PUSH2 0x2571 PUSH2 0x228C JUMP JUMPDEST JUMPDEST PUSH0 DUP3 ADD CALLDATALOAD PUSH8 0xFFFFFFFFFFFFFFFF DUP2 GT ISZERO PUSH2 0x258F JUMPI PUSH2 0x258E PUSH2 0x2290 JUMP JUMPDEST JUMPDEST PUSH2 0x259B DUP5 DUP3 DUP6 ADD PUSH2 0x2481 JUMP JUMPDEST SWAP2 POP POP SWAP3 SWAP2 POP POP JUMP JUMPDEST PUSH0 PUSH1 0xFF DUP3 AND SWAP1 POP SWAP2 SWAP1 POP JUMP JUMPDEST PUSH2 0x25B9 DUP2 PUSH2 0x25A4 JUMP JUMPDEST DUP3 MSTORE POP POP JUMP JUMPDEST PUSH0 PUSH1 0x20 DUP3 ADD SWAP1 POP PUSH2 0x25D2 PUSH0 DUP4 ADD DUP5 PUSH2 0x25B0 JUMP JUMPDEST SWAP3 SWAP2 POP POP JUMP JUMPDEST PUSH2 0x25E1 DUP2 PUSH2 0x2294 JUMP JUMPDEST DUP3 MSTORE POP POP JUMP JUMPDEST PUSH0 PUSH1 0x20 DUP3 ADD SWAP1 POP PUSH2 0x25FA PUSH0 DUP4 ADD DUP5 PUSH2 0x25D8 JUMP JUMPDEST SWAP3 SWAP2 POP POP JUMP JUMPDEST PUSH2 0x2609 DUP2 PUSH2 0x25A4 JUMP JUMPDEST DUP2 EQ PUSH2 0x2613 JUMPI PUSH0 DUP1 REVERT JUMPDEST POP JUMP JUMPDEST PUSH0 DUP2 CALLDATALOAD SWAP1 POP PUSH2 0x2624 DUP2 PUSH2 0x2600 JUMP JUMPDEST SWAP3 SWAP2 POP POP JUMP JUMPDEST PUSH0 DUP1 PUSH1 0x40 DUP4 DUP6 SUB SLT ISZERO PUSH2 0x2640 JUMPI PUSH2 0x263F PUSH2 0x228C JUMP JUMPDEST JUMPDEST PUSH0 DUP4 ADD CALLDATALOAD PUSH8 0xFFFFFFFFFFFFFFFF DUP2 GT ISZERO PUSH2 0x265D JUMPI PUSH2 0x265C PUSH2 0x2290 JUMP JUMPDEST JUMPDEST PUSH2 0x2669 DUP6 DUP3 DUP7 ADD PUSH2 0x2481 JUMP JUMPDEST SWAP3 POP POP PUSH1 0x20 PUSH2 0x267A DUP6 DUP3 DUP7 ADD PUSH2 0x2616 JUMP JUMPDEST SWAP2 POP POP SWAP3 POP SWAP3 SWAP1 POP JUMP JUMPDEST PUSH32 0x4E487B7100000000000000000000000000000000000000000000000000000000 PUSH0 MSTORE PUSH1 0x22 PUSH1 0x4 MSTORE PUSH1 0x24 PUSH0 REVERT JUMPDEST PUSH0 PUSH1 0x2 DUP3 DIV SWAP1 POP PUSH1 0x1 DUP3 AND DUP1 PUSH2 0x26C8 JUMPI PUSH1 0x7F DUP3 AND SWAP2 POP JUMPDEST PUSH1 0x20 DUP3 LT DUP2 SUB PUSH2 0x26DB JUMPI PUSH2 0x26DA PUSH2 0x2684 JUMP JUMPDEST JUMPDEST POP SWAP2 SWAP1 POP JUMP JUMPDEST PUSH0 DUP2 SWAP1 POP SWAP3 SWAP2 POP POP JUMP JUMPDEST PUSH0 PUSH2 0x26F5 DUP3 PUSH2 0x22F2 JUMP JUMPDEST PUSH2 0x26FF DUP2 DUP6 PUSH2 0x26E1 JUMP JUMPDEST SWAP4 POP PUSH2 0x270F DUP2 DUP6 PUSH1 0x20 DUP7 ADD PUSH2 0x230C JUMP JUMPDEST DUP1 DUP5 ADD SWAP2 POP POP SWAP3 SWAP2 POP POP JUMP JUMPDEST PUSH0 PUSH2 0x2726 DUP3 DUP5 PUSH2 0x26EB JUMP JUMPDEST SWAP2 POP DUP2 SWAP1 POP SWAP3 SWAP2 POP POP JUMP JUMPDEST PUSH32 0x47616D6573206973206E6F742061637469766500000000000000000000000000 PUSH0 DUP3 ADD MSTORE POP JUMP JUMPDEST PUSH0 PUSH2 0x2765 PUSH1 0x13 DUP4 PUSH2 0x22FC JUMP JUMPDEST SWAP2 POP PUSH2 0x2770 DUP3 PUSH2 0x2731 JUMP JUMPDEST PUSH1 0x20 DUP3 ADD SWAP1 POP SWAP2 SWAP1 POP JUMP JUMPDEST PUSH0 PUSH1 0x20 DUP3 ADD SWAP1 POP DUP2 DUP2 SUB PUSH0 DUP4 ADD MSTORE PUSH2 0x2792 DUP2 PUSH2 0x2759 JUMP JUMPDEST SWAP1 POP SWAP2 SWAP1 POP JUMP JUMPDEST PUSH32 0x596F7520617265206E6F74206120706C61796572206F6620746869732067616D PUSH0 DUP3 ADD MSTORE PUSH32 0x6500000000000000000000000000000000000000000000000000000000000000 PUSH1 0x20 DUP3 ADD MSTORE POP JUMP JUMPDEST PUSH0 PUSH2 0x27F3 PUSH1 0x21 DUP4 PUSH2 0x22FC JUMP JUMPDEST SWAP2 POP PUSH2 0x27FE DUP3 PUSH2 0x2799 JUMP JUMPDEST PUSH1 0x40 DUP3 ADD SWAP1 POP SWAP2 SWAP1 POP JUMP JUMPDEST PUSH0 PUSH1 0x20 DUP3 ADD SWAP1 POP DUP2 DUP2 SUB PUSH0 DUP4 ADD MSTORE PUSH2 0x2820 DUP2 PUSH2 0x27E7 JUMP JUMPDEST SWAP1 POP SWAP2 SWAP1 POP JUMP JUMPDEST PUSH32 0x596F7520616C726561647920766F746564000000000000000000000000000000 PUSH0 DUP3 ADD MSTORE POP JUMP JUMPDEST PUSH0 PUSH2 0x285B PUSH1 0x11 DUP4 PUSH2 0x22FC JUMP JUMPDEST SWAP2 POP PUSH2 0x2866 DUP3 PUSH2 0x2827 JUMP JUMPDEST PUSH1 0x20 DUP3 ADD SWAP1 POP SWAP2 SWAP1 POP JUMP JUMPDEST PUSH0 PUSH1 0x20 DUP3 ADD SWAP1 POP DUP2 DUP2 SUB PUSH0 DUP4 ADD MSTORE PUSH2 0x2888 DUP2 PUSH2 0x284F JUMP JUMPDEST SWAP1 POP SWAP2 SWAP1 POP JUMP JUMPDEST PUSH32 0x4C6574746572206D75737420626520696E20412D5A20612D7A00000000000000 PUSH0 DUP3 ADD MSTORE POP JUMP JUMPDEST PUSH0 PUSH2 0x28C3 PUSH1 0x19 DUP4 PUSH2 0x22FC JUMP JUMPDEST SWAP2 POP PUSH2 0x28CE DUP3 PUSH2 0x288F JUMP JUMPDEST PUSH1 0x20 DUP3 ADD SWAP1 POP SWAP2 SWAP1 POP JUMP JUMPDEST PUSH0 PUSH1 0x20 DUP3 ADD SWAP1 POP DUP2 DUP2 SUB PUSH0 DUP4 ADD MSTORE PUSH2 0x28F0 DUP2 PUSH2 0x28B7 JUMP JUMPDEST SWAP1 POP SWAP2 SWAP1 POP JUMP JUMPDEST PUSH32 0x4E487B7100000000000000000000000000000000000000000000000000000000 PUSH0 MSTORE PUSH1 0x11 PUSH1 0x4 MSTORE PUSH1 0x24 PUSH0 REVERT JUMPDEST PUSH0 PUSH2 0x292E DUP3 PUSH2 0x25A4 JUMP JUMPDEST SWAP2 POP PUSH2 0x2939 DUP4 PUSH2 0x25A4 JUMP JUMPDEST SWAP3 POP DUP3 DUP3 SUB SWAP1 POP PUSH1 0xFF DUP2 GT ISZERO PUSH2 0x2952 JUMPI PUSH2 0x2951 PUSH2 0x28F7 JUMP JUMPDEST JUMPDEST SWAP3 SWAP2 POP POP JUMP JUMPDEST PUSH32 0x4C65747465722068617320616C7265616479206265656E206775657373656400 PUSH0 DUP3 ADD MSTORE POP JUMP JUMPDEST PUSH0 PUSH2 0x298C PUSH1 0x1F DUP4 PUSH2 0x22FC JUMP JUMPDEST SWAP2 POP PUSH2 0x2997 DUP3 PUSH2 0x2958 JUMP JUMPDEST PUSH1 0x20 DUP3 ADD SWAP1 POP SWAP2 SWAP1 POP JUMP JUMPDEST PUSH0 PUSH1 0x20 DUP3 ADD SWAP1 POP DUP2 DUP2 SUB PUSH0 DUP4 ADD MSTORE PUSH2 0x29B9 DUP2 PUSH2 0x2980 JUMP JUMPDEST SWAP1 POP SWAP2 SWAP1 POP JUMP JUMPDEST PUSH0 PUSH2 0x29CA DUP3 PUSH2 0x2294 JUMP JUMPDEST SWAP2 POP PUSH2 0x29D5 DUP4 PUSH2 0x2294 JUMP JUMPDEST SWAP3 POP DUP3 DUP3 SUB SWAP1 POP DUP2 DUP2 GT ISZERO PUSH2 0x29ED JUMPI PUSH2 0x29EC PUSH2 0x28F7 JUMP JUMPDEST JUMPDEST SWAP3 SWAP2 POP POP JUMP JUMPDEST PUSH32 0x4E6F206D6F726520706C617965727320736C6F747320617661696C61626C6500 PUSH0 DUP3 ADD MSTORE POP JUMP JUMPDEST PUSH0 PUSH2 0x2A27 PUSH1 0x1F DUP4 PUSH2 0x22FC JUMP JUMPDEST SWAP2 POP PUSH2 0x2A32 DUP3 PUSH2 0x29F3 JUMP JUMPDEST PUSH1 0x20 DUP3 ADD SWAP1 POP SWAP2 SWAP1 POP JUMP JUMPDEST PUSH0 PUSH1 0x20 DUP3 ADD SWAP1 POP DUP2 DUP2 SUB PUSH0 DUP4 ADD MSTORE PUSH2 0x2A54 DUP2 PUSH2 0x2A1B JUMP JUMPDEST SWAP1 POP SWAP2 SWAP1 POP JUMP JUMPDEST PUSH32 0x416C726561647920696E207468652067616D6500000000000000000000000000 PUSH0 DUP3 ADD MSTORE POP JUMP JUMPDEST PUSH0 PUSH2 0x2A8F PUSH1 0x13 DUP4 PUSH2 0x22FC JUMP JUMPDEST SWAP2 POP PUSH2 0x2A9A DUP3 PUSH2 0x2A5B JUMP JUMPDEST PUSH1 0x20 DUP3 ADD SWAP1 POP SWAP2 SWAP1 POP JUMP JUMPDEST PUSH0 PUSH1 0x20 DUP3 ADD SWAP1 POP DUP2 DUP2 SUB PUSH0 DUP4 ADD MSTORE PUSH2 0x2ABC DUP2 PUSH2 0x2A83 JUMP JUMPDEST SWAP1 POP SWAP2 SWAP1 POP JUMP JUMPDEST PUSH32 0x4E6F2061637469766520766F7465000000000000000000000000000000000000 PUSH0 DUP3 ADD MSTORE POP JUMP JUMPDEST PUSH0 PUSH2 0x2AF7 PUSH1 0xE DUP4 PUSH2 0x22FC JUMP JUMPDEST SWAP2 POP PUSH2 0x2B02 DUP3 PUSH2 0x2AC3 JUMP JUMPDEST PUSH1 0x20 DUP3 ADD SWAP1 POP SWAP2 SWAP1 POP JUMP JUMPDEST PUSH0 PUSH1 0x20 DUP3 ADD SWAP1 POP DUP2 DUP2 SUB PUSH0 DUP4 ADD MSTORE PUSH2 0x2B24 DUP2 PUSH2 0x2AEB JUMP JUMPDEST SWAP1 POP SWAP2 SWAP1 POP JUMP JUMPDEST PUSH32 0x566F7465206475726174696F6E20686173206E6F7420656C6170736564000000 PUSH0 DUP3 ADD MSTORE POP JUMP JUMPDEST PUSH0 PUSH2 0x2B5F PUSH1 0x1D DUP4 PUSH2 0x22FC JUMP JUMPDEST SWAP2 POP PUSH2 0x2B6A DUP3 PUSH2 0x2B2B JUMP JUMPDEST PUSH1 0x20 DUP3 ADD SWAP1 POP SWAP2 SWAP1 POP JUMP JUMPDEST PUSH0 PUSH1 0x20 DUP3 ADD SWAP1 POP DUP2 DUP2 SUB PUSH0 DUP4 ADD MSTORE PUSH2 0x2B8C DUP2 PUSH2 0x2B53 JUMP JUMPDEST SWAP1 POP SWAP2 SWAP1 POP JUMP JUMPDEST PUSH32 0x4F6E6C792067616D652063726561746F722063616E2064656C65746520746865 PUSH0 DUP3 ADD MSTORE PUSH32 0x2067616D65000000000000000000000000000000000000000000000000000000 PUSH1 0x20 DUP3 ADD MSTORE POP JUMP JUMPDEST PUSH0 PUSH2 0x2BED PUSH1 0x25 DUP4 PUSH2 0x22FC JUMP JUMPDEST SWAP2 POP PUSH2 0x2BF8 DUP3 PUSH2 0x2B93 JUMP JUMPDEST PUSH1 0x40 DUP3 ADD SWAP1 POP SWAP2 SWAP1 POP JUMP JUMPDEST PUSH0 PUSH1 0x20 DUP3 ADD SWAP1 POP DUP2 DUP2 SUB PUSH0 DUP4 ADD MSTORE PUSH2 0x2C1A DUP2 PUSH2 0x2BE1 JUMP JUMPDEST SWAP1 POP SWAP2 SWAP1 POP JUMP JUMPDEST PUSH32 0x412067616D652077697468207468652063686F73656E20494420616C72656164 PUSH0 DUP3 ADD MSTORE PUSH32 0x7920657869737473000000000000000000000000000000000000000000000000 PUSH1 0x20 DUP3 ADD MSTORE POP JUMP JUMPDEST PUSH0 PUSH2 0x2C7B PUSH1 0x28 DUP4 PUSH2 0x22FC JUMP JUMPDEST SWAP2 POP PUSH2 0x2C86 DUP3 PUSH2 0x2C21 JUMP JUMPDEST PUSH1 0x40 DUP3 ADD SWAP1 POP SWAP2 SWAP1 POP JUMP JUMPDEST PUSH0 PUSH1 0x20 DUP3 ADD SWAP1 POP DUP2 DUP2 SUB PUSH0 DUP4 ADD MSTORE PUSH2 0x2CA8 DUP2 PUSH2 0x2C6F JUMP JUMPDEST SWAP1 POP SWAP2 SWAP1 POP JUMP JUMPDEST PUSH32 0x4174206C65617374206F6E6520706C6179657220726571756972656420616E64 PUSH0 DUP3 ADD MSTORE PUSH32 0x206174206D6F7374204D41585F504C415945525320616C6C6F77656400000000 PUSH1 0x20 DUP3 ADD MSTORE POP JUMP JUMPDEST PUSH0 PUSH2 0x2D09 PUSH1 0x3C DUP4 PUSH2 0x22FC JUMP JUMPDEST SWAP2 POP PUSH2 0x2D14 DUP3 PUSH2 0x2CAF JUMP JUMPDEST PUSH1 0x40 DUP3 ADD SWAP1 POP SWAP2 SWAP1 POP JUMP JUMPDEST PUSH0 PUSH1 0x20 DUP3 ADD SWAP1 POP DUP2 DUP2 SUB PUSH0 DUP4 ADD MSTORE PUSH2 0x2D36 DUP2 PUSH2 0x2CFD JUMP JUMPDEST SWAP1 POP SWAP2 SWAP1 POP JUMP JUMPDEST PUSH32 0x4E6F20667265652067616D6520736C6F7420617661696C61626C650000000000 PUSH0 DUP3 ADD MSTORE POP JUMP JUMPDEST PUSH0 PUSH2 0x2D71 PUSH1 0x1B DUP4 PUSH2 0x22FC JUMP JUMPDEST SWAP2 POP PUSH2 0x2D7C DUP3 PUSH2 0x2D3D JUMP JUMPDEST PUSH1 0x20 DUP3 ADD SWAP1 POP SWAP2 SWAP1 POP JUMP JUMPDEST PUSH0 PUSH1 0x20 DUP3 ADD SWAP1 POP DUP2 DUP2 SUB PUSH0 DUP4 ADD MSTORE PUSH2 0x2D9E DUP2 PUSH2 0x2D65 JUMP JUMPDEST SWAP1 POP SWAP2 SWAP1 POP JUMP JUMPDEST PUSH32 0x4E487B7100000000000000000000000000000000000000000000000000000000 PUSH0 MSTORE PUSH1 0x32 PUSH1 0x4 MSTORE PUSH1 0x24 PUSH0 REVERT JUMPDEST PUSH0 DUP2 SWAP1 POP DUP2 PUSH0 MSTORE PUSH1 0x20 PUSH0 KECCAK256 SWAP1 POP SWAP2 SWAP1 POP JUMP JUMPDEST PUSH0 PUSH1 0x20 PUSH1 0x1F DUP4 ADD DIV SWAP1 POP SWAP2 SWAP1 POP JUMP JUMPDEST PUSH0 DUP3 DUP3 SHL SWAP1 POP SWAP3 SWAP2 POP POP JUMP JUMPDEST PUSH0 PUSH1 0x8 DUP4 MUL PUSH2 0x2E2E PUSH32 0xFFFFFFFFFFFFFFFFFFFFFFFFFFFFFFFFFFFFFFFFFFFFFFFFFFFFFFFFFFFFFFFF DUP3 PUSH2 0x2DF3 JUMP JUMPDEST PUSH2 0x2E38 DUP7 DUP4 PUSH2 0x2DF3 JUMP JUMPDEST SWAP6 POP DUP1 NOT DUP5 AND SWAP4 POP DUP1 DUP7 AND DUP5 OR SWAP3 POP POP POP SWAP4 SWAP3 POP POP POP JUMP JUMPDEST PUSH0 DUP2 SWAP1 POP SWAP2 SWAP1 POP JUMP JUMPDEST PUSH0 PUSH2 0x2E73 PUSH2 0x2E6E PUSH2 0x2E69 DUP5 PUSH2 0x2294 JUMP JUMPDEST PUSH2 0x2E50 JUMP JUMPDEST PUSH2 0x2294 JUMP JUMPDEST SWAP1 POP SWAP2 SWAP1 POP JUMP JUMPDEST PUSH0 DUP2 SWAP1 POP SWAP2 SWAP1 POP JUMP JUMPDEST PUSH2 0x2E8C DUP4 PUSH2 0x2E59 JUMP JUMPDEST PUSH2 0x2EA0 PUSH2 0x2E98 DUP3 PUSH2 0x2E7A JUMP JUMPDEST DUP5 DUP5 SLOAD PUSH2 0x2DFF JUMP JUMPDEST DUP3 SSTORE POP POP POP POP JUMP JUMPDEST PUSH0 SWAP1 JUMP JUMPDEST PUSH2 0x2EB4 PUSH2 0x2EA8 JUMP JUMPDEST PUSH2 0x2EBF DUP2 DUP5 DUP5 PUSH2 0x2E83 JUMP JUMPDEST POP POP POP JUMP JUMPDEST JUMPDEST DUP2 DUP2 LT ISZERO PUSH2 0x2EE2 JUMPI PUSH2 0x2ED7 PUSH0 DUP3 PUSH2 0x2EAC JUMP JUMPDEST PUSH1 0x1 DUP2 ADD SWAP1 POP PUSH2 0x2EC5 JUMP JUMPDEST POP POP JUMP JUMPDEST PUSH1 0x1F DUP3 GT ISZERO PUSH2 0x2F27 JUMPI PUSH2 0x2EF8 DUP2 PUSH2 0x2DD2 JUMP JUMPDEST PUSH2 0x2F01 DUP5 PUSH2 0x2DE4 JUMP JUMPDEST DUP2 ADD PUSH1 0x20 DUP6 LT ISZERO PUSH2 0x2F10 JUMPI DUP2 SWAP1 POP JUMPDEST PUSH2 0x2F24 PUSH2 0x2F1C DUP6 PUSH2 0x2DE4 JUMP JUMPDEST DUP4 ADD DUP3 PUSH2 0x2EC4 JUMP JUMPDEST POP POP JUMPDEST POP POP POP JUMP JUMPDEST PUSH0 DUP3 DUP3 SHR SWAP1 POP SWAP3 SWAP2 POP POP JUMP JUMPDEST PUSH0 PUSH2 0x2F47 PUSH0 NOT DUP5 PUSH1 0x8 MUL PUSH2 0x2F2C JUMP JUMPDEST NOT DUP1 DUP4 AND SWAP2 POP POP SWAP3 SWAP2 POP POP JUMP JUMPDEST PUSH0 PUSH2 0x2F5F DUP4 DUP4 PUSH2 0x2F38 JUMP JUMPDEST SWAP2 POP DUP3 PUSH1 0x2 MUL DUP3 OR SWAP1 POP SWAP3 SWAP2 POP POP JUMP JUMPDEST PUSH2 0x2F78 DUP3 PUSH2 0x22F2 JUMP JUMPDEST PUSH8 0xFFFFFFFFFFFFFFFF DUP2 GT ISZERO PUSH2 0x2F91 JUMPI PUSH2 0x2F90 PUSH2 0x238A JUMP JUMPDEST JUMPDEST PUSH2 0x2F9B DUP3 SLOAD PUSH2 0x26B1 JUMP JUMPDEST PUSH2 0x2FA6 DUP3 DUP3 DUP6 PUSH2 0x2EE6 JUMP JUMPDEST PUSH0 PUSH1 0x20 SWAP1 POP PUSH1 0x1F DUP4 GT PUSH1 0x1 DUP2 EQ PUSH2 0x2FD7 JUMPI PUSH0 DUP5 ISZERO PUSH2 0x2FC5 JUMPI DUP3 DUP8 ADD MLOAD SWAP1 POP JUMPDEST PUSH2 0x2FCF DUP6 DUP3 PUSH2 0x2F54 JUMP JUMPDEST DUP7 SSTORE POP PUSH2 0x3036 JUMP JUMPDEST PUSH1 0x1F NOT DUP5 AND PUSH2 0x2FE5 DUP7 PUSH2 0x2DD2 JUMP JUMPDEST PUSH0 JUMPDEST DUP3 DUP2 LT ISZERO PUSH2 0x300C JUMPI DUP5 DUP10 ADD MLOAD DUP3 SSTORE PUSH1 0x1 DUP3 ADD SWAP2 POP PUSH1 0x20 DUP6 ADD SWAP5 POP PUSH1 0x20 DUP2 ADD SWAP1 POP PUSH2 0x2FE7 JUMP JUMPDEST DUP7 DUP4 LT ISZERO PUSH2 0x3029 JUMPI DUP5 DUP10 ADD MLOAD PUSH2 0x3025 PUSH1 0x1F DUP10 AND DUP3 PUSH2 0x2F38 JUMP JUMPDEST DUP4 SSTORE POP JUMPDEST PUSH1 0x1 PUSH1 0x2 DUP9 MUL ADD DUP9 SSTORE POP POP POP JUMPDEST POP POP POP POP POP POP JUMP JUMPDEST PUSH0 DUP2 SWAP1 POP SWAP2 SWAP1 POP JUMP JUMPDEST PUSH2 0x3058 PUSH2 0x3053 DUP3 PUSH2 0x2294 JUMP JUMPDEST PUSH2 0x303E JUMP JUMPDEST DUP3 MSTORE POP POP JUMP JUMPDEST PUSH0 PUSH20 0xFFFFFFFFFFFFFFFFFFFFFFFFFFFFFFFFFFFFFFFF DUP3 AND SWAP1 POP SWAP2 SWAP1 POP JUMP JUMPDEST PUSH0 PUSH2 0x3087 DUP3 PUSH2 0x305E JUMP JUMPDEST SWAP1 POP SWAP2 SWAP1 POP JUMP JUMPDEST PUSH0 DUP2 PUSH1 0x60 SHL SWAP1 POP SWAP2 SWAP1 POP JUMP JUMPDEST PUSH0 PUSH2 0x30A4 DUP3 PUSH2 0x308E JUMP JUMPDEST SWAP1 POP SWAP2 SWAP1 POP JUMP JUMPDEST PUSH0 PUSH2 0x30B5 DUP3 PUSH2 0x309A JUMP JUMPDEST SWAP1 POP SWAP2 SWAP1 POP JUMP JUMPDEST PUSH2 0x30CD PUSH2 0x30C8 DUP3 PUSH2 0x307D JUMP JUMPDEST PUSH2 0x30AB JUMP JUMPDEST DUP3 MSTORE POP POP JUMP JUMPDEST PUSH0 PUSH2 0x30DE DUP3 DUP6 PUSH2 0x3047 JUMP JUMPDEST PUSH1 0x20 DUP3 ADD SWAP2 POP PUSH2 0x30EE DUP3 DUP5 PUSH2 0x30BC JUMP JUMPDEST PUSH1 0x14 DUP3 ADD SWAP2 POP DUP2 SWAP1 POP SWAP4 SWAP3 POP POP POP JUMP JUMPDEST PUSH32 0x4E487B7100000000000000000000000000000000000000000000000000000000 PUSH0 MSTORE PUSH1 0x12 PUSH1 0x4 MSTORE PUSH1 0x24 PUSH0 REVERT JUMPDEST PUSH0 PUSH2 0x3135 DUP3 PUSH2 0x2294 JUMP JUMPDEST SWAP2 POP PUSH2 0x3140 DUP4 PUSH2 0x2294 JUMP JUMPDEST SWAP3 POP DUP3 PUSH2 0x3150 JUMPI PUSH2 0x314F PUSH2 0x30FE JUMP JUMPDEST JUMPDEST DUP3 DUP3 MOD SWAP1 POP SWAP3 SWAP2 POP POP JUMP JUMPDEST PUSH0 DUP2 SLOAD SWAP1 POP PUSH2 0x3169 DUP2 PUSH2 0x26B1 JUMP JUMPDEST SWAP1 POP SWAP2 SWAP1 POP JUMP JUMPDEST PUSH0 DUP2 SWAP1 POP DUP2 PUSH0 MSTORE PUSH1 0x20 PUSH0 KECCAK256 SWAP1 POP SWAP2 SWAP1 POP JUMP JUMPDEST DUP2 DUP2 SUB PUSH2 0x3190 JUMPI POP POP PUSH2 0x3265 JUMP JUMPDEST PUSH2 0x3199 DUP3 PUSH2 0x315B JUMP JUMPDEST PUSH8 0xFFFFFFFFFFFFFFFF DUP2 GT ISZERO PUSH2 0x31B2 JUMPI PUSH2 0x31B1 PUSH2 0x238A JUMP JUMPDEST JUMPDEST PUSH2 0x31BC DUP3 SLOAD PUSH2 0x26B1 JUMP JUMPDEST PUSH2 0x31C7 DUP3 DUP3 DUP6 PUSH2 0x2EE6 JUMP JUMPDEST PUSH0 PUSH1 0x1F DUP4 GT PUSH1 0x1 DUP2 EQ PUSH2 0x31F4 JUMPI PUSH0 DUP5 ISZERO PUSH2 0x31E2 JUMPI DUP3 DUP8 ADD SLOAD SWAP1 POP JUMPDEST PUSH2 0x31EC DUP6 DUP3 PUSH2 0x2F54 JUMP JUMPDEST DUP7 SSTORE POP PUSH2 0x325E JUMP JUMPDEST PUSH1 0x1F NOT DUP5 AND PUSH2 0x3202 DUP8 PUSH2 0x3170 JUMP JUMPDEST SWAP7 POP PUSH2 0x320D DUP7 PUSH2 0x2DD2 JUMP JUMPDEST PUSH0 JUMPDEST DUP3 DUP2 LT ISZERO PUSH2 0x3234 JUMPI DUP5 DUP10 ADD SLOAD DUP3 SSTORE PUSH1 0x1 DUP3 ADD SWAP2 POP PUSH1 0x1 DUP6 ADD SWAP5 POP PUSH1 0x20 DUP2 ADD SWAP1 POP PUSH2 0x320F JUMP JUMPDEST DUP7 DUP4 LT ISZERO PUSH2 0x3251 JUMPI DUP5 DUP10 ADD SLOAD PUSH2 0x324D PUSH1 0x1F DUP10 AND DUP3 PUSH2 0x2F38 JUMP JUMPDEST DUP4 SSTORE POP JUMPDEST PUSH1 0x1 PUSH1 0x2 DUP9 MUL ADD DUP9 SSTORE POP POP POP JUMPDEST POP POP POP POP POP POP JUMPDEST JUMP JUMPDEST PUSH0 PUSH2 0x3271 DUP3 PUSH2 0x25A4 JUMP JUMPDEST SWAP2 POP PUSH2 0x327C DUP4 PUSH2 0x25A4 JUMP JUMPDEST SWAP3 POP DUP3 DUP3 ADD SWAP1 POP PUSH1 0xFF DUP2 GT ISZERO PUSH2 0x3295 JUMPI PUSH2 0x3294 PUSH2 0x28F7 JUMP JUMPDEST JUMPDEST SWAP3 SWAP2 POP POP JUMP JUMPDEST PUSH0 DUP2 SLOAD PUSH2 0x32A7 DUP2 PUSH2 0x26B1 JUMP JUMPDEST PUSH2 0x32B1 DUP2 DUP7 PUSH2 0x26E1 JUMP JUMPDEST SWAP5 POP PUSH1 0x1 DUP3 AND PUSH0 DUP2 EQ PUSH2 0x32CB JUMPI PUSH1 0x1 DUP2 EQ PUSH2 0x32E0 JUMPI PUSH2 0x3312 JUMP JUMPDEST PUSH1 0xFF NOT DUP4 AND DUP7 MSTORE DUP2 ISZERO ISZERO DUP3 MUL DUP7 ADD SWAP4 POP PUSH2 0x3312 JUMP JUMPDEST PUSH2 0x32E9 DUP6 PUSH2 0x3170 JUMP JUMPDEST PUSH0 JUMPDEST DUP4 DUP2 LT ISZERO PUSH2 0x330A JUMPI DUP2 SLOAD DUP2 DUP10 ADD MSTORE PUSH1 0x1 DUP3 ADD SWAP2 POP PUSH1 0x20 DUP2 ADD SWAP1 POP PUSH2 0x32EB JUMP JUMPDEST DUP4 DUP9 ADD SWAP6 POP POP POP JUMPDEST POP POP POP SWAP3 SWAP2 POP POP JUMP JUMPDEST PUSH0 PUSH2 0x3326 DUP3 DUP5 PUSH2 0x329B JUMP JUMPDEST SWAP2 POP DUP2 SWAP1 POP SWAP3 SWAP2 POP POP JUMP JUMPDEST PUSH0 DUP2 SLOAD PUSH2 0x333D DUP2 PUSH2 0x26B1 JUMP JUMPDEST PUSH2 0x3347 DUP2 DUP7 PUSH2 0x22FC JUMP JUMPDEST SWAP5 POP PUSH1 0x1 DUP3 AND PUSH0 DUP2 EQ PUSH2 0x3361 JUMPI PUSH1 0x1 DUP2 EQ PUSH2 0x3377 JUMPI PUSH2 0x33A9 JUMP JUMPDEST PUSH1 0xFF NOT DUP4 AND DUP7 MSTORE DUP2 ISZERO ISZERO PUSH1 0x20 MUL DUP7 ADD SWAP4 POP PUSH2 0x33A9 JUMP JUMPDEST PUSH2 0x3380 DUP6 PUSH2 0x3170 JUMP JUMPDEST PUSH0 JUMPDEST DUP4 DUP2 LT ISZERO PUSH2 0x33A1 JUMPI DUP2 SLOAD DUP2 DUP10 ADD MSTORE PUSH1 0x1 DUP3 ADD SWAP2 POP PUSH1 0x20 DUP2 ADD SWAP1 POP PUSH2 0x3382 JUMP JUMPDEST DUP1 DUP9 ADD SWAP6 POP POP POP JUMPDEST POP POP POP SWAP3 SWAP2 POP POP JUMP JUMPDEST PUSH2 0x33BB DUP2 PUSH2 0x24AE JUMP JUMPDEST DUP3 MSTORE POP POP JUMP JUMPDEST PUSH0 PUSH1 0x40 DUP3 ADD SWAP1 POP DUP2 DUP2 SUB PUSH0 DUP4 ADD MSTORE PUSH2 0x33D9 DUP2 DUP6 PUSH2 0x3331 JUMP JUMPDEST SWAP1 POP PUSH2 0x33E8 PUSH1 0x20 DUP4 ADD DUP5 PUSH2 0x33B2 JUMP JUMPDEST SWAP4 SWAP3 POP POP POP JUMP JUMPDEST PUSH0 DUP2 SLOAD PUSH2 0x33FB DUP2 PUSH2 0x26B1 JUMP JUMPDEST PUSH2 0x3405 DUP2 DUP7 PUSH2 0x26E1 JUMP JUMPDEST SWAP5 POP PUSH1 0x1 DUP3 AND PUSH0 DUP2 EQ PUSH2 0x341F JUMPI PUSH1 0x1 DUP2 EQ PUSH2 0x3434 JUMPI PUSH2 0x3466 JUMP JUMPDEST PUSH1 0xFF NOT DUP4 AND DUP7 MSTORE DUP2 ISZERO ISZERO DUP3 MUL DUP7 ADD SWAP4 POP PUSH2 0x3466 JUMP JUMPDEST PUSH2 0x343D DUP6 PUSH2 0x2DD2 JUMP JUMPDEST PUSH0 JUMPDEST DUP4 DUP2 LT ISZERO PUSH2 0x345E JUMPI DUP2 SLOAD DUP2 DUP10 ADD MSTORE PUSH1 0x1 DUP3 ADD SWAP2 POP PUSH1 0x20 DUP2 ADD SWAP1 POP PUSH2 0x343F JUMP JUMPDEST DUP4 DUP9 ADD SWAP6 POP POP POP JUMPDEST POP POP POP SWAP3 SWAP2 POP POP JUMP JUMPDEST PUSH0 PUSH2 0x347A DUP3 DUP5 PUSH2 0x33EF JUMP JUMPDEST SWAP2 POP DUP2 SWAP1 POP SWAP3 SWAP2 POP POP JUMP JUMPDEST PUSH0 DUP2 ISZERO ISZERO SWAP1 POP SWAP2 SWAP1 POP JUMP JUMPDEST PUSH2 0x3499 DUP2 PUSH2 0x3485 JUMP JUMPDEST DUP3 MSTORE POP POP JUMP JUMPDEST PUSH0 PUSH1 0x60 DUP3 ADD SWAP1 POP PUSH2 0x34B2 PUSH0 DUP4 ADD DUP7 PUSH2 0x33B2 JUMP JUMPDEST DUP2 DUP2 SUB PUSH1 0x20 DUP4 ADD MSTORE PUSH2 0x34C4 DUP2 DUP6 PUSH2 0x232A JUMP JUMPDEST SWAP1 POP PUSH2 0x34D3 PUSH1 0x40 DUP4 ADD DUP5 PUSH2 0x3490 JUMP JUMPDEST SWAP5 SWAP4 POP POP POP POP JUMP JUMPDEST PUSH32 0x4E487B7100000000000000000000000000000000000000000000000000000000 PUSH0 MSTORE PUSH1 0x21 PUSH1 0x4 MSTORE PUSH1 0x24 PUSH0 REVERT JUMPDEST PUSH1 0x3 DUP2 LT PUSH2 0x3519 JUMPI PUSH2 0x3518 PUSH2 0x34DB JUMP JUMPDEST JUMPDEST POP JUMP JUMPDEST PUSH0 DUP2 SWAP1 POP PUSH2 0x3529 DUP3 PUSH2 0x3508 JUMP JUMPDEST SWAP2 SWAP1 POP JUMP JUMPDEST PUSH0 PUSH2 0x3538 DUP3 PUSH2 0x351C JUMP JUMPDEST SWAP1 POP SWAP2 SWAP1 POP JUMP JUMPDEST PUSH2 0x3548 DUP2 PUSH2 0x352E JUMP JUMPDEST DUP3 MSTORE POP POP JUMP JUMPDEST PUSH0 DUP2 SLOAD PUSH2 0x355A DUP2 PUSH2 0x26B1 JUMP JUMPDEST PUSH2 0x3564 DUP2 DUP7 PUSH2 0x22FC JUMP JUMPDEST SWAP5 POP PUSH1 0x1 DUP3 AND PUSH0 DUP2 EQ PUSH2 0x357E JUMPI PUSH1 0x1 DUP2 EQ PUSH2 0x3594 JUMPI PUSH2 0x35C6 JUMP JUMPDEST PUSH1 0xFF NOT DUP4 AND DUP7 MSTORE DUP2 ISZERO ISZERO PUSH1 0x20 MUL DUP7 ADD SWAP4 POP PUSH2 0x35C6 JUMP JUMPDEST PUSH2 0x359D DUP6 PUSH2 0x2DD2 JUMP JUMPDEST PUSH0 JUMPDEST DUP4 DUP2 LT ISZERO PUSH2 0x35BE JUMPI DUP2 SLOAD DUP2 DUP10 ADD MSTORE PUSH1 0x1 DUP3 ADD SWAP2 POP PUSH1 0x20 DUP2 ADD SWAP1 POP PUSH2 0x359F JUMP JUMPDEST DUP1 DUP9 ADD SWAP6 POP POP POP JUMPDEST POP POP POP SWAP3 SWAP2 POP POP JUMP JUMPDEST PUSH0 PUSH1 0x40 DUP3 ADD SWAP1 POP PUSH2 0x35E2 PUSH0 DUP4 ADD DUP6 PUSH2 0x353F JUMP JUMPDEST DUP2 DUP2 SUB PUSH1 0x20 DUP4 ADD MSTORE PUSH2 0x35F4 DUP2 DUP5 PUSH2 0x354E JUMP JUMPDEST SWAP1 POP SWAP4 SWAP3 POP POP POP JUMP JUMPDEST PUSH0 PUSH2 0x3607 DUP3 PUSH2 0x25A4 JUMP JUMPDEST SWAP2 POP PUSH1 0xFF DUP3 SUB PUSH2 0x361A JUMPI PUSH2 0x3619 PUSH2 0x28F7 JUMP JUMPDEST JUMPDEST PUSH1 0x1 DUP3 ADD SWAP1 POP SWAP2 SWAP1 POP JUMP INVALID LOG2 PUSH5 0x6970667358 0x22 SLT KECCAK256 PUSH6 0x6CB417C02D64 LOG0 SWAP3 0xB9 ADDMOD 0xDA PUSH27 0x28D61662B7BD51D15D5178BF3472A5FB95906A64736F6C63430008 BYTE STOP CALLER "
		},
		"gasEstimates": {
			"creation": {
				"codeDepositCost": "2783000",
				"executionCost": "infinite",
				"totalCost": "infinite"
			},
			"external": {
				"INACTIVITY_THRESHOLD()": "347",
				"MAX_GAMES()": "420",
				"MAX_GUESSES()": "442",
				"MAX_PLAYERS()": "398",
				"VOTING_DURATION()": "325",
				"WORDS(uint256)": "infinite",
				"createGame(string,uint8)": "infinite",
				"deleteGame(string)": "infinite",
				"endVote(string)": "infinite",
				"joinGame(string)": "infinite",
				"leaveGame(string)": "infinite",
				"voteForLetter(string,bytes1)": "infinite"
			},
			"internal": {
				"_addPlayerToGame(struct Hangman.Game storage pointer,address)": "infinite",
				"_allocateGame()": "infinite",
				"_endGame(struct Hangman.Game storage pointer,enum Hangman.GameResult)": "infinite",
				"_endVote(struct Hangman.Game storage pointer)": "infinite",
				"_registerVote(string storage pointer,struct Hangman.Vote storage pointer,address,bytes1)": "infinite",
				"_removePlayerFromGame(struct Hangman.Game storage pointer,address)": "infinite",
				"_unregisterVote(string storage pointer,struct Hangman.Vote storage pointer,address)": "infinite"
			}
		},
		"methodIdentifiers": {
			"INACTIVITY_THRESHOLD()": "aa4103e2",
			"MAX_GAMES()": "4fd01913",
			"MAX_GUESSES()": "684d4678",
			"MAX_PLAYERS()": "4411b3eb",
			"VOTING_DURATION()": "a438d208",
			"WORDS(uint256)": "0f1ad663",
			"createGame(string,uint8)": "e565c835",
			"deleteGame(string)": "d5c68ab2",
			"endVote(string)": "d19e39f0",
			"joinGame(string)": "3d536a2e",
			"leaveGame(string)": "c22a95f1",
			"voteForLetter(string,bytes1)": "1616c521"
		}
	},
	"abi": [
		{
			"anonymous": false,
			"inputs": [
				{
					"indexed": true,
					"internalType": "string",
					"name": "gameID",
					"type": "string"
				},
				{
					"indexed": false,
					"internalType": "uint8",
					"name": "numOfPlayers",
					"type": "uint8"
				}
			],
			"name": "GameCreated",
			"type": "event"
		},
		{
			"anonymous": false,
			"inputs": [
				{
					"indexed": true,
					"internalType": "string",
					"name": "gameID",
					"type": "string"
				},
				{
					"indexed": false,
					"internalType": "enum Hangman.GameResult",
					"name": "result",
					"type": "uint8"
				},
				{
					"indexed": false,
					"internalType": "string",
					"name": "solution",
					"type": "string"
				}
			],
			"name": "GameEnded",
			"type": "event"
		},
		{
			"anonymous": false,
			"inputs": [
				{
					"indexed": true,
					"internalType": "string",
					"name": "gameID",
					"type": "string"
				},
				{
					"indexed": true,
					"internalType": "address",
					"name": "player",
					"type": "address"
				}
			],
			"name": "PlayerJoined",
			"type": "event"
		},
		{
			"anonymous": false,
			"inputs": [
				{
					"indexed": true,
					"internalType": "string",
					"name": "gameID",
					"type": "string"
				},
				{
					"indexed": true,
					"internalType": "address",
					"name": "player",
					"type": "address"
				}
			],
			"name": "PlayerLeft",
			"type": "event"
		},
		{
			"anonymous": false,
			"inputs": [
				{
					"indexed": true,
					"internalType": "string",
					"name": "gameID",
					"type": "string"
				},
				{
					"indexed": false,
					"internalType": "bytes1",
					"name": "chosenLetter",
					"type": "bytes1"
				},
				{
					"indexed": false,
					"internalType": "string",
					"name": "maskedWord",
					"type": "string"
				},
				{
					"indexed": false,
					"internalType": "bool",
					"name": "error",
					"type": "bool"
				}
			],
			"name": "VoteEnded",
			"type": "event"
		},
		{
			"anonymous": false,
			"inputs": [
				{
					"indexed": false,
					"internalType": "string",
					"name": "gameID",
					"type": "string"
				},
				{
					"indexed": true,
					"internalType": "address",
					"name": "player",
					"type": "address"
				},
				{
					"indexed": false,
					"internalType": "bytes1",
					"name": "letter",
					"type": "bytes1"
				}
			],
			"name": "VoteRegistered",
			"type": "event"
		},
		{
			"anonymous": false,
			"inputs": [
				{
					"indexed": true,
					"internalType": "string",
					"name": "gameID",
					"type": "string"
				}
			],
			"name": "VoteStarted",
			"type": "event"
		},
		{
			"anonymous": false,
			"inputs": [
				{
					"indexed": false,
					"internalType": "string",
					"name": "gameID",
					"type": "string"
				},
				{
					"indexed": true,
					"internalType": "address",
					"name": "player",
					"type": "address"
				},
				{
					"indexed": false,
					"internalType": "bytes1",
					"name": "letter",
					"type": "bytes1"
				}
			],
			"name": "VoteUnregistered",
			"type": "event"
		},
		{
			"inputs": [],
			"name": "INACTIVITY_THRESHOLD",
			"outputs": [
				{
					"internalType": "uint256",
					"name": "",
					"type": "uint256"
				}
			],
			"stateMutability": "view",
			"type": "function"
		},
		{
			"inputs": [],
			"name": "MAX_GAMES",
			"outputs": [
				{
					"internalType": "uint8",
					"name": "",
					"type": "uint8"
				}
			],
			"stateMutability": "view",
			"type": "function"
		},
		{
			"inputs": [],
			"name": "MAX_GUESSES",
			"outputs": [
				{
					"internalType": "uint8",
					"name": "",
					"type": "uint8"
				}
			],
			"stateMutability": "view",
			"type": "function"
		},
		{
			"inputs": [],
			"name": "MAX_PLAYERS",
			"outputs": [
				{
					"internalType": "uint8",
					"name": "",
					"type": "uint8"
				}
			],
			"stateMutability": "view",
			"type": "function"
		},
		{
			"inputs": [],
			"name": "VOTING_DURATION",
			"outputs": [
				{
					"internalType": "uint256",
					"name": "",
					"type": "uint256"
				}
			],
			"stateMutability": "view",
			"type": "function"
		},
		{
			"inputs": [
				{
					"internalType": "uint256",
					"name": "",
					"type": "uint256"
				}
			],
			"name": "WORDS",
			"outputs": [
				{
					"internalType": "string",
					"name": "",
					"type": "string"
				}
			],
			"stateMutability": "view",
			"type": "function"
		},
		{
			"inputs": [
				{
					"internalType": "string",
					"name": "_gameID",
					"type": "string"
				},
				{
					"internalType": "uint8",
					"name": "_numOfPlayers",
					"type": "uint8"
				}
			],
			"name": "createGame",
			"outputs": [],
			"stateMutability": "nonpayable",
			"type": "function"
		},
		{
			"inputs": [
				{
					"internalType": "string",
					"name": "_gameID",
					"type": "string"
				}
			],
			"name": "deleteGame",
			"outputs": [],
			"stateMutability": "nonpayable",
			"type": "function"
		},
		{
			"inputs": [
				{
					"internalType": "string",
					"name": "_gameID",
					"type": "string"
				}
			],
			"name": "endVote",
			"outputs": [],
			"stateMutability": "nonpayable",
			"type": "function"
		},
		{
			"inputs": [
				{
					"internalType": "string",
					"name": "_gameID",
					"type": "string"
				}
			],
			"name": "joinGame",
			"outputs": [],
			"stateMutability": "nonpayable",
			"type": "function"
		},
		{
			"inputs": [
				{
					"internalType": "string",
					"name": "_gameID",
					"type": "string"
				}
			],
			"name": "leaveGame",
			"outputs": [],
			"stateMutability": "nonpayable",
			"type": "function"
		},
		{
			"inputs": [
				{
					"internalType": "string",
					"name": "_gameID",
					"type": "string"
				},
				{
					"internalType": "bytes1",
					"name": "_letter",
					"type": "bytes1"
				}
			],
			"name": "voteForLetter",
			"outputs": [],
			"stateMutability": "nonpayable",
			"type": "function"
		}
	]
}