{
	"data": {
		"bytecode": {
			"linkReferences": {},
			"object": "60806040526040518060a001604052806040518060400160405280600581526020017f4170706c6500000000000000000000000000000000000000000000000000000081525081526020016040518060400160405280600681526020017f42616e616e61000000000000000000000000000000000000000000000000000081525081526020016040518060400160405280600681526020017f436865727279000000000000000000000000000000000000000000000000000081525081526020016040518060400160405280600681526020017f44757269616e000000000000000000000000000000000000000000000000000081525081526020016040518060400160405280600a81526020017f456c6465726265727279000000000000000000000000000000000000000000008152508152505f906005610143929190610155565b5034801561014f575f80fd5b50610530565b828054828255905f5260205f2090810192821561019b579160200282015b8281111561019a57825182908161018a9190610461565b5091602001919060010190610173565b5b5090506101a891906101ac565b5090565b5b808211156101cb575f81816101c291906101cf565b506001016101ad565b5090565b5080546101db9061028b565b5f825580601f106101ec5750610209565b601f0160209004905f5260205f2090810190610208919061020c565b5b50565b5b80821115610223575f815f90555060010161020d565b5090565b5f81519050919050565b7f4e487b71000000000000000000000000000000000000000000000000000000005f52604160045260245ffd5b7f4e487b71000000000000000000000000000000000000000000000000000000005f52602260045260245ffd5b5f60028204905060018216806102a257607f821691505b6020821081036102b5576102b461025e565b5b50919050565b5f819050815f5260205f209050919050565b5f6020601f8301049050919050565b5f82821b905092915050565b5f600883026103177fffffffffffffffffffffffffffffffffffffffffffffffffffffffffffffffff826102dc565b61032186836102dc565b95508019841693508086168417925050509392505050565b5f819050919050565b5f819050919050565b5f61036561036061035b84610339565b610342565b610339565b9050919050565b5f819050919050565b61037e8361034b565b61039261038a8261036c565b8484546102e8565b825550505050565b5f90565b6103a661039a565b6103b1818484610375565b505050565b5b818110156103d4576103c95f8261039e565b6001810190506103b7565b5050565b601f821115610419576103ea816102bb565b6103f3846102cd565b81016020851015610402578190505b61041661040e856102cd565b8301826103b6565b50505b505050565b5f82821c905092915050565b5f6104395f198460080261041e565b1980831691505092915050565b5f610451838361042a565b9150826002028217905092915050565b61046a82610227565b67ffffffffffffffff81111561048357610482610231565b5b61048d825461028b565b6104988282856103d8565b5f60209050601f8311600181146104c9575f84156104b7578287015190505b6104c18582610446565b865550610528565b601f1984166104d7866102bb565b5f5b828110156104fe578489015182556001820191506020850194506020810190506104d9565b8683101561051b5784890151610517601f89168261042a565b8355505b6001600288020188555050505b505050505050565b6138988061053d5f395ff3fe608060405234801561000f575f80fd5b50600436106100cd575f3560e01c8063a8010c4e1161008a578063c22a95f111610064578063c22a95f1146101ff578063d19e39f01461021b578063d5c68ab214610237578063e565c83514610253576100cd565b8063a8010c4e14610195578063aa4103e2146101c5578063b3914f32146101e3576100cd565b80630f1ad663146100d15780633d536a2e146101015780634411b3eb1461011d5780634fd019131461013b578063684d467814610159578063a438d20814610177575b5f80fd5b6100eb60048036038101906100e69190612512565b61026f565b6040516100f891906125ad565b60405180910390f35b61011b600480360381019061011691906126f9565b610314565b005b610125610582565b604051610132919061275b565b60405180910390f35b610143610587565b604051610150919061275b565b60405180910390f35b61016161058c565b60405161016e919061275b565b60405180910390f35b61017f610591565b60405161018c9190612783565b60405180910390f35b6101af60048036038101906101aa91906126f9565b610597565b6040516101bc919061275b565b60405180910390f35b6101cd6105cc565b6040516101da9190612783565b60405180910390f35b6101fd60048036038101906101f8919061279c565b6105d2565b005b610219600480360381019061021491906126f9565b610b79565b005b610235600480360381019061023091906126f9565b610d4e565b005b610251600480360381019061024c91906126f9565b610ec9565b005b61026d6004803603810190610268919061283c565b611086565b005b5f818154811061027d575f80fd5b905f5260205f20015f915090508054610295906128c3565b80601f01602080910402602001604051908101604052809291908181526020018280546102c1906128c3565b801561030c5780601f106102e35761010080835404028352916020019161030c565b820191905f5260205f20905b8154815290600101906020018083116102ef57829003601f168201915b505050505081565b805f605b82604051610326919061292d565b90815260200160405180910390205f9054906101000a900460ff1660ff1603610384576040517f08c379a000000000000000000000000000000000000000000000000000000000815260040161037b9061298d565b60405180910390fd5b5f600180605b85604051610398919061292d565b90815260200160405180910390205f9054906101000a900460ff166103bd91906129d8565b60ff16600581106103d1576103d0612a0c565b5b6012020190508060010160149054906101000a900460ff1660ff168160010160159054906101000a900460ff1660ff1610610441576040517f08c379a000000000000000000000000000000000000000000000000000000000815260040161043890612a83565b60405180910390fd5b806002015f3373ffffffffffffffffffffffffffffffffffffffff1673ffffffffffffffffffffffffffffffffffffffff1681526020019081526020015f205f9054906101000a900460ff16156104cd576040517f08c379a00000000000000000000000000000000000000000000000000000000081526004016104c490612aeb565b60405180910390fd5b6001816002015f3373ffffffffffffffffffffffffffffffffffffffff1673ffffffffffffffffffffffffffffffffffffffff1681526020019081526020015f205f6101000a81548160ff0219169083151502179055503373ffffffffffffffffffffffffffffffffffffffff1683604051610549919061292d565b60405180910390207f6426ed08b4816b27e58d721b4ff6fb44e6696b9d5ca257dcbd4b0576eb4dc53960405160405180910390a3505050565b600581565b600581565b600681565b61012c81565b605b818051602081018201805184825260208301602085012081835280955050505050505f915054906101000a900460ff1681565b61038481565b815f605b826040516105e4919061292d565b90815260200160405180910390205f9054906101000a900460ff1660ff1603610642576040517f08c379a00000000000000000000000000000000000000000000000000000000081526004016106399061298d565b60405180910390fd5b82600180605b83604051610656919061292d565b90815260200160405180910390205f9054906101000a900460ff1661067b91906129d8565b60ff166005811061068f5761068e612a0c565b5b601202016002015f3373ffffffffffffffffffffffffffffffffffffffff1673ffffffffffffffffffffffffffffffffffffffff1681526020019081526020015f205f9054906101000a900460ff1661071d576040517f08c379a000000000000000000000000000000000000000000000000000000000815260040161071490612b79565b60405180910390fd5b5f835f8151811061073157610730612a0c565b5b602001015160f81c60f81b90505f600180605b88604051610752919061292d565b90815260200160405180910390205f9054906101000a900460ff1661077791906129d8565b60ff166005811061078b5761078a612a0c565b5b6012020190505f8160080190505f60f81b816008015f3373ffffffffffffffffffffffffffffffffffffffff1673ffffffffffffffffffffffffffffffffffffffff1681526020019081526020015f205f9054906101000a900460f81b7effffffffffffffffffffffffffffffffffffffffffffffffffffffffffffff19161461084a576040517f08c379a000000000000000000000000000000000000000000000000000000000815260040161084190612be1565b60405180910390fd5b5f7f41000000000000000000000000000000000000000000000000000000000000007effffffffffffffffffffffffffffffffffffffffffffffffffffffffffffff1916847effffffffffffffffffffffffffffffffffffffffffffffffffffffffffffff19161015801561092357507f5a000000000000000000000000000000000000000000000000000000000000007effffffffffffffffffffffffffffffffffffffffffffffffffffffffffffff1916847effffffffffffffffffffffffffffffffffffffffffffffffffffffffffffff191610155b90508080610a0557507f61000000000000000000000000000000000000000000000000000000000000007effffffffffffffffffffffffffffffffffffffffffffffffffffffffffffff1916847effffffffffffffffffffffffffffffffffffffffffffffffffffffffffffff191610158015610a0457507f7a000000000000000000000000000000000000000000000000000000000000007effffffffffffffffffffffffffffffffffffffffffffffffffffffffffffff1916847effffffffffffffffffffffffffffffffffffffffffffffffffffffffffffff191610155b5b610a44576040517f08c379a0000000000000000000000000000000000000000000000000000000008152600401610a3b90612c49565b60405180910390fd5b8015610a605760208460f81c610a5a91906129d8565b60f81b93505b826006015f857effffffffffffffffffffffffffffffffffffffffffffffffffffffffffffff19167effffffffffffffffffffffffffffffffffffffffffffffffffffffffffffff191681526020019081526020015f205f9054906101000a900460ff1615610b04576040517f08c379a0000000000000000000000000000000000000000000000000000000008152600401610afb90612cb1565b60405180910390fd5b610b12835f018333876113ad565b42836007018190555061012c826001015442610b2e9190612ccf565b1180610b6057508260010160159054906101000a900460ff1660ff16826002015f9054906101000a900460ff1660ff16145b15610b6f57610b6e83611600565b5b5050505050505050565b805f605b82604051610b8b919061292d565b90815260200160405180910390205f9054906101000a900460ff1660ff1603610be9576040517f08c379a0000000000000000000000000000000000000000000000000000000008152600401610be09061298d565b60405180910390fd5b81600180605b83604051610bfd919061292d565b90815260200160405180910390205f9054906101000a900460ff16610c2291906129d8565b60ff1660058110610c3657610c35612a0c565b5b601202016002015f3373ffffffffffffffffffffffffffffffffffffffff1673ffffffffffffffffffffffffffffffffffffffff1681526020019081526020015f205f9054906101000a900460ff16610cc4576040517f08c379a0000000000000000000000000000000000000000000000000000000008152600401610cbb90612b79565b60405180910390fd5b5f600180605b86604051610cd8919061292d565b90815260200160405180910390205f9054906101000a900460ff16610cfd91906129d8565b60ff1660058110610d1157610d10612a0c565b5b601202019050610d218133611ac2565b5f8160010160159054906101000a900460ff1660ff1603610d4857610d47816002611d0f565b5b50505050565b805f605b82604051610d60919061292d565b90815260200160405180910390205f9054906101000a900460ff1660ff1603610dbe576040517f08c379a0000000000000000000000000000000000000000000000000000000008152600401610db59061298d565b60405180910390fd5b5f600180605b85604051610dd2919061292d565b90815260200160405180910390205f9054906101000a900460ff16610df791906129d8565b60ff1660058110610e0b57610e0a612a0c565b5b6012020190505f816008019050805f015f9054906101000a900460ff16610e67576040517f08c379a0000000000000000000000000000000000000000000000000000000008152600401610e5e90612d4c565b60405180910390fd5b61012c816001015442610e7a9190612ccf565b11610eba576040517f08c379a0000000000000000000000000000000000000000000000000000000008152600401610eb190612db4565b60405180910390fd5b610ec382611600565b50505050565b805f605b82604051610edb919061292d565b90815260200160405180910390205f9054906101000a900460ff1660ff1603610f39576040517f08c379a0000000000000000000000000000000000000000000000000000000008152600401610f309061298d565b60405180910390fd5b5f600180605b85604051610f4d919061292d565b90815260200160405180910390205f9054906101000a900460ff16610f7291906129d8565b60ff1660058110610f8657610f85612a0c565b5b6012020190503373ffffffffffffffffffffffffffffffffffffffff16816001015f9054906101000a900473ffffffffffffffffffffffffffffffffffffffff1673ffffffffffffffffffffffffffffffffffffffff16148061103757505f73ffffffffffffffffffffffffffffffffffffffff16816001015f9054906101000a900473ffffffffffffffffffffffffffffffffffffffff1673ffffffffffffffffffffffffffffffffffffffff16145b611076576040517f08c379a000000000000000000000000000000000000000000000000000000000815260040161106d90612e42565b60405180910390fd5b611081816002611d0f565b505050565b5f605b83604051611097919061292d565b90815260200160405180910390205f9054906101000a900460ff1660ff16146110f5576040517f08c379a00000000000000000000000000000000000000000000000000000000081526004016110ec90612ed0565b60405180910390fd5b5f8160ff1611801561110e5750600560ff168160ff1611155b61114d576040517f08c379a000000000000000000000000000000000000000000000000000000000815260040161114490612f5e565b60405180910390fd5b5f611156611ec6565b90505f8160ff161161119d576040517f08c379a000000000000000000000000000000000000000000000000000000000815260040161119490612fc6565b60405180910390fd5b5f600180836111ac91906129d8565b60ff16600581106111c0576111bf612a0c565b5b60120201905083815f0190816111d69190613181565b5033816001015f6101000a81548173ffffffffffffffffffffffffffffffffffffffff021916908373ffffffffffffffffffffffffffffffffffffffff160217905550828160010160146101000a81548160ff021916908360ff1602179055505f423360405160200161124a9291906132e5565b604051602081830303815290604052805190602001205f1c90505f808054905082611275919061333d565b8154811061128657611285612a0c565b5b905f5260205f200182600301908161129e9190613394565b508160030180546112ae906128c3565b905067ffffffffffffffff8111156112c9576112c86125d5565b5b6040519080825280602002602001820160405280156112f75781602001602082028036833780820191505090505b5082600401908051906020019061130f929190612392565b5042826007018190555082605b8660405161132a919061292d565b90815260200160405180910390205f6101000a81548160ff021916908360ff1602179055508460405161135d919061292d565b60405180910390207f0a0048d71a81bd0849ad071dd103d646a72b493a92a1cdf4cb7c13cf30f577df85604051611394919061275b565b60405180910390a26113a68233611f98565b5050505050565b8183600301846002015f9054906101000a900460ff1660ff16600581106113d7576113d6612a0c565b5b015f6101000a81548173ffffffffffffffffffffffffffffffffffffffff021916908373ffffffffffffffffffffffffffffffffffffffff16021790555080836008015f8473ffffffffffffffffffffffffffffffffffffffff1673ffffffffffffffffffffffffffffffffffffffff1681526020019081526020015f205f6101000a81548160ff021916908360f81c02179055506001836009015f837effffffffffffffffffffffffffffffffffffffffffffffffffffffffffffff19167effffffffffffffffffffffffffffffffffffffffffffffffffffffffffffff191681526020019081526020015f205f8282829054906101000a900460ff166114df9190613479565b92506101000a81548160ff021916908360ff1602179055506001836002015f8282829054906101000a900460ff166115179190613479565b92506101000a81548160ff021916908360ff160217905550825f015f9054906101000a900460ff166115aa576001835f015f6101000a81548160ff02191690831515021790555042836001018190555083604051611575919061352d565b60405180910390207fc39eb03dc11d6bbeb3b818b739e4478f7874c1f803d2e603cc7d7a45045cb68d60405160405180910390a25b8173ffffffffffffffffffffffffffffffffffffffff167fe1be499d3000b42a54f5be9b908b831fbed5da7f8431ee79b82a3fa6d092781e85836040516115f29291906135fe565b60405180910390a250505050565b5f8160080190505f8060f81b90505f600190505f805f5b856002015f9054906101000a900460ff1660ff1681101561173f575f866008015f88600301846005811061164e5761164d612a0c565b5b015f9054906101000a900473ffffffffffffffffffffffffffffffffffffffff1673ffffffffffffffffffffffffffffffffffffffff1673ffffffffffffffffffffffffffffffffffffffff1681526020019081526020015f205f9054906101000a900460f81b90505f876009015f837effffffffffffffffffffffffffffffffffffffffffffffffffffffffffffff19167effffffffffffffffffffffffffffffffffffffffffffffffffffffffffffff191681526020019081526020015f205f9054906101000a900460ff1690508360ff168160ff161115611730578196505b50508080600101915050611617565b505f866003018054611750906128c3565b80601f016020809104026020016040519081016040528092919081815260200182805461177c906128c3565b80156117c75780601f1061179e576101008083540402835291602001916117c7565b820191905f5260205f20905b8154815290600101906020018083116117aa57829003601f168201915b505050505090505f5b81518110156119a457857effffffffffffffffffffffffffffffffffffffffffffffffffffffffffffff191682828151811061180f5761180e612a0c565b5b602001015160f81c60f81b7effffffffffffffffffffffffffffffffffffffffffffffffffffffffffffff1916036118f8576001886006015f887effffffffffffffffffffffffffffffffffffffffffffffffffffffffffffff19167effffffffffffffffffffffffffffffffffffffffffffffffffffffffffffff191681526020019081526020015f205f6101000a81548160ff02191690831515021790555060018860040182815481106118c8576118c7612a0c565b5b905f5260205f2090602091828204019190066101000a81548160ff02191690831515021790555060019350611997565b87600401818154811061190e5761190d612a0c565b5b905f5260205f2090602091828204019190069054906101000a900460ff16611996577f5f0000000000000000000000000000000000000000000000000000000000000082828151811061196457611963612a0c565b5b60200101907effffffffffffffffffffffffffffffffffffffffffffffffffffffffffffff191690815f1a9053505f94505b5b80806001019150506117d0565b50866008015f8082015f6101000a81549060ff0219169055600182015f9055600282015f6101000a81549060ff0219169055600382015f6119e59190612433565b5050865f016040516119f791906136ac565b60405180910390207f93484660649cf971864763c1bc0e0d0f5d7fdceeb388472825d299f8283268de86838615604051611a33939291906136dc565b60405180910390a282611aa7576001876005015f8282829054906101000a900460ff16611a609190613479565b92506101000a81548160ff021916908360ff160217905550600660ff16876005015f9054906101000a900460ff1660ff1603611aa257611aa1876001611d0f565b5b611ab9565b8315611ab857611ab7875f611d0f565b5b5b50505050505050565b5f826002015f8373ffffffffffffffffffffffffffffffffffffffff1673ffffffffffffffffffffffffffffffffffffffff1681526020019081526020015f205f6101000a81548160ff02191690831515021790555060018260010160158282829054906101000a900460ff16611b3991906129d8565b92506101000a81548160ff021916908360ff1602179055505f8260080190505f8360010160159054906101000a900460ff1660ff16118015611b875750805f015f9054906101000a900460ff165b8015611c0357505f60f81b816008015f8473ffffffffffffffffffffffffffffffffffffffff1673ffffffffffffffffffffffffffffffffffffffff1681526020019081526020015f205f9054906101000a900460f81b7effffffffffffffffffffffffffffffffffffffffffffffffffffffffffffff191614155b15611c1657611c15835f01828461202c565b5b8173ffffffffffffffffffffffffffffffffffffffff16836001015f9054906101000a900473ffffffffffffffffffffffffffffffffffffffff1673ffffffffffffffffffffffffffffffffffffffff1603611caf575f836001015f6101000a81548173ffffffffffffffffffffffffffffffffffffffff021916908373ffffffffffffffffffffffffffffffffffffffff1602179055505b8173ffffffffffffffffffffffffffffffffffffffff16835f01604051611cd691906136ac565b60405180910390207fe3c5754d381588d73abe5a3ea491352ae6599bc3517832567c983a64f1fcb85b60405160405180910390a3505050565b815f01604051611d1f91906136ac565b60405180910390207f3d40bf146111cf2fb1681f012b4ced47c0260037f37ac76366766d0d20e1689d8284600301604051611d5b92919061380c565b60405180910390a25f605b835f01604051611d7691906136ac565b90815260200160405180910390205f9054906101000a900460ff169050605b835f01604051611da591906136ac565b90815260200160405180910390205f6101000a81549060ff021916905560018082611dd091906129d8565b60ff1660058110611de457611de3612a0c565b5b601202015f8082015f611df79190612451565b600182015f6101000a81549073ffffffffffffffffffffffffffffffffffffffff02191690556001820160146101000a81549060ff02191690556001820160156101000a81549060ff0219169055600382015f611e549190612451565b600482015f611e63919061248e565b600582015f6101000a81549060ff0219169055600782015f9055600882015f8082015f6101000a81549060ff0219169055600182015f9055600282015f6101000a81549060ff0219169055600382015f611ebd9190612433565b50505050505050565b5f805f90505b60058160ff161015611f90575f60018260ff1660058110611ef057611eef612a0c565b5b6012020190505f605b825f01604051611f0991906136ac565b90815260200160405180910390205f9054906101000a900460ff1660ff1603611f4257600182611f399190613479565b92505050611f95565b610384816007015442611f559190612ccf565b1115611f7c57611f66816002611d0f565b600182611f739190613479565b92505050611f95565b508080611f889061383a565b915050611ecc565b505f90505b90565b6001826002015f8373ffffffffffffffffffffffffffffffffffffffff1673ffffffffffffffffffffffffffffffffffffffff1681526020019081526020015f205f6101000a81548160ff02191690831515021790555060018260010160158282829054906101000a900460ff166120109190613479565b92506101000a81548160ff021916908360ff1602179055505050565b5f826008015f8373ffffffffffffffffffffffffffffffffffffffff1673ffffffffffffffffffffffffffffffffffffffff1681526020019081526020015f205f9054906101000a900460f81b90505f60f81b836008015f8473ffffffffffffffffffffffffffffffffffffffff1673ffffffffffffffffffffffffffffffffffffffff1681526020019081526020015f205f6101000a81548160ff021916908360f81c02179055505f805b846002015f9054906101000a900460ff1660ff16811015612302578373ffffffffffffffffffffffffffffffffffffffff168560030182600581106121205761211f612a0c565b5b015f9054906101000a900473ffffffffffffffffffffffffffffffffffffffff1673ffffffffffffffffffffffffffffffffffffffff16036121ba575f85600301826005811061217357612172612a0c565b5b015f6101000a81548173ffffffffffffffffffffffffffffffffffffffff021916908373ffffffffffffffffffffffffffffffffffffffff160217905550600191506122f5565b81156122f4575f856003016001836121d29190612ccf565b600581106121e3576121e2612a0c565b5b015f9054906101000a900473ffffffffffffffffffffffffffffffffffffffff16905085600301826005811061221c5761221b612a0c565b5b015f9054906101000a900473ffffffffffffffffffffffffffffffffffffffff168660030160018461224e9190612ccf565b6005811061225f5761225e612a0c565b5b015f6101000a81548173ffffffffffffffffffffffffffffffffffffffff021916908373ffffffffffffffffffffffffffffffffffffffff160217905550808660030183600581106122b4576122b3612a0c565b5b015f6101000a81548173ffffffffffffffffffffffffffffffffffffffff021916908373ffffffffffffffffffffffffffffffffffffffff160217905550505b5b80806001019150506120d8565b506001846002015f8282829054906101000a900460ff1661232391906129d8565b92506101000a81548160ff021916908360ff1602179055508273ffffffffffffffffffffffffffffffffffffffff167fe11e7b01cdd17c8c7ab41ed7897874e6a229485a77cc445646517fdac64e75bc86846040516123839291906135fe565b60405180910390a25050505050565b828054828255905f5260205f2090601f01602090048101928215612422579160200282015f5b838211156123f457835183826101000a81548160ff02191690831515021790555092602001926001016020815f010492830192600103026123b8565b80156124205782816101000a81549060ff02191690556001016020815f010492830192600103026123f4565b505b50905061242f91906124b3565b5090565b505f81556001015f81556001015f81556001015f81556001015f9055565b50805461245d906128c3565b5f825580601f1061246e575061248b565b601f0160209004905f5260205f209081019061248a91906124b3565b5b50565b5080545f8255601f0160209004905f5260205f20908101906124b091906124b3565b50565b5b808211156124ca575f815f9055506001016124b4565b5090565b5f604051905090565b5f80fd5b5f80fd5b5f819050919050565b6124f1816124df565b81146124fb575f80fd5b50565b5f8135905061250c816124e8565b92915050565b5f60208284031215612527576125266124d7565b5b5f612534848285016124fe565b91505092915050565b5f81519050919050565b5f82825260208201905092915050565b8281835e5f83830152505050565b5f601f19601f8301169050919050565b5f61257f8261253d565b6125898185612547565b9350612599818560208601612557565b6125a281612565565b840191505092915050565b5f6020820190508181035f8301526125c58184612575565b905092915050565b5f80fd5b5f80fd5b7f4e487b71000000000000000000000000000000000000000000000000000000005f52604160045260245ffd5b61260b82612565565b810181811067ffffffffffffffff8211171561262a576126296125d5565b5b80604052505050565b5f61263c6124ce565b90506126488282612602565b919050565b5f67ffffffffffffffff821115612667576126666125d5565b5b61267082612565565b9050602081019050919050565b828183375f83830152505050565b5f61269d6126988461264d565b612633565b9050828152602081018484840111156126b9576126b86125d1565b5b6126c484828561267d565b509392505050565b5f82601f8301126126e0576126df6125cd565b5b81356126f084826020860161268b565b91505092915050565b5f6020828403121561270e5761270d6124d7565b5b5f82013567ffffffffffffffff81111561272b5761272a6124db565b5b612737848285016126cc565b91505092915050565b5f60ff82169050919050565b61275581612740565b82525050565b5f60208201905061276e5f83018461274c565b92915050565b61277d816124df565b82525050565b5f6020820190506127965f830184612774565b92915050565b5f80604083850312156127b2576127b16124d7565b5b5f83013567ffffffffffffffff8111156127cf576127ce6124db565b5b6127db858286016126cc565b925050602083013567ffffffffffffffff8111156127fc576127fb6124db565b5b612808858286016126cc565b9150509250929050565b61281b81612740565b8114612825575f80fd5b50565b5f8135905061283681612812565b92915050565b5f8060408385031215612852576128516124d7565b5b5f83013567ffffffffffffffff81111561286f5761286e6124db565b5b61287b858286016126cc565b925050602061288c85828601612828565b9150509250929050565b7f4e487b71000000000000000000000000000000000000000000000000000000005f52602260045260245ffd5b5f60028204905060018216806128da57607f821691505b6020821081036128ed576128ec612896565b5b50919050565b5f81905092915050565b5f6129078261253d565b61291181856128f3565b9350612921818560208601612557565b80840191505092915050565b5f61293882846128fd565b915081905092915050565b7f47616d6573206973206e6f7420616374697665000000000000000000000000005f82015250565b5f612977601383612547565b915061298282612943565b602082019050919050565b5f6020820190508181035f8301526129a48161296b565b9050919050565b7f4e487b71000000000000000000000000000000000000000000000000000000005f52601160045260245ffd5b5f6129e282612740565b91506129ed83612740565b9250828203905060ff811115612a0657612a056129ab565b5b92915050565b7f4e487b71000000000000000000000000000000000000000000000000000000005f52603260045260245ffd5b7f4e6f206d6f726520706c617965727320736c6f747320617661696c61626c65005f82015250565b5f612a6d601f83612547565b9150612a7882612a39565b602082019050919050565b5f6020820190508181035f830152612a9a81612a61565b9050919050565b7f416c726561647920696e207468652067616d65000000000000000000000000005f82015250565b5f612ad5601383612547565b9150612ae082612aa1565b602082019050919050565b5f6020820190508181035f830152612b0281612ac9565b9050919050565b7f596f7520617265206e6f74206120706c61796572206f6620746869732067616d5f8201527f6500000000000000000000000000000000000000000000000000000000000000602082015250565b5f612b63602183612547565b9150612b6e82612b09565b604082019050919050565b5f6020820190508181035f830152612b9081612b57565b9050919050565b7f596f7520616c726561647920766f7465640000000000000000000000000000005f82015250565b5f612bcb601183612547565b9150612bd682612b97565b602082019050919050565b5f6020820190508181035f830152612bf881612bbf565b9050919050565b7f4c6574746572206d75737420626520696e20412d5a20612d7a000000000000005f82015250565b5f612c33601983612547565b9150612c3e82612bff565b602082019050919050565b5f6020820190508181035f830152612c6081612c27565b9050919050565b7f4c65747465722068617320616c7265616479206265656e2067756573736564005f82015250565b5f612c9b601f83612547565b9150612ca682612c67565b602082019050919050565b5f6020820190508181035f830152612cc881612c8f565b9050919050565b5f612cd9826124df565b9150612ce4836124df565b9250828203905081811115612cfc57612cfb6129ab565b5b92915050565b7f4e6f2061637469766520766f74650000000000000000000000000000000000005f82015250565b5f612d36600e83612547565b9150612d4182612d02565b602082019050919050565b5f6020820190508181035f830152612d6381612d2a565b9050919050565b7f566f7465206475726174696f6e20686173206e6f7420656c61707365640000005f82015250565b5f612d9e601d83612547565b9150612da982612d6a565b602082019050919050565b5f6020820190508181035f830152612dcb81612d92565b9050919050565b7f4f6e6c792067616d652063726561746f722063616e2064656c657465207468655f8201527f2067616d65000000000000000000000000000000000000000000000000000000602082015250565b5f612e2c602583612547565b9150612e3782612dd2565b604082019050919050565b5f6020820190508181035f830152612e5981612e20565b9050919050565b7f412067616d652077697468207468652063686f73656e20494420616c726561645f8201527f7920657869737473000000000000000000000000000000000000000000000000602082015250565b5f612eba602883612547565b9150612ec582612e60565b604082019050919050565b5f6020820190508181035f830152612ee781612eae565b9050919050565b7f4174206c65617374206f6e6520706c6179657220726571756972656420616e645f8201527f206174206d6f7374204d41585f504c415945525320616c6c6f77656400000000602082015250565b5f612f48603c83612547565b9150612f5382612eee565b604082019050919050565b5f6020820190508181035f830152612f7581612f3c565b9050919050565b7f4e6f20667265652067616d6520736c6f7420617661696c61626c6500000000005f82015250565b5f612fb0601b83612547565b9150612fbb82612f7c565b602082019050919050565b5f6020820190508181035f830152612fdd81612fa4565b9050919050565b5f819050815f5260205f209050919050565b5f6020601f8301049050919050565b5f82821b905092915050565b5f600883026130407fffffffffffffffffffffffffffffffffffffffffffffffffffffffffffffffff82613005565b61304a8683613005565b95508019841693508086168417925050509392505050565b5f819050919050565b5f61308561308061307b846124df565b613062565b6124df565b9050919050565b5f819050919050565b61309e8361306b565b6130b26130aa8261308c565b848454613011565b825550505050565b5f90565b6130c66130ba565b6130d1818484613095565b505050565b5b818110156130f4576130e95f826130be565b6001810190506130d7565b5050565b601f8211156131395761310a81612fe4565b61311384612ff6565b81016020851015613122578190505b61313661312e85612ff6565b8301826130d6565b50505b505050565b5f82821c905092915050565b5f6131595f198460080261313e565b1980831691505092915050565b5f613171838361314a565b9150826002028217905092915050565b61318a8261253d565b67ffffffffffffffff8111156131a3576131a26125d5565b5b6131ad82546128c3565b6131b88282856130f8565b5f60209050601f8311600181146131e9575f84156131d7578287015190505b6131e18582613166565b865550613248565b601f1984166131f786612fe4565b5f5b8281101561321e578489015182556001820191506020850194506020810190506131f9565b8683101561323b5784890151613237601f89168261314a565b8355505b6001600288020188555050505b505050505050565b5f819050919050565b61326a613265826124df565b613250565b82525050565b5f73ffffffffffffffffffffffffffffffffffffffff82169050919050565b5f61329982613270565b9050919050565b5f8160601b9050919050565b5f6132b6826132a0565b9050919050565b5f6132c7826132ac565b9050919050565b6132df6132da8261328f565b6132bd565b82525050565b5f6132f08285613259565b60208201915061330082846132ce565b6014820191508190509392505050565b7f4e487b71000000000000000000000000000000000000000000000000000000005f52601260045260245ffd5b5f613347826124df565b9150613352836124df565b92508261336257613361613310565b5b828206905092915050565b5f8154905061337b816128c3565b9050919050565b5f819050815f5260205f209050919050565b8181036133a2575050613477565b6133ab8261336d565b67ffffffffffffffff8111156133c4576133c36125d5565b5b6133ce82546128c3565b6133d98282856130f8565b5f601f831160018114613406575f84156133f4578287015490505b6133fe8582613166565b865550613470565b601f19841661341487613382565b965061341f86612fe4565b5f5b8281101561344657848901548255600182019150600185019450602081019050613421565b86831015613463578489015461345f601f89168261314a565b8355505b6001600288020188555050505b5050505050505b565b5f61348382612740565b915061348e83612740565b9250828201905060ff8111156134a7576134a66129ab565b5b92915050565b5f81546134b9816128c3565b6134c381866128f3565b9450600182165f81146134dd57600181146134f257613524565b60ff1983168652811515820286019350613524565b6134fb85613382565b5f5b8381101561351c578154818901526001820191506020810190506134fd565b838801955050505b50505092915050565b5f61353882846134ad565b915081905092915050565b5f815461354f816128c3565b6135598186612547565b9450600182165f81146135735760018114613589576135bb565b60ff1983168652811515602002860193506135bb565b61359285613382565b5f5b838110156135b357815481890152600182019150602081019050613594565b808801955050505b50505092915050565b5f7fff0000000000000000000000000000000000000000000000000000000000000082169050919050565b6135f8816135c4565b82525050565b5f6040820190508181035f8301526136168185613543565b905061362560208301846135ef565b9392505050565b5f8154613638816128c3565b61364281866128f3565b9450600182165f811461365c5760018114613671576136a3565b60ff19831686528115158202860193506136a3565b61367a85612fe4565b5f5b8381101561369b5781548189015260018201915060208101905061367c565b838801955050505b50505092915050565b5f6136b7828461362c565b915081905092915050565b5f8115159050919050565b6136d6816136c2565b82525050565b5f6060820190506136ef5f8301866135ef565b81810360208301526137018185612575565b905061371060408301846136cd565b949350505050565b7f4e487b71000000000000000000000000000000000000000000000000000000005f52602160045260245ffd5b6003811061375657613755613718565b5b50565b5f81905061376682613745565b919050565b5f61377582613759565b9050919050565b6137858161376b565b82525050565b5f8154613797816128c3565b6137a18186612547565b9450600182165f81146137bb57600181146137d157613803565b60ff198316865281151560200286019350613803565b6137da85612fe4565b5f5b838110156137fb578154818901526001820191506020810190506137dc565b808801955050505b50505092915050565b5f60408201905061381f5f83018561377c565b8181036020830152613831818461378b565b90509392505050565b5f61384482612740565b915060ff8203613857576138566129ab565b5b60018201905091905056fea26469706673582212206f247534f263093368dca45aaf4283d5323bd3bcd6046ec2a64b808844757aaf64736f6c634300081a0033",
			"opcodes": "PUSH1 0x80 PUSH1 0x40 MSTORE PUSH1 0x40 MLOAD DUP1 PUSH1 0xA0 ADD PUSH1 0x40 MSTORE DUP1 PUSH1 0x40 MLOAD DUP1 PUSH1 0x40 ADD PUSH1 0x40 MSTORE DUP1 PUSH1 0x5 DUP2 MSTORE PUSH1 0x20 ADD PUSH32 0x4170706C65000000000000000000000000000000000000000000000000000000 DUP2 MSTORE POP DUP2 MSTORE PUSH1 0x20 ADD PUSH1 0x40 MLOAD DUP1 PUSH1 0x40 ADD PUSH1 0x40 MSTORE DUP1 PUSH1 0x6 DUP2 MSTORE PUSH1 0x20 ADD PUSH32 0x42616E616E610000000000000000000000000000000000000000000000000000 DUP2 MSTORE POP DUP2 MSTORE PUSH1 0x20 ADD PUSH1 0x40 MLOAD DUP1 PUSH1 0x40 ADD PUSH1 0x40 MSTORE DUP1 PUSH1 0x6 DUP2 MSTORE PUSH1 0x20 ADD PUSH32 0x4368657272790000000000000000000000000000000000000000000000000000 DUP2 MSTORE POP DUP2 MSTORE PUSH1 0x20 ADD PUSH1 0x40 MLOAD DUP1 PUSH1 0x40 ADD PUSH1 0x40 MSTORE DUP1 PUSH1 0x6 DUP2 MSTORE PUSH1 0x20 ADD PUSH32 0x44757269616E0000000000000000000000000000000000000000000000000000 DUP2 MSTORE POP DUP2 MSTORE PUSH1 0x20 ADD PUSH1 0x40 MLOAD DUP1 PUSH1 0x40 ADD PUSH1 0x40 MSTORE DUP1 PUSH1 0xA DUP2 MSTORE PUSH1 0x20 ADD PUSH32 0x456C646572626572727900000000000000000000000000000000000000000000 DUP2 MSTORE POP DUP2 MSTORE POP PUSH0 SWAP1 PUSH1 0x5 PUSH2 0x143 SWAP3 SWAP2 SWAP1 PUSH2 0x155 JUMP JUMPDEST POP CALLVALUE DUP1 ISZERO PUSH2 0x14F JUMPI PUSH0 DUP1 REVERT JUMPDEST POP PUSH2 0x530 JUMP JUMPDEST DUP3 DUP1 SLOAD DUP3 DUP3 SSTORE SWAP1 PUSH0 MSTORE PUSH1 0x20 PUSH0 KECCAK256 SWAP1 DUP2 ADD SWAP3 DUP3 ISZERO PUSH2 0x19B JUMPI SWAP2 PUSH1 0x20 MUL DUP3 ADD JUMPDEST DUP3 DUP2 GT ISZERO PUSH2 0x19A JUMPI DUP3 MLOAD DUP3 SWAP1 DUP2 PUSH2 0x18A SWAP2 SWAP1 PUSH2 0x461 JUMP JUMPDEST POP SWAP2 PUSH1 0x20 ADD SWAP2 SWAP1 PUSH1 0x1 ADD SWAP1 PUSH2 0x173 JUMP JUMPDEST JUMPDEST POP SWAP1 POP PUSH2 0x1A8 SWAP2 SWAP1 PUSH2 0x1AC JUMP JUMPDEST POP SWAP1 JUMP JUMPDEST JUMPDEST DUP1 DUP3 GT ISZERO PUSH2 0x1CB JUMPI PUSH0 DUP2 DUP2 PUSH2 0x1C2 SWAP2 SWAP1 PUSH2 0x1CF JUMP JUMPDEST POP PUSH1 0x1 ADD PUSH2 0x1AD JUMP JUMPDEST POP SWAP1 JUMP JUMPDEST POP DUP1 SLOAD PUSH2 0x1DB SWAP1 PUSH2 0x28B JUMP JUMPDEST PUSH0 DUP3 SSTORE DUP1 PUSH1 0x1F LT PUSH2 0x1EC JUMPI POP PUSH2 0x209 JUMP JUMPDEST PUSH1 0x1F ADD PUSH1 0x20 SWAP1 DIV SWAP1 PUSH0 MSTORE PUSH1 0x20 PUSH0 KECCAK256 SWAP1 DUP2 ADD SWAP1 PUSH2 0x208 SWAP2 SWAP1 PUSH2 0x20C JUMP JUMPDEST JUMPDEST POP JUMP JUMPDEST JUMPDEST DUP1 DUP3 GT ISZERO PUSH2 0x223 JUMPI PUSH0 DUP2 PUSH0 SWAP1 SSTORE POP PUSH1 0x1 ADD PUSH2 0x20D JUMP JUMPDEST POP SWAP1 JUMP JUMPDEST PUSH0 DUP2 MLOAD SWAP1 POP SWAP2 SWAP1 POP JUMP JUMPDEST PUSH32 0x4E487B7100000000000000000000000000000000000000000000000000000000 PUSH0 MSTORE PUSH1 0x41 PUSH1 0x4 MSTORE PUSH1 0x24 PUSH0 REVERT JUMPDEST PUSH32 0x4E487B7100000000000000000000000000000000000000000000000000000000 PUSH0 MSTORE PUSH1 0x22 PUSH1 0x4 MSTORE PUSH1 0x24 PUSH0 REVERT JUMPDEST PUSH0 PUSH1 0x2 DUP3 DIV SWAP1 POP PUSH1 0x1 DUP3 AND DUP1 PUSH2 0x2A2 JUMPI PUSH1 0x7F DUP3 AND SWAP2 POP JUMPDEST PUSH1 0x20 DUP3 LT DUP2 SUB PUSH2 0x2B5 JUMPI PUSH2 0x2B4 PUSH2 0x25E JUMP JUMPDEST JUMPDEST POP SWAP2 SWAP1 POP JUMP JUMPDEST PUSH0 DUP2 SWAP1 POP DUP2 PUSH0 MSTORE PUSH1 0x20 PUSH0 KECCAK256 SWAP1 POP SWAP2 SWAP1 POP JUMP JUMPDEST PUSH0 PUSH1 0x20 PUSH1 0x1F DUP4 ADD DIV SWAP1 POP SWAP2 SWAP1 POP JUMP JUMPDEST PUSH0 DUP3 DUP3 SHL SWAP1 POP SWAP3 SWAP2 POP POP JUMP JUMPDEST PUSH0 PUSH1 0x8 DUP4 MUL PUSH2 0x317 PUSH32 0xFFFFFFFFFFFFFFFFFFFFFFFFFFFFFFFFFFFFFFFFFFFFFFFFFFFFFFFFFFFFFFFF DUP3 PUSH2 0x2DC JUMP JUMPDEST PUSH2 0x321 DUP7 DUP4 PUSH2 0x2DC JUMP JUMPDEST SWAP6 POP DUP1 NOT DUP5 AND SWAP4 POP DUP1 DUP7 AND DUP5 OR SWAP3 POP POP POP SWAP4 SWAP3 POP POP POP JUMP JUMPDEST PUSH0 DUP2 SWAP1 POP SWAP2 SWAP1 POP JUMP JUMPDEST PUSH0 DUP2 SWAP1 POP SWAP2 SWAP1 POP JUMP JUMPDEST PUSH0 PUSH2 0x365 PUSH2 0x360 PUSH2 0x35B DUP5 PUSH2 0x339 JUMP JUMPDEST PUSH2 0x342 JUMP JUMPDEST PUSH2 0x339 JUMP JUMPDEST SWAP1 POP SWAP2 SWAP1 POP JUMP JUMPDEST PUSH0 DUP2 SWAP1 POP SWAP2 SWAP1 POP JUMP JUMPDEST PUSH2 0x37E DUP4 PUSH2 0x34B JUMP JUMPDEST PUSH2 0x392 PUSH2 0x38A DUP3 PUSH2 0x36C JUMP JUMPDEST DUP5 DUP5 SLOAD PUSH2 0x2E8 JUMP JUMPDEST DUP3 SSTORE POP POP POP POP JUMP JUMPDEST PUSH0 SWAP1 JUMP JUMPDEST PUSH2 0x3A6 PUSH2 0x39A JUMP JUMPDEST PUSH2 0x3B1 DUP2 DUP5 DUP5 PUSH2 0x375 JUMP JUMPDEST POP POP POP JUMP JUMPDEST JUMPDEST DUP2 DUP2 LT ISZERO PUSH2 0x3D4 JUMPI PUSH2 0x3C9 PUSH0 DUP3 PUSH2 0x39E JUMP JUMPDEST PUSH1 0x1 DUP2 ADD SWAP1 POP PUSH2 0x3B7 JUMP JUMPDEST POP POP JUMP JUMPDEST PUSH1 0x1F DUP3 GT ISZERO PUSH2 0x419 JUMPI PUSH2 0x3EA DUP2 PUSH2 0x2BB JUMP JUMPDEST PUSH2 0x3F3 DUP5 PUSH2 0x2CD JUMP JUMPDEST DUP2 ADD PUSH1 0x20 DUP6 LT ISZERO PUSH2 0x402 JUMPI DUP2 SWAP1 POP JUMPDEST PUSH2 0x416 PUSH2 0x40E DUP6 PUSH2 0x2CD JUMP JUMPDEST DUP4 ADD DUP3 PUSH2 0x3B6 JUMP JUMPDEST POP POP JUMPDEST POP POP POP JUMP JUMPDEST PUSH0 DUP3 DUP3 SHR SWAP1 POP SWAP3 SWAP2 POP POP JUMP JUMPDEST PUSH0 PUSH2 0x439 PUSH0 NOT DUP5 PUSH1 0x8 MUL PUSH2 0x41E JUMP JUMPDEST NOT DUP1 DUP4 AND SWAP2 POP POP SWAP3 SWAP2 POP POP JUMP JUMPDEST PUSH0 PUSH2 0x451 DUP4 DUP4 PUSH2 0x42A JUMP JUMPDEST SWAP2 POP DUP3 PUSH1 0x2 MUL DUP3 OR SWAP1 POP SWAP3 SWAP2 POP POP JUMP JUMPDEST PUSH2 0x46A DUP3 PUSH2 0x227 JUMP JUMPDEST PUSH8 0xFFFFFFFFFFFFFFFF DUP2 GT ISZERO PUSH2 0x483 JUMPI PUSH2 0x482 PUSH2 0x231 JUMP JUMPDEST JUMPDEST PUSH2 0x48D DUP3 SLOAD PUSH2 0x28B JUMP JUMPDEST PUSH2 0x498 DUP3 DUP3 DUP6 PUSH2 0x3D8 JUMP JUMPDEST PUSH0 PUSH1 0x20 SWAP1 POP PUSH1 0x1F DUP4 GT PUSH1 0x1 DUP2 EQ PUSH2 0x4C9 JUMPI PUSH0 DUP5 ISZERO PUSH2 0x4B7 JUMPI DUP3 DUP8 ADD MLOAD SWAP1 POP JUMPDEST PUSH2 0x4C1 DUP6 DUP3 PUSH2 0x446 JUMP JUMPDEST DUP7 SSTORE POP PUSH2 0x528 JUMP JUMPDEST PUSH1 0x1F NOT DUP5 AND PUSH2 0x4D7 DUP7 PUSH2 0x2BB JUMP JUMPDEST PUSH0 JUMPDEST DUP3 DUP2 LT ISZERO PUSH2 0x4FE JUMPI DUP5 DUP10 ADD MLOAD DUP3 SSTORE PUSH1 0x1 DUP3 ADD SWAP2 POP PUSH1 0x20 DUP6 ADD SWAP5 POP PUSH1 0x20 DUP2 ADD SWAP1 POP PUSH2 0x4D9 JUMP JUMPDEST DUP7 DUP4 LT ISZERO PUSH2 0x51B JUMPI DUP5 DUP10 ADD MLOAD PUSH2 0x517 PUSH1 0x1F DUP10 AND DUP3 PUSH2 0x42A JUMP JUMPDEST DUP4 SSTORE POP JUMPDEST PUSH1 0x1 PUSH1 0x2 DUP9 MUL ADD DUP9 SSTORE POP POP POP JUMPDEST POP POP POP POP POP POP JUMP JUMPDEST PUSH2 0x3898 DUP1 PUSH2 0x53D PUSH0 CODECOPY PUSH0 RETURN INVALID PUSH1 0x80 PUSH1 0x40 MSTORE CALLVALUE DUP1 ISZERO PUSH2 0xF JUMPI PUSH0 DUP1 REVERT JUMPDEST POP PUSH1 0x4 CALLDATASIZE LT PUSH2 0xCD JUMPI PUSH0 CALLDATALOAD PUSH1 0xE0 SHR DUP1 PUSH4 0xA8010C4E GT PUSH2 0x8A JUMPI DUP1 PUSH4 0xC22A95F1 GT PUSH2 0x64 JUMPI DUP1 PUSH4 0xC22A95F1 EQ PUSH2 0x1FF JUMPI DUP1 PUSH4 0xD19E39F0 EQ PUSH2 0x21B JUMPI DUP1 PUSH4 0xD5C68AB2 EQ PUSH2 0x237 JUMPI DUP1 PUSH4 0xE565C835 EQ PUSH2 0x253 JUMPI PUSH2 0xCD JUMP JUMPDEST DUP1 PUSH4 0xA8010C4E EQ PUSH2 0x195 JUMPI DUP1 PUSH4 0xAA4103E2 EQ PUSH2 0x1C5 JUMPI DUP1 PUSH4 0xB3914F32 EQ PUSH2 0x1E3 JUMPI PUSH2 0xCD JUMP JUMPDEST DUP1 PUSH4 0xF1AD663 EQ PUSH2 0xD1 JUMPI DUP1 PUSH4 0x3D536A2E EQ PUSH2 0x101 JUMPI DUP1 PUSH4 0x4411B3EB EQ PUSH2 0x11D JUMPI DUP1 PUSH4 0x4FD01913 EQ PUSH2 0x13B JUMPI DUP1 PUSH4 0x684D4678 EQ PUSH2 0x159 JUMPI DUP1 PUSH4 0xA438D208 EQ PUSH2 0x177 JUMPI JUMPDEST PUSH0 DUP1 REVERT JUMPDEST PUSH2 0xEB PUSH1 0x4 DUP1 CALLDATASIZE SUB DUP2 ADD SWAP1 PUSH2 0xE6 SWAP2 SWAP1 PUSH2 0x2512 JUMP JUMPDEST PUSH2 0x26F JUMP JUMPDEST PUSH1 0x40 MLOAD PUSH2 0xF8 SWAP2 SWAP1 PUSH2 0x25AD JUMP JUMPDEST PUSH1 0x40 MLOAD DUP1 SWAP2 SUB SWAP1 RETURN JUMPDEST PUSH2 0x11B PUSH1 0x4 DUP1 CALLDATASIZE SUB DUP2 ADD SWAP1 PUSH2 0x116 SWAP2 SWAP1 PUSH2 0x26F9 JUMP JUMPDEST PUSH2 0x314 JUMP JUMPDEST STOP JUMPDEST PUSH2 0x125 PUSH2 0x582 JUMP JUMPDEST PUSH1 0x40 MLOAD PUSH2 0x132 SWAP2 SWAP1 PUSH2 0x275B JUMP JUMPDEST PUSH1 0x40 MLOAD DUP1 SWAP2 SUB SWAP1 RETURN JUMPDEST PUSH2 0x143 PUSH2 0x587 JUMP JUMPDEST PUSH1 0x40 MLOAD PUSH2 0x150 SWAP2 SWAP1 PUSH2 0x275B JUMP JUMPDEST PUSH1 0x40 MLOAD DUP1 SWAP2 SUB SWAP1 RETURN JUMPDEST PUSH2 0x161 PUSH2 0x58C JUMP JUMPDEST PUSH1 0x40 MLOAD PUSH2 0x16E SWAP2 SWAP1 PUSH2 0x275B JUMP JUMPDEST PUSH1 0x40 MLOAD DUP1 SWAP2 SUB SWAP1 RETURN JUMPDEST PUSH2 0x17F PUSH2 0x591 JUMP JUMPDEST PUSH1 0x40 MLOAD PUSH2 0x18C SWAP2 SWAP1 PUSH2 0x2783 JUMP JUMPDEST PUSH1 0x40 MLOAD DUP1 SWAP2 SUB SWAP1 RETURN JUMPDEST PUSH2 0x1AF PUSH1 0x4 DUP1 CALLDATASIZE SUB DUP2 ADD SWAP1 PUSH2 0x1AA SWAP2 SWAP1 PUSH2 0x26F9 JUMP JUMPDEST PUSH2 0x597 JUMP JUMPDEST PUSH1 0x40 MLOAD PUSH2 0x1BC SWAP2 SWAP1 PUSH2 0x275B JUMP JUMPDEST PUSH1 0x40 MLOAD DUP1 SWAP2 SUB SWAP1 RETURN JUMPDEST PUSH2 0x1CD PUSH2 0x5CC JUMP JUMPDEST PUSH1 0x40 MLOAD PUSH2 0x1DA SWAP2 SWAP1 PUSH2 0x2783 JUMP JUMPDEST PUSH1 0x40 MLOAD DUP1 SWAP2 SUB SWAP1 RETURN JUMPDEST PUSH2 0x1FD PUSH1 0x4 DUP1 CALLDATASIZE SUB DUP2 ADD SWAP1 PUSH2 0x1F8 SWAP2 SWAP1 PUSH2 0x279C JUMP JUMPDEST PUSH2 0x5D2 JUMP JUMPDEST STOP JUMPDEST PUSH2 0x219 PUSH1 0x4 DUP1 CALLDATASIZE SUB DUP2 ADD SWAP1 PUSH2 0x214 SWAP2 SWAP1 PUSH2 0x26F9 JUMP JUMPDEST PUSH2 0xB79 JUMP JUMPDEST STOP JUMPDEST PUSH2 0x235 PUSH1 0x4 DUP1 CALLDATASIZE SUB DUP2 ADD SWAP1 PUSH2 0x230 SWAP2 SWAP1 PUSH2 0x26F9 JUMP JUMPDEST PUSH2 0xD4E JUMP JUMPDEST STOP JUMPDEST PUSH2 0x251 PUSH1 0x4 DUP1 CALLDATASIZE SUB DUP2 ADD SWAP1 PUSH2 0x24C SWAP2 SWAP1 PUSH2 0x26F9 JUMP JUMPDEST PUSH2 0xEC9 JUMP JUMPDEST STOP JUMPDEST PUSH2 0x26D PUSH1 0x4 DUP1 CALLDATASIZE SUB DUP2 ADD SWAP1 PUSH2 0x268 SWAP2 SWAP1 PUSH2 0x283C JUMP JUMPDEST PUSH2 0x1086 JUMP JUMPDEST STOP JUMPDEST PUSH0 DUP2 DUP2 SLOAD DUP2 LT PUSH2 0x27D JUMPI PUSH0 DUP1 REVERT JUMPDEST SWAP1 PUSH0 MSTORE PUSH1 0x20 PUSH0 KECCAK256 ADD PUSH0 SWAP2 POP SWAP1 POP DUP1 SLOAD PUSH2 0x295 SWAP1 PUSH2 0x28C3 JUMP JUMPDEST DUP1 PUSH1 0x1F ADD PUSH1 0x20 DUP1 SWAP2 DIV MUL PUSH1 0x20 ADD PUSH1 0x40 MLOAD SWAP1 DUP2 ADD PUSH1 0x40 MSTORE DUP1 SWAP3 SWAP2 SWAP1 DUP2 DUP2 MSTORE PUSH1 0x20 ADD DUP3 DUP1 SLOAD PUSH2 0x2C1 SWAP1 PUSH2 0x28C3 JUMP JUMPDEST DUP1 ISZERO PUSH2 0x30C JUMPI DUP1 PUSH1 0x1F LT PUSH2 0x2E3 JUMPI PUSH2 0x100 DUP1 DUP4 SLOAD DIV MUL DUP4 MSTORE SWAP2 PUSH1 0x20 ADD SWAP2 PUSH2 0x30C JUMP JUMPDEST DUP3 ADD SWAP2 SWAP1 PUSH0 MSTORE PUSH1 0x20 PUSH0 KECCAK256 SWAP1 JUMPDEST DUP2 SLOAD DUP2 MSTORE SWAP1 PUSH1 0x1 ADD SWAP1 PUSH1 0x20 ADD DUP1 DUP4 GT PUSH2 0x2EF JUMPI DUP3 SWAP1 SUB PUSH1 0x1F AND DUP3 ADD SWAP2 JUMPDEST POP POP POP POP POP DUP2 JUMP JUMPDEST DUP1 PUSH0 PUSH1 0x5B DUP3 PUSH1 0x40 MLOAD PUSH2 0x326 SWAP2 SWAP1 PUSH2 0x292D JUMP JUMPDEST SWAP1 DUP2 MSTORE PUSH1 0x20 ADD PUSH1 0x40 MLOAD DUP1 SWAP2 SUB SWAP1 KECCAK256 PUSH0 SWAP1 SLOAD SWAP1 PUSH2 0x100 EXP SWAP1 DIV PUSH1 0xFF AND PUSH1 0xFF AND SUB PUSH2 0x384 JUMPI PUSH1 0x40 MLOAD PUSH32 0x8C379A000000000000000000000000000000000000000000000000000000000 DUP2 MSTORE PUSH1 0x4 ADD PUSH2 0x37B SWAP1 PUSH2 0x298D JUMP JUMPDEST PUSH1 0x40 MLOAD DUP1 SWAP2 SUB SWAP1 REVERT JUMPDEST PUSH0 PUSH1 0x1 DUP1 PUSH1 0x5B DUP6 PUSH1 0x40 MLOAD PUSH2 0x398 SWAP2 SWAP1 PUSH2 0x292D JUMP JUMPDEST SWAP1 DUP2 MSTORE PUSH1 0x20 ADD PUSH1 0x40 MLOAD DUP1 SWAP2 SUB SWAP1 KECCAK256 PUSH0 SWAP1 SLOAD SWAP1 PUSH2 0x100 EXP SWAP1 DIV PUSH1 0xFF AND PUSH2 0x3BD SWAP2 SWAP1 PUSH2 0x29D8 JUMP JUMPDEST PUSH1 0xFF AND PUSH1 0x5 DUP2 LT PUSH2 0x3D1 JUMPI PUSH2 0x3D0 PUSH2 0x2A0C JUMP JUMPDEST JUMPDEST PUSH1 0x12 MUL ADD SWAP1 POP DUP1 PUSH1 0x1 ADD PUSH1 0x14 SWAP1 SLOAD SWAP1 PUSH2 0x100 EXP SWAP1 DIV PUSH1 0xFF AND PUSH1 0xFF AND DUP2 PUSH1 0x1 ADD PUSH1 0x15 SWAP1 SLOAD SWAP1 PUSH2 0x100 EXP SWAP1 DIV PUSH1 0xFF AND PUSH1 0xFF AND LT PUSH2 0x441 JUMPI PUSH1 0x40 MLOAD PUSH32 0x8C379A000000000000000000000000000000000000000000000000000000000 DUP2 MSTORE PUSH1 0x4 ADD PUSH2 0x438 SWAP1 PUSH2 0x2A83 JUMP JUMPDEST PUSH1 0x40 MLOAD DUP1 SWAP2 SUB SWAP1 REVERT JUMPDEST DUP1 PUSH1 0x2 ADD PUSH0 CALLER PUSH20 0xFFFFFFFFFFFFFFFFFFFFFFFFFFFFFFFFFFFFFFFF AND PUSH20 0xFFFFFFFFFFFFFFFFFFFFFFFFFFFFFFFFFFFFFFFF AND DUP2 MSTORE PUSH1 0x20 ADD SWAP1 DUP2 MSTORE PUSH1 0x20 ADD PUSH0 KECCAK256 PUSH0 SWAP1 SLOAD SWAP1 PUSH2 0x100 EXP SWAP1 DIV PUSH1 0xFF AND ISZERO PUSH2 0x4CD JUMPI PUSH1 0x40 MLOAD PUSH32 0x8C379A000000000000000000000000000000000000000000000000000000000 DUP2 MSTORE PUSH1 0x4 ADD PUSH2 0x4C4 SWAP1 PUSH2 0x2AEB JUMP JUMPDEST PUSH1 0x40 MLOAD DUP1 SWAP2 SUB SWAP1 REVERT JUMPDEST PUSH1 0x1 DUP2 PUSH1 0x2 ADD PUSH0 CALLER PUSH20 0xFFFFFFFFFFFFFFFFFFFFFFFFFFFFFFFFFFFFFFFF AND PUSH20 0xFFFFFFFFFFFFFFFFFFFFFFFFFFFFFFFFFFFFFFFF AND DUP2 MSTORE PUSH1 0x20 ADD SWAP1 DUP2 MSTORE PUSH1 0x20 ADD PUSH0 KECCAK256 PUSH0 PUSH2 0x100 EXP DUP2 SLOAD DUP2 PUSH1 0xFF MUL NOT AND SWAP1 DUP4 ISZERO ISZERO MUL OR SWAP1 SSTORE POP CALLER PUSH20 0xFFFFFFFFFFFFFFFFFFFFFFFFFFFFFFFFFFFFFFFF AND DUP4 PUSH1 0x40 MLOAD PUSH2 0x549 SWAP2 SWAP1 PUSH2 0x292D JUMP JUMPDEST PUSH1 0x40 MLOAD DUP1 SWAP2 SUB SWAP1 KECCAK256 PUSH32 0x6426ED08B4816B27E58D721B4FF6FB44E6696B9D5CA257DCBD4B0576EB4DC539 PUSH1 0x40 MLOAD PUSH1 0x40 MLOAD DUP1 SWAP2 SUB SWAP1 LOG3 POP POP POP JUMP JUMPDEST PUSH1 0x5 DUP2 JUMP JUMPDEST PUSH1 0x5 DUP2 JUMP JUMPDEST PUSH1 0x6 DUP2 JUMP JUMPDEST PUSH2 0x12C DUP2 JUMP JUMPDEST PUSH1 0x5B DUP2 DUP1 MLOAD PUSH1 0x20 DUP2 ADD DUP3 ADD DUP1 MLOAD DUP5 DUP3 MSTORE PUSH1 0x20 DUP4 ADD PUSH1 0x20 DUP6 ADD KECCAK256 DUP2 DUP4 MSTORE DUP1 SWAP6 POP POP POP POP POP POP PUSH0 SWAP2 POP SLOAD SWAP1 PUSH2 0x100 EXP SWAP1 DIV PUSH1 0xFF AND DUP2 JUMP JUMPDEST PUSH2 0x384 DUP2 JUMP JUMPDEST DUP2 PUSH0 PUSH1 0x5B DUP3 PUSH1 0x40 MLOAD PUSH2 0x5E4 SWAP2 SWAP1 PUSH2 0x292D JUMP JUMPDEST SWAP1 DUP2 MSTORE PUSH1 0x20 ADD PUSH1 0x40 MLOAD DUP1 SWAP2 SUB SWAP1 KECCAK256 PUSH0 SWAP1 SLOAD SWAP1 PUSH2 0x100 EXP SWAP1 DIV PUSH1 0xFF AND PUSH1 0xFF AND SUB PUSH2 0x642 JUMPI PUSH1 0x40 MLOAD PUSH32 0x8C379A000000000000000000000000000000000000000000000000000000000 DUP2 MSTORE PUSH1 0x4 ADD PUSH2 0x639 SWAP1 PUSH2 0x298D JUMP JUMPDEST PUSH1 0x40 MLOAD DUP1 SWAP2 SUB SWAP1 REVERT JUMPDEST DUP3 PUSH1 0x1 DUP1 PUSH1 0x5B DUP4 PUSH1 0x40 MLOAD PUSH2 0x656 SWAP2 SWAP1 PUSH2 0x292D JUMP JUMPDEST SWAP1 DUP2 MSTORE PUSH1 0x20 ADD PUSH1 0x40 MLOAD DUP1 SWAP2 SUB SWAP1 KECCAK256 PUSH0 SWAP1 SLOAD SWAP1 PUSH2 0x100 EXP SWAP1 DIV PUSH1 0xFF AND PUSH2 0x67B SWAP2 SWAP1 PUSH2 0x29D8 JUMP JUMPDEST PUSH1 0xFF AND PUSH1 0x5 DUP2 LT PUSH2 0x68F JUMPI PUSH2 0x68E PUSH2 0x2A0C JUMP JUMPDEST JUMPDEST PUSH1 0x12 MUL ADD PUSH1 0x2 ADD PUSH0 CALLER PUSH20 0xFFFFFFFFFFFFFFFFFFFFFFFFFFFFFFFFFFFFFFFF AND PUSH20 0xFFFFFFFFFFFFFFFFFFFFFFFFFFFFFFFFFFFFFFFF AND DUP2 MSTORE PUSH1 0x20 ADD SWAP1 DUP2 MSTORE PUSH1 0x20 ADD PUSH0 KECCAK256 PUSH0 SWAP1 SLOAD SWAP1 PUSH2 0x100 EXP SWAP1 DIV PUSH1 0xFF AND PUSH2 0x71D JUMPI PUSH1 0x40 MLOAD PUSH32 0x8C379A000000000000000000000000000000000000000000000000000000000 DUP2 MSTORE PUSH1 0x4 ADD PUSH2 0x714 SWAP1 PUSH2 0x2B79 JUMP JUMPDEST PUSH1 0x40 MLOAD DUP1 SWAP2 SUB SWAP1 REVERT JUMPDEST PUSH0 DUP4 PUSH0 DUP2 MLOAD DUP2 LT PUSH2 0x731 JUMPI PUSH2 0x730 PUSH2 0x2A0C JUMP JUMPDEST JUMPDEST PUSH1 0x20 ADD ADD MLOAD PUSH1 0xF8 SHR PUSH1 0xF8 SHL SWAP1 POP PUSH0 PUSH1 0x1 DUP1 PUSH1 0x5B DUP9 PUSH1 0x40 MLOAD PUSH2 0x752 SWAP2 SWAP1 PUSH2 0x292D JUMP JUMPDEST SWAP1 DUP2 MSTORE PUSH1 0x20 ADD PUSH1 0x40 MLOAD DUP1 SWAP2 SUB SWAP1 KECCAK256 PUSH0 SWAP1 SLOAD SWAP1 PUSH2 0x100 EXP SWAP1 DIV PUSH1 0xFF AND PUSH2 0x777 SWAP2 SWAP1 PUSH2 0x29D8 JUMP JUMPDEST PUSH1 0xFF AND PUSH1 0x5 DUP2 LT PUSH2 0x78B JUMPI PUSH2 0x78A PUSH2 0x2A0C JUMP JUMPDEST JUMPDEST PUSH1 0x12 MUL ADD SWAP1 POP PUSH0 DUP2 PUSH1 0x8 ADD SWAP1 POP PUSH0 PUSH1 0xF8 SHL DUP2 PUSH1 0x8 ADD PUSH0 CALLER PUSH20 0xFFFFFFFFFFFFFFFFFFFFFFFFFFFFFFFFFFFFFFFF AND PUSH20 0xFFFFFFFFFFFFFFFFFFFFFFFFFFFFFFFFFFFFFFFF AND DUP2 MSTORE PUSH1 0x20 ADD SWAP1 DUP2 MSTORE PUSH1 0x20 ADD PUSH0 KECCAK256 PUSH0 SWAP1 SLOAD SWAP1 PUSH2 0x100 EXP SWAP1 DIV PUSH1 0xF8 SHL PUSH31 0xFFFFFFFFFFFFFFFFFFFFFFFFFFFFFFFFFFFFFFFFFFFFFFFFFFFFFFFFFFFFFF NOT AND EQ PUSH2 0x84A JUMPI PUSH1 0x40 MLOAD PUSH32 0x8C379A000000000000000000000000000000000000000000000000000000000 DUP2 MSTORE PUSH1 0x4 ADD PUSH2 0x841 SWAP1 PUSH2 0x2BE1 JUMP JUMPDEST PUSH1 0x40 MLOAD DUP1 SWAP2 SUB SWAP1 REVERT JUMPDEST PUSH0 PUSH32 0x4100000000000000000000000000000000000000000000000000000000000000 PUSH31 0xFFFFFFFFFFFFFFFFFFFFFFFFFFFFFFFFFFFFFFFFFFFFFFFFFFFFFFFFFFFFFF NOT AND DUP5 PUSH31 0xFFFFFFFFFFFFFFFFFFFFFFFFFFFFFFFFFFFFFFFFFFFFFFFFFFFFFFFFFFFFFF NOT AND LT ISZERO DUP1 ISZERO PUSH2 0x923 JUMPI POP PUSH32 0x5A00000000000000000000000000000000000000000000000000000000000000 PUSH31 0xFFFFFFFFFFFFFFFFFFFFFFFFFFFFFFFFFFFFFFFFFFFFFFFFFFFFFFFFFFFFFF NOT AND DUP5 PUSH31 0xFFFFFFFFFFFFFFFFFFFFFFFFFFFFFFFFFFFFFFFFFFFFFFFFFFFFFFFFFFFFFF NOT AND LT ISZERO JUMPDEST SWAP1 POP DUP1 DUP1 PUSH2 0xA05 JUMPI POP PUSH32 0x6100000000000000000000000000000000000000000000000000000000000000 PUSH31 0xFFFFFFFFFFFFFFFFFFFFFFFFFFFFFFFFFFFFFFFFFFFFFFFFFFFFFFFFFFFFFF NOT AND DUP5 PUSH31 0xFFFFFFFFFFFFFFFFFFFFFFFFFFFFFFFFFFFFFFFFFFFFFFFFFFFFFFFFFFFFFF NOT AND LT ISZERO DUP1 ISZERO PUSH2 0xA04 JUMPI POP PUSH32 0x7A00000000000000000000000000000000000000000000000000000000000000 PUSH31 0xFFFFFFFFFFFFFFFFFFFFFFFFFFFFFFFFFFFFFFFFFFFFFFFFFFFFFFFFFFFFFF NOT AND DUP5 PUSH31 0xFFFFFFFFFFFFFFFFFFFFFFFFFFFFFFFFFFFFFFFFFFFFFFFFFFFFFFFFFFFFFF NOT AND LT ISZERO JUMPDEST JUMPDEST PUSH2 0xA44 JUMPI PUSH1 0x40 MLOAD PUSH32 0x8C379A000000000000000000000000000000000000000000000000000000000 DUP2 MSTORE PUSH1 0x4 ADD PUSH2 0xA3B SWAP1 PUSH2 0x2C49 JUMP JUMPDEST PUSH1 0x40 MLOAD DUP1 SWAP2 SUB SWAP1 REVERT JUMPDEST DUP1 ISZERO PUSH2 0xA60 JUMPI PUSH1 0x20 DUP5 PUSH1 0xF8 SHR PUSH2 0xA5A SWAP2 SWAP1 PUSH2 0x29D8 JUMP JUMPDEST PUSH1 0xF8 SHL SWAP4 POP JUMPDEST DUP3 PUSH1 0x6 ADD PUSH0 DUP6 PUSH31 0xFFFFFFFFFFFFFFFFFFFFFFFFFFFFFFFFFFFFFFFFFFFFFFFFFFFFFFFFFFFFFF NOT AND PUSH31 0xFFFFFFFFFFFFFFFFFFFFFFFFFFFFFFFFFFFFFFFFFFFFFFFFFFFFFFFFFFFFFF NOT AND DUP2 MSTORE PUSH1 0x20 ADD SWAP1 DUP2 MSTORE PUSH1 0x20 ADD PUSH0 KECCAK256 PUSH0 SWAP1 SLOAD SWAP1 PUSH2 0x100 EXP SWAP1 DIV PUSH1 0xFF AND ISZERO PUSH2 0xB04 JUMPI PUSH1 0x40 MLOAD PUSH32 0x8C379A000000000000000000000000000000000000000000000000000000000 DUP2 MSTORE PUSH1 0x4 ADD PUSH2 0xAFB SWAP1 PUSH2 0x2CB1 JUMP JUMPDEST PUSH1 0x40 MLOAD DUP1 SWAP2 SUB SWAP1 REVERT JUMPDEST PUSH2 0xB12 DUP4 PUSH0 ADD DUP4 CALLER DUP8 PUSH2 0x13AD JUMP JUMPDEST TIMESTAMP DUP4 PUSH1 0x7 ADD DUP2 SWAP1 SSTORE POP PUSH2 0x12C DUP3 PUSH1 0x1 ADD SLOAD TIMESTAMP PUSH2 0xB2E SWAP2 SWAP1 PUSH2 0x2CCF JUMP JUMPDEST GT DUP1 PUSH2 0xB60 JUMPI POP DUP3 PUSH1 0x1 ADD PUSH1 0x15 SWAP1 SLOAD SWAP1 PUSH2 0x100 EXP SWAP1 DIV PUSH1 0xFF AND PUSH1 0xFF AND DUP3 PUSH1 0x2 ADD PUSH0 SWAP1 SLOAD SWAP1 PUSH2 0x100 EXP SWAP1 DIV PUSH1 0xFF AND PUSH1 0xFF AND EQ JUMPDEST ISZERO PUSH2 0xB6F JUMPI PUSH2 0xB6E DUP4 PUSH2 0x1600 JUMP JUMPDEST JUMPDEST POP POP POP POP POP POP POP POP JUMP JUMPDEST DUP1 PUSH0 PUSH1 0x5B DUP3 PUSH1 0x40 MLOAD PUSH2 0xB8B SWAP2 SWAP1 PUSH2 0x292D JUMP JUMPDEST SWAP1 DUP2 MSTORE PUSH1 0x20 ADD PUSH1 0x40 MLOAD DUP1 SWAP2 SUB SWAP1 KECCAK256 PUSH0 SWAP1 SLOAD SWAP1 PUSH2 0x100 EXP SWAP1 DIV PUSH1 0xFF AND PUSH1 0xFF AND SUB PUSH2 0xBE9 JUMPI PUSH1 0x40 MLOAD PUSH32 0x8C379A000000000000000000000000000000000000000000000000000000000 DUP2 MSTORE PUSH1 0x4 ADD PUSH2 0xBE0 SWAP1 PUSH2 0x298D JUMP JUMPDEST PUSH1 0x40 MLOAD DUP1 SWAP2 SUB SWAP1 REVERT JUMPDEST DUP2 PUSH1 0x1 DUP1 PUSH1 0x5B DUP4 PUSH1 0x40 MLOAD PUSH2 0xBFD SWAP2 SWAP1 PUSH2 0x292D JUMP JUMPDEST SWAP1 DUP2 MSTORE PUSH1 0x20 ADD PUSH1 0x40 MLOAD DUP1 SWAP2 SUB SWAP1 KECCAK256 PUSH0 SWAP1 SLOAD SWAP1 PUSH2 0x100 EXP SWAP1 DIV PUSH1 0xFF AND PUSH2 0xC22 SWAP2 SWAP1 PUSH2 0x29D8 JUMP JUMPDEST PUSH1 0xFF AND PUSH1 0x5 DUP2 LT PUSH2 0xC36 JUMPI PUSH2 0xC35 PUSH2 0x2A0C JUMP JUMPDEST JUMPDEST PUSH1 0x12 MUL ADD PUSH1 0x2 ADD PUSH0 CALLER PUSH20 0xFFFFFFFFFFFFFFFFFFFFFFFFFFFFFFFFFFFFFFFF AND PUSH20 0xFFFFFFFFFFFFFFFFFFFFFFFFFFFFFFFFFFFFFFFF AND DUP2 MSTORE PUSH1 0x20 ADD SWAP1 DUP2 MSTORE PUSH1 0x20 ADD PUSH0 KECCAK256 PUSH0 SWAP1 SLOAD SWAP1 PUSH2 0x100 EXP SWAP1 DIV PUSH1 0xFF AND PUSH2 0xCC4 JUMPI PUSH1 0x40 MLOAD PUSH32 0x8C379A000000000000000000000000000000000000000000000000000000000 DUP2 MSTORE PUSH1 0x4 ADD PUSH2 0xCBB SWAP1 PUSH2 0x2B79 JUMP JUMPDEST PUSH1 0x40 MLOAD DUP1 SWAP2 SUB SWAP1 REVERT JUMPDEST PUSH0 PUSH1 0x1 DUP1 PUSH1 0x5B DUP7 PUSH1 0x40 MLOAD PUSH2 0xCD8 SWAP2 SWAP1 PUSH2 0x292D JUMP JUMPDEST SWAP1 DUP2 MSTORE PUSH1 0x20 ADD PUSH1 0x40 MLOAD DUP1 SWAP2 SUB SWAP1 KECCAK256 PUSH0 SWAP1 SLOAD SWAP1 PUSH2 0x100 EXP SWAP1 DIV PUSH1 0xFF AND PUSH2 0xCFD SWAP2 SWAP1 PUSH2 0x29D8 JUMP JUMPDEST PUSH1 0xFF AND PUSH1 0x5 DUP2 LT PUSH2 0xD11 JUMPI PUSH2 0xD10 PUSH2 0x2A0C JUMP JUMPDEST JUMPDEST PUSH1 0x12 MUL ADD SWAP1 POP PUSH2 0xD21 DUP2 CALLER PUSH2 0x1AC2 JUMP JUMPDEST PUSH0 DUP2 PUSH1 0x1 ADD PUSH1 0x15 SWAP1 SLOAD SWAP1 PUSH2 0x100 EXP SWAP1 DIV PUSH1 0xFF AND PUSH1 0xFF AND SUB PUSH2 0xD48 JUMPI PUSH2 0xD47 DUP2 PUSH1 0x2 PUSH2 0x1D0F JUMP JUMPDEST JUMPDEST POP POP POP POP JUMP JUMPDEST DUP1 PUSH0 PUSH1 0x5B DUP3 PUSH1 0x40 MLOAD PUSH2 0xD60 SWAP2 SWAP1 PUSH2 0x292D JUMP JUMPDEST SWAP1 DUP2 MSTORE PUSH1 0x20 ADD PUSH1 0x40 MLOAD DUP1 SWAP2 SUB SWAP1 KECCAK256 PUSH0 SWAP1 SLOAD SWAP1 PUSH2 0x100 EXP SWAP1 DIV PUSH1 0xFF AND PUSH1 0xFF AND SUB PUSH2 0xDBE JUMPI PUSH1 0x40 MLOAD PUSH32 0x8C379A000000000000000000000000000000000000000000000000000000000 DUP2 MSTORE PUSH1 0x4 ADD PUSH2 0xDB5 SWAP1 PUSH2 0x298D JUMP JUMPDEST PUSH1 0x40 MLOAD DUP1 SWAP2 SUB SWAP1 REVERT JUMPDEST PUSH0 PUSH1 0x1 DUP1 PUSH1 0x5B DUP6 PUSH1 0x40 MLOAD PUSH2 0xDD2 SWAP2 SWAP1 PUSH2 0x292D JUMP JUMPDEST SWAP1 DUP2 MSTORE PUSH1 0x20 ADD PUSH1 0x40 MLOAD DUP1 SWAP2 SUB SWAP1 KECCAK256 PUSH0 SWAP1 SLOAD SWAP1 PUSH2 0x100 EXP SWAP1 DIV PUSH1 0xFF AND PUSH2 0xDF7 SWAP2 SWAP1 PUSH2 0x29D8 JUMP JUMPDEST PUSH1 0xFF AND PUSH1 0x5 DUP2 LT PUSH2 0xE0B JUMPI PUSH2 0xE0A PUSH2 0x2A0C JUMP JUMPDEST JUMPDEST PUSH1 0x12 MUL ADD SWAP1 POP PUSH0 DUP2 PUSH1 0x8 ADD SWAP1 POP DUP1 PUSH0 ADD PUSH0 SWAP1 SLOAD SWAP1 PUSH2 0x100 EXP SWAP1 DIV PUSH1 0xFF AND PUSH2 0xE67 JUMPI PUSH1 0x40 MLOAD PUSH32 0x8C379A000000000000000000000000000000000000000000000000000000000 DUP2 MSTORE PUSH1 0x4 ADD PUSH2 0xE5E SWAP1 PUSH2 0x2D4C JUMP JUMPDEST PUSH1 0x40 MLOAD DUP1 SWAP2 SUB SWAP1 REVERT JUMPDEST PUSH2 0x12C DUP2 PUSH1 0x1 ADD SLOAD TIMESTAMP PUSH2 0xE7A SWAP2 SWAP1 PUSH2 0x2CCF JUMP JUMPDEST GT PUSH2 0xEBA JUMPI PUSH1 0x40 MLOAD PUSH32 0x8C379A000000000000000000000000000000000000000000000000000000000 DUP2 MSTORE PUSH1 0x4 ADD PUSH2 0xEB1 SWAP1 PUSH2 0x2DB4 JUMP JUMPDEST PUSH1 0x40 MLOAD DUP1 SWAP2 SUB SWAP1 REVERT JUMPDEST PUSH2 0xEC3 DUP3 PUSH2 0x1600 JUMP JUMPDEST POP POP POP POP JUMP JUMPDEST DUP1 PUSH0 PUSH1 0x5B DUP3 PUSH1 0x40 MLOAD PUSH2 0xEDB SWAP2 SWAP1 PUSH2 0x292D JUMP JUMPDEST SWAP1 DUP2 MSTORE PUSH1 0x20 ADD PUSH1 0x40 MLOAD DUP1 SWAP2 SUB SWAP1 KECCAK256 PUSH0 SWAP1 SLOAD SWAP1 PUSH2 0x100 EXP SWAP1 DIV PUSH1 0xFF AND PUSH1 0xFF AND SUB PUSH2 0xF39 JUMPI PUSH1 0x40 MLOAD PUSH32 0x8C379A000000000000000000000000000000000000000000000000000000000 DUP2 MSTORE PUSH1 0x4 ADD PUSH2 0xF30 SWAP1 PUSH2 0x298D JUMP JUMPDEST PUSH1 0x40 MLOAD DUP1 SWAP2 SUB SWAP1 REVERT JUMPDEST PUSH0 PUSH1 0x1 DUP1 PUSH1 0x5B DUP6 PUSH1 0x40 MLOAD PUSH2 0xF4D SWAP2 SWAP1 PUSH2 0x292D JUMP JUMPDEST SWAP1 DUP2 MSTORE PUSH1 0x20 ADD PUSH1 0x40 MLOAD DUP1 SWAP2 SUB SWAP1 KECCAK256 PUSH0 SWAP1 SLOAD SWAP1 PUSH2 0x100 EXP SWAP1 DIV PUSH1 0xFF AND PUSH2 0xF72 SWAP2 SWAP1 PUSH2 0x29D8 JUMP JUMPDEST PUSH1 0xFF AND PUSH1 0x5 DUP2 LT PUSH2 0xF86 JUMPI PUSH2 0xF85 PUSH2 0x2A0C JUMP JUMPDEST JUMPDEST PUSH1 0x12 MUL ADD SWAP1 POP CALLER PUSH20 0xFFFFFFFFFFFFFFFFFFFFFFFFFFFFFFFFFFFFFFFF AND DUP2 PUSH1 0x1 ADD PUSH0 SWAP1 SLOAD SWAP1 PUSH2 0x100 EXP SWAP1 DIV PUSH20 0xFFFFFFFFFFFFFFFFFFFFFFFFFFFFFFFFFFFFFFFF AND PUSH20 0xFFFFFFFFFFFFFFFFFFFFFFFFFFFFFFFFFFFFFFFF AND EQ DUP1 PUSH2 0x1037 JUMPI POP PUSH0 PUSH20 0xFFFFFFFFFFFFFFFFFFFFFFFFFFFFFFFFFFFFFFFF AND DUP2 PUSH1 0x1 ADD PUSH0 SWAP1 SLOAD SWAP1 PUSH2 0x100 EXP SWAP1 DIV PUSH20 0xFFFFFFFFFFFFFFFFFFFFFFFFFFFFFFFFFFFFFFFF AND PUSH20 0xFFFFFFFFFFFFFFFFFFFFFFFFFFFFFFFFFFFFFFFF AND EQ JUMPDEST PUSH2 0x1076 JUMPI PUSH1 0x40 MLOAD PUSH32 0x8C379A000000000000000000000000000000000000000000000000000000000 DUP2 MSTORE PUSH1 0x4 ADD PUSH2 0x106D SWAP1 PUSH2 0x2E42 JUMP JUMPDEST PUSH1 0x40 MLOAD DUP1 SWAP2 SUB SWAP1 REVERT JUMPDEST PUSH2 0x1081 DUP2 PUSH1 0x2 PUSH2 0x1D0F JUMP JUMPDEST POP POP POP JUMP JUMPDEST PUSH0 PUSH1 0x5B DUP4 PUSH1 0x40 MLOAD PUSH2 0x1097 SWAP2 SWAP1 PUSH2 0x292D JUMP JUMPDEST SWAP1 DUP2 MSTORE PUSH1 0x20 ADD PUSH1 0x40 MLOAD DUP1 SWAP2 SUB SWAP1 KECCAK256 PUSH0 SWAP1 SLOAD SWAP1 PUSH2 0x100 EXP SWAP1 DIV PUSH1 0xFF AND PUSH1 0xFF AND EQ PUSH2 0x10F5 JUMPI PUSH1 0x40 MLOAD PUSH32 0x8C379A000000000000000000000000000000000000000000000000000000000 DUP2 MSTORE PUSH1 0x4 ADD PUSH2 0x10EC SWAP1 PUSH2 0x2ED0 JUMP JUMPDEST PUSH1 0x40 MLOAD DUP1 SWAP2 SUB SWAP1 REVERT JUMPDEST PUSH0 DUP2 PUSH1 0xFF AND GT DUP1 ISZERO PUSH2 0x110E JUMPI POP PUSH1 0x5 PUSH1 0xFF AND DUP2 PUSH1 0xFF AND GT ISZERO JUMPDEST PUSH2 0x114D JUMPI PUSH1 0x40 MLOAD PUSH32 0x8C379A000000000000000000000000000000000000000000000000000000000 DUP2 MSTORE PUSH1 0x4 ADD PUSH2 0x1144 SWAP1 PUSH2 0x2F5E JUMP JUMPDEST PUSH1 0x40 MLOAD DUP1 SWAP2 SUB SWAP1 REVERT JUMPDEST PUSH0 PUSH2 0x1156 PUSH2 0x1EC6 JUMP JUMPDEST SWAP1 POP PUSH0 DUP2 PUSH1 0xFF AND GT PUSH2 0x119D JUMPI PUSH1 0x40 MLOAD PUSH32 0x8C379A000000000000000000000000000000000000000000000000000000000 DUP2 MSTORE PUSH1 0x4 ADD PUSH2 0x1194 SWAP1 PUSH2 0x2FC6 JUMP JUMPDEST PUSH1 0x40 MLOAD DUP1 SWAP2 SUB SWAP1 REVERT JUMPDEST PUSH0 PUSH1 0x1 DUP1 DUP4 PUSH2 0x11AC SWAP2 SWAP1 PUSH2 0x29D8 JUMP JUMPDEST PUSH1 0xFF AND PUSH1 0x5 DUP2 LT PUSH2 0x11C0 JUMPI PUSH2 0x11BF PUSH2 0x2A0C JUMP JUMPDEST JUMPDEST PUSH1 0x12 MUL ADD SWAP1 POP DUP4 DUP2 PUSH0 ADD SWAP1 DUP2 PUSH2 0x11D6 SWAP2 SWAP1 PUSH2 0x3181 JUMP JUMPDEST POP CALLER DUP2 PUSH1 0x1 ADD PUSH0 PUSH2 0x100 EXP DUP2 SLOAD DUP2 PUSH20 0xFFFFFFFFFFFFFFFFFFFFFFFFFFFFFFFFFFFFFFFF MUL NOT AND SWAP1 DUP4 PUSH20 0xFFFFFFFFFFFFFFFFFFFFFFFFFFFFFFFFFFFFFFFF AND MUL OR SWAP1 SSTORE POP DUP3 DUP2 PUSH1 0x1 ADD PUSH1 0x14 PUSH2 0x100 EXP DUP2 SLOAD DUP2 PUSH1 0xFF MUL NOT AND SWAP1 DUP4 PUSH1 0xFF AND MUL OR SWAP1 SSTORE POP PUSH0 TIMESTAMP CALLER PUSH1 0x40 MLOAD PUSH1 0x20 ADD PUSH2 0x124A SWAP3 SWAP2 SWAP1 PUSH2 0x32E5 JUMP JUMPDEST PUSH1 0x40 MLOAD PUSH1 0x20 DUP2 DUP4 SUB SUB DUP2 MSTORE SWAP1 PUSH1 0x40 MSTORE DUP1 MLOAD SWAP1 PUSH1 0x20 ADD KECCAK256 PUSH0 SHR SWAP1 POP PUSH0 DUP1 DUP1 SLOAD SWAP1 POP DUP3 PUSH2 0x1275 SWAP2 SWAP1 PUSH2 0x333D JUMP JUMPDEST DUP2 SLOAD DUP2 LT PUSH2 0x1286 JUMPI PUSH2 0x1285 PUSH2 0x2A0C JUMP JUMPDEST JUMPDEST SWAP1 PUSH0 MSTORE PUSH1 0x20 PUSH0 KECCAK256 ADD DUP3 PUSH1 0x3 ADD SWAP1 DUP2 PUSH2 0x129E SWAP2 SWAP1 PUSH2 0x3394 JUMP JUMPDEST POP DUP2 PUSH1 0x3 ADD DUP1 SLOAD PUSH2 0x12AE SWAP1 PUSH2 0x28C3 JUMP JUMPDEST SWAP1 POP PUSH8 0xFFFFFFFFFFFFFFFF DUP2 GT ISZERO PUSH2 0x12C9 JUMPI PUSH2 0x12C8 PUSH2 0x25D5 JUMP JUMPDEST JUMPDEST PUSH1 0x40 MLOAD SWAP1 DUP1 DUP3 MSTORE DUP1 PUSH1 0x20 MUL PUSH1 0x20 ADD DUP3 ADD PUSH1 0x40 MSTORE DUP1 ISZERO PUSH2 0x12F7 JUMPI DUP2 PUSH1 0x20 ADD PUSH1 0x20 DUP3 MUL DUP1 CALLDATASIZE DUP4 CALLDATACOPY DUP1 DUP3 ADD SWAP2 POP POP SWAP1 POP JUMPDEST POP DUP3 PUSH1 0x4 ADD SWAP1 DUP1 MLOAD SWAP1 PUSH1 0x20 ADD SWAP1 PUSH2 0x130F SWAP3 SWAP2 SWAP1 PUSH2 0x2392 JUMP JUMPDEST POP TIMESTAMP DUP3 PUSH1 0x7 ADD DUP2 SWAP1 SSTORE POP DUP3 PUSH1 0x5B DUP7 PUSH1 0x40 MLOAD PUSH2 0x132A SWAP2 SWAP1 PUSH2 0x292D JUMP JUMPDEST SWAP1 DUP2 MSTORE PUSH1 0x20 ADD PUSH1 0x40 MLOAD DUP1 SWAP2 SUB SWAP1 KECCAK256 PUSH0 PUSH2 0x100 EXP DUP2 SLOAD DUP2 PUSH1 0xFF MUL NOT AND SWAP1 DUP4 PUSH1 0xFF AND MUL OR SWAP1 SSTORE POP DUP5 PUSH1 0x40 MLOAD PUSH2 0x135D SWAP2 SWAP1 PUSH2 0x292D JUMP JUMPDEST PUSH1 0x40 MLOAD DUP1 SWAP2 SUB SWAP1 KECCAK256 PUSH32 0xA0048D71A81BD0849AD071DD103D646A72B493A92A1CDF4CB7C13CF30F577DF DUP6 PUSH1 0x40 MLOAD PUSH2 0x1394 SWAP2 SWAP1 PUSH2 0x275B JUMP JUMPDEST PUSH1 0x40 MLOAD DUP1 SWAP2 SUB SWAP1 LOG2 PUSH2 0x13A6 DUP3 CALLER PUSH2 0x1F98 JUMP JUMPDEST POP POP POP POP POP JUMP JUMPDEST DUP2 DUP4 PUSH1 0x3 ADD DUP5 PUSH1 0x2 ADD PUSH0 SWAP1 SLOAD SWAP1 PUSH2 0x100 EXP SWAP1 DIV PUSH1 0xFF AND PUSH1 0xFF AND PUSH1 0x5 DUP2 LT PUSH2 0x13D7 JUMPI PUSH2 0x13D6 PUSH2 0x2A0C JUMP JUMPDEST JUMPDEST ADD PUSH0 PUSH2 0x100 EXP DUP2 SLOAD DUP2 PUSH20 0xFFFFFFFFFFFFFFFFFFFFFFFFFFFFFFFFFFFFFFFF MUL NOT AND SWAP1 DUP4 PUSH20 0xFFFFFFFFFFFFFFFFFFFFFFFFFFFFFFFFFFFFFFFF AND MUL OR SWAP1 SSTORE POP DUP1 DUP4 PUSH1 0x8 ADD PUSH0 DUP5 PUSH20 0xFFFFFFFFFFFFFFFFFFFFFFFFFFFFFFFFFFFFFFFF AND PUSH20 0xFFFFFFFFFFFFFFFFFFFFFFFFFFFFFFFFFFFFFFFF AND DUP2 MSTORE PUSH1 0x20 ADD SWAP1 DUP2 MSTORE PUSH1 0x20 ADD PUSH0 KECCAK256 PUSH0 PUSH2 0x100 EXP DUP2 SLOAD DUP2 PUSH1 0xFF MUL NOT AND SWAP1 DUP4 PUSH1 0xF8 SHR MUL OR SWAP1 SSTORE POP PUSH1 0x1 DUP4 PUSH1 0x9 ADD PUSH0 DUP4 PUSH31 0xFFFFFFFFFFFFFFFFFFFFFFFFFFFFFFFFFFFFFFFFFFFFFFFFFFFFFFFFFFFFFF NOT AND PUSH31 0xFFFFFFFFFFFFFFFFFFFFFFFFFFFFFFFFFFFFFFFFFFFFFFFFFFFFFFFFFFFFFF NOT AND DUP2 MSTORE PUSH1 0x20 ADD SWAP1 DUP2 MSTORE PUSH1 0x20 ADD PUSH0 KECCAK256 PUSH0 DUP3 DUP3 DUP3 SWAP1 SLOAD SWAP1 PUSH2 0x100 EXP SWAP1 DIV PUSH1 0xFF AND PUSH2 0x14DF SWAP2 SWAP1 PUSH2 0x3479 JUMP JUMPDEST SWAP3 POP PUSH2 0x100 EXP DUP2 SLOAD DUP2 PUSH1 0xFF MUL NOT AND SWAP1 DUP4 PUSH1 0xFF AND MUL OR SWAP1 SSTORE POP PUSH1 0x1 DUP4 PUSH1 0x2 ADD PUSH0 DUP3 DUP3 DUP3 SWAP1 SLOAD SWAP1 PUSH2 0x100 EXP SWAP1 DIV PUSH1 0xFF AND PUSH2 0x1517 SWAP2 SWAP1 PUSH2 0x3479 JUMP JUMPDEST SWAP3 POP PUSH2 0x100 EXP DUP2 SLOAD DUP2 PUSH1 0xFF MUL NOT AND SWAP1 DUP4 PUSH1 0xFF AND MUL OR SWAP1 SSTORE POP DUP3 PUSH0 ADD PUSH0 SWAP1 SLOAD SWAP1 PUSH2 0x100 EXP SWAP1 DIV PUSH1 0xFF AND PUSH2 0x15AA JUMPI PUSH1 0x1 DUP4 PUSH0 ADD PUSH0 PUSH2 0x100 EXP DUP2 SLOAD DUP2 PUSH1 0xFF MUL NOT AND SWAP1 DUP4 ISZERO ISZERO MUL OR SWAP1 SSTORE POP TIMESTAMP DUP4 PUSH1 0x1 ADD DUP2 SWAP1 SSTORE POP DUP4 PUSH1 0x40 MLOAD PUSH2 0x1575 SWAP2 SWAP1 PUSH2 0x352D JUMP JUMPDEST PUSH1 0x40 MLOAD DUP1 SWAP2 SUB SWAP1 KECCAK256 PUSH32 0xC39EB03DC11D6BBEB3B818B739E4478F7874C1F803D2E603CC7D7A45045CB68D PUSH1 0x40 MLOAD PUSH1 0x40 MLOAD DUP1 SWAP2 SUB SWAP1 LOG2 JUMPDEST DUP2 PUSH20 0xFFFFFFFFFFFFFFFFFFFFFFFFFFFFFFFFFFFFFFFF AND PUSH32 0xE1BE499D3000B42A54F5BE9B908B831FBED5DA7F8431EE79B82A3FA6D092781E DUP6 DUP4 PUSH1 0x40 MLOAD PUSH2 0x15F2 SWAP3 SWAP2 SWAP1 PUSH2 0x35FE JUMP JUMPDEST PUSH1 0x40 MLOAD DUP1 SWAP2 SUB SWAP1 LOG2 POP POP POP POP JUMP JUMPDEST PUSH0 DUP2 PUSH1 0x8 ADD SWAP1 POP PUSH0 DUP1 PUSH1 0xF8 SHL SWAP1 POP PUSH0 PUSH1 0x1 SWAP1 POP PUSH0 DUP1 PUSH0 JUMPDEST DUP6 PUSH1 0x2 ADD PUSH0 SWAP1 SLOAD SWAP1 PUSH2 0x100 EXP SWAP1 DIV PUSH1 0xFF AND PUSH1 0xFF AND DUP2 LT ISZERO PUSH2 0x173F JUMPI PUSH0 DUP7 PUSH1 0x8 ADD PUSH0 DUP9 PUSH1 0x3 ADD DUP5 PUSH1 0x5 DUP2 LT PUSH2 0x164E JUMPI PUSH2 0x164D PUSH2 0x2A0C JUMP JUMPDEST JUMPDEST ADD PUSH0 SWAP1 SLOAD SWAP1 PUSH2 0x100 EXP SWAP1 DIV PUSH20 0xFFFFFFFFFFFFFFFFFFFFFFFFFFFFFFFFFFFFFFFF AND PUSH20 0xFFFFFFFFFFFFFFFFFFFFFFFFFFFFFFFFFFFFFFFF AND PUSH20 0xFFFFFFFFFFFFFFFFFFFFFFFFFFFFFFFFFFFFFFFF AND DUP2 MSTORE PUSH1 0x20 ADD SWAP1 DUP2 MSTORE PUSH1 0x20 ADD PUSH0 KECCAK256 PUSH0 SWAP1 SLOAD SWAP1 PUSH2 0x100 EXP SWAP1 DIV PUSH1 0xF8 SHL SWAP1 POP PUSH0 DUP8 PUSH1 0x9 ADD PUSH0 DUP4 PUSH31 0xFFFFFFFFFFFFFFFFFFFFFFFFFFFFFFFFFFFFFFFFFFFFFFFFFFFFFFFFFFFFFF NOT AND PUSH31 0xFFFFFFFFFFFFFFFFFFFFFFFFFFFFFFFFFFFFFFFFFFFFFFFFFFFFFFFFFFFFFF NOT AND DUP2 MSTORE PUSH1 0x20 ADD SWAP1 DUP2 MSTORE PUSH1 0x20 ADD PUSH0 KECCAK256 PUSH0 SWAP1 SLOAD SWAP1 PUSH2 0x100 EXP SWAP1 DIV PUSH1 0xFF AND SWAP1 POP DUP4 PUSH1 0xFF AND DUP2 PUSH1 0xFF AND GT ISZERO PUSH2 0x1730 JUMPI DUP2 SWAP7 POP JUMPDEST POP POP DUP1 DUP1 PUSH1 0x1 ADD SWAP2 POP POP PUSH2 0x1617 JUMP JUMPDEST POP PUSH0 DUP7 PUSH1 0x3 ADD DUP1 SLOAD PUSH2 0x1750 SWAP1 PUSH2 0x28C3 JUMP JUMPDEST DUP1 PUSH1 0x1F ADD PUSH1 0x20 DUP1 SWAP2 DIV MUL PUSH1 0x20 ADD PUSH1 0x40 MLOAD SWAP1 DUP2 ADD PUSH1 0x40 MSTORE DUP1 SWAP3 SWAP2 SWAP1 DUP2 DUP2 MSTORE PUSH1 0x20 ADD DUP3 DUP1 SLOAD PUSH2 0x177C SWAP1 PUSH2 0x28C3 JUMP JUMPDEST DUP1 ISZERO PUSH2 0x17C7 JUMPI DUP1 PUSH1 0x1F LT PUSH2 0x179E JUMPI PUSH2 0x100 DUP1 DUP4 SLOAD DIV MUL DUP4 MSTORE SWAP2 PUSH1 0x20 ADD SWAP2 PUSH2 0x17C7 JUMP JUMPDEST DUP3 ADD SWAP2 SWAP1 PUSH0 MSTORE PUSH1 0x20 PUSH0 KECCAK256 SWAP1 JUMPDEST DUP2 SLOAD DUP2 MSTORE SWAP1 PUSH1 0x1 ADD SWAP1 PUSH1 0x20 ADD DUP1 DUP4 GT PUSH2 0x17AA JUMPI DUP3 SWAP1 SUB PUSH1 0x1F AND DUP3 ADD SWAP2 JUMPDEST POP POP POP POP POP SWAP1 POP PUSH0 JUMPDEST DUP2 MLOAD DUP2 LT ISZERO PUSH2 0x19A4 JUMPI DUP6 PUSH31 0xFFFFFFFFFFFFFFFFFFFFFFFFFFFFFFFFFFFFFFFFFFFFFFFFFFFFFFFFFFFFFF NOT AND DUP3 DUP3 DUP2 MLOAD DUP2 LT PUSH2 0x180F JUMPI PUSH2 0x180E PUSH2 0x2A0C JUMP JUMPDEST JUMPDEST PUSH1 0x20 ADD ADD MLOAD PUSH1 0xF8 SHR PUSH1 0xF8 SHL PUSH31 0xFFFFFFFFFFFFFFFFFFFFFFFFFFFFFFFFFFFFFFFFFFFFFFFFFFFFFFFFFFFFFF NOT AND SUB PUSH2 0x18F8 JUMPI PUSH1 0x1 DUP9 PUSH1 0x6 ADD PUSH0 DUP9 PUSH31 0xFFFFFFFFFFFFFFFFFFFFFFFFFFFFFFFFFFFFFFFFFFFFFFFFFFFFFFFFFFFFFF NOT AND PUSH31 0xFFFFFFFFFFFFFFFFFFFFFFFFFFFFFFFFFFFFFFFFFFFFFFFFFFFFFFFFFFFFFF NOT AND DUP2 MSTORE PUSH1 0x20 ADD SWAP1 DUP2 MSTORE PUSH1 0x20 ADD PUSH0 KECCAK256 PUSH0 PUSH2 0x100 EXP DUP2 SLOAD DUP2 PUSH1 0xFF MUL NOT AND SWAP1 DUP4 ISZERO ISZERO MUL OR SWAP1 SSTORE POP PUSH1 0x1 DUP9 PUSH1 0x4 ADD DUP3 DUP2 SLOAD DUP2 LT PUSH2 0x18C8 JUMPI PUSH2 0x18C7 PUSH2 0x2A0C JUMP JUMPDEST JUMPDEST SWAP1 PUSH0 MSTORE PUSH1 0x20 PUSH0 KECCAK256 SWAP1 PUSH1 0x20 SWAP2 DUP3 DUP3 DIV ADD SWAP2 SWAP1 MOD PUSH2 0x100 EXP DUP2 SLOAD DUP2 PUSH1 0xFF MUL NOT AND SWAP1 DUP4 ISZERO ISZERO MUL OR SWAP1 SSTORE POP PUSH1 0x1 SWAP4 POP PUSH2 0x1997 JUMP JUMPDEST DUP8 PUSH1 0x4 ADD DUP2 DUP2 SLOAD DUP2 LT PUSH2 0x190E JUMPI PUSH2 0x190D PUSH2 0x2A0C JUMP JUMPDEST JUMPDEST SWAP1 PUSH0 MSTORE PUSH1 0x20 PUSH0 KECCAK256 SWAP1 PUSH1 0x20 SWAP2 DUP3 DUP3 DIV ADD SWAP2 SWAP1 MOD SWAP1 SLOAD SWAP1 PUSH2 0x100 EXP SWAP1 DIV PUSH1 0xFF AND PUSH2 0x1996 JUMPI PUSH32 0x5F00000000000000000000000000000000000000000000000000000000000000 DUP3 DUP3 DUP2 MLOAD DUP2 LT PUSH2 0x1964 JUMPI PUSH2 0x1963 PUSH2 0x2A0C JUMP JUMPDEST JUMPDEST PUSH1 0x20 ADD ADD SWAP1 PUSH31 0xFFFFFFFFFFFFFFFFFFFFFFFFFFFFFFFFFFFFFFFFFFFFFFFFFFFFFFFFFFFFFF NOT AND SWAP1 DUP2 PUSH0 BYTE SWAP1 MSTORE8 POP PUSH0 SWAP5 POP JUMPDEST JUMPDEST DUP1 DUP1 PUSH1 0x1 ADD SWAP2 POP POP PUSH2 0x17D0 JUMP JUMPDEST POP DUP7 PUSH1 0x8 ADD PUSH0 DUP1 DUP3 ADD PUSH0 PUSH2 0x100 EXP DUP2 SLOAD SWAP1 PUSH1 0xFF MUL NOT AND SWAP1 SSTORE PUSH1 0x1 DUP3 ADD PUSH0 SWAP1 SSTORE PUSH1 0x2 DUP3 ADD PUSH0 PUSH2 0x100 EXP DUP2 SLOAD SWAP1 PUSH1 0xFF MUL NOT AND SWAP1 SSTORE PUSH1 0x3 DUP3 ADD PUSH0 PUSH2 0x19E5 SWAP2 SWAP1 PUSH2 0x2433 JUMP JUMPDEST POP POP DUP7 PUSH0 ADD PUSH1 0x40 MLOAD PUSH2 0x19F7 SWAP2 SWAP1 PUSH2 0x36AC JUMP JUMPDEST PUSH1 0x40 MLOAD DUP1 SWAP2 SUB SWAP1 KECCAK256 PUSH32 0x93484660649CF971864763C1BC0E0D0F5D7FDCEEB388472825D299F8283268DE DUP7 DUP4 DUP7 ISZERO PUSH1 0x40 MLOAD PUSH2 0x1A33 SWAP4 SWAP3 SWAP2 SWAP1 PUSH2 0x36DC JUMP JUMPDEST PUSH1 0x40 MLOAD DUP1 SWAP2 SUB SWAP1 LOG2 DUP3 PUSH2 0x1AA7 JUMPI PUSH1 0x1 DUP8 PUSH1 0x5 ADD PUSH0 DUP3 DUP3 DUP3 SWAP1 SLOAD SWAP1 PUSH2 0x100 EXP SWAP1 DIV PUSH1 0xFF AND PUSH2 0x1A60 SWAP2 SWAP1 PUSH2 0x3479 JUMP JUMPDEST SWAP3 POP PUSH2 0x100 EXP DUP2 SLOAD DUP2 PUSH1 0xFF MUL NOT AND SWAP1 DUP4 PUSH1 0xFF AND MUL OR SWAP1 SSTORE POP PUSH1 0x6 PUSH1 0xFF AND DUP8 PUSH1 0x5 ADD PUSH0 SWAP1 SLOAD SWAP1 PUSH2 0x100 EXP SWAP1 DIV PUSH1 0xFF AND PUSH1 0xFF AND SUB PUSH2 0x1AA2 JUMPI PUSH2 0x1AA1 DUP8 PUSH1 0x1 PUSH2 0x1D0F JUMP JUMPDEST JUMPDEST PUSH2 0x1AB9 JUMP JUMPDEST DUP4 ISZERO PUSH2 0x1AB8 JUMPI PUSH2 0x1AB7 DUP8 PUSH0 PUSH2 0x1D0F JUMP JUMPDEST JUMPDEST JUMPDEST POP POP POP POP POP POP POP JUMP JUMPDEST PUSH0 DUP3 PUSH1 0x2 ADD PUSH0 DUP4 PUSH20 0xFFFFFFFFFFFFFFFFFFFFFFFFFFFFFFFFFFFFFFFF AND PUSH20 0xFFFFFFFFFFFFFFFFFFFFFFFFFFFFFFFFFFFFFFFF AND DUP2 MSTORE PUSH1 0x20 ADD SWAP1 DUP2 MSTORE PUSH1 0x20 ADD PUSH0 KECCAK256 PUSH0 PUSH2 0x100 EXP DUP2 SLOAD DUP2 PUSH1 0xFF MUL NOT AND SWAP1 DUP4 ISZERO ISZERO MUL OR SWAP1 SSTORE POP PUSH1 0x1 DUP3 PUSH1 0x1 ADD PUSH1 0x15 DUP3 DUP3 DUP3 SWAP1 SLOAD SWAP1 PUSH2 0x100 EXP SWAP1 DIV PUSH1 0xFF AND PUSH2 0x1B39 SWAP2 SWAP1 PUSH2 0x29D8 JUMP JUMPDEST SWAP3 POP PUSH2 0x100 EXP DUP2 SLOAD DUP2 PUSH1 0xFF MUL NOT AND SWAP1 DUP4 PUSH1 0xFF AND MUL OR SWAP1 SSTORE POP PUSH0 DUP3 PUSH1 0x8 ADD SWAP1 POP PUSH0 DUP4 PUSH1 0x1 ADD PUSH1 0x15 SWAP1 SLOAD SWAP1 PUSH2 0x100 EXP SWAP1 DIV PUSH1 0xFF AND PUSH1 0xFF AND GT DUP1 ISZERO PUSH2 0x1B87 JUMPI POP DUP1 PUSH0 ADD PUSH0 SWAP1 SLOAD SWAP1 PUSH2 0x100 EXP SWAP1 DIV PUSH1 0xFF AND JUMPDEST DUP1 ISZERO PUSH2 0x1C03 JUMPI POP PUSH0 PUSH1 0xF8 SHL DUP2 PUSH1 0x8 ADD PUSH0 DUP5 PUSH20 0xFFFFFFFFFFFFFFFFFFFFFFFFFFFFFFFFFFFFFFFF AND PUSH20 0xFFFFFFFFFFFFFFFFFFFFFFFFFFFFFFFFFFFFFFFF AND DUP2 MSTORE PUSH1 0x20 ADD SWAP1 DUP2 MSTORE PUSH1 0x20 ADD PUSH0 KECCAK256 PUSH0 SWAP1 SLOAD SWAP1 PUSH2 0x100 EXP SWAP1 DIV PUSH1 0xF8 SHL PUSH31 0xFFFFFFFFFFFFFFFFFFFFFFFFFFFFFFFFFFFFFFFFFFFFFFFFFFFFFFFFFFFFFF NOT AND EQ ISZERO JUMPDEST ISZERO PUSH2 0x1C16 JUMPI PUSH2 0x1C15 DUP4 PUSH0 ADD DUP3 DUP5 PUSH2 0x202C JUMP JUMPDEST JUMPDEST DUP2 PUSH20 0xFFFFFFFFFFFFFFFFFFFFFFFFFFFFFFFFFFFFFFFF AND DUP4 PUSH1 0x1 ADD PUSH0 SWAP1 SLOAD SWAP1 PUSH2 0x100 EXP SWAP1 DIV PUSH20 0xFFFFFFFFFFFFFFFFFFFFFFFFFFFFFFFFFFFFFFFF AND PUSH20 0xFFFFFFFFFFFFFFFFFFFFFFFFFFFFFFFFFFFFFFFF AND SUB PUSH2 0x1CAF JUMPI PUSH0 DUP4 PUSH1 0x1 ADD PUSH0 PUSH2 0x100 EXP DUP2 SLOAD DUP2 PUSH20 0xFFFFFFFFFFFFFFFFFFFFFFFFFFFFFFFFFFFFFFFF MUL NOT AND SWAP1 DUP4 PUSH20 0xFFFFFFFFFFFFFFFFFFFFFFFFFFFFFFFFFFFFFFFF AND MUL OR SWAP1 SSTORE POP JUMPDEST DUP2 PUSH20 0xFFFFFFFFFFFFFFFFFFFFFFFFFFFFFFFFFFFFFFFF AND DUP4 PUSH0 ADD PUSH1 0x40 MLOAD PUSH2 0x1CD6 SWAP2 SWAP1 PUSH2 0x36AC JUMP JUMPDEST PUSH1 0x40 MLOAD DUP1 SWAP2 SUB SWAP1 KECCAK256 PUSH32 0xE3C5754D381588D73ABE5A3EA491352AE6599BC3517832567C983A64F1FCB85B PUSH1 0x40 MLOAD PUSH1 0x40 MLOAD DUP1 SWAP2 SUB SWAP1 LOG3 POP POP POP JUMP JUMPDEST DUP2 PUSH0 ADD PUSH1 0x40 MLOAD PUSH2 0x1D1F SWAP2 SWAP1 PUSH2 0x36AC JUMP JUMPDEST PUSH1 0x40 MLOAD DUP1 SWAP2 SUB SWAP1 KECCAK256 PUSH32 0x3D40BF146111CF2FB1681F012B4CED47C0260037F37AC76366766D0D20E1689D DUP3 DUP5 PUSH1 0x3 ADD PUSH1 0x40 MLOAD PUSH2 0x1D5B SWAP3 SWAP2 SWAP1 PUSH2 0x380C JUMP JUMPDEST PUSH1 0x40 MLOAD DUP1 SWAP2 SUB SWAP1 LOG2 PUSH0 PUSH1 0x5B DUP4 PUSH0 ADD PUSH1 0x40 MLOAD PUSH2 0x1D76 SWAP2 SWAP1 PUSH2 0x36AC JUMP JUMPDEST SWAP1 DUP2 MSTORE PUSH1 0x20 ADD PUSH1 0x40 MLOAD DUP1 SWAP2 SUB SWAP1 KECCAK256 PUSH0 SWAP1 SLOAD SWAP1 PUSH2 0x100 EXP SWAP1 DIV PUSH1 0xFF AND SWAP1 POP PUSH1 0x5B DUP4 PUSH0 ADD PUSH1 0x40 MLOAD PUSH2 0x1DA5 SWAP2 SWAP1 PUSH2 0x36AC JUMP JUMPDEST SWAP1 DUP2 MSTORE PUSH1 0x20 ADD PUSH1 0x40 MLOAD DUP1 SWAP2 SUB SWAP1 KECCAK256 PUSH0 PUSH2 0x100 EXP DUP2 SLOAD SWAP1 PUSH1 0xFF MUL NOT AND SWAP1 SSTORE PUSH1 0x1 DUP1 DUP3 PUSH2 0x1DD0 SWAP2 SWAP1 PUSH2 0x29D8 JUMP JUMPDEST PUSH1 0xFF AND PUSH1 0x5 DUP2 LT PUSH2 0x1DE4 JUMPI PUSH2 0x1DE3 PUSH2 0x2A0C JUMP JUMPDEST JUMPDEST PUSH1 0x12 MUL ADD PUSH0 DUP1 DUP3 ADD PUSH0 PUSH2 0x1DF7 SWAP2 SWAP1 PUSH2 0x2451 JUMP JUMPDEST PUSH1 0x1 DUP3 ADD PUSH0 PUSH2 0x100 EXP DUP2 SLOAD SWAP1 PUSH20 0xFFFFFFFFFFFFFFFFFFFFFFFFFFFFFFFFFFFFFFFF MUL NOT AND SWAP1 SSTORE PUSH1 0x1 DUP3 ADD PUSH1 0x14 PUSH2 0x100 EXP DUP2 SLOAD SWAP1 PUSH1 0xFF MUL NOT AND SWAP1 SSTORE PUSH1 0x1 DUP3 ADD PUSH1 0x15 PUSH2 0x100 EXP DUP2 SLOAD SWAP1 PUSH1 0xFF MUL NOT AND SWAP1 SSTORE PUSH1 0x3 DUP3 ADD PUSH0 PUSH2 0x1E54 SWAP2 SWAP1 PUSH2 0x2451 JUMP JUMPDEST PUSH1 0x4 DUP3 ADD PUSH0 PUSH2 0x1E63 SWAP2 SWAP1 PUSH2 0x248E JUMP JUMPDEST PUSH1 0x5 DUP3 ADD PUSH0 PUSH2 0x100 EXP DUP2 SLOAD SWAP1 PUSH1 0xFF MUL NOT AND SWAP1 SSTORE PUSH1 0x7 DUP3 ADD PUSH0 SWAP1 SSTORE PUSH1 0x8 DUP3 ADD PUSH0 DUP1 DUP3 ADD PUSH0 PUSH2 0x100 EXP DUP2 SLOAD SWAP1 PUSH1 0xFF MUL NOT AND SWAP1 SSTORE PUSH1 0x1 DUP3 ADD PUSH0 SWAP1 SSTORE PUSH1 0x2 DUP3 ADD PUSH0 PUSH2 0x100 EXP DUP2 SLOAD SWAP1 PUSH1 0xFF MUL NOT AND SWAP1 SSTORE PUSH1 0x3 DUP3 ADD PUSH0 PUSH2 0x1EBD SWAP2 SWAP1 PUSH2 0x2433 JUMP JUMPDEST POP POP POP POP POP POP POP JUMP JUMPDEST PUSH0 DUP1 PUSH0 SWAP1 POP JUMPDEST PUSH1 0x5 DUP2 PUSH1 0xFF AND LT ISZERO PUSH2 0x1F90 JUMPI PUSH0 PUSH1 0x1 DUP3 PUSH1 0xFF AND PUSH1 0x5 DUP2 LT PUSH2 0x1EF0 JUMPI PUSH2 0x1EEF PUSH2 0x2A0C JUMP JUMPDEST JUMPDEST PUSH1 0x12 MUL ADD SWAP1 POP PUSH0 PUSH1 0x5B DUP3 PUSH0 ADD PUSH1 0x40 MLOAD PUSH2 0x1F09 SWAP2 SWAP1 PUSH2 0x36AC JUMP JUMPDEST SWAP1 DUP2 MSTORE PUSH1 0x20 ADD PUSH1 0x40 MLOAD DUP1 SWAP2 SUB SWAP1 KECCAK256 PUSH0 SWAP1 SLOAD SWAP1 PUSH2 0x100 EXP SWAP1 DIV PUSH1 0xFF AND PUSH1 0xFF AND SUB PUSH2 0x1F42 JUMPI PUSH1 0x1 DUP3 PUSH2 0x1F39 SWAP2 SWAP1 PUSH2 0x3479 JUMP JUMPDEST SWAP3 POP POP POP PUSH2 0x1F95 JUMP JUMPDEST PUSH2 0x384 DUP2 PUSH1 0x7 ADD SLOAD TIMESTAMP PUSH2 0x1F55 SWAP2 SWAP1 PUSH2 0x2CCF JUMP JUMPDEST GT ISZERO PUSH2 0x1F7C JUMPI PUSH2 0x1F66 DUP2 PUSH1 0x2 PUSH2 0x1D0F JUMP JUMPDEST PUSH1 0x1 DUP3 PUSH2 0x1F73 SWAP2 SWAP1 PUSH2 0x3479 JUMP JUMPDEST SWAP3 POP POP POP PUSH2 0x1F95 JUMP JUMPDEST POP DUP1 DUP1 PUSH2 0x1F88 SWAP1 PUSH2 0x383A JUMP JUMPDEST SWAP2 POP POP PUSH2 0x1ECC JUMP JUMPDEST POP PUSH0 SWAP1 POP JUMPDEST SWAP1 JUMP JUMPDEST PUSH1 0x1 DUP3 PUSH1 0x2 ADD PUSH0 DUP4 PUSH20 0xFFFFFFFFFFFFFFFFFFFFFFFFFFFFFFFFFFFFFFFF AND PUSH20 0xFFFFFFFFFFFFFFFFFFFFFFFFFFFFFFFFFFFFFFFF AND DUP2 MSTORE PUSH1 0x20 ADD SWAP1 DUP2 MSTORE PUSH1 0x20 ADD PUSH0 KECCAK256 PUSH0 PUSH2 0x100 EXP DUP2 SLOAD DUP2 PUSH1 0xFF MUL NOT AND SWAP1 DUP4 ISZERO ISZERO MUL OR SWAP1 SSTORE POP PUSH1 0x1 DUP3 PUSH1 0x1 ADD PUSH1 0x15 DUP3 DUP3 DUP3 SWAP1 SLOAD SWAP1 PUSH2 0x100 EXP SWAP1 DIV PUSH1 0xFF AND PUSH2 0x2010 SWAP2 SWAP1 PUSH2 0x3479 JUMP JUMPDEST SWAP3 POP PUSH2 0x100 EXP DUP2 SLOAD DUP2 PUSH1 0xFF MUL NOT AND SWAP1 DUP4 PUSH1 0xFF AND MUL OR SWAP1 SSTORE POP POP POP JUMP JUMPDEST PUSH0 DUP3 PUSH1 0x8 ADD PUSH0 DUP4 PUSH20 0xFFFFFFFFFFFFFFFFFFFFFFFFFFFFFFFFFFFFFFFF AND PUSH20 0xFFFFFFFFFFFFFFFFFFFFFFFFFFFFFFFFFFFFFFFF AND DUP2 MSTORE PUSH1 0x20 ADD SWAP1 DUP2 MSTORE PUSH1 0x20 ADD PUSH0 KECCAK256 PUSH0 SWAP1 SLOAD SWAP1 PUSH2 0x100 EXP SWAP1 DIV PUSH1 0xF8 SHL SWAP1 POP PUSH0 PUSH1 0xF8 SHL DUP4 PUSH1 0x8 ADD PUSH0 DUP5 PUSH20 0xFFFFFFFFFFFFFFFFFFFFFFFFFFFFFFFFFFFFFFFF AND PUSH20 0xFFFFFFFFFFFFFFFFFFFFFFFFFFFFFFFFFFFFFFFF AND DUP2 MSTORE PUSH1 0x20 ADD SWAP1 DUP2 MSTORE PUSH1 0x20 ADD PUSH0 KECCAK256 PUSH0 PUSH2 0x100 EXP DUP2 SLOAD DUP2 PUSH1 0xFF MUL NOT AND SWAP1 DUP4 PUSH1 0xF8 SHR MUL OR SWAP1 SSTORE POP PUSH0 DUP1 JUMPDEST DUP5 PUSH1 0x2 ADD PUSH0 SWAP1 SLOAD SWAP1 PUSH2 0x100 EXP SWAP1 DIV PUSH1 0xFF AND PUSH1 0xFF AND DUP2 LT ISZERO PUSH2 0x2302 JUMPI DUP4 PUSH20 0xFFFFFFFFFFFFFFFFFFFFFFFFFFFFFFFFFFFFFFFF AND DUP6 PUSH1 0x3 ADD DUP3 PUSH1 0x5 DUP2 LT PUSH2 0x2120 JUMPI PUSH2 0x211F PUSH2 0x2A0C JUMP JUMPDEST JUMPDEST ADD PUSH0 SWAP1 SLOAD SWAP1 PUSH2 0x100 EXP SWAP1 DIV PUSH20 0xFFFFFFFFFFFFFFFFFFFFFFFFFFFFFFFFFFFFFFFF AND PUSH20 0xFFFFFFFFFFFFFFFFFFFFFFFFFFFFFFFFFFFFFFFF AND SUB PUSH2 0x21BA JUMPI PUSH0 DUP6 PUSH1 0x3 ADD DUP3 PUSH1 0x5 DUP2 LT PUSH2 0x2173 JUMPI PUSH2 0x2172 PUSH2 0x2A0C JUMP JUMPDEST JUMPDEST ADD PUSH0 PUSH2 0x100 EXP DUP2 SLOAD DUP2 PUSH20 0xFFFFFFFFFFFFFFFFFFFFFFFFFFFFFFFFFFFFFFFF MUL NOT AND SWAP1 DUP4 PUSH20 0xFFFFFFFFFFFFFFFFFFFFFFFFFFFFFFFFFFFFFFFF AND MUL OR SWAP1 SSTORE POP PUSH1 0x1 SWAP2 POP PUSH2 0x22F5 JUMP JUMPDEST DUP2 ISZERO PUSH2 0x22F4 JUMPI PUSH0 DUP6 PUSH1 0x3 ADD PUSH1 0x1 DUP4 PUSH2 0x21D2 SWAP2 SWAP1 PUSH2 0x2CCF JUMP JUMPDEST PUSH1 0x5 DUP2 LT PUSH2 0x21E3 JUMPI PUSH2 0x21E2 PUSH2 0x2A0C JUMP JUMPDEST JUMPDEST ADD PUSH0 SWAP1 SLOAD SWAP1 PUSH2 0x100 EXP SWAP1 DIV PUSH20 0xFFFFFFFFFFFFFFFFFFFFFFFFFFFFFFFFFFFFFFFF AND SWAP1 POP DUP6 PUSH1 0x3 ADD DUP3 PUSH1 0x5 DUP2 LT PUSH2 0x221C JUMPI PUSH2 0x221B PUSH2 0x2A0C JUMP JUMPDEST JUMPDEST ADD PUSH0 SWAP1 SLOAD SWAP1 PUSH2 0x100 EXP SWAP1 DIV PUSH20 0xFFFFFFFFFFFFFFFFFFFFFFFFFFFFFFFFFFFFFFFF AND DUP7 PUSH1 0x3 ADD PUSH1 0x1 DUP5 PUSH2 0x224E SWAP2 SWAP1 PUSH2 0x2CCF JUMP JUMPDEST PUSH1 0x5 DUP2 LT PUSH2 0x225F JUMPI PUSH2 0x225E PUSH2 0x2A0C JUMP JUMPDEST JUMPDEST ADD PUSH0 PUSH2 0x100 EXP DUP2 SLOAD DUP2 PUSH20 0xFFFFFFFFFFFFFFFFFFFFFFFFFFFFFFFFFFFFFFFF MUL NOT AND SWAP1 DUP4 PUSH20 0xFFFFFFFFFFFFFFFFFFFFFFFFFFFFFFFFFFFFFFFF AND MUL OR SWAP1 SSTORE POP DUP1 DUP7 PUSH1 0x3 ADD DUP4 PUSH1 0x5 DUP2 LT PUSH2 0x22B4 JUMPI PUSH2 0x22B3 PUSH2 0x2A0C JUMP JUMPDEST JUMPDEST ADD PUSH0 PUSH2 0x100 EXP DUP2 SLOAD DUP2 PUSH20 0xFFFFFFFFFFFFFFFFFFFFFFFFFFFFFFFFFFFFFFFF MUL NOT AND SWAP1 DUP4 PUSH20 0xFFFFFFFFFFFFFFFFFFFFFFFFFFFFFFFFFFFFFFFF AND MUL OR SWAP1 SSTORE POP POP JUMPDEST JUMPDEST DUP1 DUP1 PUSH1 0x1 ADD SWAP2 POP POP PUSH2 0x20D8 JUMP JUMPDEST POP PUSH1 0x1 DUP5 PUSH1 0x2 ADD PUSH0 DUP3 DUP3 DUP3 SWAP1 SLOAD SWAP1 PUSH2 0x100 EXP SWAP1 DIV PUSH1 0xFF AND PUSH2 0x2323 SWAP2 SWAP1 PUSH2 0x29D8 JUMP JUMPDEST SWAP3 POP PUSH2 0x100 EXP DUP2 SLOAD DUP2 PUSH1 0xFF MUL NOT AND SWAP1 DUP4 PUSH1 0xFF AND MUL OR SWAP1 SSTORE POP DUP3 PUSH20 0xFFFFFFFFFFFFFFFFFFFFFFFFFFFFFFFFFFFFFFFF AND PUSH32 0xE11E7B01CDD17C8C7AB41ED7897874E6A229485A77CC445646517FDAC64E75BC DUP7 DUP5 PUSH1 0x40 MLOAD PUSH2 0x2383 SWAP3 SWAP2 SWAP1 PUSH2 0x35FE JUMP JUMPDEST PUSH1 0x40 MLOAD DUP1 SWAP2 SUB SWAP1 LOG2 POP POP POP POP POP JUMP JUMPDEST DUP3 DUP1 SLOAD DUP3 DUP3 SSTORE SWAP1 PUSH0 MSTORE PUSH1 0x20 PUSH0 KECCAK256 SWAP1 PUSH1 0x1F ADD PUSH1 0x20 SWAP1 DIV DUP2 ADD SWAP3 DUP3 ISZERO PUSH2 0x2422 JUMPI SWAP2 PUSH1 0x20 MUL DUP3 ADD PUSH0 JUMPDEST DUP4 DUP3 GT ISZERO PUSH2 0x23F4 JUMPI DUP4 MLOAD DUP4 DUP3 PUSH2 0x100 EXP DUP2 SLOAD DUP2 PUSH1 0xFF MUL NOT AND SWAP1 DUP4 ISZERO ISZERO MUL OR SWAP1 SSTORE POP SWAP3 PUSH1 0x20 ADD SWAP3 PUSH1 0x1 ADD PUSH1 0x20 DUP2 PUSH0 ADD DIV SWAP3 DUP4 ADD SWAP3 PUSH1 0x1 SUB MUL PUSH2 0x23B8 JUMP JUMPDEST DUP1 ISZERO PUSH2 0x2420 JUMPI DUP3 DUP2 PUSH2 0x100 EXP DUP2 SLOAD SWAP1 PUSH1 0xFF MUL NOT AND SWAP1 SSTORE PUSH1 0x1 ADD PUSH1 0x20 DUP2 PUSH0 ADD DIV SWAP3 DUP4 ADD SWAP3 PUSH1 0x1 SUB MUL PUSH2 0x23F4 JUMP JUMPDEST POP JUMPDEST POP SWAP1 POP PUSH2 0x242F SWAP2 SWAP1 PUSH2 0x24B3 JUMP JUMPDEST POP SWAP1 JUMP JUMPDEST POP PUSH0 DUP2 SSTORE PUSH1 0x1 ADD PUSH0 DUP2 SSTORE PUSH1 0x1 ADD PUSH0 DUP2 SSTORE PUSH1 0x1 ADD PUSH0 DUP2 SSTORE PUSH1 0x1 ADD PUSH0 SWAP1 SSTORE JUMP JUMPDEST POP DUP1 SLOAD PUSH2 0x245D SWAP1 PUSH2 0x28C3 JUMP JUMPDEST PUSH0 DUP3 SSTORE DUP1 PUSH1 0x1F LT PUSH2 0x246E JUMPI POP PUSH2 0x248B JUMP JUMPDEST PUSH1 0x1F ADD PUSH1 0x20 SWAP1 DIV SWAP1 PUSH0 MSTORE PUSH1 0x20 PUSH0 KECCAK256 SWAP1 DUP2 ADD SWAP1 PUSH2 0x248A SWAP2 SWAP1 PUSH2 0x24B3 JUMP JUMPDEST JUMPDEST POP JUMP JUMPDEST POP DUP1 SLOAD PUSH0 DUP3 SSTORE PUSH1 0x1F ADD PUSH1 0x20 SWAP1 DIV SWAP1 PUSH0 MSTORE PUSH1 0x20 PUSH0 KECCAK256 SWAP1 DUP2 ADD SWAP1 PUSH2 0x24B0 SWAP2 SWAP1 PUSH2 0x24B3 JUMP JUMPDEST POP JUMP JUMPDEST JUMPDEST DUP1 DUP3 GT ISZERO PUSH2 0x24CA JUMPI PUSH0 DUP2 PUSH0 SWAP1 SSTORE POP PUSH1 0x1 ADD PUSH2 0x24B4 JUMP JUMPDEST POP SWAP1 JUMP JUMPDEST PUSH0 PUSH1 0x40 MLOAD SWAP1 POP SWAP1 JUMP JUMPDEST PUSH0 DUP1 REVERT JUMPDEST PUSH0 DUP1 REVERT JUMPDEST PUSH0 DUP2 SWAP1 POP SWAP2 SWAP1 POP JUMP JUMPDEST PUSH2 0x24F1 DUP2 PUSH2 0x24DF JUMP JUMPDEST DUP2 EQ PUSH2 0x24FB JUMPI PUSH0 DUP1 REVERT JUMPDEST POP JUMP JUMPDEST PUSH0 DUP2 CALLDATALOAD SWAP1 POP PUSH2 0x250C DUP2 PUSH2 0x24E8 JUMP JUMPDEST SWAP3 SWAP2 POP POP JUMP JUMPDEST PUSH0 PUSH1 0x20 DUP3 DUP5 SUB SLT ISZERO PUSH2 0x2527 JUMPI PUSH2 0x2526 PUSH2 0x24D7 JUMP JUMPDEST JUMPDEST PUSH0 PUSH2 0x2534 DUP5 DUP3 DUP6 ADD PUSH2 0x24FE JUMP JUMPDEST SWAP2 POP POP SWAP3 SWAP2 POP POP JUMP JUMPDEST PUSH0 DUP2 MLOAD SWAP1 POP SWAP2 SWAP1 POP JUMP JUMPDEST PUSH0 DUP3 DUP3 MSTORE PUSH1 0x20 DUP3 ADD SWAP1 POP SWAP3 SWAP2 POP POP JUMP JUMPDEST DUP3 DUP2 DUP4 MCOPY PUSH0 DUP4 DUP4 ADD MSTORE POP POP POP JUMP JUMPDEST PUSH0 PUSH1 0x1F NOT PUSH1 0x1F DUP4 ADD AND SWAP1 POP SWAP2 SWAP1 POP JUMP JUMPDEST PUSH0 PUSH2 0x257F DUP3 PUSH2 0x253D JUMP JUMPDEST PUSH2 0x2589 DUP2 DUP6 PUSH2 0x2547 JUMP JUMPDEST SWAP4 POP PUSH2 0x2599 DUP2 DUP6 PUSH1 0x20 DUP7 ADD PUSH2 0x2557 JUMP JUMPDEST PUSH2 0x25A2 DUP2 PUSH2 0x2565 JUMP JUMPDEST DUP5 ADD SWAP2 POP POP SWAP3 SWAP2 POP POP JUMP JUMPDEST PUSH0 PUSH1 0x20 DUP3 ADD SWAP1 POP DUP2 DUP2 SUB PUSH0 DUP4 ADD MSTORE PUSH2 0x25C5 DUP2 DUP5 PUSH2 0x2575 JUMP JUMPDEST SWAP1 POP SWAP3 SWAP2 POP POP JUMP JUMPDEST PUSH0 DUP1 REVERT JUMPDEST PUSH0 DUP1 REVERT JUMPDEST PUSH32 0x4E487B7100000000000000000000000000000000000000000000000000000000 PUSH0 MSTORE PUSH1 0x41 PUSH1 0x4 MSTORE PUSH1 0x24 PUSH0 REVERT JUMPDEST PUSH2 0x260B DUP3 PUSH2 0x2565 JUMP JUMPDEST DUP2 ADD DUP2 DUP2 LT PUSH8 0xFFFFFFFFFFFFFFFF DUP3 GT OR ISZERO PUSH2 0x262A JUMPI PUSH2 0x2629 PUSH2 0x25D5 JUMP JUMPDEST JUMPDEST DUP1 PUSH1 0x40 MSTORE POP POP POP JUMP JUMPDEST PUSH0 PUSH2 0x263C PUSH2 0x24CE JUMP JUMPDEST SWAP1 POP PUSH2 0x2648 DUP3 DUP3 PUSH2 0x2602 JUMP JUMPDEST SWAP2 SWAP1 POP JUMP JUMPDEST PUSH0 PUSH8 0xFFFFFFFFFFFFFFFF DUP3 GT ISZERO PUSH2 0x2667 JUMPI PUSH2 0x2666 PUSH2 0x25D5 JUMP JUMPDEST JUMPDEST PUSH2 0x2670 DUP3 PUSH2 0x2565 JUMP JUMPDEST SWAP1 POP PUSH1 0x20 DUP2 ADD SWAP1 POP SWAP2 SWAP1 POP JUMP JUMPDEST DUP3 DUP2 DUP4 CALLDATACOPY PUSH0 DUP4 DUP4 ADD MSTORE POP POP POP JUMP JUMPDEST PUSH0 PUSH2 0x269D PUSH2 0x2698 DUP5 PUSH2 0x264D JUMP JUMPDEST PUSH2 0x2633 JUMP JUMPDEST SWAP1 POP DUP3 DUP2 MSTORE PUSH1 0x20 DUP2 ADD DUP5 DUP5 DUP5 ADD GT ISZERO PUSH2 0x26B9 JUMPI PUSH2 0x26B8 PUSH2 0x25D1 JUMP JUMPDEST JUMPDEST PUSH2 0x26C4 DUP5 DUP3 DUP6 PUSH2 0x267D JUMP JUMPDEST POP SWAP4 SWAP3 POP POP POP JUMP JUMPDEST PUSH0 DUP3 PUSH1 0x1F DUP4 ADD SLT PUSH2 0x26E0 JUMPI PUSH2 0x26DF PUSH2 0x25CD JUMP JUMPDEST JUMPDEST DUP2 CALLDATALOAD PUSH2 0x26F0 DUP5 DUP3 PUSH1 0x20 DUP7 ADD PUSH2 0x268B JUMP JUMPDEST SWAP2 POP POP SWAP3 SWAP2 POP POP JUMP JUMPDEST PUSH0 PUSH1 0x20 DUP3 DUP5 SUB SLT ISZERO PUSH2 0x270E JUMPI PUSH2 0x270D PUSH2 0x24D7 JUMP JUMPDEST JUMPDEST PUSH0 DUP3 ADD CALLDATALOAD PUSH8 0xFFFFFFFFFFFFFFFF DUP2 GT ISZERO PUSH2 0x272B JUMPI PUSH2 0x272A PUSH2 0x24DB JUMP JUMPDEST JUMPDEST PUSH2 0x2737 DUP5 DUP3 DUP6 ADD PUSH2 0x26CC JUMP JUMPDEST SWAP2 POP POP SWAP3 SWAP2 POP POP JUMP JUMPDEST PUSH0 PUSH1 0xFF DUP3 AND SWAP1 POP SWAP2 SWAP1 POP JUMP JUMPDEST PUSH2 0x2755 DUP2 PUSH2 0x2740 JUMP JUMPDEST DUP3 MSTORE POP POP JUMP JUMPDEST PUSH0 PUSH1 0x20 DUP3 ADD SWAP1 POP PUSH2 0x276E PUSH0 DUP4 ADD DUP5 PUSH2 0x274C JUMP JUMPDEST SWAP3 SWAP2 POP POP JUMP JUMPDEST PUSH2 0x277D DUP2 PUSH2 0x24DF JUMP JUMPDEST DUP3 MSTORE POP POP JUMP JUMPDEST PUSH0 PUSH1 0x20 DUP3 ADD SWAP1 POP PUSH2 0x2796 PUSH0 DUP4 ADD DUP5 PUSH2 0x2774 JUMP JUMPDEST SWAP3 SWAP2 POP POP JUMP JUMPDEST PUSH0 DUP1 PUSH1 0x40 DUP4 DUP6 SUB SLT ISZERO PUSH2 0x27B2 JUMPI PUSH2 0x27B1 PUSH2 0x24D7 JUMP JUMPDEST JUMPDEST PUSH0 DUP4 ADD CALLDATALOAD PUSH8 0xFFFFFFFFFFFFFFFF DUP2 GT ISZERO PUSH2 0x27CF JUMPI PUSH2 0x27CE PUSH2 0x24DB JUMP JUMPDEST JUMPDEST PUSH2 0x27DB DUP6 DUP3 DUP7 ADD PUSH2 0x26CC JUMP JUMPDEST SWAP3 POP POP PUSH1 0x20 DUP4 ADD CALLDATALOAD PUSH8 0xFFFFFFFFFFFFFFFF DUP2 GT ISZERO PUSH2 0x27FC JUMPI PUSH2 0x27FB PUSH2 0x24DB JUMP JUMPDEST JUMPDEST PUSH2 0x2808 DUP6 DUP3 DUP7 ADD PUSH2 0x26CC JUMP JUMPDEST SWAP2 POP POP SWAP3 POP SWAP3 SWAP1 POP JUMP JUMPDEST PUSH2 0x281B DUP2 PUSH2 0x2740 JUMP JUMPDEST DUP2 EQ PUSH2 0x2825 JUMPI PUSH0 DUP1 REVERT JUMPDEST POP JUMP JUMPDEST PUSH0 DUP2 CALLDATALOAD SWAP1 POP PUSH2 0x2836 DUP2 PUSH2 0x2812 JUMP JUMPDEST SWAP3 SWAP2 POP POP JUMP JUMPDEST PUSH0 DUP1 PUSH1 0x40 DUP4 DUP6 SUB SLT ISZERO PUSH2 0x2852 JUMPI PUSH2 0x2851 PUSH2 0x24D7 JUMP JUMPDEST JUMPDEST PUSH0 DUP4 ADD CALLDATALOAD PUSH8 0xFFFFFFFFFFFFFFFF DUP2 GT ISZERO PUSH2 0x286F JUMPI PUSH2 0x286E PUSH2 0x24DB JUMP JUMPDEST JUMPDEST PUSH2 0x287B DUP6 DUP3 DUP7 ADD PUSH2 0x26CC JUMP JUMPDEST SWAP3 POP POP PUSH1 0x20 PUSH2 0x288C DUP6 DUP3 DUP7 ADD PUSH2 0x2828 JUMP JUMPDEST SWAP2 POP POP SWAP3 POP SWAP3 SWAP1 POP JUMP JUMPDEST PUSH32 0x4E487B7100000000000000000000000000000000000000000000000000000000 PUSH0 MSTORE PUSH1 0x22 PUSH1 0x4 MSTORE PUSH1 0x24 PUSH0 REVERT JUMPDEST PUSH0 PUSH1 0x2 DUP3 DIV SWAP1 POP PUSH1 0x1 DUP3 AND DUP1 PUSH2 0x28DA JUMPI PUSH1 0x7F DUP3 AND SWAP2 POP JUMPDEST PUSH1 0x20 DUP3 LT DUP2 SUB PUSH2 0x28ED JUMPI PUSH2 0x28EC PUSH2 0x2896 JUMP JUMPDEST JUMPDEST POP SWAP2 SWAP1 POP JUMP JUMPDEST PUSH0 DUP2 SWAP1 POP SWAP3 SWAP2 POP POP JUMP JUMPDEST PUSH0 PUSH2 0x2907 DUP3 PUSH2 0x253D JUMP JUMPDEST PUSH2 0x2911 DUP2 DUP6 PUSH2 0x28F3 JUMP JUMPDEST SWAP4 POP PUSH2 0x2921 DUP2 DUP6 PUSH1 0x20 DUP7 ADD PUSH2 0x2557 JUMP JUMPDEST DUP1 DUP5 ADD SWAP2 POP POP SWAP3 SWAP2 POP POP JUMP JUMPDEST PUSH0 PUSH2 0x2938 DUP3 DUP5 PUSH2 0x28FD JUMP JUMPDEST SWAP2 POP DUP2 SWAP1 POP SWAP3 SWAP2 POP POP JUMP JUMPDEST PUSH32 0x47616D6573206973206E6F742061637469766500000000000000000000000000 PUSH0 DUP3 ADD MSTORE POP JUMP JUMPDEST PUSH0 PUSH2 0x2977 PUSH1 0x13 DUP4 PUSH2 0x2547 JUMP JUMPDEST SWAP2 POP PUSH2 0x2982 DUP3 PUSH2 0x2943 JUMP JUMPDEST PUSH1 0x20 DUP3 ADD SWAP1 POP SWAP2 SWAP1 POP JUMP JUMPDEST PUSH0 PUSH1 0x20 DUP3 ADD SWAP1 POP DUP2 DUP2 SUB PUSH0 DUP4 ADD MSTORE PUSH2 0x29A4 DUP2 PUSH2 0x296B JUMP JUMPDEST SWAP1 POP SWAP2 SWAP1 POP JUMP JUMPDEST PUSH32 0x4E487B7100000000000000000000000000000000000000000000000000000000 PUSH0 MSTORE PUSH1 0x11 PUSH1 0x4 MSTORE PUSH1 0x24 PUSH0 REVERT JUMPDEST PUSH0 PUSH2 0x29E2 DUP3 PUSH2 0x2740 JUMP JUMPDEST SWAP2 POP PUSH2 0x29ED DUP4 PUSH2 0x2740 JUMP JUMPDEST SWAP3 POP DUP3 DUP3 SUB SWAP1 POP PUSH1 0xFF DUP2 GT ISZERO PUSH2 0x2A06 JUMPI PUSH2 0x2A05 PUSH2 0x29AB JUMP JUMPDEST JUMPDEST SWAP3 SWAP2 POP POP JUMP JUMPDEST PUSH32 0x4E487B7100000000000000000000000000000000000000000000000000000000 PUSH0 MSTORE PUSH1 0x32 PUSH1 0x4 MSTORE PUSH1 0x24 PUSH0 REVERT JUMPDEST PUSH32 0x4E6F206D6F726520706C617965727320736C6F747320617661696C61626C6500 PUSH0 DUP3 ADD MSTORE POP JUMP JUMPDEST PUSH0 PUSH2 0x2A6D PUSH1 0x1F DUP4 PUSH2 0x2547 JUMP JUMPDEST SWAP2 POP PUSH2 0x2A78 DUP3 PUSH2 0x2A39 JUMP JUMPDEST PUSH1 0x20 DUP3 ADD SWAP1 POP SWAP2 SWAP1 POP JUMP JUMPDEST PUSH0 PUSH1 0x20 DUP3 ADD SWAP1 POP DUP2 DUP2 SUB PUSH0 DUP4 ADD MSTORE PUSH2 0x2A9A DUP2 PUSH2 0x2A61 JUMP JUMPDEST SWAP1 POP SWAP2 SWAP1 POP JUMP JUMPDEST PUSH32 0x416C726561647920696E207468652067616D6500000000000000000000000000 PUSH0 DUP3 ADD MSTORE POP JUMP JUMPDEST PUSH0 PUSH2 0x2AD5 PUSH1 0x13 DUP4 PUSH2 0x2547 JUMP JUMPDEST SWAP2 POP PUSH2 0x2AE0 DUP3 PUSH2 0x2AA1 JUMP JUMPDEST PUSH1 0x20 DUP3 ADD SWAP1 POP SWAP2 SWAP1 POP JUMP JUMPDEST PUSH0 PUSH1 0x20 DUP3 ADD SWAP1 POP DUP2 DUP2 SUB PUSH0 DUP4 ADD MSTORE PUSH2 0x2B02 DUP2 PUSH2 0x2AC9 JUMP JUMPDEST SWAP1 POP SWAP2 SWAP1 POP JUMP JUMPDEST PUSH32 0x596F7520617265206E6F74206120706C61796572206F6620746869732067616D PUSH0 DUP3 ADD MSTORE PUSH32 0x6500000000000000000000000000000000000000000000000000000000000000 PUSH1 0x20 DUP3 ADD MSTORE POP JUMP JUMPDEST PUSH0 PUSH2 0x2B63 PUSH1 0x21 DUP4 PUSH2 0x2547 JUMP JUMPDEST SWAP2 POP PUSH2 0x2B6E DUP3 PUSH2 0x2B09 JUMP JUMPDEST PUSH1 0x40 DUP3 ADD SWAP1 POP SWAP2 SWAP1 POP JUMP JUMPDEST PUSH0 PUSH1 0x20 DUP3 ADD SWAP1 POP DUP2 DUP2 SUB PUSH0 DUP4 ADD MSTORE PUSH2 0x2B90 DUP2 PUSH2 0x2B57 JUMP JUMPDEST SWAP1 POP SWAP2 SWAP1 POP JUMP JUMPDEST PUSH32 0x596F7520616C726561647920766F746564000000000000000000000000000000 PUSH0 DUP3 ADD MSTORE POP JUMP JUMPDEST PUSH0 PUSH2 0x2BCB PUSH1 0x11 DUP4 PUSH2 0x2547 JUMP JUMPDEST SWAP2 POP PUSH2 0x2BD6 DUP3 PUSH2 0x2B97 JUMP JUMPDEST PUSH1 0x20 DUP3 ADD SWAP1 POP SWAP2 SWAP1 POP JUMP JUMPDEST PUSH0 PUSH1 0x20 DUP3 ADD SWAP1 POP DUP2 DUP2 SUB PUSH0 DUP4 ADD MSTORE PUSH2 0x2BF8 DUP2 PUSH2 0x2BBF JUMP JUMPDEST SWAP1 POP SWAP2 SWAP1 POP JUMP JUMPDEST PUSH32 0x4C6574746572206D75737420626520696E20412D5A20612D7A00000000000000 PUSH0 DUP3 ADD MSTORE POP JUMP JUMPDEST PUSH0 PUSH2 0x2C33 PUSH1 0x19 DUP4 PUSH2 0x2547 JUMP JUMPDEST SWAP2 POP PUSH2 0x2C3E DUP3 PUSH2 0x2BFF JUMP JUMPDEST PUSH1 0x20 DUP3 ADD SWAP1 POP SWAP2 SWAP1 POP JUMP JUMPDEST PUSH0 PUSH1 0x20 DUP3 ADD SWAP1 POP DUP2 DUP2 SUB PUSH0 DUP4 ADD MSTORE PUSH2 0x2C60 DUP2 PUSH2 0x2C27 JUMP JUMPDEST SWAP1 POP SWAP2 SWAP1 POP JUMP JUMPDEST PUSH32 0x4C65747465722068617320616C7265616479206265656E206775657373656400 PUSH0 DUP3 ADD MSTORE POP JUMP JUMPDEST PUSH0 PUSH2 0x2C9B PUSH1 0x1F DUP4 PUSH2 0x2547 JUMP JUMPDEST SWAP2 POP PUSH2 0x2CA6 DUP3 PUSH2 0x2C67 JUMP JUMPDEST PUSH1 0x20 DUP3 ADD SWAP1 POP SWAP2 SWAP1 POP JUMP JUMPDEST PUSH0 PUSH1 0x20 DUP3 ADD SWAP1 POP DUP2 DUP2 SUB PUSH0 DUP4 ADD MSTORE PUSH2 0x2CC8 DUP2 PUSH2 0x2C8F JUMP JUMPDEST SWAP1 POP SWAP2 SWAP1 POP JUMP JUMPDEST PUSH0 PUSH2 0x2CD9 DUP3 PUSH2 0x24DF JUMP JUMPDEST SWAP2 POP PUSH2 0x2CE4 DUP4 PUSH2 0x24DF JUMP JUMPDEST SWAP3 POP DUP3 DUP3 SUB SWAP1 POP DUP2 DUP2 GT ISZERO PUSH2 0x2CFC JUMPI PUSH2 0x2CFB PUSH2 0x29AB JUMP JUMPDEST JUMPDEST SWAP3 SWAP2 POP POP JUMP JUMPDEST PUSH32 0x4E6F2061637469766520766F7465000000000000000000000000000000000000 PUSH0 DUP3 ADD MSTORE POP JUMP JUMPDEST PUSH0 PUSH2 0x2D36 PUSH1 0xE DUP4 PUSH2 0x2547 JUMP JUMPDEST SWAP2 POP PUSH2 0x2D41 DUP3 PUSH2 0x2D02 JUMP JUMPDEST PUSH1 0x20 DUP3 ADD SWAP1 POP SWAP2 SWAP1 POP JUMP JUMPDEST PUSH0 PUSH1 0x20 DUP3 ADD SWAP1 POP DUP2 DUP2 SUB PUSH0 DUP4 ADD MSTORE PUSH2 0x2D63 DUP2 PUSH2 0x2D2A JUMP JUMPDEST SWAP1 POP SWAP2 SWAP1 POP JUMP JUMPDEST PUSH32 0x566F7465206475726174696F6E20686173206E6F7420656C6170736564000000 PUSH0 DUP3 ADD MSTORE POP JUMP JUMPDEST PUSH0 PUSH2 0x2D9E PUSH1 0x1D DUP4 PUSH2 0x2547 JUMP JUMPDEST SWAP2 POP PUSH2 0x2DA9 DUP3 PUSH2 0x2D6A JUMP JUMPDEST PUSH1 0x20 DUP3 ADD SWAP1 POP SWAP2 SWAP1 POP JUMP JUMPDEST PUSH0 PUSH1 0x20 DUP3 ADD SWAP1 POP DUP2 DUP2 SUB PUSH0 DUP4 ADD MSTORE PUSH2 0x2DCB DUP2 PUSH2 0x2D92 JUMP JUMPDEST SWAP1 POP SWAP2 SWAP1 POP JUMP JUMPDEST PUSH32 0x4F6E6C792067616D652063726561746F722063616E2064656C65746520746865 PUSH0 DUP3 ADD MSTORE PUSH32 0x2067616D65000000000000000000000000000000000000000000000000000000 PUSH1 0x20 DUP3 ADD MSTORE POP JUMP JUMPDEST PUSH0 PUSH2 0x2E2C PUSH1 0x25 DUP4 PUSH2 0x2547 JUMP JUMPDEST SWAP2 POP PUSH2 0x2E37 DUP3 PUSH2 0x2DD2 JUMP JUMPDEST PUSH1 0x40 DUP3 ADD SWAP1 POP SWAP2 SWAP1 POP JUMP JUMPDEST PUSH0 PUSH1 0x20 DUP3 ADD SWAP1 POP DUP2 DUP2 SUB PUSH0 DUP4 ADD MSTORE PUSH2 0x2E59 DUP2 PUSH2 0x2E20 JUMP JUMPDEST SWAP1 POP SWAP2 SWAP1 POP JUMP JUMPDEST PUSH32 0x412067616D652077697468207468652063686F73656E20494420616C72656164 PUSH0 DUP3 ADD MSTORE PUSH32 0x7920657869737473000000000000000000000000000000000000000000000000 PUSH1 0x20 DUP3 ADD MSTORE POP JUMP JUMPDEST PUSH0 PUSH2 0x2EBA PUSH1 0x28 DUP4 PUSH2 0x2547 JUMP JUMPDEST SWAP2 POP PUSH2 0x2EC5 DUP3 PUSH2 0x2E60 JUMP JUMPDEST PUSH1 0x40 DUP3 ADD SWAP1 POP SWAP2 SWAP1 POP JUMP JUMPDEST PUSH0 PUSH1 0x20 DUP3 ADD SWAP1 POP DUP2 DUP2 SUB PUSH0 DUP4 ADD MSTORE PUSH2 0x2EE7 DUP2 PUSH2 0x2EAE JUMP JUMPDEST SWAP1 POP SWAP2 SWAP1 POP JUMP JUMPDEST PUSH32 0x4174206C65617374206F6E6520706C6179657220726571756972656420616E64 PUSH0 DUP3 ADD MSTORE PUSH32 0x206174206D6F7374204D41585F504C415945525320616C6C6F77656400000000 PUSH1 0x20 DUP3 ADD MSTORE POP JUMP JUMPDEST PUSH0 PUSH2 0x2F48 PUSH1 0x3C DUP4 PUSH2 0x2547 JUMP JUMPDEST SWAP2 POP PUSH2 0x2F53 DUP3 PUSH2 0x2EEE JUMP JUMPDEST PUSH1 0x40 DUP3 ADD SWAP1 POP SWAP2 SWAP1 POP JUMP JUMPDEST PUSH0 PUSH1 0x20 DUP3 ADD SWAP1 POP DUP2 DUP2 SUB PUSH0 DUP4 ADD MSTORE PUSH2 0x2F75 DUP2 PUSH2 0x2F3C JUMP JUMPDEST SWAP1 POP SWAP2 SWAP1 POP JUMP JUMPDEST PUSH32 0x4E6F20667265652067616D6520736C6F7420617661696C61626C650000000000 PUSH0 DUP3 ADD MSTORE POP JUMP JUMPDEST PUSH0 PUSH2 0x2FB0 PUSH1 0x1B DUP4 PUSH2 0x2547 JUMP JUMPDEST SWAP2 POP PUSH2 0x2FBB DUP3 PUSH2 0x2F7C JUMP JUMPDEST PUSH1 0x20 DUP3 ADD SWAP1 POP SWAP2 SWAP1 POP JUMP JUMPDEST PUSH0 PUSH1 0x20 DUP3 ADD SWAP1 POP DUP2 DUP2 SUB PUSH0 DUP4 ADD MSTORE PUSH2 0x2FDD DUP2 PUSH2 0x2FA4 JUMP JUMPDEST SWAP1 POP SWAP2 SWAP1 POP JUMP JUMPDEST PUSH0 DUP2 SWAP1 POP DUP2 PUSH0 MSTORE PUSH1 0x20 PUSH0 KECCAK256 SWAP1 POP SWAP2 SWAP1 POP JUMP JUMPDEST PUSH0 PUSH1 0x20 PUSH1 0x1F DUP4 ADD DIV SWAP1 POP SWAP2 SWAP1 POP JUMP JUMPDEST PUSH0 DUP3 DUP3 SHL SWAP1 POP SWAP3 SWAP2 POP POP JUMP JUMPDEST PUSH0 PUSH1 0x8 DUP4 MUL PUSH2 0x3040 PUSH32 0xFFFFFFFFFFFFFFFFFFFFFFFFFFFFFFFFFFFFFFFFFFFFFFFFFFFFFFFFFFFFFFFF DUP3 PUSH2 0x3005 JUMP JUMPDEST PUSH2 0x304A DUP7 DUP4 PUSH2 0x3005 JUMP JUMPDEST SWAP6 POP DUP1 NOT DUP5 AND SWAP4 POP DUP1 DUP7 AND DUP5 OR SWAP3 POP POP POP SWAP4 SWAP3 POP POP POP JUMP JUMPDEST PUSH0 DUP2 SWAP1 POP SWAP2 SWAP1 POP JUMP JUMPDEST PUSH0 PUSH2 0x3085 PUSH2 0x3080 PUSH2 0x307B DUP5 PUSH2 0x24DF JUMP JUMPDEST PUSH2 0x3062 JUMP JUMPDEST PUSH2 0x24DF JUMP JUMPDEST SWAP1 POP SWAP2 SWAP1 POP JUMP JUMPDEST PUSH0 DUP2 SWAP1 POP SWAP2 SWAP1 POP JUMP JUMPDEST PUSH2 0x309E DUP4 PUSH2 0x306B JUMP JUMPDEST PUSH2 0x30B2 PUSH2 0x30AA DUP3 PUSH2 0x308C JUMP JUMPDEST DUP5 DUP5 SLOAD PUSH2 0x3011 JUMP JUMPDEST DUP3 SSTORE POP POP POP POP JUMP JUMPDEST PUSH0 SWAP1 JUMP JUMPDEST PUSH2 0x30C6 PUSH2 0x30BA JUMP JUMPDEST PUSH2 0x30D1 DUP2 DUP5 DUP5 PUSH2 0x3095 JUMP JUMPDEST POP POP POP JUMP JUMPDEST JUMPDEST DUP2 DUP2 LT ISZERO PUSH2 0x30F4 JUMPI PUSH2 0x30E9 PUSH0 DUP3 PUSH2 0x30BE JUMP JUMPDEST PUSH1 0x1 DUP2 ADD SWAP1 POP PUSH2 0x30D7 JUMP JUMPDEST POP POP JUMP JUMPDEST PUSH1 0x1F DUP3 GT ISZERO PUSH2 0x3139 JUMPI PUSH2 0x310A DUP2 PUSH2 0x2FE4 JUMP JUMPDEST PUSH2 0x3113 DUP5 PUSH2 0x2FF6 JUMP JUMPDEST DUP2 ADD PUSH1 0x20 DUP6 LT ISZERO PUSH2 0x3122 JUMPI DUP2 SWAP1 POP JUMPDEST PUSH2 0x3136 PUSH2 0x312E DUP6 PUSH2 0x2FF6 JUMP JUMPDEST DUP4 ADD DUP3 PUSH2 0x30D6 JUMP JUMPDEST POP POP JUMPDEST POP POP POP JUMP JUMPDEST PUSH0 DUP3 DUP3 SHR SWAP1 POP SWAP3 SWAP2 POP POP JUMP JUMPDEST PUSH0 PUSH2 0x3159 PUSH0 NOT DUP5 PUSH1 0x8 MUL PUSH2 0x313E JUMP JUMPDEST NOT DUP1 DUP4 AND SWAP2 POP POP SWAP3 SWAP2 POP POP JUMP JUMPDEST PUSH0 PUSH2 0x3171 DUP4 DUP4 PUSH2 0x314A JUMP JUMPDEST SWAP2 POP DUP3 PUSH1 0x2 MUL DUP3 OR SWAP1 POP SWAP3 SWAP2 POP POP JUMP JUMPDEST PUSH2 0x318A DUP3 PUSH2 0x253D JUMP JUMPDEST PUSH8 0xFFFFFFFFFFFFFFFF DUP2 GT ISZERO PUSH2 0x31A3 JUMPI PUSH2 0x31A2 PUSH2 0x25D5 JUMP JUMPDEST JUMPDEST PUSH2 0x31AD DUP3 SLOAD PUSH2 0x28C3 JUMP JUMPDEST PUSH2 0x31B8 DUP3 DUP3 DUP6 PUSH2 0x30F8 JUMP JUMPDEST PUSH0 PUSH1 0x20 SWAP1 POP PUSH1 0x1F DUP4 GT PUSH1 0x1 DUP2 EQ PUSH2 0x31E9 JUMPI PUSH0 DUP5 ISZERO PUSH2 0x31D7 JUMPI DUP3 DUP8 ADD MLOAD SWAP1 POP JUMPDEST PUSH2 0x31E1 DUP6 DUP3 PUSH2 0x3166 JUMP JUMPDEST DUP7 SSTORE POP PUSH2 0x3248 JUMP JUMPDEST PUSH1 0x1F NOT DUP5 AND PUSH2 0x31F7 DUP7 PUSH2 0x2FE4 JUMP JUMPDEST PUSH0 JUMPDEST DUP3 DUP2 LT ISZERO PUSH2 0x321E JUMPI DUP5 DUP10 ADD MLOAD DUP3 SSTORE PUSH1 0x1 DUP3 ADD SWAP2 POP PUSH1 0x20 DUP6 ADD SWAP5 POP PUSH1 0x20 DUP2 ADD SWAP1 POP PUSH2 0x31F9 JUMP JUMPDEST DUP7 DUP4 LT ISZERO PUSH2 0x323B JUMPI DUP5 DUP10 ADD MLOAD PUSH2 0x3237 PUSH1 0x1F DUP10 AND DUP3 PUSH2 0x314A JUMP JUMPDEST DUP4 SSTORE POP JUMPDEST PUSH1 0x1 PUSH1 0x2 DUP9 MUL ADD DUP9 SSTORE POP POP POP JUMPDEST POP POP POP POP POP POP JUMP JUMPDEST PUSH0 DUP2 SWAP1 POP SWAP2 SWAP1 POP JUMP JUMPDEST PUSH2 0x326A PUSH2 0x3265 DUP3 PUSH2 0x24DF JUMP JUMPDEST PUSH2 0x3250 JUMP JUMPDEST DUP3 MSTORE POP POP JUMP JUMPDEST PUSH0 PUSH20 0xFFFFFFFFFFFFFFFFFFFFFFFFFFFFFFFFFFFFFFFF DUP3 AND SWAP1 POP SWAP2 SWAP1 POP JUMP JUMPDEST PUSH0 PUSH2 0x3299 DUP3 PUSH2 0x3270 JUMP JUMPDEST SWAP1 POP SWAP2 SWAP1 POP JUMP JUMPDEST PUSH0 DUP2 PUSH1 0x60 SHL SWAP1 POP SWAP2 SWAP1 POP JUMP JUMPDEST PUSH0 PUSH2 0x32B6 DUP3 PUSH2 0x32A0 JUMP JUMPDEST SWAP1 POP SWAP2 SWAP1 POP JUMP JUMPDEST PUSH0 PUSH2 0x32C7 DUP3 PUSH2 0x32AC JUMP JUMPDEST SWAP1 POP SWAP2 SWAP1 POP JUMP JUMPDEST PUSH2 0x32DF PUSH2 0x32DA DUP3 PUSH2 0x328F JUMP JUMPDEST PUSH2 0x32BD JUMP JUMPDEST DUP3 MSTORE POP POP JUMP JUMPDEST PUSH0 PUSH2 0x32F0 DUP3 DUP6 PUSH2 0x3259 JUMP JUMPDEST PUSH1 0x20 DUP3 ADD SWAP2 POP PUSH2 0x3300 DUP3 DUP5 PUSH2 0x32CE JUMP JUMPDEST PUSH1 0x14 DUP3 ADD SWAP2 POP DUP2 SWAP1 POP SWAP4 SWAP3 POP POP POP JUMP JUMPDEST PUSH32 0x4E487B7100000000000000000000000000000000000000000000000000000000 PUSH0 MSTORE PUSH1 0x12 PUSH1 0x4 MSTORE PUSH1 0x24 PUSH0 REVERT JUMPDEST PUSH0 PUSH2 0x3347 DUP3 PUSH2 0x24DF JUMP JUMPDEST SWAP2 POP PUSH2 0x3352 DUP4 PUSH2 0x24DF JUMP JUMPDEST SWAP3 POP DUP3 PUSH2 0x3362 JUMPI PUSH2 0x3361 PUSH2 0x3310 JUMP JUMPDEST JUMPDEST DUP3 DUP3 MOD SWAP1 POP SWAP3 SWAP2 POP POP JUMP JUMPDEST PUSH0 DUP2 SLOAD SWAP1 POP PUSH2 0x337B DUP2 PUSH2 0x28C3 JUMP JUMPDEST SWAP1 POP SWAP2 SWAP1 POP JUMP JUMPDEST PUSH0 DUP2 SWAP1 POP DUP2 PUSH0 MSTORE PUSH1 0x20 PUSH0 KECCAK256 SWAP1 POP SWAP2 SWAP1 POP JUMP JUMPDEST DUP2 DUP2 SUB PUSH2 0x33A2 JUMPI POP POP PUSH2 0x3477 JUMP JUMPDEST PUSH2 0x33AB DUP3 PUSH2 0x336D JUMP JUMPDEST PUSH8 0xFFFFFFFFFFFFFFFF DUP2 GT ISZERO PUSH2 0x33C4 JUMPI PUSH2 0x33C3 PUSH2 0x25D5 JUMP JUMPDEST JUMPDEST PUSH2 0x33CE DUP3 SLOAD PUSH2 0x28C3 JUMP JUMPDEST PUSH2 0x33D9 DUP3 DUP3 DUP6 PUSH2 0x30F8 JUMP JUMPDEST PUSH0 PUSH1 0x1F DUP4 GT PUSH1 0x1 DUP2 EQ PUSH2 0x3406 JUMPI PUSH0 DUP5 ISZERO PUSH2 0x33F4 JUMPI DUP3 DUP8 ADD SLOAD SWAP1 POP JUMPDEST PUSH2 0x33FE DUP6 DUP3 PUSH2 0x3166 JUMP JUMPDEST DUP7 SSTORE POP PUSH2 0x3470 JUMP JUMPDEST PUSH1 0x1F NOT DUP5 AND PUSH2 0x3414 DUP8 PUSH2 0x3382 JUMP JUMPDEST SWAP7 POP PUSH2 0x341F DUP7 PUSH2 0x2FE4 JUMP JUMPDEST PUSH0 JUMPDEST DUP3 DUP2 LT ISZERO PUSH2 0x3446 JUMPI DUP5 DUP10 ADD SLOAD DUP3 SSTORE PUSH1 0x1 DUP3 ADD SWAP2 POP PUSH1 0x1 DUP6 ADD SWAP5 POP PUSH1 0x20 DUP2 ADD SWAP1 POP PUSH2 0x3421 JUMP JUMPDEST DUP7 DUP4 LT ISZERO PUSH2 0x3463 JUMPI DUP5 DUP10 ADD SLOAD PUSH2 0x345F PUSH1 0x1F DUP10 AND DUP3 PUSH2 0x314A JUMP JUMPDEST DUP4 SSTORE POP JUMPDEST PUSH1 0x1 PUSH1 0x2 DUP9 MUL ADD DUP9 SSTORE POP POP POP JUMPDEST POP POP POP POP POP POP JUMPDEST JUMP JUMPDEST PUSH0 PUSH2 0x3483 DUP3 PUSH2 0x2740 JUMP JUMPDEST SWAP2 POP PUSH2 0x348E DUP4 PUSH2 0x2740 JUMP JUMPDEST SWAP3 POP DUP3 DUP3 ADD SWAP1 POP PUSH1 0xFF DUP2 GT ISZERO PUSH2 0x34A7 JUMPI PUSH2 0x34A6 PUSH2 0x29AB JUMP JUMPDEST JUMPDEST SWAP3 SWAP2 POP POP JUMP JUMPDEST PUSH0 DUP2 SLOAD PUSH2 0x34B9 DUP2 PUSH2 0x28C3 JUMP JUMPDEST PUSH2 0x34C3 DUP2 DUP7 PUSH2 0x28F3 JUMP JUMPDEST SWAP5 POP PUSH1 0x1 DUP3 AND PUSH0 DUP2 EQ PUSH2 0x34DD JUMPI PUSH1 0x1 DUP2 EQ PUSH2 0x34F2 JUMPI PUSH2 0x3524 JUMP JUMPDEST PUSH1 0xFF NOT DUP4 AND DUP7 MSTORE DUP2 ISZERO ISZERO DUP3 MUL DUP7 ADD SWAP4 POP PUSH2 0x3524 JUMP JUMPDEST PUSH2 0x34FB DUP6 PUSH2 0x3382 JUMP JUMPDEST PUSH0 JUMPDEST DUP4 DUP2 LT ISZERO PUSH2 0x351C JUMPI DUP2 SLOAD DUP2 DUP10 ADD MSTORE PUSH1 0x1 DUP3 ADD SWAP2 POP PUSH1 0x20 DUP2 ADD SWAP1 POP PUSH2 0x34FD JUMP JUMPDEST DUP4 DUP9 ADD SWAP6 POP POP POP JUMPDEST POP POP POP SWAP3 SWAP2 POP POP JUMP JUMPDEST PUSH0 PUSH2 0x3538 DUP3 DUP5 PUSH2 0x34AD JUMP JUMPDEST SWAP2 POP DUP2 SWAP1 POP SWAP3 SWAP2 POP POP JUMP JUMPDEST PUSH0 DUP2 SLOAD PUSH2 0x354F DUP2 PUSH2 0x28C3 JUMP JUMPDEST PUSH2 0x3559 DUP2 DUP7 PUSH2 0x2547 JUMP JUMPDEST SWAP5 POP PUSH1 0x1 DUP3 AND PUSH0 DUP2 EQ PUSH2 0x3573 JUMPI PUSH1 0x1 DUP2 EQ PUSH2 0x3589 JUMPI PUSH2 0x35BB JUMP JUMPDEST PUSH1 0xFF NOT DUP4 AND DUP7 MSTORE DUP2 ISZERO ISZERO PUSH1 0x20 MUL DUP7 ADD SWAP4 POP PUSH2 0x35BB JUMP JUMPDEST PUSH2 0x3592 DUP6 PUSH2 0x3382 JUMP JUMPDEST PUSH0 JUMPDEST DUP4 DUP2 LT ISZERO PUSH2 0x35B3 JUMPI DUP2 SLOAD DUP2 DUP10 ADD MSTORE PUSH1 0x1 DUP3 ADD SWAP2 POP PUSH1 0x20 DUP2 ADD SWAP1 POP PUSH2 0x3594 JUMP JUMPDEST DUP1 DUP9 ADD SWAP6 POP POP POP JUMPDEST POP POP POP SWAP3 SWAP2 POP POP JUMP JUMPDEST PUSH0 PUSH32 0xFF00000000000000000000000000000000000000000000000000000000000000 DUP3 AND SWAP1 POP SWAP2 SWAP1 POP JUMP JUMPDEST PUSH2 0x35F8 DUP2 PUSH2 0x35C4 JUMP JUMPDEST DUP3 MSTORE POP POP JUMP JUMPDEST PUSH0 PUSH1 0x40 DUP3 ADD SWAP1 POP DUP2 DUP2 SUB PUSH0 DUP4 ADD MSTORE PUSH2 0x3616 DUP2 DUP6 PUSH2 0x3543 JUMP JUMPDEST SWAP1 POP PUSH2 0x3625 PUSH1 0x20 DUP4 ADD DUP5 PUSH2 0x35EF JUMP JUMPDEST SWAP4 SWAP3 POP POP POP JUMP JUMPDEST PUSH0 DUP2 SLOAD PUSH2 0x3638 DUP2 PUSH2 0x28C3 JUMP JUMPDEST PUSH2 0x3642 DUP2 DUP7 PUSH2 0x28F3 JUMP JUMPDEST SWAP5 POP PUSH1 0x1 DUP3 AND PUSH0 DUP2 EQ PUSH2 0x365C JUMPI PUSH1 0x1 DUP2 EQ PUSH2 0x3671 JUMPI PUSH2 0x36A3 JUMP JUMPDEST PUSH1 0xFF NOT DUP4 AND DUP7 MSTORE DUP2 ISZERO ISZERO DUP3 MUL DUP7 ADD SWAP4 POP PUSH2 0x36A3 JUMP JUMPDEST PUSH2 0x367A DUP6 PUSH2 0x2FE4 JUMP JUMPDEST PUSH0 JUMPDEST DUP4 DUP2 LT ISZERO PUSH2 0x369B JUMPI DUP2 SLOAD DUP2 DUP10 ADD MSTORE PUSH1 0x1 DUP3 ADD SWAP2 POP PUSH1 0x20 DUP2 ADD SWAP1 POP PUSH2 0x367C JUMP JUMPDEST DUP4 DUP9 ADD SWAP6 POP POP POP JUMPDEST POP POP POP SWAP3 SWAP2 POP POP JUMP JUMPDEST PUSH0 PUSH2 0x36B7 DUP3 DUP5 PUSH2 0x362C JUMP JUMPDEST SWAP2 POP DUP2 SWAP1 POP SWAP3 SWAP2 POP POP JUMP JUMPDEST PUSH0 DUP2 ISZERO ISZERO SWAP1 POP SWAP2 SWAP1 POP JUMP JUMPDEST PUSH2 0x36D6 DUP2 PUSH2 0x36C2 JUMP JUMPDEST DUP3 MSTORE POP POP JUMP JUMPDEST PUSH0 PUSH1 0x60 DUP3 ADD SWAP1 POP PUSH2 0x36EF PUSH0 DUP4 ADD DUP7 PUSH2 0x35EF JUMP JUMPDEST DUP2 DUP2 SUB PUSH1 0x20 DUP4 ADD MSTORE PUSH2 0x3701 DUP2 DUP6 PUSH2 0x2575 JUMP JUMPDEST SWAP1 POP PUSH2 0x3710 PUSH1 0x40 DUP4 ADD DUP5 PUSH2 0x36CD JUMP JUMPDEST SWAP5 SWAP4 POP POP POP POP JUMP JUMPDEST PUSH32 0x4E487B7100000000000000000000000000000000000000000000000000000000 PUSH0 MSTORE PUSH1 0x21 PUSH1 0x4 MSTORE PUSH1 0x24 PUSH0 REVERT JUMPDEST PUSH1 0x3 DUP2 LT PUSH2 0x3756 JUMPI PUSH2 0x3755 PUSH2 0x3718 JUMP JUMPDEST JUMPDEST POP JUMP JUMPDEST PUSH0 DUP2 SWAP1 POP PUSH2 0x3766 DUP3 PUSH2 0x3745 JUMP JUMPDEST SWAP2 SWAP1 POP JUMP JUMPDEST PUSH0 PUSH2 0x3775 DUP3 PUSH2 0x3759 JUMP JUMPDEST SWAP1 POP SWAP2 SWAP1 POP JUMP JUMPDEST PUSH2 0x3785 DUP2 PUSH2 0x376B JUMP JUMPDEST DUP3 MSTORE POP POP JUMP JUMPDEST PUSH0 DUP2 SLOAD PUSH2 0x3797 DUP2 PUSH2 0x28C3 JUMP JUMPDEST PUSH2 0x37A1 DUP2 DUP7 PUSH2 0x2547 JUMP JUMPDEST SWAP5 POP PUSH1 0x1 DUP3 AND PUSH0 DUP2 EQ PUSH2 0x37BB JUMPI PUSH1 0x1 DUP2 EQ PUSH2 0x37D1 JUMPI PUSH2 0x3803 JUMP JUMPDEST PUSH1 0xFF NOT DUP4 AND DUP7 MSTORE DUP2 ISZERO ISZERO PUSH1 0x20 MUL DUP7 ADD SWAP4 POP PUSH2 0x3803 JUMP JUMPDEST PUSH2 0x37DA DUP6 PUSH2 0x2FE4 JUMP JUMPDEST PUSH0 JUMPDEST DUP4 DUP2 LT ISZERO PUSH2 0x37FB JUMPI DUP2 SLOAD DUP2 DUP10 ADD MSTORE PUSH1 0x1 DUP3 ADD SWAP2 POP PUSH1 0x20 DUP2 ADD SWAP1 POP PUSH2 0x37DC JUMP JUMPDEST DUP1 DUP9 ADD SWAP6 POP POP POP JUMPDEST POP POP POP SWAP3 SWAP2 POP POP JUMP JUMPDEST PUSH0 PUSH1 0x40 DUP3 ADD SWAP1 POP PUSH2 0x381F PUSH0 DUP4 ADD DUP6 PUSH2 0x377C JUMP JUMPDEST DUP2 DUP2 SUB PUSH1 0x20 DUP4 ADD MSTORE PUSH2 0x3831 DUP2 DUP5 PUSH2 0x378B JUMP JUMPDEST SWAP1 POP SWAP4 SWAP3 POP POP POP JUMP JUMPDEST PUSH0 PUSH2 0x3844 DUP3 PUSH2 0x2740 JUMP JUMPDEST SWAP2 POP PUSH1 0xFF DUP3 SUB PUSH2 0x3857 JUMPI PUSH2 0x3856 PUSH2 0x29AB JUMP JUMPDEST JUMPDEST PUSH1 0x1 DUP3 ADD SWAP1 POP SWAP2 SWAP1 POP JUMP INVALID LOG2 PUSH5 0x6970667358 0x22 SLT KECCAK256 PUSH16 0x247534F263093368DCA45AAF4283D532 EXTCODESIZE 0xD3 0xBC 0xD6 DIV PUSH15 0xC2A64B808844757AAF64736F6C6343 STOP ADDMOD BYTE STOP CALLER "
		},
		"gasEstimates": {
			"creation": {
				"codeDepositCost": "2897600",
				"executionCost": "infinite",
				"totalCost": "infinite"
			},
			"external": {
				"INACTIVITY_THRESHOLD()": "370",
				"MAX_GAMES()": "398",
				"MAX_GUESSES()": "420",
				"MAX_PLAYERS()": "376",
				"VOTING_DURATION()": "436",
				"WORDS(uint256)": "infinite",
				"createGame(string,uint8)": "infinite",
				"deleteGame(string)": "infinite",
				"endVote(string)": "infinite",
				"getGameIndex(string)": "infinite",
				"joinGame(string)": "infinite",
				"leaveGame(string)": "infinite",
				"voteForLetter(string,string)": "infinite"
			},
			"internal": {
				"_addPlayerToGame(struct Hangman.Game storage pointer,address)": "infinite",
				"_allocateGame()": "infinite",
				"_endGame(struct Hangman.Game storage pointer,enum Hangman.GameResult)": "infinite",
				"_endVote(struct Hangman.Game storage pointer)": "infinite",
				"_registerVote(string storage pointer,struct Hangman.Vote storage pointer,address,bytes1)": "infinite",
				"_removePlayerFromGame(struct Hangman.Game storage pointer,address)": "infinite",
				"_unregisterVote(string storage pointer,struct Hangman.Vote storage pointer,address)": "infinite"
			}
		},
		"methodIdentifiers": {
			"INACTIVITY_THRESHOLD()": "aa4103e2",
			"MAX_GAMES()": "4fd01913",
			"MAX_GUESSES()": "684d4678",
			"MAX_PLAYERS()": "4411b3eb",
			"VOTING_DURATION()": "a438d208",
			"WORDS(uint256)": "0f1ad663",
			"createGame(string,uint8)": "e565c835",
			"deleteGame(string)": "d5c68ab2",
			"endVote(string)": "d19e39f0",
			"getGameIndex(string)": "a8010c4e",
			"joinGame(string)": "3d536a2e",
			"leaveGame(string)": "c22a95f1",
			"voteForLetter(string,string)": "b3914f32"
		}
	},
	"abi": [
		{
			"anonymous": false,
			"inputs": [
				{
					"indexed": true,
					"internalType": "string",
					"name": "gameID",
					"type": "string"
				},
				{
					"indexed": false,
					"internalType": "uint8",
					"name": "numOfPlayers",
					"type": "uint8"
				}
			],
			"name": "GameCreated",
			"type": "event"
		},
		{
			"anonymous": false,
			"inputs": [
				{
					"indexed": true,
					"internalType": "string",
					"name": "gameID",
					"type": "string"
				},
				{
					"indexed": false,
					"internalType": "enum Hangman.GameResult",
					"name": "result",
					"type": "uint8"
				},
				{
					"indexed": false,
					"internalType": "string",
					"name": "solution",
					"type": "string"
				}
			],
			"name": "GameEnded",
			"type": "event"
		},
		{
			"anonymous": false,
			"inputs": [
				{
					"indexed": true,
					"internalType": "string",
					"name": "gameID",
					"type": "string"
				},
				{
					"indexed": true,
					"internalType": "address",
					"name": "player",
					"type": "address"
				}
			],
			"name": "PlayerJoined",
			"type": "event"
		},
		{
			"anonymous": false,
			"inputs": [
				{
					"indexed": true,
					"internalType": "string",
					"name": "gameID",
					"type": "string"
				},
				{
					"indexed": true,
					"internalType": "address",
					"name": "player",
					"type": "address"
				}
			],
			"name": "PlayerLeft",
			"type": "event"
		},
		{
			"anonymous": false,
			"inputs": [
				{
					"indexed": true,
					"internalType": "string",
					"name": "gameID",
					"type": "string"
				},
				{
					"indexed": false,
					"internalType": "bytes1",
					"name": "chosenLetter",
					"type": "bytes1"
				},
				{
					"indexed": false,
					"internalType": "string",
					"name": "maskedWord",
					"type": "string"
				},
				{
					"indexed": false,
					"internalType": "bool",
					"name": "error",
					"type": "bool"
				}
			],
			"name": "VoteEnded",
			"type": "event"
		},
		{
			"anonymous": false,
			"inputs": [
				{
					"indexed": false,
					"internalType": "string",
					"name": "gameID",
					"type": "string"
				},
				{
					"indexed": true,
					"internalType": "address",
					"name": "player",
					"type": "address"
				},
				{
					"indexed": false,
					"internalType": "bytes1",
					"name": "letter",
					"type": "bytes1"
				}
			],
			"name": "VoteRegistered",
			"type": "event"
		},
		{
			"anonymous": false,
			"inputs": [
				{
					"indexed": true,
					"internalType": "string",
					"name": "gameID",
					"type": "string"
				}
			],
			"name": "VoteStarted",
			"type": "event"
		},
		{
			"anonymous": false,
			"inputs": [
				{
					"indexed": false,
					"internalType": "string",
					"name": "gameID",
					"type": "string"
				},
				{
					"indexed": true,
					"internalType": "address",
					"name": "player",
					"type": "address"
				},
				{
					"indexed": false,
					"internalType": "bytes1",
					"name": "letter",
					"type": "bytes1"
				}
			],
			"name": "VoteUnregistered",
			"type": "event"
		},
		{
			"inputs": [],
			"name": "INACTIVITY_THRESHOLD",
			"outputs": [
				{
					"internalType": "uint256",
					"name": "",
					"type": "uint256"
				}
			],
			"stateMutability": "view",
			"type": "function"
		},
		{
			"inputs": [],
			"name": "MAX_GAMES",
			"outputs": [
				{
					"internalType": "uint8",
					"name": "",
					"type": "uint8"
				}
			],
			"stateMutability": "view",
			"type": "function"
		},
		{
			"inputs": [],
			"name": "MAX_GUESSES",
			"outputs": [
				{
					"internalType": "uint8",
					"name": "",
					"type": "uint8"
				}
			],
			"stateMutability": "view",
			"type": "function"
		},
		{
			"inputs": [],
			"name": "MAX_PLAYERS",
			"outputs": [
				{
					"internalType": "uint8",
					"name": "",
					"type": "uint8"
				}
			],
			"stateMutability": "view",
			"type": "function"
		},
		{
			"inputs": [],
			"name": "VOTING_DURATION",
			"outputs": [
				{
					"internalType": "uint256",
					"name": "",
					"type": "uint256"
				}
			],
			"stateMutability": "view",
			"type": "function"
		},
		{
			"inputs": [
				{
					"internalType": "uint256",
					"name": "",
					"type": "uint256"
				}
			],
			"name": "WORDS",
			"outputs": [
				{
					"internalType": "string",
					"name": "",
					"type": "string"
				}
			],
			"stateMutability": "view",
			"type": "function"
		},
		{
			"inputs": [
				{
					"internalType": "string",
					"name": "_gameID",
					"type": "string"
				},
				{
					"internalType": "uint8",
					"name": "_numOfPlayers",
					"type": "uint8"
				}
			],
			"name": "createGame",
			"outputs": [],
			"stateMutability": "nonpayable",
			"type": "function"
		},
		{
			"inputs": [
				{
					"internalType": "string",
					"name": "_gameID",
					"type": "string"
				}
			],
			"name": "deleteGame",
			"outputs": [],
			"stateMutability": "nonpayable",
			"type": "function"
		},
		{
			"inputs": [
				{
					"internalType": "string",
					"name": "_gameID",
					"type": "string"
				}
			],
			"name": "endVote",
			"outputs": [],
			"stateMutability": "nonpayable",
			"type": "function"
		},
		{
			"inputs": [
				{
					"internalType": "string",
					"name": "",
					"type": "string"
				}
			],
			"name": "getGameIndex",
			"outputs": [
				{
					"internalType": "uint8",
					"name": "",
					"type": "uint8"
				}
			],
			"stateMutability": "view",
			"type": "function"
		},
		{
			"inputs": [
				{
					"internalType": "string",
					"name": "_gameID",
					"type": "string"
				}
			],
			"name": "joinGame",
			"outputs": [],
			"stateMutability": "nonpayable",
			"type": "function"
		},
		{
			"inputs": [
				{
					"internalType": "string",
					"name": "_gameID",
					"type": "string"
				}
			],
			"name": "leaveGame",
			"outputs": [],
			"stateMutability": "nonpayable",
			"type": "function"
		},
		{
			"inputs": [
				{
					"internalType": "string",
					"name": "_gameID",
					"type": "string"
				},
				{
					"internalType": "string",
					"name": "_vote",
					"type": "string"
				}
			],
			"name": "voteForLetter",
			"outputs": [],
			"stateMutability": "nonpayable",
			"type": "function"
		}
	]
}